:020000040800F2
:1000000020490120690200087102000873020008FB
:10001000750200087702000879020008000000005D
:100020000000000000000000000000007B0200084B
:100030007D020008000000007F020008693F000800
:10004000830200088302000883020008830200087C
:10005000830200088302000883020008830200086C
:10006000830200088302000883020008830200085C
:10007000830200088302000883020008830200084C
:10008000830200088302000883020008830200083C
:100090003108000883020008830200088302000878
:1000A000830200088302000883020008830200081C
:1000B000830200088302000883020008830200080C
:1000C00083020008830200088302000883020008FC
:1000D0008302000883020008830200082D41000803
:1000E00083020008830200088302000883020008DC
:1000F00083020008830200088302000883020008CC
:1001000083020008830200088302000883020008BB
:1001100083020008830200088302000883020008AB
:10012000830200088302000883020008830200089B
:10013000830200088302000883020008830200088B
:10014000190A0008830200088302000883020008DD
:10015000830200088302000883020008830200086B
:10016000830200088302000883020008830200085B
:10017000830200088302000883020008830200084B
:10018000830200088302000800F002F800F05CF827
:100190000AA090E8000C82448344AAF10107DA45E2
:1001A00001D100F051F8AFF2090EBAE80F0013F0D8
:1001B000010F18BFFB1A43F001031847E473000056
:1001C000047400000A444FF0000C10F8013B13F0D7
:1001D000070408BF10F8014B1D1108BF10F8015BA0
:1001E000641E05D010F8016B641E01F8016BF9D193
:1001F00013F0080F1EBF10F8014BAD1C0C1B09D1EA
:100200006D1E58BF01F801CBFAD505E014F8016B5B
:1002100001F8016B6D1EF9D59142D6D370470000ED
:100220000023002400250026103A28BF78C1FBD8FF
:10023000520728BF30C148BF0B6070471FB506F09A
:10024000A4FE1FBD10B510BD00F0BCF81146FFF7AD
:10025000F5FF05F0FFFE00F0DAF803B4FFF7F2FF58
:1002600003BC00F0DDF8000009488047094800475A
:10027000FEE7FEE7FEE7FEE7FEE7FEE7FEE7FEE756
:10028000FEE7FEE704480549054A064B70470000B3
:10029000E53F000889010008204301202049012092
:1002A0002045012020450120032A40F2308010F033
:1002B000030C00F0158011F8013BBCF1020F624401
:1002C00098BF11F801CB00F8013B38BF11F8013B92
:1002D000A2F1040298BF00F801CB38BF00F8013B3F
:1002E00011F0030300F03380083AC0F0088051F8A1
:1002F000043B083A51F804CBA0E80810F5E7121DBA
:100300005CBF51F8043B40F8043BAFF30080D207D8
:1003100024BF11F8013B11F801CB48BF11F8012BA4
:1003200024BF00F8013B00F801CB48BF00F8012BC7
:10033000704770477047704710B500F03BF8006891
:1003400010BD10B5044600F035F8046010BD10B5BE
:10035000203AC0F00B80B1E81850203AA0E81850BD
:10036000B1E81850A0E81850BFF4F5AF5FEA027C7E
:1003700024BFB1E81850A0E8185044BF18C918C0ED
:10038000BDE810405FEA827C24BF51F8043B40F88E
:10039000043B08BF7047D20728BF31F8023B48BF73
:1003A00011F8012B28BF20F8023B48BF00F8012BB1
:1003B0007047000000487047BC4201200048704769
:1003C000BC4201207546FFF7F9FFAE4605006946BD
:1003D000534620F00700854618B020B5FFF752FFBE
:1003E000BDE820404FF000064FF000074FF0000836
:1003F0004FF0000B21F00701AC46ACE8C009ACE8B7
:10040000C009ACE8C009ACE8C0098D46704710B51A
:100410000446AFF300802046BDE81040FFF71DBF43
:1004200001491820ABBEFEE726000200704710B558
:1004300002684260016042688A1A826043695A42D7
:1004400002EBD2748368B3EB640F04DA4369826809
:100450001A4482600AE0426902EBD2748368B3EB0B
:10046000640F03DD43698268D21A8260D0ED060A08
:1004700090ED020AB8EEC00A30EE800A80ED060A5E
:1004800010BD0000F0EE400AC0ED000A90ED010A38
:1004900090ED001A30EE410A9FED231AB4EEC10A26
:1004A000F1EE10FA10DD90ED000A90ED011A30EE39
:1004B000410A9FED1E1A30EE010A90ED021A30EE4D
:1004C000010A80ED020A29E090ED000A90ED011A80
:1004D00030EE410A9FED141AB4EEC10AF1EE10FAA3
:1004E00010DD90ED000A90ED011A30EE410A9FED0B
:1004F0000F1A30EE410A90ED021A30EE010A80ED3B
:10050000020A0BE090ED000A90ED011A30EE410A6C
:1005100090ED021A30EE010A80ED020AC0ED010AE8
:1005200090ED020A70470000000034430000B4431D
:1005300070B505460C4600260DB1022C00D870BDE2
:10054000611EFF22284601F0ABFF0646601E2E54B6
:1005500000BFF4E770B50446002510210A4801F0F9
:1005600044FDFF2141EA042141F4004005F07AFDF9
:10057000002005F077FD050A1021034801F037FD42
:1005800000BF284670BD00000008024070B5044658
:100590002021094801F029FD002141EA042141F40C
:1005A000004005F05FFDC5B22021034801F01FFDAA
:1005B00000BF284670BD00000008024070B5044628
:1005C0000D461021074801F010FD45EA0421C1F352
:1005D0000E0005F047FD1021024801F008FD00BFA4
:1005E00070BD00000008024070B504460D46202191
:1005F000074801F0FAFC45EA0421C1F30E0005F0BA
:1006000031FD2021024801F0F2FC00BF70BD000066
:100610000008024010B503F01FFD00F00DF800F0D7
:1006200027F94FF4E12005F089FD02F05EFE03F0AA
:10063000E5F805F0A3FB10BD00B589B0012108461F
:1006400002F0A4FF0121480602F0B0FF4FF4C050B1
:10065000009002208DF804008DF8050000208DF830
:10066000060001208DF807006946274801F052FC7A
:1006700009220B21244801F095FC09220C21224873
:1006800001F090FC00208DF81E0001208DF81F0065
:100690008DF8200000208DF821008DF82200012027
:1006A0008DF8230000208DF81A008DF81B0008201B
:1006B0008DF81C0003208DF81D00ADF8180006A968
:1006C000124800F03AFB00208DF812008DF813005C
:1006D00001208DF814000020ADF80800ADF80A00E4
:1006E000ADF80C00ADF80E00ADF8100001208DF84B
:1006F000150002A800F004FA01220221034800F0CC
:1007000013FB09B000BD000000000240006400407F
:1007100010B52DED068B38480068A0F20520E0B139
:10072000012833D0032862D1334801F0CBFE0446C0
:1007300021463248FFF77BFE2F4801F0C9FE00EE4C
:10074000100AB8EEC00A2E4880ED010A2A4801F0CE
:10075000D4FE2C4880ED000A4AE0274801F0B2FEA2
:10076000044621462848FFF762FE234801F0B0FE08
:1007700000EE100AB8EEC00A244880ED010A1E48B7
:1007800001F0BBFE224880ED000A31E01A4801F07A
:1007900099FE044621461F48FFF749FE1D4890ED8B
:1007A000060A10EE101A084606F07EFB41EC1A0B02
:1007B0009FED190B53EC102B05F064FE41EC190B67
:1007C0009FED170B53EC102B06F078F841EC180B4B
:1007D00005F06AFD14494860074801F079FE00EE13
:1007E000100AB8EEC00A114880ED010A00E000BF0F
:1007F00000BFBDEC068B10BD1C070020C801002007
:1008000000020020B8010020E40100204002002086
:10081000BC0100207C010020000000000000C0405E
:1008200000000000008076407C080020C008002006
:1008300010B502210B4800F0E7F988B10221094800
:1008400000F00AF9084A0021064800F000FBFFF713
:100850005FFF0648B0F87400401C0449A1F874001A
:1008600010BD0000006400401C0700203809002073
:1008700000B589B00121022002F088FE012148065E
:1008800002F094FE0121880602F090FE4FF44050E1
:10089000009002208DF804008DF8050000208DF8EE
:1008A000060001208DF807006946274801F032FB59
:1008B00009220C21244801F075FB09220D21224850
:1008C00001F070FB00208DF81E0001208DF81F0044
:1008D0008DF8200000208DF821008DF822000120E5
:1008E0008DF8230000208DF81A008DF81B000820D9
:1008F0008DF81C0003208DF81D00ADF8180006A926
:10090000124800F01AFA0E208DF8120000208DF81F
:10091000130001208DF814000020ADF80800ADF898
:100920000A00ADF80C00ADF80E00ADF81000012083
:100930008DF8150002A800F0E3F801220221034817
:1009400000F0F2F909B000BD000402400068004068
:1009500010B528480068A0F2052050B3012846D100
:10096000244801F0AFFD044621462348FFF75FFD10
:100970002148008800B2A0F580500A3800EE100A25
:10098000B8EEC00ADFED1D0A20EE200ADFED1C0ADA
:1009900080EE201A1B4880ED001A164801F098FDE1
:1009A000404200EE100AB8EEC00A174880ED000A77
:1009B0001EE0104801F086FD044621461348FFF76B
:1009C00036FD124890ED060A114880ED010A0948EB
:1009D00001F07EFD00EE100AB8EEC00A0B48D0ED23
:1009E000040A80EE201A0B4880ED011A00E000BFD7
:1009F00000BF10BD30070020500300200000B443AA
:100A000000000046380300203C030020880200203C
:100A1000A4020020E802002010B502210B4800F0DB
:100A2000F3F888B10221094800F016F8084A0021BD
:100A3000064800F00CFAFFF78BFF0648B0F8780084
:100A4000401C0449A1F8780010BD00000068004077
:100A50003007002038090020B1F5007F3AD00FDCC4
:100A6000202928D006DC01291CD004291DD0082902
:100A700040D11DE0402921D0B1F5807F3AD126E058
:100A8000B1F5004F31D006DCB1F5806F25D0B1F55E
:100A9000006F2FD124E0B1F5803F12D0B1F5003FB7
:100AA00028D111E0154A826025E00822C26022E0C8
:100AB0001022C2601FE0082202611CE010220261C5
:100AC00019E00822426016E01022426013E004227E
:100AD000426010E0042242600DE0042242600AE01D
:100AE000002282610422426005E000228261042229
:100AF000426000E000BF00BF70470000010101003C
:100B000010B50021837A012202FA03F13D4A1268EE
:100B100042F001023B4B1A603A4A1C3212688A4387
:100B2000384B1C331A60027BCAB9364A0C32126841
:100B30008A43344B0C331A604288C38842EA034329
:100B4000304A4032847A42F834300288838842EA5C
:100B500003432C4A4032847A02EBC4025360027B86
:100B6000012A19D1274A0C3212680A43254B0C334B
:100B70001A604288038842EA0343224A4032847A58
:100B800042F83430C288838842EA03431D4A403227
:100B9000847A02EBC4025360C27A3AB9194A121D30
:100BA00012688A43174B1B1D1A6006E0154A121D76
:100BB00012680A43134B1B1D1A60028932B9114A8D
:100BC000143212688A430F4B14331A600289012AC7
:100BD00006D10C4A143212680A430A4B14331A60C5
:100BE000427B012A06D1074A1C3212680A43054B90
:100BF0001C331A60034A126822F00102014B1A608A
:100C000010BD00000066004070B504460D46002689
:100C100060692840002871D0B5F5807F5CD010DC79
:100C2000082D35D006DC012D20D0022D24D0042D36
:100C300072D127E0102D31D0202D35D0402D6BD131
:100C400038E0B5F5004F60D009DCB5F5007F49D03C
:100C5000B5F5806F4CD0B5F5006F5DD14FE0B5F5BF
:100C6000803F2DD0B5F5003F56D12FE0A0682D492B
:100C700000F01AFD064651E0E068032100F014FD83
:100C800006464BE0E068082100F00EFD064645E010
:100C9000E068102100F008FD06463FE020690321CE
:100CA00000F002FD064639E02069082100F0FCFC56
:100CB000064633E02069102100F0F6FC06462DE0E0
:100CC0006068082100F0F0FC064627E0606810210B
:100CD00000F0EAFC064621E0A069012100F0E4FCF6
:100CE00006461BE0A069022100F0DEFC064615E086
:100CF000A069042100F0D8FC06460FE00FE0A069CF
:100D0000702100F0D1FC064608E06068042100F084
:100D1000CBFC064602E0FFE7002600BF00E000260D
:100D2000304670BD010101001AB143690B434361B4
:100D300002E043698B434361704730B502460020AF
:100D40000023146824F002041460146844F00104C1
:100D5000146000E05B1C546804F001041CB94FF6F9
:100D6000FF74A342F6D1546804F001040CB90020CA
:100D70006CE08C79012C04D1146844F08004146078
:100D800003E0146824F080041460CC79012C04D1B1
:100D9000146844F04004146003E0146824F0400434
:100DA00014600C7A012C04D1146844F020041460FF
:100DB00003E0146824F0200414604C7A012C04D160
:100DC000146844F01004146003E0146824F0100464
:100DD00014608C7A012C04D1146844F00804146067
:100DE00003E0146824F008041460CC7A012C04D1C8
:100DF000146844F00404146003E0146824F004044C
:100E000014608C78A407CD7844EA05640D7944EA2F
:100E100005444D7944EA05540D886D1E2C43D46178
:100E2000146824F001041460002300E05B1C546883
:100E300004F001041CB14FF6FF74A342F6D15468CC
:100E400004F001040CB1002000E0012030BD10B519
:100E500000F5D87303EB01131B6803F0040313724E
:100E6000137A53B900F5D87303EB01131B6840F2F2
:100E7000FF7404EA5353136009E000F5D87303EBE1
:100E800001131B686FF0604404EAD303536000F55C
:100E9000D87303EB01131B6803F00203537200F5D0
:100EA000D87303EB01135B6803F00F03937200F533
:100EB000D87303EB01135B681B0AD37400F5D87376
:100EC00003EB01139B68D37200F5D87303EB011396
:100ED0009B681C0A147300F5D87303EB01139B681D
:100EE0001C0C547300F5D87303EB01139B681B0EA5
:100EF000937300F5D87303EB0113DB68D37300F52C
:100F0000D87303EB0113DB681C0A147400F5D87363
:100F100003EB0113DB681C0C547400F5D87303EB6E
:100F20000113DB681B0E937421B9C36843F02003DF
:100F3000C36003E0036943F02003036110BD2DE9A2
:100F4000F04385B081460E4614461D46DDE90C7817
:100F500000208DF80800009608208DF80A00002077
:100F60008DF80900200A8DF80B00E1B28DF80C1005
:100F7000290A8DF80D10E9B28DF80E10390A8DF896
:100F80000F10F9B28DF810104FEA18218DF81110DA
:100F900008F0FF018DF812106946484600F003F88A
:100FA00005B0BDE8F08310B502460020936803F059
:100FB0008063B3F1806F00D110E0936803F00063A9
:100FC000B3F1006F01D1012008E0936803F0805372
:100FD000B3F1805F01D1022000E00420042874D026
:100FE00002F5C07303EB00131B6803F0010402F564
:100FF000C07303EB00131C600B7A7BB94B7A0C882F
:1010000043EA445302F5C07404EB001424682343FC
:1010100002F5C07404EB0014236010E00B7A4C68F6
:1010200043EAC4034C7A234302F5C07404EB001472
:101030002468234302F5C07404EB001423608B7A08
:1010400003F00F038B7202F5C07303EB00135B68B0
:1010500023F00F0402F5C07303EB00135C6002F58C
:10106000C07303EB00135B688C7A234302F5C074F2
:1010700004EB001463608B7B1C064B7B44EA034447
:101080000B7B44EA0323CC7A234302F5C07404EBC0
:101090000014A3608B7C1C064B7C44EA03440B7C4D
:1010A00044EA0323CC7B234302F5C07404EB001411
:1010B000E36002F5C07303EB00131B6843F0010407
:1010C00002F5C07303EB00131C6010BD10B52DEDCD
:1010D000068B044694ED000AD4ED010A30EE600A56
:1010E00084ED080A94ED0A0AD4ED080A30EE200ACD
:1010F00084ED0A0AD4ED0E1AB0EE611AD4ED0E1A80
:10110000F1EE611AF0EE610AD4ED0A1AB0EE610A4E
:1011100000F0D3FA84ED0A0A94ED030AD4ED0A0A2A
:1011200020EE200A84ED060AD4ED021A94ED082A76
:1011300061EE821AB0EE610AD4ED0D1AB0EE611ABA
:10114000D4ED0D1AF1EE611AF0EE610A00F0B5FA75
:1011500084ED050AD4ED081A94ED092A71EEC21A3D
:1011600094ED042A61EE821AB0EE610AD4ED0F1AF2
:10117000B0EE611AD4ED0F1AF1EE611AF0EE610AC9
:1011800000F09BFA84ED070A94ED100A10EE101A95
:10119000084605F089FE41EC180B94ED080A10EEA4
:1011A000101A084605F080FE41EC1A0BB0EE4A0A10
:1011B000F0EE6A0A03F014FBB0EE409AF0EE609A8B
:1011C00053EC182B51EC190B05F03CFB03D29FEDAF
:1011D000140A84ED0A0A94ED050AD4ED060A30EEED
:1011E000200AD4ED070A30EE200A84ED0B0A94EDB4
:1011F000080A84ED090AD4ED0C1AB0EE611AD4ED98
:101200000C1AF1EE611AF0EE610AD4ED0B1AB0EE91
:10121000610A00F052FA84ED0B0ABDEC068B10BD9A
:101220000000000010B52DED068B044694ED000A79
:10123000D4ED010A30EE600A84ED080A94ED100A3C
:1012400010EE101A084605F02FFE41EC180B94ED35
:10125000080A10EE101A084605F026FE41EC1A0B9B
:10126000B0EE4A0AF0EE6A0A03F0BAFAB0EE409A1B
:10127000F0EE609A53EC182B51EC190B05F0E2FAE2
:1012800007D294ED0A0AD4ED080A30EE200A84ED64
:101290000A0AD4ED0E1AB0EE611AD4ED0E1AF1EE70
:1012A000611AF0EE610AD4ED0A1AB0EE610A00F09C
:1012B00004FA84ED0A0A94ED030AD4ED0A0A20EE3A
:1012C000200A84ED060AD4ED021A94ED082A61EE94
:1012D000821AB0EE610AD4ED0D1AB0EE611AD4EDA7
:1012E0000D1AF1EE611AF0EE610A00F0E6F984EDF4
:1012F000050AD4ED081A94ED092A71EEC21A94ED8C
:10130000042A61EE821AB0EE610AD4ED0F1AB0EE33
:10131000611AD4ED0F1AF1EE611AF0EE610A00F0D5
:10132000CCF984ED070A94ED050AD4ED060A30EEF7
:10133000200AD4ED070A30EE200A84ED0B0A94ED62
:10134000080A84ED090AD4ED0C1AB0EE611AD4ED46
:101350000C1AF1EE611AF0EE610AD4ED0B1AB0EE40
:10136000610A00F0AAF984ED0B0ABDEC068B10BDF2
:1013700010B52DED028B044694ED000A84ED0F0AA2
:1013800004F1240000F040F894ED090AD4ED010ABC
:1013900030EE600A84ED020A94ED050AF7EE000AC9
:1013A00080EE808A94ED081AF0EE410A94ED021A5C
:1013B000B0EE410A02F0E3F9F0EE400A94ED0A0AB9
:1013C00094ED061A01EE200AD4ED070A94ED021AF4
:1013D00000EE810A28EE000A84ED030AD4ED041A17
:1013E000B0EE611AD4ED041AF1EE611AF0EE610A62
:1013F000D4ED031AB0EE610A00F05FF984ED030A40
:10140000BDEC028B10BD000030B52DED108B83B00C
:1014100004469FED7B0AB0EE40FA94ED000AD4ED4D
:10142000060A30EE600A84ED020A94ED030AD4ED58
:10143000040A20EE200AB0EE408A94ED040A20EE61
:10144000080A10EE105A94ED020AD4ED040A94ED45
:10145000011A00EE810AF0EE408A18EE900A05F0BB
:1014600023FD41EC1E0BB0EE4E0AF0EE6E0A03F0C7
:10147000B7F9B0EE40DAF0EE60DA94ED030AF2EE7E
:10148000000A20EE200A10EE101A084605F00CFDA6
:1014900053EC1D2BCDE900019DED000B51EC100B21
:1014A00005F00CFA41EC1B0B28EE080A10EE101A9E
:1014B000084605F0F9FC41EC1C0B53EC1B2B04F027
:1014C00025FF41EC1A0BB0EE4A0AF0EE6A0A03F06F
:1014D000BBFFB0EE409AF0EE609A51EC190B04F0AD
:1014E000E3FE0290284605F0DFFC41EC190B18EEF4
:1014F000900A05F0D9FC41EC1B0BB0EE4B0AF0EE64
:101500006B0A03F06DF9B0EE40AAF0EE60AA53EC5E
:10151000192B51EC1A0B05F0CFFA18D2B0EE680A6D
:1015200002F010FD00EE100AF8EEC00A9DED020A6E
:1015300030EE480A60EE800AB0EE001A80EE810AB2
:10154000D4ED010A30EE200AB0EE40FA09E0D4ED05
:10155000040A88EEA00AD4ED010A30EE200AB0EEAB
:1015600040FA18EE100A05F09FFC41EC190B1FEE33
:10157000100A05F099FC41EC1B0BB0EE4B0AF0EEA3
:101580006B0A03F02DF9B0EE40AAF0EE60AA53EC1E
:10159000192B51EC1A0B05F08FFA10D2B0EE4F0A4E
:1015A00002F0D0FC00EE100AB8EEC00AD4ED030A37
:1015B000BFEE001A60EE810A60EE20FA09E094EDB9
:1015C000030AFFEE000A20EE200A20EE0F0AC0EE0A
:1015D00008FA94ED000AD4ED050A94ED011A00EE24
:1015E000810A84ED000A94ED010AD4ED050A00EEAB
:1015F000AF0A84ED010A03B0BDEC108B30BD0000D2
:101600000000000010B51F4800681F49C1F80A001B
:101610001E48406EC1F80E001D480068C1F8120057
:101620001A48806EC1F802001A4890ED000AB1EE27
:10163000400A10EE100AC1F80600174800788875B5
:101640001548006830B10020134908604FF48070DD
:101650001249488318210C48FEF76AFF10491148C7
:1016600000F040F800210F4800F056F806480D49F8
:10167000583948661820C86501210A4800F04CF81E
:1016800010BD000090030020C80000203C04002092
:10169000CC050020D4050020840600200000024074
:1016A00000800018586002400246002002EA010350
:1016B0000BB1012000E000207047F0EE401AF4EE7C
:1016C000E01AF1EE10FA02D2B0EE600A09E0F4EE90
:1016D000C11AF1EE10FA02DDB0EE410A01E0B0EEFF
:1016E000610A70470246094B9A4201D2084801E05C
:1016F0000648103801F000531BB1064B0B40C36085
:1017000002E0044B0B40836070470000106402400D
:10171000006002407D0F7D0F21B1026842F001029E
:10172000026003E0026822F00102026070470000DC
:10173000016821F0010101600021016041608160C8
:10174000C1600161212141614A49884204D13D21A2
:10175000484A103A91608CE046491831884205D1D8
:101760004FF47461434A103A916082E0414930314C
:10177000884205D14FF474113E4A103A916078E0E6
:101780003C494831884205D14FF07461394A103ADA
:1017900091606EE037496031884204D13649354A5C
:1017A000103AD16065E033497831884204D1334939
:1017B000304A103AD1605CE02E499031884204D121
:1017C0002F492C4A103AD16053E02A49A831884267
:1017D00005D14FF03D51274A103AD16049E02949DF
:1017E000884204D13D21274A083A116041E0254949
:1017F0001831884205D14FF47461224A083A1160C9
:1018000037E020493031884205D14FF474111D4A28
:10181000083A11602DE01B494831884205D14FF04C
:101820007461184A083A116023E016496031884211
:1018300004D11149134A121F11601AE0114978317D
:10184000884204D10D490F4A121F116011E00D4961
:101850009031884204D10A490A4A121F116008E0F7
:101860000849A831884204D14FF03D51054A121F62
:1018700011607047106002403D000020400F0020C2
:1018800000003D2010640240014600200A6802F07A
:1018900001020AB1012000E00020704701464868BB
:1018A00080B2704710B500220268134B1A40CC6812
:1018B0000B6823434C6923438C692343CC6923433E
:1018C0000C6A23434C6A23438C6A23434C6B2343A7
:1018D0008C6B23431A430260426922F00702D1E96C
:1018E0000B3423431A4342610B6943604B688360A6
:1018F0008B68C36010BD00003F801CF090ED001AA3
:10190000B4EEC01AF1EE10FA01D2002109E090ED18
:10191000001AB4EEC01AF1EE10FA01DD012100E068
:101920000221C9B990ED001AB4EEC01AF1EE10FA16
:1019300002DB80ED000A2AE090ED001A31EE201A59
:1019400080ED001A90ED001AB4EEC01AF1EE10FA14
:101950001DDB80ED000A1AE0012918D190ED001A74
:10196000B4EEC01AF1EE10FA02D880ED000A0EE0D3
:1019700090ED001A31EE601A80ED001A90ED001A19
:10198000B4EEC01AF1EE10FA01D880ED000A7047EB
:1019900000B52DED048B83B0F0EE408AB0EE609A76
:1019A000FD48007800EE100AB8EE400AFB48D0ED82
:1019B000000AB4EEE00AF1EE10FA20D2D0ED000AEF
:1019C000F548007800EE100AB8EE400A30EEC00A82
:1019D000BCEEC00A10EE100AF1490870F148006828
:1019E000F14908600020EF490860EC4890ED000ADA
:1019F000EE4880ED000A0120ED49087094E0E648C9
:101A0000007800EE100AB8EE400AE448D0ED000A73
:101A1000B4EEE00AF1EE10FA20DDD0ED000ADE4867
:101A2000007800EE100AB8EE400A30EEC00ABCEEB4
:101A3000C00A10EE100ADA490870DA480068DA497C
:101A400008600020D7490860D44890ED000AD748C4
:101A500080ED000A0020D649087065E0D148006892
:101A6000401CD0490860D248007870B3CB4890ED54
:101A7000000AF7EE000A30EE200ACC48D0ED000A4A
:101A8000B4EEE00AF1EE10FA14DDC548007800EE7D
:101A9000100AF8EE400AC44890ED000AB8EE400A79
:101AA00080EE801AC14890ED000A31EE000A80ED08
:101AB000000A39E0B94890ED000ADFEDBE0A30EEC9
:101AC000200ABA4880ED000A2EE0FFE7B34890ED07
:101AD000000AF7EE000A30EE600AB448D0ED000AC2
:101AE000B4EEE00AF1EE10FA14D2AD48007800EE40
:101AF000100AF8EE400AAC4890ED000AB8EE400A31
:101B000080EE801AA94890ED000A30EE410A80ED7F
:101B1000000A09E0A14890ED000ADFEDA60A30EEC8
:101B2000600AA24880ED000AA348007800EE100A7F
:101B3000B8EE400AA148D0ED000AB4EEE00AF1EE9A
:101B400010FA20D2D0ED000A9B48007800EE100A6F
:101B5000B8EE400A30EEC00ABCEEC00A10EE100A21
:101B60009749087097480068974908600020954990
:101B70000860924890ED000A944880ED000A012028
:101B80009349087094E08C48007800EE100AB8EE93
:101B9000400A8A48D0ED000AB4EEE00AF1EE10FAED
:101BA00020DDD0ED000A8448007800EE100AB8EE7F
:101BB000400A30EEC00ABCEEC00A10EE100A80499E
:101BC0000870804800688049086000207D490860EE
:101BD0007A4890ED000A7D4880ED000A00207C499B
:101BE000087065E077480068401C764908607848CE
:101BF000007870B3714890ED000AF7EE000A30EEFD
:101C0000200A7248D0ED000AB4EEE00AF1EE10FAB4
:101C100014DD6B48007800EE100AF8EE400A6A48BE
:101C200090ED000AB8EE400A80EE801A674890ED09
:101C3000000A31EE000A80ED000A39E05F4890EDBD
:101C4000000ADFED5C0A30EE200A604880ED000AF1
:101C50002EE0FFE7594890ED000AF7EE000A30EE5B
:101C6000600A5A48D0ED000AB4EEE00AF1EE10FA2C
:101C700014D25348007800EE100AF8EE400A524899
:101C800090ED000AB8EE400A80EE801A4F4890EDC1
:101C9000000A30EE410A80ED000A09E0474890ED65
:101CA000000ADFED440A30EE600A484880ED000A81
:101CB0004848007801286ED14748007801281FD194
:101CC000464890ED010ADFED460AB4EEE00AF1EE77
:101CD00010FA0ADD43480068434908600020414982
:101CE000086002203C4908704FE09FED400A3B48E5
:101CF00080ED030A3B480068401C3A49086044E014
:101D00003548007802281ED1344890ED010ADFEDF5
:101D1000380AB4EEE00AF1EE10FA09D23148006850
:101D20003449086000202F4908602B4908702CE0D6
:101D30009FED310A294880ED030A2A480068401CBB
:101D40002849086021E0284890ED000AB8EE400AD2
:101D5000DFED2A0AC0EE809A264890ED000AB8EE20
:101D6000400ADFED270A80EE808A39EE880ADFED2F
:101D70001F0A80EE801A234880ED001A90ED000AB9
:101D800020EE080A204880ED000A144890ED030A6E
:101D9000BDEEC00A3AE04FE002050020B801002085
:101DA000000500200805002010050020C0010020CB
:101DB00004050020CDCC8C3F03050020BC01002091
:101DC000010500200C05002014050020C40100209E
:101DD00005050020E2040020F80400200002002095
:101DE0000080BB45FC040020EC0400200000FA4306
:101DF0000000C842F004002000000000001BB74AA9
:101E0000C00DB44AE4040020E804002010EE100ADB
:101E100000B20021CDE90010344890ED030ABDEE78
:101E2000C00A10EE100A404202B20B4640F2FF1107
:101E30002F48FFF784F843E02E48007802282FD17E
:101E400000202D49086001202C490870B1EE680A75
:101E50002B4880ED000A254880ED009A2848FFF7BE
:101E600087FA2248FFF784FA254890ED030ABDEE71
:101E7000C00A10EE100A8B3000B20021CDE900102C
:101E80001A4890ED030ABDEEC00A10EE100A8B3816
:101E900002B20B4640F2FF111548FFF750F80FE071
:101EA00000201549086001201449087000200090A6
:101EB0000346024640F2FF1101900D48FFF73FF83C
:101EC000104890ED000ABCEEC00A10EE100A0E4950
:101ED00008700E4890ED000ABCEEC00A10EE100A21
:101EE0000B49087003B0BDEC048B00BD400200201C
:101EF00000640040E2040020FC040020F8040020FC
:101F000000020020B801002002050020BC010020D2
:101F100003050020F0B50A4600210023002400BF7D
:101F20003DE0012505FA01F3156805EA03049C422A
:101F300034D105684F000326BE40B54305601579CE
:101F40004E00B5400668354305601579012D02D075
:101F50001579022D16D185684F000326BE40B54382
:101F6000856055794E00B540866835438560456883
:101F700001268E40B5434560456896798E40B6B2DD
:101F800035434560C5684F000326BE40B543C56074
:101F9000D5794E00B540C6683543C560491C102947
:101FA000BFD3F0BDF0B5002300244D07ED0E02FABB
:101FB00005F3CE1000F1200555F826504E07F70E18
:101FC0000F26BE40B543CF1000F1200646F827503B
:101FD000CE1000F1200555F8265045EA0304CE1036
:101FE00000F1200545F82640F0BD4183704701838C
:101FF0007047000010B52DED028B7F480088401C13
:102000007D4908800846008840F2DC51884202DDA4
:1020100000207949088000F01DF9784800880028E0
:102020005ED0774890ED000A7448008841F288310C
:10203000081A744901EB800080ED000A724890EDA7
:10204000000A6F48D0ED000A30EE200A6E4880ED9D
:10205000000A6E4890ED000A6848008841F2883115
:10206000081A6B4901EB800080ED000A694890ED89
:10207000000A6648D0ED000A30EE200A654880ED7F
:10208000000A654890ED000A5C48008841F28831FA
:10209000081A624901EB800080ED000A604890ED6B
:1020A000000A5D48D0ED000A30EE200A5C4880ED61
:1020B000000A5248008841F28831081A00EE100ADE
:1020C000B8EEC00A4D480088081A564901EB800056
:1020D00080ED000A49480088401E4849088089E090
:1020E0004F4890ED000ADFED500A80EE201A4F486D
:1020F00080ED001A00244BE040F271206043414A19
:1021000002EB401141F28832464803F02FFF484865
:1021100000EB840080ED000A454800EB840090ED60
:10212000000A10EE101A084604F0BEFE9FED410BA7
:1021300053EC102B04F0C0FC12D33D4800EB84009C
:1021400090ED000A10EE101A084604F0ADFE41ECC6
:10215000180B9FED3A0B53EC102B04F073FB16D2C7
:1021600041F28830254908809FED360A264880EDE7
:10217000000A9FED340A274880ED000A9FED310ADE
:10218000274880ED000A0020BDEC028B10BD641CC6
:10219000032CB1DB1C4890ED000ADFED230A80EE32
:1021A000201A80ED001A1B4890ED000ADFED1E0A90
:1021B00080EE201A80ED001A194890ED000ADFED3C
:1021C0001A0A80EE201A80ED001A9FED1F0A0E48B1
:1021D00080ED000A9FED1D0A0E4880ED000A9FED7C
:1021E0001C0A0F4880ED000A41F28830034908803C
:1021F0000120C9E70020C7E78006002098050020DD
:10220000A8050020300A002000060020AC050020B0
:102210005058002004060020B005002070A60020C1
:102220000806002090F4002000409C451406002081
:10223000B04201202D431CEBE2360A3F2D431CEB3C
:10224000E2360ABF0000000032EE963DE9EAB2BD78
:10225000CBA185BE2DE9F04F2DED068B87B0132065
:10226000FEF778F907461220FEF774F9804615202C
:10227000FEF770F981461420FEF76CF982461720AC
:10228000FEF768F983461620FEF764F906900320EE
:10229000FEF77CF905900220FEF778F904900520FE
:1022A000FEF774F903900420FEF770F902900720FE
:1022B000FEF76CF901900620FEF768F9009048EAF5
:1022C000072000B200EE100AB8EEC00ADFED660A81
:1022D00080EE201A9FED650A61EE000A644890EDD9
:1022E000000AB8EE400A20EE800A624880ED000A3B
:1022F0004AEA092000B200EE100AB8EEC00ADFED8B
:102300005A0A80EE201A9FED590A61EE000A5848D9
:1023100090ED000AB8EE400A20EE800A564880EDA3
:10232000000A069840EA0B2000B200EE100AF8EE10
:10233000C00A9FED4D1A80EE810ADFED4C0A60EE77
:10234000200A4B4890ED000AB8EE400A20EE800AC1
:102350004A4880ED000ADDE9040140EA012000B2AC
:1023600000EE100AB8EEC00A9FED3F1AC0EE010A57
:102370009FED3E0A20EE800A414880ED000ADDE92B
:10238000020140EA012000B200EE100AF8EEC00A95
:102390009FED351A80EE810ADFED340A20EE200A27
:1023A000384880ED000ADDE9000140EA012000B272
:1023B00000EE100AF8EEC00A9FED2B1A80EE810A9B
:1023C000DFED2A0A20EE200A2F4880ED000A2220A5
:1023D000FEF7C0F806462320FEF7BCF80446204668
:1023E000E11704EBD161491101EBC605B5F5806F2A
:1023F0001BDBA5F5006004F0FAF941EC1A0B9FED28
:10240000230B53EC102B04F059FA41EC190B9FED00
:10241000210B53EC102B03F079FF41EC180B04F067
:1024200089F900B21D49088019E0284604F0F6F940
:1024300041EC1A0B9FED150B53EC102B04F03EFAF8
:1024400041EC190B9FED130B53EC102B03F05EFFC7
:1024500041EC180B04F06EF900B21049088007B087
:10246000BDEC068BBDE8F08F00FEFF4600007A440D
:10247000180600209C050020A0050020A4050020CF
:10248000A8050020AC050020B005002000000000D9
:102490000000C03F00000000000037409A05002007
:1024A00030B5034605E013F8010B80EA0204044846
:1024B000025D081EA1F10101F5D1104630BD0000FA
:1024C0008F70000801460A7BCB7A42EA03207047EE
:1024D00010B501464FF6FF724B7B03F080033BB112
:1024E00014044B7B44EA03238C7B43EA040003E09F
:1024F0008C7B4B7B44EA032010BD417C00EE901A9C
:10250000F8EE600AB0EE600A7047000010B52DEDDD
:102510000E8B82B0FE480078401CFD490870FD48D3
:1025200090ED000AFC4880ED010A08460078042876
:102530007CD1FA480079012804D1F948D0F822006A
:10254000F8490860F848D0ED190AB0EE600AF7487B
:10255000FDF798FFF648D0ED000A30EE200AF1486A
:1025600080ED010AED48007901281BD1EC48D0F834
:10257000220000EE100AB3EE0E1AFBEE0E0AFFF771
:102580009CF8EC4880ED060AE548D0F8220000EE01
:10259000100AB3EE0E1AFBEE0E0AFFF78EF8E148B2
:1025A00080ED000AE448007840B9E248FEF72CFFCD
:1025B000E04890ED000ADB4880ED000AD948FEF7BC
:1025C00031FEDC4890ED010ADC48D0ED000A20EE37
:1025D000200ADB4880ED000AD24890ED0B0AD8486B
:1025E000D0ED000A30EE600ACB4880ED000AFEF71D
:1025F00019FECC48FEF716FECA4890ED0B0AC648F5
:1026000080ED000AFEF70EFECE48FEF70BFECD4829
:1026100090ED0B0ACC4880ED000AFEF703FECB4894
:10262000FEF754FDC948D0ED0B0A00E0C1E19FED73
:10263000C81A80EE810ADFEDC70A20EE200AC648DC
:1026400080ED000AFEF7EEFDB448807901281CD128
:10265000B2480079012818D10220C0490870B0485A
:10266000B0F91E00B0F52F7F04D19FEDBD8ADFEDDC
:10267000BC8A1BE0AA48B0F91E00B0F5167F15D140
:102680009FEDB78ADFEDB68A10E09FEDB68ADFEDE9
:10269000B58AB54890ED010ADFEDB40AB4EEE00A60
:1026A000F1EE10FA02D20020AC490870F0EE680A90
:1026B000B0EE480AFFF76CF998480079C8B9AC4801
:1026C0000078B0B902220021AA4801F023F8F0EE08
:1026D000000A9FEDA40A90483030FFF70FF99FEDF4
:1026E000A10A904880ED0A0A9FED9E0A8A4880ED73
:1026F0000A0A8C4890ED010A9F48D0ED000A30EE9E
:10270000200ADFED940A80EE201AB0EE000A21EED6
:10271000000ADFED9A0A20EE200A10EE104A204649
:1027200004F0C2FB41EC1E0BB0EE4E0AF0EE6E0A56
:1027300001F0F2FFB0EE40CAF0EE60CA8D48B0F989
:10274000000004F054F841EC1D0B53EC1C2B04F07A
:10275000B5F841EC1A0B704890ED0B0A10EE101A08
:10276000084604F0A1FB41EC1B0B53EC1A2B03F0C1
:10277000CDFD41EC190B9FED820B53EC102B04F0B7
:102780009BF905D29FED800A804880ED000A94E015
:10279000644890ED010A7848D0ED000A30EE200A36
:1027A000DFED6C0A80EE201AB0EE000A21EE000A7E
:1027B000DFED720A20EE200A10EE104A204604F0E7
:1027C00073FB41EC1E0BB0EE4E0AF0EE6E0A01F008
:1027D000A3FFB0EE40CAF0EE60CA6648B0F9000050
:1027E00004F005F841EC1D0B53EC1C2B04F066F8CB
:1027F00041EC1A0B484890ED0B0A10EE101A0846EF
:1028000004F052FB41EC1B0B53EC1A2B03F07EFD42
:1028100041EC190B9FED5E0B53EC102B04F012F8FA
:1028200005D29FED5D0A594880ED000A45E03D481C
:1028300090ED010A5048D0ED000A30EE200A9FEDDD
:10284000451AC0EE010AB0EE000A20EE800ADFED64
:102850004B0A20EE200A10EE104A204604F024FB1A
:1028600041EC1E0BB0EE4E0AF0EE6E0A01F054FF82
:10287000B0EE40CAF0EE60CA3E48B0F9000003F086
:10288000B6FF41EC1D0B53EC1C2B04F017F841EC88
:102890001A0B214890ED0B0A10EE101A084604F0AE
:1028A00003FB41EC1B0B53EC1A2B03F02FFD41EC07
:1028B000190B03F0F9FC35490860274890ED080A28
:1028C000DFED310AB4EEE00AF1EE10FA06DD9FED1D
:1028D000250A80ED0B0A0120304908700F48407A24
:1028E00020B19FED200A294880ED000A00200090C9
:1028F0000190264890ED000ABDEEC00A10EE100AC5
:1029000003B2002240F2FF112548FEF718FB49E010
:1029100019050020D0050020D4030020240A00203F
:10292000C8000020900300203C0400202009002063
:102930004803002074030020E004002070030020FE
:102940006C0300207C080020C0080020A4020020A6
:10295000000000460000B443E8020020E20400202A
:1029600000C041C600000000400200200000C84234
:1029700018050020340300202C030020DB0F494001
:1029800000000000004CDD400060EA46F404002036
:1029900000000000004CDDC00060EAC6800200209C
:1029A0000068004005480079054908700020054985
:1029B000087002B0BDEC0E8B10BD0000240A002090
:1029C000180500201905002010B5FFF79FFD0348EA
:1029D0008089401C0149888110BD00003809002011
:1029E00010B59F48007855287DD19D484078002833
:1029F000FAD10F219A4801F08DFC002873D0994834
:102A0000B0F86400401C9749A1F864000F22944973
:102A10009548FDF749FC94481838D0F822009349AE
:102A2000086091481838C07E914948718E4818381E
:102A3000807E08718C481838C07E48718A481838E2
:102A4000007FC8710846007901287AD1F2EE040AA5
:102A50009FED880A8848FEF751FF022240F6B83100
:102A6000864800F057FE82484079012858D19FEDF2
:102A7000840A844880ED0C0A9FED810A824880ED2B
:102A80000C0A79481838B0F920008049B1F90010D3
:102A9000081A002808DD74481838B0F920007B496E
:102AA000B1F90010081A07E06F481838B0F9200093
:102AB0007649B1F90010401A022809DD714890EDFD
:102AC000010A80ED000A68481838008C6F490880B8
:102AD00065481838B0F920006C49B1F900108842F7
:102AE0001DD0684800E0BAE0D0ED000A5E48183812
:102AF000B0F920006549B1F90010401A47F23331AE
:102B0000484300EE100AB8EEC00A30EE800A5D4875
:102B100080ED000A54481838008C5C49088089E030
:102B2000584890ED010A80ED000A4F481838008C93
:102B3000564908809FED560A534880ED0C0A79E00B
:102B4000FFE74B480079002874D1F3EE040A9FEDAB
:102B5000500A4948FEF7D2FE45484079012856D12F
:102B60009FED4C0A474880ED0C0A9FED4A0A464803
:102B700080ED0C0A3C481838B0F920004349B1F9FF
:102B80000010081A002808DD37481838B0F920006E
:102B90003E49B1F90010081A07E033481838B0F977
:102BA00020003A49B1F90010401A022809DD3548E1
:102BB00090ED010A80ED000A2B481838008C33494B
:102BC000088029481838B0F920003049B1F90010C0
:102BD00088422FD02B48D0ED000A23481838B0F98E
:102BE00020002A49B1F90010401A47F23331484316
:102BF00000EE100AB8EEC00A30EE800A214880EDDF
:102C0000000A19481838008C2049088012E09FED0E
:102C1000200A1C4880ED0C0A90ED010A80ED000AA4
:102C200011481838008C194908809FED190A164878
:102C300080ED0C0A0C481838B0F91E00B0F5FA7F88
:102C400003D001200A49887109E007481838B0F913
:102C50001E00B0F5FA7F02D100200549887110BD31
:102C60005A07002038090020E0000020AC010020B5
:102C7000240A002000C0DA460404002034030020A7
:102C80000080BB45A4020020E8020020820600204C
:102C9000000000000000FA4510B500F0A7FA034854
:102CA000808F401C0149888710BD00003809002032
:102CB00010B52DED108B86B00446F0EE408A002052
:102CC000039004900590B6EE000A28EE800AB0EE5C
:102CD00040FAFE4890ED000AF0EE409AFC4890ED74
:102CE000000AB0EE40AAFB4890ED000AF0EE40AAC0
:102CF000F94890ED000AB0EE40BAF84890ED000AAD
:102D0000B5EEC00AF1EE10FA0FD1F54890ED000AC9
:102D1000B5EEC00AF1EE10FA07D1F24890ED000AC4
:102D2000B5EEC00AF1EE10FA7ED0EC4890ED000A44
:102D30008DED030AEA4890ED000A8DED040AE9489A
:102D400090ED000A8DED050ADDED030A60EEA00AA4
:102D50009DED041ADDED041A41EE210A9DED051AE0
:102D6000DDED051A41EE210AB0EE600A03F0E0F84D
:102D7000B0EE408ADDED030AB0EE480A20EE800A8C
:102D80008DED030ADDED040AB0EE480A20EE800A5C
:102D90008DED040ADDED050AB0EE480A20EE800A4A
:102DA0008DED050A9DED040ACF48D0ED000A20EE16
:102DB000200ADDED050ACD4890ED001AF0EE40BA8C
:102DC00040EEC1BA9DED050AC948D0ED000A20EEDB
:102DD000200ADDED030AC44890ED001AB0EE40CAA7
:102DE00000EEC1CA9DED030AC048D0ED000A20EEF6
:102DF000200ADDED040ABE4890ED001AF0EE40CA4C
:102E000040EEC1CABB4890ED000A60EE2B0ABA48FA
:102E100090ED000A00EEA80A80ED000AB54890ED9A
:102E2000000A60EE0C0A00E03FE0B44890ED000AB2
:102E300000EEA80A80ED000AAE4890ED000A60EEB0
:102E40002C0AAF4890ED000A00EEA80A80ED000AB7
:102E5000A94890ED000AAB48D0ED000A00EEAB0A9D
:102E6000A948D0ED000A30EE200A80ED000AA34800
:102E700090ED000AA348D0ED000A00EE8C0AA348AA
:102E8000D0ED000A30EE200A80ED000A9C4890ED5B
:102E9000000A9C48D0ED000A00EEAC0A9C48D0ED38
:102EA000000A30EE200A80ED000A974890ED000AF3
:102EB00020EE0F0A8DED000A944890ED000A20EEF6
:102EC0000F0A8DED010A924890ED000A20EE0F0ADC
:102ED0008DED020A9DED000A20EE000ADDED010AEB
:102EE0009DED011A00EE810ADDED020A9DED021A48
:102EF000B0EE409A00EE819AB7EE000A30EE490A31
:102F000020EE290ADDED000A0AEE600ADDED010A75
:102F10000AEEE00ADDED020A0BEE600A6B4880ED76
:102F2000000AB7EE000A30EE490A20EE0A0ADDED8B
:102F3000000A09EEA00ADDED020A0AEEA00ADDEDA4
:102F4000010A0BEE600A624880ED000AB7EE000A43
:102F500030EE490A20EE2A0ADDED010A09EEA00A48
:102F6000DDED020A0AEE600ADDED000A0BEE200A32
:102F7000584880ED000AB7EE000A30EE490A20EE0C
:102F80000B0ADDED020A09EEA00ADDED010A0AEEE8
:102F9000200ADDED000A0AEEE00A4F4880ED000A43
:102FA0004A48D0ED000A60EEA00A494890ED001AA8
:102FB000D0ED001A41EE210A464890ED001AD0EDFE
:102FC000001A41EE210A444890ED001AD0ED001A93
:102FD00041EE210AB0EE600A02F0AAFFB0EE408A8C
:102FE0003A4890ED000A20EE080A80ED000A3848C1
:102FF00090ED000A20EE080A80ED000A354890EDB9
:10300000000A20EE080A80ED000A334890ED000A1D
:1030100020EE080A80ED000A2C4890ED000A20EE10
:1030200000DA2B4890ED000A60EE00DA294890EDB6
:10303000000A20EE00EA284890ED000A60EE00EA5F
:103040003DEE2D0A30EE4E0A30EE6E0A314880ED2C
:10305000000A1F4890ED000A1E48D0ED000A20EE3D
:10306000200A1A48D0ED000A1B4890ED001A00EE25
:10307000810AF0EE000A20EE200A274880ED000ABF
:10308000134890ED000A1448D0ED000A20EE200A03
:103090000E48D0ED000A0F4890ED001A00EEC10A6C
:1030A000F0EE000A20EE200A114880ED000A0748E1
:1030B00090ED000A0648D0ED000A20EE200A0548EF
:1030C000D0ED000A044890ED001A27E0BC0400206F
:1030D000C0040020C4040020C8040020B40500205F
:1030E000B8050020BC050020DC040020D804002026
:1030F000D4040020AC040020B0040020B40400205C
:10310000B8040020A8040020C0050020C405002049
:10311000C8050020CC040020D004002000EE810A65
:10312000F0EE000A20EE200A2A4880ED000A3DEE6B
:103130006D0A30EE4E0A30EE2E0A274880ED000A66
:10314000264890ED000AF7EE000AB4EEE00AF1EE30
:1031500010FA03DDB7EE000A80ED000A1F4890ED7B
:10316000000AFFEE000AB4EEE00AF1EE10FA03D214
:10317000BFEE000A80ED000A184890ED000A01F049
:103180000BF9B1EE400ADFED160A20EE200A84EDBD
:10319000190A1148D0ED000A0E4890ED000A01F01E
:1031A00091F9DFED0F0A20EE200A84ED180A0D4890
:1031B000D0ED000A0C4890ED000A01F083F9DFED34
:1031C000080A20EE200A84ED1A0A06B0BDEC108B26
:1031D00010BD0000D8040020DC040020D40400202E
:1031E00033336542CC040020D004002010B59FED9D
:1031F000070A074880ED040A9FED060A80ED050ADC
:103200009FED050AFFF754FD10BD0000CDCCCC3E6C
:103210003C0400206F12033B6F12833A90ED000ACA
:10322000D0ED020A30EE200A80ED010A90ED010A8D
:10323000D0ED030A30EE200AD0ED010A80EE801AAC
:1032400080ED041A90ED050AD0ED060A70EE600AD2
:1032500090ED060A90ED041A01EE200A80ED060AB0
:1032600090ED040AF7EE000A30EEC00AD0ED010A34
:1032700020EE200A80ED000A70470000B0EE401AF0
:10328000B4EEE01AF1EE10FA09D2B1EE600AB4EE33
:10329000C01AF1EE10FA02DD9FED020A7047B0EE9F
:1032A000410AFBE70000000090ED031AD0ED041A7C
:1032B000F7EE000A41EE210AB7EE001AC1EE201A1D
:1032C000B0EE610AD0ED010AC0ED000AF7EE000A87
:1032D00070EEC00A90ED021A60EE810A90ED001ABD
:1032E00040EE010AC0ED010A704708B54FF4A06036
:1032F00000F068F827208DF8000000208DF801000C
:1033000001208DF802008DF80300684600F01EF8D9
:1033100014208DF8000000208DF8010001208DF8A8
:1033200002008DF80300684600F010F840208DF888
:10333000000000208DF8010002208DF8020001201D
:103340008DF80300684600F001F808BD70B5002153
:1033500000230F22C4781CB3174C246804F4E064E3
:10336000C4F5E064C4F30721C1F10404E3B20A41E7
:1033700044789C40E1B28478144021430C07210E2C
:103380000E4C05786155047804F01F050124AC400B
:1033900005786D11AD0005F1E025C5F8004109E0A3
:1033A000047804F01F050124AC40054D0678761121
:1033B00045F8264070BD00000CED00E000E400E0A0
:1033C00080E100E002490143024A116070470000B9
:1033D0000000FA050CED00E0CBE00024C4E004EBB3
:1033E000C400644901EB8000007A00287DD1624866
:1033F000006804EBC4015F4A02EB81010969401ACD
:1034000004EBC40102EB810148615B48006804EBF6
:10341000C40102EB8101086104EBC40102EB8101EC
:1034200048688047012004EBC401524A02EB810145
:1034300008725148006804EBC40102EB810109697C
:10344000401A04EBC40102EB8101886104EBC40063
:10345000114601EB8000C06904EBC40102EB81015D
:103460008969884206D904EBC400114601EB80004B
:10347000C06905E004EBC4003E4901EB80008069AF
:1034800004EBC4013B4A02EB8101C86104EBC400B8
:10349000114601EB8000006A04EBC40102EB8101DC
:1034A0008969884206D204EBC400114601EB800012
:1034B000006A05E004EBC4002E4901EB800080693E
:1034C00004EBC4012B4A02EB8101086204EBC40047
:1034D000114601EB800080692849096808442749A2
:1034E000086004EBC400114600E012E001EB80002C
:1034F000C0692349096808442149086004EBC400F5
:10350000114601EB8000006A1E49096808441D4904
:103510000860002522E01848006805EBC501154A3F
:1035200002EB81010969401A05EBC50102EB81013B
:10353000C968884211D305EBC500114601EB800034
:10354000007A022809D0002005EBC50102EB8101B9
:103550000872AC4201D96C1E04E06D1C0A48006878
:103560008542D8D300BF641C074800688442FFF43A
:1035700036AF32E70C000020240C00400000002091
:103580000400002008000020C000002029B1064AE5
:1035900012680243044B1A6004E0034A1268824333
:1035A000014B1A60704700003038024029B1064ACA
:1035B00012680243044B1A6004E0034A1268824313
:1035C000014B1A60704700004038024029B1064A9A
:1035D00012680243044B1A6004E0034A12688243F3
:1035E000014B1A60704700002038024029B1064A9A
:1035F00012680243044B1A6004E0034A12688243D3
:10360000014B1A60704700004438024029B1064A55
:1036100012680243044B1A6004E0034A12688243B2
:10362000014B1A607047000024380240F0B50021B9
:1036300000220024022500260223324F3F6807F0B3
:103640000C0121B1042905D0082937D105E02E4FFE
:10365000076036E02D4F076033E02A4F3F1F3F6879
:10366000C7F38056274F3F1F3F6807F03F036EB1F7
:10367000264FB7FBF3F7DFF88CC0ACF1040CDCF895
:1036800000C0CCF3881C07FB0CF40CE01E4FB7FB0A
:10369000F3F7DFF870C0ACF1040CDCF800C0CCF339
:1036A000881C07FB0CF4174F3F1F3F68C7F3014707
:1036B0007F1C7D00B4FBF5F7076002E0124F076046
:1036C00000BF00BF0F4F3F6807F0F0010909104F1E
:1036D0007A5C0768D74047600A4F3F6807F4E051BB
:1036E000890A0B4F7A5C4768D7408760054F3F686F
:1036F00007F46041490B064F7A5C4768D740C760C2
:10370000F0BD0000083802400024F40000127A00E6
:103710008806002010B51346B0F900408C4201DA4B
:10372000002206E0B0F900408C4201DD012200E0F9
:1037300002227AB9B0F900408C4201DB01801CE022
:1037400004881C4424B20480B0F900408C4214DB8D
:10375000018012E0012A0FD1B0F900408C4201DC57
:1037600001800AE00488E41A24B20480B0F9004021
:103770008C4202DC018000E010BD00BFFCE710B508
:103780002DED088BB0EE408AF0EE608A18EE900ABC
:1037900003F08AFB41EC190B18EE100A03F084FBCE
:1037A00041EC1B0BB0EE4B0AF0EE6B0A01F018F87F
:1037B000B0EE40AAF0EE60AA53EC192B51EC1A0BB4
:1037C00003F07AF90AD8B0EE480A00F0BBFB00EE2D
:1037D000100AB8EEC00ABDEC088B10BD88EE280AAE
:1037E000F9E721B1028842F04002028004E0028839
:1037F0004FF6BF731A4002807047000000B587B0D3
:1038000001210846FFF7C2FE01210803FFF7EEFE83
:10381000052211463A48FEF7C5FB05220621384825
:10382000FEF7C0FB052207213548FEF7BBFB202031
:10383000009002208DF8040003208DF80500002080
:103840008DF8060001208DF8070069462C48FEF728
:1038500061FB4020009069462948FEF75BFB802011
:10386000009069462648FEF755FB264800F04EF8C2
:103870001820ADF814000020ADF81000ADF80E00CF
:103880000720ADF818004FF40060ADF80C000020E0
:10389000ADF80800ADF816004FF48270ADF80A00DC
:1038A0004FF40070ADF8120002A9164800F086F837
:1038B00001211448FFF795FF01210420FFF766FE60
:1038C00001210420FFF762FE1020009001208DF8F6
:1038D000040000208DF8060069460B48FEF71AFB2D
:1038E0002020009069460848FEF714FB1021064886
:1038F000FEF77DFB20210448FEF779FB07B000BDF1
:1039000000000240003001400008024010B50446AB
:103910002448844208D101218014FFF777FE00215A
:10392000A014FFF773FE3CE01F48844208D1012138
:103930000014FFF74BFE00212014FFF747FE30E094
:103940001A48844208D10121C013FFF73FFE00212D
:10395000E013FFF73BFE24E01548844208D1012123
:103960004014FFF753FE00216014FFF74FFE18E0EC
:103970001048844209D101210805FFF747FE0021C4
:103980004FF48010FFF742FE0BE00B48844208D151
:1039900001214805FFF73AFE00214FF40010FFF720
:1039A00035FE10BD0030014000380040003C0040B2
:1039B00000340140005001400054014010B5002285
:1039C000028802F441520B884C8823438C8823439D
:1039D000CC8823430C8923434C8923438C8923437C
:1039E000CC8923431A430280838B4FF2FF74234018
:1039F00083830B8A038210BD10B5FDF703FE0348D5
:103A0000808D401C0149888510BD000038090020C8
:103A100010B500F009F80348008F401C01490887E1
:103A200010BD00003809002010B52DED048BFEF705
:103A300011FCDC4890ED000ADB48D0ED000A30EEC6
:103A4000600AF7EE000A20EE200AD64880ED000A50
:103A5000D64890ED000AD648D0ED000A30EE600A54
:103A6000F7EE000A20EE200AD04880ED000AD14887
:103A700090ED000AD048D0ED000A30EE600AF7EE73
:103A8000000A20EE200ACB4880ED000ACB4890EDDA
:103A9000000ACB48D0ED000A30EE600AF7EE000ACB
:103AA00020EE200AC54880ED000AC64890ED000AC5
:103AB000C548D0ED000A30EE600AF7EE000A20EEAD
:103AC000200AC04880ED000AC04890ED000AC048B6
:103AD000D0ED000A30EE600ADFEDBE0A20EE200ACB
:103AE000BA4880ED000AB54890ED000ABA4880ED6A
:103AF000000AB44890ED000AB84880ED000AB348C7
:103B000090ED000AB64880ED000AA64890ED000A44
:103B1000B44880ED000AA54890ED000AB24880ED57
:103B2000000AA44890ED000AB04880ED000AA348BE
:103B300090ED000AAE4880ED020AFFF7B5FBAC48F5
:103B400090ED010A9D4880ED000A9E4890ED000A24
:103B5000A84880ED020AFFF7A7FBA64890ED010AEE
:103B6000984880ED000A994890ED000AA24880ED3F
:103B7000020AFFF799FBA04890ED010A934880EDF7
:103B8000000A884890ED000A9C4880ED020AFFF781
:103B90008BFB9A4890ED010A824880ED000A834829
:103BA00090ED000A964880ED020AFFF77DFB9448ED
:103BB00090ED010A7D4880ED000A7E4890ED000AF4
:103BC000904880ED020AFFF76FFB8E4890ED010AE6
:103BD000784880ED000ADFED8C0A784890ED000A05
:103BE000FFF74CFB754880ED000ADFED870A75484A
:103BF00090ED000AFFF742FB724880ED000ADFED0E
:103C0000820A724890ED000AFFF738FB6F4880ED9A
:103C1000000A6A4890ED000ADFED7C0A20EE200AD7
:103C20007B4880ED000A674890ED000ADFED770AD7
:103C300020EE200A774880ED000A644890ED000AE3
:103C4000DFED720A20EE200A734880ED000A70480A
:103C500090ED000ADFED710A80EE201A9FED700AE8
:103C600021EE000A6F4880ED000A6A4890ED000AD4
:103C7000DFED6A0A80EE201A9FED690A21EE000A44
:103C8000694880ED000A6448D0ED000A9FED631A90
:103C900080EE810ADFED620A20EE200A634880EDA3
:103CA000000A90ED000A624880ED050AFFF7B6FAB7
:103CB0005F4890ED060A5D4880ED000A394890EDB6
:103CC000000A5C4880ED000A384890ED000A5A4826
:103CD00080ED000A374890ED000A584880ED000A50
:103CE000544890ED000A20EE000A5348D0ED000A37
:103CF00090ED001A00EE810A5048D0ED000A90EDD8
:103D0000001A00EE810A10EE101A084603F0CCF8F3
:103D100041EC190BB0EE490AF0EE690A01F094FB90
:103D2000B0EE408AF0EE608A51EC180B02F0BCFA5B
:103D300043490860084690ED000ADFED420AB4EE00
:103D4000E00AF1EE10FA03DD01203F49087019E0A6
:103D50002F4890ED000ADFED3D0AB4EEE00AF1EEE7
:103D600010FA08D290ED000ADFED390AB4EEE00A4D
:103D7000F1EE10FA03DC01203349087002E0002064
:103D8000314908703348007818B90120314908706A
:103D900005E030480078022801D12E490870BDECBA
:103DA000048B10BD9C050020F4050020A005002018
:103DB000F8050020A4050020FC050020A80500202F
:103DC00000060020AC05002004060020B0050020FD
:103DD00008060020D044803F680600206C060020C2
:103DE0007006002074060020780600207C06002063
:103DF0002005002034050020480500205C05002037
:103E000070050020840500206F12033B39FA8E3CB8
:103E1000C0050020C4050020C8050020DB0F494074
:103E200000003443CC050020D0050020D40500203C
:103E3000D8050020B4050020B8050020BC050020EE
:103E40002406002000202346280600200000FA4413
:103E50000000FAC41C0500200CB500200190009061
:103E60003448006840F480303249086000BF31486F
:103E7000006800F4003000900198401C0190009808
:103E800018B90198B0F5A04FF1D12A48006800F4A4
:103E9000003010B10120009001E000200090009857
:103EA000012846D123484030006840F08050214925
:103EB000403108602048006840F440401E490860D6
:103EC0001C48083000681B49083108600846006833
:103ED00040F4004008600846006840F4A0500860C4
:103EE0001648091F0860081F006840F08070091F0D
:103EF000086000BF0F48006800F000700028F9D08B
:103F000040F205700E4908600A480830006820F049
:103F100003000849083108600846006840F00200C4
:103F2000086000BF03480830006800F00C00082853
:103F3000F8D10CBD00380240007000400854400722
:103F4000003C0240B5EEC00AF1EE10FA01DD01209E
:103F50007047B5EEC00AF1EE10FA02D24FF0FF3012
:103F6000F6E70020F4E700001D48C06F401C1C4924
:103F7000C8670846C06F4FF47A71B0FBF1F201FBDD
:103F8000120060BB1648008F15494887002008873B
:103F90000846808FC8870020888708468089C881A6
:103FA000002088810846808DC885002088850846C5
:103FB000B0F84C00A1F84E000020A1F84C000846D3
:103FC000B0F87400A1F876000020A1F8740008464B
:103FD000B0F87800A1F87A000020A1F878007047C6
:103FE0003809002010B51548006840F470001349E6
:103FF00008601348006840F0010011490860002083
:104000000F49083108600E4800680E4908400C4905
:1040100008600D48091D0860081F006820F4802012
:10402000091F0860002006490C310860FFF714FFE3
:104030004FF0006001498039086010BD88ED00E054
:1040400000380240FFFFF6FE1030002410B500F0EB
:1040500001F810BD704700000EB501210820FFF7E0
:10406000A5FA5320ADF800004FF0FF30019000207A
:10407000ADF80200ADF808006946044800F014F8F5
:104080000121024800F004F80EBD0000000C0040C1
:1040900021B1028842F00102028004E002884FF65A
:1040A000FE731A400280704700220288184B984223
:1040B0000ED0184B98420BD0B0F1804F08D0164B61
:1040C000984205D0154B984202D0154B984204D126
:1040D0004FF68F731A404B881A43124B984207D001
:1040E000114B984204D04FF6FF431A400B891A43F4
:1040F00002804B68C3620B880385054B984202D04F
:10410000044B984201D18B7A038601238382704746
:10411000000001400004014000040040000800408D
:10412000000C0040001000400014004010B540F2A8
:1041300024410F4800F035F8012818D10C480088B8
:104140000B48001D00880B48FDF7A8FB0F2802D183
:10415000FEF746FC0BE000210648FDF7DDFA0F20D4
:1041600004492839C86201210248FDF7D5FA10BD7B
:10417000004800402860024021B1828942F4005288
:10418000828104E082894DF6FF731A408281704774
:104190001AB1838A0B43838202E0838A8B43838232
:1041A000704770B50246002400230025002040F629
:1041B0006A16B14200D100BFC1F3421501F01F03DE
:1041C000012606FA03F3012D02D19689334006E059
:1041D000022D02D1168A334001E0968A33400C1238
:1041E000012606FA04F41688344013B10CB10120FC
:1041F00000E0002070BDF0B5034600240026002535
:10420000002040F66A17B94200D100BF1846C1F33A
:10421000421401F01F06012707FA06F5012C01D10F
:104220000C3004E0022C01D1103000E014301AB13F
:1042300007682F43076002E00768AF430760F0BDDF
:104240002DE9FF4705460E460024A14600BFA046C3
:10425000B08900B100BF2C8A24F44054F088044394
:104260002C82AC8941F20C608443B08831890843C8
:10427000718908430443AC81AC8A24F44074B0894A
:104280000443AC826846FFF7D1F92048854202D04A
:104290001F48854202D1DDF80C9001E0DDF808905E
:1042A000A88900F4004040B109EBC90000EB0910F7
:1042B00031684900B0FBF1F707E009EBC90000EBFA
:1042C000091031688900B0FBF1F76420B7FBF0F00A
:1042D00004012009642101FB1078A88900F4004042
:1042E00040B1322000EBC800B0FBF1F000F0070055
:1042F000044308E0322000EB08106421B0FBF1F029
:1043000000F00F0004432C81BDE8FF87001001403E
:104310000014014070B505460C4600260DB1022C74
:1043200001D8002070BD611EFF222846FEF7B8F8B4
:104330000646601E285CB04201D10120F2E7002051
:10434000F0E703B401984100009850EAC12018BF7B
:1043500004204A0D18BF40F0010040F2FF72B2EB9A
:10436000515F08BF40F00200012808BF052002B0DD
:1043700070474100080218BF04200A0E18BF40F021
:1043800001004FF07F4232EA010108BF40F0020015
:10439000012808BF0520704710B54FF00E402DEDE5
:1043A000028BB0EE408A18EE104A00EB4400B0F1E8
:1043B000506F4AD84FF0FC40B0EB440F22D2B0EE21
:1043C000C80AF7EE000A30EEC00AF6EE000A60EE08
:1043D000208A18EE900A01F092FE01EE100A14F005
:1043E000004F1DBFDFED2D0A9FED2D0AB1EE411AE2
:1043F000DFED2C0A08BF9FED2C0AF8EE001A21EE23
:10440000218A05E0DFED290A68EE088AB0EE600A2D
:104410009FED271ADFED271A30EE080A48EE811AC1
:104420009FED251A08EEA11ADFED241A48EE811A35
:104430009FED231A08EEA11A68EE281ABDEC028B34
:1044400001EE810A30EE200A10BD4FF0E440B0EBDF
:10445000440F0CD918EE100AFFF78BFF042808BF91
:1044600001F084FCB0EE480ABDEC028B10BD4FF0A9
:104470007F40B0EB440F07D2B0EE480ABDEC028B90
:10448000BDE8104001F064BC0120FBF75AFFBDEC11
:10449000028BBDE8104001F061BC00000000C9BF04
:1044A00022AAFDB90000C93F22AAFD390000000080
:1044B00024FE1C3DC78AD83C1E67383D1B93993D9E
:1044C000AFAA2A3E10EE100A10B510EE901A4FF067
:1044D000684202EB40032DED028BB3F1654F3CBF08
:1044E00002EB4102B2F1654F7CD200BFC0F3C7536B
:1044F000C1F3C7529A1A1B2A09DD10F0004F14BFEE
:104500009FED6E0A9FED6E0ABDEC028B10BD12F19D
:104510001A0F1BDA11F0004F09D010F0004F0CBF3A
:104520009FED680A9FED680ABDEC028B10BD80EE1E
:10453000208A18EE100AFFF71CFF042808BF01F0BC
:1045400015FCB0EE480ABDEC028B10BD4200B2EB88
:10455000410F37D910F0004F19BFDFED5C1A9FED06
:104560005C1ADFED5C1A9FED5C1AB0EE602A0A4619
:10457000F1EE400A80F00041B0EE420A10460A1AFD
:104580005200B2F1807F34D2484010F0004FDFED8E
:10459000532A9FED533A1DBFBEEE002A71EEE21A78
:1045A00031EE431AB6EE002A04BF71EEA21A31EEC4
:1045B000031AF0EE402A42EE602A40EE020A82EE32
:1045C000A02A18E011F0004F04BF9FED461AF0EE4C
:1045D000411AD4D010F0004F1CBFDFED431A9FEDFD
:1045E000431A00E026E004BFDFED411A9FED411AB7
:1045F000C5E780EE202A22EE020ADFED3F0ADFED5A
:104600003F2ABDEC028B40EE202ADFED3D0A40EE52
:10461000220ADFED3C2A40EE202ADFED3B0A40EE85
:10462000220A22EE000A00EE201A31EE020A30EED3
:10463000210A10BD4FF07F42B2EB400F28BFB2EB12
:10464000410F05D2BDEC028BBDE8104001F083BBE9
:1046500040EA01035B0008BF41F0FF410BD0B2EB21
:10466000400F08BFB2EB410F08D120F0804000EEB0
:10467000100A21F0804100EE901A37E7B2EB400FAC
:1046800012BF5FEA410240F0FF4001F000413FF4F9
:104690002DAF4A0092EA40033FF528AF002AACBF95
:1046A0009FED1A1A9FED1A1A20EE010A60EE810A98
:1046B00010EE100A10EE901A18E70000DB0FC9BFC9
:1046C000DB0FC93FDB0F4940DB0F49C00000C9BF0A
:1046D00022AAFDB90000C93F22AAFD390060ED3EC3
:1046E000C30ACE3700000000000049C022AA7DBAEC
:1046F0000000494022AA7D3A2DAD65BD8FB8D53D59
:104700000FB511BE61C84C3EA8AAAABE0000804FDA
:104710000000802F0000000010B52F499FED2C1BDA
:104720002DED020B84B0059820F000408842D8BFE0
:104730009DED040B2DDD2949884209D1049840B92B
:104740004FF00100FBF7FDFD01F0D2FA06B010BDFD
:1047500005DB9DED040B01F0B7FA06B010BD68460D
:104760009DED040B00F0B0FE10F0030004BF9DEDC2
:10477000021B9DED000B0CD001280ED09DED021BFD
:104780009DED000B022817D0012001F0EDF906B0D5
:1047900010BD01F0B5F806B010BD9DED021B9DEDFA
:1047A000000B012001F0E0F951EC100B01F070FD5D
:1047B00006B041EC100B10BD01F0A2F851EC100B4B
:1047C00001F066FD06B041EC100B10BD00000000CA
:1047D0000000000000000000FB21E93F0000F07F26
:1047E0002DED020B019820F0004001909DED000B93
:1047F00002B07047000000002DE9F04D2DED040BD4
:104800002DED0E8B96B0DDE92550279CDDF890A0AC
:1048100025F0004624F00048BAF1000F14BF012132
:10482000002101EB4502FC4953184A1093422AD358
:10483000002814BF0123002303EB44030B44F74972
:104840008B4220D358EA00019FEDF59B76D0DFF82C
:10485000D8B35D4503D1BAF1000F05D188E0BAF1B4
:10486000000F08BF002100D0012101EB450111F527
:10487000001F08D8002814BF0121002101EB4401CA
:1048800011F5001F0BD99DED261B9DED240B16B0D5
:10489000BDEC0E8B04B0BDE8F04D01F01FBA00274F
:1048A000002DBCBFE149884521DAE1498845A8BF10
:1048B00002271CDAC3451ADCDE4901EB2851142912
:1048C00008DDC1F1340220FA02F101FA02F282425B
:1048D0000DD108E058B9C1F1140228FA02F101FA29
:1048E00002F2424503D101F00101C1F1020756EA8B
:1048F0000A0124D1002C22DA002D18BF022F01D08A
:10490000012F0AD00220FBF71CFD16B0BDEC0E8B68
:1049100004B0BDE8F04D01F0BFB90220FBF711FD76
:1049200001F0BAF951EC100B01F0B2FC41EC100BA4
:1049300016B0BDEC0E8B04B0BDE8F08D18E09FED15
:10494000BEAB9FEDBF8B002871D1B848804522D106
:1049500005F1804010F5801008BFBAF1000F07D0B4
:10496000B3450ADC002CA8BF9DED260BE0DA0DE074
:10497000B0EE490AF0EE690ADAE7002C06DA9DED9E
:10498000260B51EC100B01F083FC6FE0AE4878442D
:1049900090ED000BCCE7D8454DD1002C48DA2EB174
:1049A00086423AD1BAF1000F42D126E0BAF1000FA7
:1049B00013D00220FBF7C5FC01F0AAF98DED020B24
:1049C0009DED240B8DED000B10EE900A039961F321
:1049D0001E0003909DED020BAAE78DED02AB9DED4D
:1049E000240B1AEE901A10EE900A8DED000B61F375
:1049F0001E0003909DED020B9AE78DED028B9DED5D
:104A0000240B18EE901A10EE900A8DED000B61F356
:104A10001E0003909DED020B8AE709DA9DED240B41
:104A200051EC190B53EC102B01F02CFD1EE020E093
:104A30009DED240B7CE786421BDAB4F1804F0DD04C
:104A4000A4F10050B0F1FF5013D1002D11DB9DED0A
:104A5000240B51EC100B01F01BFB07E09DED240B28
:104A600053EC102B51EC100B00F0C2BC41EC100BBE
:104A70005EE79DED240B51EC100B01F04DFABAF1FD
:104A8000000FCDE90E0142D19FED710B46B3A6F1A7
:104A9000E040B0F17F600CD05E4538D1002D00DAE7
:104AA000A7B3022F0CBF01204FF0FF3001F09FFE93
:104AB000DCE7002D01DD002C0DDA002D01DD002CDE
:104AC0001FDB002D16DA002C14DB012F08BF9FED31
:104AD000620B3FF42DAFB0EE4A0AF0EE6A0A27E708
:104AE000022F18BF002D0CD0012F0AD1002DFFF688
:104AF0001FAF06E0002DB8BF002C08DA012F3FF4ED
:104B000017AFB0EE480AF0EE680A11E71BE001208B
:104B100000EBE57050EA070115D0791EB0EE498A26
:104B2000F0EE698A084308BF9FED4D8B4E48002583
:104B3000804570DD4D494E48884514DDB0420DDB9F
:104B4000002C19DB2FE00120FBF7FBFB16B0BDECBE
:104B50000E8B04B0BDE8F04D01F0CAB8B34502DCDD
:104B6000002C09DC1FE0864202DA002C1BDA03E08D
:104B70005E452BDD002C16DD0220FBF7E2FB01F089
:104B8000C7F88DED020B53EC1A2B51EC180B01F00A
:104B900095FECDE900010399019861F31E00039091
:104BA0009DED020BC4E60220FBF7CBFB01F0C0F841
:104BB00010EE901A18EE900A8DED020B8DED008B21
:104BC00061F31E0003909DED020BB1E69DED0E0B0F
:104BD00053EC192B51EC100B02F07CF89FED260BD7
:104BE000CDE9080153EC102B9DED080B51EC100B97
:104BF00001F064FE9FED221B53EC112B01F092FF9C
:104C00009DED081B53EC112B01F058FE9FED1E1B70
:104C100053EC112B3CE08CE0FFFF1F00FFFF0F0067
:104C2000000000000000F03F0000F03F0000F07FB7
:104C30000000404301FCFFFF000000000000F07F87
:104C40000000000000000000B62A00000000000084
:104C50000000000000000080000000000000F0FFE5
:104C6000000000000000F0BF0000E0410000F04341
:104C7000FFFFEF3F00000000000000000000D03FF9
:104C8000555555555555D53F000000000000E03FF3
:104C900001F048FF9DED080B41EC1A0B53EC102B73
:104CA00051EC100B01F00AFE53EC1A2B01F006FE3A
:104CB00041EC1A0B9FEDFE0B53EC102B9DED080BF6
:104CC00051EC100B01F0FAFD41EC1B0B9FEDFA0BC0
:104CD00051EC1A0B53EC102B01F0F0FD41EC1A0BC8
:104CE0009FEDF70B53EC102B9DED080B51EC100BC7
:104CF00001F0E4FD53EC1A2B01F0ECFF41EC1A0B30
:104D000051EC1B0B53EC1A2B01F000FB0690CDE984
:104D100006519DED060B53EC1B2B51EC100B01F0D3
:104D2000D9FF53EC1A2B01F0FDFE41EC100B00F003
:104D3000A1B90020B6F5801F0EDA9FEDE30B53EC0E
:104D4000102B9DED0E0B51EC100B01F0B7FDCDE9D2
:104D50000E016FF034000E4600EB2650A0F2FF3734
:104D6000C6F31300DA4940F07F6646F040568842A9
:104D7000D8BF002408DDD7498142C8BF012403DC25
:104D80000024A6F580167F1CD348784400EBC400AD
:104D90000F9690ED00CB9DED0E0B53EC1C2B51ECC0
:104DA000100B01F097FF9DED0E0B41EC1B0B53EC2C
:104DB0001C2B51EC100B01F0A9FA41EC100B51EC3B
:104DC000190B53EC102B01F05DFB41EC1D0B51EC6A
:104DD0001B0B53EC1D2B01F071FD41EC1A0BBF486E
:104DE0008DED10AB7844109590ED000B4FF0005016
:104DF00040EA660000EB84408DED080B00F50020D2
:104E000009909DED080B53EC1C2B51EC100B01F09D
:104E100061FF9DED0E1B53EC112B01F083FE41EC65
:104E2000100B53EC102B9DED100B51EC100B01F0FF
:104E300045FD9DED080B41EC1C0B53EC102B9DED3B
:104E4000100B51EC100B01F039FD53EC1B2B01F052
:104E500069FE53EC1C2B01F03DFF53EC1D2B01F0C0
:104E60002DFD41EC1C0B53EC1A2B51EC1A0B01F0ED
:104E700025FD41EC1B0B9A480621B0EE4B0AF0EEE3
:104E80006B0A784400F0F4FDB0EE401AF0EE601AC0
:104E9000B0EE41DAF0EE61DA53EC1B2B51EC1B0B58
:104EA00001F00CFD53EC1D2B01F008FD9DED100BE6
:104EB00041EC1B0B53EC1A2B51EC100B01F026FAB2
:104EC00053EC1C2B01F0FAFC53EC1B2B01F01EFAE7
:104ED0009DED100B41EC1B0B53EC102B51EC100B08
:104EE00001F0ECFC41EC1D0B9FED7FEB53EC1E2B16
:104EF00001F00CFA53EC1B2B01F008FA0890CDE9F5
:104F000008519DED080B53EC1E2B51EC100B01F0DA
:104F1000E1FE53EC1D2B01F0DDFE53EC1B2B01F0E9
:104F200001FE9DED080B41EC1D0B53EC102B9DED8C
:104F3000100B51EC100B01F0C1FC41EC1B0B53ECBE
:104F40001A2B51EC1D0B01F0B9FC9DED080B41EC47
:104F50001A0B53EC102B51EC1C0B01F0AFFC53EC73
:104F60001A2B01F0D3F941EC1A0B51EC1B0B53EC4B
:104F70001A2B01F0CBF90C90CDE90C519DED0C0BE7
:104F800053EC1B2B51EC100B01F0A4FE53EC1A2B2D
:104F900001F0C8FD41EC1B0B9FED550B53EC102BA2
:104FA0009DED0C0B51EC100B01F088FC41EC1A0B41
:104FB0009FED510B51EC1B0B53EC102B01F07EFCC1
:104FC00041EC1B0B9FED4E0B53EC102B9DED0C0B8E
:104FD00051EC100B01F072FC53EC1B2B01F096F915
:104FE00041EC100B4848784400EBC40090ED001BE6
:104FF00051EC100B53EC112B01F088F941EC1B0B19
:10500000384601F0F4FBCDE9080153EC1B2B51ECC1
:105010001A0B01F07BF941EC100B3C48784400EB93
:10502000C40090ED00CB51EC100B53EC1C2B01F0A5
:105030006DF99DED081B53EC112B01F067F90690FB
:10504000CDE906519DED080B53EC102B9DED060BA1
:1050500051EC100B01F03EFE53EC1C2B01F03AFE1C
:1050600053EC1A2B01F036FE53EC1B2B01F05AFDCA
:1050700041EC100B9DED261B53EC102B8DED001B0E
:1050800000959DED260B51EC100B01F017FC9DEDEA
:10509000000B41EC1A0B53EC102B9DED260B51EC41
:1050A000100B01F017FE9DED061B53EC112B2FE0AA
:1050B000000000604715F73FFE822B654715F73F5C
:1050C00044DF5DF80BAE543E00000000000040439A
:1050D0008E9803007AB60B000226000060260000BE
:1050E0003A25000000000000000000000000084019
:1050F000000000E009C7EE3FFD033ADC09C7EE3FC0
:10510000F5015B14E02F3EBEC623000080230000A3
:1051100001F0D4FB53EC1A2B01F0F8F89DED060BCF
:1051200041EC1A0B53EC102B9DED000B51EC100BC6
:1051300001F0C4FBCDE90C019DED0C0B51EC1A0BF9
:1051400053EC102B01F0E2F8CDE902010C46AA491C
:105150008C422FDB611A084318D19DED0C0B53ECE8
:10516000102B9DED020B51EC100B01F0B3FD41EC47
:105170001B0B9FEDA30B51EC1A0B53EC102B01F002
:10518000C5F853EC1B2B01F097FC2DD20220FBF746
:10519000D8F800F0BDFD10EE901A18EE900A8DEDD3
:1051A000020B8DED008B61F31E0003909DED020B51
:1051B000FFF7BEBB944A24F00041914214D39349B7
:1051C000214408437FF4EFAC9DED0C0B53EC102B06
:1051D0009DED020B51EC100B01F07CFD53EC1A2BF2
:1051E00001F06AFC7FF6DFAC24F000408849894A70
:1051F000002601EB205182422BDA481C4FF480112B
:1052000021FA00F02044844AC0F30A517A44A1F202
:10521000FF3192ED000B814A8DED080BCA4020EA68
:105220000202C0F3130040F48010C1F1140120FA0F
:1052300001F60992002CB8BF76429DED080B53ECA5
:10524000102B9DED0C0B51EC100B01F043FDCDE943
:105250000C019DED0C0B51EC1A0B53EC102B01F0D3
:1052600055F89FED6F0B0890CDE9085153EC102BCA
:105270009DED080B51EC100B01F020FB41EC1B0BDA
:105280009FED690B53EC102B9DED080B51EC100BAF
:1052900001F014FB9DED0C0B41EC1C0B53EC102B9F
:1052A0009DED080B51EC100B01F014FD53EC1A2B83
:1052B00001F038FC9FED5E1B53EC112B01F0FEFA60
:1052C00053EC1C2B01F022F841EC1A0B51EC1B0B98
:1052D00053EC1A2B01F01AF8CDE902019DED020BF7
:1052E00053EC1B2B51EC100B01F0F4FC53EC1A2B7C
:1052F00001F018FC9DED020B41EC1A0B53EC102B46
:1053000051EC100B01F0DAFACDE908014A489DEDA5
:10531000080B0521784400F0ABFB9DED081B51EC18
:10532000100B53EC112B01F0C9FA9DED021B53EC4D
:10533000112B01F0F7FBCDE906019DED020B53ECBB
:105340001A2B51EC100B01F0B9FA53EC1A2B00F0A8
:10535000DDFF9FED3B0B41EC1A0B53EC102B9DED49
:10536000060B51EC100B01F0B5FC9DED060B41EC6A
:105370001B0B53EC102B9DED020B51EC100B01F0AD
:105380009DFA53EC1B2B01F07DF853EC1A2B01F026
:10539000A1FC9DED021B53EC112B01F09BFC53EC87
:1053A000192B01F0BFFBCDE9020101EB06500115FD
:1053B0000029C8BF039015DC9DED020B324651EC6D
:1053C000100B01F01EFEFEF7BCFF042808BF00F022
:1053D000AFFC32469DED020B51EC100B01F011FEBB
:1053E000CDE902019DED020B51EC180B53EC102B93
:1053F00001F064FAFFF73ABB0000904000000000A3
:10540000FE822B654715973C00CC904000346F3FDF
:1054100001FCFFFF0000E03F38220000FFFF0F000B
:1054200000000000432EE63F396CA80C615C20BEF2
:10543000EF39FAFE422EE63FD820000000000000BF
:10544000000000000000004000B52DED048BB0EE20
:10545000409AF0EE609A83B051EC190B01F06EFBAC
:1054600041EC180B18EE100A18EE901A8DED008B17
:10547000002818BF0120084320F00040C0F17F60E1
:1054800000F1E040C00F14D019EE101A19EE900A86
:105490008DED009B002918BF0121084320F000403A
:1054A000C0F17F6000F1E040C00F04BF0120FAF7B7
:1054B00048FFB0EE480A03B0F0EE680ABDEC048B7A
:1054C00000BD0000000000002DE9F14F04462DED65
:1054D000020B2DED088B8AB09FEDE70B80ED020BE0
:1054E000139EE74826F0004585420ADC9DED120B2D
:1054F000002084ED000B0AB0BDEC088B03B0BDE8C2
:10550000F08FE0489FEDE0AB9FEDE1BBA84247DDA7
:10551000E14F9FEDE39B9FEDE48B9DED120B53EC70
:105520001A2B51EC100B002E1CDD01F0D3FB41ECCB
:10553000100BBD4208D053EC1B2B51EC100B01F0AB
:10554000C9FBC4E900010BE053EC192B51EC100B23
:1055500001F0C0FB53EC182B01F0BCFBC4E90001C7
:105560000120C8E700F0D2FE41EC100BBD4208D08C
:1055700053EC1B2B51EC100B00F0C8FEC4E90001EA
:105580000BE053EC192B51EC100B00F0BFFE53EC69
:10559000182B00F0BBFEC4E900014FF0FF30AAE772
:1055A000C348A84279DB9DED120B51EC100B00F0C3
:1055B000B3FC41EC180B9FEDC00B53EC102B01F02A
:1055C0007DF99FEDBF1B53EC112B00F09FFE01F006
:1055D000B1F8074601F00BF941EC190B53EC1A2B0B
:1055E00001F06CF953EC182B01F09CFA41EC180B0C
:1055F00053EC1B2B51EC190B01F060F9DFF8C8A23A
:1056000041EC100B4FEA15580125FA4453EC102BCE
:1056100051EC180B01F05EFB032DC4E900013DD0F5
:10562000C1F30A5005EB4511A8EB00001139814286
:1056300034DA0AEB051BB0EE48AA9BED000BF0EE46
:1056400068AA53EC102B51EC190B01F037F941EC1F
:105650001B0B51EC1A0B53EC1B2B01F03BFB41ECE9
:10566000180B51EC1A0B53EC182B01F033FB53ECD5
:105670001B2B01F02FFB9BED020B41EC1A0B53ECA3
:10568000102B51EC190B01F019F953EC1A2B01F006
:1056900021FB41EC100B6D1CB8E70EE0002EA8BFFB
:1056A0003846BFF628AF94ED000B51EC100B00F01C
:1056B000EFFDC4E9000178421DE7C6F3130040F492
:1056C000801EC6F30A50A0F2F530471100F01F0506
:1056D000C5F12000DDF848B0089000200690079042
:1056E0000520EC467949002D07EB0002794408BFFC
:1056F00051F8221009D051F8223001EB8201AB4061
:105700004A68089922FA01F11943A1FB0E26A1FB70
:105710000B131A449A4234BF0123002303EB0608FB
:105720000CEB8003D3E901A60E448E4234BF012165
:10573000002192448A4411B1924502D903E0924576
:1057400001D2012100E00021C3E901A641444CF847
:105750002010011EA0F10100C4DC029800F10050ED
:10576000850F0298DDE903678000DDF8148001F001
:105770003EF841EC1A0B304601F050F89FED541BF7
:1057800053EC112B01F09AF841EC1B0B384601F059
:1057900045F89FED511B53EC112B01F08FF841ECB4
:1057A000180B404601F03AF89FED4D1B53EC112BBE
:1057B00001F084F841EC190B51EC180B53EC192B48
:1057C00000F0A4FD53EC1B2B00F0A0FD53EC1A2BB2
:1057D00000F09CFDCDE90801002008909DED080B2C
:1057E00053EC1A2B51EC100B01F074FA53EC1B2BF9
:1057F00001F070FA53EC182B01F06CFA53EC192BF2
:1058000001F090F99FED381B53EC112B01F056F885
:105810009FED370B41EC180B53EC102B9DED080B53
:1058200051EC100B01F04AF853EC182B00F06EFD10
:105830009FED310B41EC180B53EC102B9DED080B39
:1058400051EC100B01F03AF853EC182B00F05EFD10
:1058500041EC100B139810F0004F06D06D4251EC44
:10586000100B00F015FD41EC100B284684ED000BE9
:1058700041E6000000000000000000000000000001
:10588000FB21E93F7CD9024000004054FB21F93F55
:105890003163621A61B4D03DFB21F93F0000000082
:1058A0000000601A61B4D03D7370032E8A19A33BC7
:1058B000FB2139410000000083C8C96D305FE43F1F
:1058C000000000000000E03F421E0000901D0000AC
:1058D000000000000000103E000000000000103C2E
:1058E000000000000000103A182D4454FB21F93D3F
:1058F0003326A611460B113C00000054FB21F93D54
:1059000010B52DED040B2DED088B82B0B0EE419A51
:10591000F0EE619A0B9820F000449FED4BABB4F190
:10592000795F11DA9DED0A0B51EC100B00F002FFCC
:10593000002801BFB0EE4A0AF0EE6A0A02B0BDECE0
:10594000088B04BF04B010BD9DED0A0B53EC102B67
:1059500051EC100B00F0B2FF41EC180B3C48062153
:10596000B0EE480AF0EE680A784400F081F853EC93
:10597000182B51EC100B00F0A1FF9DED0A0B41EC30
:105980001B0B53EC192B51EC100B00F097FF41EC63
:10599000190B53EC1B2B51EC180B00F08FFF53EC41
:1059A000192B01F097F99FED2C0B41EC190B53ECDF
:1059B000102B51EC180B00F081FF41EC100B284824
:1059C000844210DA53EC192B51EC100B01F082F9E0
:1059D00053EC1A2B01F0A6F841EC100B02B0BDEC11
:1059E000088B04B010BD1F48A042BCBF9FED1E1B1A
:1059F0008DED001B06DBA4F5001001900020009047
:105A00009DED001B51EC100B53EC112B01F062F9D2
:105A10009DED000B41EC180B53EC102B51EC1A0BC5
:105A200001F058F941EC1A0B53EC192B51EC180BFF
:105A300001F050F953EC1A2B01F074F841EC100B03
:105A4000CCE7000000000000000000000000F03F74
:105A5000AC1A000000000000000000000000E03F61
:105A60003333D33F0000E93F000000000000D23F85
:105A700070B504462DED028B4D1E00EBC500B0EE57
:105A8000408AF0EE608A90ED000B35F0060017D0EA
:105A900053EC182B51EC100B00F010FF41EC100BE5
:105AA0006D1E04EBC50090ED001B51EC100B53EC88
:105AB000112B00F02BFC41EC100B35F00600E7D168
:105AC000022D36D0042D1CD0062D1CBFBDEC028B40
:105AD00070BD53EC182B51EC100B00F0EFFE94ED61
