:020000040800F2
:1000000070470120690200087102000873020008AD
:10001000750200087702000879020008000000005D
:100020000000000000000000000000007B0200084B
:100030007D020008000000007F020008E532000891
:10004000830200088302000883020008830200087C
:10005000830200088302000883020008830200086C
:10006000830200088302000883020008830200085C
:10007000830200088302000883020008830200084C
:10008000830200088302000883020008830200083C
:100090006906000883020008830200088302000842
:1000A000830200088302000883020008830200081C
:1000B000830200088302000883020008830200080C
:1000C00083020008830200088302000883020008FC
:1000D0008302000883020008093600083136000850
:1000E00083020008830200088302000883020008DC
:1000F00083020008830200088302000883020008CC
:1001000083020008830200088302000883020008BB
:10011000E13500088302000883020008830200081A
:10012000830200088302000883020008830200089B
:10013000830200088302000883020008830200088B
:10014000790800088302000883020008830200087F
:10015000830200088302000883020008830200086B
:10016000830200088302000883020008830200085B
:10017000830200088302000883020008830200084B
:10018000830200088302000800F002F800F05CF827
:100190000AA090E8000C82448344AAF10107DA45E2
:1001A00001D100F051F8AFF2090EBAE80F0013F0D8
:1001B000010F18BFFB1A43F0010318472864000021
:1001C000486400000A444FF0000C10F8013B13F0A3
:1001D000070408BF10F8014B1D1108BF10F8015BA0
:1001E000641E05D010F8016B641E01F8016BF9D193
:1001F00013F0080F1EBF10F8014BAD1C0C1B09D1EA
:100200006D1E58BF01F801CBFAD505E014F8016B5B
:1002100001F8016B6D1EF9D59142D6D370470000ED
:100220000023002400250026103A28BF78C1FBD8FF
:10023000520728BF30C148BF0B6070471FB505F09B
:1002400056FF1FBD10B510BD00F0BCF81146FFF7FA
:10025000F5FF04F0C1FD00F0DAF803B4FFF7F2FF98
:1002600003BC00F0DDF8000009488047094800475A
:10027000FEE7FEE7FEE7FEE7FEE7FEE7FEE7FEE756
:10028000FEE7FEE704480549054A064B70470000B3
:100290005D3300088901000870410120704701208A
:1002A0007043012070430120032A40F2308010F097
:1002B000030C00F0158011F8013BBCF1020F624401
:1002C00098BF11F801CB00F8013B38BF11F8013B92
:1002D000A2F1040298BF00F801CB38BF00F8013B3F
:1002E00011F0030300F03380083AC0F0088051F8A1
:1002F000043B083A51F804CBA0E80810F5E7121DBA
:100300005CBF51F8043B40F8043BAFF30080D207D8
:1003100024BF11F8013B11F801CB48BF11F8012BA4
:1003200024BF00F8013B00F801CB48BF00F8012BC7
:10033000704770477047704710B500F03BF8006891
:1003400010BD10B5044600F035F8046010BD10B5BE
:10035000203AC0F00B80B1E81850203AA0E81850BD
:10036000B1E81850A0E81850BFF4F5AF5FEA027C7E
:1003700024BFB1E81850A0E8185044BF18C918C0ED
:10038000BDE810405FEA827C24BF51F8043B40F88E
:10039000043B08BF7047D20728BF31F8023B48BF73
:1003A00011F8012B28BF20F8023B48BF00F8012BB1
:1003B0007047000000487047104101200048704716
:1003C000104101207546FFF7F9FFAE46050069466A
:1003D000534620F00700854618B020B5FFF752FFBE
:1003E000BDE820404FF000064FF000074FF0000836
:1003F0004FF0000B21F00701AC46ACE8C009ACE8B7
:10040000C009ACE8C009ACE8C0098D46704710B51A
:100410000446AFF300802046BDE81040FFF71DBF43
:1004200001491820ABBEFEE726000200704710B558
:100430000246106850601160D2E90003C01A906053
:10044000D368584200EBD0749368B3EB640F04DABE
:10045000D2E90203184490600AE0D2E9023000EBCE
:10046000D074B3EB640F03DDD2E90203C01A9060CD
:100470009368106918441061106910BD70B5054685
:100480000C4600260DB1022C00D870BD611E002262
:10049000284601F0B1FA0646601E2E5400BFF4E76C
:1004A00070B50446002510210A4801F05EF8FF21CE
:1004B00041EA042141F4004004F0B2FC002004F0C1
:1004C000AFFC050A1021034801F051F800BF28468F
:1004D00070BD00000008024070B5044620210948A4
:1004E00001F043F8002141EA042141F4004004F006
:1004F00097FCC5B22021034801F039F800BF284617
:1005000070BD00000008024070B504460D46102181
:10051000074801F02AF845EA0421C1F30E0004F06F
:100520007FFC1021024801F022F800BF70BD0000DE
:100530000008024070B504460D462021074801F02E
:1005400014F845EA0421C1F30E0004F069FC2021EF
:10055000024801F00CF800BF70BD00000008024026
:1005600010B502F055FF00F013F800F019F902F091
:1005700011FB02F0BFFE4FF4E12004F051FE4FF4F6
:10058000E13004F0DFFC04F099FA01F019FE10BD2F
:1005900000B589B00121084602F090F90121480612
:1005A00002F09CF94FF4C050009002208DF8040036
:1005B0008DF8050000208DF8060001208DF8070059
:1005C0006946274800F066FF09220B21244800F005
:1005D000A9FF09220C21224800F0A4FF00208DF879
:1005E0001E0001208DF81F008DF8200000208DF8DE
:1005F00021008DF8220001208DF8230000208DF8C5
:100600001A008DF81B0008208DF81C0003208DF8BF
:100610001D00ADF8180006A9124800F046FB0020A6
:100620008DF812008DF8130001208DF814000020C1
:10063000ADF80800ADF80A00ADF80C00ADF80E00FA
:10064000ADF8100001208DF8150002A800F010FA96
:1006500001220221034800F01FFB09B000BD000089
:10066000000002400064004000B585B00221494806
:1006700000F082FA40B10221464800F0A5F96A462E
:100680000021444800F09BFB0098A0F201200628BE
:100690007CD2DFE800F003162A3E5266684601F07D
:1006A000BDF93D49C881684601F0C0F93A498881E1
:1006B0000846B0F90E103948FFF7B9FE3649886090
:1006C00065E0684601F0AAF93349C882684601F03E
:1006D000ADF9314988820846B0F916102F48143018
:1006E000FFF7A5FE2C49086151E0684601F096F934
:1006F0002949C883684601F099F927498883084643
:10070000B0F91E1025482830FFF791FE2249886174
:100710003DE0684601F082F91F49C884684601F04F
:1007200085F91D4988840846B0F926101B483C30DD
:10073000FFF77DFE1849086229E0684601F06EF96E
:100740001549C885684601F071F91349888508463E
:10075000B0F92E1011485030FFF769FE0E4988623B
:1007600015E0684601F05AF90B49C886684601F061
:100770005DF9094988860846B0F9361007486430A3
:10078000FFF755FE0449086301E0FFE700BF00BF23
:1007900005B000BD00640040CC0600203001002000
:1007A00000B589B00121022002F088F801218806F5
:1007B00002F094F84FF44050009002208DF80400AD
:1007C0008DF8050000208DF8060001208DF8070047
:1007D0006946274800F05EFE09220C21244800F0FB
:1007E000A1FE09220D21224800F09CFE00208DF878
:1007F0001E0001208DF81F008DF8200000208DF8CC
:1008000021008DF8220001208DF8230000208DF8B2
:100810001A008DF81B0008208DF81C0003208DF8AD
:100820001D00ADF8180006A9124800F03EFA0E208F
:100830008DF8120000208DF8130001208DF81400AF
:100840000020ADF80800ADF80A00ADF80C00ADF8D6
:100850000E00ADF8100001208DF8150002A800F080
:1008600007F901220221034800F016FA09B000BD81
:10087000000402400068004000B585B002214F48E6
:1008800000F07AF940B102214C4800F09DF86A4628
:1008900000214A4800F093FA0098A0F201200728AE
:1008A00070D2DFE800F004172D43598670006846C7
:1008B00001F0B4F84249C887684601F0B7F84049EA
:1008C00088870846B0F93E103E48FFF7B0FD3C4926
:1008D00088636FE0684601F0A1F83949A1F8460045
:1008E000684601F0A3F83649A1F844000846B0F97B
:1008F000461034481430FFF79AFD3149086459E036
:10090000684601F08BF82E49A1F84E00684601F0C8
:100910008DF82B49A1F84C000846B0F94E10294833
:100920002830FFF784FD2649886443E0684601F0DB
:1009300075F82349A1F85600684601F077F8204978
:10094000A1F854000846B0F956101E483C30FFF795
:100950006EFD1B4908652DE0684601F05FF81849F7
:10096000A1F85E00684601F061F81549A1F85C0045
:100970000846B0F95E1013485030FFF758FD104993
:10098000886517E015E0684601F048F80C49A1F8C1
:100990006600684601F04AF80949A1F86400084673
:1009A000B0F9661007486430FFF741FD0449086656
:1009B00000E000BF00BF05B000BD000000680040BF
:1009C000CC060020A8010020B1F5007F3AD00FDC52
:1009D000202928D006DC01291CD004291DD0082993
:1009E00040D11DE0402921D0B1F5807F3AD126E0E9
:1009F000B1F5004F31D006DCB1F5806F25D0B1F5EF
:100A0000006F2FD124E0B1F5803F12D0B1F5003F47
:100A100028D111E0154A826025E00822C26022E058
:100A20001022C2601FE0082202611CE01022026155
:100A300019E00822426016E01022426013E004220E
:100A4000426010E0042242600DE0042242600AE0AD
:100A5000002282610422426005E0002282610422B9
:100A6000426000E000BF00BF7047000001010100CC
:100A700010B50021837A012202FA03F13D4A12687F
:100A800042F001023B4B1A603A4A1C3212688A4318
:100A9000384B1C331A60027BCAB9364A0C321268D2
:100AA0008A43344B0C331A604288C38842EA0343BA
:100AB000304A4032847A42F834300288838842EAED
:100AC00003432C4A4032847A02EBC4025360027B17
:100AD000012A19D1274A0C3212680A43254B0C33DC
:100AE0001A604288038842EA0343224A4032847AE9
:100AF00042F83430C288838842EA03431D4A4032B8
:100B0000847A02EBC4025360C27A3AB9194A121DC0
:100B100012688A43174B1B1D1A6006E0154A121D06
:100B200012680A43134B1B1D1A60028932B9114A1D
:100B3000143212688A430F4B14331A600289012A57
:100B400006D10C4A143212680A430A4B14331A6055
:100B5000427B012A06D1074A1C3212680A43054B20
:100B60001C331A60034A126822F00102014B1A601A
:100B700010BD00000066004070B504460D4600261A
:100B800060692840002871D0B5F5807F5CD010DC0A
:100B9000082D35D006DC012D20D0022D24D0042DC7
:100BA00072D127E0102D31D0202D35D0402D6BD1C2
:100BB00038E0B5F5004F60D009DCB5F5007F49D0CD
:100BC000B5F5806F4CD0B5F5006F5DD14FE0B5F550
:100BD000803F2DD0B5F5003F56D12FE0A0682D49BC
:100BE00000F024FB064651E0E068032100F01EFB04
:100BF00006464BE0E068082100F018FB064645E099
:100C0000E068102100F012FB06463FE02069032156
:100C100000F00CFB064639E02069082100F006FBD5
:100C2000064633E02069102100F000FB06462DE067
:100C30006068082100F0FAFA064627E06068102193
:100C400000F0F4FA064621E0A069012100F0EEFA76
:100C500006461BE0A069022100F0E8FA064615E00E
:100C6000A069042100F0E2FA06460FE00FE0A06957
:100C7000702100F0DBFA064608E06068042100F00D
:100C8000D5FA064602E0FFE7002600BF00E0002696
:100C9000304670BD010101001AB143690B43436145
:100CA00002E043698B434361704730B50246002040
:100CB0000023146824F002041460146844F0010452
:100CC000146000E05B1C546804F001041CB94FF68A
:100CD000FF74A342F6D1546804F001040CB900205B
:100CE0006CE08C79012C04D1146844F08004146009
:100CF00003E0146824F080041460CC79012C04D142
:100D0000146844F04004146003E0146824F04004C4
:100D100014600C7A012C04D1146844F0200414608F
:100D200003E0146824F0200414604C7A012C04D1F0
:100D3000146844F01004146003E0146824F01004F4
:100D400014608C7A012C04D1146844F008041460F7
:100D500003E0146824F008041460CC7A012C04D158
:100D6000146844F00404146003E0146824F00404DC
:100D700014608C78A407CD7844EA05640D7944EAC0
:100D800005444D7944EA05540D886D1E2C43D46109
:100D9000146824F001041460002300E05B1C546814
:100DA00004F001041CB14FF6FF74A342F6D154685D
:100DB00004F001040CB1002000E0012030BD10B5AA
:100DC00000F5D87303EB01131B6803F004031372DF
:100DD000137A53B900F5D87303EB01131B6840F283
:100DE000FF7404EA5353136009E000F5D87303EB72
:100DF00001131B686FF0604404EAD303536000F5ED
:100E0000D87303EB01131B6803F00203537200F560
:100E1000D87303EB01135B6803F00F03937200F5C3
:100E2000D87303EB01135B681B0AD37400F5D87306
:100E300003EB01139B68D37200F5D87303EB011326
:100E40009B681C0A147300F5D87303EB01139B68AD
:100E50001C0C547300F5D87303EB01139B681B0E35
:100E6000937300F5D87303EB0113DB68D37300F5BC
:100E7000D87303EB0113DB681C0A147400F5D873F4
:100E800003EB0113DB681C0C547400F5D87303EBFF
:100E90000113DB681B0E937421B9C36843F0200370
:100EA000C36003E0036943F02003036110BD000049
:100EB0002DE9F04781460E4614461D46DDE90878C7
:100EC0000E48066000200D4908724872082088729A
:100ED000200AC87208460473290A41738573390AC7
:100EE000C17307744FEA1821417480F812800146DB
:100EF000484600F005F8BDE8F0870000FC400120FE
:100F000010B502460020936803F08063B3F1806F50
:100F100000D110E0936803F00063B3F1006F01D1DA
:100F2000012008E0936803F08053B3F1805F01D1A2
:100F3000022000E00420042874D002F5C07303EB03
:100F400000131B6803F0010402F5C07303EB0013E8
:100F50001C600B7A7BB94B7A0C8843EA445302F548
:100F6000C07404EB00142468234302F5C07404EB3E
:100F70000014236010E00B7A4C6843EAC4034C7AF7
:100F8000234302F5C07404EB00142468234302F5E4
:100F9000C07404EB001423608B7A03F00F038B7290
:100FA00002F5C07303EB00135B6823F00F0402F536
:100FB000C07303EB00135C6002F5C07303EB001316
:100FC0005B688C7A234302F5C07404EB0014636001
:100FD0008B7B1C064B7B44EA03440B7B44EA0323D4
:100FE000CC7A234302F5C07404EB0014A3608B7C1D
:100FF0001C064B7C44EA03440B7C44EA0323CC7B71
:10100000234302F5C07404EB0014E36002F5C073DF
:1010100003EB00131B6843F0010402F5C07303EBFC
:1010200000131C6010BD10B504F0D2F810BD000014
:1010300030B52DED108B83B004469FED7B0AB0EEEA
:1010400040FA94ED000AD4ED060A30EE600A84ED11
:10105000020A94ED030AD4ED040A20EE200AB0EE51
:10106000408A94ED040A20EE080A10EE105A94ED1E
:10107000020AD4ED040A94ED011A00EE810AF0EEA2
:10108000408A18EE900A04F0C1FF41EC1E0BB0EE4E
:101090004E0AF0EE6E0A02F0B7FDB0EE40DAF0EE66
:1010A00060DA94ED030AF2EE000A20EE200A10EE58
:1010B000101A084604F0AAFF53EC1D2BCDE90001DD
:1010C0009DED000B51EC100B04F0AAFC41EC1B0B46
:1010D00028EE080A10EE101A084604F097FF41ECBB
:1010E0001C0B53EC1B2B04F0C3F941EC1A0BB0EEB4
:1010F0004A0AF0EE6A0A03F0BBFBB0EE409AF0EE4B
:10110000609A51EC190B04F081F90290284604F022
:101110007DFF41EC190B18EE900A04F077FF41ECCB
:101120001B0BB0EE4B0AF0EE6B0A02F06DFDB0EE59
:1011300040AAF0EE60AA53EC192B51EC1A0B04F004
:101140006DFD18D2B0EE680A02F0AEF800EE100A9B
:10115000F8EEC00A9DED020A30EE480A60EE800A01
:10116000B0EE001A80EE810AD4ED010A30EE200ABA
:10117000B0EE40FA09E0D4ED040A88EEA00AD4EDFE
:10118000010A30EE200AB0EE40FA18EE100A04F020
:101190003DFF41EC190B1FEE100A04F037FF41EC44
:1011A0001B0BB0EE4B0AF0EE6B0A02F02DFDB0EE19
:1011B00040AAF0EE60AA53EC192B51EC1A0B04F084
:1011C0002DFD10D2B0EE4F0A02F06EF800EE100ABC
:1011D000B8EEC00AD4ED030ABFEE001A60EE810A31
:1011E00060EE20FA09E094ED030AFFEE000A20EE1B
:1011F000200A20EE0F0AC0EE08FA94ED000AD4EDA2
:10120000050A94ED011A00EE810A84ED000A94EDBE
:10121000010AD4ED050A00EEAF0A84ED010A03B01D
:10122000BDEC108B30BD0000000000000246002025
:1012300002EA01030BB1012000E00020704700002A
:1012400010B5FFF7F0FE0348C089401C0149C88172
:1012500010BD0000500600200246094B9A4201D200
:10126000084801E00648103801F000531BB1064B56
:101270000B40C36002E0044B0B40836070470000EA
:1012800010640240006002407D0F7D0F21B10268B2
:1012900042F00102026003E0026822F001020260F3
:1012A00070470000016821F0010101600021016028
:1012B00041608160C1600161212141614A498842E8
:1012C00004D13D21484A103A91608CE046491831DA
:1012D000884205D14FF47461434A103A916082E02C
:1012E00041493031884205D14FF474113E4A103AD9
:1012F000916078E03C494831884205D14FF07461F3
:10130000394A103A91606EE037496031884204D121
:101310003649354A103AD16065E033497831884220
:1013200004D13349304A103AD1605CE02E49903103
:10133000884204D12F492C4A103AD16053E02A49FF
:10134000A831884205D14FF03D51274A103AD1606B
:1013500049E02949884204D13D21274A083A1160D1
:1013600041E025491831884205D14FF47461224A81
:10137000083A116037E020493031884205D14FF4F6
:1013800074111D4A083A11602DE01B49483188420A
:1013900005D14FF07461184A083A116023E01649EC
:1013A0006031884204D11149134A121F11601AE0BA
:1013B00011497831884204D10D490F4A121F11603A
:1013C00011E00D499031884204D10A490A4A121F9E
:1013D000116008E00849A831884204D14FF03D511E
:1013E000054A121F11607047106002403D00002046
:1013F000400F002000003D201064024010B501F0B5
:1014000080034BB122B1436943F08003436103E0A1
:10141000436923F08003436180290BD02AB103681C
:1014200001F01E042343036004E0036801F01E047E
:10143000A343036010BD000010B500220268134BE7
:101440001A40CC680B6823434C6923438C692343BF
:10145000CC6923430C6A23434C6A23438C6A23439D
:101460004C6B23438C6B23431A430260426922F086
:101470000702D1E90B3423431A4342610B694360ED
:101480004B6883608B68C36010BD00003F801CF018
:1014900041607047F0B50A4600210023002400BFD8
:1014A0003DE0012505FA01F3156805EA03049C42B5
:1014B00034D105684F000326BE40B5430560157959
:1014C0004E00B5400668354305601579012D02D000
:1014D0001579022D16D185684F000326BE40B5430D
:1014E000856055794E00B54086683543856045680E
:1014F00001268E40B5434560456896798E40B6B268
:1015000035434560C5684F000326BE40B543C560FE
:10151000D5794E00B540C6683543C560491C1029D1
:10152000BFD3F0BDF0B5002300244D07ED0E02FA45
:1015300005F3CE1000F1200555F826504E07F70EA2
:101540000F26BE40B543CF1000F1200646F82750C5
:10155000CE1000F1200555F8265045EA0304CE10C0
:1015600000F1200545F82640F0BD41837047018316
:101570007047000010B52DED028B78480088401CA4
:10158000764908800846008840F2DC51884202DD36
:1015900000207249088000F009F97148008800288D
:1015A0005ED0704890ED000A6D48008841F28831A5
:1015B000081A6D4901EB800080ED000A6B4890ED40
:1015C000000A6848D0ED000A30EE200A674880ED36
:1015D000000A674890ED000A6148008841F28831AE
:1015E000081A644901EB800080ED000A624890ED22
:1015F000000A5F48D0ED000A30EE200A5E4880ED18
:10160000000A5E4890ED000A5548008841F2883192
:10161000081A5B4901EB800080ED000A594890ED03
:10162000000A5648D0ED000A30EE200A554880EDF9
:10163000000A4B48008841F28831081A00EE100A6F
:10164000B8EEC00A46480088081A4F4901EB8000EE
:1016500080ED000A42480088401E414908807AE037
:10166000484890ED000ADFED490A80EE201A48480C
:1016700080ED001A00244BE040F2712060433A4AAA
:1016800002EB401141F288323F4803F031FB414800
:1016900000EB840080ED000A3E4800EB840090EDF2
:1016A000000A10EE101A084604F0B0FC9FED3A0B49
:1016B00053EC102B04F0B2FA12D3364800EB84003E
:1016C00090ED000A10EE101A084604F09FFC41EC61
:1016D000180B9FED330B53EC102B04F065F916D269
:1016E00041F288301E4908809FED2F0A1F4880ED87
:1016F000000A9FED2D0A204880ED000A9FED2A0A7E
:10170000204880ED000A0020BDEC028B10BD641C57
:10171000032CB1DB154890ED000ADFED1C0A80EECA
:10172000201A80ED001A144890ED000ADFED170A28
:1017300080EE201A80ED001A124890ED000ADFEDCD
:10174000130A80EE201A80ED001A41F28830044915
:1017500008800120D8E70020D6E70000FC05002023
:101760003C0400204C040020700800208804002065
:1017700050040020905600208C04002054040020C7
:10178000B0A4002090040020D0F2002000409C452E
:101790009C040020F04001202D431CEBE2360A3F60
:1017A0002D431CEBE2360ABF000000002DE9F04F8C
:1017B0002DED068B87B01320FEF772FE0746122030
:1017C000FEF76EFE80461520FEF76AFE8146142065
:1017D000FEF766FE82461720FEF762FE834616205D
:1017E000FEF75EFE06900320FEF776FE05900220CF
:1017F000FEF772FE04900520FEF76EFE03900420B3
:10180000FEF76AFE02900720FEF766FE01900620B2
:10181000FEF762FE009048EA072000B200EE100AD0
:10182000B8EEC00ADFED660A80EE201A9FED650A69
:1018300061EE000A644890ED000AB8EE400A20EE1E
:10184000800A624880ED000A4AEA092000B200EEF0
:10185000100AB8EEC00ADFED5A0A80EE201A9FED9A
:10186000590A61EE000A584890ED000AB8EE400AA5
:1018700020EE800A564880ED000A069840EA0B20C8
:1018800000B200EE100AF8EEC00A9FED4D1A80EE8D
:10189000810ADFED4C0A60EE200A4B4890ED000A09
:1018A000B8EE400A20EE800A4A4880ED000ADDE9E1
:1018B000040140EA012000B200EE100AB8EEC00AAE
:1018C0009FED3F1AC0EE010A9FED3E0A20EE800A0E
:1018D000414880ED000ADDE9020140EA012000B242
:1018E00000EE100AF8EEC00A9FED351A80EE810A6C
:1018F000DFED340A20EE200A384880ED000ADDE9E9
:10190000000140EA012000B200EE100AF8EEC00A21
:101910009FED2B1A80EE810ADFED2A0A20EE200AC5
:101920002F4880ED000A2220FEF7BAFD064623204C
:10193000FEF7B6FD04462046E11704EBD1614911DC
:1019400001EBC605B5F5806F1BDBA5F5006004F063
:1019500000F841EC1A0B9FED230B53EC102B04F015
:101960005FF841EC190B9FED210B53EC102B03F0AA
:101970007FFD41EC180B03F08FFF00B21D4908807A
:1019800019E0284603F0FCFF41EC1A0B9FED150B04
:1019900053EC102B04F044F841EC190B9FED130BA2
:1019A00053EC102B03F064FD41EC180B03F074FFB3
:1019B00000B21049088007B0BDEC068BBDE8F08F7F
:1019C00000FEFF4600007A449405002040040020F9
:1019D00044040020480400204C040020500400204F
:1019E00054040020000000000000C03F0000000080
:1019F000000037403E04002030B5034605E013F8F0
:101A0000010B80EA02040448025D081EA1F10101F5
:101A1000F5D1104630BD0000F361000801460020FA
:101A20000A7BCB7A42EA032210B2704701468B7BD5
:101A30004A7B43EA022210B27047000010B52DED38
:101A4000108B86B00446F0EE408A0020039004908C
:101A50000590B6EE000A28EE800AB0EE40FAFE4885
:101A600090ED000AF0EE409AFC4890ED000AB0EECE
:101A700040AAFB4890ED000AF0EE40AAF94890ED2C
:101A8000000AB0EE40BAF84890ED000AB5EEC00A80
:101A9000F1EE10FA0FD1F54890ED000AB5EEC00A4C
:101AA000F1EE10FA07D1F24890ED000AB5EEC00A47
:101AB000F1EE10FA7ED0EC4890ED000A8DED030AAD
:101AC000EA4890ED000A8DED040AE94890ED000A1D
:101AD0008DED050ADDED030A60EEA00A9DED041A06
:101AE000DDED041A41EE210A9DED051ADDED051A22
:101AF00041EE210AB0EE600A03F0DCF8B0EE408A55
:101B0000DDED030AB0EE480A20EE800A8DED030AEF
:101B1000DDED040AB0EE480A20EE800A8DED040ADD
:101B2000DDED050AB0EE480A20EE800A8DED050ACB
:101B30009DED040ACF48D0ED000A20EE200ADDED2D
:101B4000050ACD4890ED001AF0EE40BA40EEC1BA59
:101B50009DED050AC948D0ED000A20EE200ADDED12
:101B6000030AC44890ED001AB0EE40CA00EEC1CAA4
:101B70009DED030AC048D0ED000A20EE200ADDEDFD
:101B8000040ABE4890ED001AF0EE40CA40EEC1CA09
:101B9000BB4890ED000A60EE2B0ABA4890ED000AAF
:101BA00000EEA80A80ED000AB54890ED000A60EE4C
:101BB0000C0A00E03FE0B44890ED000A00EEA80AED
:101BC00080ED000AAE4890ED000A60EE2C0AAF48A6
:101BD00090ED000A00EEA80A80ED000AA94890EDF9
:101BE000000AAB48D0ED000A00EEAB0AA948D0EDE0
:101BF000000A30EE200A80ED000AA34890ED000AAA
:101C0000A348D0ED000A00EE8C0AA348D0ED000AEC
:101C100030EE200A80ED000A9C4890ED000A9C48B6
:101C2000D0ED000A00EEAC0A9C48D0ED000A30EE80
:101C3000200A80ED000A974890ED000A20EE0F0A76
:101C40008DED000A944890ED000A20EE0F0A8DED0C
:101C5000010A924890ED000A20EE0F0A8DED020A6B
:101C60009DED000A20EE000ADDED010A9DED011A4E
:101C700000EE810ADDED020A9DED021AB0EE409AF7
:101C800000EE819AB7EE000A30EE490A20EE290AEA
:101C9000DDED000A0AEE600ADDED010A0AEEE00A57
:101CA000DDED020A0BEE600A6B4880ED000AB7EE2C
:101CB000000A30EE490A20EE0A0ADDED000A09EEBC
:101CC000A00ADDED020A0AEEA00ADDED010A0BEE24
:101CD000600A624880ED000AB7EE000A30EE490A59
:101CE00020EE2A0ADDED010A09EEA00ADDED020A66
:101CF0000AEE600ADDED000A0BEE200A584880ED7E
:101D0000000AB7EE000A30EE490A20EE0B0ADDEDBC
:101D1000020A09EEA00ADDED010A0AEE200ADDED55
:101D2000000A0AEEE00A4F4880ED000A4A48D0ED6A
:101D3000000A60EEA00A494890ED001AD0ED001AA2
:101D400041EE210A464890ED001AD0ED001A41EE0E
:101D5000210A444890ED001AD0ED001A41EE210A04
:101D6000B0EE600A02F0A6FFB0EE408A3A4890ED6D
:101D7000000A20EE080A80ED000A384890ED000ABB
:101D800020EE080A80ED000A354890ED000A20EEAA
:101D9000080A80ED000A334890ED000A20EE080A98
:101DA00080ED000A2C4890ED000A20EE00DA2B4866
:101DB00090ED000A60EE00DA294890ED000A20EE6E
:101DC00000EA284890ED000A60EE00EA3DEE2D0A98
:101DD00030EE4E0A30EE6E0A314880ED000A1F48A0
:101DE00090ED000A1E48D0ED000A20EE200A1A48A5
:101DF000D0ED000A1B4890ED001A00EE810AF0EECB
:101E0000000A20EE200A274880ED000A134890EDD2
:101E1000000A1448D0ED000A20EE200A0E48D0ED4A
:101E2000000A0F4890ED001A00EEC10AF0EE000A19
:101E300020EE200A114880ED000A074890ED000AC4
:101E40000648D0ED000A20EE200A0548D0ED000A31
:101E5000044890ED001A27E0000600200406002048
:101E6000080600200C060020580400205C04002016
:101E700060040020200600201C0600201806002018
:101E80004005002044050020480500204C050020A6
:101E90003C05002064040020680400206C0400203D
:101EA000100600201406002000EE810AF0EE000A61
:101EB00020EE200A2A4880ED000A3DEE6D0A30EE41
:101EC0004E0A30EE2E0A274880ED000A264890ED93
:101ED000000AF7EE000AB4EEE00AF1EE10FA03DDB4
:101EE000B7EE000A80ED000A1F4890ED000AFFEEF1
:101EF000000AB4EEE00AF1EE10FA03D2BFEE000AD7
:101F000080ED000A184890ED000A01F0BFFCB1EE28
:101F1000400ADFED160A20EE200A84ED190A114866
:101F2000D0ED000A0E4890ED000A01F045FDDFED0E
:101F30000F0A20EE200A84ED180A0D48D0ED000AA1
:101F40000C4890ED000A01F037FDDFED080A20EEA5
:101F5000200A84ED1A0A06B0BDEC108B10BD0000FB
:101F60001C0600202006002018060020333365429E
:101F7000100600201406002010B59FED1A0A1A481A
:101F800080ED040A9FED190A80ED050A9FED180AFD
:101F9000FFF754FD174890ED000A174880ED000A3E
:101FA000164890ED000AB1EE400A154880ED000A8F
:101FB000144890ED000A144880ED000A0A4890ED9C
:101FC0001A0A124880ED000A074890ED190A1048D5
:101FD00080ED000A044890ED180A0E4880ED000AD2
:101FE00010BD0000CDCCCC3ED00400206F12033BCE
:101FF0006F12833A74040020B40400207804002097
:10200000B804002070040020C4040020BC04002098
:10201000C0040020C804002010B5FFF7ADFF03483E
:10202000008A401C0149088210BD000050060020B3
:10203000B0EE401AB4EEE01AF1EE10FA09D2B1EEA9
:10204000600AB4EEC01AF1EE10FA02DD9FED020A4A
:102050007047B0EE410AFBE70000000090ED031A64
:10206000D0ED041AF7EE000A41EE210AB7EE001A8D
:10207000C1EE201AB0EE610AD0ED010AC0ED000AEF
:10208000F7EE000A70EEC00A90ED021A60EE810AC7
:1020900090ED001A40EE010AC0ED010A7047000001
:1020A00010B537480078012805D19FED360A36482B
:1020B00080ED0C0A62E03248007802280DD19FEDD5
:1020C000330A314880ED0C0A314890ED000A31485E
:1020D00080ED060A00F064FB50E0294800780328F0
:1020E0004CD19FED2A0A284880ED0C0A2A48007836
:1020F00001281ED1264890ED000AB5EEC00AF1EE87
:1021000010FA0AD22548D0ED000A9FED1E0A204899
:1021100000F098FC00F044FB30E01D4890ED000A10
:10212000B5EEC00AF1EE10FA28DB00201A4908705B
:1021300024E01948007808BB154890ED000ADFED4F
:10214000180AB4EEE00AF1EE10FA0ADD1348D0EDF9
:10215000000A9FED130A0E4800F074FC00F020FB0B
:102160000CE00B4890ED000ADFED0E0AB4EEE00A39
:10217000F1EE10FA02D801200749087010BD0000E6
:10218000BC030020000000009402002000C0DA46DA
:1021900024020020300200207C0500208005002061
:1021A000000034C20000344210B5FFF779FF034845
:1021B0004089401C0149488110BD000050060020A4
:1021C00008B54FF4A06000F077F834208DF80000D7
:1021D00000208DF801008DF8020001208DF8030029
:1021E000684600F02DF827208DF8000000208DF8BB
:1021F000010001208DF802008DF80300684600F010
:102200001FF814208DF8000000208DF80100012037
:102210008DF802008DF80300684600F011F84020A8
:102220008DF8000000208DF8010002208DF80200DA
:1022300001208DF80300684600F002F808BD000098
:1022400070B5002100230F22C4781CB3174C2468FA
:1022500004F4E064C4F5E064C4F30721C1F10404AC
:10226000E3B20A4144789C40E1B2847814402143AF
:102270000C07210E0E4C05786155047804F01F05FB
:102280000124AC4005786D11AD0005F1E025C5F8DD
:10229000004109E0047804F01F050124AC40054D1D
:1022A0000678761145F8264070BD00000CED00E080
:1022B00000E400E080E100E002490143024A1160CD
:1022C000704700000000FA050CED00E0CBE00024B0
:1022D000C4E004EBC400644901EB8000007A0028EC
:1022E0007DD16248006804EBC4015F4A02EB8101C2
:1022F0000969401A04EBC40102EB810148615B48A3
:10230000006804EBC40102EB8101086104EBC40125
:1023100002EB810148688047012004EBC401524A66
:1023200002EB810108725148006804EBC40102EB22
:1023300081010969401A04EBC40102EB8101886143
:1023400004EBC400114601EB8000C06904EBC4013A
:1023500002EB81018969884206D904EBC400114669
:1023600001EB8000C06905E004EBC4003E4901EBCD
:102370008000806904EBC4013B4A02EB8101C86123
:1023800004EBC400114601EB8000006A04EBC401B9
:1023900002EB81018969884206D204EBC400114630
:1023A00001EB8000006A05E004EBC4002E4901EB5C
:1023B0008000806904EBC4012B4A02EB81010862B2
:1023C00004EBC400114601EB8000806928490968CC
:1023D00008442749086004EBC400114600E012E0FD
:1023E00001EB8000C069234909680844214908605D
:1023F00004EBC400114601EB8000006A1E49096825
:1024000008441D490860002522E01848006805EBD3
:10241000C501154A02EB81010969401A05EBC501A6
:1024200002EB8101C968884211D305EBC500114652
:1024300001EB8000007A022809D0002005EBC501DD
:1024400002EB81010872AC4201D96C1E04E06D1CE4
:102450000A4800688542D8D300BF641C074800685A
:102460008442FFF436AF32E71C000020240C004009
:10247000100000201400002018000020F4000020AC
:1024800010B52DED088B0446012008EE100A94EDDE
:10249000000AD4ED010A30EE600A84ED080A94EDDA
:1024A000100A10EE101A084603F0B0FD41EC190BAB
:1024B00094ED080A10EE101A084603F0A7FD41EC4F
:1024C0001B0BB0EE4B0AF0EE6B0A01F09DFBB0EE79
:1024D00040AAF0EE60AA53EC192B51EC1A0B03F052
:1024E00063FA07D294ED0A0AD4ED080A30EE200A06
:1024F00084ED0A0A94ED0E0A10EE101A084603F055
:1025000085FD41EC190B94ED0A0A10EE101A0846ED
:1025100003F07CFD41EC1B0BB0EE4B0AF0EE6B0AB6
:1025200001F072FBB0EE40AAF0EE60AA53EC192B5A
:1025300051EC1A0B03F072FB07D2002008EE100AD0
:102540009FED2F0A84ED0A0A02E0012008EE100A2E
:1025500094ED020AD4ED080A20EE200A84ED050A63
:1025600094ED030AD4ED0A0A20EE200AF8EE480A98
:1025700020EE200A84ED060A94ED080AD4ED090A3B
:1025800030EE600AD4ED040A20EE200A84ED070A3A
:10259000D4ED0F1AF1EE611AB0EE611AD4ED0F1AF4
:1025A000F0EE610AD4ED071AB0EE610A02F010FFF6
:1025B00084ED070A94ED050AD4ED060A30EE200AF0
:1025C000D4ED070A30EE200A84ED0B0AD4ED0C1A84
:1025D000F1EE611AB0EE611AD4ED0C1AF0EE610A58
:1025E000D4ED0B1AB0EE610A02F0F2FE84ED0B0A94
:1025F00094ED080A84ED090ABDEC088B10BD0000BB
:102600000000000070B52DED088B04460D4601203A
:1026100008EE100A94ED000AD4ED010A30EE600ACB
:1026200084ED080A94ED100A10EE101A084603F023
:10263000EDFC41EC190B94ED080A10EE101A084657
:1026400003F0E4FC41EC1B0BB0EE4B0AF0EE6B0A1E
:1026500001F0DAFAB0EE40AAF0EE60AA53EC192BC2
:1026600051EC1A0B03F0A0F907D294ED0A0AD4ED4D
:10267000080A30EE200A84ED0A0A94ED0E0A10EEE4
:10268000101A084603F0C2FC41EC190B94ED0A0A3B
:1026900010EE101A084603F0B9FC41EC1B0BB0EE2B
:1026A0004B0AF0EE6B0A01F0AFFAB0EE40AAF0EE82
:1026B00060AA53EC192B51EC1A0B03F0AFFA07D2B6
:1026C000002008EE100A9FED350A84ED0A0A02E0A8
:1026D000012008EE100A94ED020AD4ED080A20EE5B
:1026E000200A84ED050A94ED030AD4ED0A0A20EECF
:1026F000200AF8EE480A20EE200A84ED060A94ED3E
:10270000080AD4ED090A30EE600AD4ED040A20EE7E
:10271000200A84ED070A94ED070A85ED020A28468F
:10272000FFF79CFC95ED010A84ED070AD4ED0F1A22
:10273000F1EE611AB0EE611AD4ED0F1AF0EE610AF3
:10274000D4ED071AB0EE610A02F042FE84ED070AEA
:1027500094ED050AD4ED060A30EE200AD4ED070AFE
:1027600030EE200A84ED0B0AD4ED0C1AF1EE611A5A
:10277000B0EE611AD4ED0C1AF0EE610AD4ED0B1A2A
:10278000B0EE610A02F024FE84ED0B0A94ED080A13
:1027900084ED090ABDEC088B70BD0000000000004C
:1027A0001CB53B48007801280ED13A4890ED000A4C
:1027B000394880ED060AFEF73BFC374890ED000AE9
:1027C000364880ED000A05E0324890ED000A3348B3
:1027D00080ED000A324890ED000A304880ED010A91
:1027E000FFF74EFE2D4890ED0B0A2B48D0ED010A65
:1027F0002C4890ED001A20EE811A2548007800EE52
:10280000900AF8EE600A01EE200A274880ED000ADF
:10281000264890ED000A244880ED010A2449FFF77C
:10282000F1FE214890ED0B0AB1EE400A80ED0B0A53
:1028300090ED0B0A1F48D0ED000A30EE200A1A482E
:1028400080ED0B0AD0ED0C1AF1EE611AB0EE611AB0
:10285000D0ED0C1AF0EE610AD0ED0B1AB0EE610A61
:1028600002F0B6FD104880ED0B0A002190ED0B0A36
:10287000BDEEC00A10EE100A00B20B460A46CDE9C2
:10288000000140F2FF110C48FEF712FB1CBD0000D6
:102890003406002024020020300200204C020020D8
:1028A000C00400202C02002094020020B404002068
:1028B0006C030020280200200068004029B1064A6D
:1028C00012680243044B1A6004E0034A1268824310
:1028D000014B1A60704700003038024029B1064AA7
:1028E00012680243044B1A6004E0034A12688243F0
:1028F000014B1A60704700004038024029B1064A77
:1029000012680243044B1A6004E0034A12688243CF
:10291000014B1A60704700002038024029B1064A76
:1029200012680243044B1A6004E0034A12688243AF
:10293000014B1A60704700004438024029B1064A32
:1029400012680243044B1A6004E0034A126882438F
:10295000014B1A607047000024380240F0B5002196
:1029600000220024022500260223324F3F6807F090
:102970000C0121B1042905D0082937D105E02E4FDB
:10298000076036E02D4F076033E02A4F3F1F3F6856
:10299000C7F38056274F3F1F3F6807F03F036EB1D4
:1029A000264FB7FBF3F7DFF88CC0ACF1040CDCF872
:1029B00000C0CCF3881C07FB0CF40CE01E4FB7FBE7
:1029C000F3F7DFF870C0ACF1040CDCF800C0CCF316
:1029D000881C07FB0CF4174F3F1F3F68C7F30147E4
:1029E0007F1C7D00B4FBF5F7076002E0124F076023
:1029F00000BF00BF0F4F3F6807F0F0010909104FFB
:102A00007A5C0768D74047600A4F3F6807F4E05197
:102A1000890A0B4F7A5C4768D7408760054F3F684B
:102A200007F46041490B064F7A5C4768D740C7609E
:102A3000F0BD0000083802400024F40000127A00C3
:102A40003E06002090ED001A31EE401AB5EEC01A95
:102A5000F1EE10FA06D290ED001A31EE201A80ED58
:102A6000001A1AE090ED001A31EE401AB5EEC01AC5
:102A7000F1EE10FA02D180ED000A0EE090ED001A9E
:102A800031EE401AB5EEC01AF1EE10FA05DD90ED08
:102A9000001A31EE601A80ED001A704710B500F090
:102AA00083F910BD1CB51948B0F90C0000EE100AEE
:102AB000B8EEC00A164880ED010A1448B0F91400B7
:102AC00000EE100AB8EEC00A124880ED010A104864
:102AD000FFF7D6FC0F48FFF7D3FC002000900190D1
:102AE0000C4890ED0B0ABDEEC00A10EE100A03B2BE
:102AF000074890ED0B0ABDEEC00A10EE100A02B2B4
:102B00004FF400710448FEF7D3F91CBDCC06002039
:102B1000E0070020280800200064004010B512489B
:102B20000078032817D19FED110A114880ED0C0A97
:102B3000104991ED000AF7EE000A30EE200ABCEED3
:102B4000C00A10EE101AC8B202F04EF900F0CAFC2A
:102B5000FFF7A8FF06E09FED080A054880ED0C0A84
:102B600000F0C0FC10BD0000BD0300200000FA45CD
:102B700024030020CC0400200000000021B10288C2
:102B800042F04002028004E002884FF6BF731A4010
:102B90000280704700B587B001210846FFF78EFE1E
:102BA00001210803FFF7BAFE052211463A48FEF755
:102BB000B9FC052206213848FEF7B4FC052207219E
:102BC0003548FEF7AFFC2020009002208DF804006D
:102BD00003208DF8050000208DF8060001208DF8F7
:102BE000070069462C48FEF755FC402000906946D6
:102BF0002948FEF74FFC8020009069462648FEF7E2
:102C000049FC264800F04EF81820ADF814000020CA
:102C1000ADF81000ADF80E000720ADF818004FF425
:102C20000060ADF80C000020ADF80800ADF816000B
:102C30004FF48270ADF80A004FF40070ADF8120046
:102C400002A9164800F086F801211448FFF796FF04
:102C500001210420FFF732FE01210420FFF72EFEA0
:102C60001020009001208DF8040000208DF806004F
:102C700069460B48FEF70EFC202000906946084884
:102C8000FEF708FC10210648FEF771FC20210448DD
:102C9000FEF76DFC07B000BD0000024000300140AF
:102CA0000008024010B504462448844208D101219E
:102CB0008014FFF743FE0021A014FFF73FFE3CE025
:102CC0001F48844208D101210014FFF717FE00219C
:102CD0002014FFF713FE30E01A48844208D1012186
:102CE000C013FFF70BFE0021E013FFF707FE24E0FF
:102CF0001548844208D101214014FFF71FFE00212E
:102D00006014FFF71BFE18E01048844209D101212E
:102D10000805FFF713FE00214FF48010FFF70EFEA9
:102D20000BE00B48844208D101214805FFF706FE5D
:102D300000214FF40010FFF701FE10BD00300140EC
:102D400000380040003C0040003401400050014089
:102D50000054014010B50022028802F441520B8851
:102D60004C8823438C882343CC8823430C892343FA
:102D70004C8923438C892343CC8923431A43028003
:102D8000838B4FF2FF74234083830B8A038210BD31
:102D900010B5FFF783FE0348408A401C0149488272
:102DA00010BD00005006002010B52DED048BFEF77D
:102DB000FDFCD64890ED000AD548D0ED000A30EE73
:102DC000600AF7EE000A20EE200AD04880ED000AE3
:102DD000D04890ED000AD048D0ED000A30EE600AED
:102DE000F7EE000A20EE200ACA4880ED000ACB4820
:102DF00090ED000ACA48D0ED000A30EE600AF7EE06
:102E0000000A20EE200AC54880ED000AC54890ED72
:102E1000000AC548D0ED000A30EE600AF7EE000A5D
:102E200020EE200ABF4880ED000AC04890ED000A5D
:102E3000BF48D0ED000A30EE600AF7EE000A20EE3F
:102E4000200ABA4880ED000ABA4890ED000ABA4854
:102E5000D0ED000A30EE600ADFEDB80A20EE200A5D
:102E6000B44880ED000AAF4890ED000AB44880ED08
:102E7000000AAE4890ED000AB24880ED000AAD4865
:102E800090ED000AB04880ED000AA04890ED000ADD
:102E9000AE4880ED000A9F4890ED000AAC4880EDF6
:102EA000000A9E4890ED000AAA4880ED000A9D485D
:102EB00090ED000AA84880ED020AFFF7CFF8A64877
:102EC00090ED010A974880ED000A984890ED000ABD
:102ED000A24880ED020AFFF7C1F8A04890ED010A70
:102EE000924880ED000A934890ED000A9C4880EDDE
:102EF000020AFFF7B3F89A4890ED010A8D4880ED79
:102F0000000A824890ED000A964880ED020AFFF719
:102F1000A5F8944890ED010A7C4880ED000A7D48B0
:102F200090ED000A904880ED020AFFF797F88E486E
:102F300090ED010A774880ED000A784890ED000A8C
:102F40008A4880ED020AFFF789F8884890ED010A67
:102F5000724880ED000ADFED860A724890ED000AA3
:102F6000FFF766F86F4880ED000ADFED810A6F48D1
:102F700090ED000AFFF75CF86C4880ED000ADFED89
:102F80007C0A6C4890ED000AFFF752F8694880ED22
:102F9000000A644890ED000ADFED760A20EE200A70
:102FA000754880ED000A614890ED000ADFED710A76
:102FB00020EE200A714880ED000A5E4890ED000A7C
:102FC000DFED6C0A20EE200A6D4880ED000A6A48A9
:102FD00090ED000A9FED6B1AC0EE010A9FED6A0AA0
:102FE00020EE800A694880ED000A644890ED000AEE
:102FF000DFED640A80EE201A9FED630A21EE000ADD
:10300000634880ED000A5E4890ED000ADFED5D0A3E
:1030100080EE201A9FED5C0A21EE000A5D4880EDEB
:10302000000A3A4890ED000A5B4880ED000A3948F2
:1030300090ED000A594880ED000A384890ED000AEA
:10304000574880ED000A544890ED000A20EE000A2F
:103050005248D0ED000A90ED001A00EE810A504867
:10306000D0ED000A90ED001A00EE810A10EE101A61
:10307000084602F0CBFF41EC190BB0EE490AF0EE26
:10308000690A01F0F5FBB0EE408AF0EE608A51EC7F
:10309000180B02F0BBF943490860084690ED000A9E
:1030A000DFED410AB4EEE00AF1EE10FA03DD012093
:1030B0003E49087019E0304890ED000ADFED3C0A07
:1030C000B4EEE00AF1EE10FA08D290ED000ADFED5E
:1030D000390AB4EEE00AF1EE10FA03DC01203349BC
:1030E000087002E00020314908703348007818B9B0
:1030F00001203149087005E02F480078022801D1ED
:103100002D490870BDEC048B10BD00004004002068
:103110007C04002044040020800400204804002097
:10312000840400204C040020880400205004002067
:103130008C0400205404002090040020D044803FE0
:10314000E4050020E8050020EC050020F005002043
:10315000F4050020F8050020C4030020D803002057
:10316000EC030020000400201404002028040020A8
:103170006F12033B39FA8E3C64040020680400207F
:103180006C040020DB0F4940000034437004002031
:103190007404002078040020580400205C040020FF
:1031A00060040020A005002000202346A405002084
:1031B0000000FA440000FAC4C00300200CB500204F
:1031C000019000903448006840F480303249086033
:1031D00000BF3148006800F4003000900198401CA6
:1031E0000190009818B90198B0F5A04FF1D12A4884
:1031F000006800F4003010B10120009001E00020D0
:1032000000900098012846D123484030006840F0E3
:1032100080502149403108602048006840F4404017
:103220001E4908601C48083000681B4908310860C6
:103230000846006840F4004008600846006840F412
:10324000A05008601648091F0860081F006840F079
:103250008070091F086000BF0F48006800F0007010
:103260000028F9D040F205700E4908600A4808307D
:10327000006820F00300084908310860084600682B
:1032800040F00200086000BF03480830006800F00A
:103290000C000828F8D10CBD003802400070004036
:1032A00008544007003C0240B5EEC00AF1EE10FAA7
:1032B00001DD01207047B5EEC00AF1EE10FA01D130
:1032C0000020F7E74FF0FF30F4E7000010B5FFF7FC
:1032D00025FC0348808A401C0149888210BD0000FB
:1032E0005006002002480068401C014908607047F1
:1032F0005006002030B5164800684FF47A72B0FBD3
:10330000F2F1481EB0F1807F01D301201BE0481E7E
:103310004FF0E022506150170F22002807DA130700
:103320001D0E0C4B00F00F04241F1D5503E0130766
:103330001C0E094B1C5400BF00204FF0E02290618E
:1033400007201061002008B100BFFEE730BD00007B
:103350005005002018ED00E000E400E010B515482D
:10336000006840F47000134908601348006840F09A
:1033700001001149086000200F49083108600E481B
:1033800000680E4908400C4908600D48091D086096
:10339000081F006820F48020091F086000200649EB
:1033A0000C310860FFF70AFF4FF0006001498039D7
:1033B000086010BD88ED00E000380240FFFFF6FE17
:1033C0001030002410B500F001F810BD0F488088BF
:1033D0000E49C882002088800846008A4884002060
:1033E00008820846408A8884002048820846C089AE
:1033F00008840020C88108464089888300204881CD
:103400000846808AC88400208882704750060020C1
:103410000EB501210820FFF761FA5320ADF8000036
:103420004FF0FF3001900020ADF80200ADF8080029
:103430006946044800F014F80121024800F004F83D
:103440000EBD0000000C004021B1028842F00102D4
:10345000028004E002884FF6FE731A400280704733
:1034600000220288184B98420ED0184B98420BD07D
:10347000B0F1804F08D0164B984205D0154B9842BA
:1034800002D0154B984204D14FF68F731A404B88E7
:103490001A43124B984207D0114B984204D04FF672
:1034A000FF431A400B891A4302804B68C3620B88A2
:1034B0000385054B984202D0044B984201D18B7A88
:1034C000038601238382704700000140000401400D
:1034D0000004004000080040000C004000100040C4
:1034E0000014004000B52DED068B83B03048D0EDC0
:1034F000000A3048008830490988401A47F23331C1
:10350000484300EE100AB8EEC00A30EE800A2848A0
:1035100080ED000A2748008827490880274890ED59
:10352000160AB8EEC00A224880ED010AFEF7A8FF8D
:103530001F4890ED0B0A10EE101A084602F066FDC7
:103540009FED1F0B53EC102B02F04EF89FED1E0B5E
:1035500053EC102B02F064FA01F058FF1C4908608C
:103560001649B1F95C0002F0F4F99FED1A0B53EC27
:10357000102B02F039F801F049FF15494860084660
:10358000FEF77EFF002000900190114890ED0B0A9D
:10359000BDEEC00A10EE100A02B2002340F2FF1185
:1035A0000E48FDF785FC03B0BDEC068B00BD0000A6
:1035B000DC020020BE0300203C060020CC060020D8
:1035C000000000000000C0400000000000807640C5
:1035D000240300200000000000004240006800407A
:1035E00010B540F22441074800F054F840B10548B6
:1035F00000880448001D008801F07EFC01F048FDB1
:1036000010BD0000004C004010B540F224410748B6
:1036100000F040F840B1054800880448001D0088CB
:1036200001F064FD01F084FD10BD00000044004085
:1036300010B540F22441074800F02CF840B105488D
:1036400000880448001D008801F0A0FD01F090FEF4
:1036500010BD00000048004001F40072B2F5007F88
:1036600000D100BFCA430280704721B1828942F471
:103670000052828104E082894DF6FF731A408281F4
:1036800070471AB1838A0B43838202E0838A8B439B
:103690008382704770B50246002400230025002075
:1036A00040F66A16B14200D100BFC1F3421501F0E5
:1036B0001F03012606FA03F3012D02D19689334038
:1036C00006E0022D02D1168A334001E0968A33408B
:1036D0000C12012606FA04F41688344013B10CB11A
:1036E000012000E0002070BDF0B503460024002654
:1036F0000025002040F66A17B94200D100BF1846E5
:10370000C1F3421401F01F06012707FA06F5012C48
:1037100001D10C3004E0022C01D1103000E0143053
:103720001AB107682F43076002E00768AF430760DC
:10373000F0BD00002DE9FF4705460E460024A146D6
:1037400000BFA046B08900B100BF2C8A24F44054C9
:10375000F08804432C82AC8941F20C608443B08829
:1037600031890843718908430443AC81AC8A24F44D
:103770004074B0890443AC826846FFF7EFF82048F4
:10378000854202D01F48854202D1DDF80C9001E04D
:10379000DDF80890A88900F4004040B109EBC900A9
:1037A00000EB091031684900B0FBF1F707E009EBC5
:1037B000C90000EB091031688900B0FBF1F7642003
:1037C000B7FBF0F004012009642101FB1078A889FF
:1037D00000F4004040B1322000EBC800B0FBF1F033
:1037E00000F00700044308E0322000EB08106421D9
:1037F000B0FBF1F000F00F0004432C81BDE8FF871F
:10380000001001400014014070B505460C4600262A
:103810000DB1022C01D8002070BD611E0022284687
:10382000FEF7EAF80646601E285CB04201D101208E
:10383000F2E70020F0E703B401984100009850EA55
:10384000C12018BF04204A0D18BF40F0010040F20B
:10385000FF72B2EB515F08BF40F00200012808BFC1
:10386000052002B070474100080218BF04200A0E6C
:1038700018BF40F001004FF07F4232EA010108BF5B
:1038800040F00200012808BF0520704710B54FF036
:103890000E402DED028BB0EE408A18EE104A00EB80
:1038A0004400B0F1506F4AD84FF0FC40B0EB440FE9
:1038B00022D2B0EEC80AF7EE000A30EEC00AF6EEE9
:1038C000000A60EE208A18EE900A01F0F6FA01EE86
:1038D000100A14F0004F1DBFDFED2D0A9FED2D0AD9
:1038E000B1EE411ADFED2C0A08BF9FED2C0AF8EE6D
:1038F000001A21EE218A05E0DFED290A68EE088A28
:10390000B0EE600A9FED271ADFED271A30EE080AA5
:1039100048EE811A9FED251A08EEA11ADFED241A50
:1039200048EE811A9FED231A08EEA11A68EE281AB4
:10393000BDEC028B01EE810A30EE200A10BD4FF083
:10394000E440B0EB440F0CD918EE100AFFF78BFFE0
:10395000042808BF01F0AAF8B0EE480ABDEC028BBB
:1039600010BD4FF07F40B0EB440F07D2B0EE480AD5
:10397000BDEC028BBDE8104001F08AB80120FCF7D5
:10398000E0FCBDEC028BBDE8104001F087B8000000
:103990000000C9BF22AAFDB90000C93F22AAFD3913
:1039A0000000000024FE1C3DC78AD83C1E67383D3D
:1039B0001B93993DAFAA2A3E10EE100A10B510EEE7
:1039C000901A4FF0684202EB40032DED028BB3F1E9
:1039D000654F3CBF02EB4102B2F1654F7CD200BFA4
:1039E000C0F3C753C1F3C7529A1A1B2A09DD10F05E
:1039F000004F14BF9FED6E0A9FED6E0ABDEC028B67
:103A000010BD12F11A0F1BDA11F0004F09D010F09F
:103A1000004F0CBF9FED680A9FED680ABDEC028B5A
:103A200010BD80EE208A18EE100AFFF71CFF042854
:103A300008BF01F03BF8B0EE480ABDEC028B10BDA8
:103A40004200B2EB410F37D910F0004F19BFDFED44
:103A50005C1A9FED5C1ADFED5C1A9FED5C1AB0EE0C
:103A6000602A0A46F1EE400A80F00041B0EE420AB8
:103A700010460A1A5200B2F1807F34D2484010F04A
:103A8000004FDFED532A9FED533A1DBFBEEE002AD3
:103A900071EEE21A31EE431AB6EE002A04BF71EE5F
:103AA000A21A31EE031AF0EE402A42EE602A40EEEE
:103AB000020A82EEA02A18E011F0004F04BF9FED29
:103AC000461AF0EE411AD4D010F0004F1CBFDFEDC3
:103AD000431A9FED431A00E026E004BFDFED411AD0
:103AE0009FED411AC5E780EE202A22EE020ADFEDA3
:103AF0003F0ADFED3F2ABDEC028B40EE202ADFEDCE
:103B00003D0A40EE220ADFED3C2A40EE202ADFED9E
:103B10003B0A40EE220A22EE000A00EE201A31EEA5
:103B2000020A30EE210A10BD4FF07F42B2EB400F87
:103B300028BFB2EB410F05D2BDEC028BBDE81040AF
:103B400000F0A9BF40EA01035B0008BF41F0FF415C
:103B50000BD0B2EB400F08BFB2EB410F08D120F001
:103B6000804000EE100A21F0804100EE901A37E705
:103B7000B2EB400F12BF5FEA410240F0FF4001F09C
:103B800000413FF42DAF4A0092EA40033FF528AFD1
:103B9000002AACBF9FED1A1A9FED1A1A20EE010AF7
:103BA00060EE810A10EE100A10EE901A18E700007D
:103BB000DB0FC9BFDB0FC93FDB0F4940DB0F49C03B
:103BC0000000C9BF22AAFDB90000C93F22AAFD39E1
:103BD0000060ED3EC30ACE3700000000000049C07F
:103BE00022AA7DBA0000494022AA7D3A2DAD65BDCA
:103BF0008FB8D53D0FB511BE61C84C3EA8AAAABE6C
:103C00000000804F0000802F2DED020B019820F066
:103C1000004001909DED000B02B0704700000000D5
:103C20002DE9F04D2DED040B2DED0E8B96B0DDE959
:103C30002550279CDDF890A025F0004624F0004890
:103C4000BAF1000F14BF0121002101EB4502FC492C
:103C500053184A1093422AD3002814BF012300238B
:103C600003EB44030B44F7498B4220D358EA00018D
:103C70009FEDF59B76D0DFF8D8B35D4503D1BAF15F
:103C8000000F05D188E0BAF1000F08BF002100D075
:103C9000012101EB450111F5001F08D8002814BFD0
:103CA0000121002101EB440111F5001F0BD99DED0D
:103CB000261B9DED240B16B0BDEC0E8B04B0BDE8A9
:103CC000F04D00F0A9BE0027002DBCBFE14988459A
:103CD00021DAE1498845A8BF02271CDAC3451ADC6E
:103CE000DE4901EB2851142908DDC1F1340220FA24
:103CF00002F101FA02F282420DD108E058B9C1F195
:103D0000140228FA02F101FA02F2424503D101F04D
:103D10000101C1F1020756EA0A0124D1002C22DA7E
:103D2000002D18BF022F01D0012F0AD00220FCF76E
:103D300008FB16B0BDEC0E8B04B0BDE8F04D00F0F2
:103D400053BE0220FCF7FDFA00F04EFE51EC100BC2
:103D500001F050FB41EC100B16B0BDEC0E8B04B023
:103D6000BDE8F08D18E09FEDBEAB9FEDBF8B002846
:103D700071D1B848804522D105F1804010F58010FE
:103D800008BFBAF1000F07D0B3450ADC002CA8BF6A
:103D90009DED260BE0DA0DE0B0EE490AF0EE690A7F
:103DA000DAE7002C06DA9DED260B51EC100B01F042
:103DB00021FB6FE0AE48784490ED000BCCE7D8458E
:103DC0004DD1002C48DA2EB186423AD1BAF1000F1B
:103DD00042D126E0BAF1000F13D00220FCF7B1FA6D
:103DE00000F036FE8DED020B9DED240B8DED000BEA
:103DF00010EE900A039961F31E0003909DED020BF3
:103E0000AAE78DED02AB9DED240B1AEE901A10EE91
:103E1000900A8DED000B61F31E0003909DED020BE7
:103E20009AE78DED028B9DED240B18EE901A10EEA3
:103E3000900A8DED000B61F31E0003909DED020BC7
:103E40008AE709DA9DED240B51EC190B53EC102B8A
:103E500001F0CAFB1EE020E09DED240B7CE78642CA
:103E60001BDAB4F1804F0DD0A4F10050B0F1FF5037
:103E700013D1002D11DB9DED240B51EC100B00F044
:103E8000E5FF07E09DED240B53EC102B51EC100BDC
:103E900000F0C2BC41EC100B5EE79DED240B51EC31
:103EA000100B00F0D9FEBAF1000FCDE90E0142D19E
:103EB0009FED710B46B3A6F1E040B0F17F600CD0EE
:103EC0005E4538D1002D00DAA7B3022F0CBF0120C8
:103ED0004FF0FF3001F03DFDDCE7002D01DD002C4F
:103EE0000DDA002D01DD002C1FDB002D16DA002C71
:103EF00014DB012F08BF9FED620B3FF42DAFB0EE36
:103F00004A0AF0EE6A0A27E7022F18BF002D0CD0EC
:103F1000012F0AD1002DFFF61FAF06E0002DB8BF1C
:103F2000002C08DA012F3FF417AFB0EE480AF0EE8C
:103F3000680A11E71BE0012000EBE57050EA070179
:103F400015D0791EB0EE498AF0EE698A084308BFA1
:103F50009FED4D8B4E480025804570DD4D494E4804
:103F6000884514DDB0420DDB002C19DB2FE0012069
:103F7000FCF7E7F916B0BDEC0E8B04B0BDE8F04DD0
:103F800000F056BDB34502DC002C09DC1FE0864280
:103F900002DA002C1BDA03E05E452BDD002C16DD77
:103FA0000220FCF7CEF900F053FD8DED020B53EC2F
:103FB0001A2B51EC180B01F033FDCDE900010399E8
:103FC000019861F31E0003909DED020BC4E60220F0
:103FD000FCF7B7F900F04CFD10EE901A18EE900ABD
:103FE0008DED020B8DED008B61F31E0003909DEDB6
:103FF000020BB1E69DED0E0B53EC192B51EC100B9F
:1040000001F01AFF9FED260BCDE9080153EC102BB0
:104010009DED080B51EC100B01F002FD9FED221BF2
:1040200053EC112B01F030FE9DED081B53EC112BCE
:1040300001F0F6FC9FED1E1B53EC112B3CE08CE0D5
:10404000FFFF1F00FFFF0F00000000000000F03F17
:104050000000F03F0000F07F0000404301FCFFFF44
:10406000000000000000F07F0000000000000000E1
:10407000C6270000000000000000000000000080D3
:10408000000000000000F0FF000000000000F0BF92
:104090000000E0410000F043FFFFEF3F00000000A0
:1040A000000000000000D03F555555555555D53FEF
:1040B000000000000000E03F01F0E6FD9DED080B70
:1040C00041EC1A0B53EC102B51EC100B01F0A8FC37
:1040D00053EC1A2B01F0A4FC41EC1A0B9FEDFE0BE4
:1040E00053EC102B9DED080B51EC100B01F098FCDC
:1040F00041EC1B0B9FEDFA0B51EC1A0B53EC102B00
:1041000001F08EFC41EC1A0B9FEDF70B53EC102BDA
:104110009DED080B51EC100B01F082FC53EC1A2BB7
:1041200001F08AFE41EC1A0B51EC1B0B53EC1A2BDD
:1041300001F09EF90690CDE906519DED060B53EC7A
:104140001B2B51EC100B01F077FE53EC1A2B01F0F6
:104150009BFD41EC100B00F0A1B90020B6F5801FCB
:104160000EDA9FEDE30B53EC102B9DED0E0B51EC93
:10417000100B01F055FCCDE90E016FF034000E4636
:1041800000EB2650A0F2FF37C6F31300DA4940F0E7
:104190007F6646F040568842D8BF002408DDD749E4
:1041A0008142C8BF012403DC0024A6F580167F1CD1
:1041B000D348784400EBC4000F9690ED00CB9DED02
:1041C0000E0B53EC1C2B51EC100B01F035FE9DED4A
:1041D0000E0B41EC1B0B53EC1C2B51EC100B01F0A4
:1041E00047F941EC100B51EC190B53EC102B01F07B
:1041F000FBF941EC1D0B51EC1B0B53EC1D2B01F09B
:104200000FFC41EC1A0BBF488DED10AB78441095B4
:1042100090ED000B4FF0005040EA660000EB844048
:104220008DED080B00F5002009909DED080B53EC77
:104230001C2B51EC100B01F0FFFD9DED0E1B53EC00
:10424000112B01F021FD41EC100B53EC102B9DEDD7
:10425000100B51EC100B01F0E3FB9DED080B41EC52
:104260001C0B53EC102B9DED100B51EC100B01F0BF
:10427000D7FB53EC1B2B01F007FD53EC1C2B01F07B
:10428000DBFD53EC1D2B01F0CBFB41EC1C0B53EC85
:104290001A2B51EC1A0B01F0C3FB41EC1B0B9A4893
:1042A0000621B0EE4B0AF0EE6B0A784400F01DFBDD
:1042B000B0EE401AF0EE601AB0EE41DAF0EE61DADC
:1042C00053EC1B2B51EC1B0B01F0AAFB53EC1D2BE9
:1042D00001F0A6FB9DED100B41EC1B0B53EC1A2BD0
:1042E00051EC100B01F0C4F853EC1C2B01F098FBBF
:1042F00053EC1B2B01F0BCF89DED100B41EC1B0B9C
:1043000053EC102B51EC100B01F08AFB41EC1D0B10
:104310009FED7FEB53EC1E2B01F0AAF853EC1B2B07
:1043200001F0A6F80890CDE908519DED080B53EC7B
:104330001E2B51EC100B01F07FFD53EC1D2B01F0F7
:104340007BFD53EC1B2B01F09FFC9DED080B41EC1A
:104350001D0B53EC102B9DED100B51EC100B01F0CD
:104360005FFB41EC1B0B53EC1A2B51EC1D0B01F0C6
:1043700057FB9DED080B41EC1A0B53EC102B51EC45
:104380001C0B01F04DFB53EC1A2B01F071F841ECC2
:104390001A0B51EC1B0B53EC1A2B01F069F80C9023
:1043A000CDE90C519DED0C0B53EC1B2B51EC100B7C
:1043B00001F042FD53EC1A2B01F066FC41EC1B0BA3
:1043C0009FED550B53EC102B9DED0C0B51EC100B8E
:1043D00001F026FB41EC1A0B9FED510B51EC1B0B2E
:1043E00053EC102B01F01CFB41EC1B0B9FED4E0B13
:1043F00053EC102B9DED0C0B51EC100B01F010FB4E
:1044000053EC1B2B01F034F841EC100B4848784476
:1044100000EBC40090ED001B51EC100B53EC112B82
:1044200001F026F841EC1B0B384601F092FACDE979
:10443000080153EC1B2B51EC1A0B01F019F841EC5D
:10444000100B3C48784400EBC40090ED00CB51ECDD
:10445000100B53EC1C2B01F00BF89DED081B53ECDB
:10446000112B01F005F80690CDE906519DED080BE2
:1044700053EC102B9DED060B51EC100B01F0DCFC06
:1044800053EC1C2B01F0D8FC53EC1A2B01F0D4FC9C
:1044900053EC1B2B01F0F8FB41EC100B9DED261BA0
:1044A00053EC102B8DED001B00959DED260B51EC70
:1044B000100B01F0B5FA9DED000B41EC1A0B53EC1B
:1044C000102B9DED260B51EC100B01F0B5FC9DED72
:1044D000061B53EC112B2FE0000000604715F73F3F
:1044E000FE822B654715F73F44DF5DF80BAE543E67
:1044F00000000000000040438E9803007AB60B00D5
:1045000042230000702300007A2200000000000017
:104510000000000000000840000000E009C7EE3F76
:10452000FD033ADC09C7EE3FF5015B14E02F3EBE08
:1045300006210000C020000001F072FA53EC1A2B93
:1045400000F096FF9DED060B41EC1A0B53EC102B7F
:104550009DED000B51EC100B01F062FACDE90C015E
:104560009DED0C0B51EC1A0B53EC102B00F080FF5F
:10457000CDE902010C46AA498C422FDB611A08439F
:1045800018D19DED0C0B53EC102B9DED020B51EC53
:10459000100B01F051FC41EC1B0B9FEDA30B51ECF8
:1045A0001A0B53EC102B00F063FF53EC1B2B01F0A4
:1045B00035FB2DD20220FBF7C4FE00F049FA10EEC5
:1045C000901A18EE900A8DED020B8DED008B61F3C1
:1045D0001E0003909DED020BFFF7BEBB944A24F032
:1045E0000041914214D39349214408437FF4EFAC36
:1045F0009DED0C0B53EC102B9DED020B51EC100BB1
:1046000001F01AFC53EC1A2B01F008FB7FF6DFAC2B
:1046100024F000408849894A002601EB205182425B
:104620002BDA481C4FF4801121FA00F02044844A10
:10463000C0F30A517A44A1F2FF3192ED000B814A96
:104640008DED080BCA4020EA0202C0F3130040F4CB
:104650008010C1F1140120FA01F60992002CB8BFB4
:1046600076429DED080B53EC102B9DED0C0B51EC9D
:10467000100B01F0E1FBCDE90C019DED0C0B51ECB1
:104680001A0B53EC102B00F0F3FE9FED6F0B08900C
:10469000CDE9085153EC102B9DED080B51EC100B9C
:1046A00001F0BEF941EC1B0B9FED690B53EC102B95
:1046B0009DED080B51EC100B01F0B2F99DED0C0BC8
:1046C00041EC1C0B53EC102B9DED080B51EC100B27
:1046D00001F0B2FB53EC1A2B01F0D6FA9FED5E1BF2
:1046E00053EC112B01F09CF953EC1C2B00F0C0FE95
:1046F00041EC1A0B51EC1B0B53EC1A2B00F0B8FEDB
:10470000CDE902019DED020B53EC1B2B51EC100B7C
:1047100001F092FB53EC1A2B01F0B6FA9DED020B5F
:1047200041EC1A0B53EC102B51EC100B01F078F903
:10473000CDE908014A489DED080B0521784400F0B9
:10474000D4F89DED081B51EC100B53EC112B01F02C
:1047500067F99DED021B53EC112B01F095FACDE9A1
:1047600006019DED020B53EC1A2B51EC100B01F0DE
:1047700057F953EC1A2B00F07BFE9FED3B0B41ECFD
:104780001A0B53EC102B9DED060B51EC100B01F0A6
:1047900053FB9DED060B41EC1B0B53EC102B9DEDD9
:1047A000020B51EC100B01F03BF953EC1B2B00F00A
:1047B0001BFF53EC1A2B01F03FFB9DED021B53EC4A
:1047C000112B01F039FB53EC192B01F05DFACDE907
:1047D000020101EB065001150029C8BF039015DC4A
:1047E0009DED020B324651EC100B01F0BCFCFFF7C3
:1047F00022F8042808BF00F03BF932469DED020B79
:1048000051EC100B01F0AFFCCDE902019DED020B64
:1048100051EC180B53EC102B01F002F9FFF73ABBE7
:104820000000904000000000FE822B654715973C79
:1048300000CC904000346F3F01FCFFFF0000E03FE0
:10484000481F0000FFFF0F0000000000432EE63F5E
:10485000396CA80C615C20BEEF39FAFE422EE63FAF
:10486000181E0000000000000000000000000040D2
:1048700000B52DED048BB0EE409AF0EE609A83B057
:1048800051EC190B01F00CFA41EC180B18EE100A60
:1048900018EE901A8DED008B002818BF01200843F8
:1048A00020F00040C0F17F6000F1E040C00F14D064
:1048B00019EE101A19EE900A8DED009B002918BF11
:1048C0000121084320F00040C0F17F6000F1E0408A
:1048D000C00F04BF0120FBF734FDB0EE480A03B05F
:1048E000F0EE680ABDEC048B00BD70B504462DEDFA
:1048F000028B4D1E00EBC500B0EE408AF0EE608AE0
:1049000090ED000B35F0060017D053EC182B51EC4E
:10491000100B01F085F841EC100B6D1E04EBC50087
:1049200090ED001B51EC100B53EC112B00F0A0FD8F
:1049300041EC100B35F00600E7D1022D36D0042DE6
:104940001CD0062D1CBFBDEC028B70BD53EC182B88
:1049500051EC100B01F064F894ED0A1B53EC112B91
:1049600000F086FD53EC182B01F05AF894ED081B6B
:1049700053EC112B00F07CFD41EC100B53EC182B89
:1049800051EC100B01F04CF894ED061B53EC112B7D
:1049900000F06EFD53EC182B01F042F894ED040B7F
:1049A00053EC102B00F064FD41EC100B53EC182B72
:1049B00051EC100B01F034F894ED021B53EC112B69
:1049C00000F056FD53EC182B01F02AF894ED001B73
:1049D00053EC112B00F04CFDBDEC028B41EC100BA5
:1049E00070BD0000000000009FED070B10B553ECF8
:1049F000102B9FED070B51EC100B00F0F5FD41EC77
:104A0000100B10BD000000000000000000000000BE
:104A1000000000000000F03F10B553EC112B51ECEA
:104A2000100B00F025FD41EC100B10BD0000000044
:104A30009FED050B10B553EC102B51EC100B00F053
:104A4000D3FD41EC100B10BD000000000000000081
:104A50009FED050B10B553EC102B51EC100B00F033
:104A6000DFFF41EC100B10BD0000000000000070E3
:104A70009FED050B10B553EC102B51EC100B00F013
:104A8000CFFF41EC100B10BD000000000000001033
:104A900030EE000A704730EE200A7047DFED020A60
:104AA00080EEA00A70470000000000009FED020A9F
:104AB00020EE000A704700000000001010B52DED38
:104AC000068B0020FBF7ECFC0020FBF705FD6420C3
:104AD00000F0B4F800217C20FBF716FD04217D20B6
:104AE000FBF712FD0020FBF7DBFC0020FBF7F4FCDA
:104AF0000020FBF7D5FC4B4908700020FBF7ECFCCD
:104B000049490870474800781E2803D108460078B4
:104B10000F280ED0B6217E20FBF7F6FCB62114201C
:104B2000FBF708FD322000F089F80120BDEC068B70
:104B300010BD0220FBF7B4FC00F01D0060B1B621EF
:104B40007E20FBF7E1FCB6211420FBF7F3FC3220BA
:104B500000F074F80120E9E7AC214020FBF7D4FC19
:104B60000A2000F06BF801214120FBF7CDFC0A2060
:104B700000F064F800217C20FBF7C6FC0A2000F05E
:104B80005DF804217D20FBF7BFFC0A2000F056F8F9
:104B90004120FBF785FC441C204600F0DAFE41EC86
:104BA0001A0BB0EE4A1AF0EE6A1A9FED200BFFF7CF
:104BB00037F8B0EE409AF0EE609A9FED1C0B53EC84
:104BC000102B51EC190B00F053FC41EC180B00F0CA
:104BD00093FE184908600A2000F030F801210F20E8
:104BE000FBF7A8FC0A2000F029F800211020FBF7B1
:104BF000A1FC0A2000F022F800211120FBF79AFC0A
:104C00000A2000F01BF8642000F018F803E0FCF71D
:104C1000B1FC09490860084800680028F7D0002066
:104C200084E700009805002099050020000000009E
:104C300000000040940500209C05002010B50021D4
:104C400007E04AF2104200BF131EA2F10102FBD19D
:104C5000491C8142F5D310BD82B0CDE9000121F09D
:104C6000004001909DED000B02B051EC100B70471D
:104C700000B50B4800680B49C1F802000A480068FB
:104C8000C1F8060009480068C1F80A000848006831
:104C9000C1F80E0013210348FBF7F0FB00BD000034
:104CA000C004002008010020B4040020BC0400203F
:104CB000B8040020F0EE400AF6EE001A60EEA11AE9
:104CC000B0EE611AB0EE600A10EE100A0749A1EBCF
:104CD000600000EE100A21EE002AF7EE081A42EEFC
:104CE000401A61EE801AB0EE610A7047DF59375FF3
:104CF00010B503469FED363AB0EE430A9FED343AC5
:104D0000F0EE430A9FED323AF0EE431A9FED303A4F
:104D1000B0EE431A9FED2E3AB0EE432A00202CE06D
:104D200003EB8004D4ED003A03EB800494ED004AD9
:104D3000B0EE413A03EE843AB0EE431A01EB800440
:104D400094ED003A33EE213AF0EE431A03EB80047F
:104D500094ED003A33EE203AF0EE430A03EB800480
:104D6000D4ED003A01EB800494ED004AB0EE423AF3
:104D700003EE843AB0EE432A401C9042D0DB03EEAF
:104D8000102AB8EEC33A23EE013AF0EE432A40EE81
:104D9000E02AF5EEC02AF1EE10FA04D19FED0D3AAB
:104DA000B0EE430A13E003EE102AB8EEC33A63EE06
:104DB000023A40EEE13A03EE102AB8EEC33A23EE8F
:104DC000013A00EEE03A83EE834AB0EE440A10BDA9
:104DD0000000000000401C4610B5FBF7C1FBFDF7CA
:104DE00075FA002010BD00004FF47A7191FBF0F1CC
:104DF000084A1268084B1B68D21A914208D2074928
:104E00000988491C054A118002490968024A116053
:104E1000704700005006002038060020BE03002026
:104E2000014600BF0848008900F002000028F9D0C0
:104E30000548818100BF0448008900F00100002876
:104E4000F9D00148808970470030014000B52DED50
:104E5000048B83B041EC190B00F022FF41EC180BDE
:104E600018EE100A18EE901A8DED008B002818BF6E
:104E70000120084320F00040C0F17F6000F1E040D5
:104E8000C00F14D019EE101A19EE900A8DED009B88
:104E9000002918BF0121084320F00040C0F17F60C5
:104EA00000F1E040C00F04BF0120FBF74AFA51ECCB
:104EB000180B03B0BDEC048B00BD10B500EE100A5A
:104EC0002DED028BB1EEC08A18EE100A20F00040E2
:104ED000C0F1FF40C00F0AD010EE100A20F00040D1
:104EE000C0F1FF40C00F04BF0120FBF72AFA18EE03
:104EF000100ABDEC028B10BD10B50E490E48FCF730
:104F0000ABF900210C48FCF7C1F90C480A494039BB
:104F1000C8640D204864012206490748FCF76EFA70
:104F2000012280210648FEF7ACFB01210248FCF774
:104F3000ADF910BD0080201040600240BC0600208A
:104F4000004C004010B596B0044601210846FDF71C
:104F5000B5FC0121C804FDF7C1FC01214805FDF79E
:104F6000ADFC082200214548FCF7DCFA08220121AB
:104F70004248FCF7D7FA0320149002208DF8540021
:104F80008DF8550000208DF8560001208DF857004F
:104F900014A93A48FCF77EFA3948FCF783F94FF038
:104FA0000060019037480290374803900D2005902B
:104FB0000020049006904FF4806007900020089035
:104FC00009904FF480700A904FF440300B9000200D
:104FD0000C9003200D9000200E900F9001A92848FE
:104FE000FCF72AFA26483030FCF75CF94FF00060F5
:104FF00001902448029025480390132005904020FA
:105000000490002006904FF48060079000200890E4
:1050100009900A904FF400300B9000200C90032070
:105020000D9000200E900F9001A915483030FCF72C
:1050300003FA10940020ADF84400ADF84600ADF836
:105040004800ADF84C000C20ADF84A0010A90D48FE
:10505000001FFEF76FFB01210A48001FFEF705FB4A
:1050600040210848001FFEF7F7FA012240F22441D0
:105070000448001FFEF738FB16B010BD00000240C8
:1050800040600240044C0040BC06002008010020A3
:1050900010B5002423E01348005D55281ED1601C84
:1050A00004461049085C222818D1601C0446085C9C
:1050B000012811D1641C0A46115D2244501CFEF7E0
:1050C000A3FB38B10748025D2044411C0648FBF7AA
:1050D000EBF800E0133400E000BF00BF641C0D2CAF
:1050E000D9D310BDBC0600207806002010B50D49AC
:1050F0000D48FCF7B1F800210B48FCF7C7F80D216B
:105100000948FCF7C5F9012214210748FCF776F994
:10511000012240210548FEF7B4FA01210248FCF7BC
:10512000B5F810BD008800208860024000440040AF
:1051300010B5002423E01348005D55281ED1601CE3
:1051400004461049085C222818D1601C0446085CFB
:10515000012811D1641C0A46115D2244501CFEF73F
:1051600053FB38B10748025D2044411C0648FBF759
:105170009BF800E0133400E000BF00BF641C0D2C5E
:10518000D9D310BDBC0600207806002010B50D490B
:105190000D48FCF761F800210B48FCF777F80D216A
:1051A0000948FCF775F9012214210748FCF726F994
:1051B000012240210548FEF764FA01210248FCF76C
:1051C00065F810BD008800102860024000480040CB
:1051D00010B50F490F48FCF73FF8FFF749FD0021D4
:1051E0000C48FCF753F80C480A495839C867132093
:1051F0004867012206490748FCF700F9012280218F
:105200000648FEF73EFA01210248FCF73FF810BDC0
:10521000008000185860024008010020004800404B
:1052200010B596B0044601210220FDF747FB01218D
:105230008804FDF753FB01214805FDF73FFB0722DA
:105240000A214648FCF76EF907220B214348FCF778
:1052500069F94FF44060149002208DF854008DF8E5
:10526000550000208DF8560001208DF8570014A934
:105270003A48FCF70FF93A48FCF714F84FF0006091
:10528000019038480290384803900D200590002086
:10529000049006904FF480600790002008900990D9
:1052A0004FF480700A904FF440300B9000200C9027
:1052B00003200D9000200E900F9001A92848FCF7C4
:1052C000BBF827483030FBF7EDFF4FF0006001904E
:1052D0002448029025480390132005904020049014
:1052E000002006904FF480600790002008900990FD
:1052F0000A904FF400300B9000200C9003200D908A
:1053000000200E900F9001A915483030FCF794F85A
:1053100010940020ADF84400ADF84600ADF8480008
:10532000ADF84C000C20ADF84A0010A90D48001F44
:10533000FEF700FA01210B48001FFEF796F9402105
:105340000848001FFEF788F9012240F22441054871
:10535000001FFEF7C9F916B010BD0000000402409E
:105360002860024004480040BC06002008010020DC
:1053700000B51248007855281FD1104840782228DF
:105380001BD10D210D48FEF73FFAB0B10B488078D4
:105390000B4908700948C0780A4908700A4807494B
:1053A0008968016090ED000AB5EEC00AF1EE10FACE
:1053B00003D29FED060A80ED000A00BDBC06002066
:1053C000BC030020BD030020CC040020000000002E
:1053D000B4EEE00AF1EE10FA02DDB0EE600A08E089
:1053E000B4EEC10AF1EE10FA02D2B0EE410A00E0CA
:1053F00000BF704781F00041704780F00040704767
:1054000021F00041704720F00040704721F0004239
:10541000A2F16052B2F5801F01F0004328BFD2F123
:105420007F6C0BD95FEA001C43EAC20242EB50706A
:1054300018BF704728BF20F001007047B2F5801FE9
:10544000BCBF184670474FEA410C1CF5001F02D242
:10545000084600F051BE70B500F08CFB00000089DA
:10546000FFF7F6BF4FF00040A0F580007047000046
:1054700010B591EA030F48BF83F0004300F1E484C4
:10548000841A71EB030C05D2121943EB0C03001BB9
:1054900061EB0C01DFF824E14FEA1154A4EB135C3B
:1054A0001EEA430F18BF9EEA445F73D023EA0E033F
:1054B000DCF1200E21EA045143F4801332D322FAA6
:1054C0000CFE10EB0E0023FA0CFE41EB0E01CCF1AA
:1054D000200E03FA0EFE10EB0E0051F10001B1F5A3
:1054E000801FCCF1200E32D201EB045112FA0EF2E1
:1054F000BDE8104058BF7047401C38BF5FEA420209
:1055000018BF7047002814BF20F0010041F10001CE
:105510004FEA410313F5001F38BF7047A1F1C041A6
:1055200000F076BB012A43EB0302ACF1200CDCF166
:105530001F0E32BF4FF0000E23FA0CF310EB0300E6
:1055400041EB0451B4EB115FD0D0A1EB045101F554
:10555000801149085FEA300001EB04510ED350F18D
:10556000000038BF12FA0EFE08D1BDE81040C9E7AE
:10557000401C38BF5FEA4202CAD1C3E7BDE8104011
:105580004FEA410313F5001F38BF7047A1F1C04136
:1055900000F03EBB9EEA445F08D011EA5E0FBDE812
:1055A000104004BF01F0004100207047BDE81040EA
:1055B00070B500F0DFFA00BF64FBBE3E0000E0FF04
:1055C00002494FF0000000F09CBD00BF0000F87FD2
:1055D000491058BFC1F140415B1058BFC3F140436F
:1055E0008B42EFF3008070472DE9C04130B4DFF803
:1055F000A0C23CEA111418BF3CEA131400F0EC807E
:1056000081EA03051CEA111444EAD57418BF1CEAA8
:10561000131500F0C780A4EB05044FF0004545EAE0
:10562000C12145EAC32341EA505143EA525304F1F0
:105630007F74994204F500344FEAC0204FEAC22239
:1056400008BF904200F09C804FEA13650FF24016AD
:10565000765D4FEA134506FB05F7C7F1807706FB39
:1056600007F74FEAD737A7FB03687642C8F58038BB
:10567000A7FB06CE38BFA8F1010807FB08E64FF0EC
:10568000000EA6FB028CE6FB03CEDCF1000CCEF193
:10569000004E38BFAEF1010EA6FB0C584FF00007CC
:1056A0004FF00005E6FB0E87A1FB08C6A0FB07CE66
:1056B00016EB0E0645F10005E1FB076515F1E04E1E
:1056C0007EBFA4F580345FEA46066D4116F180077F
:1056D00045F100054FEA17274FEA066647EA0567D6
:1056E000A6F1DE46B6F1805F4FEA15251FD9384690
:1056F00024F0010C05EBC471BCF1FE6F01EB0C1141
:1057000002D8F0BCBDE8008124425CBF01F5801ED8
:105710009EEAC47F02D4F0BCBDE80081244238D4A4
:10572000F0BCA1F1C041BDE8004100F071BA4FEA00
:10573000D22242EA43524FEAD323A7FB02864FEA22
:10574000D02040EA415007FB03661EEA0E0F4FEAE5
:10575000D12105FB026658BFA6EB0056B6EB0056FA
:105760004FEA520E4EEAC37E18EB0E0E56EB530E66
:10577000BDD518EB02085E417F1C55F10005B6E768
:105780004FF480154FF000074FF000064FF000086F
:10579000ADE7F0BC4FF0000001F1C04101F0004165
:1057A000BDE8008111EA0C1F0CEA131500D00CE0D3
:1057B00013EA0C1F00F025804FF00000F0BC81EAD6
:1057C000030101F00041BDE80081F0BCBDE80041EB
:1057D00081EA030100F01CBAF0BCBDE8004170B5DD
:1057E00000F0C8F9097EFC3E00F007B881EA030129
:1057F0004FF0000001F00041704781EA030100F022
:1058000007BAF0BCBDE800414FF0000021497047E5
:10581000FFFDFBF9F7F5F4F2F0EEEDEBE9E8E6E475
:10582000E3E1E0DEDDDBDAD8D7D5D4D3D1D0CFCDFC
:10583000CCCBCAC8C7C6C5C4C2C1C0BFBEBDBCBB35
:10584000BAB9B8B7B6B5B4B3B2B1B0AFAEADACAB30
:10585000AAA9A8A8A7A6A5A4A3A3A2A1A09F9F9E0A
:105860009D9C9C9B9A9999989797969595949393BC
:10587000929191908F8F8E8E8D8C8C8B8B8A898953
:1058800088888787868585848483838282818180D6
:105890000000FF070000F87F4FEA41034FEA53532F
:1058A000A3F58063D3F11E03C8BFD3F1210C0CDD37
:1058B0004FF0004242EAC12242EA505232FA03FC5F
:1058C0008CEAE17CACEBE1707047102BC4BF002088
:1058D000704703F5787CBCF1FF3F04D06FF00042C5
:1058E00082EA2100704770B500F044F949922480A3
:1058F00000207047F2E700004FEA1153A3F58063E0
:10590000D3F11E03A8BFD3F1200C08DB4FF00042F7
:1059100042EAC12252EA505232FA03F07047094279
:105920000BD4102BC4BF0020704703F5787CBCF16A
:10593000FF3F05D04FF0FF3070474FF00000704739
:1059400070B500F017F900BF49922480002070471D
:10595000F0E710F0004248BF4042B0FA80F310FA7E
:1059600003F10AD0C3F11D0303F580634FEA4150F0
:1059700002EB035202EBD12170474FF00000704759
:10598000B0FA80F310FA03F10AD0C3F11D0303F556
:1059900080634FEA41504FEA035202EBD121704736
:1059A0004FF000007047000051EA030C17D41CF5BB
:1059B000801F58BFBCF5801F00F10680994218BFB8
:1059C000704708BF9042704707D711F5801F58BF36
:1059D00013F5801F19D499427047894270471CF50E
:1059E000801F08D5BCF5801FF7D58B4218BF7047C4
:1059F00008BF824270474FF4001C1CEB410F38BFB8
:105A00001CEB430F01D28B42704770B500F0B2F827
:105A1000922449004FF000514FF08053FFF7D8BD5A
:105A2000DFF848C170B51CEA111E1EBF1CEA131531
:105A30009EEA0C0F95EA0C0F00F06F8081EA0304D8
:105A400023EA4C134EEAD47E21EA4C1141F4801132
:105A500043F48013AE44A1FB024CA0FB0365AEF1FE
:105A60007F7E361955EB0C05A1FB034C4CF100036E
:105A7000A0FB021C16EB0C06654153F10003094222
:105A800018BF46F0010613F4007F0BD14FEA033133
:105A90004FEA0530340341EA155140EA16506FF0E1
:105AA00003020AE04FEAC3214FEAC520F40241EAAB
:105AB000555140EA56506FF0020202EB2E4201EBC4
:105AC000025585EACE710AD05FEA440C18BF24F073
:105AD000004450F1000041F1000120EAD47040F28E
