:020000040800F2
:100000008848012069020008710200087302000894
:10001000750200087702000879020008000000005D
:100020000000000000000000000000007B0200084B
:100030007D020008000000007F020008913E0008D9
:10004000830200088302000883020008830200087C
:10005000830200088302000883020008830200086C
:10006000830200088302000883020008830200085C
:10007000830200088302000883020008830200084C
:10008000830200088302000883020008830200083C
:10009000A907000883020008830200088302000801
:1000A000830200088302000883020008830200081C
:1000B000830200088302000883020008830200080C
:1000C00083020008830200088302000883020008FC
:1000D0008302000883020008830200084D400008E4
:1000E00083020008830200088302000883020008DC
:1000F00083020008830200088302000883020008CC
:1001000083020008830200088302000883020008BB
:1001100083020008830200088302000883020008AB
:10012000830200088302000883020008830200089B
:10013000830200088302000883020008830200088B
:100140009109000883020008830200088302000866
:10015000830200088302000883020008830200086B
:10016000830200088302000883020008830200085B
:10017000830200088302000883020008830200084B
:10018000830200088302000800F002F800F05CF827
:100190000AA090E8000C82448344AAF10107DA45E2
:1001A00001D100F051F8AFF2090EBAE80F0013F0D8
:1001B000010F18BFFB1A43F0010318473873000002
:1001C000587300000A444FF0000C10F8013B13F084
:1001D000070408BF10F8014B1D1108BF10F8015BA0
:1001E000641E05D010F8016B641E01F8016BF9D193
:1001F00013F0080F1EBF10F8014BAD1C0C1B09D1EA
:100200006D1E58BF01F801CBFAD505E014F8016B5B
:1002100001F8016B6D1EF9D59142D6D370470000ED
:100220000023002400250026103A28BF78C1FBD8FF
:10023000520728BF30C148BF0B6070471FB506F09A
:1002400042FE1FBD10B510BD00F0BCF81146FFF70F
:10025000F5FF05F09DFE00F0DAF803B4FFF7F2FFBA
:1002600003BC00F0DDF8000009488047094800475A
:10027000FEE7FEE7FEE7FEE7FEE7FEE7FEE7FEE756
:10028000FEE7FEE704480549054A064B70470000B3
:10029000A13E000889010008884201208848012009
:1002A0008844012088440120032A40F2308010F065
:1002B000030C00F0158011F8013BBCF1020F624401
:1002C00098BF11F801CB00F8013B38BF11F8013B92
:1002D000A2F1040298BF00F801CB38BF00F8013B3F
:1002E00011F0030300F03380083AC0F0088051F8A1
:1002F000043B083A51F804CBA0E80810F5E7121DBA
:100300005CBF51F8043B40F8043BAFF30080D207D8
:1003100024BF11F8013B11F801CB48BF11F8012BA4
:1003200024BF00F8013B00F801CB48BF00F8012BC7
:10033000704770477047704710B500F03BF8006891
:1003400010BD10B5044600F035F8046010BD10B5BE
:10035000203AC0F00B80B1E81850203AA0E81850BD
:10036000B1E81850A0E81850BFF4F5AF5FEA027C7E
:1003700024BFB1E81850A0E8185044BF18C918C0ED
:10038000BDE810405FEA827C24BF51F8043B40F88E
:10039000043B08BF7047D20728BF31F8023B48BF73
:1003A00011F8012B28BF20F8023B48BF00F8012BB1
:1003B0007047000000487047244201200048704701
:1003C000244201207546FFF7F9FFAE460500694655
:1003D000534620F00700854618B020B5FFF752FFBE
:1003E000BDE820404FF000064FF000074FF0000836
:1003F0004FF0000B21F00701AC46ACE8C009ACE8B7
:10040000C009ACE8C009ACE8C0098D46704710B51A
:100410000446AFF300802046BDE81040FFF71DBF43
:1004200001491820ABBEFEE726000200704710B558
:1004300002684260016042688A1A826043695A42D7
:1004400002EBD2748368B3EB640F04DA4369826809
:100450001A4482600AE0426902EBD2748368B3EB0B
:10046000640F03DD43698268D21A8260D0ED060A08
:1004700090ED020AB8EEC00A30EE800A80ED060A5E
:1004800010BD0000F0EE400AC0ED000A90ED010A38
:1004900090ED001A30EE410A9FED231AB4EEC10A26
:1004A000F1EE10FA10DD90ED000A90ED011A30EE39
:1004B000410A9FED1E1A30EE010A90ED021A30EE4D
:1004C000010A80ED020A29E090ED000A90ED011A80
:1004D00030EE410A9FED141AB4EEC10AF1EE10FAA3
:1004E00010DD90ED000A90ED011A30EE410A9FED0B
:1004F0000F1A30EE410A90ED021A30EE010A80ED3B
:10050000020A0BE090ED000A90ED011A30EE410A6C
:1005100090ED021A30EE010A80ED020AC0ED010AE8
:1005200090ED020A70470000000034430000B4431D
:1005300070B505460C4600260DB1022C00D870BDE2
:10054000611EFF22284601F03DFF0646601E2E5424
:1005500000BFF4E770B50446002510210A4801F0F9
:10056000EAFCFF2141EA042141F4004005F018FDB6
:10057000002005F015FD050A1021034801F0DDFCFF
:1005800000BF284670BD00000008024070B5044658
:100590002021094801F0CFFC002141EA042141F467
:1005A000004005F0FDFCC5B22021034801F0C5FC68
:1005B00000BF284670BD00000008024070B5044628
:1005C0000D461021074801F0B6FC45EA0421C1F3AD
:1005D0000E0005F0E5FC1021024801F0AEFC00BF62
:1005E00070BD00000008024070B504460D46202191
:1005F000074801F0A0FC45EA0421C1F30E0005F014
:10060000CFFC2021024801F098FC00BF70BD000023
:100610000008024010B503F093FC00F00DF800F064
:10062000E3F84FF4E12005F027FD02F000FE03F0AF
:1006300087F805F033FB10BD00B589B001210846ED
:1006400002F046FF0121480602F052FF4FF4C0506D
:10065000009002208DF804008DF8050000208DF830
:10066000060001208DF807006946274801F0F8FBD5
:1006700009220B21244801F03BFC09220C212248CD
:1006800001F036FC00208DF81E0001208DF81F00BF
:100690008DF8200000208DF821008DF82200012027
:1006A0008DF8230000208DF81A008DF81B0008201B
:1006B0008DF81C0003208DF81D00ADF8180006A968
:1006C000124800F0F6FA00208DF812008DF81300A1
:1006D00001208DF814000020ADF80800ADF80A00E4
:1006E000ADF80C00ADF80E00ADF8100001208DF84B
:1006F000150002A800F0C0F901220221034800F011
:10070000CFFA09B000BD00000000024000640040C4
:1007100010B51E480068A0F2012010B1012832D1A6
:1007200018E01A4801F060FE044621461848FFF719
:100730007EFE164801F05EFE00EE100AB8EEC00A1A
:10074000144880ED010A114801F069FE124880ED5D
:10075000000A19E00D4801F047FE044621460F4803
:10076000FFF765FE094801F045FE00EE100AB8EEFD
:10077000C00A0B4880ED010A044801F050FE094808
:1007800080ED000A00E000BF00BF10BD0C07002094
:10079000F001002028020020E00100200C020020CF
:1007A00068020020E401002010B502210B4800F08F
:1007B000E7F988B10221094800F00AF9084A002146
:1007C000064800F000FBFFF7A3FF0648B0F87400EE
:1007D000401C0449A1F8740010BD000000640040F2
:1007E0000C070020A008002000B589B001210220DC
:1007F00002F06EFE0121480602F07AFE0121880611
:1008000002F076FE4FF44050009002208DF8040074
:100810008DF8050000208DF8060001208DF80700F6
:100820006946274801F01CFB09220C21244801F0ED
:100830005FFB09220D21224801F05AFB00208DF8B0
:100840001E0001208DF81F008DF8200000208DF87B
:1008500021008DF8220001208DF8230000208DF862
:100860001A008DF81B0008208DF81C0003208DF85D
:100870001D00ADF8180006A9124800F01AFA0E2063
:100880008DF8120000208DF8130001208DF814005F
:100890000020ADF80800ADF80A00ADF80C00ADF886
:1008A0000E00ADF8100001208DF8150002A800F030
:1008B000E3F801220221034800F0F2F909B000BD7B
:1008C000000402400068004010B528480068A0F20B
:1008D000052050B3022846D1244801F085FD044686
:1008E00021462348FFF7A3FD2148008800B2A0F568
:1008F00080500A3800EE100AB8EEC00ADFED1D0A7B
:1009000020EE200ADFED1C0A80EE201A1B4880ED45
:10091000001A164801F06EFD404200EE100AB8EED3
:10092000C00A174880ED000A1EE0104801F05CFD87
:10093000044621461348FFF77AFD124890ED060A57
:10094000114880ED010A094801F054FD00EE100A3B
:10095000B8EEC00A0B48D0ED040A80EE201A0B480E
:1009600080ED011A00E000BF00BF10BD200700208D
:10097000780300200000B44300000046600300201C
:1009800064030020B0020020CC02002010030020ED
:1009900010B502210B4800F0F3F888B10221094894
:1009A00000F016F8084A0021064800F00CFAFFF79C
:1009B0008BFF0648B0F87800401C0449A1F8780085
:1009C00010BD00000068004020070020A0080020A3
:1009D000B1F5007F3AD00FDC202928D006DC0129B0
:1009E0001CD004291DD0082940D11DE0402921D068
:1009F000B1F5807F3AD126E0B1F5004F31D006DC69
:100A0000B1F5806F25D0B1F5006F2FD124E0B1F59D
:100A1000803F12D0B1F5003F28D111E0154A826025
:100A200025E00822C26022E01022C2601FE00822F6
:100A300002611CE01022026119E00822426016E007
:100A40001022426013E00422426010E0042242605F
:100A50000DE0042242600AE000228261042242602A
:100A600005E0002282610422426000E000BF00BF76
:100A7000704700000101010010B50021837A0122B6
:100A800002FA03F13D4A126842F001023B4B1A6040
:100A90003A4A1C3212688A43384B1C331A60027B74
:100AA000CAB9364A0C3212688A43344B0C331A6086
:100AB0004288C38842EA0343304A4032847A42F88B
:100AC00034300288838842EA03432C4A4032847AD5
:100AD00002EBC4025360027B012A19D1274A0C326F
:100AE00012680A43254B0C331A604288038842EA95
:100AF0000343224A4032847A42F83430C2888388E1
:100B000042EA03431D4A4032847A02EBC402536036
:100B1000C27A3AB9194A121D12688A43174B1B1D33
:100B20001A6006E0154A121D12680A43134B1B1D7A
:100B30001A60028932B9114A143212688A430F4B83
:100B400014331A600289012A06D10C4A1432126841
:100B50000A430A4B14331A60427B012A06D1074A22
:100B60001C3212680A43054B1C331A60034A126890
:100B700022F00102014B1A6010BD00000066004027
:100B800070B504460D46002660692840002871D0E3
:100B9000B5F5807F5CD010DC082D35D006DC012D4A
:100BA00020D0022D24D0042D72D127E0102D31D079
:100BB000202D35D0402D6BD138E0B5F5004F60D0F9
:100BC00009DCB5F5007F49D0B5F5806F4CD0B5F59F
:100BD000006F5DD14FE0B5F5803F2DD0B5F5003FFA
:100BE00056D12FE0A0682D4900F014FD064651E0D3
:100BF000E068032100F00EFD06464BE0E0680821A6
:100C000000F008FD064645E0E068102100F002FD16
:100C100006463FE02069032100F0FCFC064639E06F
:100C20002069082100F0F6FC064633E02069102117
:100C300000F0F0FC06462DE06068082100F0EAFCB8
:100C4000064627E06068102100F0E4FC064621E03B
:100C5000A069012100F0DEFC06461BE0A06902212C
:100C600000F0D8FC064615E0A069042100F0D2FC93
:100C700006460FE00FE0A069702100F0CBFC0646AD
:100C800008E06068042100F0C5FC064602E0FFE7CA
:100C9000002600BF00E00026304670BD01010100C3
:100CA0001AB143690B43436102E043698B434361DB
:100CB000704730B5024600200023146824F0020477
:100CC0001460146844F00104146000E05B1C546874
:100CD00004F001041CB94FF6FF74A342F6D1546826
:100CE00004F001040CB900206CE08C79012C04D1D3
:100CF000146844F08004146003E0146824F0800455
:100D00001460CC79012C04D1146844F040041460C0
:100D100003E0146824F0400414600C7A012C04D120
:100D2000146844F02004146003E0146824F02004E4
:100D300014604C7A012C04D1146844F0100414603F
:100D400003E0146824F0100414608C7A012C04D1A0
:100D5000146844F00804146003E0146824F00804E4
:100D60001460CC7A012C04D1146844F0040414609B
:100D700003E0146824F0040414608C78A407CD7890
:100D800044EA05640D7944EA05444D7944EA055482
:100D90000D886D1E2C43D461146824F00104146086
:100DA000002300E05B1C546804F001041CB14FF602
:100DB000FF74A342F6D1546804F001040CB1002082
:100DC00000E0012030BD10B500F5D87303EB01132E
:100DD0001B6803F004031372137A53B900F5D87338
:100DE00003EB01131B6840F2FF7404EA53531360D2
:100DF00009E000F5D87303EB01131B686FF0604442
:100E000004EAD303536000F5D87303EB01131B68A6
:100E100003F00203537200F5D87303EB01135B6810
:100E200003F00F03937200F5D87303EB01135B68B3
:100E30001B0AD37400F5D87303EB01139B68D372BC
:100E400000F5D87303EB01139B681C0A147300F5BB
:100E5000D87303EB01139B681C0C547300F5D87313
:100E600003EB01139B681B0E937300F5D87303EB20
:100E70000113DB68D37300F5D87303EB0113DB6850
:100E80001C0A147400F5D87303EB0113DB681C0C07
:100E9000547400F5D87303EB0113DB681B0E9374D5
:100EA00021B9C36843F02003C36003E0036943F042
:100EB0002003036110BD2DE9F04385B081460E4645
:100EC00014461D46DDE90C7800208DF808000096D8
:100ED00008208DF80A0000208DF80900200A8DF8FE
:100EE0000B00E1B28DF80C10290A8DF80D10E9B253
:100EF0008DF80E10390A8DF80F10F9B28DF8101018
:100F00004FEA18218DF8111008F0FF018DF812102A
:100F10006946484600F003F805B0BDE8F08310B517
:100F200002460020936803F08063B3F1806F00D124
:100F300010E0936803F00063B3F1006F01D101206A
:100F400008E0936803F08053B3F1805F01D1022081
:100F500000E00420042874D002F5C07303EB0013F2
:100F60001B6803F0010402F5C07303EB00131C605F
:100F70000B7A7BB94B7A0C8843EA445302F5C07470
:100F800004EB00142468234302F5C07404EB00143E
:100F9000236010E00B7A4C6843EAC4034C7A234385
:100FA00002F5C07404EB00142468234302F5C074F6
:100FB00004EB001423608B7A03F00F038B7202F5AD
:100FC000C07303EB00135B6823F00F0402F5C073DA
:100FD00003EB00135C6002F5C07303EB00135B6866
:100FE0008C7A234302F5C07404EB001463608B7B9E
:100FF0001C064B7B44EA03440B7B44EA0323CC7A74
:10100000234302F5C07404EB0014A3608B7C1C0620
:101010004B7C44EA03440B7C44EA0323CC7B23430C
:1010200002F5C07404EB0014E36002F5C07303EB37
:1010300000131B6843F0010402F5C07303EB0013B7
:101040001C6010BD10B52DED068B044694ED000A12
:10105000D4ED010A30EE600A84ED080A94ED0A0A24
:10106000D4ED080A30EE200A84ED0A0AD4ED0E1AF7
:10107000B0EE611AD4ED0E1AF1EE611AF0EE610ACB
:10108000D4ED0A1AB0EE610A00F0CDFA84ED0A0A36
:1010900094ED030AD4ED0A0A20EE200A84ED060A34
:1010A000D4ED021A94ED082A61EE821AB0EE610ABC
:1010B000D4ED0D1AB0EE611AD4ED0D1AF1EE611AED
:1010C000F0EE610A00F0AFFA84ED050AD4ED081ADB
:1010D00094ED092A71EEC21A94ED042A61EE821A87
:1010E000B0EE610AD4ED0F1AB0EE611AD4ED0F1A0A
:1010F000F1EE611AF0EE610A00F095FA84ED070A4C
:1011000094ED100A10EE101A084605F06BFE41EC43
:10111000180B94ED080A10EE101A084605F062FE4E
:1011200041EC1A0BB0EE4A0AF0EE6A0A03F0E8FA54
:10113000B0EE409AF0EE609A53EC182B51EC190B7C
:1011400005F01EFB03D29FED140A84ED0A0A94ED0C
:10115000050AD4ED060A30EE200AD4ED070A30EE77
:10116000200A84ED0B0A94ED080A84ED090AD4EDF7
:101170000C1AB0EE611AD4ED0C1AF1EE611AF0EE11
:10118000610AD4ED0B1AB0EE610A00F04CFA84ED5E
:101190000B0ABDEC068B10BD0000000010B52DED54
:1011A000068B044694ED000AD4ED010A30EE600A85
:1011B00084ED080A94ED100A10EE101A084605F0A6
:1011C00011FE41EC180B94ED080A10EE101A0846B7
:1011D00005F008FE41EC1A0BB0EE4A0AF0EE6A0A7E
:1011E00003F08EFAB0EE409AF0EE609A53EC182BB2
:1011F00051EC190B05F0C4FA07D294ED0A0AD4EDAC
:10120000080A30EE200A84ED0A0AD4ED0E1AB0EE78
:10121000611AD4ED0E1AF1EE611AF0EE610AD4ED06
:101220000A1AB0EE610A00F0FEF984ED0A0A94EDA4
:10123000030AD4ED0A0A20EE200A84ED060AD4ED52
:10124000021A94ED082A61EE821AB0EE610AD4ED1A
:101250000D1AB0EE611AD4ED0D1AF1EE611AF0EE2E
:10126000610A00F0E0F984ED050AD4ED081A94ED66
:10127000092A71EEC21A94ED042A61EE821AB0EEC8
:10128000610AD4ED0F1AB0EE611AD4ED0F1AF1EE27
:10129000611AF0EE610A00F0C6F984ED070A94EDD8
:1012A000050AD4ED060A30EE200AD4ED070A30EE26
:1012B000200A84ED0B0A94ED080A84ED090AD4EDA6
:1012C0000C1AB0EE611AD4ED0C1AF1EE611AF0EEC0
:1012D000610AD4ED0B1AB0EE610A00F0A4F984EDB6
:1012E0000B0ABDEC068B10BD10B52DED028B04462C
:1012F00094ED000A84ED0F0A04F1240000F040F898
:1013000094ED090AD4ED010A30EE600A84ED020A78
:1013100094ED050AF7EE000A80EE808A94ED081A33
:10132000F0EE410A94ED021AB0EE410A02F0C9F95A
:10133000F0EE400A94ED0A0A94ED061A01EE200A36
:10134000D4ED070A94ED021A00EE810A28EE000A95
:1013500084ED030AD4ED041AB0EE611AD4ED041A38
:10136000F1EE611AF0EE610AD4ED031AB0EE610AF3
:1013700000F059F984ED030ABDEC028B10BD0000AA
:1013800030B52DED108B83B004469FED7B0AB0EE97
:1013900040FA94ED000AD4ED060A30EE600A84EDBE
:1013A000020A94ED030AD4ED040A20EE200AB0EEFE
:1013B000408A94ED040A20EE080A10EE105A94EDCB
:1013C000020AD4ED040A94ED011A00EE810AF0EE4F
:1013D000408A18EE900A05F005FD41EC1E0BB0EEB8
:1013E0004E0AF0EE6E0A03F08BF9B0EE40DAF0EE42
:1013F00060DA94ED030AF2EE000A20EE200A10EE05
:10140000101A084605F0EEFC53EC1D2BCDE9000147
:101410009DED000B51EC100B05F0EEF941EC1B0BB0
:1014200028EE080A10EE101A084605F0DBFC41EC25
:101430001C0B53EC1B2B04F007FF41EC1A0BB0EE16
:101440004A0AF0EE6A0A03F08FFFB0EE409AF0EE1F
:10145000609A51EC190B04F0C5FE0290284605F085
:10146000C1FC41EC190B18EE900A05F0BBFC41ECF5
:101470001B0BB0EE4B0AF0EE6B0A03F041F9B0EE35
:1014800040AAF0EE60AA53EC192B51EC1A0B05F0B0
:10149000B1FA18D2B0EE680A02F0E8FC00EE100AC9
:1014A000F8EEC00A9DED020A30EE480A60EE800AAE
:1014B000B0EE001A80EE810AD4ED010A30EE200A67
:1014C000B0EE40FA09E0D4ED040A88EEA00AD4EDAB
:1014D000010A30EE200AB0EE40FA18EE100A05F0CC
:1014E00081FC41EC190B1FEE100A05F07BFC41EC6E
:1014F0001B0BB0EE4B0AF0EE6B0A03F001F9B0EEF5
:1015000040AAF0EE60AA53EC192B51EC1A0B05F02F
:1015100071FA10D2B0EE4F0A02F0A8FC00EE100AE9
:10152000B8EEC00AD4ED030ABFEE001A60EE810ADD
:1015300060EE20FA09E094ED030AFFEE000A20EEC7
:10154000200A20EE0F0AC0EE08FA94ED000AD4ED4E
:10155000050A94ED011A00EE810A84ED000A94ED6B
:10156000010AD4ED050A00EEAF0A84ED010A03B0CA
:10157000BDEC108B30BD00000000000010B51D4810
:10158000406E1D49C1F80A001C480068C1F80E00F1
:101590001848806EC1F80200194890ED000AB1EEBB
:1015A000400A10EE100AC1F8060016480078887448
:1015B0001448006830B10020124908604FF4807070
:1015C0001149488314210C48FEF7B2FF0F49104817
:1015D00000F03EF800210E4800F054F806480C498F
:1015E000583948661420C8650121094800F04AF8B6
:1015F00010BD00004804002010010020D805002084
:10160000E005002074060020000002400080001861
:10161000586002400246002002EA01030BB101209B
:1016200000E000207047F0EE401AF4EEE01AF1EE10
:1016300010FA02D2B0EE600A09E0F4EEC11AF1EE3F
:1016400010FA02DDB0EE410A01E0B0EE610A704727
:101650000246094B9A4201D2084801E00648103878
:1016600001F000531BB1064B0B40C36002E0044B7A
:101670000B4083607047000010640240006002402D
:101680007D0F7D0F21B1026842F00102026003E08C
:10169000026822F00102026070470000016821F038
:1016A000010101600021016041608160C160016150
:1016B000212141614A49884204D13D21484A103ADA
:1016C00091608CE046491831884205D14FF474612D
:1016D000434A103A916082E041493031884205D155
:1016E0004FF474113E4A103A916078E03C49483119
:1016F000884205D14FF07461394A103A91606EE02A
:1017000037496031884204D13649354A103AD160B0
:1017100065E033497831884204D13349304A103A80
:10172000D1605CE02E499031884204D12F492C4A87
:10173000103AD16053E02A49A831884205D14FF0D0
:101740003D51274A103AD16049E02949884204D1E5
:101750003D21274A083A116041E025491831884265
:1017600005D14FF47461224A083A116037E02049EC
:101770003031884205D14FF474111D4A083A116086
:101780002DE01B494831884205D14FF07461184A59
:10179000083A116023E016496031884204D11149AA
:1017A000134A121F11601AE011497831884204D19E
:1017B0000D490F4A121F116011E00D499031884206
:1017C00004D10A490A4A121F116008E00849A831E9
:1017D000884204D14FF03D51054A121F11607047F5
:1017E000106002403D000020400F002000003D201E
:1017F00010640240014600200A6802F001020AB1AA
:10180000012000E0002070470146486880B2704720
:1018100010B500220268134B1A40CC680B682343B2
:101820004C6923438C692343CC6923430C6A2343CB
:101830004C6A23438C6A23434C6B23438C6B2343B6
:101840001A430260426922F00702D1E90B342343B4
:101850001A4342610B6943604B6883608B68C360C5
:1018600010BD00003F801CF0B4EEE00AF1EE10FA6B
:1018700001D2002007E0B4EEE00AF1EE10FA01DD3B
:10188000012000E0022098B9B4EEE00AF1EE10FA6F
:1018900002DBB0EE600A20E070EE011AB0EE610AE1
:1018A000B4EEE00AF1EE10FA17DBB0EE600A14E0D5
:1018B000012812D1B4EEE00AF1EE10FA02D8B0EE2F
:1018C000600A0AE070EE411AB0EE610AB4EEE00A76
:1018D000F1EE10FA01D8B0EE600A704700B52DEDB8
:1018E000048B83B0F0EE408AB0EE609AFE48007838
:1018F00000EE100AB8EE400AFC48D0ED000AB4EE43
:10190000E00AF1EE10FA20D2D0ED000AF648007895
:1019100000EE100AB8EE400A30EEC00ABCEEC00A73
:1019200010EE100AF2490870F2480068F2490860A7
:101930000020F0490860ED4890ED000AEF4880ED86
:10194000000A0120EE49087094E0E748007800EEB4
:10195000100AB8EE400AE548D0ED000AB4EEE00AFD
:10196000F1EE10FA20DDD0ED000ADF48007800EE3D
:10197000100AB8EE400A30EEC00ABCEEC00A10EE03
:10198000100ADB490870DB480068DB49086000206A
:10199000D8490860D54890ED000AD84880ED000A83
:1019A0000020D749087065E0D2480068401CD14942
:1019B0000860D348007870B3CC4890ED000AF7EE89
:1019C000000A30EE200ACD48D0ED000AB4EEE00A5D
:1019D000F1EE10FA14DDC648007800EE100AF8EEB9
:1019E000400AC54890ED000AB8EE401A80EE810A20
:1019F000C248D0ED000A30EE200A80ED000A39E03E
:101A0000BA4890ED000ADFEDBF0A30EE200ABB486D
:101A100080ED000A2EE0FFE7B44890ED000AF7EEF3
:101A2000000A30EE600AB548D0ED000AB4EEE00AD4
:101A3000F1EE10FA14D2AE48007800EE100AF8EE7B
:101A4000400AAD4890ED000AB8EE400A80EE801AD8
:101A5000AA4890ED000A30EE410A80ED000A09E044
:101A6000A24890ED000ADFEDA70A30EE600AA34815
:101A700080ED000AA448007800EE100AB8EE400A93
:101A8000A248D0ED000AB4EEE00AF1EE10FA20D23E
:101A9000D0ED000A9C48007800EE100AB8EE400A2B
:101AA00030EEC00ABCEEC00A10EE100A9849087069
:101AB0009848006898490860002096490860934853
:101AC00090ED000A954880ED000A012094490870C5
:101AD00094E08D48007800EE100AB8EE400A8B487A
:101AE000D0ED000AB4EEE00AF1EE10FA20DDD0ED00
:101AF000000A8548007800EE100AB8EE400A30EE81
:101B0000C00ABCEEC00A10EE100A81490870814874
:101B100000688149086000207E4908607B4890ED9C
:101B2000000A7E4880ED000A00207D49087065E0CB
:101B300078480068401C774908607948007870B39D
:101B4000724890ED000AF7EE000A30EE200A734862
:101B5000D0ED000AB4EEE00AF1EE10FA14DD6C48A4
:101B6000007800EE100AF8EE400A6B4890ED000A8B
:101B7000B8EE400A80EE801A684890ED000A31EE17
:101B8000000A80ED000A39E0604890ED000ADFEDC0
:101B90005D0A30EE200A614880ED000A2EE0FFE782
:101BA0005A4890ED000AF7EE000A30EE600A5B48F2
:101BB000D0ED000AB4EEE00AF1EE10FA14D2544867
:101BC000007800EE100AF8EE400A534890ED000A43
:101BD000B8EE400A80EE801A504890ED000A30EED0
:101BE000410A80ED000A09E0484890ED000ADFED67
:101BF000450A30EE600A494880ED000A49480078FD
:101C000001286FD14848007801281FD1474890ED3E
:101C1000010ADFED470AB4EEE00AF1EE10FA0ADD40
:101C20004448006844490860002042490860022096
:101C30003D4908704FE09FED410A3C4880ED030AA2
:101C40003C480068401C3B49086044E03648007846
:101C500002281ED1354890ED010ADFED390AB4EEB5
:101C6000E00AF1EE10FA09D23248006835490860FE
:101C70000020304908602C4908702CE09FED320AA2
:101C80002A4880ED030A2B480068401C2949086057
:101C900021E0294890ED000AB8EE400ADFED2B0A5A
:101CA000C0EE809A274890ED000AB8EE400ADFEDBA
:101CB000280A80EE808A39EE880ADFED200A80EE5D
:101CC000801A244880ED001A90ED000A20EE080AE0
:101CD000214880ED000A0020009001901F4890EDFF
:101CE000030A3DE04FE000000E050020E001002067
:101CF0000C050020140500201C050020E801002030
:101D000010050020CDCC8C3F0F050020E401002001
:101D10000D0500201805002020050020EC01002002
:101D200011050020EE0400200405002028020020F8
:101D30000080BB4508050020F80400200000FA439D
:101D40000000C842FC04002000000000001BB74A4D
:101D5000C00DB44AF0040020F40400206802002002
:101D6000BDEEC00A10EE100A03B2334890ED030A2C
:101D7000BDEEC00A10EE100A02B24FF400712F48F7
:101D8000FFF799F842E02E48007802282ED1002073
:101D90002C49086001202C490870B1EE680A2648D9
:101DA00080ED000A294880ED009A2348FFF79CFA4D
:101DB0002648FFF799FA002000900190234890ED03
:101DC000030ABDEEC00A10EE100A8B3003B21A48A7
:101DD00090ED030ABDEEC00A10EE100A8B3802B275
:101DE0004FF400711548FFF766F80FE00020154921
:101DF0000860012014490870002000900346024644
:101E00004FF4007101900D48FFF755F8104890ED20
:101E1000000ABCEEC00A10EE100A0E4908700E4807
:101E200090ED000ABCEEC00A10EE100A0B490870D3
:101E300003B0BDEC048B00BD28020020006400400C
:101E4000EE040020080500200405002068020020A0
:101E5000E00100200E050020E40100200F05002015
:101E6000F0B50A4600210023002400BF3DE0012513
:101E700005FA01F3156805EA03049C4234D10568AC
:101E80004F000326BE40B543056015794E00B540AE
:101E90000668354305601579012D02D01579022DAC
:101EA00016D185684F000326BE40B543856055793D
:101EB0004E00B540866835438560456801268E40F2
:101EC000B5434560456896798E40B6B23543456066
:101ED000C5684F000326BE40B543C560D5794E00A6
:101EE000B540C6683543C560491C1029BFD3F0BD55
:101EF000F0B5002300244D07ED0E02FA05F3CE10D5
:101F000000F1200555F826504E07F70E0F26BE406B
:101F1000B543CF1000F1200646F82750CE1000F14F
:101F2000200555F8265045EA0304CE1000F120059F
:101F300045F82640F0BD418370470183704700009B
:101F400010B52DED028B78480088401C764908803A
:101F50000846008840F2DC51884202DD00207249C8
:101F6000088000F009F97148008800285ED07048A8
:101F700090ED000A6D48008841F28831081A6D49D9
:101F800001EB800080ED000A6B4890ED000A684884
:101F9000D0ED000A30EE200A674880ED000A67485D
:101FA00090ED000A6148008841F28831081A6449BE
:101FB00001EB800080ED000A624890ED000A5F4866
:101FC000D0ED000A30EE200A5E4880ED000A5E483F
:101FD00090ED000A5548008841F28831081A5B49A3
:101FE00001EB800080ED000A594890ED000A564848
:101FF000D0ED000A30EE200A554880ED000A4B482B
:10200000008841F28831081A00EE100AB8EEC00AC2
:1020100046480088081A4F4901EB800080ED000A0D
:1020200042480088401E414908807AE0484890EDC7
:10203000000ADFED490A80EE201A484880ED001AB8
:1020400000244BE040F2712060433A4A02EB401119
:1020500041F288323F4803F027FF414800EB8400FB
:1020600080ED000A3E4800EB840090ED000A10EE7F
:10207000101A084604F0B6FE9FED3A0B53EC102BF5
:1020800004F0B8FC12D3364800EB840090ED000A4F
:1020900010EE101A084604F0A5FE41EC180B9FED57
:1020A000330B53EC102B04F06BFB16D241F288304B
:1020B0001E4908809FED2F0A1F4880ED000A9FED02
:1020C0002D0A204880ED000A9FED2A0A204880ED65
:1020D000000A0020BDEC028B10BD641C032CB1DB98
:1020E000154890ED000ADFED1C0A80EE201A80ED05
:1020F000001A144890ED000ADFED170A80EE201A4E
:1021000080ED001A124890ED000ADFED130A80EE10
:10211000201A80ED001A41F288300449088001201D
:10212000D8E70020D6E7000070060020A4050020B4
:10213000B405002098090020F0050020B805002013
:10214000B8570020F4050020BC050020D8A50020C9
:10215000F8050020F8F3002000409C45040600200C
:10216000184201202D431CEBE2360A3F2D431CEBA5
:10217000E2360ABF000000002DE9F04F2DED068B7E
:1021800087B01320FEF7E6F907461220FEF7E2F9C2
:1021900080461520FEF7DEF981461420FEF7DAF9B5
:1021A00082461720FEF7D6F983461620FEF7D2F9AD
:1021B00006900320FEF7EAF905900220FEF7E6F903
:1021C00004900520FEF7E2F903900420FEF7DEF903
:1021D00002900720FEF7DAF901900620FEF7D6F903
:1021E000009048EA072000B200EE100AB8EEC00ADC
:1021F000DFED660A80EE201A9FED650A61EE000AA7
:10220000644890ED000AB8EE400A20EE800A624869
:1022100080ED000A4AEA092000B200EE100AB8EE8A
:10222000C00ADFED5A0A80EE201A9FED590A61EECE
:10223000000A584890ED000AB8EE400A20EE800AE5
:10224000564880ED000A069840EA0B2000B200EEE6
:10225000100AF8EEC00A9FED4D1A80EE810ADFEDFC
:102260004C0A60EE200A4B4890ED000AB8EE400A96
:1022700020EE800A4A4880ED000ADDE9040140EAC8
:10228000012000B200EE100AB8EEC00A9FED3F1A1E
:10229000C0EE010A9FED3E0A20EE800A414880ED23
:1022A000000ADDE9020140EA012000B200EE100A56
:1022B000F8EEC00A9FED351A80EE810ADFED340A90
:1022C00020EE200A384880ED000ADDE9000140EAEE
:1022D000012000B200EE100AF8EEC00A9FED2B1AA2
:1022E00080EE810ADFED2A0A20EE200A2F4880EDD9
:1022F000000A2220FEF72EF906462320FEF72AF9CF
:1023000004462046E11704EBD161491101EBC605F3
:10231000B5F5806F1BDBA5F5006004F006FA41EC13
:102320001A0B9FED230B53EC102B04F065FA41ECD4
:10233000190B9FED210B53EC102B03F085FF41ECA3
:10234000180B04F095F900B21D49088019E02846E1
:1023500004F002FA41EC1A0B9FED150B53EC102B15
:1023600004F04AFA41EC190B9FED130B53EC102BC0
:1023700003F06AFF41EC180B04F07AF900B210493F
:10238000088007B0BDEC068BBDE8F08F00FEFF466D
:1023900000007A4408060020A8050020AC050020B3
:1023A000B0050020B4050020B8050020BC050020C1
:1023B000000000000000C03F0000000000003740A7
:1023C000A605002030B5034605E013F8010B80EAAE
:1023D00002040448025D081EA1F10101F5D1104676
:1023E00030BD0000CB6F000801460A7BCB7A42EA81
:1023F0000320704710B501464FF6FF724B7B03F088
:1024000080033BB114044B7B44EA03238C7B43EAF7
:10241000040003E08C7B4B7B44EA032010BD417C2D
:1024200000EE901AF8EE600AB0EE600A7047000005
:1024300010B52DED0E8B82B0FE480078401CFD4992
:102440000870FD4890ED000AFC4880ED010A08463E
:10245000007804287CD1FA480079012804D1F94891
:10246000D0F81E00F8490860F848D0ED190AB0EE1F
:10247000600AF748FEF706F8F648D0ED000A30EE9D
:10248000200AF14880ED010AED48007901281BD1AE
:10249000EC48D0F81E0000EE100AB2EE041ADFED90
:1024A000EE0AFFF7C0F8ED4880ED060AE548D0F8DF
:1024B0001E0000EE100AB2EE041ADFEDE70AFFF785
:1024C000B2F8E14880ED000AE548007848B9E348F1
:1024D000FEF756FFE14890ED000ADB4880ED000A68
:1024E00005E0E04890ED000AD74880ED000AD648A4
:1024F000FEF754FED94890ED010ADB48D0ED000A02
:1025000020EE200AD94880ED000ACF4890ED0B0A52
:10251000D648D0ED000A30EE600AC84880ED000AC7
:10252000FEF73CFEC848FEF739FEC74890ED0B0A9F
:10253000C24880ED000AFEF731FECD48FEF782FD6D
:10254000CB48D0ED0B0A9FEDCB1A80EE810A00E05C
:10255000CEE1DFEDC90A20EE200AC84880ED000A6E
:10256000FEF71CFEB648807901281CD1B4480079DA
:10257000012818D10220C2490870B248B0F91A00E7
:10258000B0F52F7F04D19FEDBF8ADFEDBE8A1BE03F
:10259000AC48B0F91A00B0F5167F15D19FEDBA8A94
:1025A000DFEDB98A10E09FEDB98ADFEDB88AB8484F
:1025B00090ED010ADFEDB70AB4EEE00AF1EE10FA91
:1025C00002D20020AE490870F0EE680AB0EE480A68
:1025D000FFF784F99A480079F8B9AF480078E0B974
:1025E00002220021AD4801F037F89448D0ED0C0AE2
:1025F000B0EE600AB0EE001ADFEDA40AFFF734F97E
:102600008E4880ED0C0A9FEDA10A8F4880ED0A0AE2
:102610009FED9E0A894880ED0A0A8B4890ED010AD9
:102620009F48D0ED000A30EE200ADFED930A80EEDD
:10263000201AB0EE000A21EE000ADFED9A0A20EE21
:10264000200A10EE104A204604F0CCFB41EC1E0B91
:10265000B0EE4E0AF0EE6E0A01F0EEFFB0EE40CAA8
:10266000F0EE60CA8D48B0F9000004F05EF841EC6D
:102670001D0B53EC1C2B04F0BFF841EC1A0B6F48F8
:1026800090ED0B0A10EE101A084604F0ABFB41EC7B
:102690001B0B53EC1A2B03F0D7FD41EC190B9FEDEC
:1026A000820B53EC102B04F0A5F905D29FED800AA4
:1026B000804880ED000A94E0634890ED010A784874
:1026C000D0ED000A70EE200A9FED6B1A80EE810AB1
:1026D000F0EE000A20EE200ADFED720A20EE200A5A
:1026E00010EE104A204604F07DFB41EC1E0BB0EECC
:1026F0004E0AF0EE6E0A01F09FFFB0EE40CAF0EE17
:1027000060CA6648B0F9000004F00FF841EC1D0BF8
:1027100053EC1C2B04F070F841EC1A0B474890ED79
:102720000B0A10EE101A084604F05CFB41EC1B0B80
:1027300053EC1A2B03F088FD41EC190B9FED5E0B57
:1027400053EC102B04F01CF805D29FED5D0A59489C
:1027500080ED000A45E03C4890ED010A5048D0ED7C
:10276000000A30EE200ADFED440A80EE201AB0EEB7
:10277000000A21EE000ADFED4B0A20EE200A10EEDF
:10278000104A204604F02EFB41EC1E0BB0EE4E0A20
:10279000F0EE6E0A01F050FFB0EE40CAF0EE60CAF3
:1027A0003E48B0F9000003F0C0FF41EC1D0B53ECB4
:1027B0001C2B04F021F841EC1A0B204890ED0B0A79
:1027C00010EE101A084604F00DFB41EC1B0B53EC05
:1027D0001A2B03F039FD41EC190B03F003FD3549C9
:1027E0000860264890ED080ADFED310AB4EEE00AF1
:1027F000F1EE10FA06DD9FED250A80ED0B0A0120AF
:10280000304908700E48407A20B19FED200A2948CF
:1028100080ED000A0021274890ED000AB1EE400A41
:10282000BDEEC00A10EE100A00B2CDE90001134857
:102830004AE0000025050020DC050020FC03002004
:102840008C09002010010020B8030020480400205B
:102850008808002070030020000034C29C03002080
:10286000EC0400205803002098030020940300206B
:10287000CC020020000000460000B44310030020FA
:10288000EE0400200040E74500007A45000000000B
:10289000680200200000C842240500205C030020DC
:1028A00054030020DB0F494000000000004CDD40D5
:1028B0000060EA460005002000000000004CDDC07A
:1028C0000060EAC6A802002090ED0B0ABDEEC00A27
:1028D00010EE100A02B20B4640F2FF110648FEF756
:1028E000EAFA064800790649087000200549087090
:1028F00002B0BDEC0E8B10BD006800408C090020BA
:10290000240500202505002010B5FFF791FD0348A0
:102910008089401C0149888110BD0000A00800206A
:1029200010B5A148007855287ED19F4840780028EE
:10293000FAD10F219C4801F07DFC002874D09B48FF
:10294000B0F86400401C9949A1F864000F22964930
:102950009748FDF7A9FC96481438D0F81E00954911
:10296000086093481438C07D9349487190481438E2
:10297000807D08718E481438C07D48710846007902
:1029800001287BD18D48D0ED0C0AB0EE600AB2EE82
:10299000041ADFED8B0AFEF767FF884880ED0C0A0A
:1029A00085484079012858D19FED860A864880EDF8
:1029B0000C0A9FED840A854880ED0C0A7C48143887
:1029C000B0F91C008249B1F90010081A002808DD8E
:1029D00077481438B0F91C007D49B1F90010081A85
:1029E00007E073481438B0F91C007949B1F90010B8
:1029F000401A022809DD744890ED010A80ED000AB2
:102A00006B481438808B7249088069481438B0F9D3
:102A10001C006F49B1F9001088421DD06A48D0ED02
:102A2000000A6348143800E0BDE0B0F91C006849B2
:102A3000B1F90010401A47F23331484300EE100A52
:102A4000B8EEC00A30EE800A5F4880ED000A5848B0
:102A50001438808B5E49088090E05B4890ED010A55
:102A600080ED000A52481438808B594908809FED48
:102A7000590A564880ED0C0A80E0FFE74E4800797D
:102A800000287BD14D48D0ED0C0AB0EE600AB3EEC1
:102A9000041ADFED500AFEF7E7FE484880ED0C0A05
:102AA00045484079012856D19FED4B0A464880EDB4
:102AB0000C0A9FED490A454880ED0C0A3C48143841
:102AC000B0F91C004249B1F90010081A002808DDCD
:102AD00037481438B0F91C003D49B1F90010081A04
:102AE00007E033481438B0F91C003949B1F9001037
:102AF000401A022809DD344890ED010A80ED000AF1
:102B00002B481438808B3249088029481438B0F992
:102B10001C002F49B1F9001088422FD02A48D0ED6F
:102B2000000A23481438B0F91C002949B1F90010F3
:102B3000401A47F23331484300EE100AB8EEC00A9B
:102B400030EE800A204880ED000A19481438808B46
:102B50001F49088012E09FED1F0A1B4880ED0C0AF8
:102B600090ED010A80ED000A11481438808B184955
:102B700008809FED180A154880ED0C0A0C4814389F
:102B8000B0F91A00B0F5FA7F03D001200A49887124
:102B900009E007481438B0F91A00B0F5FA7F02D1FD
:102BA00000200549887110BD4A070020A0080020B8
:102BB00024010020D40100208C090020FC03002007
:102BC00000C0DA460080BB45CC0200201003002084
:102BD00072060020000000000000FA4510B500F069
:102BE000A7FA0348808F401C0149888710BD000068
:102BF000A008002010B52DED108B86B00446F0EE35
:102C0000408A0020039004900590B6EE000A28EE5A
:102C1000800AB0EE40FAFE4890ED000AF0EE409ACD
:102C2000FC4890ED000AB0EE40AAFB4890ED000A87
:102C3000F0EE40AAF94890ED000AB0EE40BAF8482C
:102C400090ED000AB5EEC00AF1EE10FA0FD1F5488A
:102C500090ED000AB5EEC00AF1EE10FA07D1F24885
:102C600090ED000AB5EEC00AF1EE10FA7ED0EC4805
:102C700090ED000A8DED030AEA4890ED000A8DED13
:102C8000040AE94890ED000A8DED050ADDED030A1E
:102C900060EEA00A9DED041ADDED041A41EE210A52
:102CA0009DED051ADDED051A41EE210AB0EE600A30
:102CB00003F0DCF8B0EE408ADDED030AB0EE480A1E
:102CC00020EE800A8DED030ADDED040AB0EE480A1D
:102CD00020EE800A8DED040ADDED050AB0EE480A0B
:102CE00020EE800A8DED050A9DED040ACF48D0ED57
:102CF000000A20EE200ADDED050ACD4890ED001A0D
:102D0000F0EE40BA40EEC1BA9DED050AC948D0EDDB
:102D1000000A20EE200ADDED030AC44890ED001AF7
:102D2000B0EE40CA00EEC1CA9DED030AC048D0ED26
:102D3000000A20EE200ADDED040ABE4890ED001ADC
:102D4000F0EE40CA40EEC1CABB4890ED000A60EE0A
:102D50002B0ABA4890ED000A00EEA80A80ED000A9E
:102D6000B54890ED000A60EE0C0A00E03FE0B44880
:102D700090ED000A00EEA80A80ED000AAE4890ED42
:102D8000000A60EE2C0AAF4890ED000A00EEA80A97
:102D900080ED000AA94890ED000AAB48D0ED000A8A
:102DA00000EEAB0AA948D0ED000A30EE200A80ED13
:102DB000000AA34890ED000AA348D0ED000A00EEF7
:102DC0008C0AA348D0ED000A30EE200A80ED000AFC
:102DD0009C4890ED000A9C48D0ED000A00EEAC0A39
:102DE0009C48D0ED000A30EE200A80ED000A97489A
:102DF00090ED000A20EE0F0A8DED000A944890ED48
:102E0000000A20EE0F0A8DED010A924890ED000AAB
:102E100020EE0F0A8DED020A9DED000A20EE000A59
:102E2000DDED010A9DED011A00EE810ADDED020AD9
:102E30009DED021AB0EE409A00EE819AB7EE000ABC
:102E400030EE490A20EE290ADDED000A0AEE600A9A
:102E5000DDED010A0AEEE00ADDED020A0BEE600A82
:102E60006B4880ED000AB7EE000A30EE490A20EE0A
:102E70000A0ADDED000A09EEA00ADDED020A0AEEFB
:102E8000A00ADDED010A0BEE600A624880ED000A3F
:102E9000B7EE000A30EE490A20EE2A0ADDED010AFB
:102EA00009EEA00ADDED020A0AEE600ADDED000A75
:102EB0000BEE200A584880ED000AB7EE000A30EE0B
:102EC000490A20EE0B0ADDED020A09EEA00ADDED4B
:102ED000010A0AEE200ADDED000A0AEEE00A4F4878
:102EE00080ED000A4A48D0ED000A60EEA00A494889
:102EF00090ED001AD0ED001A41EE210A464890EDFF
:102F0000001AD0ED001A41EE210A444890ED001A53
:102F1000D0ED001A41EE210AB0EE600A02F0A6FFE1
:102F2000B0EE408A3A4890ED000A20EE080A80EDA3
:102F3000000A384890ED000A20EE080A80ED000AE9
:102F4000354890ED000A20EE080A80ED000A33486B
:102F500090ED000A20EE080A80ED000A2C4890ED62
:102F6000000A20EE00DA2B4890ED000A60EE00DA4D
:102F7000294890ED000A20EE00EA284890ED000A6A
:102F800060EE00EA3DEE2D0A30EE4E0A30EE6E0A9B
:102F9000314880ED000A1F4890ED000A1E48D0ED30
:102FA000000A20EE200A1A48D0ED000A1B4890EDD6
:102FB000001A00EE810AF0EE000A20EE200A2748EF
:102FC00080ED000A134890ED000A1448D0ED000A85
:102FD00020EE200A0E48D0ED000A0F4890ED001AAE
:102FE00000EEC10AF0EE000A20EE200A114880ED42
:102FF000000A074890ED000A0648D0ED000A20EECE
:10300000200A0548D0ED000A044890ED001A27E098
:10301000C8040020CC040020D0040020D4040020E8
:10302000C0050020C4050020C8050020E8040020D9
:10303000E4040020E0040020B8040020BC040020C8
:10304000C0040020C4040020B4040020CC050020EB
:10305000D0050020D4050020D8040020DC04002086
:1030600000EE810AF0EE000A20EE200A2A4880EDE8
:10307000000A3DEE6D0A30EE4E0A30EE2E0A274869
:1030800080ED000A264890ED000AF7EE000AB4EE43
:10309000E00AF1EE10FA03DDB7EE000A80ED000A57
:1030A0001F4890ED000AFFEE000AB4EEE00AF1EED0
:1030B00010FA03D2BFEE000A80ED000A184890ED26
:1030C000000A01F0F9F8B1EE400ADFED160A20EE31
:1030D000200A84ED190A1148D0ED000A0E4890ED3F
:1030E000000A01F07FF9DFED0F0A20EE200A84EDDF
:1030F000180A0D48D0ED000A0C4890ED000A01F0C6
:1031000071F9DFED080A20EE200A84ED1A0A06B0F4
:10311000BDEC108B10BD0000E4040020E80400208A
:10312000E004002033336542D8040020DC04002092
:1031300010B59FED070A074880ED040A9FED060AC7
:1031400080ED050A9FED050AFFF754FD10BD000054
:10315000CDCCCC3E480400206F12033B6F12833A63
:103160001548B0F84E00B0F5FA7F04DD4FF400408A
:103170001249088004E04FF400401049891E08807D
:103180000D48B0F8760040F2DC51884209DD0A486B
:10319000B0F87A00884204DD4FF480400749088087
:1031A00004E04FF480400549891E08800248008EE3
:1031B000401C014908867047A00800201A080240F8
:1031C000B0EE401AB4EEE01AF1EE10FA09D2B1EE08
:1031D000600AB4EEC01AF1EE10FA02DD9FED020AA9
:1031E0007047B0EE410AFBE70000000090ED031AC3
:1031F000D0ED041AF7EE000A41EE210AB7EE001AEC
:10320000C1EE201AB0EE610AD0ED010AC0ED000A4D
:10321000F7EE000A70EEC00A90ED021A60EE810A25
:1032200090ED001A40EE010AC0ED010A704708B5A2
:103230004FF4A06000F068F827208DF8000000200F
:103240008DF8010001208DF802008DF8030068461A
:1032500000F01EF814208DF8000000208DF8010009
:1032600001208DF802008DF80300684600F010F888
:1032700040208DF8000000208DF8010002208DF81C
:10328000020001208DF80300684600F001F808BD37
:1032900070B5002100230F22C4781CB3174C24689A
:1032A00004F4E064C4F5E064C4F30721C1F104044C
:1032B000E3B20A4144789C40E1B28478144021434F
:1032C0000C07210E0E4C05786155047804F01F059B
:1032D0000124AC4005786D11AD0005F1E025C5F87D
:1032E000004109E0047804F01F050124AC40054DBD
:1032F0000678761145F8264070BD00000CED00E020
:1033000000E400E080E100E002490143024A11606C
:10331000704700000000FA050CED00E0CBE000244F
:10332000C4E004EBC400644901EB8000007A00288B
:103330007DD16248006804EBC4015F4A02EB810161
:103340000969401A04EBC40102EB810148615B4842
:10335000006804EBC40102EB8101086104EBC401C5
:1033600002EB810148688047012004EBC401524A06
:1033700002EB810108725148006804EBC40102EBC2
:1033800081010969401A04EBC40102EB81018861E3
:1033900004EBC400114601EB8000C06904EBC401DA
:1033A00002EB81018969884206D904EBC400114609
:1033B00001EB8000C06905E004EBC4003E4901EB6D
:1033C0008000806904EBC4013B4A02EB8101C861C3
:1033D00004EBC400114601EB8000006A04EBC40159
:1033E00002EB81018969884206D204EBC4001146D0
:1033F00001EB8000006A05E004EBC4002E4901EBFC
:103400008000806904EBC4012B4A02EB8101086251
:1034100004EBC400114601EB80008069284909686B
:1034200008442749086004EBC400114600E012E09C
:1034300001EB8000C06923490968084421490860FC
:1034400004EBC400114601EB8000006A1E490968C4
:1034500008441D490860002522E01848006805EB73
:10346000C501154A02EB81010969401A05EBC50146
:1034700002EB8101C968884211D305EBC5001146F2
:1034800001EB8000007A022809D0002005EBC5017D
:1034900002EB81010872AC4201D96C1E04E06D1C84
:1034A0000A4800688542D8D300BF641C07480068FA
:1034B0008442FFF436AF32E70C000020240C0040B9
:1034C0000000002004000020080000200801002067
:1034D00029B1064A12680243044B1A6004E0034A09
:1034E00012688243014B1A60704700003038024076
:1034F00029B1064A12680243044B1A6004E0034AE9
:1035000012688243014B1A60704700004038024045
:1035100029B1064A12680243044B1A6004E0034AC8
:1035200012688243014B1A60704700002038024045
:1035300029B1064A12680243044B1A6004E0034AA8
:1035400012688243014B1A60704700004438024001
:1035500029B1064A12680243044B1A6004E0034A88
:1035600012688243014B1A60704700002438024001
:10357000F0B5002100220024022500260223324F4C
:103580003F6807F00C0121B1042905D0082937D183
:1035900005E02E4F076036E02D4F076033E02A4FDD
:1035A0003F1F3F68C7F38056274F3F1F3F6807F014
:1035B0003F036EB1264FB7FBF3F7DFF88CC0ACF1D9
:1035C000040CDCF800C0CCF3881C07FB0CF40CE006
:1035D0001E4FB7FBF3F7DFF870C0ACF1040CDCF85A
:1035E00000C0CCF3881C07FB0CF4174F3F1F3F684B
:1035F000C7F301477F1C7D00B4FBF5F7076002E0CD
:10360000124F076000BF00BF0F4F3F6807F0F00187
:103610000909104F7A5C0768D74047600A4F3F6836
:1036200007F4E051890A0B4F7A5C4768D7408760FE
:10363000054F3F6807F46041490B064F7A5C4768C5
:10364000D740C760F0BD0000083802400024F400F5
:1036500000127A007806002010B51346B0F9004039
:103660008C4201DA002206E0B0F900408C4201DD14
:10367000012200E002227AB9B0F900408C4201DB5D
:1036800001801CE004881C4424B20480B0F900408E
:103690008C4214DB018012E0012A0FD1B0F9004006
:1036A0008C4201DC01800AE00488E41A24B2048020
:1036B000B0F900408C4202DC018000E010BD00BF88
:1036C000FCE710B52DED088BB0EE408AF0EE608A75
:1036D00018EE900A03F086FB41EC190B18EE100A65
:1036E00003F080FB41EC1B0BB0EE4B0AF0EE6B0AD3
:1036F00001F006F8B0EE40AAF0EE60AA53EC192BE8
:1037000051EC1A0B03F076F90AD8B0EE480A00F033
:10371000ADFB00EE100AB8EEC00ABDEC088B10BD80
:1037200088EE280AF9E721B1028842F040020280BF
:1037300004E002884FF6BF731A4002807047000011
:1037400000B587B001210846FFF7C2FE012108033A
:10375000FFF7EEFE052211463A48FEF7C9FB0522A7
:1037600006213848FEF7C4FB052207213548FEF73D
:10377000BFFB2020009002208DF8040003208DF86C
:10378000050000208DF8060001208DF8070069462D
:103790002C48FEF765FB4020009069462948FEF75B
:1037A0005FFB8020009069462648FEF759FB2648BB
:1037B00000F04EF81820ADF814000020ADF810000D
:1037C000ADF80E000720ADF818004FF40060ADF81A
:1037D0000C000020ADF80800ADF816004FF4827020
:1037E000ADF80A004FF40070ADF8120002A91648B7
:1037F00000F086F801211448FFF795FF012104200D
:10380000FFF766FE01210420FFF762FE1020009002
:1038100001208DF8040000208DF8060069460B4851
:10382000FEF71EFB2020009069460848FEF718FBB3
:1038300010210648FEF781FB20210448FEF77DFB9E
:1038400007B000BD00000240003001400008024007
:1038500010B504462448844208D101218014FFF7A2
:1038600077FE0021A014FFF773FE3CE01F4884425E
:1038700008D101210014FFF74BFE00212014FFF7AF
:1038800047FE30E01A48844208D10121C013FFF7F7
:103890003FFE0021E013FFF73BFE24E01548844281
:1038A00008D101214014FFF753FE00216014FFF7F7
:1038B0004FFE18E01048844209D101210805FFF7A6
:1038C00047FE00214FF48010FFF742FE0BE00B484B
:1038D000844208D101214805FFF73AFE00214FF448
:1038E0000010FFF735FE10BD0030014000380040E9
:1038F000003C0040003401400050014000540140B1
:1039000010B50022028802F441520B884C882343F0
:103910008C882343CC8823430C8923434C8923433D
:103920008C892343CC8923431A430280838B4FF233
:10393000FF74234083830B8A038210BD10B5FDF70B
:103940001DFE0348808D401C0149888510BD000084
:10395000A008002010B500F009F80348008F401CB3
:103960000149088710BD0000A008002010B52DED0A
:10397000048BFEF701FCD64890ED000AD548D0ED47
:10398000000A30EE600AF7EE000A20EE200AD04866
:1039900080ED000AD04890ED000AD048D0ED000A32
:1039A00030EE600AF7EE000A20EE200ACA4880EDE9
:1039B000000ACB4890ED000ACA48D0ED000A30EE6C
:1039C000600AF7EE000A20EE200AC54880ED000AE2
:1039D000C54890ED000AC548D0ED000A30EE600AF7
:1039E000F7EE000A20EE200ABF4880ED000AC0482A
:1039F00090ED000ABF48D0ED000A30EE600AF7EE05
:103A0000000A20EE200ABA4880ED000ABA4890ED7C
:103A1000000ABA48D0ED000A30EE600ADFEDB80ABD
:103A200020EE200AB44880ED000AAF4890ED000A6D
:103A3000B44880ED000AAE4890ED000AB24880ED2F
:103A4000000AAD4890ED000AB04880ED000AA04899
:103A500090ED000AAE4880ED000A9F4890ED000A04
:103A6000AC4880ED000A9E4890ED000AAA4880ED1F
:103A7000000A9D4890ED000AA84880ED020AFFF771
:103A8000B5FBA64890ED010A974880ED000A9848DA
:103A900090ED000AA24880ED020AFFF7A7FBA048BC
:103AA00090ED010A924880ED000A934890ED000ADB
:103AB0009C4880ED020AFFF799FB9A4890ED010AB5
:103AC0008D4880ED000A824890ED000A964880ED0E
:103AD000020AFFF78BFB944890ED010A7C4880EDC9
:103AE000000A7D4890ED000A904880ED020AFFF739
:103AF0007DFB8E4890ED010A774880ED000A7848FA
:103B000090ED000A8A4880ED020AFFF76FFB8848B3
:103B100090ED010A724880ED000ADFED860A7248D6
:103B200090ED000AFFF74CFB6F4880ED000ADFEDD7
:103B3000810A6F4890ED000AFFF742FB6C4880ED68
:103B4000000ADFED7C0A6C4890ED000AFFF738FBB5
:103B5000694880ED000A644890ED000ADFED760ABE
:103B600020EE200A754880ED000A614890ED000AB9
:103B7000DFED710A20EE200A714880ED000A5E48F0
:103B800090ED000ADFED6C0A20EE200A6D4880ED12
:103B9000000A6A4890ED000A9FED6B1AC0EE010A18
:103BA0009FED6A0A20EE800A694880ED000A6448A9
:103BB00090ED000ADFED640A80EE201A9FED630AA3
:103BC00021EE000A634880ED000A5E4890ED000A8D
:103BD000DFED5D0A80EE201A9FED5C0A21EE000AFF
:103BE0005D4880ED000A3A4890ED000A5B4880EDA0
:103BF000000A394890ED000A594880ED000A38481B
:103C000090ED000A574880ED000A544890ED000AF4
:103C100020EE000A5248D0ED000A90ED001A00EEA6
:103C2000810A5048D0ED000A90ED001A00EE810A9A
:103C300010EE101A084603F0D5F841EC190BB0EE5F
:103C4000490AF0EE690A01F08FFBB0EE408AF0EE0F
:103C5000608A51EC180B02F0C5FA43490860084627
:103C600090ED000ADFED410AB4EEE00AF1EE10FA41
:103C700003DD01203E49087019E0304890ED000A4C
:103C8000DFED3C0AB4EEE00AF1EE10FA08D290ED56
:103C9000000ADFED390AB4EEE00AF1EE10FA03DCB7
:103CA00001203349087002E0002031490870334890
:103CB000007818B901203149087005E02F480078D4
:103CC000022801D12D490870BDEC048B10BD000005
:103CD000A8050020E4050020AC050020E805002030
:103CE000B0050020EC050020B4050020F005002000
:103CF000B8050020F4050020BC050020F8050020D0
:103D0000D044803F580600205C060020600600205A
:103D100064060020680600206C0600202C050020A8
:103D20004005002054050020680500207C05002087
:103D3000900500206F12033B39FA8E3CCC05002021
:103D4000D0050020D4050020DB0F4940000034439B
:103D5000D8050020DC050020E0050020C00500207B
:103D6000C4050020C80500201406002000202346BA
:103D7000180600200000FA440000FAC428050020BC
:103D80000CB50020019000903448006840F4803069
:103D90003249086000BF3148006800F400300090EC
:103DA0000198401C0190009818B90198B0F5A04FF7
:103DB000F1D12A48006800F4003010B101200090D1
:103DC00001E0002000900098012846D123484030AF
:103DD000006840F080502149403108602048006868
:103DE00040F440401E4908601C48083000681B49E8
:103DF000083108600846006840F400400860084642
:103E0000006840F4A05008601648091F0860081FA9
:103E1000006840F08070091F086000BF0F4800680C
:103E200000F000700028F9D040F205700E490860DB
:103E30000A480830006820F003000849083108608B
:103E40000846006840F00200086000BF03480830E0
:103E5000006800F00C000828F8D10CBD00380240C2
:103E60000070004008544007003C0240B5EEC00A14
:103E7000F1EE10FA01DD01207047B5EEC00AF1EE57
:103E800010FA02D24FF0FF30F6E70020F4E700000E
:103E90000248C06F401C0149C8677047A008002055
:103EA00010B51548006840F47000134908601348C5
:103EB000006840F001001149086000200F490831F6
:103EC00008600E4800680E4908400C4908600D481B
:103ED000091D0860081F006820F48020091F086081
:103EE000002006490C310860FFF74AFF4FF00060E0
:103EF00001498039086010BD88ED00E000380240BB
:103F0000FFFFF6FE1030002410B500F001F810BDE0
:103F10000A48008F09494887002008870846808F93
:103F2000C8870020888708468089C881002088814A
:103F30000846808DC885002088857047A00800202D
:103F40000EB501210820FFF7D3FA5320ADF8000089
:103F50004FF0FF3001900020ADF80200ADF80800EE
:103F60006946044800F014F80121024800F004F802
:103F70000EBD0000000C004021B1028842F0010299
:103F8000028004E002884FF6FE731A4002807047F8
:103F900000220288184B98420ED0184B98420BD042
:103FA000B0F1804F08D0164B984205D0154B98427F
:103FB00002D0154B984204D14FF68F731A404B88AC
:103FC0001A43124B984207D0114B984204D04FF637
:103FD000FF431A400B891A4302804B68C3620B8867
:103FE0000385054B984202D0044B984201D18B7A4D
:103FF00003860123838270470000014000040140D2
:104000000004004000080040000C00400010004088
:104010000014004010B5052001F00EFF4FF4807031
:1040200007490883012007490860052001F004FFC3
:104030000548B0F84000401C0349A1F8400010BDFD
:104040000000024074060020A008002010B540F2D5
:1040500024410F4800F035F8012818D10C48008899
:104060000B48001D00880B48FDF7CEFB0F2802D13E
:10407000FEF756FC0BE000210648FDF703FB0F207E
:1040800004492839C86201210248FDF7FBFA10BD36
:10409000004800402860024021B1828942F4005269
:1040A000828104E082894DF6FF731A408281704755
:1040B0001AB1838A0B43838202E0838A8B43838213
:1040C000704770B50246002400230025002040F60A
:1040D0006A16B14200D100BFC1F3421501F01F03BF
:1040E000012606FA03F3012D02D19689334006E03A
:1040F000022D02D1168A334001E0968A33400C1219
:10410000012606FA04F41688344013B10CB10120DC
:1041100000E0002070BDF0B5034600240026002515
:10412000002040F66A17B94200D100BF1846C1F31B
:10413000421401F01F06012707FA06F5012C01D1F0
:104140000C3004E0022C01D1103000E014301AB120
:1041500007682F43076002E00768AF430760F0BDC0
:104160002DE9FF4705460E460024A14600BFA046A4
:10417000B08900B100BF2C8A24F44054F088044375
:104180002C82AC8941F20C608443B08831890843A9
:10419000718908430443AC81AC8A24F44074B0892B
:1041A0000443AC826846FFF7E3F92048854202D019
:1041B0001F48854202D1DDF80C9001E0DDF808903F
:1041C000A88900F4004040B109EBC90000EB0910D8
:1041D00031684900B0FBF1F707E009EBC90000EBDB
:1041E000091031688900B0FBF1F76420B7FBF0F0EB
:1041F00004012009642101FB1078A88900F4004023
:1042000040B1322000EBC800B0FBF1F000F0070035
:10421000044308E0322000EB08106421B0FBF1F009
:1042200000F00F0004432C81BDE8FF87001001401F
:104230000014014070B505460C4600260DB1022C55
:1042400001D8002070BD611EFF222846FEF7BAF893
:104250000646601E285CB04201D10120F2E7002032
:10426000F0E703B401984100009850EAC12018BF5C
:1042700004204A0D18BF40F0010040F2FF72B2EB7B
:10428000515F08BF40F00200012808BF052002B0BE
:1042900070474100080218BF04200A0E18BF40F002
:1042A00001004FF07F4232EA010108BF40F00200F6
:1042B000012808BF0520704710B54FF00E402DEDC6
:1042C000028BB0EE408A18EE104A00EB4400B0F1C9
:1042D000506F4AD84FF0FC40B0EB440F22D2B0EE02
:1042E000C80AF7EE000A30EEC00AF6EE000A60EEE9
:1042F000208A18EE900A01F0A0FE01EE100A14F0D8
:10430000004F1DBFDFED2D0A9FED2D0AB1EE411AC2
:10431000DFED2C0A08BF9FED2C0AF8EE001A21EE03
:10432000218A05E0DFED290A68EE088AB0EE600A0E
:104330009FED271ADFED271A30EE080A48EE811AA2
:104340009FED251A08EEA11ADFED241A48EE811A16
:104350009FED231A08EEA11A68EE281ABDEC028B15
:1043600001EE810A30EE200A10BD4FF0E440B0EBC0
:10437000440F0CD918EE100AFFF78BFF042808BF72
:1043800001F084FCB0EE480ABDEC028B10BD4FF08A
:104390007F40B0EB440F07D2B0EE480ABDEC028B71
:1043A000BDE8104001F064BC0120FBF7CAFFBDEC82
:1043B000028BBDE8104001F061BC00000000C9BFE5
:1043C00022AAFDB90000C93F22AAFD390000000061
:1043D00024FE1C3DC78AD83C1E67383D1B93993D7F
:1043E000AFAA2A3E10EE100A10B510EE901A4FF048
:1043F000684202EB40032DED028BB3F1654F3CBFE9
:1044000002EB4102B2F1654F7CD200BFC0F3C7534B
:10441000C1F3C7529A1A1B2A09DD10F0004F14BFCE
:104420009FED6E0A9FED6E0ABDEC028B10BD12F17E
:104430001A0F1BDA11F0004F09D010F0004F0CBF1B
:104440009FED680A9FED680ABDEC028B10BD80EEFF
:10445000208A18EE100AFFF71CFF042808BF01F09D
:1044600015FCB0EE480ABDEC028B10BD4200B2EB69
:10447000410F37D910F0004F19BFDFED5C1A9FEDE7
:104480005C1ADFED5C1A9FED5C1AB0EE602A0A46FA
:10449000F1EE400A80F00041B0EE420A10460A1ADE
:1044A0005200B2F1807F34D2484010F0004FDFED6F
:1044B000532A9FED533A1DBFBEEE002A71EEE21A59
:1044C00031EE431AB6EE002A04BF71EEA21A31EEA5
:1044D000031AF0EE402A42EE602A40EE020A82EE13
:1044E000A02A18E011F0004F04BF9FED461AF0EE2D
:1044F000411AD4D010F0004F1CBFDFED431A9FEDDE
:10450000431A00E026E004BFDFED411A9FED411A97
:10451000C5E780EE202A22EE020ADFED3F0ADFED3A
:104520003F2ABDEC028B40EE202ADFED3D0A40EE33
:10453000220ADFED3C2A40EE202ADFED3B0A40EE66
:10454000220A22EE000A00EE201A31EE020A30EEB4
:10455000210A10BD4FF07F42B2EB400F28BFB2EBF3
:10456000410F05D2BDEC028BBDE8104001F083BBCA
:1045700040EA01035B0008BF41F0FF410BD0B2EB02
:10458000400F08BFB2EB410F08D120F0804000EE91
:10459000100A21F0804100EE901A37E7B2EB400F8D
:1045A00012BF5FEA410240F0FF4001F000413FF4DA
:1045B0002DAF4A0092EA40033FF528AF002AACBF76
:1045C0009FED1A1A9FED1A1A20EE010A60EE810A79
:1045D00010EE100A10EE901A18E70000DB0FC9BFAA
:1045E000DB0FC93FDB0F4940DB0F49C00000C9BFEB
:1045F00022AAFDB90000C93F22AAFD390060ED3EA4
:10460000C30ACE3700000000000049C022AA7DBACC
:104610000000494022AA7D3A2DAD65BD8FB8D53D39
:104620000FB511BE61C84C3EA8AAAABE0000804FBB
:104630000000802F0000000010B52F499FED2C1BBB
:104640002DED020B84B0059820F000408842D8BFC1
:104650009DED040B2DDD2949884209D1049840B90C
:104660004FF00100FBF76DFE01F0D2FA06B010BD6D
:1046700005DB9DED040B01F0B7FA06B010BD6846EE
:104680009DED040B00F0B0FE10F0030004BF9DEDA3
:10469000021B9DED000B0CD001280ED09DED021BDE
:1046A0009DED000B022817D0012001F0EDF906B0B6
:1046B00010BD01F0B5F806B010BD9DED021B9DEDDB
:1046C000000B012001F0E0F951EC100B01F07EFD30
:1046D00006B041EC100B10BD01F0A2F851EC100B2C
:1046E00001F074FD06B041EC100B10BD000000009D
:1046F0000000000000000000FB21E93F0000F07F07
:104700002DED020B019820F0004001909DED000B73
:1047100002B07047000000002DE9F04D2DED040BB4
:104720002DED0E8B96B0DDE92550279CDDF890A08D
:1047300025F0004624F00048BAF1000F14BF012113
:10474000002101EB4502FC4953184A1093422AD339
:10475000002814BF0123002303EB44030B44F74953
:104760008B4220D358EA00019FEDF59B76D0DFF80D
:10477000D8B35D4503D1BAF1000F05D188E0BAF195
:10478000000F08BF002100D0012101EB450111F508
:10479000001F08D8002814BF0121002101EB4401AB
:1047A00011F5001F0BD99DED261B9DED240B16B0B6
:1047B000BDEC0E8B04B0BDE8F04D01F01FBA002730
:1047C000002DBCBFE149884521DAE1498845A8BFF1
:1047D00002271CDAC3451ADCDE4901EB28511429F3
:1047E00008DDC1F1340220FA02F101FA02F282423C
:1047F0000DD108E058B9C1F1140228FA02F101FA0A
:1048000002F2424503D101F00101C1F1020756EA6B
:104810000A0124D1002C22DA002D18BF022F01D06A
:10482000012F0AD00220FBF78CFD16B0BDEC0E8BD9
:1048300004B0BDE8F04D01F0BFB90220FBF781FDE7
:1048400001F0BAF951EC100B01F0C0FC41EC100B77
:1048500016B0BDEC0E8B04B0BDE8F08D18E09FEDF6
:10486000BEAB9FEDBF8B002871D1B848804522D1E7
:1048700005F1804010F5801008BFBAF1000F07D095
:10488000B3450ADC002CA8BF9DED260BE0DA0DE055
:10489000B0EE490AF0EE690ADAE7002C06DA9DED7F
:1048A000260B51EC100B01F091FC6FE0AE48784400
:1048B00090ED000BCCE7D8454DD1002C48DA2EB155
:1048C00086423AD1BAF1000F42D126E0BAF1000F88
:1048D00013D00220FBF735FD01F0AAF98DED020B94
:1048E0009DED240B8DED000B10EE900A039961F302
:1048F0001E0003909DED020BAAE78DED02AB9DED2E
:10490000240B1AEE901A10EE900A8DED000B61F355
:104910001E0003909DED020B9AE78DED028B9DED3D
:10492000240B18EE901A10EE900A8DED000B61F337
:104930001E0003909DED020B8AE709DA9DED240B22
:1049400051EC190B53EC102B01F03AFD1EE020E066
:104950009DED240B7CE786421BDAB4F1804F0DD02D
:10496000A4F10050B0F1FF5013D1002D11DB9DEDEB
:10497000240B51EC100B01F029FB07E09DED240BFB
:1049800053EC102B51EC100B00F0C2BC41EC100B9F
:104990005EE79DED240B51EC100B01F05AFABAF1D1
:1049A000000FCDE90E0142D19FED710B46B3A6F188
:1049B000E040B0F17F600CD05E4538D1002D00DAC8
:1049C000A7B3022F0CBF01204FF0FF3001F0ADFE66
:1049D000DCE7002D01DD002C0DDA002D01DD002CBF
:1049E0001FDB002D16DA002C14DB012F08BF9FED12
:1049F000620B3FF42DAFB0EE4A0AF0EE6A0A27E7E9
:104A0000022F18BF002D0CD0012F0AD1002DFFF668
:104A10001FAF06E0002DB8BF002C08DA012F3FF4CD
:104A200017AFB0EE480AF0EE680A11E71BE001206C
:104A300000EBE57050EA070115D0791EB0EE498A07
:104A4000F0EE698A084308BF9FED4D8B4E48002564
:104A5000804570DD4D494E48884514DDB0420DDB80
:104A6000002C19DB2FE00120FBF76BFC16B0BDEC2E
:104A70000E8B04B0BDE8F04D01F0CAB8B34502DCBE
:104A8000002C09DC1FE0864202DA002C1BDA03E06E
:104A90005E452BDD002C16DD0220FBF752FC01F0F9
:104AA000C7F88DED020B53EC1A2B51EC180B01F0EB
:104AB000A3FECDE900010399019861F31E00039064
:104AC0009DED020BC4E60220FBF73BFC01F0C0F8B1
:104AD00010EE901A18EE900A8DED020B8DED008B02
:104AE00061F31E0003909DED020BB1E69DED0E0BF0
:104AF00053EC192B51EC100B02F08AF89FED260BAA
:104B0000CDE9080153EC102B9DED080B51EC100B77
:104B100001F072FE9FED221B53EC112B01F0A0FF60
:104B20009DED081B53EC112B01F066FE9FED1E1B43
:104B300053EC112B3CE08CE0FFFF1F00FFFF0F0048
:104B4000000000000000F03F0000F03F0000F07F98
:104B50000000404301FCFFFF000000000000F07F68
:104B60000000000000000000D62A00000000000045
:104B70000000000000000080000000000000F0FFC6
:104B8000000000000000F0BF0000E0410000F04322
:104B9000FFFFEF3F00000000000000000000D03FDA
:104BA000555555555555D53F000000000000E03FD4
:104BB00001F056FF9DED080B41EC1A0B53EC102B46
:104BC00051EC100B01F018FE53EC1A2B01F014FEFF
:104BD00041EC1A0B9FEDFE0B53EC102B9DED080BD7
:104BE00051EC100B01F008FE41EC1B0B9FEDFA0B92
:104BF00051EC1A0B53EC102B01F0FEFD41EC1A0B9B
:104C00009FEDF70B53EC102B9DED080B51EC100BA7
:104C100001F0F2FD53EC1A2B01F0FAFF41EC1A0BF4
:104C200051EC1B0B53EC1A2B01F00EFB0690CDE957
:104C300006519DED060B53EC1B2B51EC100B01F0B4
:104C4000E7FF53EC1A2B01F00BFF41EC100B00F0C7
:104C5000A1B90020B6F5801F0EDA9FEDE30B53ECEF
:104C6000102B9DED0E0B51EC100B01F0C5FDCDE9A5
:104C70000E016FF034000E4600EB2650A0F2FF3715
:104C8000C6F31300DA4940F07F6646F0405688428A
:104C9000D8BF002408DDD7498142C8BF012403DC06
:104CA0000024A6F580167F1CD348784400EBC4008E
:104CB0000F9690ED00CB9DED0E0B53EC1C2B51ECA1
:104CC000100B01F0A5FF9DED0E0B41EC1B0B53ECFF
:104CD0001C2B51EC100B01F0B7FA41EC100B51EC0E
:104CE000190B53EC102B01F06BFB41EC1D0B51EC3D
:104CF0001B0B53EC1D2B01F07FFD41EC1A0BBF4841
:104D00008DED10AB7844109590ED000B4FF00050F6
:104D100040EA660000EB84408DED080B00F50020B2
:104D200009909DED080B53EC1C2B51EC100B01F07E
:104D30006FFF9DED0E1B53EC112B01F091FE41EC2A
:104D4000100B53EC102B9DED100B51EC100B01F0E0
:104D500053FD9DED080B41EC1C0B53EC102B9DED0E
:104D6000100B51EC100B01F047FD53EC1B2B01F025
:104D700077FE53EC1C2B01F04BFF53EC1D2B01F085
:104D80003BFD41EC1C0B53EC1A2B51EC1A0B01F0C0
:104D900033FD41EC1B0B9A480621B0EE4B0AF0EEB6
:104DA0006B0A784400F0F4FDB0EE401AF0EE601AA1
:104DB000B0EE41DAF0EE61DA53EC1B2B51EC1B0B39
:104DC00001F01AFD53EC1D2B01F016FD9DED100BAB
:104DD00041EC1B0B53EC1A2B51EC100B01F034FA85
:104DE00053EC1C2B01F008FD53EC1B2B01F02CFAAB
:104DF0009DED100B41EC1B0B53EC102B51EC100BE9
:104E000001F0FAFC41EC1D0B9FED7FEB53EC1E2BE8
:104E100001F01AFA53EC1B2B01F016FA0890CDE9B9
:104E200008519DED080B53EC1E2B51EC100B01F0BB
:104E3000EFFE53EC1D2B01F0EBFE53EC1B2B01F0AE
:104E40000FFE9DED080B41EC1D0B53EC102B9DED5F
:104E5000100B51EC100B01F0CFFC41EC1B0B53EC91
:104E60001A2B51EC1D0B01F0C7FC9DED080B41EC1A
:104E70001A0B53EC102B51EC1C0B01F0BDFC53EC46
:104E80001A2B01F0E1F941EC1A0B51EC1B0B53EC1E
:104E90001A2B01F0D9F90C90CDE90C519DED0C0BBA
:104EA00053EC1B2B51EC100B01F0B2FE53EC1A2B00
:104EB00001F0D6FD41EC1B0B9FED550B53EC102B75
:104EC0009DED0C0B51EC100B01F096FC41EC1A0B14
:104ED0009FED510B51EC1B0B53EC102B01F08CFC94
:104EE00041EC1B0B9FED4E0B53EC102B9DED0C0B6F
:104EF00051EC100B01F080FC53EC1B2B01F0A4F9DA
:104F000041EC100B4848784400EBC40090ED001BC6
:104F100051EC100B53EC112B01F096F941EC1B0BEB
:104F2000384601F002FCCDE9080153EC1B2B51EC93
:104F30001A0B01F089F941EC100B3C48784400EB66
:104F4000C40090ED00CB51EC100B53EC1C2B01F086
:104F50007BF99DED081B53EC112B01F075F90690C0
:104F6000CDE906519DED080B53EC102B9DED060B82
:104F700051EC100B01F04CFE53EC1C2B01F048FEE1
:104F800053EC1A2B01F044FE53EC1B2B01F068FD8F
:104F900041EC100B9DED261B53EC102B8DED001BEF
:104FA00000959DED260B51EC100B01F025FC9DEDBD
:104FB000000B41EC1A0B53EC102B9DED260B51EC22
:104FC000100B01F025FE9DED061B53EC112B2FE07D
:104FD000000000604715F73FFE822B654715F73F3D
:104FE00044DF5DF80BAE543E00000000000040437B
:104FF0008E9803007AB60B0022260000802600005F
:105000005A250000000000000000000000000840D9
:10501000000000E009C7EE3FFD033ADC09C7EE3FA0
:10502000F5015B14E02F3EBEE6230000A023000044
:1050300001F0E2FB53EC1A2B01F006F99DED060B93
:1050400041EC1A0B53EC102B9DED000B51EC100BA7
:1050500001F0D2FBCDE90C019DED0C0B51EC1A0BCC
:1050600053EC102B01F0F0F8CDE902010C46AA49EF
:105070008C422FDB611A084318D19DED0C0B53ECC9
:10508000102B9DED020B51EC100B01F0C1FD41EC1A
:105090001B0B9FEDA30B51EC1A0B53EC102B01F0E3
:1050A000D3F853EC1B2B01F0A5FC2DD20220FBF70B
:1050B00048F900F0BDFD10EE901A18EE900A8DED43
:1050C000020B8DED008B61F31E0003909DED020B32
:1050D000FFF7BEBB944A24F00041914214D3934998
:1050E000214408437FF4EFAC9DED0C0B53EC102BE7
:1050F0009DED020B51EC100B01F08AFD53EC1A2BC5
:1051000001F078FC7FF6DFAC24F000408849894A42
:10511000002601EB205182422BDA481C4FF480110B
:1051200021FA00F02044844AC0F30A517A44A1F2E3
:10513000FF3192ED000B814A8DED080BCA4020EA49
:105140000202C0F3130040F48010C1F1140120FAF0
:1051500001F60992002CB8BF76429DED080B53EC86
:10516000102B9DED0C0B51EC100B01F051FDCDE916
:105170000C019DED0C0B51EC1A0B53EC102B01F0B4
:1051800063F89FED6F0B0890CDE9085153EC102B9D
:105190009DED080B51EC100B01F02EFB41EC1B0BAD
:1051A0009FED690B53EC102B9DED080B51EC100B90
:1051B00001F022FB9DED0C0B41EC1C0B53EC102B72
:1051C0009DED080B51EC100B01F022FD53EC1A2B56
:1051D00001F046FC9FED5E1B53EC112B01F00CFB24
:1051E00053EC1C2B01F030F841EC1A0B51EC1B0B6B
:1051F00053EC1A2B01F028F8CDE902019DED020BCA
:1052000053EC1B2B51EC100B01F002FD53EC1A2B4D
:1052100001F026FC9DED020B41EC1A0B53EC102B18
:1052200051EC100B01F0E8FACDE908014A489DED78
:10523000080B0521784400F0ABFB9DED081B51ECF9
:10524000100B53EC112B01F0D7FA9DED021B53EC20
:10525000112B01F005FCCDE906019DED020B53EC8D
:105260001A2B51EC100B01F0C7FA53EC1A2B00F07B
:10527000EBFF9FED3B0B41EC1A0B53EC102B9DED1C
:10528000060B51EC100B01F0C3FC9DED060B41EC3D
:105290001B0B53EC102B9DED020B51EC100B01F08E
:1052A000ABFA53EC1B2B01F08BF853EC1A2B01F0EB
:1052B000AFFC9DED021B53EC112B01F0A9FC53EC4C
:1052C000192B01F0CDFBCDE9020101EB06500115D0
:1052D0000029C8BF039015DC9DED020B324651EC4E
:1052E000100B01F02CFEFEF7BCFF042808BF00F0F5
:1052F000AFFC32469DED020B51EC100B01F01FFE8E
:10530000CDE902019DED020B51EC180B53EC102B73
:1053100001F072FAFFF73ABB000090400000000075
:10532000FE822B654715973C00CC904000346F3FC0
:1053300001FCFFFF0000E03F58220000FFFF0F00CC
:1053400000000000432EE63F396CA80C615C20BED3
:10535000EF39FAFE422EE63FF82000000000000080
:10536000000000000000004000B52DED048BB0EE01
:10537000409AF0EE609A83B051EC190B01F07CFB7F
:1053800041EC180B18EE100A18EE901A8DED008BF8
:10539000002818BF0120084320F00040C0F17F60C2
:1053A00000F1E040C00F14D019EE101A19EE900A67
:1053B0008DED009B002918BF0121084320F000401B
:1053C000C0F17F6000F1E040C00F04BF0120FAF798
:1053D000B8FFB0EE480A03B0F0EE680ABDEC048BEB
:1053E00000BD0000000000002DE9F14F04462DED46
:1053F000020B2DED088B8AB09FEDE70B80ED020BC1
:10540000139EE74826F0004585420ADC9DED120B0D
:10541000002084ED000B0AB0BDEC088B03B0BDE8A2
:10542000F08FE0489FEDE0AB9FEDE1BBA84247DD88
:10543000E14F9FEDE39B9FEDE48B9DED120B53EC51
:105440001A2B51EC100B002E1CDD01F0E1FB41EC9E
:10545000100BBD4208D053EC1B2B51EC100B01F08C
:10546000D7FBC4E900010BE053EC192B51EC100BF6
:1054700001F0CEFB53EC182B01F0CAFBC4E900018C
:105480000120C8E700F0E0FE41EC100BBD4208D05F
:1054900053EC1B2B51EC100B00F0D6FEC4E90001BD
:1054A0000BE053EC192B51EC100B00F0CDFE53EC3C
:1054B000182B00F0C9FEC4E900014FF0FF30AAE745
:1054C000C348A84279DB9DED120B51EC100B00F0A4
:1054D000C0FC41EC180B9FEDC00B53EC102B01F0FE
:1054E0008BF99FEDBF1B53EC112B00F0ADFE01F0CB
:1054F000BFF8074601F019F941EC190B53EC1A2BD0
:1055000001F07AF953EC182B01F0AAFA41EC180BD0
:1055100053EC1B2B51EC190B01F06EF9DFF8C8A20C
:1055200041EC100B4FEA15580125FA4453EC102BAF
:1055300051EC180B01F06CFB032DC4E900013DD0C8
:10554000C1F30A5005EB4511A8EB00001139814267
:1055500034DA0AEB051BB0EE48AA9BED000BF0EE27
:1055600068AA53EC102B51EC190B01F045F941ECF2
:105570001B0B51EC1A0B53EC1B2B01F049FB41ECBC
:10558000180B51EC1A0B53EC182B01F041FB53ECA8
:105590001B2B01F03DFB9BED020B41EC1A0B53EC76
:1055A000102B51EC190B01F027F953EC1A2B01F0D9
:1055B0002FFB41EC100B6D1CB8E70EE0002EA8BFCE
:1055C0003846BFF628AF94ED000B51EC100B00F0FD
:1055D000FDFDC4E9000178421DE7C6F3130040F465
:1055E000801EC6F30A50A0F2F530471100F01F05E7
:1055F000C5F12000DDF848B0089000200690079023
:105600000520EC467949002D07EB0002794408BFDC
:1056100051F8221009D051F8223001EB8201AB4041
:105620004A68089922FA01F11943A1FB0E26A1FB51
:105630000B131A449A4234BF0123002303EB0608DC
:105640000CEB8003D3E901A60E448E4234BF012146
:10565000002192448A4411B1924502D903E0924557
:1056600001D2012100E00021C3E901A641444CF828
:105670002010011EA0F10100C4DC029800F10050CE
:10568000850F0298DDE903678000DDF8148001F0E2
:105690004CF841EC1A0B304601F05EF89FED541BBC
:1056A00053EC112B01F0A8F841EC1B0B384601F02C
:1056B00053F89FED511B53EC112B01F09DF841EC79
:1056C000180B404601F048F89FED4D1B53EC112B91
:1056D00001F092F841EC190B51EC180B53EC192B1B
:1056E00000F0B2FD53EC1B2B00F0AEFD53EC1A2B77
:1056F00000F0AAFDCDE90801002008909DED080BFF
:1057000053EC1A2B51EC100B01F082FA53EC1B2BCB
:1057100001F07EFA53EC182B01F07AFA53EC192BB6
:1057200001F09EF99FED381B53EC112B01F064F84A
:105730009FED370B41EC180B53EC102B9DED080B34
:1057400051EC100B01F058F853EC182B00F07CFDD5
:105750009FED310B41EC180B53EC102B9DED080B1A
:1057600051EC100B01F048F853EC182B00F06CFDD5
:1057700041EC100B139810F0004F06D06D4251EC25
:10578000100B00F023FD41EC100B284684ED000BBC
:1057900041E60000000000000000000000000000E2
:1057A000FB21E93F7CD9024000004054FB21F93F36
:1057B0003163621A61B4D03DFB21F93F0000000063
:1057C0000000601A61B4D03D7370032E8A19A33BA8
:1057D000FB2139410000000083C8C96D305FE43F00
:1057E000000000000000E03F621E0000B01D00004D
:1057F000000000000000103E000000000000103C0F
:10580000000000000000103A182D4454FB21F93D1F
:105810003326A611460B113C00000054FB21F93D34
:1058200010B52DED040B2DED088B82B0B0EE419A32
:10583000F0EE619A0B9820F000449FED4BABB4F171
:10584000795F11DA9DED0A0B51EC100B00F010FF9F
:10585000002801BFB0EE4A0AF0EE6A0A02B0BDECC1
:10586000088B04BF04B010BD9DED0A0B53EC102B48
:1058700051EC100B00F0C0FF41EC180B3C48062126
:10588000B0EE480AF0EE680A784400F081F853EC74
:10589000182B51EC100B00F0AFFF9DED0A0B41EC03
:1058A0001B0B53EC192B51EC100B00F0A5FF41EC36
:1058B000190B53EC1B2B51EC180B00F09DFF53EC14
:1058C000192B01F0A5F99FED2C0B41EC190B53ECB2
:1058D000102B51EC180B00F08FFF41EC100B2848F7
:1058E000844210DA53EC192B51EC100B01F090F9B3
:1058F00053EC1A2B01F0B4F841EC100B02B0BDECE4
:10590000088B04B010BD1F48A042BCBF9FED1E1BFA
:105910008DED001B06DBA4F5001001900020009027
:105920009DED001B51EC100B53EC112B01F070F9A5
:105930009DED000B41EC180B53EC102B51EC1A0BA6
:1059400001F066F941EC1A0B53EC192B51EC180BD2
:1059500001F05EF953EC1A2B01F082F841EC100BC8
:10596000CCE7000000000000000000000000F03F55
:10597000CC1A000000000000000000000000E03F22
:105980003333D33F0000E93F000000000000D23F66
:1059900070B504462DED028B4D1E00EBC500B0EE38
:1059A000408AF0EE608A90ED000B35F0060017D0CB
:1059B00053EC182B51EC100B00F01EFF41EC100BB8
:1059C0006D1E04EBC50090ED001B51EC100B53EC69
:1059D000112B00F039FC41EC100B35F00600E7D13B
:1059E000022D36D0042D1CD0062D1CBFBDEC028B21
:1059F00070BD53EC182B51EC100B00F0FDFE94ED34
:105A00000A1B53EC112B00F01FFC53EC182B00F079
:105A1000F3FE94ED081B53EC112B00F015FC41EC48
:105A2000100B53EC182B51EC100B00F0E5FE94ED2D
:105A3000061B53EC112B00F007FC53EC182B00F065
:105A4000DBFE94ED040B53EC102B00F0FDFB41EC5E
:105A5000100B53EC182B51EC100B00F0CDFE94ED15
:105A6000021B53EC112B00F0EFFB53EC182B00F052
:105A7000C3FE94ED001B53EC112B00F0E5FBBDECD5
:105A8000028B41EC100B70BD31B504462DED040BBB
:105A90002DED0A8BB0EE41BAF0EE61BA0B989DED98
:105AA0000A0B20F00040B0F1795F0DDA51EC100BD9
:105AB000FEF7D7FB042808BF00F0CAF89DED0A0BDB
:105AC000BDEC0A8B05B030BD53EC102B51EC100B24
:105AD00000F092FE41EC180B9DED0A0B53EC182BD5
