:020000040800F2
:10000000101B00206902000871020008730200083A
:10001000750200087702000879020008000000005D
:100020000000000000000000000000007B0200084B
:100030007D020008000000007F020008254600083D
:10004000830200088302000883020008830200087C
:10005000830200088302000883020008830200086C
:10006000830200088302000883020008830200085C
:10007000830200088302000883020008830200084C
:10008000830200088302000883020008830200083C
:100090004D0A00088302000883020008830200085A
:1000A000E94B00088302000883020008830200086D
:1000B000830200088302000883020008830200080C
:1000C00083020008830200088302000883020008FC
:1000D00083020008C950000835510008AD510008DE
:1000E00083020008830200088302000883020008DC
:1000F00083020008830200088302000883020008CC
:1001000083020008830200088302000883020008BB
:10011000830200086D500008830200088302000873
:10012000830200088302000883020008830200089B
:10013000830200088302000883020008830200088B
:10014000450E0008830200088302000883020008AD
:100150008302000883020008830200080952000895
:10016000830200088302000883020008830200085B
:10017000830200088302000883020008830200084B
:10018000830200088302000800F002F800F05CF827
:100190000AA090E8000C82448344AAF10107DA45E2
:1001A00001D100F051F8AFF2090EBAE80F0013F0D8
:1001B000010F18BFFB1A43F0010318471077000026
:1001C000307700000A444FF0000C10F8013B13F0A8
:1001D000070408BF10F8014B1D1108BF10F8015BA0
:1001E000641E05D010F8016B641E01F8016BF9D193
:1001F00013F0080F1EBF10F8014BAD1C0C1B09D1EA
:100200006D1E58BF01F801CBFAD505E014F8016B5B
:1002100001F8016B6D1EF9D59142D6D370470000ED
:100220000023002400250026103A28BF78C1FBD8FF
:10023000520728BF30C148BF0B6070471FB507F099
:1002400018F91FBD10B510BD00F0BCF81146FFF73E
:10025000F5FF05F00BFF00F0DAF803B4FFF7F2FF4B
:1002600003BC00F0DDF8000009488047094800475A
:10027000FEE7FEE7FEE7FEE7FEE7FEE7FEE7FEE756
:10028000FEE7FEE704480549054A064B70470000B3
:10029000354900088901000810150020101B0020B6
:1002A0001017002010170020032A40F2308010F0B1
:1002B000030C00F0158011F8013BBCF1020F624401
:1002C00098BF11F801CB00F8013B38BF11F8013B92
:1002D000A2F1040298BF00F801CB38BF00F8013B3F
:1002E00011F0030300F03380083AC0F0088051F8A1
:1002F000043B083A51F804CBA0E80810F5E7121DBA
:100300005CBF51F8043B40F8043BAFF30080D207D8
:1003100024BF11F8013B11F801CB48BF11F8012BA4
:1003200024BF00F8013B00F801CB48BF00F8012BC7
:10033000704770477047704710B500F03BF8006891
:1003400010BD10B5044600F035F8046010BD10B5BE
:10035000203AC0F00B80B1E81850203AA0E81850BD
:10036000B1E81850A0E81850BFF4F5AF5FEA027C7E
:1003700024BFB1E81850A0E8185044BF18C918C0ED
:10038000BDE810405FEA827C24BF51F8043B40F88E
:10039000043B08BF7047D20728BF31F8023B48BF73
:1003A00011F8012B28BF20F8023B48BF00F8012BB1
:1003B0007047000000487047AC14002000487047A8
:1003C000AC1400207546FFF7F9FFAE4605006946FC
:1003D000534620F00700854618B020B5FFF752FFBE
:1003E000BDE820404FF000064FF000074FF0000836
:1003F0004FF0000B21F00701AC46ACE8C009ACE8B7
:10040000C009ACE8C009ACE8C0098D46704710B51A
:100410000446AFF300802046BDE81040FFF71DBF43
:1004200001491820ABBEFEE726000200704700001D
:100430002549097829B980ED010A0021234A117064
:1004400003E0D0ED000AC0ED010A80ED000AD0ED16
:10045000010A70EE600AC0ED020AD0ED050AF1EE65
:10046000600AB0EE001AC0EE811AD0ED020AF4EE76
:10047000E01AF1EE10FA08DDD0ED020A90ED051A4F
:1004800070EE810AC0ED020A14E090ED051AF0EE5C
:10049000001AC1EE210A90ED021AF4EEC10AF1EE43
:1004A00010FA07D2D0ED020A90ED051A70EEC10ADB
:1004B000C0ED020AD0ED060A90ED021A70EE810A34
:1004C000C0ED060A704700003E050020F805002038
:1004D00070B505460C4600260DB1022C00D870BD43
:1004E000611EFF22284601F063FF0646601E2E545F
:1004F00000BFF4E710B54D48007970B14FF42F708C
:100500004B4908604B48007838B14B48D0F8980008
:100510004A4908600020474908704748D0F89800C9
:1005200046490968401AB0F5FA6F12D94048006888
:10053000B0F52F7F0DD14248007850B13C4800689B
:10054000B0F52F7F02D101203E49087000203C49C0
:1005500008703C480078D8B33B4890ED010AD0EDD4
:10056000000AF1EE600A30EE600AB5EEC00AF1EE64
:1005700010FA08DD90ED010AD0ED000AF1EE600AF4
:1005800030EE600A0AE0304890ED010AD0ED000A32
:10059000F1EE600A30EE600AB1EE400AF7EE080AAA
:1005A000B4EEE00AF1EE10FA27D2284890ED010AE5
:1005B000D0ED000A30EE600AB5EEC00AF1EE10FA96
:1005C00007DD90ED010AD0ED000A30EE600A09E087
:1005D00016E01E4890ED010AD0ED000A30EE600AE8
:1005E000B1EE400AF0EE040AB4EEE00AF1EE10FAC1
:1005F00003D201201649087002E000201449087057
:100600000B480068B0F52F7F0ED10E48007858B126
:100610000F48007840B10F480078012804D100212C
:100620000D48007801F0FCFD10BD00003C140020D6
:100630006004002074040020481300204C060020B1
:100640007504002078040020C40E00205803002008
:1006500069040020890E00206C04002010B504F00D
:10066000C1FBA72140F2E73004F0D8FB00F024F8EA
:1006700000F00CFA04F02AF905F0CEFC05F058FE63
:100680004FF4E13005F0D8FE4FF4E12005F08CFF87
:100690004FF4E13005F0F2FC4FF4E12005F098FD55
:1006A0004FF4E12006F02AF801F0D0FB02F0FEFC46
:1006B00002F05CFD10BD000000B589B001210220F0
:1006C00002F046FF0121480602F052FF4FF440704D
:1006D000009002208DF804008DF8050000208DF8B0
:1006E000060001208DF807006946274801F0B8FD93
:1006F00009220821244801F0FBFD09221146224865
:1007000001F0F6FD00208DF81E0001208DF81F007D
:100710008DF8200000208DF821008DF822000120A6
:100720008DF8230000208DF81A008DF81B0008209A
:100730008DF81C0003208DF81D00ADF8180006A9E7
:10074000124800F010FD00208DF812008DF8130003
:1007500001208DF814000020ADF80800ADF80A0063
:10076000ADF80C00ADF80E00ADF8100001208DF8CA
:10077000150002A800F0DAFB01220221034800F074
:10078000E9FC09B000BD0000000402400064004024
:1007900010B52DED068B9E480068B0F5017F7CD02A
:1007A00007DCA0F20120E0B3012877D0022876D13F
:1007B000A4E0A0F20520002872D0A0F2FB100028CF
:1007C000F5D19348007B9249C97A40EA012000EEB6
:1007D000100AB8EEC00ADFED8F0A80EE201A8E48AC
:1007E00080ED001A8A48817B407B41EA002000EEC0
:1007F000100AB8EEC00ADFED870A80EE201A86489C
:1008000080ED011A8248017CC07B41EA002000EEA5
:10081000100AB8EEC00ADFED7F0A80EE201A7E488B
:1008200000E012E080ED021A7948817C407C41EAC8
:10083000002000EE100AB8EEC00ADFED760A80EE66
:10084000201A754880ED031ADEE071480B3001F084
:100850007AFD00EE100AB8EEC00AB0EE402A6F48EA
:10086000FFF7E6FD6D4890ED060A10EE101A0846F7
:1008700006F08EFD41EC1A0B9FED690B53EC102B2B
:1008800006F0E8F841EC190B9FED670B53EC102BC9
:1008900006F088FA41EC180B03E042E01BE0B2E0FE
:1008A00082E005F0F1FF6249486059480B3001F0E1
:1008B00050FD092190FBF1F000EE100AB8EEC00ADD
:1008C0005C4880ED010A5C48B0F87000401C5A4951
:1008D000A1F8700098E04E480B3001F03AFD00EEB0
:1008E000100AB8EEC00A554880ED120A5248B0F816
:1008F0008400401C5049A1F8840085E044480B3036
:1009000001F027FD00EE100AB8EEC00A4B4880ED5A
:10091000230A4948B0F88800401C4749A1F88800DC
:1009200072E03B480B3001F00EFD00EE100AB8EE0D
:10093000C00AB0EE402A39485430FFF779FD3748F5
:1009400090ED1B0A10EE101A084606F021FD41EC4E
:100950001A0B9FED330B53EC102B06F07BF841EC98
:10096000190B9FED310B53EC102B06F01BFA41ECE9
:10097000180B05F089FF2E49C1F8D00024480B3030
:1009800001F0E7FC092190FBF1F000EE100AB8EE4F
:10099000C00A284880ED340A2748B0F87C00401C83
:1009A0002549A1F87C002FE019480B3001F0CBFC61
:1009B00000EE100AB8EEC00AB0EE402A2048FFF759
:1009C00037FD1F4890ED060AB1EE400A1D4880ED44
:1009D000010A0F480B3001F0BCFC00EE100AB8EE23
:1009E000C00A1748D0ED040A80EE201AB1EE410A81
:1009F000154880ED010A1048B0F89000401C0E49DF
:100A0000A1F8900000BF00BF00BFBDEC068B10BD79
:100A1000EC0700200000C84230130020C012002064
:100A2000000000000000C040000000000000444042
:100A3000A0100020B011002048130020900F0020CB
:100A400094040020B0040020F404002010B502211A
:100A50000B4800F0EFFA88B10221094800F012FAC1
:100A6000084A0021064800F008FCFFF791FE0648FE
:100A7000B0F86400401C0449A1F8640010BD0000F7
:100A800000640040EC0700204813002000B589B046
:100A90000121022002F05CFD0121480602F068FD00
:100AA0000121880602F064FD6020009002208DF88C
:100AB00004008DF8050000208DF8060001208DF857
:100AC00007006946274801F0CBFB0922052125488C
:100AD00001F00EFC09220621224801F009FC002049
:100AE0008DF81E0001208DF81F008DF820000020D9
:100AF0008DF821008DF8220001208DF823000020C0
:100B00008DF81B0008208DF81C0003208DF81D00B7
:100B1000ADF8180006A9144800F025FB0E208DF84A
:100B2000120000208DF8130001208DF81400002021
:100B3000ADF80800ADF80A00ADF80C00ADF80E00F5
:100B4000ADF8100001208DF8150002A800F0EEF9B4
:100B50000E208DF8120001220221034800F0FAFA5B
:100B600009B000BD000402400068004010B52DED42
:100B7000068BA2480068A0F2012005287DD2DFE89C
:100B800000F08A9DDFFD03009D48008A401C9C49BF
:100B900008829C480078E8B398480B3001F0D3FBFA
:100BA00000EE100AB8EEC00A974880ED000A90EDFA
:100BB000000A80ED060AD0ED050AB0EE001A80EEBC
:100BC000810AD0ED060A9FED911A70EEC10AB4EECB
:100BD000E00AF1EE10FA08D290ED060AD0ED050A0F
:100BE00030EE600A80ED060A1DE0874890ED050AA8
:100BF000F1EE400AB0EE001A80EE810AD0ED060A4E
:100C00009FED821A70EEC10AB4EEE00AF1EE10FA1E
:100C100009DD00E00BE090ED060AD0ED050A30EEAC
:100C2000200A80ED060A0020764908700CE073481F
:100C30000B3001F088FB00EE100AB8EEC00AB0EEEF
:100C4000402A7148FFF7F4FB6F4890ED060ADFED8C
:100C50006F0A30EE600ADFED6E0A20EE200ADFED4B
:100C60006D0A80EE201A6C4880ED001A63480B3044
:100C700001F06FFB00EE100A00E0BAE0B8EEC00A27
:100C8000664880ED000A6648B0F89400401C64494C
:100C9000A1F89400AEE059480B3001F05AFB00EE89
:100CA000100AB8EEC00A5F4880ED010A5C48B0F84F
:100CB0008000401C5A49A1F880009BE04F480B304F
:100CC00001F041FB00EE100AB8EEC00AB0EE402A77
:100CD0005548FFF7ADFB54481C3890ED0D0A10EE57
:100CE000101A084606F054FB41EC1A0B9FED4F0B0F
:100CF00053EC102B05F0AEFE41EC190B9FED4D0BA4
:100D000053EC102B06F04EF841EC180B05F0BCFD2F
:100D10004A49886439480B3001F01BFB092190FBDC
:100D2000F1F000EE100AB8EEC00A454880ED120A54
:100D30003B48B0F87400401C3949A1F8740059E0F0
:100D40002E480B3001F0FFFA00EE100AB8EEC00A90
:100D5000B0EE402A34481C30FFF76AFB32481C389A
:100D600090ED140A10EE101A084606F011FB41EC43
:100D70001A0B9FED2E0B53EC102B00E026E005F034
:100D800069FE41EC190B9FED2B0B53EC102B06F079
:100D900009F841EC180B05F077FD2849C1F88C00E3
:100DA00016480B3001F0D5FA092190FBF1F000EE66
:100DB000100AB8EEC00A224880ED230A1848B0F89D
:100DC0007800401C1649A1F8780013E00B480B305E
:100DD00001F0BFFA00EE100AB8EEC00A114880ED2B
:100DE000340A0F48B0F88C00401C0D49A1F88C0063
:100DF00000E000BF00BFBDEC068B10BD0008002066
:100E0000E8130020F9050020CC0200200080AA444D
:100E10000000B443000000461C0400202004002011
:100E200048130020900F0020DC120020000000007A
:100E30000000C0400000000000004440A01000205E
:100E4000B011002010B502210B4800F0F3F888B172
:100E50000221094800F016F8084A0021064800F06F
:100E60000CFAFFF783FE0648B0F86800401C0449FE
:100E7000A1F8680010BD00000068004000080020D4
:100E800048130020B1F5007F3AD00FDC202928D08C
:100E900006DC01291CD004291DD0082940D11DE001
:100EA000402921D0B1F5807F3AD126E0B1F5004F3D
:100EB00031D006DCB1F5806F25D0B1F5006F2FD1B0
:100EC00024E0B1F5803F12D0B1F5003F28D111E008
:100ED000154A826025E00822C26022E01022C2602A
:100EE0001FE0082202611CE01022026119E00822C2
:100EF000426016E01022426013E00422426010E0DB
:100F0000042242600DE0042242600AE00022826175
:100F10000422426005E0002282610422426000E077
:100F200000BF00BF704700000101010010B50021A3
:100F3000837A012202FA03F13D4A126842F001026B
:100F40003B4B1A603A4A1C3212688A43384B1C33B6
:100F50001A60027BCAB9364A0C3212688A43344B93
:100F60000C331A604288C38842EA0343304A403255
:100F7000847A42F834300288838842EA03432C4A58
:100F80004032847A02EBC4025360027B012A19D1F9
:100F9000274A0C3212680A43254B0C331A604288E8
:100FA000038842EA0343224A4032847A42F83430CA
:100FB000C288838842EA03431D4A4032847A02EBA6
:100FC000C4025360C27A3AB9194A121D12688A43A0
:100FD000174B1B1D1A6006E0154A121D12680A43C2
:100FE000134B1B1D1A60028932B9114A1432126860
:100FF0008A430F4B14331A600289012A06D10C4A26
:10100000143212680A430A4B14331A60427B012AD5
:1010100006D1074A1C3212680A43054B1C331A607A
:10102000034A126822F00102014B1A6010BD000051
:101030000066004070B504460D46002660692840F1
:10104000002871D0B5F5807F5CD010DC082D35D03C
:1010500006DC012D20D0022D24D0042D72D127E0F2
:10106000102D31D0202D35D0402D6BD138E0B5F585
:10107000004F60D009DCB5F5007F49D0B5F5806F31
:101080004CD0B5F5006F5DD14FE0B5F5803F2DD068
:10109000B5F5003F56D12FE0A0682D4900F00CFDBA
:1010A000064651E0E068032100F006FD06464BE0ED
:1010B000E068082100F000FD064645E0E0681021E8
:1010C00000F0FAFC06463FE02069032100F0F4FC42
:1010D000064639E02069082100F0EEFC064633E0C0
:1010E0002069102100F0E8FC06462DE06068082128
:1010F00000F0E2FC064627E06068102100F0DCFC0E
:10110000064621E0A069012100F0D6FC06461BE05E
:10111000A069022100F0D0FC064615E0A069042178
:1011200000F0CAFC06460FE00FE0A069702100F055
:10113000C3FC064608E06068042100F0BDFC0646DA
:1011400002E0FFE7002600BF00E00026304670BD49
:10115000010101001AB143690B43436102E0436995
:101160008B434361704730B502460020002314686A
:1011700024F002041460146844F00104146000E0D8
:101180005B1C546804F001041CB94FF6FF74A342C1
:10119000F6D1546804F001040CB900206CE08C799D
:1011A000012C04D1146844F08004146003E0146836
:1011B00024F080041460CC79012C04D1146844F02C
:1011C0004004146003E0146824F0400414600C7AB6
:1011D000012C04D1146844F02004146003E0146866
:1011E00024F0200414604C7A012C04D1146844F0DB
:1011F0001004146003E0146824F0100414608C7A66
:10120000012C04D1146844F00804146003E014684D
:1012100024F008041460CC7A012C04D1146844F042
:101220000404146003E0146824F0040414608C784F
:10123000A407CD7844EA05640D7944EA05444D7964
:1012400044EA05540D886D1E2C43D461146824F0C3
:1012500001041460002300E05B1C546804F00104E6
:101260001CB14FF6FF74A342F6D1546804F0010498
:101270000CB1002000E0012030BD10B500F5D8739E
:1012800003EB01131B6803F004031372137A53B9C1
:1012900000F5D87303EB01131B6840F2FF7404EAF6
:1012A0005353136009E000F5D87303EB01131B6877
:1012B0006FF0604404EAD303536000F5D87303EB86
:1012C00001131B6803F00203537200F5D87303EB9C
:1012D00001135B6803F00F03937200F5D87303EBFF
:1012E00001135B681B0AD37400F5D87303EB011379
:1012F0009B68D37200F5D87303EB01139B681C0A3B
:10130000147300F5D87303EB01139B681C0C547322
:1013100000F5D87303EB01139B681B0E937300F564
:10132000D87303EB0113DB68D37300F5D87303EBB9
:101330000113DB681C0A147400F5D87303EB011366
:10134000DB681C0C547400F5D87303EB0113DB68E5
:101350001B0E937421B9C36843F02003C36003E0FC
:10136000036943F02003036110BD2DE9F04385B00C
:1013700081460E4614461D46DDE90C7800208DF8A6
:101380000800009608208DF80A0000208DF809005A
:10139000200A8DF80B00E1B28DF80C10290A8DF8A7
:1013A0000D10E9B28DF80E10390A8DF80F10F9B250
:1013B0008DF810104FEA18218DF8111008F0FF0178
:1013C0008DF812106946484600F003F805B0BDE8F4
:1013D000F08310B502460020936803F08063B3F1F8
:1013E000806F00D110E0936803F00063B3F1006FE9
:1013F00001D1012008E0936803F08053B3F1805FCE
:1014000001D1022000E00420042874D002F5C0734A
:1014100003EB00131B6803F0010402F5C07303EB38
:1014200000131C600B7A7BB94B7A0C8843EA445357
:1014300002F5C07404EB00142468234302F5C07461
:1014400004EB0014236010E00B7A4C6843EAC403F9
:101450004C7A234302F5C07404EB00142468234340
:1014600002F5C07404EB001423608B7A03F00F03C1
:101470008B7202F5C07303EB00135B6823F00F045B
:1014800002F5C07303EB00135C6002F5C07303EB5D
:1014900000135B688C7A234302F5C07404EB0014DC
:1014A00063608B7B1C064B7B44EA03440B7B44EA62
:1014B0000323CC7A234302F5C07404EB0014A36029
:1014C0008B7C1C064B7C44EA03440B7C44EA0323DC
:1014D000CC7B234302F5C07404EB0014E36002F5F7
:1014E000C07303EB00131B6843F0010402F5C073E3
:1014F00003EB00131C6010BD10B52DED068B0446E8
:1015000094ED000AD4ED010A30EE600A84ED080A79
:1015100094ED0A0AD4ED080A30EE200A84ED0A0A96
:10152000D4ED0E1AB0EE611AD4ED0E1AF1EE611A76
:10153000F0EE610AD4ED0A1AB0EE610A00F0C5FAC5
:1015400084ED0A0A94ED030AD4ED0A0A20EE200A7B
:1015500084ED060AD4ED021A94ED082A61EE821A8F
:10156000B0EE610AD4ED0D1AB0EE611AD4ED0D1A89
:10157000F1EE611AF0EE610A00F0A7FA84ED050AB7
:10158000D4ED081A94ED092A71EEC21A94ED042ADA
:1015900061EE821AB0EE610AD4ED0F1AB0EE611A54
:1015A000D4ED0F1AF1EE611AF0EE610A00F08DFA37
:1015B00084ED070A94ED100A10EE101A084605F0A3
:1015C000E7FE41EC180B94ED080A10EE101A0846DD
:1015D00005F0DEFE41EC1A0BB0EE4A0AF0EE6A0AA4
:1015E00004F01EFCB0EE409AF0EE609A53EC182B1B
:1015F00051EC190B05F09AFB03D29FED140A84ED10
:101600000A0A94ED050AD4ED060A30EE200AD4ED5C
:10161000070A30EE200A84ED0B0A94ED080A84EDE7
:10162000090AD4ED0C1AB0EE611AD4ED0C1AF1EEE1
:10163000611AF0EE610AD4ED0B1AB0EE610A00F007
:1016400044FA84ED0B0ABDEC068B10BD00000000CF
:1016500010B52DED068B044694ED000AD4ED010A79
:1016600030EE600A84ED080A94ED100A10EE101AAC
:10167000084605F08DFE41EC180B94ED080A10EEBB
:10168000101A084605F084FE41EC1A0BB0EE4A0A27
:10169000F0EE6A0A04F0C4FBB0EE409AF0EE609AF5
:1016A00053EC182B51EC190B05F040FB07D294EDCD
:1016B0000A0AD4ED080A30EE200A84ED0A0AD4EDB5
:1016C0000E1AB0EE611AD4ED0E1AF1EE611AF0EEB8
:1016D000610AD4ED0A1AB0EE610A00F0F6F984ED61
:1016E0000A0A94ED030AD4ED0A0A20EE200A84EDDA
:1016F000060AD4ED021A94ED082A61EE821AB0EEC1
:10170000610AD4ED0D1AB0EE611AD4ED0D1AF1EEA6
:10171000611AF0EE610A00F0D8F984ED050AD4ED03
:10172000081A94ED092A71EEC21A94ED042A61EEAA
:10173000821AB0EE610AD4ED0F1AB0EE611AD4ED40
:101740000F1AF1EE611AF0EE610A00F0BEF984EDB5
:10175000070A94ED050AD4ED060A30EE200AD4ED0E
:10176000070A30EE200A84ED0B0A94ED080A84ED96
:10177000090AD4ED0C1AB0EE611AD4ED0C1AF1EE90
:10178000611AF0EE610AD4ED0B1AB0EE610A00F0B6
:101790009CF984ED0B0ABDEC068B10BD30B52DED28
:1017A000108B83B004469FED7B0AB0EE40FA94EDB7
:1017B000000AD4ED060A30EE600A84ED020A94EDC8
:1017C000030AD4ED040A20EE200AB0EE408A94ED1C
:1017D000040A20EE080A10EE105A94ED020AD4ED25
:1017E000040A94ED011A00EE810AF0EE408A18EE28
:1017F000900A05F0CDFD41EC1E0BB0EE4E0AF0EE66
:101800006E0A04F00DFBB0EE40DAF0EE60DA94ED13
:10181000030AF2EE000A20EE200A10EE101A084623
:1018200005F0B6FD53EC1D2BCDE900019DED000B3D
:1018300051EC100B05F0B6FA41EC1B0B28EE080A30
:1018400010EE101A084605F0A3FD41EC1C0B53ECFA
:101850001B2B05F04BF841EC1A0BB0EE4A0AF0EEE8
:101860006A0A04F0E7FAB0EE409AF0EE609A51ECA2
:10187000190B05F009F80290284605F089FD41ECA6
:10188000190B18EE900A05F083FD41EC1B0BB0EE2E
:101890004B0AF0EE6B0A04F0C3FAB0EE40AAF0EE89
:1018A00060AA53EC192B51EC1A0B05F079FB18D2F6
:1018B000B0EE680A02F092FC00EE100AF8EEC00AE0
:1018C0009DED020A30EE480A60EE800AB0EE001A82
:1018D00080EE810AD4ED010A30EE200AB0EE40FA23
:1018E00009E0D4ED040A88EEA00AD4ED010A30EE36
:1018F000200AB0EE40FA18EE100A05F049FD41EC5E
:10190000190B1FEE100A05F043FD41EC1B0BB0EE66
:101910004B0AF0EE6B0A04F083FAB0EE40AAF0EE48
:1019200060AA53EC192B51EC1A0B05F039FB10D2BD
:10193000B0EE4F0A02F052FC00EE100AB8EEC00AF8
:10194000D4ED030ABFEE001A60EE810A60EE20FAC1
:1019500009E094ED030AFFEE000A20EE200A20EED3
:101960000F0AC0EE08FA94ED000AD4ED050A94EDD2
:10197000011A00EE810A84ED000A94ED010AD4ED0B
:10198000050A00EEAF0A84ED010A03B0BDEC108B2E
:1019900030BD0000000000001CB53F4800780A2858
:1019A00029D2DFE800F0050C131A2828282828215E
:1019B000002002F003FB002002F02CFD1CE00320BD
:1019C00002F0FCFA002002F025FD15E0022002F0F2
:1019D000F5FA022002F01EFD0EE0012002F0EEFA00
:1019E000012002F017FD07E0022002F0E7FA0220D2
:1019F00002F010FD00E000BF00BF284890ED3E0A55
:101A0000BDEEC00A10EE100A00B2254991ED2D0A74
:101A1000BDEEC00A10EE101A09B2CDE90010204840
:101A200090ED1C0ABDEEC00A10EE100A03B21B486E
:101A300090ED0B0ABDEEC00A10EE100A02B24FF490
:101A400000711848FFF791FC154890ED3E0ABDEE75
:101A5000C00A10EE100A00B2104991ED2D0ABDEE39
:101A6000C00A10EE101A09B2CDE900100B4890ED33
:101A70001C0ABDEEC00A10EE100A03B2084890ED31
:101A80000B0ABDEEC00A10EE100A02B24FF400714C
:101A90000548FFF76AFC1CBD3E050020B011002080
:101AA000900F0020006400400068004010B5FFF770
:101AB00073FF02F0F5FA10BD0246002002EA0103AE
:101AC0000BB1012000E000207047F0EE401AF4EE68
:101AD000E01AF1EE10FA02D2B0EE600A09E0F4EE7C
:101AE000C11AF1EE10FA02DDB0EE410A01E0B0EEEB
:101AF000610A70470246094B9A4201D2084801E048
:101B00000648103801F000531BB1064B0B40C36070
:101B100002E0044B0B4083607047000010640240F9
:101B2000006002407D0F7D0F21B1026842F001028A
:101B3000026003E0026822F00102026070470000C8
:101B4000016821F0010101600021016041608160B4
:101B5000C1600161212141614A49884204D13D218E
:101B6000484A103A91608CE046491831884205D1C4
:101B70004FF47461434A103A916082E04149303138
:101B8000884205D14FF474113E4A103A916078E0D2
:101B90003C494831884205D14FF07461394A103AC6
:101BA00091606EE037496031884204D13649354A48
:101BB000103AD16065E033497831884204D1334925
:101BC000304A103AD1605CE02E499031884204D10D
:101BD0002F492C4A103AD16053E02A49A831884253
:101BE00005D14FF03D51274A103AD16049E02949CB
:101BF000884204D13D21274A083A116041E0254935
:101C00001831884205D14FF47461224A083A1160B4
:101C100037E020493031884205D14FF474111D4A14
:101C2000083A11602DE01B494831884205D14FF038
:101C30007461184A083A116023E0164960318842FD
:101C400004D11149134A121F11601AE01149783169
:101C5000884204D10D490F4A121F116011E00D494D
:101C60009031884204D10A490A4A121F116008E0E3
:101C70000849A831884204D14FF03D51054A121F4E
:101C800011607047106002403D000020400F0020AE
:101C900000003D2010640240014600200A6802F066
:101CA00001020AB1012000E00020704701464868A7
:101CB00080B2704710B500220268134B1A40CC68FE
:101CC0000B6823434C6923438C692343CC6923432A
:101CD0000C6A23434C6A23438C6A23434C6B234393
:101CE0008C6B23431A430260426922F00702D1E958
:101CF0000B3423431A4342610B6943604B68836092
:101D00008B68C36010BD00003F801CF010B52548F3
:101D10000078072803D109202349887006E021486C
:101D200000786B2802D10A201F49887004201E49C0
:101D3000C8701E4890ED010A1D4880ED000A084653
:101D400080ED010A1B4890ED010A1B4880ED000A56
:101D5000084680ED020A194890ED000A184880ED07
:101D6000000A084680ED030A00F0FCFD154880EDEE
:101D7000000A0D4880ED040A13491448FFF7BAFE23
:101D800000211248FFF7D0FE074810490C310860C7
:101D900016200E49091D086001210C48FFF7C4FEFA
:101DA00010BD0000B001002040020020C40E002041
:101DB000A002002058030020A4020020B40100204B
:101DC000A8020020AC02002000802020A064024075
:101DD000F0EE400A1B4A12788A4203DD0022194BBA
:101DE0001A7017E0174A127800EB820292ED000A8F
:101DF000154A92ED001A31EE400A82ED000A114AAE
:101E0000127800EB8202C2ED000A0E4A1278521CD0
:101E10000C4B1A700B4A1278521E00EB820292EDA4
:101E2000000A094A92ED001A30EE010A82ED000A1A
:101E300092ED001A00EE101AF8EE401A81EE210A17
:101E40007047000000060020FC05002000200AE08A
:101E50009FED060AC0EBC001054A02EB810181ED4E
:101E6000050A411CC8B20428F2DB70470000004696
:101E7000C012002090ED001AB4EEC01AF1EE10FA74
:101E800001D2002109E090ED001AB4EEC01AF1EE83
:101E900010FA01DD012100E00221C9B990ED001A1C
:101EA000B4EEC01AF1EE10FA02DB80ED000A2AE06F
:101EB00090ED001A31EE201A80ED001A90ED001A14
:101EC000B4EEC01AF1EE10FA1DDB80ED000A1AE044
:101ED000012918D190ED001AB4EEC01AF1EE10FAF3
:101EE00002D880ED000A0EE090ED001A31EE601A83
:101EF00080ED001A90ED001AB4EEC01AF1EE10FA5F
:101F000001D880ED000A70478C4841F268020168F0
:101F1000881A91427ED014DC40F63402A1EB020014
:101F200091424AD006DCB1F52F7F18D0B1F5AF6FE2
:101F300071D12BE0B0F52F7F56D0B0F5AF6FF7D150
:101F40006DE0B0F52F7F67D0B0F5AF6F7ED0A0F613
:101F5000340000287BD0B0F52F7FE9D1D4E0784859
:101F600090ED1E0A774880ED000A754890ED000A52
:101F7000B1EE400A744880ED000A012073490870F0
:101F8000734890F8980073490870D5E06C4890ED5C
:101F90001F0A6C4880ED000A694890ED010AB1EE15
:101FA000400A694880ED000A0220684908706848C4
:101FB00090F8980067490870BEE0614890ED200AEB
:101FC000604880ED000A5E4890ED020AB1EE400ADA
:101FD0005D4880ED000A03205C4908705C4890F879
:101FE00098005C490870A7E0554890ED210A5548D3
:101FF00080ED000A524890ED030AB1EE400A5248C3
:1020000080ED000A042051490870514890F898006A
:10201000504902E01CE08EE031E008708CE0484856
:1020200090ED220A474880ED000A454890ED040AE9
:10203000B1EE400A444880ED000A0520434908708B
:10204000434890F898004349087075E02EE044E05A
:102050003B4890ED230A3B4880ED000A384890ED5C
:10206000050AB1EE400A384880ED000A06203749DB
:102070000870374890F89800364908705CE030489E
:1020800090ED240A2F4880ED000A2D4890ED060AB5
:10209000B1EE400A2C4880ED000A07202B49087059
:1020A0002B4890F898002B49087045E0244890EDA3
:1020B000250A244880ED000A214890ED070AB1EE78
:1020C000400A214880ED000A082020490870204875
:1020D00090F898001F4908702EE0194890ED260AE4
:1020E000184880ED000A164890ED080AB1EE400A43
:1020F000154880ED000A092014490870144890F82A
:1021000098001449087000BF0D4890ED270A0D484B
:1021100080ED000A0A4890ED090AB1EE400A0A482B
:1021200080ED000A0A2009490870094890F89800D3
:102130000849087000BF00BF00BF70475C06002060
:102140006406002018040020C40E0020570600205A
:10215000481300205806002010B52DED048B0024F4
:1021600048E0C4EBC400264A02EB800090ED000A70
:10217000244800EB8400D0ED000A30EE600A10EE37
:10218000101A084605F004F941EC190BB0EE490AA3
:10219000F0EE690A03F044FEB0EE408AF0EE608A89
:1021A0009FED190B53EC102B51EC180B04F0BEFDF6
:1021B00009D89FED170A04EB0410164901EB8000C3
:1021C00080ED0C0A15E09FED140A04EB0410114990
:1021D00001EB800080ED0C0A04EB04100F4901EBC9
:1021E000800090ED010A04EB041001EB800080ED0B
:1021F000000A641C042CB4D3BDEC048B10BD000099
:10220000C01200205C0700200000000000007940A0
:1022100000C05A45B011002000000000A0100020AE
:1022200010B5B1B94FF47A7292FBF0F2094BD3F8C2
:102230009830094C24681B1B9A420AD2074A12881C
:10224000521C12B2054B1A80024AD2F89820024B57
:102250001A6010BD481300205006002064040020BE
:10226000F0B50A4600210023002400BF3DE001250F
:1022700005FA01F3156805EA03049C4234D10568A8
:102280004F000326BE40B543056015794E00B540AA
:102290000668354305601579012D02D01579022DA8
:1022A00016D185684F000326BE40B5438560557939
:1022B0004E00B540866835438560456801268E40EE
:1022C000B5434560456896798E40B6B23543456062
:1022D000C5684F000326BE40B543C560D5794E00A2
:1022E000B540C6683543C560491C1029BFD3F0BD51
:1022F000F0B5002300244D07ED0E02FA05F3CE10D1
:1023000000F1200555F826504E07F70E0F26BE4067
:10231000B543CF1000F1200646F82750CE1000F14B
:10232000200555F8265045EA0304CE1000F120059B
:1023300045F82640F0BD41837047018370474269EC
:102340004A404261704701464A780B7842EA0320CE
:10235000704710B501464FF6FF728B7803F080038B
:102360003BB113048C7843EA0423CC7843EA04009D
:1023700003E0CB788C7843EA042010BD30B50346E7
:1023800013B94FF6FF7030BD09E013F8014B82EA34
:102390000400C0B2054D35F8100080EA2222081E64
:1023A000A1F10101F1D11046EDE7000088750008A8
:1023B00030B5034605E013F8010B80EA0204044837
:1023C000025D081EA1F10101F5D1104630BD0000EB
:1023D0008774000810B52648007818B900202549F0
:1023E000C87105E022480078012801D12149C8714F
:1023F00021480078401CC0B21F4908701F49097865
:10240000884210D11E48006841F65831884202D1F6
:1024100000201B4908600020174908701848006810
:10242000401C174908601348C078A0B11148C07912
:1024300088B914480068401C1249086012480078A6
:10244000092802D1FFF760FD05E00F480078022857
:1024500001D100F0A1F80748C07838B10548C0792B
:1024600020B100200749086000F010F810BD0000FE
:10247000890E00203C14002056060020550600203E
:102480005C060020600600203E0500200548D0F8CC
:102490000100054908600348D0F8050003490860B9
:1024A00070470000890E0020C40E00201804002090
:1024B0001CB53148C08FB0F5617F39DB2E48C08F25
:1024C000B0F57A7F34DC2D48007858B99FED2C0A9E
:1024D0002C4880ED0C0A2C4890ED010A2B4880ED29
:1024E000000A35E02548007801280AD1F2EE040AF6
:1024F0009FED270A23483030FFF7BCFC00F04CF872
:1025000026E01E480078022807D01C4800780328DF
:1025100003D01A48007809281AD1F2EE040A9FED78
:102520001C0A18483030FFF7A5FCFFF753FF0FE0F7
:102530001148C08FB0F5617F0ADA9FED110A11488A
:1025400080ED0C0A104890ED010A104880ED000A59
:1025500003F0B2F90020009001900A4890ED0B0AB8
:10256000BDEEC00A10EE100A02B2002340F2FF11C5
:102570000848FEF7FAFE1CBD481300203E05002067
:10258000000000009C0300205803002018040020D5
:1025900000C0DA460068004010B52DED088B012020
:1025A0006B4908706B480088A0F58060002804DD46
:1025B00068480088A0F5806003E066480088C0F5A0
:1025C0008060142803DA4FF4806062490880614813
:1025D0004088A0F58060002804DD5E484088A0F5B2
:1025E000806003E05B484088C0F58060142803DA0F
:1025F0004FF480605749488056484088A0F5806075
:10260000E8B35548C078012841D151480078B8B1A5
:1026100050484088A0F5806000EE100AF8EEC00A2D
:102620009FED4E1A80EE810AB3EE091AC0EE010A40
:102630004B4890ED000A30EE600A80ED000A16E08B
:1026400044484088A0F5806000EE100AF8EEC00A09
:102650009FED421A80EE810AF2EE080A80EE201AFF
:102660003F4890ED000A30EE410A80ED000A3C48F8
:10267000D0ED000AB0EE600AB3EE0E1A00E006E0FC
:10268000FBEE0E0AFFF721FA354880ED000A3148CB
:102690000088A0F5806088B32F48C078012853D106
:1026A0002B48007858B32B480088A0F5806000EED6
:1026B000100AB8EEC00ADFED290A80EE201A11EEEA
:1026C000104A204604F064FE41EC1B0B9FED250BE5
:1026D00053EC102B04F066FB41EC190B2348006807
:1026E00004F056FE41EC1A0B53EC192B04F066FD76
:1026F00041EC180B04F0C8F81C49086024E01548A8
:102700000088A0F5806000EE100AB8EEC00ADFED88
:10271000130A80EE201A9FED160A21EE000ADFED63
:10272000150A60EE200A9FED141A80EE810A9FEDD3
:10273000131AC0EE010A0D4890ED000AB7EE081A10
:1027400000EEC10A80ED000ABDEC088B10BD000050
:1027500054070020B20D00203C1400200000254446
:10276000C40E00209A9999999999A93F18040020BC
:1027700000806D450000B443000000460000AF44F7
:1027800010B52E480078552857D12C48407800289D
:1027900053D11B21294802F05DFF00284DD01C2297
:1027A00026492748FDF780FD2548D0F8020000EEB5
:1027B000100AB1EE400A234880ED000A90ED000AAD
:1027C0002148FDF735FE204890ED060A1F4880EDB0
:1027D000010A1B48D0F816001D4908601848D0F8B7
:1027E0000E001C4948601648D0F812001A490860CB
:1027F0001348807E19490870194890ED000ADFEDF2
:10280000190AB4EEE00AF1EE10FA05D20C48D0F83D
:1028100006001549086009E00948D0F8060000EEF6
:10282000100AB1EE400A104880ED000A0F48B0F8D7
:102830005800401C0D49A1F8580010BDDA0D0020C9
:102840000202002024040020E0030020580300209E
:1028500034040020C40E002030040020680500204D
:102860002C0400200000B44228040020481300205B
:1028700010B52A48D0ED000AB0EE600A002000F042
:1028800067FD10EE100A2649C1F836002548006899
:10289000C1F82A002448B0F9001021488184234857
:1028A000008801B21E4841842148C1781C488177C4
:1028B0001F4801791A48C1771D48C179184880F826
:1028C00020101C48B0F900101548C1841A48B0F90E
:1028D000001013480185194800681149C1F82E00FD
:1028E00017480068C1F832001F210D481C30FDF761
:1028F000EFFD14491448FFF7FDF800211248FFF7D7
:1029000013F907481C301049583948661F20C8651C
:1029100001210D48FFF708F910BD0000C40E00208A
:10292000020200201804002064040020600400203B
:102930003C1400209E010020A0010020B4010020D2
:10294000B8010020008000185860024010B5FFF761
:10295000AFFD03488089401C0149888110BD0000FB
:102960004813002070B5F74D2D78072D7AD1F64D1C
:102970002D886DB9F54D2D8A002D09DDF44DD5F862
:102980009850F44E35600025F34E3570002418E061
:10299000EF4DD5F89850EF4E3668AD1B42F21076E9
:1029A000B5420DD90125EC4E3570E84D2D8A5A2DD2
:1029B00004DCE64D2D8A0DB1012402E0002400E084
:1029C0000024E64D2D886DB9E04D6D8A002D09DD9E
:1029D000DF4DD5F89850E24E35600025E14E357058
:1029E000002118E0DA4DD5F89850DD4E3668AD1B61
:1029F00042F21076B5420DD90025DA4E3570D34D2E
:102A00006D8A642D04DCD14D6D8A0DB1022102E086
:102A1000002100E00021D44D2D886DB9CB4DAD8A49
:102A2000002D09DDCA4DD5F89850D04E35600025EF
:102A3000CF4E3570002219E0C54DD5F89850CB4ED9
:102A40003668AD1B42F21076B5420ED90125C84E4C
:102A50003570BE4DAD8A462D05DCBC4DAD8A15B135
:102A6000032203E06BE0002200E00022C14D2D882C
:102A70006DB9B64DED8A002D09DDB54DD5F89850EC
:102A8000BD4E35600025BD4E3570002318E0B04DB9
:102A9000D5F89850B84E3668AD1B42F21076B54264
:102AA0000DD90125B54E3570A84DED8A462D04DCB3
:102AB000A64DED8A0DB1042302E0002300E00023BF
:102AC000AF4D2D886DB9A14D2D8B002D09DDA04D89
:102AD000D5F89850AB4E35600025AB4E35700020D0
:102AE00018E09B4DD5F89850A64E3668AD1B42F2C3
:102AF0001076B5420DD90125A34E3570934D2D8B1F
:102B0000462D04DC914D2D8B0DB1052002E00020F7
:102B100000E000208D4D2D8A8B4E35808B4D6D8AC7
:102B20008E4E3580894DAD8A8F4E3580874DED8A2A
:102B3000904E3580854D2D8B914E3580E9E0814D4D
:102B40002D786B2DFAD1804D2D886DB97F4D2D8854
:102B5000002D09DD7E4DD5F898507E4E356000255C
:102B60007D4E3570002418E0794DD5F89850794E97
:102B70003668AD1B42F21076B5420DD90125764E6E
:102B80003570724D2D885A2D04DC704D2D880DB195
:102B9000012402E0002400E00024704D2D886DB96E
:102BA0006A4D6D88002D09DD694DD5F898506C4E41
:102BB000356000256B4E3570002118E0644DD5F866
:102BC0009850674E3668AD1B42F21076B5420DD96B
:102BD0000125644E35705D4D6D88642D04DC5B4DC0
:102BE0006D880DB1022102E0002100E000215E4D60
:102BF0002D886DB9554DAD88002D09DD544DD5F8A2
:102C000098505A4E35600025594E3570002218E014
:102C10004F4DD5F89850554E3668AD1B42F21076A0
:102C2000B5420DD90125524E3570484DAD88462D1F
:102C300004DC464DAD880DB1052202E0002200E023
:102C400000224C4D2D886DB9404DED88002D09DDD9
:102C50003F4DD5F89850484E35600025474E3570A9
:102C6000002318E03A4DD5F89850434E3668AD1B16
:102C700042F21076B5420DD90125404E3570334DE4
:102C8000ED88462D04DC314DED880DB1042302E0C2
:102C9000002300E000233A4D2D886DB92B4D2D897E
:102CA000002D09DD2A4DD5F89850364E35600025A7
:102CB000354E3570002018E0254DD5F89850314E2E
:102CC0003668AD1B42F21076B5420DD901252E4E65
:102CD00035701E4D2D89462D04DC1C4D2D890DB1FE
:102CE000052002E0002000E00020184D2D88164E3F
:102CF0003580164D6D88194E3580144DAD881A4EAD
:102D00003580124DED881B4E3580104D2D891C4E9F
:102D1000358042F21075654301EB4106C6EBC116E2
:102D200005EBC60502EBC20606EB021605EB8605AF
:102D300003EB830605EB4605054400EE105AB8EE9A
:102D4000C00A70BDB00100200C060020CF0C00208E
:102D500048130020100600209005002014060020D3
:102D600018060020910500201C06002020060020E7
:102D7000920500202406002028060020930500204C
:102D80002C060020300600209405002010B50024F9
:102D90004C480068401C4B4908604B484078E0B103
:102DA000084600689621B0FBF1F201FB120098B9C9
:102DB0004FF400414548FFF7C0FA4FF480414348C3
:102DC000FFF7BBFA4FF400514048FFF7B6FA4FF453
:102DD00080513E48FFF7AFFA01243B488078E0B1CC
:102DE00038480068C821B0FBF1F201FB120098B925
:102DF0004FF400413548FFF7A0FA4FF40051334833
:102E0000FFF79BFA4FF480513048FFF796FA4FF4E2
:102E100080412E48FFF78FFA01242B48C07810B963
:102E200029480079E0B127480068FA21B0FBF1F2A7
:102E300001FB120098B94FF400412448FFF77DFAD6
:102E40004FF480412148FFF778FA4FF480511F4832
:102E5000FFF773FA4FF400511C48FFF76CFA012496
:102E60001948007870B1174800686421B0FBF1F28E
:102E700001FB120020B94FF400611448FFF75FFA1C
:102E8000012404E04FF400611048FFF756FAC4B97A
:102E90004FF480410D48FFF750FA4FF400510B48B2
:102EA000FFF74BFA4FF480510848FFF746FA4FF40A
:102EB00000610648FFF741FA4FF400410348FFF76D
:102EC0003AFA10BD400600203805002000100240EC
:102ED00010B5FFF75BFF0348808D401C01498885D2
:102EE00010BD00004813002010B55848807A022811
:102EF00003D15648C07A022807D05448807A012866
:102F00000FD15248C07A01280BD1002050490870D7
:102F100001221146104600F0ADF8002001F0E0F962
:102F20006AE04A48807A02280FD14848C07A0328CC
:102F30000BD101204649087000220121104600F003
:102F400099F8012001F0CCF956E04048807A022837
:102F50000FD13E48C07A01280BD102203C490870AD
:102F600000221146104600F085F8012001F0B8F962
:102F700042E03648807A03280FD13448C07A0128CD
:102F80000BD103203249087000221146104600F090
:102F900071F8012001F0A4F92EE02C48807A032872
:102FA00007D12A48C07A022803D104202849087092
:102FB00022E02648807A032807D12448C07A0228D4
:102FC00003D105202249087016E02048807A0128A4
:102FD00007D11E48C07A022803D106201C49087078
:102FE0000AE01A48807A012806D11848C07A0328D6
:102FF00002D1072016490870164800780421B1EB69
:10300000101F0ED11448C08E58B9092010490870FD
:1030100000221146104600F02DF8012001F060F961
:1030200013E00C4800780521B1EB101F0DD10A48C0
:10303000C08E50B900200649087001221146104682
:1030400000F018F8002001F04BF910BDB20D00207F
:103050003E050020C40C00204813002010B5FFF7E7
:1030600043FF03480089401C0149088110BD00004E
:103070004813002010B518B100230B4CE37002E098
:103080000123094CE37019B10023074C237202E0BD
:103090000123054C23721AB10023034CA37202E0F2
:1030A0000123014CA37210BD3C14002000204EE00F
:1030B000B2EE040A00EB0011264A02EB810181ED19
:1030C000020A9FED250A00EB001102EB810181ED60
:1030D0000C0A9FED210A00EB001102EB810181ED4A
:1030E0000D0AB2EE040A00EB00111C4A02EB81014A
:1030F00081ED020A9FED1A0A00EB0011194A02EB5A
:10310000810181ED020A9FED180A00EB0011134ABC
:1031100002EB810181ED0C0A9FED130A00EB001117
:1031200002EB810181ED0D0A9FED0B0A00EB00110E
:103130000C4A02EB810181ED0C0A9FED070A00EBBE
:10314000001102EB810181ED0D0A411CC8B2042877
:10315000AEDB7047900F00200000FA45A010002061
:103160000000C842B01100200000FA4408B54FF436
:10317000407000F0CBF825208DF8000000208DF87D
:1031800001008DF8020001208DF80300684600F070
:1031900081F826208DF8000000208DF801008DF8C0
:1031A000020001208DF80300684600F073F8272024
:1031B0008DF8000000208DF801008DF8020001203C
:1031C0008DF80300684600F065F834208DF80000A3
:1031D00000208DF801008DF8020001208DF8030019
:1031E000684600F057F835208DF8000000208DF873
:1031F00001008DF8020001208DF80300684600F000
:1032000049F847208DF8000000208DF801008DF866
:10321000020001208DF80300684600F03BF83A20D8
:103220008DF8000000208DF801008DF802000120CB
:103230008DF80300684600F02DF814208DF800008A
:1032400001208DF8010000208DF8020001208DF88A
:103250000300684600F01EF840208DF800000120B1
:103260008DF8010000208DF8020001208DF8030088
:10327000684600F00FF818208DF8000000208DF847
:1032800001008DF8020001208DF80300684600F06F
:1032900001F808BD70B5002100230F22C4781CB3CB
:1032A000174C246804F4E064C4F5E064C4F3072117
:1032B000C1F10404E3B20A4144789C40E1B284784D
:1032C000144021430C07210E0E4C057861550478FB
:1032D00004F01F050124AC4005786D11AD0005F127
:1032E000E025C5F8004109E0047804F01F05012439
:1032F000AC40054D0678761145F8264070BD0000BB
:103300000CED00E000E400E080E100E00249014350
:10331000024A1160704700000000FA050CED00E061
:103320000948007855280ED10748407858B9074811
:10333000054989780170401C03494A6802608A681F
:103340004260C96881607047150E0020B60E0020EB
:10335000F0EE400AC8B10E490A780978491E0C4BB4
:1033600019701AB10B4991ED000A70470A490968B2
:103370000F22B1FBF2F302FB1311054A117005494C
:10338000C1ED000A91ED000AEFE7B0EE600AECE74C
:103390000106002004060020240C0040CBE000249D
:1033A000C4E004EBC400644901EB8000007A00280B
:1033B0007DD16248006804EBC4015F4A02EB8101E1
:1033C0000969401A04EBC40102EB810148615B48C2
:1033D000006804EBC40102EB8101086104EBC40145
:1033E00002EB810148688047012004EBC401524A86
:1033F00002EB810108725148006804EBC40102EB42
:1034000081010969401A04EBC40102EB8101886162
:1034100004EBC400114601EB8000C06904EBC40159
:1034200002EB81018969884206D904EBC400114688
:1034300001EB8000C06905E004EBC4003E4901EBEC
:103440008000806904EBC4013B4A02EB8101C86142
:1034500004EBC400114601EB8000006A04EBC401D8
:1034600002EB81018969884206D204EBC40011464F
:1034700001EB8000006A05E004EBC4002E4901EB7B
:103480008000806904EBC4012B4A02EB81010862D1
:1034900004EBC400114601EB8000806928490968EB
:1034A00008442749086004EBC400114600E012E01C
:1034B00001EB8000C069234909680844214908607C
:1034C00004EBC400114601EB8000006A1E49096844
:1034D00008441D490860002522E01848006805EBF3
:1034E000C501154A02EB81010969401A05EBC501C6
:1034F00002EB8101C968884211D305EBC500114672
:1035000001EB8000007A022809D0002005EBC501FC
:1035100002EB81010872AC4201D96C1E04E06D1C03
:103520000A4800688542D8D300BF641C0748006879
:103530008442FFF436AF32E70C000020240C004038
:10354000000000200400002008000020740100207A
:1035500029B1064A12680243044B1A6004E0034A88
:1035600012688243014B1A607047000030380240F5
:1035700029B1064A12680243044B1A6004E0034A68
:1035800012688243014B1A607047000040380240C5
:1035900029B1064A12680243044B1A6004E0034A48
:1035A00012688243014B1A607047000020380240C5
:1035B00029B1064A12680243044B1A6004E0034A28
:1035C00012688243014B1A60704700004438024081
:1035D00029B1064A12680243044B1A6004E0034A08
:1035E00012688243014B1A60704700002438024081
:1035F000F0B5002100220024022500260223324FCC
:103600003F6807F00C0121B1042905D0082937D102
:1036100005E02E4F076036E02D4F076033E02A4F5C
:103620003F1F3F68C7F38056274F3F1F3F6807F093
:103630003F036EB1264FB7FBF3F7DFF88CC0ACF158
:10364000040CDCF800C0CCF3881C07FB0CF40CE085
:103650001E4FB7FBF3F7DFF870C0ACF1040CDCF8D9
:1036600000C0CCF3881C07FB0CF4174F3F1F3F68CA
:10367000C7F301477F1C7D00B4FBF5F7076002E04C
:10368000124F076000BF00BF0F4F3F6807F0F00107
:103690000909104F7A5C0768D74047600A4F3F68B6
:1036A00007F4E051890A0B4F7A5C4768D74087607E
:1036B000054F3F6807F46041490B064F7A5C476845
:1036C000D740C760F0BD0000083802400024F40075
:1036D00000127A00B40700200178427841EA022102
:1036E000C1F30A011B4A11804178C910827841EA6E
:1036F0004211C1F30A01174A5180C1788911C27879
:1037000041EA8201027941EA8221C1F30A01114AA8
:10371000918001794910427941EAC211C1F30A014D
:103720000C4AD180017C427C41EA0221C1F30A01AA
:10373000084A118141790911890891724179C1F3CF
:103740000111D1720449B1F84C10491C024AA2F887
:103750004C107047B20D00204813002010B54248AD
:103760000089A0F58060B0F5967F0FDD3F480079B5
:1037700018B14FF42F703E4908603E48D0F89800C9
:103780003D49086001203D49087010E03648008935
:10379000A0F5806010F5967F09DA3448007930B1E1
:1037A0004FF4FA70324908600020354908703148FA
:1037B000D0F8980030490968401AB0F57A7F17D9D7
:1037C0002B480068B0F52F7F04D02E480068B0F574
:1037D0002F7F0DD12948007850B125480068B0F5F9
:1037E0002F7F02D10120264908700020234908704C
:1037F0002348007850B31E480068B0F52F7F31D1C0
:103800001A48007910B31848C088A0F5806010F5F8
:10381000967F04DA00210120FEF702FD22E0124823
:103820008088A0F58060B0F5967F04DD0021092036
:10383000FEF7F6FC16E00C48C088A0F58060B0F5F5
:10384000967F04DD00210D20FEF7EAFC0AE0064821
:103850008088A0F5806010F5967F03DA00210F20A4
:10386000FEF7DEFC10BD0000B20D00203C1400206D
:103870006004002048130020440600204806002071
:10388000780400205C04002070B505460C461646FE
:1038900040F20221681A8D4279D013DCB5F5827F9F
:1038A0006AD008DC012D1CD0032D2AD0A5F201100E
:1038B00000286DD149E0A5F2051000286AD0FC2847
:1038C000F7D176E0052870D006DC01286ED00228FA
:1038D0006DD00428EDD10BE1062869D0FF28E8D18E
:1038E0005EE1D7480088401CD54908803246E11D7A
:1038F000D448FCF7D9FCD348B0F80100D24908807D
:103900009BE1CF488088401CCD4988803246E11D2C
:10391000CE48FCF7C9FCCE480078072808D1CB4830
:103920008089CC490880C948408BCB4908800BE08E
:10393000C74800786B2807D1C448808BC5490880E8
:10394000C2484089C449088077E1BD488089401C4D
:10395000BB4988813246E11DC048FCF7A5FCBF4841
:103960000088C0F3802018B10120BD49087002E032
:103970000020BB49087060E1B148008A401CB04992
:1039800008823246E11DB748FCF78EFC55E16AE03B
:1039900052E1FFE7AA48808A401CA9498882324642
:1039A000E11DB148FCF780FC47E1ACE08AE094E01F
:1039B000E7E0A348008B401CA14908833246E11D83
:1039C000AA48FCF771FCA9480078A1490870A748EB
:1039D0004088A7490880A548008BA6490880A348CD
:1039E0000089A5490880A148C089A44908809F484A
:1039F000C088A34908809D488089A2490880A248C0
:103A0000007870B99A480088A0490988884208DA85
:103A10009F48B0F898009F49088001209A49087093
:103A200012E09B48D0F898009A490988401AB0F5EE
:103A30007A7F09D3002094490870974800889749F5
:103A400008800020944908809048008888490988A7
:103A5000401A9149098808448F49088084480088A1
:103A60008A490880E9E07648808B401C7449888345
:103A70003246E11D8A48FCF717FC8A4890ED000A9F
:103A8000894880ED000A8648406886490860874872
:103A900000888749088082480089844908808048D6
:103AA000408900B2834908807D48808900B28249FC
:103AB00008800120814908707548D0F89800804935
:103AC0000860BAE05E48008C401C5D4908843246BC
:103AD000E11D7C48FCF7E8FBAFE05948808C401CB6
:103AE000574988843246E11D7748FCF7DDFBA4E0A6
:103AF0005348008D401C524908853246E11D7348E9
:103B0000FCF7D2FB99E04E48808D401C4C498885DB
:103B10003246E11D6E48FCF7C7FB6D4840786D49A1
:103B2000087008460078012813D16B480088401CB3
:103B30006949088066488078684908706448D0F808
:103B400003006749086067480088401C6549088091
:103B500016E060480078022812D163480088401CB3
:103B6000614908805A488078604908705848D0F800
:103B700003005F4908605F480088401C5D49088079
:103B80005BE02F48008E401C2D4908863246E11D1F
:103B90005948FCF789FB58480088584908804CE090
:103BA0002748808E401C264988865548D4F807103F
:103BB0000160B4F80B108180B21F04F10D0151486F
:103BC000FCF772FB4E480088B0F5007F18D14C48D6
:103BD00080881F490978884212D1494841881C4889
:103BE0000078401E81420BD1464800784649087053
:103BF00044484078454908704248807844490870F4
:103C00003F48008840F20121884214D13C48808816
:103C10000F49097888420ED1394841880C4800780C
:103C2000801C814207D1374800783A4908703548EE
:103C300040783949087000E000BF00BF70BD000047
:103C400004140020C40C0020BC010020CF0C002074
:103C5000B0010020BE010020C0010020DB010020D7
:103C6000A2010020E3010020E5010020FA0C002061
:103C7000A6010020C4010020C6010020C8010020C8
:103C8000CA010020CC010020D6010020F40500204C
:103C900048130020F2050020F6050020D401002082
:103CA000150D0020A80100206C050020AE010020A9
:103CB000AC0100209E010020A0010020D8010020BE
:103CC00050050020250D0020E6010020E80100201D
:103CD000E9010020CE01002080050020B101002074
:103CE000B4010020D001002082050020B201002094
:103CF000B8010020D2010020F0010020A401002022
:103D0000FA010020410D00207105002070050020FF
:103D1000D701002073050020720500202DE9F84F1F
:103D200081460C4692464FF0000B00250020009083
:103D3000804676E0D9F8080010F80860BBF1070F5C
:103D40006BD2DFE80BF004111E2534434D00A52E85
:103D500007D100254FF0010BA52229466D1C6254A6
:103D600001E04FF0000B59E02846691CCDB2265403
:103D7000032D05D16078A17840EA01274FF0020BAE
:103D80004CE02846691CCDB226544FF0030B45E0A9
:103D90002846691CCDB226542946204601F05AFC1B
:103DA00010B14FF0040B01E04FF0000B36E0284655
:103DB000691CCDB22654072D07D16079A17940EA5C
:103DC00001201A4908804FF0050B27E02846691C9E
:103DD000CDB22654F81DA84201D14FF0060B1DE0CC
:103DE0002846691CCDB2265407F10900A84213D118
:103DF0002946204601F00EFC70B13A4621460B4898
:103E00000088FFF741FD4FF0000B0948B0F8500063
:103E1000401C0749A1F8500000E000BF00BF08F1B6
:103E20000108D04586DBBDE8F88F0000EE050020D4
:103E30004813002010B5FEF71BFD0348808B401C83
:103E40000149888310BD00004813002010B52DEDF6
:103E50000A8B4A480078022871D1494890ED000A3F
:103E6000484880ED000A4848006803F091FA41ECA8
:103E70001B0B4648006803F08BFA41EC1C0BB0EEBC
:103E80004B1AF0EE6B1AB0EE4C0AF0EE6C0A01F031
:103E9000CFFEB0EE40AAF0EE60AA9FED3D0B53ECD2
:103EA000102B51EC1A0B02F07DFF41EC190B9FED2A
:103EB0003A0B53EC102B02F0CDFD41EC180B02F045
:103EC000E3FC2F490860084690ED000A2D48D0ED2C
:103ED000000A30EE600A324880ED000A90ED000AD8
:103EE000DFED300AB4EEE00AF1EE10FA08D290ED00
:103EF000000ADFED2D0A30EE200A80ED000A11E005
:103F0000274890ED000ADFED290AB4EEE00AF1EE51
:103F100010FA07DD90ED000ADFED230A30EE600AAB
:103F200080ED000A224890ED000A1D48D0ED000AFD
:103F300030EE200A1E4880ED000A0CE0FFE70F4833
:103F40000078092807D101F0F1FB1A4890ED000A2A
:103F5000174880ED000A00200AE0154991ED000A9B
:103F600000EB0011144A02EB810181ED000A401CB4
:103F70000428F2D3BDEC0A8B10BD00003E050020E2
:103F8000AC070020A8070020940700209807002015
:103F9000000000000080664000000060FB21094036
:103FA000B0070020000034C30000B44300003443D5
:103FB0004C04002044040020A010002010B504464A
:103FC000002C51D0012C04D0022C31D0032C5AD11A
:103FD00047E0002011E09FED2E0A00EB00112D4A72
:103FE00002EB810181ED0D0A9FED290A00EB001122
:103FF00002EB810181ED0C0A401C0428EBD3002068
:1040000013E000F0010181F00101C1EB011101EBAE
:10401000410100EE101AB8EEC00A00EB00111E4A72
:1040200002EB810181ED000A401C0428E9D32BE05A
:10403000002011E09FED160A00EB0011154A02EB7B
:10404000810181ED0D0A9FED120A00EB001102EBD8
:10405000810181ED0C0A401C0428EBD3FFF7F6FE2A
:1040600012E0FEF779F80FE0002009E09FED0B0A5F
:1040700000EB0011074A02EB810181ED0C0A401CA4
:104080000428F3D300E000BF00BF00F009F810BD22
:104090000000FA45B0110020A01000200000000030
:1040A00010B500241CE004EB04110F4A02EB810060
:1040B000FDF7CEFA04EB04100B4901EB800090ED04
:1040C0000B0A04EB0410094901EB800080ED000AA3
:1040D00004EB0411054A02EB8100FDF7B9FA641CF8
:1040E000042CE0D310BD0000A0100020B01100206F
:1040F0000CB50020019000903448006840F48030F6
:104100003249086000BF3148006800F40030009078
:104110000198401C0190009818B90198B0F5A04F83
:10412000F1D12A48006800F4003010B1012000905D
:1041300001E0002000900098012846D1234840303B
:10414000006840F0805021494031086020480068F4
:1041500040F440401E4908601C48083000681B4974
:10416000083108600846006840F4004008600846CE
:10417000006840F4A05008601648091F0860081F36
:10418000006840F08070091F086000BF0F48006899
:1041900000F000700028F9D040F205700E49086068
:1041A0000A480830006820F0030008490831086018
:1041B0000846006840F00200086000BF034808306D
:1041C000006800F00C000828F8D10CBD003802404F
:1041D0000070004008544007003C0240B5EEC00AA1
:1041E000F1EE10FA01DD01207047B5EEC00AF1EEE4
:1041F00010FA02D24FF0FF30F6E70020F4E700009B
:1042000010B52D48007820B94FF4FA702B4908609A
:1042100014E029480078012807D0274800780228B0
:1042200003D025480078032802D1FFF797FA05E06C
:1042300021480078092801D1FCF75CF92048007872
:10424000D8B19FED200A204880ED0C0A1F48D0ED20
:10425000000A1F48B0F900001E49B1F90010401AC9
:104260001D490968484300EE100AB8EE400A30EED6
:10427000800A164880ED000A0EE09FED180A1248E9
:1042800080ED0C0A114890ED010A80ED000A0E48FD
:1042900090ED010A80ED000A00F072F8002000F0B5
:1042A00031F807480078064948700948B0F900001D
:1042B0000849088010BD00003E0500206004002071
:1042C0007804002000401C46F4040020B0040020C4
:1042D0006404002066040020580400200000000050
:1042E00018B10121054A117106E00021034A11713C
:1042F0004FF4FA71024A1160704700003C1400202C
:104300005C040020A0BB1B49097869B119494978B0
:1043100051B9194991ED060A164981ED010A91ED4D
:10432000010A81ED020A0DE01249097851B11149E3
:1043300091ED020A81ED010A0F4991ED060A0D493E
:1043400081ED020A0B4991ED020AD1ED010A30EE2E
:10435000600ADFED0A0A80EE201AB6EE000A31EE9E
:10436000000ABDEEC00A81ED050A4969014AD16023
:104370007047000078040020E80200200066E6464E
:104380001CB51848007838B11648407820B916484E
:1043900090ED010A80ED000A1348FDF7ADF81248D0
:1043A00090ED0B0A9FED111AC0EE010A9FED100A65
:1043B00020EE800A0F4880ED000AFDF749F9002041
:1043C000009001900B4890ED0B0ABDEEC00A10EE74
:1043D000100A404202B2002340F2FF110648FCF7E7
:1043E000C4FF1CBD78040020B0040020000000467B
:1043F0000000B443F40400200064004010B5FFF74F
:10440000FFFE0348008A401C0149088210BD0000DD
:104410004813002070B52DED048B0546002D7DD08E
:10442000012D02D0022D7AD11EE0002009E09FED7F
:104430006B0A00EB00116A4A02EB810181ED0C0A64
:10444000401C0428F3D300240BE004EB0411644A5D
:1044500002EB8100F2EE040A9FED620AFDF70AFD0D
:10446000641C042CF1D3B2E0002009E09FED5B0A4C
:1044700000EB00115A4A02EB810181ED0C0A401C4D
:104480000428F3D35848007802286FD15748008891
:10449000A0F5806000EE100AB8EEC00A544880ED26
:1044A000000A52484088A0F5806000EE100AB8EE7D
:1044B000C00A504880ED000A4D4890ED000A20EEF9
:1044C000000A4C48D0ED000A90ED001A00EE810A77
:1044D00010EE101A084602F05BFF41EC190BB0EE2B
:1044E000490AF0EE690A01F0A5FCB0EE408AF0EE50
:1044F000608A51EC180B02F0C7F93F490860084682
:1045000090ED000AB1EE400A354880ED000A0846F9
:1045100090ED000A324880ED110A01E047E055E0D5
:10452000084690ED000A2E4880ED220A084690EDDC
:10453000000AB1EE400A2A4880ED330A002011E05B
:1045400000EB0011264A02EB810191ED000AF2EE28
:10455000040A20EE200A00EB001102EB810181ED3C
:10456000000A401C0428EBD320E0FFE71E48007837
:1045700009281BD1214890ED000AB1EE400A1848E5
:1045800080ED000A1D4890ED000A154880ED110AE3
:104590001A4890ED000A124880ED220A174890ED63
:1045A000000AB1EE400A0E4880ED330A0FE0002009
:1045B00009E09FED130A00EB0011094A02EB8101AB
:1045C00081ED0C0A401C0428F3D300E000BF00BFBB
:1045D00000F018F8BDEC048B70BD00000000FA4537
:1045E000900F00200080BB453E050020B20D00204A
:1045F0009407002098070020500400204004002069
:104600000000000010B5002407E004EB0411044A88
:1046100002EB8100FDF71CF8641C042CF5D310BDDF
:10462000900F0020A748D0F89800401CA549C1F879
:1046300098000846D0F898004FF47A71B0FBF1F278
:1046400001FB120000287DD19E4880889D49C880CA
:10465000002088800846008948810020088108469B
:104660008089C881002088810846008A488200200D
:1046700008820846808AC882002088820846008B0B
:104680004883002008830846808BC88300208883E5
:104690000846008C4884002008840846808CC88422
:1046A000002088840846008D48850020088508463B
:1046B000808DC885002088850846008E48860020A9
:1046C00008860846808EC886002088860846008FA7
:1046D0004887002008870846808FC8870020888781
:1046E0000846B0F84000A1F842000020A1F84000C0
:1046F0000846B0F84400A1F846000020A1F84400A4
:104700000846B0F84800A1F84A000020A1F8480087
:104710000846B0F84C00A1F84E000020A1F84C006B
:104720000846B0F85000A1F852000020A1F850004F
:104730000846B0F85400A1F856000020A1F8540033
:10474000084600E0BDE0B0F85800A1F85A0000208B
:10475000A1F858000846B0F85C00A1F85E000020FF
:10476000A1F85C000846B0F86000A1F862000020E3
:10477000A1F860000846B0F86400A1F866000020C7
:10478000A1F864000846B0F86800A1F86A000020AB
:10479000A1F868000846B0F89000A1F89200002047
:1047A000A1F890000846B0F87000A1F8720000204F
:1047B000A1F870000846B0F87400A1F87600002057
:1047C000A1F874000846B0F87800A1F87A0000203B
:1047D000A1F878000846B0F87C00A1F87E0000201F
:1047E000A1F87C000846B0F88000A1F88200002003
:1047F000A1F880000846B0F88400A1F886000020E7
:10480000A1F884000846B0F88800A1F88A000020CA
:10481000A1F888000846B0F88C00A1F88E000020AE
:10482000A1F88C000846B0F89400A1F8960000208A
:10483000A1F894002448008823494880002008807B
:1048400008468088C8800020888008460089488102
:104850000020088108468089C88100208881084698
:10486000008A4882002008820846808AC882002088
:1048700088820846008B4883002008830846808B86
:10488000C883002088830846008C48840020088460
:104890000846808CC884002088840846008D48859E
:1048A000002008850846808DC88500208885084638
:1048B000008E4886002008860846808EC886002024
:1048C00088867047481300200414002030B516482D
:1048D00000684FF47A72B0FBF2F1481EB0F1807FAD
:1048E00001D301201BE0481E4FF0E0225061501719
:1048F0000F22002807DA13071D0E0C4B00F00F04DF
:10490000241F1D5503E013071C0E094B1C5400BF48
:1049100000204FF0E022906107201061002008B1D4
:1049200000BFFEE730BD0000D805002018ED00E014
:1049300000E400E010B51548006840F47000134929
:1049400008601348006840F0010011490860002029
:104950000F49083108600E4800680E4908400C49AC
:1049600008600D48091D0860081F006820F48020B9
:10497000091F0860002006490C310860FFF7B8FBEA
:104980004FF0006001498039086010BD88ED00E0FB
:1049900000380240FFFFF6FE1030002410B53D48FD
:1049A000FEF726FE00203C49A1F89C0000BF0DE068
:1049B0003949B1F89C1000EBC002384B03EB82027E
:1049C000128B1144344AA2F89C10401C34490968E7
:1049D0008842EDD33048B0F89E002F49B1F89C10C2
:1049E000884203DD2C48B0F89E0002E02A48B0F867
:1049F0009C002949A1F89E000846C08FB0F5FA7FB7
:104A000003DA01202749487002E000202549487058
:104A10002148B0F84A00B0F5FA7F03DA01202149B5
:104A2000887002E000201F4988701B48408F0A28C8
:104A300003DA01201B49087002E0002019490870C0
:104A40001548B0F8660040F2DC51884203DA0120D4
:104A50001449C87002E000201249C8700E48B0F82E
:104A60006A0040F6C411884203DA01200D4908713A
:104A700002E000200B4908710B484088B0F5487FE0
:104A800003DA01200749487102E000200549487116
:104A900010BD00009C140020481300200C000020D2
:104AA0007401002038050020E813002010B5FFF73E
:104AB00075FF03488088401C0149888010BD0000B4
:104AC00048130020F0B50C46154600210022068C44
:104AD0004FF6FE773E400684018B028C4FF60C7633
:104AE00031407E1C06EA03162E4331434FF6F5761D
:104AF000324044F00106324301830284F0BDF0B538
:104B00000C461546002100220026078C4FF6EF7C4C
:104B100007EA0C070784018B028C4FF6FF7707EA40
:104B2000041640F6FF4739404FF6FF7707EA033790
:104B300039434FF6FF7707EA052739434FF65F778A
:104B40003A4046F010073A4301830284F0BDF0B5C5
:104B50000C461546002100220026078C4FF6FF6CFC
:104B600007EA0C070784818B028C4FF6FF7707EA70
:104B700004264FF60C7739404FF6FF7707EA031704
:104B80002F4339434FF2FF573A4046F480773A4378
:104B900081830284F0BDF0B50C4615460021002249
:104BA0000026078C4EF6FF7C07EA0C070784818BF2
:104BB000028C4FF6FF7707EA043640F6FF4739408C
:104BC0004FF6FF7707EA052739434FF6FF7707EAE5
:104BD0000337394345F6FF773A4046F480573A4366
:104BE00081830284F0BD000010B52DED0C8B0221F5
:104BF0006A4800F069F900281BD00221674800F0DC
:104C000051F96648008C00F0020098B90020644910
:104C10000860624948626349086000215F4800F00B
:104C200044F902215D4800F0A9F901215B4800F038
:104C30003CF9A2E05948008C00F002000028F8D0AE
:104C4000564800F03EF9564908600846006802F0F0
:104C500059F841EC1D0B9FED540B53EC102B02F057
:104C6000A1F841EC1B0B4F49086802F04BF841ECEE
:104C70001C0B53EC1B2B01F039FE41EC1A0B9FED82
:104C80004C0B53EC102B02F08DF841EC190B9FEDFF
:104C90004A0B53EC102B01F0DDFE41EC180B01F038
:104CA000F3FD47490860084690ED000A454880ED4D
:104CB000000AB1EE021ADFED440A90ED000AFCF79B
:104CC00004FF404880ED000A3D48006802F060FBA8
:104CD00041EC180B9FED3D0B53EC102B02F060F9EB
:104CE00005D2384890ED000A354880ED000A354875
:104CF00090ED000A3248D0ED000A30EE600A10EE66
:104D0000101A084602F044FB41EC190BB0EE490AB8
:104D1000F0EE690A01F084F8B0EE408AF0EE608AA5
:104D20009FED2C0B53EC102B51EC180B02F038F9C3
:104D300005D2244890ED000A214880ED000A204861
:104D400090ED000A0A212548FDF742F81C4880ED45
:104D5000000A90ED000ADFED220A20EE200A80ED25
:104D6000000A00210D4800F0A0F800210B4800F0D7
:104D700005F90121094800F098F80121074800F0E1
:104D8000A3F840B10121054800F08CF805480068FF
:104D9000401C04490860BDEC0C8B10BD0040014074
:104DA0006005002058050020FCA9F1D24D62503F5B
:104DB000C3F5285C8FC2D53F000000000000004012
:104DC000640500207C0100200000000000000000BD
:104DD00000001240333333333333D33FC407002052
:104DE00000007A440EB501210820FEF7C1FB5320D4
:104DF000ADF800004FF0FF3001900020ADF8020048
:104E0000ADF808006946044800F0EEF801210248B8
:104E100000F04BF80EBD0000000C004030B589B02A
:104E200005460C4601210846FEF792FB01210804C5
:104E3000FEF7BEFB0420019002208DF808008DF8DB
:104E4000090000208DF80A0002208DF80B0001A94E
:104E50001248FDF705FA032202211048FDF748FA2F
:104E60000020ADF82000ADF81A000795ADF8184005
:104E700006A90B4800F0B8F803A800F06DF803A9E4
:104E8000074800F032F801220321054800F06DF8D0
:104E90000121034800F009F809B030BD00000240CC
:104EA00000400140CA430282704721B1028842F0AB
:104EB0000102028004E002884FF6FE731A4002806D
:104EC00070470146486B704730B50246002000230A
:104ED0000024158A05EA0103958905EA010413B146
:104EE0000CB1012000E0002030BD70B505460C4635
:104EF000208850B92389A28861882846FFF7E2FDFF
:104F0000E188284600F043F825E0208804280AD1EB
:104F10002389A28861882846FFF7F1FDE1882846A9
:104F200000F03EF817E0208808280AD12389A288DB
:104F300061882846FFF70BFEE188284600F03DF81F
:104F400009E02389A28861882846FFF724FEE188CA
:104F5000284600F03BF870BD00210180418001210E
:104F600081800021C180018170471AB183890B4380
:104F7000838102E083898B43838170470A46002145
:104F8000018C4FF6FD731940114301847047028B69
:104F90004FF6F3731A400283028B0A430283704771
:104FA000028B4FF2FF331A400283028B4FF6FF73DE
:104FB00003EA01231A4302837047828B4FF6F3738F
:104FC0001A408283828B0A4382837047828B4FF21E
:104FD000FF331A408283828B4FF6FF7303EA01236B
:104FE0001A4382837047000000220288184B9842BF
:104FF0000ED0184B98420BD0B0F1804F08D0164B12
:10500000984205D0154B984202D0154B984204D1D6
:105010004FF68F731A404B881A43124B984207D0B1
:10502000114B984204D04FF6FF431A400B891A43A4
:1050300002804B68C3620B880385054B984202D0FF
:10504000044B984201D18B7A0386012383827047F7
:10505000000001400004014000040040000800403E
:10506000000C0040001000400014004010B540F259
:105070002441124800F0B8F901281ED10F480088D9
:105080000E4880880E48FCF711FE122809D1FEF761
:1050900047F90C48B0F84400401C0A49A1F8440004
:1050A0000BE000210648FCF73FFD122004491039AF
:1050B000486101210248FCF737FD10BD0050004057
:1050C000106002404813002010B540F224411448FB
:1050D00000F08AF9012822D1114800881048808800
:1050E0001048FCF7E3FD104908600E48FCF7DEFDB0
:1050F000122808D10D48FEF7EFFA0D48808E401CAB
:105100000B4988860BE000210648FCF70DFD1220B4
:105110000449091D086001210248FCF705FD10BD86
:10512000001001404064024078010020C80D0020BA
:105130004813002010B540F22441174800F054F9FC
:1051400040B340F22441144800F0B1F812480088FE
:105150001148001D0088114800F000FA044622465C
:105160000F490E48FEF7DAFD0E48B0F8520060B95C
:1051700000210D48FCF7D8FC4FF4FA700A49091DCC
:10518000086001210848FCF7CFFC0648008F401C4E
:105190000449088710BD0000004400408001002041
:1051A000CA0B0020481300208860024010B540F26E
:1051B0002441124800F018F901281DD10F48008839
:1051C0000E48001D00880E48FCF770FD1B2807D113
:1051D000FDF7D6FA0B48808F401C0A4988870BE000
:1051E00000210748FCF7A0FC1B2005492839C862AC
:1051F00001210348FCF798FC10BD00000048004066
:10520000286002404813002010B540F224411E4897
:1052100000F0EAF8012835D11B4800881A48001D23
:1052200000881A48FCF742FD26281FD1184800784C
:10523000552813D11648407880B916481449897802
:10524000017020221249091D401CFBF72DF812485D
:10525000B0F86000401C1049A1F860000E48B0F89A
:105260004800401C0C49A1F848000BE00021074809
:10527000FCF75AFC26200549091D08600121034856
:10528000FCF752FC10BD00000014014028640240ED
:10529000270E0020890E00204813002001F4007220
:1052A000B2F5007F00D100BFCA430280704710B53D
:1052B0000022002340F66A14A14200D100BF0A1266
:1052C00001249440A3B2DC43048010BD21B1828943
:1052D00042F40052828104E082894DF6FF731A4045
:1052E000828170471AB1838A0B43838202E0838AEA
:1052F0008B4383827047000010B5044632488442D5
:1053000008D101211020FEF763F900211020FEF7DB
:105310005FF957E02D48844209D101214804FEF786
:1053200037F900214FF40030FEF732F94AE02848FF
:10533000844209D101218804FEF72AF900214FF4A3
:105340008020FEF725F93DE02248844209D1012161
:10535000C804FEF71DF900214FF40020FEF718F9EC
:1053600030E01D48844209D101210805FEF710F9FB
:1053700000214FF48010FEF70BF923E01748844218
:1053800008D101212020FEF723F900212020FEF77B
:105390001FF917E01248844209D101218807FEF75E
:1053A000F7F800214FF08040FEF7F2F80AE00D48D0
:1053B000844207D101214005FEF7EAF8002160058B
:1053C000FEF7E6F810BD0000001001400044004068
:1053D00000480040004C00400050004000140140D4
:1053E00000780040007C004070B502460024002395
:1053F0000025002040F66A16B14200D100BFC1F37B
:10540000421501F01F03012606FA03F3012D02D114
:105410009689334006E0022D02D1168A334001E01E
:10542000968A33400C12012606FA04F4168834409A
:1054300013B10CB1012000E0002070BDF0B50346AF
:10544000002400260025002040F66A17B94200D14A
:1054500000BF1846C1F3421401F01F06012707FAE6
:1054600006F5012C01D10C3004E0022C01D11030E2
:1054700000E014301AB107682F43076002E00768A4
:10548000AF430760F0BD00002DE9FF4705460E461B
:105490000024A14600BFA046B08900B100BF2C8AFD
:1054A00024F44054F08804432C82AC8941F20C600F
:1054B0008443B08831890843718908430443AC812F
:1054C000AC8A24F44074B0890443AC826846FEF789
:1054D0008FF82048854202D01F48854202D1DDF86E
:1054E0000C9001E0DDF80890A88900F4004040B17C
:1054F00009EBC90000EB091031684900B0FBF1F776
:1055000007E009EBC90000EB091031688900B0FB26
:10551000F1F76420B7FBF0F004012009642101FBDE
:105520001078A88900F4004040B1322000EBC80098
:10553000B0FBF1F000F00700044308E0322000EB7C
:1055400008106421B0FBF1F000F00F0004432C813F
:10555000BDE8FF87001001400014014010B504466B
:105560006068FCF7A3FB618A081AA082E08A218B9D
:105570000844E082E08A618A884206DBE08A618A28
:1055800090FBF1F201FB1200E082E08AA18A8842DE
:1055900015DAA08AE18A401A2083208B218A88426A
:1055A00035DC002007E0E28AE1681144095CA2686A
:1055B0001154411C88B2218B8142F4DC27E0A08A7F
:1055C000618A0844E18A401A2083208B218A88421C
:1055D0001DDC002007E0E28AE1681144095CA26852
:1055E0001154411C88B2218BA28A891A8142F2DCB3
:1055F000002009E0E168095C238BA2681A44A38AB1
:10560000D21A1154411C88B2A18A8142F2DC208B4B
:1056100010BD000070B505460C4600260DB1022CE9
:1056200001D8002070BDA11E094802882846FCF759
:10563000A5FE0646F1B2A01E285C814206D1601E7E
:10564000285CB0EB162F01D10120EBE70020E9E741
:10565000EC05002070B505460C4600260DB1022C65
:1056600001D8002070BD611EFF222846FCF7A0FE75
:105670000646601E285CB04201D10120F2E70020FE
:10568000F0E7000010B5FCF741FB0348008C401C1C
:105690000149088410BD00004813002010B51D48C2
:1056A000D0F801001C4908601A48D0F8050048608D
:1056B0001848D0F8090088601648D0F80D00C86076
:1056C0001448D0F8110008611248D0F8150048615C
:1056D0001048D0F8190088610E48D0F81D00C86144
:1056E0000E490F48FCF706FA00210D48FCF71CFA9A
:1056F00000BF0B48FCF7D0FA0028FAD10648084949
:105700007039C8672420486701210548FCF70CFA66
:1057100010BD0000890E002095050020208000208B
:105720007060024010B5FFF7B9FF10BD10B52DED48
:10573000068B9FED4F0AB0EE408A4E48D0F801101C
:10574000084601F025FE41EC1A0B9FED4B0B53EC84
:10575000102B01F027FB41EC190B01F095F848499B
:1057600008604448D0F80510084601F011FE41ECED
:105770001A0B9FED410B53EC102B01F013FB41EC86
:10578000190B01F081F83F4908603A48D0F8090048
:105790003D490860084690ED000AF1EE040AB4EEB7
:1057A000E00AF1EE10FA03DDB1EE040A80ED000A22
:1057B0003548D0ED000A9FED351A80EE810ADFED05
:1057C000340A20EE200AF3EE030A20EE200A80EDD0
:1057D000000A2B4890ED000A2E48D0ED000A30EE6A
:1057E000600AB0EE408A264890ED000A294880ED14
:1057F000000A9FED290AB4EEC08AF1EE10FA06DD28
:105800009FED260A38EE400AB0EE408A0CE09FED8C
:10581000240AB4EEC08AF1EE10FA05D29FED1F0AF9
:1058200038EE000AB0EE408A1E4890ED000A30EED5
:10583000080A80ED000A1C4890ED000A1B48D0EDD4
:10584000000A30EE200ADFED1A0A30EE200A0D4879
:10585000D0ED000A70EE608A124890ED000A30EE3A
:10586000280A144880ED000ABDEC068B10BD00002C
:1058700000000000B60E00206666666666A64C4014
:10588000380400203C04002040040020FB04C13EFA
:105890000000704234060020000034430000B4438E
:1058A000000034C3380600201C040020340400200B
:1058B0000000B4424404002010B5154800780128C7
:1058C0000DD1144890ED000A134880ED060AFBF74D
:1058D00065FF114890ED000A0E4880ED000A0D4862
:1058E00090ED000A0D4880ED000A0D4890ED000A89
:1058F0000C4880ED010A0948FBF7AAFE074890ED25
:105900000B0A084880ED000AFBF7A2FE10BD00005C
:105910005406002018040020FC0300205803002037
:10592000280400209C03002003B401984100009843
:1059300050EAC12018BF04204A0D18BF40F00100F2
:1059400040F2FF72B2EB515F08BF40F00200012845
:1059500008BF052002B0704770B59B482DED020BC3
:105960002DED068B079D25F00044A04218DC9748DA
:10597000844202DC0AD1069840B19DED060BBDECD5
:10598000068B02B0BDE8704000F00DBB002DCCBF0F
:105990009FED8F0B9FED900BBDEC068B02B070BDA1
:1059A0008F48A04215DD8F48A042D8BF4FF0FF348A
:1059B00058DD9DED060B51EC100BFFF7B5FF0428E9
:1059C00008BF00F005FB9DED060BBDEC068B02B099
:1059D00070BD9DED060B51EC100B00F011FBCDE9F5
:1059E000060181489FED828BA0423CDD8248A042A7
:1059F0001FDD00249FED82AB9DED060B53EC1A2BAF
:105A000051EC100B00F072FF9DED060B41EC190BF1
:105A100053EC1A2B51EC100B01F0C4F953EC182B7A
:105A200001F0CCFB53EC192B01F014F8CDE9060181
:105A300049E09DED060B012453EC182B51EC100BA3
:105A400000F054FF9DED060B41EC190B53EC182BA5
:105A500051EC100B01F0B2FB53EC192B00F0FAFFE4
:105A6000CDE906012FE06848A0421FDD02249FED2A
:105A7000689B9DED060B53EC192B51EC100B01F0BC
:105A800091F953EC182B00F031FF9DED060B41EC22
:105A9000180B53EC192B51EC100B01F08FFB53EC4E
:105AA000182B00F0D7FFCDE906010CE09DED060BA9
:105AB000032453EC102B9FED580B51EC100B00F00E
:105AC000C9FFCDE906019DED060B53EC102B51ECFF
:105AD000100B01F067F941EC180B53EC182B01F097
