:020000040800F2
:100000001814002069020008710200087302000839
:10001000750200087702000879020008000000005D
:100020000000000000000000000000007B0200084B
:100030007D020008000000007F020008F135000882
:10004000830200088302000883020008830200087C
:10005000830200088302000883020008830200086C
:10006000830200088302000883020008830200085C
:10007000830200088302000883020008830200084C
:10008000830200088302000883020008830200083C
:100090001507000883020008830200088302000895
:1000A000830200088302000883020008830200081C
:1000B000830200088302000883020008830200080C
:1000C00083020008830200088302000883020008FC
:1000D00083020008B53A0008153B00088D3B000874
:1000E00083020008830200088302000883020008DC
:1000F00083020008830200088302000883020008CC
:1001000083020008830200088302000883020008BB
:1001100083020008830200088302000883020008AB
:10012000830200088302000883020008830200089B
:10013000830200088302000883020008830200088B
:10014000790900088302000883020008830200087E
:10015000830200088302000883020008E93B0008CC
:10016000830200088302000883020008830200085B
:10017000830200088302000883020008830200084B
:10018000830200088302000800F002F800F05CF827
:100190000AA090E8000C82448344AAF10107DA45E2
:1001A00001D100F051F8AFF2090EBAE80F0013F0D8
:1001B000010F18BFFB1A43F001031847B4510000A8
:1001C000D45100000A444FF0000C10F8013B13F02A
:1001D000070408BF10F8014B1D1108BF10F8015BA0
:1001E000641E05D010F8016B641E01F8016BF9D193
:1001F00013F0080F1EBF10F8014BAD1C0C1B09D1EA
:100200006D1E58BF01F801CBFAD505E014F8016B5B
:1002100001F8016B6D1EF9D59142D6D370470000ED
:100220000023002400250026103A28BF78C1FBD8FF
:10023000520728BF30C148BF0B6070471FB504F09C
:10024000CAFE1FBD10B510BD00F0BCF81146FFF787
:10025000F5FF03F08BFF00F0DAF803B4FFF7F2FFCD
:1002600003BC00F0DDF8000009488047094800475A
:10027000FEE7FEE7FEE7FEE7FEE7FEE7FEE7FEE756
:10028000FEE7FEE704480549054A064B70470000B3
:100290004D38000889010008180E002018140020AD
:1002A0001810002018100020032A40F2308010F0AF
:1002B000030C00F0158011F8013BBCF1020F624401
:1002C00098BF11F801CB00F8013B38BF11F8013B92
:1002D000A2F1040298BF00F801CB38BF00F8013B3F
:1002E00011F0030300F03380083AC0F0088051F8A1
:1002F000043B083A51F804CBA0E80810F5E7121DBA
:100300005CBF51F8043B40F8043BAFF30080D207D8
:1003100024BF11F8013B11F801CB48BF11F8012BA4
:1003200024BF00F8013B00F801CB48BF00F8012BC7
:10033000704770477047704710B500F03BF8006891
:1003400010BD10B5044600F035F8046010BD10B5BE
:10035000203AC0F00B80B1E81850203AA0E81850BD
:10036000B1E81850A0E81850BFF4F5AF5FEA027C7E
:1003700024BFB1E81850A0E8185044BF18C918C0ED
:10038000BDE810405FEA827C24BF51F8043B40F88E
:10039000043B08BF7047D20728BF31F8023B48BF73
:1003A00011F8012B28BF20F8023B48BF00F8012BB1
:1003B0007047000000487047B80D002000487047A3
:1003C000B80D00207546FFF7F9FFAE4605006946F7
:1003D000534620F00700854618B020B5FFF752FFBE
:1003E000BDE820404FF000064FF000074FF0000836
:1003F0004FF0000B21F00701AC46ACE8C009ACE8B7
:10040000C009ACE8C009ACE8C0098D46704710B51A
:100410000446AFF300802046BDE81040FFF71DBF43
:1004200001491820ABBEFEE726000200704710B558
:1004300002684260016042688A1A826043695A42D7
:1004400002EBD2748368B3EB640F04DA4369826809
:100450001A4482600AE0426902EBD2748368B3EB0B
:10046000640F03DD43698268D21A8260D0ED060A08
:1004700090ED020AB8EEC00A30EE800A80ED060A5E
:1004800010BD70B505460C4600260DB1022C00D8F3
:1004900070BD611EFF22284601F0D2FB0646601E99
:1004A0002E5400BFF4E7000010B54948007968B148
:1004B0004FF42F70474908604748007830B14748EB
:1004C000806E474908600020434908704348806EA9
:1004D00043490968401A40F6B83188420DD93D4871
:1004E0000068B0F52F7F08D13E48007828B1012080
:1004F0003D49087000203B4908703548C079D8B3A1
:1005000039480078C0B3394890ED010AD0ED000AAF
:1005100030EE600AB5EEC00AF1EE10FA06DD90ED9D
:10052000010AD0ED000A30EE600A08E02F4890ED95
:10053000010AD0ED000A30EE600AB1EE400AF7EE93
:10054000000AB4EEE00AF1EE10FA2BD2284890ED42
:10055000010A2848D0ED060A30EE600AB5EEC00A5E
:10056000F1EE10FA09DD224890ED010A2148D0EDA4
:10057000060A30EE600A0AE017E01D4890ED010A15
:100580001C48D0ED060A30EE600AB1EE400AF0EEEB
:10059000040AB4EEE00AF1EE10FA03D20120164983
:1005A000087002E00020144908700F48007868B114
:1005B0000748C07950B11048007838B10F4800782A
:1005C00020B100210E48007801F074FA10BD00003F
:1005D000480D0020D0030020E4030020840C0020FC
:1005E00008050020E5030020E8030020FC0B0020A4
:1005F0000C03002094030020D9030020DA0300201C
:10060000DC03002010B503F0EBF900F015F800F062
:10061000A1F803F0E7F803F0B1FD4FF4E13003F087
:1006200031FE4FF4E12003F0F5FE4FF4612003F0BA
:100630009BFF02F0A5F810BD00B589B00121022092
:1006400002F04EFA0121480602F05AFA4FF44070C7
:10065000009002208DF804008DF8050000208DF830
:10066000060001208DF807006946274801F040FA8E
:1006700009220821244801F083FA09221146224860
:1006800001F07EFA00208DF81E0001208DF81F0079
:100690008DF8200000208DF821008DF82200012027
:1006A0008DF8230000208DF81A008DF81B0008201B
:1006B0008DF81C0003208DF81D00ADF8180006A968
:1006C000124800F0EAFA00208DF812008DF81300AD
:1006D00001208DF814000020ADF80800ADF80A00E4
:1006E000ADF80C00ADF80E00ADF8100001208DF84B
:1006F000150002A800F0B4F901220221034800F01D
:10070000C3FA09B000BD00000004024000640040CC
:100710007047000010B502210B4800F025FA88B19F
:100720000221094800F048F9084A0021064800F073
:100730003EFBFFF7EDFF0648B0F86000401C04499F
:10074000A1F8600010BD00000064004030050020EA
:10075000840C002000B589B00121022002F0C0F90C
:100760000121480602F0CCF90121880602F0C8F9FF
:100770006020009002208DF804008DF80500002014
:100780008DF8060001208DF807006946274801F022
:10079000AFF909220521254801F0F2F909220621C5
:1007A000224801F0EDF900208DF81E0001208DF89F
:1007B0001F008DF8200000208DF821008DF8220008
:1007C00001208DF8230000208DF81B0008208DF8F3
:1007D0001C0003208DF81D00ADF8180006A9144870
:1007E00000F05BFA0E208DF8120000208DF8130047
:1007F00001208DF814000020ADF80800ADF80A00C3
:10080000ADF80C00ADF80E00ADF8100001208DF829
:10081000150002A800F024F90E208DF81200012224
:100820000221034800F030FA09B000BD0004024084
:100830000068004010B547480068A0F20520002875
:100840007DD14548008A401C4349088243480078CE
:10085000F0B340480B3001F0BEF94149086008464A
:1008600090ED000AB8EE400A80ED060A486900EBF8
:10087000D071491000EE101AB8EEC00A3849D1ED17
:10088000060A9FED381A70EEC10AB4EEE00AF1EEE6
:1008900010FA0BD20846D0ED060A90ED050AB8EE24
:1008A000C00A30EEC00A80ED060A22E02C494969F0
:1008B000484200EBD071491000EE101AB8EEC00AA1
:1008C0002749D1ED060A9FED271A70EEC10A00E014
:1008D00013E0B4EEE00AF1EE10FA0ADD0846D0EDBE
:1008E000060A90ED050AB8EEC00A30EE800A80EDE7
:1008F000060A00201949087008E016480B3001F07C
:100900006AF9044621461648FFF791FD144890ED18
:10091000060ADFED140A30EE600ADFED130A20EE5E
:10092000200ADFED120A80EE201A114880ED001A2D
:1009300008480B3001F055F900EE100A00E005E020
:10094000B8EEC00A0B4880ED000A00E000BF00BF0F
:1009500010BD000044050020F40C0020C804002055
:10096000800200200080AA440000B443000000463A
:10097000B4030020B803002010B502210B4800F09A
:10098000F3F888B10221094800F016F8084A00215E
:10099000064800F00CFAFFF74DFF0648B0F8640077
:1009A000401C0449A1F8640010BD0000006800402C
:1009B00044050020840C0020B1F5007F3AD00FDC04
:1009C000202928D006DC01291CD004291DD00829A3
:1009D00040D11DE0402921D0B1F5807F3AD126E0F9
:1009E000B1F5004F31D006DCB1F5806F25D0B1F5FF
:1009F000006F2FD124E0B1F5803F12D0B1F5003F58
:100A000028D111E0154A826025E00822C26022E068
:100A10001022C2601FE0082202611CE01022026165
:100A200019E00822426016E01022426013E004221E
:100A3000426010E0042242600DE0042242600AE0BD
:100A4000002282610422426005E0002282610422C9
:100A5000426000E000BF00BF7047000001010100DC
:100A600010B50021837A012202FA03F13D4A12688F
:100A700042F001023B4B1A603A4A1C3212688A4328
:100A8000384B1C331A60027BCAB9364A0C321268E2
:100A90008A43344B0C331A604288C38842EA0343CA
:100AA000304A4032847A42F834300288838842EAFD
:100AB00003432C4A4032847A02EBC4025360027B27
:100AC000012A19D1274A0C3212680A43254B0C33EC
:100AD0001A604288038842EA0343224A4032847AF9
:100AE00042F83430C288838842EA03431D4A4032C8
:100AF000847A02EBC4025360C27A3AB9194A121DD1
:100B000012688A43174B1B1D1A6006E0154A121D16
:100B100012680A43134B1B1D1A60028932B9114A2D
:100B2000143212688A430F4B14331A600289012A67
:100B300006D10C4A143212680A430A4B14331A6065
:100B4000427B012A06D1074A1C3212680A43054B30
:100B50001C331A60034A126822F00102014B1A602A
:100B600010BD00000066004070B504460D4600262A
:100B700060692840002871D0B5F5807F5CD010DC1A
:100B8000082D35D006DC012D20D0022D24D0042DD7
:100B900072D127E0102D31D0202D35D0402D6BD1D2
:100BA00038E0B5F5004F60D009DCB5F5007F49D0DD
:100BB000B5F5806F4CD0B5F5006F5DD14FE0B5F560
:100BC000803F2DD0B5F5003F56D12FE0A0682D49CC
:100BD00000F0D0FB064651E0E068032100F0CAFBBC
:100BE00006464BE0E068082100F0C4FB064645E0FD
:100BF000E068102100F0BEFB06463FE020690321BB
:100C000000F0B8FB064639E02069082100F0B2FB8D
:100C1000064633E02069102100F0ACFB06462DE0CB
:100C20006068082100F0A6FB064627E060681021F6
:100C300000F0A0FB064621E0A069012100F09AFB2C
:100C400006461BE0A069022100F094FB064615E071
:100C5000A069042100F08EFB06460FE00FE0A069BA
:100C6000702100F087FB064608E06068042100F070
:100C700081FB064602E0FFE7002600BF00E00026F9
:100C8000304670BD010101001AB143690B43436155
:100C900002E043698B434361704730B50246002050
:100CA0000023146824F002041460146844F0010462
:100CB000146000E05B1C546804F001041CB94FF69A
:100CC000FF74A342F6D1546804F001040CB900206B
:100CD0006CE08C79012C04D1146844F08004146019
:100CE00003E0146824F080041460CC79012C04D152
:100CF000146844F04004146003E0146824F04004D5
:100D000014600C7A012C04D1146844F0200414609F
:100D100003E0146824F0200414604C7A012C04D100
:100D2000146844F01004146003E0146824F0100404
:100D300014608C7A012C04D1146844F00804146007
:100D400003E0146824F008041460CC7A012C04D168
:100D5000146844F00404146003E0146824F00404EC
:100D600014608C78A407CD7844EA05640D7944EAD0
:100D700005444D7944EA05540D886D1E2C43D46119
:100D8000146824F001041460002300E05B1C546824
:100D900004F001041CB14FF6FF74A342F6D154686D
:100DA00004F001040CB1002000E0012030BD10B5BA
:100DB00000F5D87303EB01131B6803F004031372EF
:100DC000137A53B900F5D87303EB01131B6840F293
:100DD000FF7404EA5353136009E000F5D87303EB82
:100DE00001131B686FF0604404EAD303536000F5FD
:100DF000D87303EB01131B6803F00203537200F571
:100E0000D87303EB01135B6803F00F03937200F5D3
:100E1000D87303EB01135B681B0AD37400F5D87316
:100E200003EB01139B68D37200F5D87303EB011336
:100E30009B681C0A147300F5D87303EB01139B68BD
:100E40001C0C547300F5D87303EB01139B681B0E45
:100E5000937300F5D87303EB0113DB68D37300F5CC
:100E6000D87303EB0113DB681C0A147400F5D87304
:100E700003EB0113DB681C0C547400F5D87303EB0F
:100E80000113DB681B0E937421B9C36843F0200380
:100E9000C36003E0036943F02003036110BD2DE943
:100EA000F04385B081460E4614461D46DDE90C78B8
:100EB00000208DF80800009608208DF80A00002018
:100EC0008DF80900200A8DF80B00E1B28DF80C10A6
:100ED000290A8DF80D10E9B28DF80E10390A8DF837
:100EE0000F10F9B28DF810104FEA18218DF811107B
:100EF00008F0FF018DF812106946484600F003F82B
:100F000005B0BDE8F08310B502460020936803F0F9
:100F10008063B3F1806F00D110E0936803F0006349
:100F2000B3F1006F01D1012008E0936803F0805312
:100F3000B3F1805F01D1022000E00420042874D0C6
:100F400002F5C07303EB00131B6803F0010402F504
:100F5000C07303EB00131C600B7A7BB94B7A0C88CF
:100F600043EA445302F5C07404EB0014246823439D
:100F700002F5C07404EB0014236010E00B7A4C6897
:100F800043EAC4034C7A234302F5C07404EB001413
:100F90002468234302F5C07404EB001423608B7AA9
:100FA00003F00F038B7202F5C07303EB00135B6851
:100FB00023F00F0402F5C07303EB00135C6002F52D
:100FC000C07303EB00135B688C7A234302F5C07493
:100FD00004EB001463608B7B1C064B7B44EA0344E8
:100FE0000B7B44EA0323CC7A234302F5C07404EB61
:100FF0000014A3608B7C1C064B7C44EA03440B7CEE
:1010000044EA0323CC7B234302F5C07404EB0014B1
:10101000E36002F5C07303EB00131B6843F00104A7
:1010200002F5C07303EB00131C6010BD10B52DED6D
:10103000068B044694ED000AD4ED010A30EE600AF6
:1010400084ED080A94ED100A10EE101A084603F019
:1010500051FF41EC180B94ED080A10EE101A0846E7
:1010600003F048FF41EC1A0BB0EE4A0AF0EE6A0AB0
:1010700003F035F8B0EE409AF0EE609A53EC182B7E
:1010800051EC190B03F010FC07D294ED0A0AD4EDD1
:10109000080A30EE200A84ED0A0AD4ED0E1AB0EEEA
:1010A000611AD4ED0E1AF1EE611AF0EE610AD4ED78
:1010B0000A1AB0EE610A00F066F984ED0A0A94EDAE
:1010C000030AD4ED0A0A20EE200A84ED060AD4EDC4
:1010D000021A94ED082A61EE821AB0EE610AD4ED8C
:1010E0000D1AB0EE611AD4ED0D1AF1EE611AF0EEA0
:1010F000610A00F048F984ED050AD4ED081A94ED70
:10110000092A71EEC21A94ED042A61EE821AB0EE39
:10111000610AD4ED0F1AB0EE611AD4ED0F1AF1EE98
:10112000611AF0EE610A00F02EF984ED070A94EDE1
:10113000050AD4ED060A30EE200AD4ED070A30EE97
:10114000200A84ED0B0A94ED080A84ED090AD4ED17
:101150000C1AB0EE611AD4ED0C1AF1EE611AF0EE31
:10116000610AD4ED0B1AB0EE610A00F00CF984EDBF
:101170000B0ABDEC068B10BD30B52DED108B83B086
:1011800004469FED7B0AB0EE40FA94ED000AD4EDE0
:10119000060A30EE600A84ED020A94ED030AD4EDEB
:1011A000040A20EE200AB0EE408A94ED040A20EEF4
:1011B000080A10EE105A94ED020AD4ED040A94EDD8
:1011C000011A00EE810AF0EE408A18EE900A03F050
:1011D00091FE41EC1E0BB0EE4E0AF0EE6E0A02F0EC
:1011E0007EFFB0EE40DAF0EE60DA94ED030AF2EE44
:1011F000000A20EE200A10EE101A084603F07AFECC
:1012000053EC1D2BCDE900019DED000B51EC100BB3
:1012100003F086FB41EC1B0B28EE080A10EE101AB7
:10122000084603F067FE41EC1C0B53EC1B2B03F04C
:1012300087FA41EC1A0BB0EE4A0AF0EE6A0A02F0A5
:1012400058FFB0EE409AF0EE609A51EC190B03F0A3
:1012500045FA0290284603F04DFE41EC190B18EEBA
:10126000900A03F047FE41EC1B0BB0EE4B0AF0EE88
:101270006B0A02F034FFB0EE40AAF0EE60AA53EC25
:10128000192B51EC1A0B03F049FC18D2B0EE680A86
:1012900002F016F900EE100AF8EEC00A9DED020AFF
:1012A00030EE480A60EE800AB0EE001A80EE810A45
:1012B000D4ED010A30EE200AB0EE40FA09E0D4ED98
:1012C000040A88EEA00AD4ED010A30EE200AB0EE3E
:1012D00040FA18EE100A03F00DFE41EC190B1FEE58
:1012E000100A03F007FE41EC1B0BB0EE4B0AF0EEC8
:1012F0006B0A02F0F4FEB0EE40AAF0EE60AA53ECE6
:10130000192B51EC1A0B03F009FC10D2B0EE4F0A66
:1013100002F0D6F800EE100AB8EEC00AD4ED030AC7
:10132000BFEE001A60EE810A60EE20FA09E094ED4B
:10133000030AFFEE000A20EE200A20EE0F0AC0EE9C
:1013400008FA94ED000AD4ED050A94ED011A00EEB6
:10135000810A84ED000A94ED010AD4ED050A00EE3D
:10136000AF0A84ED010A03B0BDEC108B30BD000064
:10137000000000000246002002EA01030BB1012038
:1013800000E000207047F0EE401AF4EEE01AF1EEB3
:1013900010FA02D2B0EE600A09E0F4EEC11AF1EEE2
:1013A00010FA02DDB0EE410A01E0B0EE610A7047CA
:1013B0000246094B9A4201D2084801E0064810381B
:1013C00001F000531BB1064B0B40C36002E0044B1D
:1013D0000B408360704700001064024000600240D0
:1013E0007D0F7D0F21B1026842F00102026003E02F
:1013F000026822F00102026070470000016821F0DB
:10140000010101600021016041608160C1600161F2
:10141000212141614A49884204D13D21484A103A7C
:1014200091608CE046491831884205D14FF47461CF
:10143000434A103A916082E041493031884205D1F7
:101440004FF474113E4A103A916078E03C494831BB
:10145000884205D14FF07461394A103A91606EE0CC
:1014600037496031884204D13649354A103AD16053
:1014700065E033497831884204D13349304A103A23
:10148000D1605CE02E499031884204D12F492C4A2A
:10149000103AD16053E02A49A831884205D14FF073
:1014A0003D51274A103AD16049E02949884204D188
:1014B0003D21274A083A116041E025491831884208
:1014C00005D14FF47461224A083A116037E020498F
:1014D0003031884205D14FF474111D4A083A116029
:1014E0002DE01B494831884205D14FF07461184AFC
:1014F000083A116023E016496031884204D111494D
:10150000134A121F11601AE011497831884204D140
:101510000D490F4A121F116011E00D4990318842A8
:1015200004D10A490A4A121F116008E00849A8318B
:10153000884204D14FF03D51054A121F1160704797
:10154000106002403D000020400F002000003D20C0
:1015500010640240014600200A6802F001020AB14C
:10156000012000E0002070470146486880B27047C3
:1015700010B500220268134B1A40CC680B68234355
:101580004C6923438C692343CC6923430C6A23436E
:101590004C6A23438C6A23434C6B23438C6B234359
:1015A0001A430260426922F00702D1E90B34234357
:1015B0001A4342610B6943604B6883608B68C36068
:1015C00010BD00003F801CF02DE9F0414FF00008F5
:1015D0000025002601208A49087000270AE1894871
:1015E0008068C45DB8F1060F77D2DFE808F0030821
:1015F0000E1D2533552C01D14FF00108F8E014B928
:101600004FF0020800E03227F2E02CB1012C03D0A9
:10161000022C01D0032C05D17B4804700B264FF01F
:10162000030800E03227E3E0B44203D14FF004089E
:10163000002500E03227DBE0B5EB860F04DA7348C3
:101640004455681CC5B204E014B94FF0050800E029
:101650003227CDE0AA2C09D1012005E0411E6B4ABA
:10166000515C694A1154401C2D28F7D34FF00008F3
:101670006548D0F80110084602F01EFD05280FD17C
:101680006148D0F80510084602F016FD052807D17C
:101690005D48D0F80910084602F00EFD052802D07A
:1016A0000020594908705848D0F8010000EE100A8F
:1016B0005748D0ED010A30EE600AB5EEC00AF1EEEF
:1016C00010FA0BDD5048D0F8010000EE100A504827
:1016D000D0ED010A30EE600A0CE088E04A48D0F80C
:1016E000010000EE100A4A48D0ED010A30EE600A0F
:1016F000B1EE400ADFED470AB4EEE00AF1EE10FA6F
:1017000004DD454800684049C1F801003E48D0F872
:10171000050000EE100A3E48D0ED010A30EE600AE6
:10172000B5EEC00AF1EE10FA0ADD3748D0F8050030
:1017300000EE100A3648D0ED010A30EE600A0BE0E8
:101740003148D0F8050000EE100A3148D0ED010A0A
:1017500030EE600AB1EE400ADFED300AB4EEE00A86
:10176000F1EE10FA04DD2E4800682749C1F80500A3
:101770002548D0F80100284908602348D0F8050022
:10178000274908602048D0F80900264908601E480B
:10179000D0F80D00244908601B48D0F811002349F7
:1017A00008601948D0F81500214908601648D0F89B
:1017B0001900204908601448D0F81D001E4908602F
:1017C0001148D0F821001D4908600F48D0F82500C5
:1017D0001B4908600C48D0F829001A4908601A48CB
:1017E000B0F85C00401C1849A1F85C0000E000BFA4
:1017F00000BF7F1C322FFFF4F2AEBDE8F081000085
:10180000D50400200C020020CC0B0020320B00205D
:10181000FC0B002000002042280200200000B442FF
:101820002C02002030020020340200203802002068
:101830003C02002040020020440200204802002018
:101840004C02002050020020840C002010B54448B7
:101850000078072803D109204249887006E04048F3
:1018600000786B2802D10A203E4988700B203D4940
:10187000C8703D4890ED010A3C4880ED000A0846DA
:1018800080ED010A3A4890ED010A3A4880ED000ADD
:10189000084680ED020A384890ED000A374880ED8E
:1018A000000A084680ED030A00F05AFC344880ED37
:1018B000000A2C4880ED040AB7EE000A314880ED9A
:1018C000000A284880ED050AB7EE000A2E4880ED90
:1018D000000A244880ED060A2C48007858B12C48AC
:1018E000007800EE100AB8EE400A2A4880ED000A9F
:1018F0001C4880ED070AB7EE000A274880ED000A71
:10190000184880ED080AB7EE000A244880ED000A66
:10191000144880ED090AB7EE000A214880ED000A5C
:10192000104880ED0A0AB7EE000A1E4880ED000A52
:101930000C4880ED0B0A1C491C48FFF739FD0021BB
:101940001A48FFF74FFD074818490C31086032204C
:101950001649091D086001211448FFF743FD10BD19
:1019600060010020D8010020FC0B00205402002060
:101970000C03002058020020680100205C020020B7
:101980006002002064020020680200204D01002057
:101990004C0100206C020020700200207402002024
:1019A000780200207C02002000802020A0640240F9
:1019B00010B51C48007801280ED11B4890ED000A94
:1019C0001A4880ED060AFFF7D7FB184890ED000A89
:1019D000174880ED000A05E0134890ED000A14480E
:1019E00080ED000A134890ED000A114880ED010ACD
:1019F000114890ED000A114880ED010A0C48FFF7EC
:101A000015FB0B4890ED0B0A0C4880ED000AFFF720
:101A10000DFB0A4890ED0B0AB1EE400A80ED0B0A6F
:101A200010BD000010050020B0030020940300202A
:101A30000C030020BC030020C00300205003002042
:101A4000B4EEE00AF1EE10FA01D2002007E0B4EEA5
:101A5000E00AF1EE10FA01DD012000E0022098B961
:101A6000B4EEE00AF1EE10FA02DBB0EE600A20E01C
:101A700070EE011AB0EE610AB4EEE00AF1EE10FA6F
:101A800017DBB0EE600A14E0012812D1B4EEE00AD0
:101A9000F1EE10FA02D8B0EE600A0AE070EE411AD8
:101AA000B0EE610AB4EEE00AF1EE10FA01D8B0EE41
:101AB000600A704710B5A1B94FF47A7292FBF0F248
:101AC000084B9B6E084C24681B1B9A4209D2074A9C
:101AD0001288521C12B2054B1A80024A926E024BB7
:101AE0001A6010BD840C00200C050020D4030020D7
:101AF000F0B50A4600210023002400BF3DE0012587
:101B000005FA01F3156805EA03049C4234D105681F
:101B10004F000326BE40B543056015794E00B54021
:101B20000668354305601579012D02D01579022D1F
:101B300016D185684F000326BE40B54385605579B0
:101B40004E00B540866835438560456801268E4065
:101B5000B5434560456896798E40B6B235434560D9
:101B6000C5684F000326BE40B543C560D5794E0019
:101B7000B540C6683543C560491C1029BFD3F0BDC8
:101B8000F0B5002300244D07ED0E02FA05F3CE1048
:101B900000F1200555F826504E07F70E0F26BE40DF
:101BA000B543CF1000F1200646F82750CE1000F1C3
:101BB000200555F8265045EA0304CE1000F1200513
:101BC00045F82640F0BD4183704701837047426964
:101BD0004A404261704701464A780B7842EA032046
:101BE000704710B501464FF6FF728B7803F0800303
:101BF0003BB113048C7843EA0423CC7843EA040015
:101C000003E0CB788C7843EA042010BD30B503465E
:101C100013B94FF6FF7030BD09E013F8014B82EAAB
:101C20000400C0B2054D35F8100080EA2222081EDB
:101C3000A1F10101F1D11046EDE70000EC500008E0
:101C400030B5034605E013F8010B80EA02040448AE
:101C5000025D081EA1F10101F5D1104630BD000062
:101C6000EB4F000810B53B480078012819D13A48DD
:101C700090ED001ADFED390A394890ED000AFFF7C0
:101C8000DFFE374880ED000A90ED000ADFED330AF1
:101C9000B4EEE00AF1EE10FA1FDB00202D490870C7
:101CA0001BE02C480078C0B92B4890ED001ADFEDFE
:101CB0002D0A2B4890ED000AFFF7C2FE284880ED60
:101CC000000A90ED000ADFED270AB4EEE00AF1EE1B
:101CD00010FA02D801201F49087023480078012813
:101CE00019D12248D0ED000AB0EE600A204890EDEC
:101CF000001ADFED200AFFF7A3FE1C4880ED000A62
:101D000090ED000AB5EEC00AF1EE10FA21D80020DD
:101D1000154908701DE014480078D0B91348D0ED7B
:101D2000000AB0EE600A124890ED001ADFED120AC8
:101D3000FFF786FE0D4880ED000A90ED000ADFED0A
:101D40000E0AB4EEE00AF1EE10FA02DB01200649B9
:101D5000087010BD1105002014050020000070421D
:101D6000B0030020000070C212050020FC0B002010
:101D70001805002000000000000020421CB51D488E
:101D80000078012802D100F041F805E019480078F8
:101D9000022801D1FFF766FF1748C078012802D159
:101DA000FFF706FE13E0154890ED010A80ED000AEA
:101DB000134890ED010A80ED000A9FED120A80EDB4
:101DC0000B0A0E48FFF732F90D48FFF72FF90020F4
:101DD000009001900A4890ED0B0ABDEEC00A10EE8B
:101DE000100A02B2002340F2FF110748FFF757F82C
:101DF0001CBD00000C040020480D00200C03002036
:101E000050030020000000000068004010B52DEDD8
:101E1000088B01206B4908706B480088A0F5806032
:101E2000002804DD68480088A0F5806003E066486B
:101E30000088C0F58060142803DA4FF4806062499E
:101E4000088061484088A0F58060002804DD5E4875
:101E50004088A0F5806003E05B484088C0F5806062
:101E6000142803DA4FF48060574948805648408868
:101E7000A0F58060E8B35548C078012841D15148A9
:101E80000078B8B150484088A0F5806000EE100A94
:101E9000F8EEC00A9FED4E1A80EE810AB3EE091AE1
:101EA000C0EE010A4B4890ED000A30EE600A80ED6A
:101EB000000A16E044484088A0F5806000EE100A51
:101EC000F8EEC00A9FED421A80EE810AF2EE080A8F
:101ED00080EE201A3F4890ED000A30EE410A80ED76
:101EE000000A3C48D0ED000AB0EE600A9FED3A1AB5
:101EF00000E006E0DFED390AFFF745FA354880EDEE
:101F0000000A31480088A0F5806088B32F48C07867
:101F1000012853D12B48007858B32B480088A0F5EE
:101F2000806000EE100AB8EEC00ADFED290A80EEEC
:101F3000201A11EE104A204602F0DCFF41EC1B0B88
:101F40009FED270B53EC102B02F0EAFC41EC190B30
:101F50002548006802F0CEFF41EC1A0B53EC192B18
:101F600002F0EEFB41EC180B02F0B8FB1E490860D2
:101F700024E015480088A0F5806000EE100AB8EE55
:101F8000C00ADFED130A80EE201A9FED180A21EE39
:101F9000000ADFED170A60EE200A9FED161A80EEA8
:101FA000810A9FED151AC0EE010A0F4890ED000A54
:101FB000B7EE081A00EE810A80ED000ABDEC088B2E
:101FC00010BD00001C050020F60A0020480D00206E
:101FD00000002544FC0B002000002042000000000F
:101FE0009A9999999999B93FB003002000806D455D
:101FF0000000B443000000460000AF4410B5244880
:102000000078552842D122484078E0BB142120486E
:1020100001F0DCFFB8B314221D491E48FEF744F955
:102020001C48D0F802001C4908601A48D0F80A0081
:102030001A4948601748D0F80E0019490860154839
:10204000807C18490870184890ED000ADFED170AE7
:10205000B4EEE00AF1EE10FA05D20E48D0F8060010
:102060001349086009E00B48D0F8060000EE100A9A
:10207000B1EE400A0E4880ED000A0E48B0F8540058
:10208000401C0C4900E001E0A1F8540010BD000024
:102090001E0B0020B2010020BC030020FC0B00201E
:1020A000C803002026040020C40300200000B4421E
:1020B000C0030020840C002010B51C48D0ED000A9D
:1020C000B0EE600A002000F00BFCB1EE400A10EE0A
:1020D000100A1749C1F81E001648B0F9001014483C
:1020E00081831548008801B2114841831348C178A3
:1020F0000F488175114801790D48C1750F211430C1
:10210000FEF7BFF90E490F48FFF752F900210D48BD
:10211000FFF768F9064814300A49583948660F2015
:10212000C86501210748FFF75DF910BDFC0B0020D1
:10213000B2010020D4030020D0030020480D00206D
:10214000008000185860024010B5FFF717FE0348E2
:102150008089401C0149888110BD0000840C00204A
:1021600070B5ED4D2D78072D74D1EC4D2D8865B9E6
:10217000EB4D2D8A002D08DDEA4DAD6EEA4E35603F
:102180000025EA4E3570002417E0E64DAD6EE64EB0
:102190003668AD1B42F21076B5420DD90125E34EEB
:1021A0003570DF4D2D8A5A2D04DCDD4D2D8A0DB1A1
:1021B000012402E0002400E00024DD4D2D8865B9F3
:1021C000D74D6D8A002D08DDD64DAD6ED94E3560E8
:1021D0000025D94E3570002117E0D24DAD6ED54E99
:1021E0003668AD1B42F21076B5420DD90025D24EAD
:1021F0003570CB4D6D8A642D04DCC94D6D8A0DB1EF
:10220000022102E0002100E00021CC4D2D8865B9BB
:10221000C34DAD8A002D08DDC24DAD6EC84E356090
:102220000025C84E3570002218E0BE4DAD6EC44E7C
:102230003668AD1B42F21076B5420ED90125C14E6B
:102240003570B74DAD8A462D05DCB54DAD8A15B15B
:10225000032203E067E0002200E00022BA4D2D884F
:1022600065B9AF4DED8A002D08DDAE4DAD6EB74EB0
:1022700035600025B64E3570002317E0A94DAD6ED0
:10228000B24E3668AD1B42F21076B5420DD901252B
:10229000AF4E3570A24DED8A462D04DCA04DED8A7F
:1022A0000DB1042302E0002300E00023A94D2D8896
:1022B00065B99B4D2D8B002D08DD9A4DAD6EA64E58
:1022C00035600025A54E3570002017E0954DAD6EA8
:1022D000A14E3668AD1B42F21076B5420DD90125EC
:1022E0009E4E35708E4D2D8B462D04DC8C4D2D8BE6
:1022F0000DB1052002E0002000E00020884D2D8A6D
:10230000864E3580864D6D8A894E3580844DAD8AE6
:102310008A4E3580824DED8A8B4E3580804D2D8BD7
:102320008C4E3580DFE07C4D2D786B2DFAD17B4DC6
:102330002D8865B97A4D2D88002D08DD794DAD6E5B
:10234000794E35600025794E3570002417E0754DC3
:10235000AD6E754E3668AD1B42F21076B5420DD9A2
:102360000125724E35706E4D2D885A2D04DC6C4D52
:102370002D880DB1012402E0002400E000246C4D02
:102380002D8865B9664D6D88002D08DD654DAD6EF3
:10239000684E35600025684E3570002117E0614DAC
:1023A000AD6E644E3668AD1B42F21076B5420DD963
:1023B0000125614E35705A4D6D88642D04DC584DF1
:1023C0006D880DB1022102E0002100E000215B4D8B
:1023D0002D8865B9524DAD88002D08DD514DAD6E8B
:1023E000574E35600025574E3570002217E04D4D91
:1023F000AD6E534E3668AD1B42F21076B5420DD924
:102400000125504E3570464DAD88462D04DC444DB7
:10241000AD880DB1052202E0002200E000224A4D05
:102420002D8865B93E4DED88002D08DD3D4DAD6E22
:10243000464E35600025464E3570002317E0394D75
:10244000AD6E424E3668AD1B42F21076B5420DD9E4
:1024500001253F4E3570324DED88462D04DC304D60
:10246000ED880DB1042302E0002300E00023394D84
:102470002D8865B92A4D2D89002D08DD294DAD6EB9
:10248000354E35600025354E3570002017E0254D5E
:10249000AD6E314E3668AD1B42F21076B5420DD9A5
:1024A00001252E4E35701E4D2D89462D04DC1C4D08
:1024B0002D890DB1052002E0002000E00020184D1C
:1024C0002D88164E3580164D6D88194E3580144D69
:1024D000AD881A4E3580124DED881B4E3580104D5B
:1024E0002D891C4E358042F21075654301EB410683
:1024F000C6EBC11605EBC60502EBC20606EB0216DB
:1025000005EB860503EB830605EB4605054400EE67
:10251000105AB8EEC00A70BD60010020D604002039
:10252000130A0020840C0020D80400204C04002052
:10253000DC040020E00400204D040020E40400201E
:10254000E80400204E040020EC040020F0040020E9
:102550004F040020F4040020F80400205004002060
:1025600010B500244D480068401C4C4908604C4898
:10257000C07810B94A484078E0B1484800689621D0
:10258000B0FBF1F201FB120098B94FF4004145484D
:10259000FFF71BFB4FF480414248FFF716FB4FF457
:1025A00000514048FFF711FB4FF480513D48FFF7C1
:1025B0000AFB01243A48007910B939488078E0B123
:1025C00036480068C821B0FBF1F201FB120098B94F
:1025D0004FF400413348FFF7F8FA4FF40051314807
:1025E000FFF7F3FA4FF480512E48FFF7EEFA4FF45D
:1025F00080412C48FFF7E7FA01242948407910B9B7
:1026000027488079E0B125480068FA21B0FBF1F253
:1026100001FB120098B94FF400412248FFF7D5FAA8
:102620004FF480411F48FFF7D0FA4FF480511D4806
:10263000FFF7CBFA4FF400511A48FFF7C4FA012410
:102640001748007870B1154800686421B0FBF1F2BA
:1026500001FB120020B94FF400611248FFF7B7FAEE
:10266000012404E04FF400610E48FFF7AEFA9CB974
:102670004FF480410B48FFF7A8FA4FF40051094886
:10268000FFF7A3FA4FF480510648FFF79EFA4FF484
:1026900000410448FFF797FA10BD0000FC04002039
:1026A000040400200010024010B5FFF759FF034852
:1026B000808D401C0149888510BD0000840C0020DD
:1026C00010B52148807A02280AD100201F490870DD
:1026D0000121084600F048F8002000F02BFF31E00F
:1026E0001948807A03280AD101201849087001216D
:1026F000002000F039F8012000F01CFF22E0124811
:10270000807A01280DD11048C07A022809D10F49DA
:1027100008700121002000F027F8012000F00AFFD6
:1027200010E00948807A01280CD10748C07A0328B4
:1027300008D1064908700121002000F015F8012099
:1027400000F0F8FE10BD0000F60A00200C04002086
:1027500010B5FFF7B5FF03480089401C0149088107
:1027600010BD0000840C002018B10022034BDA7069
:1027700002E00122014BDA7070470000480D002092
:1027800008B54FF4A06000F0A1F825208DF80000F6
:1027900000208DF801008DF8020001208DF8030063
:1027A000684600F057F826208DF8000000208DF8CC
:1027B00001008DF8020001208DF80300684600F04A
:1027C00049F827208DF8000000208DF801008DF8D1
:1027D000020001208DF80300684600F03BF8472016
:1027E0008DF8000000208DF801008DF80200012016
:1027F0008DF80300684600F02DF83A208DF80000AF
:1028000000208DF8010001208DF802008DF80300F2
:10281000684600F01FF814208DF8000001208DF8A4
:10282000010002208DF8020001208DF803006846A7
:1028300000F010F840208DF8000001208DF8010014
:1028400002208DF8020001208DF80300684600F098
:1028500001F808BD70B5002100230F22C4781CB315
:10286000174C246804F4E064C4F5E064C4F3072161
:10287000C1F10404E3B20A4144789C40E1B2847897
:10288000144021430C07210E0E4C05786155047845
:1028900004F01F050124AC4005786D11AD0005F171
:1028A000E025C5F8004109E0047804F01F05012483
:1028B000AC40054D0678761145F8264070BD000005
:1028C0000CED00E000E400E080E100E0024901439B
:1028D000024A1160704700000000FA050CED00E0AC
:1028E000F0EE400AC8B10E490A780978491E0C4B2F
:1028F00019701AB10B4991ED000A70470A4909682D
:102900000F22B1FBF2F302FB1311054A11700549C6
:10291000C1ED000A91ED000AEFE7B0EE600AECE7C6
:10292000CC040020D0040020240C0040CBE0002484
:10293000C4E004EBC400644901EB8000007A002885
:102940007DD16248006804EBC4015F4A02EB81015B
:102950000969401A04EBC40102EB810148615B483C
:10296000006804EBC40102EB8101086104EBC401BF
:1029700002EB810148688047012004EBC401524A00
:1029800002EB810108725148006804EBC40102EBBC
:1029900081010969401A04EBC40102EB81018861DD
:1029A00004EBC400114601EB8000C06904EBC401D4
:1029B00002EB81018969884206D904EBC400114603
:1029C00001EB8000C06905E004EBC4003E4901EB67
:1029D0008000806904EBC4013B4A02EB8101C861BD
:1029E00004EBC400114601EB8000006A04EBC40153
:1029F00002EB81018969884206D204EBC4001146CA
:102A000001EB8000006A05E004EBC4002E4901EBF5
:102A10008000806904EBC4012B4A02EB810108624B
:102A200004EBC400114601EB800080692849096865
:102A300008442749086004EBC400114600E012E096
:102A400001EB8000C06923490968084421490860F6
:102A500004EBC400114601EB8000006A1E490968BE
:102A600008441D490860002522E01848006805EB6D
:102A7000C501154A02EB81010969401A05EBC50140
:102A800002EB8101C968884211D305EBC5001146EC
:102A900001EB8000007A022809D0002005EBC50177
:102AA00002EB81010872AC4201D96C1E04E06D1C7E
:102AB0000A4800688542D8D300BF641C07480068F4
:102AC0008442FFF436AF32E70C000020240C0040B3
:102AD0000000002004000020080000202C0100203D
:102AE00029B1064A12680243044B1A6004E0034A03
:102AF00012688243014B1A60704700003038024070
:102B000029B1064A12680243044B1A6004E0034AE2
:102B100012688243014B1A6070470000403802403F
:102B200029B1064A12680243044B1A6004E0034AC2
:102B300012688243014B1A6070470000203802403F
:102B400029B1064A12680243044B1A6004E0034AA2
:102B500012688243014B1A607047000044380240FB
:102B600029B1064A12680243044B1A6004E0034A82
:102B700012688243014B1A607047000024380240FB
:102B8000F0B5002100220024022500260223324F46
:102B90003F6807F00C0121B1042905D0082937D17D
:102BA00005E02E4F076036E02D4F076033E02A4FD7
:102BB0003F1F3F68C7F38056274F3F1F3F6807F00E
:102BC0003F036EB1264FB7FBF3F7DFF88CC0ACF1D3
:102BD000040CDCF800C0CCF3881C07FB0CF40CE000
:102BE0001E4FB7FBF3F7DFF870C0ACF1040CDCF854
:102BF00000C0CCF3881C07FB0CF4174F3F1F3F6845
:102C0000C7F301477F1C7D00B4FBF5F7076002E0C6
:102C1000124F076000BF00BF0F4F3F6807F0F00181
:102C20000909104F7A5C0768D74047600A4F3F6830
:102C300007F4E051890A0B4F7A5C4768D7408760F8
:102C4000054F3F6807F46041490B064F7A5C4768BF
:102C5000D740C760F0BD0000083802400024F400EF
:102C600000127A001D0500200178427841EA022115
:102C7000C1F30A011B4A11804178C910827841EAE8
:102C80004211C1F30A01174A5180C1788911C278F3
:102C900041EA8201027941EA8221C1F30A01114A23
:102CA000918001794910427941EAC211C1F30A01C8
:102CB0000C4AD180017C427C41EA0221C1F30A0125
:102CC000084A118141790911890891724179C1F34A
:102CD0000111D1720449B1F84810491C024AA2F806
:102CE00048107047F60A0020840C002010B54148B7
:102CF0000089A0F58060B0F5967F0EDD3E48007932
:102D000018B14FF42F703D4908603D48806E3D4931
:102D1000086001203C49087010E036480089A0F5A1
:102D2000806010F5967F09DA3348007930B14FF4AE
:102D3000FA70324908600020344908703048806ECB
:102D400030490968401A41F65831884217D92B4852
:102D50000068B0F52F7F04D02D480068B0F52F7FB4
:102D60000DD12948007850B124480068B0F52F7F74
:102D700002D101202549087000202349087023480A
:102D8000007850B31D480068B0F52F7F31D11A4844
:102D9000007910B31748C088A0F5806010F5967FC1
:102DA00004DA00210120FEF785FE22E01148808828
:102DB000A0F58060B0F5967F04DD00210920FEF7C4
:102DC00079FE16E00B48C088A0F58060B0F5967FCC
:102DD00004DD00210D20FEF76DFE0AE00548808825
:102DE000A0F5806010F5967F03DA00211120FEF730
:102DF00061FE10BDF60A0020480D0020D00300201F
:102E0000840C00200005002004050020E8030020B9
:102E1000CC03002070B505460C46164640F2022150
:102E2000681A8D4279D013DCB5F5827F6AD008DC50
:102E3000012D1CD0032D2AD0A5F2011000286DD140
:102E400049E0A5F2051000286AD0FC28F7D176E009
:102E5000052870D006DC01286ED002286DD0042829
:102E6000EDD109E1062869D0FF28E8D15CE1D64818
:102E70000088401CD44908803246E11DD348FDF744
:102E800013FAD248B0F80100D149088099E1CE4840
:102E90008088401CCC4988803246E11DCD48FDF732
:102EA00003FACD480078072808D1CA488089CB4961
:102EB0000880C848408BCA4908800BE0C6480078A3
:102EC0006B2807D1C348808BC4490880C14840891A
:102ED000C349088075E1BC488089401CBA49888193
:102EE0003246E11DBF48FDF7DFF9BE480088C0F358
:102EF000802018B10120BC49087002E00020BA49C6
:102F000008705EE1B048008A401CAF490882324632
:102F1000E11DB648FDF7C8F953E169E050E1FFE76C
:102F2000A948808A401CA84988823246E11DB048E1
:102F3000FDF7BAF945E1AAE088E092E0E5E0A248B1
:102F4000008B401CA04908833246E11DA948FDF7CB
:102F5000ABF9A8480078A0490870A6484088A6495F
:102F60000880A448008BA5490880A2480089A4498C
:102F70000880A048C089A34908809E48C088A2490B
:102F800008809C488089A1490880A148007870B9D0
:102F9000994800889F490988884208DA9E48B0F815
:102FA00068009E49088001209949087011E09A48FC
:102FB000806E9A490988401AB0F57A7F09D30020BB
:102FC00093490870964800889649088000209449E3
:102FD00008809048008888490988401A90490988E3
:102FE00008448F490880844800888A490880E8E0BE
:102FF0007548808B401C744988833246E11D8A489D
:10300000FDF752F9894890ED000A894880ED000AE1
:103010008548406885490860864800888649088058
:1030200081480089834908807F48408900B28349EC
:1030300008807D48808900B281490880012081494B
:1030400008707548806E80490860BAE05E48008C60
:10305000401C5D4908843246E11D7C48FDF724F997
:10306000AFE05948808C401C574988843246E11DA6
:103070007748FDF719F9A4E05348008D401C5249E8
:1030800008853246E11D7348FDF70EF999E04E4878
:10309000808D401C4C4988853246E11D6E48FDF705
:1030A00003F96D4840786D4908700846007801289A
:1030B00013D16B480088401C6949088066488078B5
:1030C000684908706448D0F8030067490860674899
:1030D0000088401C6549088016E060480078022896
:1030E00012D163480088401C614908805A488078A2
:1030F000604908705848D0F803005F4908605F488D
:103100000088401C5D4908805BE02F48008E401C11
:103110002D4908863246E11D5948FDF7C5F8584843
:103120000088584908804CE02748808E401C26497A
:1031300088865548D4F807100160B4F80B108180D8
:10314000B21F04F10D015148FDF7AEF84E4800885A
:10315000B0F5007F18D14C4880881F490978884213
:1031600012D1494841881C480078401E81420BD149
:1031700046480078464908704448407845490870F8
:1031800042488078444908703F48008840F2012155
:10319000884214D13C4880880F49097888420ED172
:1031A000394841880C480078801C814207D1374853
:1031B00000783A490870354840783949087000E08D
:1031C00000BF00BF70BD0000100D0020080A0020E5
:1031D0006C010020130A0020600100206E01002015
:1031E000700100208B01002052010020930100207B
:1031F000950100203E0A00205601002074010020A5
:1032000076010020780100207A0100207C01002056
:1032100086010020C4040020840C0020C204002089
:10322000C604002084010020590A00205801002013
:10323000280400205E0100205C0100204E010020D7
:10324000500100208801002020040020690A00208D
:103250009601002098010020990100207E010020A5
:103260003C04002061010020640100208001002056
:103270003E0400206201002068010020820100203D
:10328000A001002054010020AA010020850A00208E
:103290002D0400202C040020870100202F04002092
:1032A0002E0400202DE9F84F81460C4692464FF03F
:1032B000000B002500200090804676E0D9F8080039
:1032C00010F80860BBF1070F6BD2DFE80BF00411B8
:1032D0001E2534434D00A52E07D100254FF0010BCC
:1032E000A52229466D1C625401E04FF0000B59E005
:1032F0002846691CCDB22654032D05D16078A178EB
:1033000040EA01274FF0020B4CE02846691CCDB281
:1033100026544FF0030B45E02846691CCDB22654D5
:103320002946204600F052FE10B14FF0040B01E098
:103330004FF0000B36E02846691CCDB22654072D0D
:1033400007D16079A17940EA01201A4908804FF03D
:10335000050B27E02846691CCDB22654F81DA8426B
:1033600001D14FF0060B1DE02846691CCDB2265452
:1033700007F10900A84213D12946204600F006FEB5
:1033800070B13A4621460B480088FFF743FD4FF0E5
:10339000000B0948B0F84C00401C0749A1F84C004C
:1033A00000E000BF00BF08F10108D04586DBBDE8A2
:1033B000F88F0000BE040020840C002010B5FEF73A
:1033C0007BFE0348808B401C0149888310BD0000B0
:1033D000840C00200CB50020019000903448006857
:1033E00040F480303249086000BF3148006800F482
:1033F000003000900198401C0190009818B9019885
:10340000B0F5A04FF1D12A48006800F4003010B1A7
:103410000120009001E0002000900098012846D192
:1034200023484030006840F0805021494031086016
:103430002048006840F440401E4908601C4808309D
:1034400000681B49083108600846006840F40040E5
:1034500008600846006840F4A05008601648091F3C
:103460000860081F006840F08070091F086000BFF6
:103470000F48006800F000700028F9D040F2057095
:103480000E4908600A480830006820F00300084927
:10349000083108600846006840F00200086000BF7C
:1034A00003480830006800F00C000828F8D10CBD73
:1034B000003802400070004008544007003C0240C1
:1034C000B5EEC00AF1EE10FA01DD01207047B5EE4D
:1034D000C00AF1EE10FA02D24FF0FF30F6E70020FA
:1034E000F4E7000010B50F480078012803D00D481C
:1034F0000078022802D1FFF7F9FB05E009480078BF
:10350000032801D1FCF7D0FF002000F025F8064881
:103510000078054948700548B0F900000449088062
:1035200010BD00000C040020E8030020D40300209C
:10353000D603002018B10121054A117106E00021CF
:10354000034A11714FF4FA71024A1160704700008A
:10355000480D0020CC030020B8BB1C49097869B194
:103560001A49497851B91A4991ED060A174981ED6E
:10357000010A91ED010A81ED020A0DE01349097873
:1035800051B1124991ED020A81ED010A104991ED04
:10359000060A0E4981ED020A0C4991ED020AD1EDAD
:1035A000010A30EE600ADFED0B0A80EE201AB6EE5B
:1035B000000A31EE000ABDEEC00A81ED050AC968B5
:1035C000024A52691144014AD1607047E803002061
:1035D0009C0200200066E64610B5FFF783FF034813
:1035E000008A401C0149088210BD0000840C0020A4
:1035F0007A48806E401C794988660846806E4FF490
:103600007A71B0FBF1F201FB120000287DD1734802
:1036100080887249C88000208880084600894881D7
:103620000020088108468089C881002088810846DA
:10363000008A4882002008820846808AC8820020CA
:1036400088820846008B4883002008830846808BC8
:10365000C883002088830846008C488400200884A2
:103660000846808CC884002088840846008D4885E0
:10367000002008850846808DC8850020888508467A
:10368000008E4886002008860846808EC886002066
:1036900088860846008F4887002008870846808F64
:1036A000C887002088870846B0F84000A1F842008B
:1036B0000020A1F840000846B0F84400A1F84600F8
:1036C0000020A1F844000846B0F84800A1F84A00DC
:1036D0000020A1F848000846B0F84C00A1F84E00C0
:1036E0000020A1F84C000846B0F85000A1F85200A4
:1036F0000020A1F850000846B0F85400A1F8560088
:103700000020A1F85400084600E065E0B0F8580039
:10371000A1F85A000020A1F858000846B0F85C0053
:10372000A1F85E000020A1F85C000846B0F8600037
:10373000A1F862000020A1F860000846B0F864001B
:10374000A1F866000020A1F86400254800882449FB
:1037500048800020088008468088C8800020888033
:103760000846008948810020088108468089C88170
:10377000002088810846008A488200200882084686
:10378000808AC882002088820846008B48830020F7
:1037900008830846808BC883002088830846008CF5
:1037A0004884002008840846808CC88400208884CF
:1037B0000846008D4885002008850846808DC8850C
:1037C000002088850846008E488600200886084626
:1037D000808EC8860020888670470000840C0020F8
:1037E000100D002030B5164800684FF47A72B0FB17
:1037F000F2F1481EB0F1807F01D301201BE0481E8A
:103800004FF0E022506150170F22002807DA13070B
:103810001D0E0C4B00F00F04241F1D5503E0130771
:103820001C0E094B1C5400BF00204FF0E022906199
:1038300007201061002008B100BFFEE730BD000086
:10384000A804002018ED00E000E400E010B51548E1
:10385000006840F47000134908601348006840F0A5
:1038600001001149086000200F49083108600E4826
:1038700000680E4908400C4908600D48091D0860A1
:10388000081F006820F48020091F086000200649F6
:103890000C310860FFF79EFD4FF000600149803950
:1038A000086010BD88ED00E000380240FFFFF6FE22
:1038B0001030002410B53E48FFF762F900203D4962
:1038C000A1F86C0000BF0DE03A49B1F86C1000EBB4
:1038D000C002394B03EB8202128B1144354AA2F825
:1038E0006C10401C354909688842EDD33148B0F866
:1038F0006E003049B1F86C10884203DD2D48B0F8F5
:103900006E0002E02B48B0F86C002A49A1F86E0066
:103910000846B0F85200B0F5FA7F03DA01202849D2
:10392000C87002E000202649C8702248B0F856004E
:10393000B0F5FA7F03DA01202149487002E0002047
:103940001F4948701B48B0F84E000A2803DA0120CE
:103950001B49087002E00020194908701548B0F8AA
:10396000620040F2DC51884203DA012014494871B8
:1039700002E00020124948710E48B0F8660040F697
:10398000C411884203DA01200D49887102E0002049
:103990000B4988710B484088B0F5487F03DA012055
:1039A0000749C87102E000200549C87110BD000038
:1039B000A80D0020840C00200C0000202C01002009
:1039C00004040020F40C002010B5FFF773FF034837
:1039D0008088401C0149888010BD0000840C0020B4
:1039E0000EB501210820FFF78BF85320ADF8000039
:1039F0004FF0FF3001900020ADF80200ADF8080054
:103A00006946044800F014F80121024800F004F867
:103A10000EBD0000000C004021B1028842F00102FE
:103A2000028004E002884FF6FE731A40028070475D
:103A300000220288184B98420ED0184B98420BD0A7
:103A4000B0F1804F08D0164B984205D0154B9842E4
:103A500002D0154B984204D14FF68F731A404B8811
:103A60001A43124B984207D0114B984204D04FF69C
:103A7000FF431A400B891A4302804B68C3620B88CC
:103A80000385054B984202D0044B984201D18B7AB2
:103A90000386012383827047000001400004014037
:103AA0000004004000080040000C004000100040EE
:103AB0000014004010B540F22441124800F050F9C3
:103AC00001281DD10F4800880E4880880E48FDF758
:103AD0004BFD122808D10D48FFF7C6F80C48008EA0
:103AE000401C0B4908860BE000210748FDF77AFCD3
:103AF00012200549091D086001210348FDF772FCE9
:103B000010BD000000100140406402400C0B00207A
:103B1000840C002010B540F22441174800F020F931
:103B200040B340F22441144800F07EF81248008867
:103B30001148001D0088114800F0CCF904462246C7
:103B40000F490E48FFF7AEFB0E48B0F84E0060B9C3
:103B500000210D48FDF746FC4FF4FA700A49091D93
:103B6000086001210848FDF73DFC0648808E401C96
:103B70000449888610BD0000004400403001002048
:103B80000E090020840C00208860024010B540F22D
:103B90002441124800F0E4F801281DD10F480088A4
:103BA0000E48001D00880E48FDF7DEFC142807D1E2
:103BB000FEF724FA0B48008F401C0A4908870BE0E7
:103BC00000210748FDF70EFC142005492839C8627A
:103BD00001210348FDF706FC10BD0000004800402D
:103BE00028600240840C002010B540F224410B48AC
:103BF00000F0B6F8012810D1084800880748001DD9
:103C00000088074800F066F9FDF7DEFC0548B0F8CB
:103C10004400401C0349A1F8440010BD00140140B9
:103C20000C020020840C002010B50022002340F676
:103C30006A14A14200D100BF0A1201249440A3B229
:103C4000DC43048010BD21B1828942F4005282819C
:103C500004E082894DF6FF731A40828170471AB1E1
:103C6000838A0B43838202E0838A8B43838270477B
:103C700010B504463248844208D101211020FEF7D5
:103C80006FFF00211020FEF76BFF57E02D488442A4
:103C900009D101214804FEF743FF00214FF4003011
:103CA000FEF73EFF4AE02848844209D101218804FA
:103CB000FEF736FF00214FF48020FEF731FF3DE094
:103CC0002248844209D10121C804FEF729FF0021BE
:103CD0004FF40020FEF724FF30E01D48844209D154
:103CE00001210805FEF71CFF00214FF48010FEF7AC
:103CF00017FF23E01748844208D101212020FEF756
:103D00002FFF00212020FEF72BFF17E012488442EE
:103D100009D101218807FEF703FF00214FF0804001
:103D2000FEF7FEFE0AE00D48844207D1012140055E
:103D3000FEF7F6FE00216005FEF7F2FE10BD000062
:103D4000001001400044004000480040004C00408A
:103D5000005000400014014000780040007C00400A
:103D600070B50246002400230025002040F66A16A4
:103D7000B14200D100BFC1F3421501F01F0301267B
:103D800006FA03F3012D02D19689334006E0022D95
:103D900002D1168A334001E0968A33400C12012684
:103DA00006FA04F41688344013B10CB1012000E087
:103DB000002070BDF0B50346002400260025002039
:103DC00040F66A17B94200D100BF1846C1F3421449
:103DD00001F01F06012707FA06F5012C01D10C306E
:103DE00004E0022C01D1103000E014301AB1076851
:103DF0002F43076002E00768AF430760F0BD000093
:103E00002DE9FF4705460E460024A14600BFA04607
:103E1000B08900B100BF2C8A24F44054F0880443D8
:103E20002C82AC8941F20C608443B088318908430C
:103E3000718908430443AC81AC8A24F44074B0898E
:103E40000443AC826846FEF79BFE2048854202D0C0
:103E50001F48854202D1DDF80C9001E0DDF80890A2
:103E6000A88900F4004040B109EBC90000EB09103B
:103E700031684900B0FBF1F707E009EBC90000EB3E
:103E8000091031688900B0FBF1F76420B7FBF0F04E
:103E900004012009642101FB1078A88900F4004086
:103EA00040B1322000EBC800B0FBF1F000F0070099
:103EB000044308E0322000EB08106421B0FBF1F06D
:103EC00000F00F0004432C81BDE8FF870010014083
:103ED0000014014010B504466068FDF745FB618A97
:103EE000081AA082E08A218B0844E082E08A618A75
:103EF000884206DBE08A618A90FBF1F201FB120046
:103F0000E082E08AA18A884215DAA08AE18A401A12
:103F10002083208B218A884235DC002007E0E28A5A
:103F2000E1681144095CA2681154411C88B2218BDC
:103F30008142F4DC27E0A08A618A0844E18A401AC1
:103F40002083208B218A88421DDC002007E0E28A42
:103F5000E1681144095CA2681154411C88B2218BAC
:103F6000A28A891A8142F2DC002009E0E168095C3A
:103F7000238BA2681A44A38AD21A1154411C88B216
:103F8000A18A8142F2DC208B10BD000070B505468D
:103F90000C4600260DB1022C01D8002070BDA11ED8
:103FA000094802882846FDF731FE0646F1B2A01EF8
:103FB000285C814206D1601E285CB0EB162F01D12F
:103FC0000120EBE70020E9E7BC04002070B50546BE
:103FD0000C4600260DB1022C01D8002070BD611ED8
:103FE000FF222846FDF72CFE0646601E285CB042E4
:103FF00001D10120F2E70020F0E7000010B50548EC
:10400000007830B1FDF722FC0348008C401C0249C7
:10401000088410BD26040020840C002010B51D4823
:1040200000681D4908601D48007800EE100AB8EECF
:10403000400A10EE100A4860FEF792F810EE100ADF
:104040001549886016484068C860154800680861CE
:104050001448406848611348006888611249134851
:10406000FDF7A6F900211148FDF7BCF900BF0F4884
:10407000FDF770FA0028FAD107480C490C310860A6
:1040800054200A49A039C1F8A40001210748FDF7CE
:10409000A9F910BD68010020510400206201002030
:1040A000FC0B00200C03002000802020A0600240B8
:1040B00010B5FFF7B3FF10BD4100080218BF042080
:1040C0000A0E18BF40F001004FF07F4232EA0101B2
:1040D00008BF40F00200012808BF052070472DED01
:1040E000020B019820F0004001909DED000B02B002
:1040F000704700B52DED048BB0EE409AF0EE609A5B
:1041000083B051EC190B00F03FFD41EC180B18EE99
:10411000100A18EE901A8DED008B002818BF0120B0
:10412000084320F00040C0F17F6000F1E040C00F84
:1041300014D019EE101A19EE900A8DED009B00298B
:1041400018BF0121084320F00040C0F17F6000F15A
:10415000E040C00F04BF0120FCF7F3F8B0EE480ABE
:1041600003B0F0EE680ABDEC048B00BD10B5FCF79F
:1041700049FAFEF7DBFB002010BD000000B595B04A
:1041800001210846FEF7ACFC01211020FEF7D8FC07
:1041900001218805FEF7A4FC07220A213448FDF717
:1041A000EFFC4FF48060139002208DF85000032044
:1041B0008DF8510000208DF8520001208DF8530039
:1041C00013A92B48FDF794FC2A480F900020ADF866
:1041D0004000ADF84200ADF84400ADF848000420BE
:1041E000ADF846000FA92448FFF70AFE2348FDF763
:1041F00005F900BF2148FDF7ADF90028FAD14FF0CD
:10420000006000901C48001D01901D480290122083
:1042100004900020039005904FF4806006900020E9
:10422000079008904FF48070099040020A90002097
:104230000B9003200C9000200D900E9069460F48C3
:10424000FDF796F9012240F224410B48FFF7B2FD39
:10425000012240210848FFF702FD01210648FFF72F
:10426000F2FC01210548FDF7BDF815B000BD0000C6
:1042700000000240A086010000100140406402409E
:104280000C0B002010B596B0044601215B48FEF7E8
:1042900027FC01214804FEF733FC0722052158487A
:1042A000FDF76EFC072206215548FDF769FC6020EA
:1042B000149002208DF8540000208DF85600032041
:1042C0008DF8550000208DF8570014A94C48FDF7D3
:1042D0000FFC10940020ADF84400ADF84600ADF896
:1042E00048000C20ADF84A000020ADF84C0010A9A1
:1042F0004448FFF785FD26208DF83C0001208DF80D
:104300003D0000208DF83E0001208DF83F000FA8F1
:10431000FEF7A0FA3C48FDF771F84FF000600090FE
:104320003848001D019039480290002003904FF456
:10433000FA700490002005904FF4806006900020F1
:10434000079008904FF4807009904FF440300A9025
:1043500000200B900C900D900E9069462A48FDF7B6
:1043600007F929481830FDF749F800BF26481830EA
:10437000FDF7F0F80128F9D04FF0006000902148D7
:10438000001D019022480290402003905420049088
:10439000002005904FF48060069000200790089060
:1043A00009904FF440300A9000200B900C900D9033
:1043B0000E90694614481830FDF7DAF801211148CB
:1043C000FFF741FC012240F224410E48FFF7F2FCC6
:1043D000012240210B48FFF742FC012280210948BD
:1043E000FFF73DFC01210848FCF7FCFF01210648CE
:1043F0001830FCF7F7FF16B010BD000008002000D1
:10440000000C02400044004088600240200600206A
:104410005104002010B596B0044601210820FEF793
:104420005FFB01218804FEF76BFB01214805FEF7C5
:1044300057FB072208214748FDF7A2FB0722092165
:104440004448FDF79DFB4FF44070149002208DF816
:1044500054008DF8550000208DF8560001208DF88D
:10446000570014A93B48FDF743FB10940020ADF81A
:104470004400ADF84600ADF84800ADF84C000C2003
:10448000ADF84A0010A93448FFF7BAFC3348FCF7EE
:10449000B5FF00BF3148FDF75DF80028FAD14FF0B5
:1044A000006001902C48001D02902D4803901420BC
:1044B00005900020049006904FF480600790002043
:1044C000089009904FF480700A9040020B900020F1
:1044D0000C9003200D9000200E900F9001A91F4812
:1044E000FDF746F81D483030FCF788FF00BF1B4839
:1044F0003030FDF72FF80028F9D11A4803900F202B
:1045000005904020049000200A9001A91348303003
:10451000FDF72EF801211048FFF795FB012240F22C
:1045200024410D48FFF746FC012240210A48FFF7CD
:1045300096FB012280210848FFF791FB01210748E3
:10454000FCF750FF012105483030FCF74BFF16B057
:1045500010BD0000000C02400048004028600240EE
:104560001E0B0020C601002010B596B004460121A4
:104570000420FEF7B5FA01212020FEF7E1FA01211F
:104580008805FEF7ADFA082206215048FDF7F8FA33
:10459000082207214D48FDF7F3FA01208DF8560057
:1045A0008DF8570002208DF85400C020149002208E
:1045B0008DF8550014A94548FDF79AFA4448FFF7CD
:1045C00057FB10940020ADF84400ADF84600ADF85C
:1045D0004800ADF84C000C20ADF84A0010A93C484A
:1045E000FFF70EFC3B48FCF709FF4FF020600190FD
:1045F0003748001D029038480390002004903C206A
:104600000590002006904FF48060079000200890ED
:1046100009904FF480700A904FF440300B900020C6
:104620000C9003200D9000200E900F9001A92948B6
:10463000FCF79EFF27487830FCF7E0FE00BF2548D6
:104640007830FCF787FF0128F9D04FF02060019007
:104650001F48001D0290002003904020049000207D
:10466000059006904FF48060079000200890099014
:104670000A904FF440300B9000200C900D900E905B
:104680000F9001A913487830FCF772FF012240F225
:1046900024410F48FFF78EFB01210D48FFF7D3FAA5
:1046A000012240210A48FFF7DAFA01228021084856
:1046B000FFF7D5FA01210748FCF794FE00210548D1
:1046C0007830FCF78FFE16B010BD000000080240E5
:1046D00000140140286402405E0B002021F00042DB
:1046E000A2F16052B2F5801F01F0004328BFD2F161
:1046F0007F6C0BD95FEA001C43EAC20242EB5070A8
:1047000018BF704728BF20F001007047B2F5801F26
:10471000BCBF184670474FEA410C1CF5001F02D27F
:10472000084600F05DBC70B500F0A4F900000089F7
:10473000FFF7F6BF4FF00040A0F580007047000083
:1047400010B591EA030F48BF83F0004300F1F082F7
:10475000841A71EB030C05D2121943EB0C03001BF6
:1047600061EB0C01DFF824E14FEA1154A4EB135C78
:104770001EEA430F18BF9EEA445F73D023EA0E037C
:10478000DCF1200E21EA045143F4801332D322FAE3
:104790000CFE10EB0E0023FA0CFE41EB0E01CCF1E7
:1047A000200E03FA0EFE10EB0E0051F10001B1F5E0
:1047B000801FCCF1200E32D201EB045112FA0EF21E
:1047C000BDE8104058BF7047401C38BF5FEA420246
:1047D00018BF7047002814BF20F0010041F100010C
:1047E0004FEA410313F5001F38BF7047A1F1C041E4
:1047F00000F08EB9012A43EB0302ACF1200CDCF18E
:104800001F0E32BF4FF0000E23FA0CF310EB030023
:1048100041EB0451B4EB115FD0D0A1EB045101F591
:10482000801149085FEA300001EB04510ED350F1CA
:10483000000038BF12FA0EFE08D1BDE81040C9E7EB
:10484000401C38BF5FEA4202CAD1C3E7BDE810404E
:104850004FEA410313F5001F38BF7047A1F1C04173
:1048600000F056B99EEA445F08D011EA5E0FBDE839
:10487000104004BF01F0004100207047BDE8104027
:1048800070B500F0F7F800BF64FBBE3E0000E0FF2B
:10489000491058BFC1F140415B1058BFC3F14043BC
:1048A0008B42EFF30080704751EA030C17D41CF5DC
:1048B000801F58BFBCF5801F00F10680994218BFC9
:1048C000704708BF9042704707D711F5801F58BF47
:1048D00013F5801F19D499427047894270471CF51F
:1048E000801F08D5BCF5801FF7D58B4218BF7047D5
:1048F00008BF824270474FF4001C1CEB410F38BFC9
:104900001CEB430F01D28B42704770B500F0B2F838
:10491000922449004FF000514FF08053FFF7B8BF89
:10492000DFF848C170B51CEA111E1EBF1CEA131542
:104930009EEA0C0F95EA0C0F00F06F8081EA0304E9
:1049400023EA4C134EEAD47E21EA4C1141F4801143
:1049500043F48013AE44A1FB024CA0FB0365AEF10F
:104960007F7E361955EB0C05A1FB034C4CF100037F
:10497000A0FB021C16EB0C06654153F10003094233
:1049800018BF46F0010613F4007F0BD14FEA033144
:104990004FEA0530340341EA155140EA16506FF0F2
:1049A00003020AE04FEAC3214FEAC520F40241EABC
:1049B000555140EA56506FF0020202EB2E4201EBD5
:1049C000025585EACE710AD05FEA440C18BF24F084
:1049D000004450F1000041F1000120EAD47040F29F
:1049E000FE7C624500D270BDA84214BF4FF08044E7
:1049F0004FF04044002E08BF0024BEF1806FA8BFD6
:104A0000A1F1C041BDE8704080F282804FF000000B
:104A100001F1C04101F0004170479EEA0C0F0CEA21
:104A2000131518BF95EA0C0F06D04FF0000081EA6D
:104A3000030E0EF0004170BD00F01CF88900013E2D
:104A400000F007B800F009B84FEA430C5FEA5C5C7D
:104A500008D081EA030100F05BB84FEA410C5FEA3D
:104A60005C5CF6D14FF00000014970470000FF0781
:104A70000000F87F0EF1020E2EF0030E5EF8046BBC
:104A8000364205D4012A43EB030515F5001F12D861
:104A9000012841EB010C1CF5001F0CD80ED14FEA88
:104AA000D17C15F5001F0CEB4C0C0CF1020C08BF6F
:104AB0004CEBD37C04E04FF0080C01E04FEAD37CD0
:104AC0000CEB4C0526FA05F606F00706B6F1040CC9
:104AD00006D20EEB860CBDE870404CF0010C60472E
:104AE000DFE80CF0090B02024FF000414FF000002C
:104AF000A1F5002170BD19461046012851EB0104B3
:104B000018BFD4F5001484BF002001F0004170BD2F
:104B10000808A0F500114FEA3101704753EA010C73
:104B200017D41CF5801F58BFBCF5801F00F106800C
:104B30008B4218BF704708BF8242704707D713F5F2
:104B4000801F58BF11F5801F19D48B4270479B42BC
:104B500070471CF5801F08D5BCF5801FF7D599421A
:104B600018BF704708BF904270474FF4001C1CEB01
:104B7000430F38BF1CEB410F01D2994270470FB46D
:104B80000CBC03BCFFF7C1BE2DE9F04101F5801C50
:104B9000BCF5001FC0F2A9804FEA115C21EA0C515C
:104BA0000CF1FD0C41F480115FEA5C0C0CF5C07C4B
:104BB00001D34000494130A4890241EA9051870263
:104BC0008E0E0A0CA45D04FB04F602FB06F6C6F189
:104BD0004046A4FB0662F60D46EA422606FB06F4B2
:104BE000A4FB01235242C3F1404338BF5B1EA6FB26
:104BF00002420024E6FB0324D20B42EA4446A6FB11
:104C00000623A1FB02E2A3FB07E4E3FB614264424B
:104C1000C2F1404E38BFAEF1010EA6FB04234FF0A7
:104C20000002E6FB0E32A2FB03463400E2FB6264A4
:104C3000A1FB06E6A4FB07E8E4FB61687642C8F145
:104C4000405838BFA8F10108A2FB06E4A3FB08E521
:104C5000E2FB6854A1FB05E6A7FB04E8E1FB6486E0
:104C600018F1200556F10006A809A8F11B08B109A2
:104C700008F03F08B8F10A0F40EA86601CD901EB42
:104C80000C51BDE8F08100BFFCF5EEE8E2DDD8D3C1
:104C9000CFCBC7C3C0BDB9B6B4B1AEACA9A7A5A3AD
:104CA000A19F9D9B9A9896959392908F8D8C8B89BE
:104CB0008887868584838281A0FB006800FB01F2DF
:104CC00008EB4208B8EB872807D5341858EB0104E5
:104CD000D5D5401C51F10001D1E7341A78EB01041D
:104CE000CDD4401E71F10001C9E75FEA4C0C5FEAC8
:104CF0009C5C0DD105D34FF0000001F00041BDE8F0
:104D0000F081BDE8F04170B5FFF7B4FE6DDBFFBE8A
:104D1000BDE8F0414FF00000004970470000F87F07
:104D200010B591EA030F48BF83F000433FF510AD83
:104D3000841A71EB030C07D212198CF0004C43EB70
:104D40000C03001B61EB0C01DFF8A4E14FEA1154E6
:104D5000A4EB135C1EEA430F18BF9EEA445F00F009
:104D6000B08023EA6E03524221EA0451C3EB6E0382
:104D700038BF5B1EDCF1200E25D322FA0CFE10EBAF
:104D80000E0043FA0CFE41EB0E01CCF1200E03FAAB
:104D90000EFE10EB0E0051F10001CCF1200E29D4D3
:104DA00012FA0EF201EB0451BDE8104058BF7047F3
:104DB000401C1CBFB2F1004F704700280CBF491CBB
:104DC00020F00100704712EB020E43EB030218BF04
:104DD0004FF0010E4EEA4202ACF1200CDCF11E0E47
:104DE00054D943FA0CFE10EB0E0051F1FF31CCF117
:104DF0001E0ED5D50EF1010E12FA0EFE404141EB0A
:104E0000010101EB445C5FEA5C5C10D910EBDE70E1
:104E100001EB045138BFBEF1004FBDE8104018BF90
:104E2000704700280CBF491C20F00100704730D2A9
:104E30004FEAD42C11F5001124F400641BD0B1FA10
:104E400081F20B3AA41AA41ED2F12003914030FA49
:104E500003F31943904001EBCC71002C01EB04519A
:104E6000BDE81040A8BF704701F1C0414FF00000FD
:104E700001F000417047B0FA80F310FA03F100D15D
:104E800010BDE41A173C4805C90AE4E701EB0451D8
:104E900010BD491001EB0451BDE810404FEA30004D
:104EA00002E04FF0000170474A0008BF0042F8D00E
:104EB000B2F5001F28BF704701F000414FF000001D
:104EC00070479EEA445F07D011EA5E0FBDE81040CC
:104ED00004BF002100207047BDE8104070B5FFF707
:104EE000C9FD00BF40DFF63E83F000411046704729
:104EF0000000E0FF43004FEAD30C4FEA3C0C434074
:104F00001FBF40070CF1605113F0FE4F70471CF0BB
:104F1000006F03D100200CF0004170470CF00043FB
:104F200043EA507010B540EACC0000F00EF800BF24
:104F3000000000924FEA0001FFF7EABD4FF0004188
:104F40004FF00000A1F5002170470EF1020E2EF087
:104F5000030E5EF8044B244204D44FEA4102B2F13E
:104F60007F4F11D84FEA4003B3F17F4F0CD80ED1D9
:104F70004FEAD07CB2F17F4F0CEB4C0C0CF1020CE1
:104F800008BF4CEBD17C04E04FF0080C01E04FEA85
:104F9000D17C0CEB4C0324FA03F404F00704B4F1C5
:104FA000040C06D20EEB840CBDE810404CF0010C52
:104FB0006047DFE80CF0070802024FF00040A0F560
:104FC000800010BD0846420018BFD2F1807288BF31
:104FD00000F0004010BD4FF04070E1EE100A704745
:104FE000FF2141EAD050C0057047FF005EBCE2617E
:104FF0003FDD83C29C7E20A3FD1F419DC3217FFC1A
:10500000A2401E5F01E3BD3E6082DC237D9FC14262
:105010001CFEA0E1BF5D0380DE3C62BEE0025CDFFF
:1050200081633D7C22C09E1D43A1FF4618FAA42740
:10503000799BC584DA3866E5BB5907DB856739BAE1
:10504000E406581947A5FB7826C49A653BD987041E
:105050005AB8E6A7F91B45C6987A24F8A6441A99C7
:10506000C7257B3A6486D85B05E7B98CD2306EEDF4
:10507000B3510F4E10F2AC2F7193CD114FADF370B1
:105080002ECC92D38D6F31B2EC0E50AFF1134DCECA
:1050900090722C6D33D18F0C52B0EE326C8ED05397
:1050A0000DEFB1F0AE4C1291CF2D73CA947628ABB0
:1050B000F517490856B4EA6937D58B5709EBB53669
:1050C000688AD495CB2977F4AA4816E9B7550B8896
:1050D000D6346A2B7597C94A14F6A8742AC896154F
:1050E0004BA9F7B6E80A54D7896B3500000089113F
:1050F00012239B322446AD573665BF74488CC19D40
:105100005AAFD3BE6CCAE5DB7EE9F7F8811008011F
:1051100093331A22A5562C47B7753E64C99C408D1F
:10512000DBBF52AEEDDA64CBFFF976E802218B30BB
:10513000100299132667AF763444BD554AADC3BCFF
:10514000588ED19F6EEBE7FA7CC8F5D983310A20DF
:1051500091121803A7772E66B5543C45CBBD42ACDF
:10516000D99E508FEFFB66EAFDD874C904428D5377
:1051700016619F702004A9153227BB364CCEC5DFBF
:105180005EEDD7FC6888E1997AABF3BA85520C439F
:1051900097711E60A1142805B3373A26CDDE44CF9F
:1051A000DFFD56ECE9986089FBBB72AA06638F723B
:1051B00014409D512225AB343006B9174EEFC7FE7F
:1051C0005CCCD5DD6AA9E3B8788AF19B87730E625F
:1051D00095501C41A3352A24B1163807CFFF46EE5F
:1051E000DDDC54CDEBB962A8F99A708B0884819507
:1051F0001AA793B62CC2A5D33EE1B7F04008C9194F
:10520000522BDB3A644EED5F766DFF7C899400850E
:105210009BB712A6ADD224C3BFF136E0C11848092E
:10522000D33B5A2AE55E6C4FF77D7E6C0AA583B4AA
:10523000188691972EE3A7F23CC0B5D14229CB380E
:10524000500AD91B666FEF7E744CFD5D8BB502A4CE
:1052500099961087AFF326E2BDD034C1C3394A28EE
:10526000D11A580BE77F6E6EF55C7C4D0CC685D766
:105270001EE597F42880A1913AA3B3B2444ACD5BCE
:105280005669DF78600CE91D722FFB3E8DD604C78E
:105290009FF516E4A9902081BBB332A2C55A4C4BAE
:1052A000D7795E68E11C680DF33F7A2E0EE787F62A
:1052B0001CC495D52AA1A3B03882B193466BCF7A8E
:1052C0005448DD59622DEB3C700EF91F8FF706E64E
:1052D0009DD414C5ABB122A0B9923083C77B4E6A6E
:1052E000D5585C49E33D6A2CF11E780F53656E6416
:1052F000446174615461736B000000005669736906
:105300006F6E4461746153656E645461736B000029
:105310004C454453746174654368616E67655461BC
:10532000736B00004D6F646543686F6F7365546104
:10533000736B000047696D62616C5461736B0000B0
:1053400053797374656D4D6F6E69746F72546173C8
:105350006B000000566F6661506C75735461736B1F
:105360000000000053686F6F745461736B0000009D
:10537000905300080000002030050000C401000820
:10538000CC54000830050020E80E00002002000880
:10539000C11340531408C9393A080C0311420F1ABB
:1053A000FF011A24244B5127240312E80329241A4D
:1053B00034240B1C4921241A64240B1CD9352413D2
:1053C000EC520C1C08BD33241AFC240B1CFD3F249A
:1053D0001A546C0B1CB140241A10240B1CA926244F
:1053E000391D12441008408860024014081420201F
:1053F000061320FA0312F401835802021307121E47
:10540000164001400164021B64022D990A115512D5
:10541000022E0A32AA100A140140286402409A0B94
:105420001B205E04123202733C13803F0218200BD3
:105430001810421C0B1860411C091A540A119838A4
:10544000032534C23C409C450411137A44A00880D3
:10545000BB44CDCCCC3E0325C8C33CC0DA46044B8C
:10546000409C0411E370412FFA446F12833A040107
:10547000204BF40104717309098A01140111E3102E
:1054800027253333333FBA9084693F0912471A0501
:105490000279282901015243807F7C7A030A6860DF
:1054A0000A02030406070809FFFFEB58029C529604
:1054B0005AF4157264E9080114293378090AD7A34C
:0C54C0003CCDCC4C3D6D6971310000000A
:040000050800018965
:00000001FF
