:020000040800F2
:10000000000A00202902000831020008330200081B
:10001000350200083702000839020008000000001D
:100020000000000000000000000000003B0200088B
:100030003D020008000000003F02000841020008E5
:10004000430200084302000843020008430200087C
:10005000430200084302000843020008430200086C
:10006000430200084302000843020008430200085C
:10007000430200084302000843020008430200084C
:10008000430200084302000843020008430200083C
:100090001D0500084302000843020008430200084F
:1000A000430200084302000843020008430200081C
:1000B000430200084302000843020008430200080C
:1000C00043020008430200084302000843020008FC
:1000D0004302000843020008430200081D180008FC
:1000E00043020008430200084302000843020008DC
:1000F00043020008430200084302000843020008CC
:1001000043020008430200084302000843020008BB
:1001100043020008430200084302000843020008AB
:10012000430200084302000843020008430200089B
:10013000430200084302000843020008430200088B
:100140007107000843020008430200084302000848
:10015000430200084302000843020008430200086B
:10016000430200084302000843020008430200085B
:10017000430200084302000843020008430200084B
:10018000430200084302000800F002F800F03CF8C7
:100190000AA090E8000C82448344AAF10107DA45E2
:1001A00001D100F031F8AFF2090EBAE80F0013F0F8
:1001B000010F18BFFB1A43F001031847201D000070
:1001C000401D0000103A24BF78C878C1FAD8520701
:1001D00024BF30C830C144BF04680C6070470000C1
:1001E0000023002400250026103A28BF78C1FBD840
:1001F000520728BF30C148BF0B6070471FB501F0E0
:10020000DDFC1FBD10B510BD00F0ACF81146FFF7C6
:10021000F5FF01F020FC00F0CAF803B4FFF7F2FF8D
:1002200003BC00F0CDF800000948804709480047AA
:10023000FEE7FEE7FEE7FEE7FEE7FEE7FEE7FEE796
:10024000FEE7FEE704480549054A064B70470000F3
:10025000B51500088901000800040020000A0020EC
:100260000006002000060020032A40F2308010F033
:10027000030C00F0158011F8013BBCF1020F624441
:1002800098BF11F801CB00F8013B38BF11F8013BD2
:10029000A2F1040298BF00F801CB38BF00F8013B7F
:1002A00011F0030300F02880083AC0F0088051F8EC
:1002B000043B083A51F804CBA0E80810F5E7121DFA
:1002C0005CBF51F8043B40F8043BAFF30080D20719
:1002D00024BF11F8013B11F801CB48BF11F8012BE5
:1002E00024BF00F8013B00F801CB48BF00F8012B08
:1002F000704770477047704710B5203AC0F00B80C8
:10030000B1E81850203AA0E81850B1E81850A0E819
:100310001850BFF4F5AF5FEA027C24BFB1E8185073
:10032000A0E8185044BF18C918C0BDE810405FEAE3
:10033000827C24BF51F8043B40F8043B08BF70475F
:10034000D20728BF31F8023B48BF11F8012B28BF64
:1003500020F8023B48BF00F8012B70470048704767
:100360009C0300207546FFF7F9FFAE46050069467D
:10037000534620F00700854618B020B5FFF762FF0E
:10038000BDE820404FF000064FF000074FF0000896
:100390004FF0000B21F00701AC46ACE8C009ACE817
:1003A000C009ACE8C009ACE8C0098D46704710B57B
:1003B0000446AFF300802046BDE81040FFF72DBF94
:1003C00001491820ABBEFEE726000200704710B5B9
:1003D00002684260016042688A1A826043695A4238
:1003E00002EBD2748368B3EB640F04DA436982686A
:1003F0001A4482600AE0426902EBD2748368B3EB6C
:10040000640F03DD43698268D21A8260D0ED060A68
:1004100090ED020AB8EEC00A30EE800A80ED060ABE
:1004200010BD10B501F090F900F00AF800F096F850
:100430004FF4E12001F016FB00F00CFE10BD0000AF
:1004400000B589B00121022000F0AAFF0121480671
:1004500000F0B6FF4FF44070009002208DF80400C9
:100460008DF8050000208DF8060001208DF80700AA
:100470006946274800F00AFD09220821244800F0B7
:100480004DFD09221146224800F048FD00208DF85C
:100490001E0001208DF81F008DF8200000208DF82F
:1004A00021008DF8220001208DF8230000208DF816
:1004B0001A008DF81B0008208DF81C0003208DF811
:1004C0001D00ADF8180006A9124800F0E2FA00205D
:1004D0008DF812008DF8130001208DF81400002013
:1004E000ADF80800ADF80A00ADF80C00ADF80E004C
:1004F000ADF8100001208DF8150002A800F0ACF94D
:1005000001220221034800F0BBFA09B000BD00003F
:1005100000040240006400407047000010B5022152
:100520000B4800F01DFA88B10221094800F040F99B
:10053000084A0021064800F036FBFFF7EDFF0648A9
:10054000B0F86400401C0449A1F8640010BD00002C
:1005500000640040FC000020B002002000B589B01B
:100560000121880600F02CFF6020009002208DF809
:1005700004008DF8050000208DF8060001208DF89C
:1005800007006946274800F081FC0922052125481B
:1005900000F0C4FC09220621224800F0BFFC002024
:1005A0008DF81E0001208DF81F008DF8200000201E
:1005B0008DF821008DF8220001208DF82300002005
:1005C0008DF81B0008208DF81C0003208DF81D00FD
:1005D000ADF8180006A9144800F05BFA0E208DF85B
:1005E000120000208DF8130001208DF81400002067
:1005F000ADF80800ADF80A00ADF80C00ADF80E003B
:10060000ADF8100001208DF8150002A800F024F9C3
:100610000E208DF8120001220221034800F030FA6A
:1006200009B000BD000402400068004010B5474812
:100630000068A0F2052000287DD14548008A401CB2
:100640004349088243480078F0B340480B3000F03B
:1006500088FC41490860084690ED000AB8EE400A5F
:1006600080ED060A486900EBD071491000EE101ABF
:10067000B8EEC00A3849D1ED060A9FED381A70EE7F
:10068000C10AB4EEE00AF1EE10FA0BD20846D0ED42
:10069000060A90ED050AB8EEC00A30EEC00A80EDF9
:1006A000060A22E02C494969484200EBD071491002
:1006B00000EE101AB8EEC00A2749D1ED060A9FEDE8
:1006C000271A70EEC10A00E013E0B4EEE00AF1EE82
:1006D00010FA0ADD0846D0ED060A90ED050AB8EEDC
:1006E000C00A30EE800A80ED060A00201949087021
:1006F00008E016480B3000F034FC0446214616484A
:10070000FFF765FE144890ED060ADFED140A30EE9F
:10071000600ADFED130A20EE200ADFED120A80EEF8
:10072000201A114880ED001A08480B3000F01FFC19
:1007300000EE100A00E005E0B8EEC00A0B4880EDBC
:10074000000A00E000BF00BF10BD00001001002043
:1007500024030020E8000020380000200080AA4484
:100760000000B44300000046C8000020CC00002078
:1007700010B502210B4800F0F3F888B102210948B6
:1007800000F016F8084A0021064800F00CFAFFF7BE
:100790004DFF0648B0F86800401C0449A1F8680005
:1007A00010BD00000068004010010020B0020020D1
:1007B000B1F5007F3AD00FDC202928D006DC0129D2
:1007C0001CD004291DD0082940D11DE0402921D08A
:1007D000B1F5807F3AD126E0B1F5004F31D006DC8B
:1007E000B1F5806F25D0B1F5006F2FD124E0B1F5C0
:1007F000803F12D0B1F5003F28D111E0154A826048
:1008000025E00822C26022E01022C2601FE0082218
:1008100002611CE01022026119E00822426016E029
:100820001022426013E00422426010E00422426081
:100830000DE0042242600AE000228261042242604C
:1008400005E0002282610422426000E000BF00BF98
:10085000704700000101010010B50021837A0122D8
:1008600002FA03F13D4A126842F001023B4B1A6062
:100870003A4A1C3212688A43384B1C331A60027B96
:10088000CAB9364A0C3212688A43344B0C331A60A8
:100890004288C38842EA0343304A4032847A42F8AD
:1008A00034300288838842EA03432C4A4032847AF7
:1008B00002EBC4025360027B012A19D1274A0C3291
:1008C00012680A43254B0C331A604288038842EAB7
:1008D0000343224A4032847A42F83430C288838803
:1008E00042EA03431D4A4032847A02EBC402536059
:1008F000C27A3AB9194A121D12688A43174B1B1D56
:100900001A6006E0154A121D12680A43134B1B1D9C
:100910001A60028932B9114A143212688A430F4BA5
:1009200014331A600289012A06D10C4A1432126863
:100930000A430A4B14331A60427B012A06D1074A44
:100940001C3212680A43054B1C331A60034A1268B2
:1009500022F00102014B1A6010BD00000066004049
:1009600070B504460D46002660692840002871D005
:10097000B5F5807F5CD010DC082D35D006DC012D6C
:1009800020D0022D24D0042D72D127E0102D31D09B
:10099000202D35D0402D6BD138E0B5F5004F60D01B
:1009A00009DCB5F5007F49D0B5F5806F4CD0B5F5C1
:1009B000006F5DD14FE0B5F5803F2DD0B5F5003F1C
:1009C00056D12FE0A0682D4900F065F9064651E0A8
:1009D000E068032100F05FF906464BE0E06808217B
:1009E00000F059F9064645E0E068102100F053F99F
:1009F00006463FE02069032100F04DF9064639E044
:100A00002069082100F047F9064633E020691021EB
:100A100000F041F906462DE06068082100F03BF93E
:100A2000064627E06068102100F035F9064621E00F
:100A3000A069012100F02FF906461BE0A069022100
:100A400000F029F9064615E0A069042100F023F919
:100A500006460FE00FE0A069702100F01CF9064681
:100A600008E06068042100F016F9064602E0FFE79E
:100A7000002600BF00E00026304670BD01010100E5
:100A80001AB143690B43436102E043698B434361FD
:100A9000704730B5024600200023146824F0020499
:100AA0001460146844F00104146000E05B1C546896
:100AB00004F001041CB94FF6FF74A342F6D1546848
:100AC00004F001040CB900206CE08C79012C04D1F5
:100AD000146844F08004146003E0146824F0800477
:100AE0001460CC79012C04D1146844F040041460E3
:100AF00003E0146824F0400414600C7A012C04D143
:100B0000146844F02004146003E0146824F0200406
:100B100014604C7A012C04D1146844F01004146061
:100B200003E0146824F0100414608C7A012C04D1C2
:100B3000146844F00804146003E0146824F0080406
:100B40001460CC7A012C04D1146844F004041460BD
:100B500003E0146824F0040414608C78A407CD78B2
:100B600044EA05640D7944EA05444D7944EA0554A4
:100B70000D886D1E2C43D461146824F001041460A8
:100B8000002300E05B1C546804F001041CB14FF624
:100B9000FF74A342F6D1546804F001040CB10020A4
:100BA00000E0012030BD10B500F5D87303EB011350
:100BB0001B6803F004031372137A53B900F5D8735A
:100BC00003EB01131B6840F2FF7404EA53531360F4
:100BD00009E000F5D87303EB01131B686FF0604464
:100BE00004EAD303536000F5D87303EB01131B68C9
:100BF00003F00203537200F5D87303EB01135B6833
:100C000003F00F03937200F5D87303EB01135B68D5
:100C10001B0AD37400F5D87303EB01139B68D372DE
:100C200000F5D87303EB01139B681C0A147300F5DD
:100C3000D87303EB01139B681C0C547300F5D87335
:100C400003EB01139B681B0E937300F5D87303EB42
:100C50000113DB68D37300F5D87303EB0113DB6872
:100C60001C0A147400F5D87303EB0113DB681C0C29
:100C7000547400F5D87303EB0113DB681B0E9374F7
:100C800021B9C36843F02003C36003E0036943F064
:100C90002003036110BD0246002002EA01030BB1EC
:100CA000012000E00020704721B1026842F00102FB
:100CB000026003E0026822F0010202607047000057
:100CC000016821F001010160002101604160816043
:100CD000C1600161212141614A49884204D13D211D
:100CE000484A103A91608CE046491831884205D153
:100CF0004FF47461434A103A916082E041493031C7
:100D0000884205D14FF474113E4A103A916078E060
:100D10003C494831884205D14FF07461394A103A54
:100D200091606EE037496031884204D13649354AD6
:100D3000103AD16065E033497831884204D13349B3
:100D4000304A103AD1605CE02E499031884204D19B
:100D50002F492C4A103AD16053E02A49A8318842E1
:100D600005D14FF03D51274A103AD16049E0294959
:100D7000884204D13D21274A083A116041E02549C3
:100D80001831884205D14FF47461224A083A116043
:100D900037E020493031884205D14FF474111D4AA3
:100DA000083A11602DE01B494831884205D14FF0C7
:100DB0007461184A083A116023E01649603188428C
:100DC00004D11149134A121F11601AE011497831F8
:100DD000884204D10D490F4A121F116011E00D49DC
:100DE0009031884204D10A490A4A121F116008E072
:100DF0000849A831884204D14FF03D51054A121FDD
:100E000011607047106002403D000020400F00203C
:100E100000003D2010640240014600200A6802F0F4
:100E200001020AB1012000E0002070470146486835
:100E300080B2704710B500220268134B1A40CC688C
:100E40000B6823434C6923438C692343CC692343B8
:100E50000C6A23434C6A23438C6A23434C6B234321
:100E60008C6B23431A430260426922F00702D1E9E6
:100E70000B3423431A4342610B6943604B68836020
:100E80008B68C36010BD00003F801CF0F0B50A46BF
:100E900000210023002400BF3DE0012505FA01F3F5
:100EA000156805EA03049C4234D105684F00032607
:100EB000BE40B543056015794E00B5400668354320
:100EC00005601579012D02D01579022D16D185689E
:100ED0004F000326BE40B543856055794E00B540AE
:100EE000866835438560456801268E40B543456078
:100EF000456896798E40B6B235434560C5684F0067
:100F00000326BE40B543C560D5794E00B540C668DE
:100F10003543C560491C1029BFD3F0BDF0B500238F
:100F200000244D07ED0E02FA05F3CE1000F1200566
:100F300055F826504E07F70E0F26BE40B543CF108A
:100F400000F1200646F82750CE1000F1200555F894
:100F5000265045EA0304CE1000F1200545F826404E
:100F6000F0BD01464A780B7842EA0320704710B57D
:100F700001464FF6FF728B7803F080033BB11304F8
:100F80008C7843EA0423CC7843EA040003E0CB786E
:100F90008C7843EA042010BD30B5034605E013F811
:100FA000010B80EA02040448025D081EA1F1010160
:100FB000F5D1104630BD0000C71B000810B51E4813
:100FC0000078552837D11C484078A0BB10211A481A
:100FD00000F02AFD78B3102217491848FFF744F9AA
:100FE0001648D0F80200164908601448D0F80A00E4
:100FF00014490860084690ED000ADFED130AB4EECC
:10100000E00AF1EE10FA05D20C48D0F806000F49BC
:10101000086009E00948D0F8060000EE100AB1EEB9
:10102000400A0A4880ED000A0948B0F85800401C00
:101030000749A1F8580010BD3A0100204A010020DC
:10104000D0000020D80000200000B442D4000020CE
:10105000B002002008B54FF4A06000F0BDF82520D4
:101060008DF8000000208DF801008DF802000120AD
:101070008DF80300684600F073F826208DF8000014
:1010800000208DF801008DF8020001208DF803008A
:10109000684600F065F827208DF8000000208DF8E4
:1010A00001008DF8020001208DF80300684600F071
:1010B00057F834208DF8000000208DF801008DF8DD
:1010C000020001208DF80300684600F049F8352041
:1010D0008DF8000000208DF801008DF8020001203D
:1010E0008DF80300684600F03BF847208DF80000BB
:1010F00000208DF801008DF8020001208DF803001A
:10110000684600F02DF83A208DF8000000208DF898
:10111000010001208DF802008DF80300684600F000
:101120001FF814208DF8000001208DF80100022026
:101130008DF8020001208DF80300684600F010F8D9
:1011400040208DF8000001208DF8010002208DF86C
:10115000020001208DF80300684600F001F808BD88
:1011600070B5002100230F22C4781CB3174C2468EB
:1011700004F4E064C4F5E064C4F30721C1F104049D
:10118000E3B20A4144789C40E1B2847814402143A0
:101190000C07210E0E4C05786155047804F01F05EC
:1011A0000124AC4005786D11AD0005F1E025C5F8CE
:1011B000004109E0047804F01F050124AC40054D0E
:1011C0000678761145F8264070BD00000CED00E071
:1011D00000E400E080E100E002490143024A1160BE
:1011E000704700000000FA050CED00E0CBE00024A1
:1011F000C4E004EBC400644901EB8000007A0028DD
:101200007DD16248006804EBC4015F4A02EB8101B2
:101210000969401A04EBC40102EB810148615B4893
:10122000006804EBC40102EB8101086104EBC40116
:1012300002EB810148688047012004EBC401524A57
:1012400002EB810108725148006804EBC40102EB13
:1012500081010969401A04EBC40102EB8101886134
:1012600004EBC400114601EB8000C06904EBC4012B
:1012700002EB81018969884206D904EBC40011465A
:1012800001EB8000C06905E004EBC4003E4901EBBE
:101290008000806904EBC4013B4A02EB8101C86114
:1012A00004EBC400114601EB8000006A04EBC401AA
:1012B00002EB81018969884206D204EBC400114621
:1012C00001EB8000006A05E004EBC4002E4901EB4D
:1012D0008000806904EBC4012B4A02EB81010862A3
:1012E00004EBC400114601EB8000806928490968BD
:1012F00008442749086004EBC400114600E012E0EE
:1013000001EB8000C069234909680844214908604D
:1013100004EBC400114601EB8000006A1E49096815
:1013200008441D490860002522E01848006805EBC4
:10133000C501154A02EB81010969401A05EBC50197
:1013400002EB8101C968884211D305EBC500114643
:1013500001EB8000007A022809D0002005EBC501CE
:1013600002EB81010872AC4201D96C1E04E06D1CD5
:101370000A4800688542D8D300BF641C074800684B
:101380008442FFF436AF32E70C000020240C00400A
:101390000000002004000020080000203000002091
:1013A00029B1064A12680243044B1A6004E0034A5A
:1013B00012688243014B1A607047000030380240C7
:1013C00029B1064A12680243044B1A6004E0034A3A
:1013D00012688243014B1A60704700004038024097
:1013E000F0B5002100220024022500260223324FFE
:1013F0003F6807F00C0121B1042905D0082937D135
:1014000005E02E4F076036E02D4F076033E02A4F8E
:101410003F1F3F68C7F38056274F3F1F3F6807F0C5
:101420003F036EB1264FB7FBF3F7DFF88CC0ACF18A
:10143000040CDCF800C0CCF3881C07FB0CF40CE0B7
:101440001E4FB7FBF3F7DFF870C0ACF1040CDCF80B
:1014500000C0CCF3881C07FB0CF4174F3F1F3F68FC
:10146000C7F301477F1C7D00B4FBF5F7076002E07E
:10147000124F076000BF00BF0F4F3F6807F0F00139
:101480000909104F7A5C0768D74047600A4F3F68E8
:1014900007F4E051890A0B4F7A5C4768D7408760B0
:1014A000054F3F6807F46041490B064F7A5C476877
:1014B000D740C760F0BD0000083802400024F400A7
:1014C00000127A00EB0000200CB500200190009083
:1014D0003448006840F480303249086000BF314829
:1014E000006800F4003000900198401C01900098C2
:1014F00018B90198B0F5A04FF1D12A48006800F45E
:10150000003010B10120009001E000200090009810
:10151000012846D123484030006840F080502149DE
:10152000403108602048006840F440401E4908608F
:101530001C48083000681B490831086008460068EC
:1015400040F4004008600846006840F4A05008607D
:101550001648091F0860081F006840F08070091FC6
:10156000086000BF0F48006800F000700028F9D044
:1015700040F205700E4908600A480830006820F003
:1015800003000849083108600846006840F002007E
:10159000086000BF03480830006800F00C0008280D
:1015A000F8D10CBD003802400070004008544007DC
:1015B000003C024010B51548006840F47000134923
:1015C00008601348006840F00100114908600020DD
:1015D0000F49083108600E4800680E4908400C4960
:1015E00008600D48091D0860081F006820F480206D
:1015F000091F0860002006490C310860FFF764FFEE
:101600004FF0006001498039086010BD88ED00E0AE
:1016100000380240FFFFF6FE1030002410B53E48AF
:10162000FFF7DEFE00203D49A1F8700000BF0DE08D
:101630003A49B1F8701000EBC002394B03EB82025B
:10164000128B1144354AA2F87010401C35490968C4
:101650008842EDD33148B0F872003049B1F87010CB
:10166000884203DD2D48B0F8720002E02B48B0F844
:1016700070002A49A1F872000846B0F85600B0F58B
:10168000FA7F03DA01202849C87002E000202649C9
:10169000C8702248B0F85A00B0F5FA7F03DA01208A
:1016A0002149487002E000201F4948701B48B0F8EB
:1016B00052000A2803DA01201B49087002E00020CA
:1016C000194908701548B0F8660040F2DC518842AC
:1016D00003DA01201449487102E0002012494871E0
:1016E0000E48B0F86A0040F6C411884203DA0120BF
:1016F0000D49887102E000200B4988710B48408831
:10170000B0F5487F03DA01200749C87102E00020E4
:101710000549C87110BD00008C030020B0020020F4
:101720000C00002030000020E000002024030020F6
:1017300010B5FFF773FF03488088401C014988807B
:1017400010BD0000B00200200EB501210820FFF7F7
:1017500037FE5320ADF800004FF0FF30019000201D
:10176000ADF80200ADF808006946044800F014F82E
:101770000121024800F004F80EBD0000000C0040FA
:1017800021B1028842F00102028004E002884FF693
:10179000FE731A400280704700220288184B98425C
:1017A0000ED0184B98420BD0B0F1804F08D0164B9A
:1017B000984205D0154B984202D0154B984204D15F
:1017C0004FF68F731A404B881A43124B984207D03A
:1017D000114B984204D04FF6FF431A400B891A432D
:1017E00002804B68C3620B880385054B984202D088
:1017F000044B984201D18B7A038601238382704780
:1018000000000140000401400004004000080040C6
:10181000000C0040001000400014004010B540F2E1
:101820002441124800F046F801281DD10F480088D5
:101830000E48001D00880E48FFF7F8FA102807D15F
:10184000FFF7BCFB0B48808F401C0A4988870BE0E0
:1018500000210748FFF728FA102005492839C862F7
:1018600001210348FFF720FA10BD000000480040A6
:1018700028600240B002002001F40072B2F5007F3F
:1018800000D100BFCA430280704721B1828942F46F
:101890000052828104E082894DF6FF731A408281F2
:1018A00070471AB1838A0B43838202E0838A8B4399
:1018B0008382704770B50246002400230025002073
:1018C00040F66A16B14200D100BFC1F3421501F0E3
:1018D0001F03012606FA03F3012D02D19689334036
:1018E00006E0022D02D1168A334001E0968A334089
:1018F0000C12012606FA04F41688344013B10CB118
:10190000012000E0002070BDF0B503460024002651
:101910000025002040F66A17B94200D100BF1846E2
:10192000C1F3421401F01F06012707FA06F5012C46
:1019300001D10C3004E0022C01D1103000E0143051
:101940001AB107682F43076002E00768AF430760DA
:10195000F0BD00002DE9FF4705460E460024A146D4
:1019600000BFA046B08900B100BF2C8A24F44054C7
:10197000F08804432C82AC8941F20C608443B08827
:1019800031890843718908430443AC81AC8A24F44B
:101990004074B0890443AC826846FFF721FD2048BB
:1019A000854202D01F48854202D1DDF80C9001E04B
:1019B000DDF80890A88900F4004040B109EBC900A7
:1019C00000EB091031684900B0FBF1F707E009EBC3
:1019D000C90000EB091031688900B0FBF1F7642001
:1019E000B7FBF0F004012009642101FB1078A889FD
:1019F00000F4004040B1322000EBC800B0FBF1F031
:101A000000F00700044308E0322000EB08106421D6
:101A1000B0FBF1F000F00F0004432C81BDE8FF871C
:101A2000001001400014014070B505460C46002628
:101A30000DB1022C01D8002070BD611EFF22284686
:101A4000FFF7AAFA0646601E285CB04201D10120C9
:101A5000F2E70020F0E710B5FEF7E3FCFFF7C6FB66
:101A6000002010BD10B596B0044601210820FFF7F4
:101A700097FC01218804FFF7A3FC01214805FFF72B
:101A80008FFC072208214748FFF748FA072209215F
:101A90004448FFF743FA4FF44070149002208DF849
:101AA00054008DF8550000208DF8560001208DF867
:101AB000570014A93B48FFF7E9F910940020ADF84E
:101AC0004400ADF84600ADF84800ADF84C000C20DD
:101AD000ADF84A0010A93448FFF73CFF3348FFF740
:101AE000EFF800BF3148FFF797F90028FAD14FF01F
:101AF000006001902E4802902E480390102005901F
:101B00000020049006904FF4806007900020089019
:101B100009904FF480700A9040020B9000200C90C6
:101B200003200D9000200E900F9001A91F48FFF791
:101B300081F91E483030FFF7C3F800BF1B48303032
:101B4000FFF76AF90028F9D11B4803900D20059092
:101B50004020049001A915483030FFF76BF90121AE
:101B60001148FFF792FE40210F48FFF785FE012242
:101B700040F224410C48FFF7C7FE012240210A48E9
:101B8000FFF78FFE012280210748FFF78AFE01211F
:101B90000648FFF789F8012104483030FFF784F840
:101BA00016B010BD000C0240004800402860024002
:101BB000044400403A010020670100204FF04070CB
:101BC000E1EE100A7047FF005EBCE2613FDD83C2B8
:101BD0009C7E20A3FD1F419DC3217FFCA2401E5F70
:101BE00001E3BD3E6082DC237D9FC1421CFEA0E17B
:101BF000BF5D0380DE3C62BEE0025CDF81633D7C52
:101C000022C09E1D43A1FF4618FAA427799BC584D4
:101C1000DA3866E5BB5907DB856739BAE406581937
:101C200047A5FB7826C49A653BD987045AB8E6A72E
:101C3000F91B45C6987A24F8A6441A99C7257B3A19
:101C40006486D85B05E7B98CD2306EEDB3510F4E88
:101C500010F2AC2F7193CD114FADF3702ECC92D307
:101C60008D6F31B2EC0E50AFF1134DCE90722C6DE2
:101C700033D18F0C52B0EE326C8ED0530DEFB1F0E9
:101C8000AE4C1291CF2D73CA947628ABF517490844
:101C900056B4EA6937D58B5709EBB536688AD495BF
:101CA000CB2977F4AA4816E9B7550B88D6346A2BA6
:101CB0007597C94A14F6A8742AC896154BA9F7B6A1
:101CC000E80A54D7896B35000000891112239B3232
:101CD0002446AD573665BF74488CC19D5AAFD3BEFC
:101CE0006CCAE5DB7EE9F7F88110080193331A220C
:101CF000A5562C47B7753E64C99C408DDBBF52AEDC
:101D0000EDDA64CBFFF976E802218B3010029913EB
:101D10002667AF763444BD554AADC3BC588ED19FBB
:101D20006EEBE7FA7CC8F5D983310A2091121803CB
:101D3000A7772E66B5543C45CBBD42ACD99E508F9B
:101D4000EFFB66EAFDD874C904428D5316619F709B
:101D50002004A9153227BB364CCEC5DF5EEDD7FC7B
:101D60006888E1997AABF3BA85520C4397711E608B
:101D7000A1142805B3373A26CDDE44CFDFFD56EC5B
:101D8000E9986089FBBB72AA06638F7214409D516B
:101D90002225AB343006B9174EEFC7FE5CCCD5DD3B
:101DA0006AA9E3B8788AF19B87730E6295501C414B
:101DB000A3352A24B1163807CFFF46EEDDDC54CD1B
:101DC000EBB962A8F99A708B088481951AA793B62B
:101DD0002CC2A5D33EE1B7F04008C919522BDB3A1B
:101DE000644EED5F766DFF7C899400859BB712A6EB
:101DF000ADD224C3BFF136E0C1184809D33B5A2AFB
:101E0000E55E6C4FF77D7E6C0AA583B418869197CA
:101E10002EE3A7F23CC0B5D14229CB38500AD91BDA
:101E2000666FEF7E744CFD5D8BB502A499961087AA
:101E3000AFF326E2BDD034C1C3394A28D11A580BBA
:101E4000E77F6E6EF55C7C4D0CC685D71EE597F47A
:101E50002880A1913AA3B3B2444ACD5B5669DF789A
:101E6000600CE91D722FFB3E8DD604C79FF516E46A
:101E7000A9902081BBB332A2C55A4C4BD7795E687A
:101E8000E11C680DF33F7A2E0EE787F61CC495D54A
:101E90002AA1A3B03882B193466BCF7A5448DD595A
:101EA000622DEB3C700EF91F8FF706E69DD414C52A
:101EB000ABB122A0B9923083C77B4E6AD5585C493A
:101EC000E33D6A2CF11E780F53797374656D4D6F85
:101ED0006E69746F725461736B000000FC1E000821
:101EE00000000020FC000000C4010008F81F0008EA
:101EF000FC00002004090000E001000800000000D0
:101F00000000000000000000C81E00083117000893
:101F10000000000040420F00000000000000000030
:101F20000000000000000000FFFFFFFF01000000B4
:101F300000000000000000000000000000000000A1
:101F4000000000000000803F0020000000000000B2
:101F50000000000000000000000000000000000081
:101F600000001042002000000000000000000000FF
:101F700000000000000000000000000000006041C0
:101F80000020000000000000000000000000000031
:101F900000000000000000000000803F0020000062
:101FA0000000000000000000000000000000000031
:101FB0000000000000009841002000000000000028
:101FC0000000000000000000000000000000000011
:101FD0000000000000000000000000000000000001
:101FE00000000000010101000000000102030401E3
:081FF0000203040607080900C2
:040000050800018965
:00000001FF
