:020000040800F2
:10000000001C002069020008710200087302000849
:10001000750200087702000879020008000000005D
:100020000000000000000000000000007B0200084B
:100030007D020008000000007F0200081542000851
:10004000830200088302000883020008830200087C
:10005000830200088302000883020008830200086C
:10006000830200088302000883020008830200085C
:10007000830200088302000883020008830200084C
:10008000830200088302000883020008830200083C
:10009000510A000883020008830200088302000856
:1000A000D947000883020008830200088302000881
:1000B000830200088302000883020008830200080C
:1000C00083020008830200088302000883020008FC
:1000D00083020008B94C0008254D00089D4D00081A
:1000E00083020008830200088302000883020008DC
:1000F00083020008830200088302000883020008CC
:1001000083020008830200088302000883020008BB
:10011000830200085D4C0008830200088302000887
:10012000830200088302000883020008830200089B
:10013000830200088302000883020008830200088B
:100140005D0E000883020008830200088302000895
:10015000830200088302000883020008F94D0008AA
:10016000830200088302000883020008830200085B
:10017000830200088302000883020008830200084B
:10018000830200088302000800F002F800F05CF827
:100190000AA090E8000C82448344AAF10107DA45E2
:1001A00001D100F051F8AFF2090EBAE80F0013F0D8
:1001B000010F18BFFB1A43F001031847F07200004B
:1001C000107300000A444FF0000C10F8013B13F0CC
:1001D000070408BF10F8014B1D1108BF10F8015BA0
:1001E000641E05D010F8016B641E01F8016BF9D193
:1001F00013F0080F1EBF10F8014BAD1C0C1B09D1EA
:100200006D1E58BF01F801CBFAD505E014F8016B5B
:1002100001F8016B6D1EF9D59142D6D370470000ED
:100220000023002400250026103A28BF78C1FBD8FF
:10023000520728BF30C148BF0B6070471FB506F09A
:10024000FAFE1FBD10B510BD00F0BEF81146FFF755
:10025000F5FF05F0D5FC00F0DCF803B4FFF7F2FF82
:1002600003BC05F08DFC00000948804709480047A1
:10027000FEE7FEE7FEE7FEE7FEE7FEE7FEE7FEE756
:10028000FEE7FEE704480549054A064B70470000B3
:10029000254500088901000800160020001C0020E8
:1002A00000180020001800207047032A40F2308018
:1002B00010F0030C00F0158011F8013BBCF1020FA7
:1002C000624498BF11F801CB00F8013B38BF11F828
:1002D000013BA2F1040298BF00F801CB38BF00F83F
:1002E000013B11F0030300F03480083AC0F00880AD
:1002F00051F8043B083A51F804CBA0E80810F5E7A0
:10030000121D5CBF51F8043B40F8043BAFF3008082
:10031000D20724BF11F8013B11F801CB48BF11F8F7
:10032000012B24BF00F8013B00F801CB48BF00F8C7
:10033000012B7047704770477047704710B500F049
:100340003BF8006810BD10B5044600F035F80460B5
:1003500010BD10B5203AC0F00B80B1E81850203A1B
:10036000A0E81850B1E81850A0E81850BFF4F5AF55
:100370005FEA027C24BFB1E81850A0E8185044BFDF
:1003800018C918C0BDE810405FEA827C24BF51F84C
:10039000043B40F8043B08BF7047D20728BF31F840
:1003A000023B48BF11F8012B28BF20F8023B48BF91
:1003B00000F8012B7047000000487047A01500208E
:1003C00000487047A01500207546FFF7F9FFAE46BC
:1003D00005006946534620F00700854618B020B551
:1003E000FFF750FFBDE820404FF000064FF0000738
:1003F0004FF000084FF0000B21F00701AC46ACE8CD
:10040000C009ACE8C009ACE8C009ACE8C0098D4639
:10041000704710B50446AFF300802046BDE8104099
:10042000FFF71BBF2549097829B980ED010A002192
:10043000234A117003E0D0ED000AC0ED010A80EDFF
:10044000000AD0ED010A70EE600AC0ED020AD0ED9C
:10045000050AF1EE600AB0EE001AC0EE811AD0ED86
:10046000020AF4EEE01AF1EE10FA08DDD0ED020A0D
:1004700090ED051A70EE810AC0ED020A14E090EDCD
:10048000051AF0EE001AC1EE210A90ED021AF4EE00
:10049000C10AF1EE10FA07D2D0ED020A90ED051A6A
:1004A00070EEC10AC0ED020AD0ED060A90ED021A04
:1004B00070EE810AC0ED060A70470000DA050020E0
:1004C0009406002070B505460C4600260DB1022C9E
:1004D00000D870BD611EFF22284601F09DFE064631
:1004E000601E2E5400BFF4E710B54B48007970B180
:1004F0004FF42F70494908604948007838B149489D
:10050000D0F89800484908600020454908704548DF
:10051000D0F8980044490968401AB0F5FA6F12D92A
:100520003E480068B0F52F7F0DD14048007850B1AB
:100530003A480068B0F52F7F02D101203C4908708D
:1005400000203A4908703A480078D8B3394890ED0D
:10055000010AD0ED000AF1EE600A30EE600AB5EE55
:10056000C00AF1EE10FA08DD90ED010AD0ED000AA4
:10057000F1EE600A30EE600A0AE02E4890ED010AC2
:10058000D0ED000AF1EE600A30EE600AB1EE400AEA
:10059000F7EE080AB4EEE00AF1EE10FA27D2264888
:1005A00090ED010AD0ED000A30EE600AB5EEC00A07
:1005B000F1EE10FA07DD90ED010AD0ED000A30EE01
:1005C000600A09E016E01C4890ED010AD0ED000A2F
:1005D00030EE600AB1EE400AF0EE040AB4EEE00A32
:1005E000F1EE10FA03D201201449087002E0002055
:1005F0001249087009480068B0F52F7F0BD10C48EC
:10060000007840B10E480078012804D100210D483F
:10061000007801F039FD10BD30150020FC040020E9
:10062000100500203C140020BC060020110500200D
:1006300014050020B80F0020F80300200505002055
:100640002A0F00200805002010B504F0C3F9A721E7
:1006500040F2E73004F0DAF900F026F800F018FA7A
:1006600003F02CFF05F0A2FA05F044FC4FF4E13052
:1006700005F0C4FC4FF4E12005F078FD4FF4E120D3
:1006800005F0C6FA4FF4E12005F06CFB4FF4E120D1
:1006900005F016FE01F036FC02F08AFA03F0D2F9FA
:1006A00002F0E8FA10BD000000B589B00121022077
:1006B00002F0DEFC0121480602F0EAFC4FF4407033
:1006C000009002208DF804008DF8050000208DF8C0
:1006D000060001208DF807006946274801F0F4FC68
:1006E00009220821244801F037FD09221146224839
:1006F00001F032FD00208DF81E0001208DF81F0052
:100700008DF8200000208DF821008DF822000120B6
:100710008DF8230000208DF81A008DF81B000820AA
:100720008DF81C0003208DF81D00ADF8180006A9F7
:10073000124800F024FD00208DF812008DF81300FF
:1007400001208DF814000020ADF80800ADF80A0073
:10075000ADF80C00ADF80E00ADF8100001208DF8DA
:10076000150002A800F0EEFB01220221034800F070
:10077000FDFC09B000BD0000000402400064004020
:1007800010B52DED048BA3480068B0F5017F7CD037
:1007900007DCA0F20120E0B3012877D0022876D14F
:1007A000A9E0A0F20520002872D0A0F2FB100028DA
:1007B000F5D19848007B9749C97A40EA012000EEBC
:1007C000100AB8EEC00ADFED940A80EE201A9348B2
:1007D00080ED001A8F48817B407B41EA002000EECB
:1007E000100AB8EEC00ADFED8C0A80EE201A8B48A2
:1007F00080ED011A8748017CC07B41EA002000EEB1
:10080000100AB8EEC00ADFED840A80EE201A834891
:1008100000E012E080ED021A7E48817C407C41EAD3
:10082000002000EE100AB8EEC00ADFED7B0A80EE71
:10083000201A7A4880ED031AE8E076480B3001F080
:10084000B6FC00EE100AB8EEC00AB0EE402A7448BA
:10085000FFF7E8FD724890ED060A90ED051AC0EE2C
:10086000010A9FED700A20EE800A6F4880ED010AB0
:1008700068480B3001F0A1FC092190FBF1F000EE7B
:10088000100AB8EEC00A694803E05DE00BE0BCE086
:100890008CE080ED010A6648B0F87000401C6449A5
:1008A000A1F87000B2E05B480B3001F086FC40001C
:1008B00000EE100AB8EEC00ADFED5E0A20EE200A54
:1008C00010EE104A204606F045FB41EC190B9FED57
:1008D0005A0B53EC102B05F09FFE41EC180B05F062
:1008E000B5FD574988645248B0F88400401C50490F
:1008F000A1F884008AE047480B3001F05EFC40001C
:1009000000EE100AB8EEC00ADFED4A0A20EE200A17
:1009100010EE104A204606F01DFB41EC190B9FED2E
:10092000460B53EC102B05F077FE41EC180B05F04D
:100930008DFD4349C1F88C003D48B0F88800401C4B
:100940003B49A1F8880061E032480B3001F02FFCF0
:1009500000EE100AB8EEC00AB0EE402A304854301B
:10096000FFF760FD2E4890ED1B0A90ED1A1AC0EEBD
:10097000010A9FED2C0A20EE800A2B4880ED340AF4
:1009800024480B3001F019FC092190FBF1F000EE36
:10099000100AB8EEC00A254880ED340A2448B0F8A1
:1009A0007C00401C2249A1F87C002FE019480B3044
:1009B00001F0FDFB00EE100AB8EEC00AB0EE402ACE
:1009C0002048FFF72FFD1F4890ED060AB1EE400AC0
:1009D0001D4880ED010A0F480B3001F0EEFB00EEE0
:1009E000100AB8EEC00A1748D0ED040A80EE201AAB
:1009F000B1EE410A154880ED010A0D48B0F89000AB
:100A0000401C0B49A1F8900000BF00BF00BFBDEC27
:100A1000048B10BD780800200000C8422414002078
:100A2000B41300200000204294110020A4120020E2
:100A30003C140020DB0F49400000000000D0914032
:100A400084100020300500204C0500209005002077
:100A500010B502210B4800F0F9FA88B102210948CB
:100A600000F01CFA084A0021064800F012FCFFF7CB
:100A700087FE0648B0F86400401C0449A1F86400F1
:100A800010BD000000640040780800203C140020E5
:100A900000B589B00121022002F0EAFA01214806DE
:100AA00002F0F6FA0121880602F0F2FA60200090C6
:100AB00002208DF804008DF8050000208DF8060056
:100AC00001208DF807006946274801F0FDFA092248
:100AD0000521254801F040FB09220621224801F0AA
:100AE0003BFB00208DF81E0001208DF81F008DF8C3
:100AF000200000208DF821008DF8220001208DF8C3
:100B0000230000208DF81B0008208DF81C00032016
:100B10008DF81D00ADF8180006A9144800F02FFB51
:100B20000E208DF8120000208DF8130001208DF8A2
:100B300014000020ADF80800ADF80A00ADF80C0074
:100B4000ADF80E00ADF8100001208DF8150002A8D8
:100B500000F0F8F90E208DF812000122022103485E
:100B600000F004FB09B000BD000402400068004032
:100B700010B52DED048BA7480068A0F201200528D0
:100B80007DD2DFE800F08AB2E4FD0300A248008ACB
:100B9000401CA1490882A1480078E8B39D480B3069
:100BA00001F005FB00EE100AB8EEC00A9C4880ED8B
:100BB000000A90ED000A80ED060AD0ED050AB0EEBD
:100BC000001A80EE810AD0ED060A9FED961A70EEAB
:100BD000C10AB4EEE00AF1EE10FA08D290ED060A6E
:100BE000D0ED050A30EE600A80ED060A1DE08C4863
:100BF00090ED050AF1EE400AB0EE001A80EE810A8F
:100C0000D0ED060A9FED871A70EEC10AB4EEE00A35
:100C1000F1EE10FA09DD00E00BE090ED060AD0EDF0
:100C2000050A30EE200A80ED060A00207B49087094
:100C30000CE078480B3001F0BAFA00EE100AB8EE7A
:100C4000C00AB0EE402A7648FFF7ECFB744890EDFE
:100C5000060ADFED740A30EE600ADFED730A20EE5B
:100C6000200ADFED720A80EE201A714880ED001A2A
:100C700068480B3001F0A1FA00EE100A00E0C4E071
:100C8000B8EEC00A6B4880ED000A6B48B0F89400DB
:100C9000401C6949A1F89400B8E05E480B3001F0AF
:100CA0008CFA400000EE100AB8EEC00ADFED630ACD
:100CB00020EE200A10EE104A204606F04BF941ECD7
:100CC000190B9FED5F0B53EC102B05F0A5FC41ECCD
:100CD000180B05F0BBFB5C4948605748B0F8800032
:100CE000401C5549A1F8800090E04A480B3001F0C3
:100CF0005EFA00EE100AB8EEC00AB0EE402A534881
:100D0000FFF790FB51481C38D0ED0D0A90ED0C1AFE
:100D100080EE810ADFED4E0A20EE200A4D4880ED7C
:100D2000120A3C480B3001F048FA092190FBF1F01F
:100D300000EE100AB8EEC00A474880ED120A3E489D
:100D4000B0F87400401C3C49A1F874005EE03148E2
:100D50000B3001F02CFA00EE100AB8EEC00AB0EE2B
:100D6000402A3A481C30FFF75DFB38481C38D0ED6C
:100D7000140A90ED131A80EE810ADFED350A00E0C7
:100D80001AE020EE200A334880ED230A21480B3078
:100D900001F013FA092190FBF1F000EE100AB8EE11
:100DA000C00A2D4880ED230A2348B0F87800401C83
:100DB0002149A1F8780029E016480B3001F0FDF92F
:100DC000400000EE100AB8EEC00ADFED1C0A20EE6B
:100DD000200A10EE104A204606F0BCF841EC190B30
:100DE0009FED170B53EC102B05F016FC41EC180B84
:100DF00005F02CFB1449C1F8D0000F48B0F88C0066
:100E0000401C0D49A1F88C0000E000BF00BFBDEC04
:100E1000048B10BD8C080020DC14002095060020F7
:100E20006C03002000409B440000B44300000046D7
:100E3000BC040020C00400203C140020DB0F49400B
:100E40000000000000D0914084100020D01300204A
:100E50000000204294110020A412002010B50221AD
:100E60000B4800F0F3F888B10221094800F016F8A9
:100E7000084A0021064800F00CFAFFF779FE064800
:100E8000B0F86800401C0449A1F8680010BD0000DB
:100E9000006800408C0800203C140020B1F5007F61
:100EA0003AD00FDC202928D006DC01291CD00429E7
:100EB0001DD0082940D11DE0402921D0B1F5807F07
:100EC0003AD126E0B1F5004F31D006DCB1F5806FA4
:100ED00025D0B1F5006F2FD124E0B1F5803F12D0BD
:100EE000B1F5003F28D111E0154A826025E00822C3
:100EF000C26022E01022C2601FE0082202611CE0F2
:100F00001022026119E00822426016E010224260BD
:100F100013E00422426010E0042242600DE004224B
:100F200042600AE0002282610422426005E0002261
:100F300082610422426000E000BF00BF70470000F1
:100F40000101010010B50021837A012202FA03F1A8
:100F50003D4A126842F001023B4B1A603A4A1C3289
:100F600012688A43384B1C331A60027BCAB9364A6E
:100F70000C3212688A43344B0C331A604288C3889F
:100F800042EA0343304A4032847A42F834300288DD
:100F9000838842EA03432C4A4032847A02EBC4023B
:100FA0005360027B012A19D1274A0C3212680A4386
:100FB000254B0C331A604288038842EA0343224AD5
:100FC0004032847A42F83430C288838842EA03434C
:100FD0001D4A4032847A02EBC4025360C27A3AB9A5
:100FE000194A121D12688A43174B1B1D1A6006E02E
:100FF000154A121D12680A43134B1B1D1A60028901
:1010000032B9114A143212688A430F4B14331A60F2
:101010000289012A06D10C4A143212680A430A4B8B
:1010200014331A60427B012A06D1074A1C32126827
:101030000A43054B1C331A60034A126822F001026E
:10104000014B1A6010BD00000066004070B50446F8
:101050000D46002660692840002871D0B5F5807FD4
:101060005CD010DC082D35D006DC012D20D0022DFF
:1010700024D0042D72D127E0102D31D0202D35D071
:10108000402D6BD138E0B5F5004F60D009DCB5F5E7
:10109000007F49D0B5F5806F4CD0B5F5006F5DD1BC
:1010A0004FE0B5F5803F2DD0B5F5003F56D12FE08C
:1010B000A0682D4900F03CFD064651E0E0680321A0
:1010C00000F036FD06464BE0E068082100F030FDF8
:1010D000064645E0E068102100F02AFD06463FE0A4
:1010E0002069032100F024FD064639E0206908212B
:1010F00000F01EFD064633E02069102100F018FDC7
:1011000006462DE06068082100F012FD064627E043
:101110006068102100F00CFD064621E0A069012165
:1011200000F006FD06461BE0A069022100F000FD6C
:10113000064615E0A069042100F0FAFC06460FE01F
:101140000FE0A069702100F0F3FC064608E060683B
:10115000042100F0EDFC064602E0FFE7002600BF98
:1011600000E00026304670BD010101001AB143695C
:101170000B43436102E043698B434361704730B5E1
:10118000024600200023146824F00204146014684E
:1011900044F00104146000E05B1C546804F0010496
:1011A0001CB94FF6FF74A342F6D1546804F0010451
:1011B0000CB900206CE08C79012C04D1146844F047
:1011C0008004146003E0146824F080041460CC7977
:1011D000012C04D1146844F04004146003E0146846
:1011E00024F0400414600C7A012C04D1146844F0FB
:1011F0002004146003E0146824F0200414604C7A86
:10120000012C04D1146844F01004146003E0146845
:1012100024F0100414608C7A012C04D1146844F07A
:101220000804146003E0146824F008041460CC7A05
:10123000012C04D1146844F00404146003E0146821
:1012400024F0040414608C78A407CD7844EA056483
:101250000D7944EA05444D7944EA05540D886D1E24
:101260002C43D461146824F001041460002300E0CE
:101270005B1C546804F001041CB14FF6FF74A342D8
:10128000F6D1546804F001040CB1002000E0012004
:1012900030BD10B500F5D87303EB01131B6803F0E4
:1012A00004031372137A53B900F5D87303EB0113D7
:1012B0001B6840F2FF7404EA5353136009E000F521
:1012C000D87303EB01131B686FF0604404EAD30387
:1012D000536000F5D87303EB01131B6803F002039E
:1012E000537200F5D87303EB01135B6803F00F032F
:1012F000937200F5D87303EB01135B681B0AD37478
:1013000000F5D87303EB01139B68D37200F5D87313
:1013100003EB01139B681C0A147300F5D87303EBED
:1013200001139B681C0C547300F5D87303EB011375
:101330009B681B0E937300F5D87303EB0113DB68F6
:10134000D37300F5D87303EB0113DB681C0A147424
:1013500000F5D87303EB0113DB681C0C547400F523
:10136000D87303EB0113DB681B0E937421B9C368B8
:1013700043F02003C36003E0036943F020030361EB
:1013800010BD2DE9F04385B081460E4614461D463A
:10139000DDE90C7800208DF80800009608208DF813
:1013A0000A0000208DF80900200A8DF80B00E1B238
:1013B0008DF80C10290A8DF80D10E9B28DF80E1079
:1013C000390A8DF80F10F9B28DF810104FEA182174
:1013D0008DF8111008F0FF018DF81210694648468B
:1013E00000F003F805B0BDE8F08310B50246002018
:1013F000936803F08063B3F1806F00D110E09368CD
:1014000003F00063B3F1006F01D1012008E093689D
:1014100003F08053B3F1805F01D1022000E004208B
:10142000042874D002F5C07303EB00131B6803F0AB
:10143000010402F5C07303EB00131C600B7A7BB947
:101440004B7A0C8843EA445302F5C07404EB001451
:101450002468234302F5C07404EB0014236010E0F9
:101460000B7A4C6843EAC4034C7A234302F5C074F8
:1014700004EB00142468234302F5C07404EB001449
:1014800023608B7A03F00F038B7202F5C07303EBBA
:1014900000135B6823F00F0402F5C07303EB001325
:1014A0005C6002F5C07303EB00135B688C7A234326
:1014B00002F5C07404EB001463608B7B1C064B7B4D
:1014C00044EA03440B7B44EA0323CC7A234302F52A
:1014D000C07404EB0014A3608B7C1C064B7C44EAB4
:1014E00003440B7C44EA0323CC7B234302F5C07402
:1014F00004EB0014E36002F5C07303EB00131B68F8
:1015000043F0010402F5C07303EB00131C6010BD2F
:1015100010B52DED068B044694ED000AD4ED010ABA
:1015200030EE600A84ED080A94ED0A0AD4ED080A48
:1015300030EE200A84ED0A0AD4ED0E1AB0EE611ADC
:10154000D4ED0E1AF1EE611AF0EE610AD4ED0A1A2A
:10155000B0EE610A00F0F5FA84ED0A0A94ED030A90
:10156000D4ED0A0A20EE200A84ED060AD4ED021A10
:1015700094ED082A61EE821AB0EE610AD4ED0D1ADC
:10158000B0EE611AD4ED0D1AF1EE611AF0EE610AB7
:1015900000F0D7FA84ED050AD4ED081A94ED092A73
:1015A00071EEC21A94ED042A61EE821AB0EE610A5D
:1015B000D4ED0F1AB0EE611AD4ED0F1AF1EE611AE4
:1015C000F0EE610A00F0BDFA84ED070A94ED100A0E
:1015D00010EE101A084605F0BDFC41EC180B94ED16
:1015E000080A10EE101A084605F0B4FC41EC1A0B7C
:1015F000B0EE4A0AF0EE6A0A04F0DAF9B0EE409A68
:10160000F0EE609A53EC182B51EC190B05F070F9C1
:1016100003D29FED140A84ED0A0A94ED050AD4ED75
:10162000060A30EE200AD4ED070A30EE200A84EDD7
:101630000B0A94ED080A84ED090AD4ED0C1AB0EEF9
:10164000611AD4ED0C1AF1EE611AF0EE610AD4EDD4
:101650000B1AB0EE610A00F074FA84ED0B0ABDECCF
:10166000068B10BD0000000010B52DED068B044662
:1016700094ED000AD4ED010A30EE600A84ED080A08
:1016800094ED100A10EE101A084605F063FC41ECC8
:10169000180B94ED080A10EE101A084605F05AFCD3
:1016A00041EC1A0BB0EE4A0AF0EE6A0A04F080F937
:1016B000B0EE409AF0EE609A53EC182B51EC190BF7
:1016C00005F016F908D294ED0A0AD4ED080A30EEB6
:1016D000200A84ED0A0A26E094ED100A10EE101A92
:1016E000084605F037FC41EC180B94ED080A10EEA3
:1016F000101A084605F02EFC41EC1A0BB0EE4A0A0F
:10170000F0EE6A0A04F054F9B0EE409AF0EE609AF6
:1017100053EC182B51EC190B05F024FA03D29FED72
:10172000390A84ED0A0AD4ED0E1AB0EE611AD4ED2E
:101730000E1AF1EE611AF0EE610AD4ED0A1AB0EE5B
:10174000610A00F0FEF984ED0A0A94ED030AD4ED73
:101750000A0A20EE200A84ED060AD4ED021A94ED5E
:10176000082A61EE821AB0EE610AD4ED0D1AB0EECD
:10177000611AD4ED0D1AF1EE611AF0EE610A00F073
:10178000E0F984ED050AD4ED081A94ED092A71EE0A
:10179000C21A94ED042A61EE821AB0EE610AD4ED09
:1017A0000F1AB0EE611AD4ED0F1AF1EE611AF0EED5
:1017B000610A00F0C6F984ED070A94ED050AD4ED3C
:1017C000060A30EE200AD4ED070A30EE200A84ED36
:1017D0000B0A94ED080A84ED090AD4ED0C1AB0EE58
:1017E000611AD4ED0C1AF1EE611AF0EE610AD4ED33
:1017F0000B1AB0EE610A00F0A4F984ED0B0ABDECFF
:10180000068B10BD0000000030B52DED108B83B0AD
:1018100004469FED7B0AB0EE40FA94ED000AD4ED49
:10182000060A30EE600A84ED020A94ED030AD4ED54
:10183000040A20EE200AB0EE408A94ED040A20EE5D
:10184000080A10EE105A94ED020AD4ED040A94ED41
:10185000011A00EE810AF0EE408A18EE900A05F0B7
:1018600079FB41EC1E0BB0EE4E0AF0EE6E0A04F06E
:101870009FF8B0EE40DAF0EE60DA94ED030AF2EE93
:10188000000A20EE200A10EE101A084605F062FB4E
:1018900053EC1D2BCDE900019DED000B51EC100B1D
:1018A00005F062F841EC1B0B28EE080A10EE101A46
:1018B000084605F04FFB41EC1C0B53EC1B2B04F0CE
:1018C000F7FD41EC1A0BB0EE4A0AF0EE6A0A04F09A
:1018D00079F8B0EE409AF0EE609A51EC190B04F0F2
:1018E000B5FD0290284605F035FB41EC190B18EECA
:1018F000900A05F02FFB41EC1B0BB0EE4B0AF0EE0B
:101900006B0A04F055F8B0EE40AAF0EE60AA53EC72
:10191000192B51EC1A0B05F025F918D2B0EE680A14
:1019200002F0CCFA00EE100AF8EEC00A9DED020AB1
:1019300030EE480A60EE800AB0EE001A80EE810AAE
:10194000D4ED010A30EE200AB0EE40FA09E0D4ED01
:10195000040A88EEA00AD4ED010A30EE200AB0EEA7
:1019600040FA18EE100A05F0F5FA41EC190B1FEEDB
:10197000100A05F0EFFA41EC1B0BB0EE4B0AF0EE4B
:101980006B0A04F015F8B0EE40AAF0EE60AA53EC32
:10199000192B51EC1A0B05F0E5F810D2B0EE4F0AF6
:1019A00002F08CFA00EE100AB8EEC00AD4ED030A79
:1019B000BFEE001A60EE810A60EE20FA09E094EDB5
:1019C000030AFFEE000A20EE200A20EE0F0AC0EE06
:1019D00008FA94ED000AD4ED050A94ED011A00EE20
:1019E000810A84ED000A94ED010AD4ED050A00EEA7
:1019F000AF0A84ED010A03B0BDEC108B30BD0000CE
:101A0000000000001CB5434800780A2830D2DFE807
:101A100000F0050C131A212F2F2F2F28002002F081
:101A200011F9002002F064FB23E0032002F00AF920
:101A3000002002F05DFB1CE0022002F003F902200E
:101A400002F056FB15E0022002F0FCF8022002F042
:101A50004FFB0EE0012002F0F5F8012002F048FBF8
:101A600007E0012002F0EEF8012002F041FB00E067
:101A700000BF00BF284890ED3E0ABDEEC00A10EE40
:101A8000100A00B2254991ED2D0ABDEEC00A10EEF4
:101A9000101A09B2CDE90010204890ED1C0ABDEEE5
:101AA000C00A10EE100A03B21B4890ED0B0ABDEEFF
:101AB000C00A10EE100A02B24FF400711848FFF786
:101AC00060FC164890ED3E0ABDEEC00A10EE100A0A
:101AD00000B2114991ED2D0ABDEEC00A10EE101AA8
:101AE00009B2CDE900100C4890ED1C0ABDEEC00A09
:101AF00010EE100A03B2094890ED0B0ABDEEC00AC1
:101B000010EE100A02B24FF400710648FFF739FCDC
:101B10001CBD0000DA050020A41200208410002063
:101B2000006400400068004010B5FFF76BFF10BD77
:101B30000246002002EA01030BB1012000E0002070
:101B40007047F0EE401AF4EEE01AF1EE10FA02D20D
:101B5000B0EE600A09E0F4EEC11AF1EE10FA02DD0F
:101B6000B0EE410A01E0B0EE610A70470246094B4F
:101B70009A4201D2084801E00648103801F00053AB
:101B80001BB1064B0B40C36002E0044B0B4083606B
:101B90007047000010640240006002407D0F7D0F1E
:101BA00021B1026842F00102026003E0026822F003
:101BB0000102026070470000016821F0010101602C
:101BC0000021016041608160C160016121214161AA
:101BD0004A49884204D13D21484A103A91608CE03C
:101BE00046491831884205D14FF47461434A103A8E
:101BF000916082E041493031884205D14FF474113F
:101C00003E4A103A916078E03C494831884205D11B
:101C10004FF07461394A103A91606EE03749603193
:101C2000884204D13649354A103AD16065E03349DB
:101C30007831884204D13349304A103AD1605CE0AF
:101C40002E499031884204D12F492C4A103AD16054
:101C500053E02A49A831884205D14FF03D51274A27
:101C6000103AD16049E02949884204D13D21274AF0
:101C7000083A116041E025491831884205D14FF4F6
:101C80007461224A083A116037E0204930318842B5
:101C900005D14FF474111D4A083A11602DE01B491B
:101CA0004831884205D14FF07461184A083A1160F2
:101CB00023E016496031884204D11149134A121FAA
:101CC00011601AE011497831884204D10D490F4A58
:101CD000121F116011E00D499031884204D10A4968
:101CE0000A4A121F116008E00849A831884204D14D
:101CF0004FF03D51054A121F1160704710600240BD
:101D00003D000020400F002000003D2010640240F4
:101D1000014600200A6802F001020AB1012000E039
:101D2000002070470146486880B2704710B5002215
:101D30000268134B1A40CC680B6823434C69234359
:101D40008C692343CC6923430C6A23434C6A2343A5
:101D50008C6A23434C6B23438C6B23431A430260EE
:101D6000426922F00702D1E90B3423431A4342614E
:101D70000B6943604B6883608B68C36010BD0000D3
:101D80003F801CF010B525480078072803D10920B2
:101D90002349887006E0214800786B2802D10A2088
:101DA0001F4988700B201E49C8701E4890ED010A1B
:101DB0001D4880ED000A084680ED010A1B4890EDA1
:101DC000010A1B4880ED000A084680ED020A194806
:101DD00090ED000A184880ED000A084680ED030ADD
:101DE000164890ED000A164880ED000A084680ED7E
:101DF000040A14491448FFF7B9FE00211248FFF7FE
:101E0000CFFE074810490C31086032200E49091DE9
:101E1000086001210C48FFF7C3FE10BDD40100206B
:101E200068020020B80F002040030020F8030020C3
:101E300044030020D801002048030020D4040020DF
:101E40004C03002000802020A0640240F0EE400AF5
:101E50001B4A12788A4203DD0022194B1A7017E0E0
:101E6000174A127800EB820292ED000A154A92EDB1
:101E7000001A31EE400A82ED000A114A127800EB96
:101E80008202C2ED000A0E4A1278521C0C4B1A70E4
:101E90000B4A1278521E00EB820292ED000A094AA8
:101EA00092ED001A30EE010A82ED000A92ED001A5E
:101EB00000EE101AF8EE401A81EE210A7047000079
:101EC0009C0600209806002010B50B490B48FFF730
:101ED0004DFE00210948FFF763FE094807490C3110
:101EE000086039200549B839C1F8BC000121034810
:101EF000FFF756FE10BD000000800028B8600240C9
:101F0000B8020020002009E09FED060AC0EBC001E6
:101F1000054A02EB810181ED050A401C0428F3D338
:101F20007047000000000046B413002090ED001A36
:101F3000B4EEC01AF1EE10FA01D2002109E090EDE2
:101F4000001AB4EEC01AF1EE10FA01DD012100E032
:101F50000221C9B990ED001AB4EEC01AF1EE10FAE0
:101F600002DB80ED000A2AE090ED001A31EE201A23
:101F700080ED001A90ED001AB4EEC01AF1EE10FADE
:101F80001DDB80ED000A1AE0012918D190ED001A3E
:101F9000B4EEC01AF1EE10FA02D880ED000A0EE09D
:101FA00090ED001A31EE601A80ED001A90ED001AE3
:101FB000B4EEC01AF1EE10FA01D880ED000A7047B5
:101FC00010B52DED048B002448E0C4EBC400264A74
:101FD00002EB800090ED000A244800EB8400D0ED75
:101FE000000A30EE600A10EE101A084604F0B2FF44
:101FF00041EC190BB0EE490AF0EE690A03F0D8FC87
:10200000B0EE408AF0EE608A9FED190B53EC102B76
:1020100051EC180B04F06CFC09D89FED170A04EB87
:102020000410164901EB800080ED0C0A15E09FEDCD
:10203000140A04EB0410114901EB800080ED0C0A36
:1020400004EB04100F4901EB800090ED010A04EB52
:10205000041001EB800080ED000A641C042CB4D352
:10206000BDEC048B10BD0000B4130020E407002079
:10207000000000000000794000C05A45A412002072
:10208000000000009411002010B5B1B94FF47A722D
:1020900092FBF0F2094BD3F89830094C24681B1BD3
:1020A0009A420AD2074A1288521C12B2054B1A8071
:1020B000024AD2F89820024B1A6010BD3C1400204E
:1020C000C006002000050020F0B50A4600210023CC
:1020D000002400BF3DE0012505FA01F3156805EA7B
:1020E00003049C4234D105684F000326BE40B5432B
:1020F000056015794E00B5400668354305601579D1
:10210000012D02D01579022D16D185684F000326C6
:10211000BE40B543856055794E00B540866835436D
:102120008560456801268E40B543456045689679CF
:102130008E40B6B235434560C5684F000326BE40A9
:10214000B543C560D5794E00B540C6683543C56016
:10215000491C1029BFD3F0BDF0B5002300244D0762
:10216000ED0E02FA05F3CE1000F1200555F82650C9
:102170004E07F70E0F26BE40B543CF1000F12006E4
:1021800046F82750CE1000F1200555F8265045EAB4
:102190000304CE1000F1200545F82640F0BD418330
:1021A00070470183704742694A4042617047014667
:1021B0004A780B7842EA0320704710B501464FF683
:1021C000FF728B7803F080033BB113048C7843EAF1
:1021D0000423CC7843EA040003E0CB788C7843EA0C
:1021E000042010BD30B5034613B94FF6FF7030BD63
:1021F00009E013F8014B82EA0400C0B2054D35F83E
:10220000100080EA2222081EA1F10101F1D110463E
:10221000EDE700004C71000830B5034605E013F807
:10222000010B80EA02040448025D081EA1F10101CD
:10223000F5D1104630BD00004B70000810B52548A0
:10224000007818B900202449C87105E021480078B9
:10225000012801D12049C87120480078401CC0B233
:102260001E4908701E490978884210D11D4800682F
:1022700042F6E061884202D100201A49086000203D
:102280001649087017480068401C16490860124833
:10229000C07898B11048C07980B913480068401CD4
:1022A0001149086011480078092801D100F06EFA40
:1022B0000E480078022801D100F0FCF80648C078EA
:1022C00038B10548C07920B100200749086000F006
:1022D0000FF810BD2A0F002030150020C606002080
:1022E000C5060020CC060020D0060020DA0500201C
:1022F0002E48D0F898002E490978401AB0F57A7F18
:1023000049D22C4890ED010A2B48D0ED000A30EE5E
:10231000C00AB5EEC00AF1EE10FA08DD254890EDCE
:10232000010A2548D0ED000A30EEC00A09E0214834
:1023300090ED010A2048D0ED000A30EEC00AB1EE5F
:10234000400AF6EE000AB4EEE00AF1EE10FA2CDCD8
:102350001A4890ED000AD0ED010A30EE600AB5EEA1
:10236000C00AF1EE10FA06DD90ED000AD0ED010A88
:1023700030EE600A08E0114890ED000AD0ED010A45
:1023800030EE600AB1EE400AF6EE000AB4EEE00A62
:10239000F1EE10FA09DC0A48D0F80100074908609C
:1023A0000748D0F805000449086070473C14002035
:1023B000C8060020F8030020B8040020B80F002051
:1023C0002A0F00201CB53348C08FB0F5617F3DDB7C
:1023D0003048C08FB0F57A7F38DC2F48007858B984
:1023E0009FED2E0A2E4880ED0C0A2E4890ED010A32
:1023F0002D4880ED000A39E02748007801280AD1ED
:10240000F2EE040A9FED290A25483030FFF78EFDD1
:1024100000F050F82AE02048007802280BD01E482F
:102420000078032807D01C480078042803D01A48F5
:10243000007809281AD1F2EE040A9FED1C0A184808
:102440003030FFF773FDFFF7F9FE0FE01148C08F42
:10245000B0F5617F0ADA9FED110A114880ED0C0A90
:10246000104890ED010A104880ED000A02F0EAFFE2
:102470000020009001900A4890ED0B0ABDEEC00AC2
:1024800010EE100A02B2002340F2FF110848FEF7D6
:1024900078FF1CBD3C140020DA050020000000007D
:1024A0003C040020F8030020B804002000C0DA46F5
:1024B0000068004010B53B480088A0F58060002807
:1024C00004DD38480088A0F5806003E035480088C6
:1024D000C0F58060142803DA4FF480603149088029
:1024E00030484088A0F58060002804DD2D484088F1
:1024F000A0F5806003E02B484088C0F58060142878
:1025000003DA4FF480602749488026484088A0F5C8
:10251000806038B32448C078012823D121484088FE
:10252000A0F5806000EE100AB8EEC00A9FED1F1AF9
:10253000C0EE010AB3EE091A80EE810A1C48D0ED04
:10254000000A30EEC00A80ED000AD0ED000AB0EEBD
:10255000600AB3EE0E1AFBEE0B0AFFF7F2FA14480C
:1025600080ED000A0F480088A0F58060C0B10E48D9
:10257000C078012814D10B480088A0F5806000EED7
:10258000100AB8EEC00A9FED091AC0EE010A094808
:1025900090ED000A9FED081A00EEC10A80ED000AD6
:1025A00010BD00003E0E0020301500200000254424
:1025B000B80F0020B8040020CDCC4C3D10B52E48FB
:1025C0000078552857D12C484078002853D11F2136
:1025D000294802F037FE00284DD0202226492748FE
:1025E000FDF763FE2548D0F8020000EE100AB1EEB8
:1025F000400A234880ED000A90ED000A2148FDF7CB
:1026000011FF204890ED060A1F4880ED010A1B4883
:10261000D0F81A001D4908601848D0F80E001C496F
:1026200048601648D0F812001A4908601348807FA5
:1026300019490870194890ED000ADFED190AB4EE47
:10264000E00AF1EE10FA05D20C48D0F80600154960
:10265000086009E00948D0F8060000EE100AB1EE63
:10266000400A104880ED000A0F48B0F85800401C9E
:102670000D49A1F8580010BD660E0020260200206A
:10268000C404002080040020F8030020D4040020AB
:10269000B80F0020D004002004060020CC04002045
:1026A0000000B442C80400203C14002010B52B48A0
:1026B000D0ED000AB0EE600A002000F0D9FB10EE69
:1026C000100A2749C1F83A0026480068C1F82E00D0
:1026D0002548B0F90010224801852448008801B23D
:1026E0001F48C1842248C1781D4880F82210204824
:1026F00001791B4880F823101D48C179184880F8DB
:1027000024101C48B0F90010154841851A48B0F94A
:10271000001013488185194800681149C1F832003A
:1027200017480068C1F836001F210D482030FDF71A
:10273000C9FE14491448FFF719FA00211248FFF79F
:102740002FFA074820301049583948661F20C865BD
:1027500001210D48FFF724FA10BD0000B80F00203A
:1027600026020020B804002000050020FC04002000
:1027700030150020C2010020C4010020D801002033
:10278000DC01002000800018586002402E480078CC
:10279000A8B12E4890ED000ADFED2D0A30EE200A98
:1027A00080ED000A90ED000ADFED2A0AB4EEE00A9F
:1027B000F1EE10FA18DD00202349087014E02348D8
:1027C00090ED000ADFED220A30EE600A80ED000A8B
:1027D00090ED000ADFED200AB4EEE00AF1EE10FA07
:1027E00002D20120184908701C480078A8B11C4882
:1027F00090ED000ADFED1B0A30EE200A80ED000AA2
:1028000090ED000AF3EE030AB4EEE00AF1EE10FADE
:1028100018DD00201149087014E0114890ED000AFD
:10282000DFED100A30EE600A80ED000A90ED000A3C
:10283000FBEE030AB4EEE00AF1EE10FA02D2012038
:102840000649087070470000DC070020B80400202B
:10285000CDCC4C3E00803343008033C3DD070020E5
:10286000B80F0020CDCCCC3D10B5FFF7ABFD034831
:102870008089401C0149888110BD00003C14002063
:1028800010B500244C480068401C4B4908604B4878
:102890004078E0B1084600689621B0FBF1F201FBF8
:1028A000120098B94FF400414548FFF77AFC4FF405
:1028B00080414348FFF775FC4FF400514048FFF753
:1028C00070FC4FF480513E48FFF769FC01243B48FF
:1028D0008078E0B138480068C821B0FBF1F201FB14
:1028E000120098B94FF400413548FFF75AFC4FF4F5
:1028F00000513348FFF755FC4FF480513048FFF743
:1029000050FC4FF480412E48FFF749FC01242B482E
:10291000C07810B929480079E0B127480068FA2149
:10292000B0FBF1F201FB120098B94FF400412448CA
:10293000FFF737FC4FF480412148FFF732FC4FF49A
:1029400080511F48FFF72DFC4FF400511C48FFF742
:1029500026FC01241948007870B1174800686421EA
:10296000B0FBF1F201FB120020B94FF400611448F2
:10297000FFF719FC012404E04FF400611048FFF751
:1029800010FCC4B94FF480410D48FFF70AFC4FF426
:1029900000510B48FFF705FC4FF480510848FFF742
:1029A00000FC4FF400610648FFF7FBFB4FF40041C9
:1029B0000348FFF7F4FB10BDB0060020D40500204B
:1029C0000010024010B5FFF75BFF0348808D401CEC
:1029D0000149888510BD00003C14002010B55C48FA
:1029E000807A022803D15A48C07A022807D0584872
:1029F000807A01280FD15648C07A01280BD10020D7
:102A00005449087001221146104600F0B5F8002024
:102A100001F0D4FA72E04E48807A02280FD14C4877
:102A2000C07A03280BD101204A49087000220121F5
:102A3000104600F0A1F8012001F0C0FA5EE0444821
:102A4000807A02280FD14248C07A01280BD1022097
:102A50004049087000221146104600F08DF8012010
:102A600001F0ACFA4AE03A48807A03280FD138489E
:102A7000C07A01280BD10320364908700022114684
:102A8000104600F079F8012001F098FA36E030485D
:102A9000807A03280FD12E48C07A03280BD1042056
:102AA0002C49087000221146104600F065F80120FC
:102AB00001F084FA22E02648807A032807D12448CE
:102AC000C07A022803D105202249087016E0204868
:102AD000807A012807D11E48C07A022803D1062037
:102AE0001C4908700AE01A48807A012806D1184863
:102AF000C07A032802D107201649087016480078CA
:102B00000421B1EB101F0ED11448C08E58B9092012
:102B10001049087000221146104600F02DF80120DF
:102B200001F04CFA13E00C4800780521B1EB101FBE
:102B30000DD10A48C08E50B9002006490870012204
:102B40001146104600F018F8002001F037FA10BDC9
:102B50003E0E0020DA050020500D00203C1400201D
:102B600010B5FFF73BFF03480089401C014908816D
:102B700010BD00003C14002010B518B100230B4C10
:102B8000E37002E00123094CE37019B10023074C04
:102B9000237202E00123054C23721AB10023034C77
:102BA000A37202E00123014CA37210BD3015002076
:102BB00000204DE09FED280A00EB0011274A02EBB0
:102BC000810181ED020A9FED260A00EB001102EB64
:102BD000810181ED0C0A9FED220A00EB001102EB4E
:102BE000810181ED0D0AB3EE040A00EB00111D4ACC
:102BF00002EB810181ED020A9FED1B0A00EB00113F
:102C00001A4A02EB810181ED020A9FED190A00EBDD
:102C10000011144A02EB810181ED0C0A9FED140AA8
:102C200000EB001102EB810181ED0D0A9FED0C0A12
:102C300000EB00110D4A02EB810181ED0C0A9FEDC2
:102C4000080A00EB001102EB810181ED0D0A401C26
:102C50000428AFD37047000000007A44841000209D
:102C60000000FA45941100200000C842A412002080
:102C70000000FA4408B54FF4407000F0CBF825206E
:102C80008DF8000000208DF801008DF80200012071
:102C90008DF80300684600F081F826208DF80000CA
:102CA00000208DF801008DF8020001208DF803004E
:102CB000684600F073F827208DF8000000208DF89A
:102CC00001008DF8020001208DF80300684600F035
:102CD00065F834208DF8000000208DF801008DF893
:102CE000020001208DF80300684600F057F83520F7
:102CF0008DF8000000208DF801008DF80200012001
:102D00008DF80300684600F049F847208DF8000070
:102D100000208DF801008DF8020001208DF80300DD
:102D2000684600F03BF83A208DF8000000208DF84E
:102D300001008DF8020001208DF80300684600F0C4
:102D40002DF814208DF8000001208DF801000020DE
:102D50008DF8020001208DF80300684600F01EF88F
:102D600040208DF8000001208DF8010000208DF832
:102D7000020001208DF80300684600F00FF81820CB
:102D80008DF8000000208DF801008DF80200012070
:102D90008DF80300684600F001F808BD70B5002109
:102DA00000230F22C4781CB3174C246804F4E06499
:102DB000C4F5E064C4F30721C1F10404E3B20A419D
:102DC00044789C40E1B28478144021430C07210EE2
:102DD0000E4C05786155047804F01F050124AC40C1
:102DE00005786D11AD0005F1E025C5F8004109E059
:102DF000047804F01F050124AC40054D06787611D7
:102E000045F8264070BD00000CED00E000E400E055
:102E100080E100E002490143024A1160704700006E
:102E20000000FA050CED00E010B50C4800785528BC
:102E300012D10A48407878B9094808498978017060
:102E400032220649091D401CFDF72FFA11220349C1
:102E500010310448FDF729FA10BD0000A50E00202E
:102E6000570F00207C02002010B5FFF72DF810BD91
:102E7000F0EE400AC8B10E490A780978491E0C4B99
:102E800019701AB10B4991ED000A70470A49096897
:102E90000F22B1FBF2F302FB1311054A1170054931
:102EA000C1ED000A91ED000AEFE7B0EE600AECE731
:102EB0009D060020A0060020240C0040CBE000244A
:102EC000C4E004EBC400644901EB8000007A0028F0
:102ED0007DD16248006804EBC4015F4A02EB8101C6
:102EE0000969401A04EBC40102EB810148615B48A7
:102EF000006804EBC40102EB8101086104EBC4012A
:102F000002EB810148688047012004EBC401524A6A
:102F100002EB810108725148006804EBC40102EB26
:102F200081010969401A04EBC40102EB8101886147
:102F300004EBC400114601EB8000C06904EBC4013E
:102F400002EB81018969884206D904EBC40011466D
:102F500001EB8000C06905E004EBC4003E4901EBD1
:102F60008000806904EBC4013B4A02EB8101C86127
:102F700004EBC400114601EB8000006A04EBC401BD
:102F800002EB81018969884206D204EBC400114634
:102F900001EB8000006A05E004EBC4002E4901EB60
:102FA0008000806904EBC4012B4A02EB81010862B6
:102FB00004EBC400114601EB8000806928490968D0
:102FC00008442749086004EBC400114600E012E001
:102FD00001EB8000C0692349096808442149086061
:102FE00004EBC400114601EB8000006A1E49096829
:102FF00008441D490860002522E01848006805EBD8
:10300000C501154A02EB81010969401A05EBC501AA
:1030100002EB8101C968884211D305EBC500114656
:1030200001EB8000007A022809D0002005EBC501E1
:1030300002EB81010872AC4201D96C1E04E06D1CE8
:103040000A4800688542D8D300BF641C074800685E
:103050008442FFF436AF32E70C000020240C00401D
:10306000000000200400002008000020980100203B
:1030700029B1064A12680243044B1A6004E0034A6D
:1030800012688243014B1A607047000030380240DA
:1030900029B1064A12680243044B1A6004E0034A4D
:1030A00012688243014B1A607047000040380240AA
:1030B00029B1064A12680243044B1A6004E0034A2D
:1030C00012688243014B1A607047000020380240AA
:1030D00029B1064A12680243044B1A6004E0034A0D
:1030E00012688243014B1A60704700004438024066
:1030F00029B1064A12680243044B1A6004E0034AED
:1031000012688243014B1A60704700002438024065
:10311000F0B5002100220024022500260223324FB0
:103120003F6807F00C0121B1042905D0082937D1E7
:1031300005E02E4F076036E02D4F076033E02A4F41
:103140003F1F3F68C7F38056274F3F1F3F6807F078
:103150003F036EB1264FB7FBF3F7DFF88CC0ACF13D
:10316000040CDCF800C0CCF3881C07FB0CF40CE06A
:103170001E4FB7FBF3F7DFF870C0ACF1040CDCF8BE
:1031800000C0CCF3881C07FB0CF4174F3F1F3F68AF
:10319000C7F301477F1C7D00B4FBF5F7076002E031
:1031A000124F076000BF00BF0F4F3F6807F0F001EC
:1031B0000909104F7A5C0768D74047600A4F3F689B
:1031C00007F4E051890A0B4F7A5C4768D740876063
:1031D000054F3F6807F46041490B064F7A5C47682A
:1031E000D740C760F0BD0000083802400024F4005A
:1031F00000127A003D0800200178427841EA02215D
:10320000C1F30A011B4A11804178C910827841EA52
:103210004211C1F30A01174A5180C1788911C2785D
:1032200041EA8201027941EA8221C1F30A01114A8D
:10323000918001794910427941EAC211C1F30A0132
:103240000C4AD180017C427C41EA0221C1F30A018F
:10325000084A118141790911890891724179C1F3B4
:103260000111D1720449B1F84C10491C024AA2F86C
:103270004C1070473E0E00203C14002010B5424810
:103280000089A0F58060B0F5967F0FDD3F4800799A
:1032900018B14FF42F703E4908603E48D0F89800AE
:1032A0003D49086001203D49087010E0364800891A
:1032B000A0F5806010F5967F09DA3448007930B1C6
:1032C0004FF4FA70324908600020354908703148DF
:1032D000D0F8980030490968401AB0F57A7F17D9BC
:1032E0002B480068B0F52F7F04D02E480068B0F559
:1032F0002F7F0DD12948007850B125480068B0F5DE
:103300002F7F02D101202649087000202349087030
:103310002348007850B31E480068B0F52F7F31D1A4
:103320001A48007910B31848C088A0F5806010F5DD
:10333000967F04DA00210120FEF7A6FE22E0124863
:103340008088A0F58060B0F5967F04DD002109201B
:10335000FEF79AFE16E00C48C088A0F58060B0F534
:10336000967F04DD00210D20FEF78EFE0AE0064860
:103370008088A0F5806010F5967F03DA00210F2089
:10338000FEF782FE10BD00003E0E0020301500202A
:10339000FC0400203C140020B4060020B8060020E5
:1033A00014050020F804002070B505460C461646AA
:1033B00040F20221681A8D427ED013DCB5F5827F7F
:1033C0007BD008DC012D1CD0032D33D0A5F20110D9
:1033D000002873D15BE0A5F2051000286FD0FC280F
:1033E000F7D1A5E005286BD006DC012869D00228BA
:1033F00068D00428EDD15EE1062870D0FF28E8D11E
:10340000C3E1FE480088401CFC4908803246E11DAB
:10341000FB48FCF74AFFFB48458001460E713246E7
:10342000E11D401DFCF741FFF548B0F80100F649E9
:1034300008806DE2F1488088401CF049888032465F
:10344000E11DF248FCF731FFEE48458001460E7160
:103450003246E11D401DFCF728FFED4800780728A3
:1034600008D1EA488089EB490880E848408BEA495E
:1034700008800BE0E64800786B2807D1E348808B92
:10348000E4490880E1484089E349088040E2DB489C
:103490008089401CD94988813246E11DDF48FCF70C
:1034A00004FFD848458001460E713246E11D401D9B
:1034B000FCF7FBFED94806E09DE011E027E223E09F
:1034C0000DE1D0E0E3E00088C0F3802018B10120D6
:1034D000D349087002E00020D149087018E245E1A4
:1034E000C648008A401CC54908823246E11DCD48C5
:1034F000FCF7DBFEC348458001460E713246E11DF4
:10350000401DFCF7D2FE03E2BC48808A401CBB4948
:1035100088823246E11DC448FCF7C7FEB9484580A1
:1035200001460E713246E11D401DFCF7BEFEEFE183
:10353000B248008B401CB14908833246E11DBB48AC
:10354000FCF7B3FEAF48458001460E713246E11DDF
:10355000401DFCF7AAFEB5480078AD490870B34895
:103560004088B3490880B148008BB2490880AF4811
:103570000089B1490880AD48C089B0490880AB488E
:10358000C088AF490880A9488089AE490880AE4804
:10359000007870B9A6480088AC490988884208DAE2
:1035A000AB48B0F89800AB4908800120A6490870E4
:1035B00012E0A748D0F89800A6490988401AB0F54B
:1035C0007A7F09D30020A0490870A3480088A34946
:1035D00008800020A04908809C48008894490988F8
:1035E000401A9D49098808449B49088090480088F2
:1035F000964908808CE18148808B401C7F498883F4
:103600003246E11D9648FCF750FE7E484580014653
:103610000E713246E11D401DFCF747FE914890EDCA
:10362000000A914880ED000A8D4840688D49086085
:103630008E4800888E490880894800898B49088017
:103640008748408900B28B4908808548808900B24C
:10365000894908800120894908707D48D0F8980080
:103660008749086054E16548008C401C6349088420
:103670003246E11D8348FCF718FE6248458001464A
:103680000E713246E11D401DFCF70FFE40E15B4824
:10369000808C401C594988843246E11D7A48FCF7E9
:1036A00004FE5848458001460E713246E11D401D1A
:1036B000FCF7FBFD2CE15148008D401C4F4908856B
:1036C0003246E11D7148FCF7F0FD4E484580014649
:1036D0000E713246E11D401DFCF7E7FD18E1474839
:1036E000808D401C454988853246E11D6848FCF7BD
:1036F000DCFD4448458001460E713246E11D401D07
:10370000FCF7D3FD624840786249087008460078AB
:10371000012813D160480088401C5F4908805C483C
:1037200080785E4908705A48D0F803005C49086008
:103730005C480088401C5B49088016E055480078CA
:10374000022812D158480088401C57490880504828
:103750008078564908704E48D0F8030054490860F4
:1037600054480088401C53490880D1E02348008E0B
:10377000401C224908863246E11D4F48FCF795FD62
:103780004D4800884D490880C2E01C48808E401C8E
:103790001A4988864A48D4F807100160B4F80B101B
:1037A0008180B21F04F10D014648FCF77EFD1548EB
:1037B000458001460E713246E11D401DFCF775FD46
:1037C0003F480088B0F5007F16D13D4880881049F9
:1037D000097888427FD13A4841880D480078401ED8
:1037E000814278D1374800783749087035484078A9
:1037F0003649087033486BE06DE00000F814002093
:10380000500D0020B8020020E00100205B0D0020D8
:10381000D4010020E2010020E4010020FF0100208B
:10382000C60100200702002009020020860D0020AA
:10383000CA010020E8010020EA010020EC0100207C
:10384000EE010020F0010020FA0100209006002087
:103850003C1400208E06002092060020F801002073
:10386000A10D0020CC01002008060020D20100207C
:10387000D0010020C2010020C4010020FC01002072
:10388000EC050020B10D00200A0200200C020020EF
:103890000D020020F20100201C060020D5010020AE
:1038A000D8010020F40100201E060020D6010020CF
:1038B000DC010020F601002014020020C8010020D5
:1038C0001E020020CD0D00200D0600200C06002059
:1038D0008078104908701048008840F20121884221
:1038E00014D10D4880880D49097888420ED10A48C4
:1038F00041880A480078801C814207D10848007836
:1039000008490870064840780749087000E000BF81
:1039100000BF70BDFB0100201E020020D40100206A
:10392000CD0D00200F0600200E0600202DE9F84FD7
:1039300081460C4692464FF0000B00250020009077
:10394000804676E0D9F8080010F80860BBF1070F50
:103950006BD2DFE80BF004111E2534434D00A52E79
:1039600007D100254FF0010BA52229466D1C62549A
:1039700001E04FF0000B59E02846691CCDB22654F7
:10398000032D05D16078A17840EA01274FF0020BA2
:103990004CE02846691CCDB226544FF0030B45E09D
:1039A0002846691CCDB226542946204601F04AFC1F
:1039B00010B14FF0040B01E04FF0000B36E0284649
:1039C000691CCDB22654072D07D16079A17940EA50
:1039D00001201A4908804FF0050B27E02846691C92
:1039E000CDB22654F81DA84201D14FF0060B1DE0C0
:1039F0002846691CCDB2265407F10900A84213D10C
:103A00002946204601F0FEFB70B13A4621460B489C
:103A10000088FFF7C9FC4FF0000B0948B0F85000D0
:103A2000401C0749A1F8500000E000BF00BF08F1AA
:103A30000108D04586DBBDE8F88F00008A0600202B
:103A40003C14002010481149086011484860114892
:103A500088601148C86011480861114848611148E0
:103A600088611148C86111480862114848621148CC
:103A700088621148C86211480863114848631148B8
:103A800088631148C8637047500D0020780F0020EC
:103A9000FE0100205B0D0020FF010020030200203A
:103AA0000702002009020020860D0020A10D002041
:103AB000B10D00200A0200200B0200200C020020A1
:103AC0000D020020140200201A02002010B5FEF79B
:103AD000EDFD0348808B401C0149888310BD000028
:103AE0003C14002010B52DED0A8B474800780328C0
:103AF00071D1464890ED000A454880ED000A4548DE
:103B0000006803F027FA41EC1B0B4348006803F000
:103B100021FA41EC1C0BB0EE4B1AF0EE6B1AB0EE32
:103B20004C0AF0EE6C0A01F04BFEB0EE40AAF0EE4B
:103B300060AA9FED3A0B53EC102B51EC1A0B02F0DC
:103B400013FF41EC190B9FED370B53EC102B02F0D8
:103B500063FD41EC180B02F079FC2C490860084623
:103B600090ED000A2A48D0ED000A30EE600A2F4896
:103B700080ED000A90ED000ADFED2D0AB4EEE00AB8
:103B8000F1EE10FA08D290ED000ADFED2A0A30EECD
:103B9000200A80ED000A11E0244890ED000ADFEDD4
:103BA000260AB4EEE00AF1EE10FA07DD90ED000A05
:103BB000DFED200A30EE600A80ED000A1F4890ED2C
:103BC000000A1A48D0ED000A30EE200A1B4880EDAA
:103BD000000A06E0FFE70C480078092801D101F04F
:103BE0009DFB00200AE0154991ED000A00EB001151
:103BF000134A02EB810181ED000A401C0428F2D334
:103C0000BDEC0A8B10BD0000DA050020340800204E
:103C1000300800201C0800202008002000000000C0
:103C20000080664000000060FB2109403808002049
:103C3000000034C30000B44300003443EC0400200F
:103C40009411002010B50446002C72D0012C04D031
:103C5000022C3BD0032C6BD166E0002011E09FEDDD
:103C6000430A00EB0011424A02EB810181ED0D0A8B
:103C70009FED3E0A00EB001102EB810181ED0C0A81
:103C8000401C0428EBD300201DE000F0010181F06E
:103C90000101C1EB011101EB410100F00102A2EBB6
:103CA000021202EB4202114400EE101AB8EEC00AF2
:103CB00000EB00112F4A02EB810181ED000A002187
:103CC0002D4A1170401C0428DFD34BE0002011E086
:103CD0009FED260A00EB0011254A02EB810181EDE0
:103CE0000D0A9FED220A00EB001102EB810181ED2C
:103CF0000C0A401C0428EBD31F48007888B9002028
:103D000009E09FED1E0A00EB00111A4A02EB810147
:103D100081ED000A401C0428F3D3012016490870E5
:103D200001E0FFF7DFFE1DE0FEF74AF91AE000E0D0
:103D300017E0002012E09FED110A00EB00110C4A81
:103D400002EB810181ED0C0A9FED0C0A00EB0011E2
:103D5000084A02EB810181ED000A401C0428EAD3E5
:103D600000E000BF00BF00F00BF810BD0000FA45F6
:103D7000A4120020941100203C0800200000000044
:103D800010B500241CE004EB04110F4A02EB810083
:103D9000FDF76AFC04EB04100B4901EB800090ED89
:103DA0000B0A04EB0410094901EB800080ED000AC6
:103DB00004EB0411054A02EB8100FDF755FC641C7D
:103DC000042CE0D310BD000094110020A4120020A8
:103DD0000CB50020019000903448006840F4803019
:103DE0003249086000BF3148006800F4003000909C
:103DF0000198401C0190009818B90198B0F5A04FA7
:103E0000F1D12A48006800F4003010B10120009080
:103E100001E0002000900098012846D1234840305E
:103E2000006840F080502149403108602048006817
:103E300040F440401E4908601C48083000681B4997
:103E4000083108600846006840F4004008600846F1
:103E5000006840F4A05008601648091F0860081F59
:103E6000006840F08070091F086000BF0F480068BC
:103E700000F000700028F9D040F205700E4908608B
:103E80000A480830006820F003000849083108603B
:103E90000846006840F00200086000BF0348083090
:103EA000006800F00C000828F8D10CBD0038024072
:103EB0000070004008544007003C0240B5EEC00AC4
:103EC000F1EE10FA01DD01207047B5EEC00AF1EE07
:103ED00010FA02D24FF0FF30F6E70020F4E70000BE
:103EE00010B52D48007820B94FF4FA702B490860BE
:103EF00014E029480078012807D0274800780228D4
:103F000003D025480078032802D1FFF7B7F905E070
:103F100021480078092801D1FCF7E6FA204800780A
:103F2000E0B19FED200A204880ED0C0A1F48D0ED3B
:103F3000000A1F48B0F900001E49B1F90010401AEC
:103F4000C0EB803101EBC03000EE100AB8EEC00AC1
:103F500030EE800A154880ED000A0EE09FED160A4B
:103F6000114880ED0C0A114890ED010A80ED000A1D
:103F70000D4890ED010A80ED000A00F06FF8002076
:103F800000F02EF806480078054948700848B0F956
:103F900000000849088010BDDA050020FC0400205C
:103FA0001405002000401C46900500204C05002010
:103FB00000050020020500200000000018B10121CA
:103FC000054A117106E00021034A11714FF4FA719C
:103FD000024A11607047000030150020F8040020EC
:103FE000A0BB1B49097869B11949497851B91949E8
:103FF00091ED060A164981ED010A91ED010A81ED64
:10400000020A0DE01249097851B1114991ED020AF5
:1040100081ED010A0F4991ED060A0D4981ED020A71
:104020000B4991ED020AD1ED010A30EE600ADFED95
:104030000A0A80EE201AB6EE000A31EE000ABDEE42
:10404000C00A81ED050A4969014AD1607047000044
:10405000140500208803002000FF3FC71CB5184846
:10406000007838B11648407820B9164890ED010A1A
:1040700080ED000A1348FDF74BFA124890ED0B0A49
:104080009FED111AC0EE010A9FED100A20EE800A82
:104090000F4880ED000AFDF7E7FA0020009001903C
:1040A0000B4890ED0B0ABDEEC00A10EE100A40421C
:1040B00002B2002340F2FF110648FDF762F91CBD71
:1040C000140500204C050020000000460000B44309
:1040D000900500200064004010B5FFF701FF034881
:1040E000008A401C0149088210BD00003C140020D9
:1040F00070B50546002D5CD0012D02D0022D67D190
:1041000024E0002009E09FED350A00EB0011344A5D
:1041100002EB810181ED0C0A401C0428F3D300243A
:1041200011E09FED300A304880ED000A04EB0411E5
:104130002B4A02EB8100F6EE000A2B4991ED000AB2
:10414000FDF7F4FE641C042CEBD342E0002009E0F0
:104150009FED220A00EB0011214A02EB810181ED63
:104160000C0A401C0428F3D32048007803281FD0F1
:104170001E48007809281BD11B4890ED000A1848FA
:1041800080ED000A184890ED000AB1EE400A14488C
:1041900080ED110A144890ED000AB1EE400A104873
:1041A00080ED220A104890ED000A0D4880ED330A98
:1041B0000FE0002009E09FED0E0A00EB0011084A15
:1041C00002EB810181ED000A401C0428F3D300E0DA
:1041D00000BF00BF00F00EF870BD00000000FA45FF
:1041E000841000205655AD41F0040020DA0500206F
:1041F0000000000010B5002407E004EB0411044A9D
:1042000002EB8100FDF730FA641C042CF5D310BDDD
:1042100084100020A748D0F89800401CA549C1F898
:1042200098000846D0F898004FF47A71B0FBF1F28C
:1042300001FB120000287DD19E4880889D49C880DE
:1042400000208880084600894881002008810846AF
:104250008089C881002088810846008A4882002021
:1042600008820846808AC882002088820846008B1F
:104270004883002008830846808BC88300208883F9
:104280000846008C4884002008840846808CC88436
:10429000002088840846008D48850020088508464F
:1042A000808DC885002088850846008E48860020BD
:1042B00008860846808EC886002088860846008FBB
:1042C0004887002008870846808FC8870020888795
:1042D0000846B0F84000A1F842000020A1F84000D4
:1042E0000846B0F84400A1F846000020A1F84400B8
:1042F0000846B0F84800A1F84A000020A1F848009C
:104300000846B0F84C00A1F84E000020A1F84C007F
:104310000846B0F85000A1F852000020A1F8500063
:104320000846B0F85400A1F856000020A1F8540047
:10433000084600E0BDE0B0F85800A1F85A0000209F
:10434000A1F858000846B0F85C00A1F85E00002013
:10435000A1F85C000846B0F86000A1F862000020F7
:10436000A1F860000846B0F86400A1F866000020DB
:10437000A1F864000846B0F86800A1F86A000020BF
:10438000A1F868000846B0F89000A1F8920000205B
:10439000A1F890000846B0F87000A1F87200002063
:1043A000A1F870000846B0F87400A1F8760000206B
:1043B000A1F874000846B0F87800A1F87A0000204F
:1043C000A1F878000846B0F87C00A1F87E00002033
:1043D000A1F87C000846B0F88000A1F88200002017
:1043E000A1F880000846B0F88400A1F886000020FB
:1043F000A1F884000846B0F88800A1F88A000020DF
:10440000A1F888000846B0F88C00A1F88E000020C2
:10441000A1F88C000846B0F89400A1F8960000209E
:10442000A1F894002448008823494880002008808F
:1044300008468088C8800020888008460089488116
:104440000020088108468089C881002088810846AC
:10445000008A4882002008820846808AC88200209C
:1044600088820846008B4883002008830846808B9A
:10447000C883002088830846008C48840020088474
:104480000846808CC884002088840846008D4885B2
:10449000002008850846808DC8850020888508464C
:1044A000008E4886002008860846808EC886002038
:1044B000888670473C140020F814002030B5164858
:1044C00000684FF47A72B0FBF2F1481EB0F1807FC1
:1044D00001D301201BE0481E4FF0E022506150172D
:1044E0000F22002807DA13071D0E0C4B00F00F04F3
:1044F000241F1D5503E013071C0E094B1C5400BF5D
:1045000000204FF0E022906107201061002008B1E8
:1045100000BFFEE730BD00007406002018ED00E08B
:1045200000E400E010B51548006840F4700013493D
:1045300008601348006840F001001149086000203D
:104540000F49083108600E4800680E4908400C49C0
:1045500008600D48091D0860081F006820F48020CD
:10456000091F0860002006490C310860FFF730FC85
:104570004FF0006001498039086010BD88ED00E00F
:1045800000380240FFFFF6FE1030002410B53D4811
:10459000FEF7BEFD00203C49A1F89C0000BF0DE0E5
:1045A0003949B1F89C1000EBC002384B03EB820292
:1045B000128B1144344AA2F89C10401C34490968FB
:1045C0008842EDD33048B0F89E002F49B1F89C10D6
:1045D000884203DD2C48B0F89E0002E02A48B0F87B
:1045E0009C002949A1F89E000846C08FB0F5FA7FCB
:1045F00003DA01202749487002E00020254948706D
:104600002148B0F84A00B0F5FA7F03DA01202149C9
:10461000887002E000201F4988701B48408F0A28DC
:1046200003DA01201B49087002E0002019490870D4
:104630001548B0F8660040F2DC51884203DA0120E8
:104640001449C87002E000201249C8700E48B0F842
:104650006A0040F6C411884203DA01200D4908714E
:1046600002E000200B4908710B484088B0F5487FF4
:1046700003DA01200749487102E00020054948712A
:1046800010BD0000901500203C1400200C000020FC
:1046900098010020D4050020DC14002010B5FFF79D
:1046A00075FF03488088401C0149888010BD0000C8
:1046B0003C140020F0B50C46154600210022068C63
:1046C0004FF6FE773E400684018B028C4FF60C7647
:1046D00031407E1C06EA03162E4331434FF6F57631
:1046E000324044F00106324301830284F0BDF0B54C
:1046F0000C461546002100220026078C4FF6EF7C61
:1047000007EA0C070784018B028C4FF6FF7707EA54
:10471000041640F6FF4739404FF6FF7707EA0337A4
:1047200039434FF6FF7707EA052739434FF65F779E
:104730003A4046F010073A4301830284F0BDF0B5D9
:104740000C461546002100220026078C4FF6FF6C10
:1047500007EA0C070784818B028C4FF6FF7707EA84
:1047600004264FF60C7739404FF6FF7707EA031718
:104770002F4339434FF2FF573A4046F480773A438C
:1047800081830284F0BDF0B50C461546002100225D
:104790000026078C4EF6FF7C07EA0C070784818B06
:1047A000028C4FF6FF7707EA043640F6FF473940A0
:1047B0004FF6FF7707EA052739434FF6FF7707EAF9
:1047C0000337394345F6FF773A4046F480573A437A
:1047D00081830284F0BD000010B52DED0C8B022109
:1047E0006A4800F069F900281BD00221674800F0F0
:1047F00051F96648008C00F0020098B90020644925
:104800000860624948626349086000215F4800F01F
:1048100044F902215D4800F0A9F901215B4800F04C
:104820003CF9A2E05948008C00F002000028F8D0C2
:10483000564800F03EF9564908600846006802F004
:1048400043F841EC1D0B9FED540B53EC102B02F081
:104850008BF841EC1B0B4F49086802F035F841EC2E
:104860001C0B53EC1B2B01F023FE41EC1A0B9FEDAC
:104870004C0B53EC102B02F077F841EC190B9FED29
:104880004A0B53EC102B01F0C7FE41EC180B01F062
:10489000DDFD47490860084690ED000A454880ED77
:1048A000000AB1EE021ADFED440A90ED000AFDF7AE
:1048B00048F9404880ED000A3D48006802F04AFB94
:1048C00041EC180B9FED3D0B53EC102B02F04AF915
:1048D00005D2384890ED000A354880ED000A354889
:1048E00090ED000A3248D0ED000A30EE600A10EE7A
:1048F000101A084602F02EFB41EC190BB0EE490AE3
:10490000F0EE690A01F054F8B0EE408AF0EE608AE9
:104910009FED2C0B53EC102B51EC180B02F022F9ED
:1049200005D2244890ED000A214880ED000A204875
:1049300090ED000A0A212548FDF788FA1C4880ED11
:10494000000A90ED000ADFED220A20EE200A80ED39
:10495000000A00210D4800F0A0F800210B4800F0EB
:1049600005F90121094800F098F80121074800F0F5
:10497000A3F840B10121054800F08CF80548006813
:10498000401C04490860BDEC0C8B10BD0040014088
:10499000FC050020F4050020FCA9F1D24D62503F37
:1049A000C3F5285C8FC2D53F000000000000004026
:1049B00000060020A0010020000000000000000010
:1049C00000001240333333333333D33F50080020D9
:1049D00000007A440EB501210820FEF759FB532050
:1049E000ADF800004FF0FF3001900020ADF802005C
:1049F000ADF808006946044800F0EEF801210248CD
:104A000000F04BF80EBD0000000C004030B589B03E
:104A100005460C4601210846FEF72AFB0121080441
:104A2000FEF756FB0420019002208DF808008DF857
:104A3000090000208DF80A0002208DF80B0001A962
:104A40001248FDF741FB032202211048FDF784FBC9
:104A50000020ADF82000ADF81A000795ADF8184019
:104A600006A90B4800F0B8F803A800F06DF803A9F8
:104A7000074800F032F801220321054800F06DF8E4
:104A80000121034800F009F809B030BD00000240E0
:104A900000400140CA430282704721B1028842F0BF
:104AA0000102028004E002884FF6FE731A40028081
:104AB00070470146486B704730B50246002000231E
:104AC0000024158A05EA0103958905EA010413B15A
:104AD0000CB1012000E0002030BD70B505460C4649
:104AE000208850B92389A28861882846FFF7E2FD13
:104AF000E188284600F043F825E0208804280AD100
:104B00002389A28861882846FFF7F1FDE1882846BD
:104B100000F03EF817E0208808280AD12389A288EF
:104B200061882846FFF70BFEE188284600F03DF833
:104B300009E02389A28861882846FFF724FEE188DE
:104B4000284600F03BF870BD002101804180012122
:104B500081800021C180018170471AB183890B4394
:104B6000838102E083898B43838170470A46002159
:104B7000018C4FF6FD731940114301847047028B7D
:104B80004FF6F3731A400283028B0A430283704785
:104B9000028B4FF2FF331A400283028B4FF6FF73F2
:104BA00003EA01231A4302837047828B4FF6F373A3
:104BB0001A408283828B0A4382837047828B4FF232
:104BC000FF331A408283828B4FF6FF7303EA01237F
:104BD0001A4382837047000000220288184B9842D3
:104BE0000ED0184B98420BD0B0F1804F08D0164B26
:104BF000984205D0154B984202D0154B984204D1EB
:104C00004FF68F731A404B881A43124B984207D0C5
:104C1000114B984204D04FF6FF431A400B891A43B8
:104C200002804B68C3620B880385054B984202D013
:104C3000044B984201D18B7A03860123838270470B
:104C40000000014000040140000400400008004052
:104C5000000C0040001000400014004010B540F26D
:104C60002441124800F0B8F901281ED10F480088ED
:104C70000E4880880E48FDF755F8232809D1FEF725
:104C8000D3F80C48B0F84400401C0A49A1F844008D
:104C90000BE000210648FCF783FF2320044910396C
:104CA000486101210248FCF77BFF10BD0050004025
:104CB000106002403C14002010B540F2244114481A
:104CC00000F08AF9012822D1114800881048808814
:104CD0001048FDF727F8104908600E48FDF722F844
:104CE000122808D10D48FEF787FA0D48808E401C27
:104CF0000B4988860BE000210648FCF751FF122083
:104D00000449091D086001210248FCF749FF10BD54
:104D100000100140406402409C010020540E00201D
:104D20003C14002010B540F22441174800F054F91B
:104D300040B340F22441144800F0B1F81248008812
:104D40001148001D0088114800F000FA0446224670
:104D50000F490E48FEF7EAFD0E48B0F8520060B960
:104D600000210D48FCF71CFF4FF4FA700A49091D99
:104D7000086001210848FCF713FF0648008F401C1B
:104D80000449088710BD000000440040A401002031
:104D9000560C00203C1400208860024010B540F200
:104DA0002441124800F018F901281DD10F4800884D
:104DB0000E48001D00880E48FCF7B4FF1F2807D1DD
:104DC000FDF7FCFB0B48808F401C0A4988870BE0ED
:104DD00000210748FCF7E4FE1F2005492839C86276
:104DE00001210348FCF7DCFE10BD00000048004034
:104DF000286002403C14002010B540F224411E48B7
:104E000000F0EAF8012835D11B4800881A48001D37
:104E100000881A48FCF786FF26281FD1184800781A
:104E2000552813D11648407880B916481449897816
:104E3000017020221249091D401CFBF736FA124866
:104E4000B0F86000401C1049A1F860000E48B0F8AE
:104E50004800401C0C49A1F848000BE0002107481D
:104E6000FCF79EFE26200549091D08600121034824
:104E7000FCF796FE10BD00000014014028640240BB
:104E8000C80E00202A0F00203C14002001F40072FC
:104E9000B2F5007F00D100BFCA430280704710B551
:104EA0000022002340F66A14A14200D100BF0A127A
:104EB00001249440A3B2DC43048010BD21B1828957
:104EC00042F40052828104E082894DF6FF731A4059
:104ED000828170471AB1838A0B43838202E0838AFE
:104EE0008B4383827047000010B5044632488442E9
:104EF00008D101211020FEF7FBF800211020FEF759
:104F0000F7F857E02D48844209D101214804FEF703
:104F1000CFF800214FF40030FEF7CAF84AE02848E5
:104F2000844209D101218804FEF7C2F800214FF420
:104F30008020FEF7BDF83DE02248844209D10121DE
:104F4000C804FEF7B5F800214FF40020FEF7B0F8D2
:104F500030E01D48844209D101210805FEF7A8F878
:104F600000214FF48010FEF7A3F823E01748844295
:104F700008D101212020FEF7BBF800212020FEF7F8
:104F8000B7F817E01248844209D101218807FEF7DB
:104F90008FF800214FF08040FEF78AF80AE00D48B4
:104FA000844207D101214005FEF782F80021600507
:104FB000FEF77EF810BD00000010014000440040E4
:104FC00000480040004C00400050004000140140E8
:104FD00000780040007C004070B5024600240023A9
:104FE0000025002040F66A16B14200D100BFC1F38F
:104FF000421501F01F03012606FA03F3012D02D129
:105000009689334006E0022D02D1168A334001E032
:10501000968A33400C12012606FA04F416883440AE
:1050200013B10CB1012000E0002070BDF0B50346C3
:10503000002400260025002040F66A17B94200D15E
:1050400000BF1846C1F3421401F01F06012707FAFA
:1050500006F5012C01D10C3004E0022C01D11030F6
:1050600000E014301AB107682F43076002E00768B8
:10507000AF430760F0BD00002DE9FF4705460E462F
:105080000024A14600BFA046B08900B100BF2C8A11
:1050900024F44054F08804432C82AC8941F20C6023
:1050A0008443B08831890843718908430443AC8143
:1050B000AC8A24F44074B0890443AC826846FEF79D
:1050C00027F82048854202D01F48854202D1DDF8EA
:1050D0000C9001E0DDF80890A88900F4004040B190
:1050E00009EBC90000EB091031684900B0FBF1F78A
:1050F00007E009EBC90000EB091031688900B0FB3B
:10510000F1F76420B7FBF0F004012009642101FBF2
:105110001078A88900F4004040B1322000EBC800AC
:10512000B0FBF1F000F00700044308E0322000EB90
:1051300008106421B0FBF1F000F00F0004432C8153
:10514000BDE8FF87001001400014014010B504467F
:105150006068FCF7E7FD618A081AA082E08A218B6B
:105160000844E082E08A618A884206DBE08A618A3C
:1051700090FBF1F201FB1200E082E08AA18A8842F2
:1051800015DAA08AE18A401A2083208B218A88427E
:1051900035DC002007E0E28AE1681144095CA2687E
:1051A0001154411C88B2218B8142F4DC27E0A08A93
:1051B000618A0844E18A401A2083208B218A884230
:1051C0001DDC002007E0E28AE1681144095CA26866
:1051D0001154411C88B2218BA28A891A8142F2DCC7
:1051E000002009E0E168095C238BA2681A44A38AC5
:1051F000D21A1154411C88B2A18A8142F2DC208B60
:1052000010BD000070B505460C4600260DB1022CFD
:1052100001D8002070BDA11E094802882846FCF76D
:10522000E1FF0646F1B2A01E285C814206D1601E55
:10523000285CB0EB162F01D10120EBE70020E9E755
:105240008806002070B505460C4600260DB1022CDC
:1052500001D8002070BD611EFF222846FCF7DCFF4C
:105260000646601E285CB04201D10120F2E7002012
:10527000F0E7000010B5FCF785FD0348008C401CEA
:105280000149088410BD00003C14002010B51D48E1
:10529000D0F801001C4908601A48D0F805004860A1
:1052A0001848D0F8090088601648D0F80D00C8608A
:1052B0001448D0F8110008611248D0F81500486170
:1052C0001048D0F8190088610E48D0F81D00C86158
:1052D0000E490F48FCF74AFC00210D48FCF760FC22
:1052E00000BF0B48FCF714FD0028FAD10648084916
:1052F0007039C8672420486701210548FCF750FC35
:1053000010BD00002A0F0020310600202080002060
:105310007060024010B5FFF7B9FF10BD9FED3A1A5B
:10532000B0EE410A3948D0F80100394908603748E1
:10533000D0F80500374908603448D0F809003649EC
:105340000860084690ED001AF1EE041AB4EEE11A76
:10535000F1EE10FA03DDB1EE041A80ED001A2E48CA
:1053600090ED001ADFED2D1A81EE212A80ED002A42
:10537000274890ED001A2A48D0ED001A31EE611A44
:10538000B0EE410A224890ED001A254880ED001A3F
:105390009FED241AB4EEC10AF1EE10FA06DD9FED7E
:1053A000221A30EE411AB0EE410A0CE09FED1F1AAE
:1053B000B4EEC10AF1EE10FA05D29FED1B1A30EEE1
:1053C000011AB0EE410A1A4890ED001A31EE001AA7
:1053D00080ED001A174890ED001A1748D0ED001A1A
:1053E00031EE211ADFED151A31EE211A0948D0ED00
:1053F000001A71EE610A0E4890ED001A31EE201A83
:105400000F4880ED001A704700000000570F002081
:10541000D8040020DC040020E00400208FC2753D89
:10542000A4060020000034430000B443000034C34D
:10543000A8060020BC040020D40400200000B442D0
:10544000E404002010B51548007801280DD1144857
:1054500090ED000A134880ED060AFCF7D5F91148D3
:1054600090ED000A0E4880ED000A0D4890ED000A0C
:105470000D4880ED000A0D4890ED000A0C4880EDC3
:10548000010A0948FCF7F0F8074890ED0B0A0848B4
:1054900080ED000AFCF7E8F810BD0000C40600200B
:1054A000B80400209C040020F8030020C804002059
:1054B0003C04002003B401984100009850EAC12048
:1054C00018BF04204A0D18BF40F0010040F2FF72DF
:1054D000B2EB515F08BF40F00200012808BF052071
:1054E00002B070470000000070B59B482DED020B24
:1054F0002DED068B079D25F00044A04218DC97484F
:10550000844202DC0AD1069840B19DED060BBDEC49
:10551000068B02B0BDE8704000F00DBB002DCCBF83
:105520009FED8F0B9FED900BBDEC068B02B070BD15
:105530008F48A04215DD8F48A042D8BF4FF0FF34FE
:1055400058DD9DED060B51EC100BFFF7B3FF04285F
:1055500008BF00F005FB9DED060BBDEC068B02B00D
:1055600070BD9DED060B51EC100B00F013FBCDE967
:10557000060181489FED828BA0423CDD8248A0421B
:105580001FDD00249FED82AB9DED060B53EC1A2B23
:1055900051EC100B00F08CFF9DED060B41EC190B4C
:1055A00053EC1A2B51EC100B01F0DEF953EC182BD5
:1055B00001F0E6FB53EC192B01F02EF8CDE90601C2
:1055C00049E09DED060B012453EC182B51EC100B18
:1055D00000F06EFF9DED060B41EC190B53EC182B00
:1055E00051EC100B01F0CCFB53EC192B01F014F82B
:1055F000CDE906012FE06848A0421FDD02249FED9F
:10560000689B9DED060B53EC192B51EC100B01F030
:10561000ABF953EC182B00F04BFF9DED060B41EC62
:10562000180B53EC192B51EC100B01F0A9FB53ECA8
:10563000182B00F0F1FFCDE906010CE09DED060B03
:10564000032453EC102B9FED580B51EC100B00F082
:10565000E3FFCDE906019DED060B53EC102B51EC59
:10566000100B01F081F941EC180B53EC182B01F0F1
:105670007BF941EC190B4E480621B0EE490AF0EED9
:10568000690A784400F0DBF953EC182B51EC100B4D
:1056900001F06AF941EC180B4648B0EE490AF0EE09
:1056A000690A0521784400F0CAF953EC192B51EC32
:1056B000100B01F059F941EC100B51EC180B53ECA5
:1056C000102B002C0EDA00F0F3FE9DED061B53ECC0
:1056D000112B01F049F99DED061B53EC112B01F044
:1056E00077FA35E000F0E4FE9DED061B53EC112B3C
:1056F00001F03AF941EC100B2F48784400EBC4005C
:1057000090ED001B51EC100B53EC112B01F038FB0A
:105710009DED061B53EC112B01F032FB41EC100BFD
:105720002648784400EBC40090ED001B51EC100BB0
:1057300053EC112B01F04CFA41EC100B002DA2BFE1
:10574000BDEC068B02B070BD51EC100B00F072FE88
:1057500041EC100B01E70000000010440000F07F56
:10576000182D4454FB21F93F182D4454FB21F9BF57
:105770000000DC3F0000203E0000F33F000000007E
:10578000000000000000F03F0000E63F00000000C5
:105790000000000000000040008003400000000006
:1057A000000000000000F83F000000000000F0BF13
:1057B000321D0000E81C0000721C00002A1C0000C2
:1057C00070B56B4E2DED040B2DED028B82B0DDF824
:1057D0001CC0DDE905235C422CF000411C4341EA7A
:1057E000D474049D22F00040B44205D86C422C438E
:1057F00040EAD474B4420BD99DED061B9DED040B19
:1058000002B0BDEC028B04B0BDE8704000F09DB961
:10581000ACF14054A4F17F641C430BD0022404EA91
:10582000AC7444EAD27405439FED538B9FED542B27
:1058300007D015E09DED040B51EC100B00F0A2F920
:1058400042E0002C11BF012C9DED040B02B0BDEC19
:10585000028B04BF04B070BD022C38D0032C3BD0A7
:105860000B439FED491B9FED4A0B0AD0B14218D163
:10587000B04209D121F0804120F08040079105908D
:105880000FE0002A15DA10E0434B7B44002C08BFE0
:1058900093ED000B0DD0012C10D0022C17D0032C4F
:1058A0001AD0B0421DD1002A03DAB0EE410AF0EE60
:1058B000610A02B0BDEC028B04B070BD93ED000B29
:1058C00051EC100B00F0B6FD41EC100BF1E7B0EE1F
:1058D000480AF0EE680AECE7B0EE420AF0EE620A1F
:1058E000E7E7401A00153C28C8BF8DED000B19DC16
:1058F000BCF1000FBEBF10F13C0F9FED290B8DEDE9
:10590000000B0FDB9DED060B53EC102B9DED040BF4
:1059100051EC100B00F080FE00F03CF900F032F981
:10592000CDE90001002C08BF9DED000BC1D0012C7A
:1059300010D0022C9FED1C0B53EC102B9DED000B97
:1059400051EC100B0DD001F01BFA53EC182B01F0A9
:1059500017FAB9E7019880F0004001909DED000B27
:10596000A7E701F00DFA53EC182B01F031F9ABE782
:105970000000F07F00000000182D4454FB21094076
:10598000182D4454FB2109C0182D4454FB21F9BFA4
:10599000182D4454FB21F93F5A1B00000000000061
:1059A0000000000000000000075C143326A6A13CA4
:1059B0002DED020B019820F0004001909DED000BB1
:1059C00002B0704700B52DED048BB0EE409AF0EEBA
:1059D000609A83B051EC190B01F006F941EC180BF9
:1059E00018EE100A18EE901A8DED008B002818BFE3
:1059F0000120084320F00040C0F17F6000F1E0404A
:105A0000C00F14D019EE101A19EE900A8DED009BFC
:105A1000002918BF0121084320F00040C0F17F6039
:105A200000F1E040C00F04BF0120FAF78CFCB0EE9B
:105A3000480A03B0F0EE680ABDEC048B00BD70B5F7
:105A400004462DED028B4D1E00EBC500B0EE408AE2
:105A5000F0EE608A90ED000B35F0060017D053ECA5
:105A6000182B51EC100B00F07FFF41EC100B6D1E5A
:105A700004EBC50090ED001B51EC100B53EC112B07
:105A800000F016FD41EC100B35F00600E7D1022DB9
:105A900036D0042D1CD0062D1CBFBDEC028B70BD72
:105AA00053EC182B51EC100B00F05EFF94ED0A1B29
:105AB00053EC112B00F0FCFC53EC182B00F054FFBE
:105AC00094ED081B53EC112B00F0F2FC41EC100B91
:105AD00053EC182B51EC100B00F046FF94ED061B15
