:020000040800F2
:10000000F01A00206902000871020008730200085B
:10001000750200087702000879020008000000005D
:100020000000000000000000000000007B0200084B
:100030007D020008000000007F020008E144000883
:10004000830200088302000883020008830200087C
:10005000830200088302000883020008830200086C
:10006000830200088302000883020008830200085C
:10007000830200088302000883020008830200084C
:10008000830200088302000883020008830200083C
:100090003D0A00088302000883020008830200086A
:1000A000A54A0008830200088302000883020008B2
:1000B000830200088302000883020008830200080C
:1000C00083020008830200088302000883020008FC
:1000D00083020008294F0008954F00080D500008C2
:1000E00083020008830200088302000883020008DC
:1000F00083020008830200088302000883020008CC
:1001000083020008830200088302000883020008BB
:1001100083020008830200088302000883020008AB
:10012000830200088302000883020008830200089B
:10013000830200088302000883020008830200088B
:10014000350E0008830200088302000883020008BD
:100150008302000883020008830200086950000837
:10016000830200088302000883020008830200085B
:10017000830200088302000883020008830200084B
:10018000830200088302000800F002F800F05CF827
:100190000AA090E8000C82448344AAF10107DA45E2
:1001A00001D100F051F8AFF2090EBAE80F0013F0D8
:1001B000010F18BFFB1A43F00103184790720000AB
:1001C000B07200000A444FF0000C10F8013B13F02D
:1001D000070408BF10F8014B1D1108BF10F8015BA0
:1001E000641E05D010F8016B641E01F8016BF9D193
:1001F00013F0080F1EBF10F8014BAD1C0C1B09D1EA
:100200006D1E58BF01F801CBFAD505E014F8016B5B
:1002100001F8016B6D1EF9D59142D6D370470000ED
:100220000023002400250026103A28BF78C1FBD8FF
:10023000520728BF30C148BF0B6070471FB506F09A
:10024000D6FE1FBD10B510BD00F0BCF81146FFF77B
:10025000F5FF05F07FFD00F0DAF803B4FFF7F2FFD9
:1002600003BC00F0DDF8000009488047094800475A
:10027000FEE7FEE7FEE7FEE7FEE7FEE7FEE7FEE756
:10028000FEE7FEE704480549054A064B70470000B3
:10029000F147000889010008F0140020F01A00203E
:1002A000F0160020F0160020032A40F2308010F0F3
:1002B000030C00F0158011F8013BBCF1020F624401
:1002C00098BF11F801CB00F8013B38BF11F8013B92
:1002D000A2F1040298BF00F801CB38BF00F8013B3F
:1002E00011F0030300F03380083AC0F0088051F8A1
:1002F000043B083A51F804CBA0E80810F5E7121DBA
:100300005CBF51F8043B40F8043BAFF30080D207D8
:1003100024BF11F8013B11F801CB48BF11F8012BA4
:1003200024BF00F8013B00F801CB48BF00F8012BC7
:10033000704770477047704710B500F03BF8006891
:1003400010BD10B5044600F035F8046010BD10B5BE
:10035000203AC0F00B80B1E81850203AA0E81850BD
:10036000B1E81850A0E81850BFF4F5AF5FEA027C7E
:1003700024BFB1E81850A0E8185044BF18C918C0ED
:10038000BDE810405FEA827C24BF51F8043B40F88E
:10039000043B08BF7047D20728BF31F8023B48BF73
:1003A00011F8012B28BF20F8023B48BF00F8012BB1
:1003B00070470000004870478C14002000487047C8
:1003C0008C1400207546FFF7F9FFAE46050069461C
:1003D000534620F00700854618B020B5FFF752FFBE
:1003E000BDE820404FF000064FF000074FF0000836
:1003F0004FF0000B21F00701AC46ACE8C009ACE8B7
:10040000C009ACE8C009ACE8C0098D46704710B51A
:100410000446AFF300802046BDE81040FFF71DBF43
:1004200001491820ABBEFEE726000200704700001D
:1004300025490978012905D180ED010A0021224AC8
:10044000117003E0D0ED000AC0ED010A80ED000A52
:10045000D0ED010A70EE600AC0ED020AD0ED050A87
:10046000F1EE600AB0EE001AC0EE811AD0ED020A79
:10047000F4EEE01AF1EE10FA08DDD0ED020A90ED8C
:10048000051A70EE810AC0ED020A14E090ED051A1B
:10049000F0EE001AC1EE210A90ED021AF4EEC10A44
:1004A000F1EE10FA07D2D0ED020A90ED051A70EEC7
:1004B000C10AC0ED020AD0ED060A90ED021A70EEF4
:1004C000810AC0ED060A7047DC05002070B50546BC
:1004D0000C4600260DB1022C00D870BD611EFF2213
:1004E000284601F007FF0646601E2E5400BFF4E7C1
:1004F00010B54D48007970B14FF42F704B4908602A
:100500004B48007838B14B48D0F898004A49086009
:100510000020474908704748D0F8980046490968C4
:10052000401AB0F5FA6F12D940480068B0F52F7F35
:100530000DD14248007850B13C480068B0F52F7F9B
:1005400002D101203E49087000203C4908703C4817
:100550000078D8B33B4890ED010AD0ED000AF1EEE7
:10056000600A30EE600AB5EEC00AF1EE10FA08DD5E
:1005700090ED010AD0ED000AF1EE600A30EE600A5B
:100580000AE0304890ED010AD0ED000AF1EE600A71
:1005900030EE600AB1EE400AF7EE080AB4EEE00A67
:1005A000F1EE10FA27D2284890ED010AD0ED000AAA
:1005B00030EE600AB5EEC00AF1EE10FA07DD90EDFC
:1005C000010AD0ED000A30EE600A09E016E01E488C
:1005D00090ED010AD0ED000A30EE600AB1EE400A5B
:1005E000F0EE040AB4EEE00AF1EE10FA03D20120B4
:1005F0001649087002E00020144908700B48006892
:10060000B0F52F7F0FD10E48007860B10F48007809
:1006100048B10848B0F84A00962804DB00210C488D
:10062000007801F09FFD10BD2C1300204404002031
:10063000580400203812002024060020590400200D
:100640005C040020B40D0020500300204D04002065
:100650005004002010B504F023FBA72140F2E7303E
:1006600004F03AFB00F020F800F008FA04F08CF8EF
:1006700005F046FB05F01AFC4FF4E13005F09AFC5A
:100680004FF4E12005F04EFD4FF4E13005F06AFB38
:100690004FF4E12005F0F0FD01F0C8FB02F0E8FCAA
:1006A00002F046FD10BD000000B589B00121022016
:1006B00002F00AFF0121480602F016FF4FF44070D5
:1006C000009002208DF804008DF8050000208DF8C0
:1006D000060001208DF807006946274801F062FDF9
:1006E00009220821244801F0A5FD092211462248CB
:1006F00001F0A0FD00208DF81E0001208DF81F00E4
:100700008DF8200000208DF821008DF822000120B6
:100710008DF8230000208DF81A008DF81B000820AA
:100720008DF81C0003208DF81D00ADF8180006A9F7
:10073000124800F010FD00208DF812008DF8130013
:1007400001208DF814000020ADF80800ADF80A0073
:10075000ADF80C00ADF80E00ADF8100001208DF8DA
:10076000150002A800F0DAFB01220221034800F084
:10077000E9FC09B000BD0000000402400064004034
:1007800010B52DED068B9E480068B0F5017F7CD03A
:1007900007DCA0F20120E0B3012877D0022876D14F
:1007A000A4E0A0F20520002872D0A0F2FB100028DF
:1007B000F5D19348007B9249C97A40EA012000EEC6
:1007C000100AB8EEC00ADFED8F0A80EE201A8E48BC
:1007D00080ED001A8A48817B407B41EA002000EED0
:1007E000100AB8EEC00ADFED870A80EE201A8648AC
:1007F00080ED011A8248017CC07B41EA002000EEB6
:10080000100AB8EEC00ADFED7F0A80EE201A7E489B
:1008100000E012E080ED021A7948817C407C41EAD8
:10082000002000EE100AB8EEC00ADFED760A80EE76
:10083000201A754880ED031ADEE071480B3001F094
:1008400024FD00EE100AB8EEC00AB0EE402A6F4850
:10085000FFF7EEFD6D4890ED060A10EE101A0846FF
:1008600006F054FB41EC1A0B9FED690B53EC102B77
:1008700005F0AEFE41EC190B9FED670B53EC102B0E
:1008800006F04EF841EC180B03E042E01BE0B2E04A
:1008900082E005F0B7FD6249486059480B3001F02D
:1008A000FAFC092190FBF1F000EE100AB8EEC00A44
:1008B0005C4880ED010A5C48B0F87000401C5A4961
:1008C000A1F8700098E04E480B3001F0E4FC00EE17
:1008D000100AB8EEC00A554880ED120A5248B0F826
:1008E0008400401C5049A1F8840085E044480B3046
:1008F00001F0D1FC00EE100AB8EEC00A4B4880EDC2
:10090000230A4948B0F88800401C4749A1F88800EC
:1009100072E03B480B3001F0B8FC00EE100AB8EE74
:10092000C00AB0EE402A39485430FFF781FD3748FD
:1009300090ED1B0A10EE101A084606F0E7FA41EC9B
:100940001A0B9FED330B53EC102B05F041FE41ECDD
:10095000190B9FED310B53EC102B05F0E1FF41EC2F
:10096000180B05F04FFD2E49C1F8D00024480B307C
:1009700001F091FC092190FBF1F000EE100AB8EEB5
:10098000C00A284880ED340A2748B0F87C00401C93
:100990002549A1F87C002FE019480B3001F075FCC7
:1009A00000EE100AB8EEC00AB0EE402A2048FFF769
:1009B0003FFD1F4890ED060AB1EE400A1D4880ED4C
:1009C000010A0F480B3001F066FC00EE100AB8EE89
:1009D000C00A1748D0ED040A80EE201AB1EE410A91
:1009E000154880ED010A1048B0F89000401C0E49EF
:1009F000A1F8900000BF00BF00BFBDEC068B10BD8A
:100A0000C00600200000C84220120020B0110020C3
:100A1000000000000000C040000000000000444052
:100A2000900F0020A010002038120020800E00201F
:100A30007804002094040020D804002010B502217E
:100A40000B4800F0EFFA88B10221094800F012FAD1
:100A5000084A0021064800F008FCFFF791FE06480E
:100A6000B0F86400401C0449A1F8640010BD000007
:100A700000640040C00600203812002000B589B094
:100A80000121022002F020FD0121480602F02CFD88
:100A90000121880602F028FD6020009002208DF8D8
:100AA00004008DF8050000208DF8060001208DF867
:100AB00007006946274801F075FB092205212548F2
:100AC00001F0B8FB09220621224801F0B3FB002007
:100AD0008DF81E0001208DF81F008DF820000020E9
:100AE0008DF821008DF8220001208DF823000020D0
:100AF0008DF81B0008208DF81C0003208DF81D00C8
:100B0000ADF8180006A9144800F025FB0E208DF85A
:100B1000120000208DF8130001208DF81400002031
:100B2000ADF80800ADF80A00ADF80C00ADF80E0005
:100B3000ADF8100001208DF8150002A800F0EEF9C4
:100B40000E208DF8120001220221034800F0FAFA6B
:100B500009B000BD000402400068004010B52DED52
:100B6000068BA2480068A0F2012005287DD2DFE8AC
:100B700000F08A9DDFFD03009D48008A401C9C49CF
:100B800008829C480078E8B398480B3001F07DFB60
:100B900000EE100AB8EEC00A974880ED000A90ED0A
:100BA000000A80ED060AD0ED050AB0EE001A80EECC
:100BB000810AD0ED060A9FED911A70EEC10AB4EEDB
:100BC000E00AF1EE10FA08D290ED060AD0ED050A1F
:100BD00030EE600A80ED060A1DE0874890ED050AB8
:100BE000F1EE400AB0EE001A80EE810AD0ED060A5E
:100BF0009FED821A70EEC10AB4EEE00AF1EE10FA2F
:100C000009DD00E00BE090ED060AD0ED050A30EEBC
:100C1000200A80ED060A0020764908700CE073482F
:100C20000B3001F032FB00EE100AB8EEC00AB0EE55
:100C3000402A7148FFF7FCFB6F4890ED060ADFED94
:100C40006F0A30EE600ADFED6E0A20EE200ADFED5B
:100C50006D0A80EE201A6C4880ED001A63480B3054
:100C600001F019FB00EE100A00E0BAE0B8EEC00A8D
:100C7000664880ED000A6648B0F89400401C64495C
:100C8000A1F89400AEE059480B3001F004FB00EEEF
:100C9000100AB8EEC00A5F4880ED010A5C48B0F85F
:100CA0008000401C5A49A1F880009BE04F480B305F
:100CB00001F0EBFA00EE100AB8EEC00AB0EE402ADE
:100CC0005548FFF7B5FB54481C3890ED0D0A10EE5F
:100CD000101A084606F01AF941EC1A0B9FED4F0B5B
:100CE00053EC102B05F074FC41EC190B9FED4D0BF0
:100CF00053EC102B05F014FE41EC180B05F082FBB1
:100D00004A49886439480B3001F0C5FA092190FB43
:100D1000F1F000EE100AB8EEC00A454880ED120A64
:100D20003B48B0F87400401C3949A1F8740059E000
:100D30002E480B3001F0A9FA00EE100AB8EEC00AF6
:100D4000B0EE402A34481C30FFF772FB32481C38A2
:100D500090ED140A10EE101A084606F0D7F841EC90
:100D60001A0B9FED2E0B53EC102B00E026E005F044
:100D70002FFC41EC190B9FED2B0B53EC102B05F0C6
:100D8000CFFD41EC180B05F03DFB2849C1F88C0064
:100D900016480B3001F07FFA092190FBF1F000EECC
:100DA000100AB8EEC00A224880ED230A1848B0F8AD
:100DB0007800401C1649A1F8780013E00B480B306E
:100DC00001F069FA00EE100AB8EEC00A114880ED91
:100DD000340A0F48B0F88C00401C0D49A1F88C0073
:100DE00000E000BF00BFBDEC068B10BDD4060020A4
:100DF000D8120020DD050020C40200200080AA4493
:100E00000000B44300000046140400201804002031
:100E100038120020800E0020CC11002000000000BD
:100E20000000C0400000000000004440900F00207F
:100E3000A010002010B502210B4800F0F3F888B193
:100E40000221094800F016F8084A0021064800F07F
:100E50000CFAFFF783FE0648B0F86800401C04490E
:100E6000A1F8680010BD000000680040D406002012
:100E700038120020B1F5007F3AD00FDC202928D0AD
:100E800006DC01291CD004291DD0082940D11DE011
:100E9000402921D0B1F5807F3AD126E0B1F5004F4D
:100EA00031D006DCB1F5806F25D0B1F5006F2FD1C0
:100EB00024E0B1F5803F12D0B1F5003F28D111E018
:100EC000154A826025E00822C26022E01022C2603A
:100ED0001FE0082202611CE01022026119E00822D2
:100EE000426016E01022426013E00422426010E0EB
:100EF000042242600DE0042242600AE00022826186
:100F00000422426005E0002282610422426000E087
:100F100000BF00BF704700000101010010B50021B3
:100F2000837A012202FA03F13D4A126842F001027B
:100F30003B4B1A603A4A1C3212688A43384B1C33C6
:100F40001A60027BCAB9364A0C3212688A43344BA3
:100F50000C331A604288C38842EA0343304A403265
:100F6000847A42F834300288838842EA03432C4A68
:100F70004032847A02EBC4025360027B012A19D109
:100F8000274A0C3212680A43254B0C331A604288F8
:100F9000038842EA0343224A4032847A42F83430DA
:100FA000C288838842EA03431D4A4032847A02EBB6
:100FB000C4025360C27A3AB9194A121D12688A43B0
:100FC000174B1B1D1A6006E0154A121D12680A43D2
:100FD000134B1B1D1A60028932B9114A1432126870
:100FE0008A430F4B14331A600289012A06D10C4A36
:100FF000143212680A430A4B14331A60427B012AE6
:1010000006D1074A1C3212680A43054B1C331A608A
:10101000034A126822F00102014B1A6010BD000061
:101020000066004070B504460D4600266069284001
:10103000002871D0B5F5807F5CD010DC082D35D04C
:1010400006DC012D20D0022D24D0042D72D127E002
:10105000102D31D0202D35D0402D6BD138E0B5F595
:10106000004F60D009DCB5F5007F49D0B5F5806F41
:101070004CD0B5F5006F5DD14FE0B5F5803F2DD078
:10108000B5F5003F56D12FE0A0682D4900F004FDD2
:10109000064651E0E068032100F0FEFC06464BE006
:1010A000E068082100F0F8FC064645E0E068102101
:1010B00000F0F2FC06463FE02069032100F0ECFC62
:1010C000064639E02069082100F0E6FC064633E0D8
:1010D0002069102100F0E0FC06462DE06068082140
:1010E00000F0DAFC064627E06068102100F0D4FC2E
:1010F000064621E0A069012100F0CEFC06461BE077
:10110000A069022100F0C8FC064615E0A069042190
:1011100000F0C2FC06460FE00FE0A069702100F06D
:10112000BBFC064608E06068042100F0B5FC0646FA
:1011300002E0FFE7002600BF00E00026304670BD59
:10114000010101001AB143690B43436102E04369A5
:101150008B434361704730B502460020002314687A
:1011600024F002041460146844F00104146000E0E8
:101170005B1C546804F001041CB94FF6FF74A342D1
:10118000F6D1546804F001040CB900206CE08C79AD
:10119000012C04D1146844F08004146003E0146846
:1011A00024F080041460CC79012C04D1146844F03C
:1011B0004004146003E0146824F0400414600C7AC6
:1011C000012C04D1146844F02004146003E0146876
:1011D00024F0200414604C7A012C04D1146844F0EB
:1011E0001004146003E0146824F0100414608C7A76
:1011F000012C04D1146844F00804146003E014685E
:1012000024F008041460CC7A012C04D1146844F052
:101210000404146003E0146824F0040414608C785F
:10122000A407CD7844EA05640D7944EA05444D7974
:1012300044EA05540D886D1E2C43D461146824F0D3
:1012400001041460002300E05B1C546804F00104F6
:101250001CB14FF6FF74A342F6D1546804F00104A8
:101260000CB1002000E0012030BD10B500F5D873AE
:1012700003EB01131B6803F004031372137A53B9D1
:1012800000F5D87303EB01131B6840F2FF7404EA06
:101290005353136009E000F5D87303EB01131B6887
:1012A0006FF0604404EAD303536000F5D87303EB96
:1012B00001131B6803F00203537200F5D87303EBAC
:1012C00001135B6803F00F03937200F5D87303EB0F
:1012D00001135B681B0AD37400F5D87303EB011389
:1012E0009B68D37200F5D87303EB01139B681C0A4B
:1012F000147300F5D87303EB01139B681C0C547333
:1013000000F5D87303EB01139B681B0E937300F574
:10131000D87303EB0113DB68D37300F5D87303EBC9
:101320000113DB681C0A147400F5D87303EB011376
:10133000DB681C0C547400F5D87303EB0113DB68F5
:101340001B0E937421B9C36843F02003C36003E00C
:10135000036943F02003036110BD2DE9F04385B01C
:1013600081460E4614461D46DDE90C7800208DF8B6
:101370000800009608208DF80A0000208DF809006A
:10138000200A8DF80B00E1B28DF80C10290A8DF8B7
:101390000D10E9B28DF80E10390A8DF80F10F9B260
:1013A0008DF810104FEA18218DF8111008F0FF0188
:1013B0008DF812106946484600F003F805B0BDE804
:1013C000F08310B502460020936803F08063B3F108
:1013D000806F00D110E0936803F00063B3F1006FF9
:1013E00001D1012008E0936803F08053B3F1805FDE
:1013F00001D1022000E00420042874D002F5C0735B
:1014000003EB00131B6803F0010402F5C07303EB48
:1014100000131C600B7A7BB94B7A0C8843EA445367
:1014200002F5C07404EB00142468234302F5C07471
:1014300004EB0014236010E00B7A4C6843EAC40309
:101440004C7A234302F5C07404EB00142468234350
:1014500002F5C07404EB001423608B7A03F00F03D1
:101460008B7202F5C07303EB00135B6823F00F046B
:1014700002F5C07303EB00135C6002F5C07303EB6D
:1014800000135B688C7A234302F5C07404EB0014EC
:1014900063608B7B1C064B7B44EA03440B7B44EA72
:1014A0000323CC7A234302F5C07404EB0014A36039
:1014B0008B7C1C064B7C44EA03440B7C44EA0323EC
:1014C000CC7B234302F5C07404EB0014E36002F507
:1014D000C07303EB00131B6843F0010402F5C073F3
:1014E00003EB00131C6010BD10B52DED068B0446F8
:1014F00094ED000AD4ED010A30EE600A84ED080A8A
:1015000094ED0A0AD4ED080A30EE200A84ED0A0AA6
:10151000D4ED0E1AB0EE611AD4ED0E1AF1EE611A86
:10152000F0EE610AD4ED0A1AB0EE610A00F0BDFADD
:1015300084ED0A0A94ED030AD4ED0A0A20EE200A8B
:1015400084ED060AD4ED021A94ED082A61EE821A9F
:10155000B0EE610AD4ED0D1AB0EE611AD4ED0D1A99
:10156000F1EE611AF0EE610A00F09FFA84ED050ACF
:10157000D4ED081A94ED092A71EEC21A94ED042AEA
:1015800061EE821AB0EE610AD4ED0F1AB0EE611A64
:10159000D4ED0F1AF1EE611AF0EE610A00F085FA4F
:1015A00084ED070A94ED100A10EE101A084605F0B3
:1015B000ADFC41EC180B94ED080A10EE101A084629
:1015C00005F0A4FC41EC1A0BB0EE4A0AF0EE6A0AF0
:1015D00004F09AFAB0EE409AF0EE609A53EC182BB1
:1015E00051EC190B05F060F903D29FED140A84ED5C
:1015F0000A0A94ED050AD4ED060A30EE200AD4ED6D
:10160000070A30EE200A84ED0B0A94ED080A84EDF7
:10161000090AD4ED0C1AB0EE611AD4ED0C1AF1EEF1
:10162000611AF0EE610AD4ED0B1AB0EE610A00F017
:101630003CFA84ED0B0ABDEC068B10BD00000000E7
:1016400010B52DED068B044694ED000AD4ED010A89
:1016500030EE600A84ED080A94ED100A10EE101ABC
:10166000084605F053FC41EC180B94ED080A10EE07
:10167000101A084605F04AFC41EC1A0BB0EE4A0A73
:10168000F0EE6A0A04F040FAB0EE409AF0EE609A8A
:1016900053EC182B51EC190B05F006F907D294ED19
:1016A0000A0AD4ED080A30EE200A84ED0A0AD4EDC5
:1016B0000E1AB0EE611AD4ED0E1AF1EE611AF0EEC8
:1016C000610AD4ED0A1AB0EE610A00F0EEF984ED79
:1016D0000A0A94ED030AD4ED0A0A20EE200A84EDEA
:1016E000060AD4ED021A94ED082A61EE821AB0EED1
:1016F000610AD4ED0D1AB0EE611AD4ED0D1AF1EEB7
:10170000611AF0EE610A00F0D0F984ED050AD4ED1B
:10171000081A94ED092A71EEC21A94ED042A61EEBA
:10172000821AB0EE610AD4ED0F1AB0EE611AD4ED50
:101730000F1AF1EE611AF0EE610A00F0B6F984EDCD
:10174000070A94ED050AD4ED060A30EE200AD4ED1E
:10175000070A30EE200A84ED0B0A94ED080A84EDA6
:10176000090AD4ED0C1AB0EE611AD4ED0C1AF1EEA0
:10177000611AF0EE610AD4ED0B1AB0EE610A00F0C6
:1017800094F984ED0B0ABDEC068B10BD30B52DED40
:10179000108B83B004469FED7B0AB0EE40FA94EDC7
:1017A000000AD4ED060A30EE600A84ED020A94EDD8
:1017B000030AD4ED040A20EE200AB0EE408A94ED2C
:1017C000040A20EE080A10EE105A94ED020AD4ED35
:1017D000040A94ED011A00EE810AF0EE408A18EE38
:1017E000900A05F093FB41EC1E0BB0EE4E0AF0EEB2
:1017F0006E0A04F089F9B0EE40DAF0EE60DA94EDAA
:10180000030AF2EE000A20EE200A10EE101A084633
:1018100005F07CFB53EC1D2BCDE900019DED000B89
:1018200051EC100B05F07CF841EC1B0B28EE080A7C
:1018300010EE101A084605F069FB41EC1C0B53EC46
:101840001B2B04F011FE41EC1A0BB0EE4A0AF0EE2D
:101850006A0A04F063F9B0EE409AF0EE609A51EC37
:10186000190B04F0CFFD0290284605F04FFB41EC28
:10187000190B18EE900A05F049FB41EC1B0BB0EE7A
:101880004B0AF0EE6B0A04F03FF9B0EE40AAF0EE1E
:1018900060AA53EC192B51EC1A0B05F03FF918D242
:1018A000B0EE680A02F024FC00EE100AF8EEC00A5E
:1018B0009DED020A30EE480A60EE800AB0EE001A92
:1018C00080EE810AD4ED010A30EE200AB0EE40FA33
:1018D00009E0D4ED040A88EEA00AD4ED010A30EE46
:1018E000200AB0EE40FA18EE100A05F00FFB41ECAA
:1018F000190B1FEE100A05F009FB41EC1B0BB0EEB3
:101900004B0AF0EE6B0A04F0FFF8B0EE40AAF0EEDE
:1019100060AA53EC192B51EC1A0B05F0FFF810D20A
:10192000B0EE4F0A02F0E4FB00EE100AB8EEC00A77
:10193000D4ED030ABFEE001A60EE810A60EE20FAD1
:1019400009E094ED030AFFEE000A20EE200A20EEE3
:101950000F0AC0EE08FA94ED000AD4ED050A94EDE2
:10196000011A00EE810A84ED000A94ED010AD4ED1B
:10197000050A00EEAF0A84ED010A03B0BDEC108B3E
:1019800030BD0000000000001CB53B480078052871
:1019900021D2DFE800F0030A11181F00002002F036
:1019A00097FA002002F0C0FC16E0032002F090FA43
:1019B000002002F0B9FC0FE0022002F089FA0220B8
:1019C00002F0B2FC08E0012002F082FA012002F0ED
:1019D000ABFC01E000E000BF00BF284890ED3E0AEC
:1019E000BDEEC00A10EE100A00B2254991ED2D0A95
:1019F000BDEEC00A10EE101A09B2CDE90010204861
:101A000090ED1C0ABDEEC00A10EE100A03B21B488E
:101A100090ED0B0ABDEEC00A10EE100A02B24FF4B0
:101A200000711848FFF799FC154890ED3E0ABDEE8D
:101A3000C00A10EE100A00B2104991ED2D0ABDEE59
:101A4000C00A10EE101A09B2CDE900100B4890ED53
:101A50001C0ABDEEC00A10EE100A03B2084890ED51
:101A60000B0ABDEEC00A10EE100A02B24FF400716C
:101A70000548FFF772FC1CBD22050020A0100020C5
:101A8000800E0020006400400068004010B5FFF7A1
:101A90007BFF02F08FFA10BD0246002002EA01032C
:101AA0000BB1012000E000207047F0EE401AF4EE88
:101AB000E01AF1EE10FA02D2B0EE600A09E0F4EE9C
:101AC000C11AF1EE10FA02DDB0EE410A01E0B0EE0B
:101AD000610A70470246094B9A4201D2084801E068
:101AE0000648103801F000531BB1064B0B40C36091
:101AF00002E0044B0B40836070470000106402401A
:101B0000006002407D0F7D0F21B1026842F00102AA
:101B1000026003E0026822F00102026070470000E8
:101B2000016821F0010101600021016041608160D4
:101B3000C1600161212141614A49884204D13D21AE
:101B4000484A103A91608CE046491831884205D1E4
:101B50004FF47461434A103A916082E04149303158
:101B6000884205D14FF474113E4A103A916078E0F2
:101B70003C494831884205D14FF07461394A103AE6
:101B800091606EE037496031884204D13649354A68
:101B9000103AD16065E033497831884204D1334945
:101BA000304A103AD1605CE02E499031884204D12D
:101BB0002F492C4A103AD16053E02A49A831884273
:101BC00005D14FF03D51274A103AD16049E02949EB
:101BD000884204D13D21274A083A116041E0254955
:101BE0001831884205D14FF47461224A083A1160D5
:101BF00037E020493031884205D14FF474111D4A35
:101C0000083A11602DE01B494831884205D14FF058
:101C10007461184A083A116023E01649603188421D
:101C200004D11149134A121F11601AE01149783189
:101C3000884204D10D490F4A121F116011E00D496D
:101C40009031884204D10A490A4A121F116008E003
:101C50000849A831884204D14FF03D51054A121F6E
:101C600011607047106002403D000020400F0020CE
:101C700000003D2010640240014600200A6802F086
:101C800001020AB1012000E00020704701464868C7
:101C900080B2704710B500220268134B1A40CC681E
:101CA0000B6823434C6923438C692343CC6923434A
:101CB0000C6A23434C6A23438C6A23434C6B2343B3
:101CC0008C6B23431A430260426922F00702D1E978
:101CD0000B3423431A4342610B6943604B688360B2
:101CE0008B68C36010BD00003F801CF010B5254814
:101CF0000078072803D109202349887006E021488D
:101D000000786B2802D10A201F49887004201E49E0
:101D1000C8701E4890ED010A1D4880ED000A084673
:101D200080ED010A1B4890ED010A1B4880ED000A76
:101D3000084680ED020A194890ED000A184880ED27
:101D4000000A084680ED030A00F0ECFD154880ED1E
:101D5000000A0D4880ED040A13491448FFF7BAFE43
:101D600000211248FFF7D0FE074810490C310860E7
:101D700016200E49091D086001210C48FFF7C4FE1A
:101D800010BD0000B001002038020020B40D00207A
:101D900098020020500300209C020020B401002083
:101DA000A0020020A402002000802020A0640240A5
:101DB000F0EE400A1B4A12788A4203DD0022194BDA
:101DC0001A7017E0174A127800EB820292ED000AAF
:101DD000154A92ED001A31EE400A82ED000A114ACE
:101DE000127800EB8202C2ED000A0E4A1278521CF1
:101DF0000C4B1A700B4A1278521E00EB820292EDC5
:101E0000000A094A92ED001A30EE010A82ED000A3A
:101E100092ED001A00EE101AF8EE401A81EE210A37
:101E200070470000E4050020E005002000200AE0E3
:101E30009FED060AC0EBC001054A02EB810181ED6E
:101E4000050A411CC8B20428F2DB704700000046B6
:101E5000B011002090ED001AB4EEC01AF1EE10FAA5
:101E600001D2002109E090ED001AB4EEC01AF1EEA3
:101E700010FA01DD012100E00221C9B990ED001A3C
:101E8000B4EEC01AF1EE10FA02DB80ED000A2AE08F
:101E900090ED001A31EE201A80ED001A90ED001A34
:101EA000B4EEC01AF1EE10FA1DDB80ED000A1AE064
:101EB000012918D190ED001AB4EEC01AF1EE10FA13
:101EC00002D880ED000A0EE090ED001A31EE601AA3
:101ED00080ED001A90ED001AB4EEC01AF1EE10FA7F
:101EE00001D880ED000A704765480068B0F5E16FE1
:101EF0006CD00CDCB0F5B47F14D0B0F5347F26D0B4
:101F0000B0F5876F38D0B0F5B46F74D149E0B0F553
:101F1000076F73D0A0F6D81000286ED0B0F5B47F4C
:101F2000F3D195E0574890ED1E0A574880ED000A1E
:101F3000544890ED000A554880ED000A01205449AC
:101F40000870544890F898005349087096E04D483E
:101F500090ED1F0A4C4880ED000A4A4890ED010AB6
:101F60004A4880ED000A022049490870494890F823
:101F700098004949087081E0424890ED200A4248A3
:101F800080ED000A3F4890ED020A404880ED000ACB
:101F900003203F4908703F4890F898003E49087078
:101FA0006CE0384890ED210A374880ED000A35484A
:101FB00090ED030A354880ED000A0420344908708A
:101FC000344890F898003449087057E02D4890ED57
:101FD000220A2D4880ED000A2A4890ED040A2B4879
:101FE00080ED000A05202A4908702A4890F89800D8
:101FF0002949087042E040E000E014E0214890EDFB
:10200000230A214880ED000A1E4890ED050A1F486A
:1020100080ED000A06201E4908701E4890F89800BE
:102020001D4908702AE0174890ED240A164880EDF3
:10203000000A144890ED060A144880ED000A0720B3
:1020400013490870134890F898001349087015E078
:102050000C4890ED250A0C4880ED000A094890EDE7
:10206000070A0A4880ED000A082009490870094853
:1020700090F898000849087000E000BF00BF704762
:102080007C0600208C13002010040020B40D0020DA
:1020900077060020381200207806002010B52DEDBC
:1020A000048B002448E0C4EBC400264A02EB800005
:1020B00090ED000A244800EB8400D0ED000A30EED9
:1020C000600A10EE101A084604F020FF41EC190BCC
:1020D000B0EE490AF0EE690A03F016FDB0EE408A50
:1020E000F0EE608A9FED190B53EC102B51EC180B9E
:1020F00004F0DAFB09D89FED170A04EB0410164927
:1021000001EB800080ED0C0A15E09FED140A04EB52
:102110000410114901EB800080ED0C0A04EB04105F
:102120000F4901EB800090ED010A04EB041001EB74
:10213000800080ED000A641C042CB4D3BDEC048B39
:1021400010BD0000B011002030060020000000008B
:102150000000794000C05A45A01000200000000097
:10216000900F002010B5B1B94FF47A7292FBF0F2E3
:10217000094BD3F89830094C24681B1B9A420AD2A9
:10218000074A1288521C12B2054B1A80024AD2F832
:102190009820024B1A6010BD38120020280600203B
:1021A00048040020F0B50A4600210023002400BFA7
:1021B0003DE0012505FA01F3156805EA03049C4298
:1021C00034D105684F000326BE40B543056015793C
:1021D0004E00B5400668354305601579012D02D0E3
:1021E0001579022D16D185684F000326BE40B543F0
:1021F000856055794E00B5408668354385604568F1
:1022000001268E40B5434560456896798E40B6B24A
:1022100035434560C5684F000326BE40B543C560E1
:10222000D5794E00B540C6683543C560491C1029B4
:10223000BFD3F0BDF0B5002300244D07ED0E02FA28
:1022400005F3CE1000F1200555F826504E07F70E85
:102250000F26BE40B543CF1000F1200646F82750A8
:10226000CE1000F1200555F8265045EA0304CE10A3
:1022700000F1200545F82640F0BD418370470183F9
:10228000704742694A404261704701464A780B787C
:1022900042EA0320704710B501464FF6FF728B7873
:1022A00003F080033BB113048C7843EA0423CC7819
:1022B00043EA040003E0CB788C7843EA042010BDA5
:1022C00030B5034613B94FF6FF7030BD09E013F87F
:1022D000014B82EA0400C0B2054D35F8100080EAD7
:1022E0002222081EA1F10101F1D11046EDE7000004
:1022F0000471000830B5034605E013F8010B80EACD
:1023000002040448025D081EA1F10101F5D1104646
:1023100030BD00000370000800B52048007818B9EF
:1023200000201F49C87105E01C480078012801D130
:102330001B49C8711B480078401CC0B2194908707D
:102340001949097888420FD118480068B0F5346FF0
:1023500002D1002015490860002012490870134876
:102360000068401C114908600D48C07850B10C4805
:10237000C07938B90E480068401C0D490860FFF765
:10238000B3FD0AE00648C07838B10548C07920B1ED
:1023900000200749086000F00DF800BD840D002002
:1023A0002C13002076060020750600207C060020F5
:1023B000800600202E48D0F898002E490978401A4F
:1023C000B0F5B47F49D22C4890ED010A2B48D0EDEE
:1023D000000A30EEC00AB5EEC00AF1EE10FA08DDD0
:1023E000254890ED010A2548D0ED000A30EEC00ADC
:1023F00009E0214890ED010A2048D0ED000A30EEB6
:10240000C00AB1EE400AF6EE000AB4EEE00AF1EEC0
:1024100010FA2CDC1A4890ED000AD0ED010A30EEDB
:10242000600AB5EEC00AF1EE10FA06DD90ED000A82
:10243000D0ED010A30EE600A08E0114890ED000A84
:10244000D0ED010A30EE600AB1EE400AF6EE000A65
:10245000B4EEE00AF1EE10FA09DC0A48D0F8010007
:10246000074908600748D0F805000449086070472C
:1024700038120020780600205003002010040020AD
:10248000B40D0020840D00201CB53148C08FB0F57C
:10249000617F39DB2E48C08FB0F57A7F34DC2D4860
:1024A000007858B99FED2C0A2C4880ED0C0A2C4876
:1024B00090ED010A2B4880ED000A35E025480078B0
:1024C00001280AD1F2EE040A9FED270A2348303092
:1024D000FFF7C0FC00F04CF826E01E480078022808
:1024E00007D01C480078032803D01A480078092830
:1024F0001AD1F2EE040A9FED1C0A18483030FFF79B
:10250000A9FCFFF709FF0FE01148C08FB0F5617F0C
:102510000ADA9FED110A114880ED0C0A104890ED7F
:10252000010A104880ED000A03F032F80020009004
:1025300001900A4890ED0B0ABDEEC00A10EE100A99
:1025400002B2002340F2FF110848FEF706FF1CBD4F
:102550003812002022050020000000009403002013
:10256000500300201004002000C0DA46006800403C
:1025700010B52DED088B01206B4908706B48008861
:10258000A0F58060002804DD68480088A0F5806020
:1025900003E066480088C0F58060142803DA4FF431
:1025A00080606249088061484088A0F5806000280A
:1025B00004DD5E484088A0F5806003E05B48408809
:1025C000C0F58060142803DA4FF4806057494880D2
:1025D00056484088A0F58060E8B35548C078012887
:1025E00041D151480078B8B150484088A0F580608A
:1025F00000EE100AF8EEC00A9FED4E1A80EE810A36
:10260000B3EE091AC0EE010A4B4890ED000A30EE15
:10261000600A80ED000A16E044484088A0F580601A
:1026200000EE100AF8EEC00A9FED421A80EE810A11
:10263000F2EE080A80EE201A3F4890ED000A30EED4
:10264000410A80ED000A3C48D0ED000AB0EE600A75
:10265000B3EE0E1A00E006E0FBEE0E0AFFF725FAD5
:10266000354880ED000A31480088A0F5806088B3C5
:102670002F48C078012853D12B48007858B32B48F5
:102680000088A0F5806000EE100AB8EEC00ADFED09
:10269000290A80EE201A11EE104A204604F036FC7A
:1026A00041EC1B0B9FED250B53EC102B04F038F97C
:1026B00041EC190B2348006804F028FC41EC1A0B8C
:1026C00053EC192B03F0D0FE41EC180B03F09AFEEB
:1026D0001C49086024E015480088A0F5806000EEE1
:1026E000100AB8EEC00ADFED130A80EE201A9FED43
:1026F000160A21EE000ADFED150A60EE200A9FEDB2
:10270000141A80EE810A9FED131AC0EE010A0D48DB
:1027100090ED000AB7EE081A00EE810A80ED000A7B
:10272000BDEC088B10BD000084060020860C002044
:102730002C13002000002544B40D00209A9999998B
:102740009999A93F1004002000806D450000B44312
:10275000000000460000AF4410B52C480078552812
:1027600052D12A48407800284ED11821274802F03B
:10277000A1FEB8B3182225492548FDF795FD244848
:10278000D0F8020000EE100AB1EE400A214880EDB8
:10279000000A90ED000A2048FDF74AFE1E4890ED21
:1027A000060A1E4880ED010A1948D0F80E001C499F
:1027B00048601748D0F812001A4908601448807D14
:1027C00019490870194890ED000ADFED190AB4EEB6
:1027D000E00AF1EE10FA06D20D48D0F806001549CD
:1027E00008600AE010E00A48D0F8060000EE100A7F
:1027F000B1EE400A0F4880ED000A0F48B0F85800CB
:10280000401C0D49A1F8580010BD0000AE0C00207E
:10281000020200201C040020D803002050030020E6
:10282000B40D0020280400204C05002024040020C2
:102830000000B442200400203812002010B52848BF
:10284000D0ED000AB0EE600A002000F03DFDB1EED0
:10285000400A10EE100A2349C1F82E002248B0F9B0
:102860000010204801842148008801B21D48C1831E
:102870001F48C1781B4881761D4801791948C176E7
:102880001B48C179174801771A48B0F9001015485C
:1028900041841948B0F90010124881841748006833
:1028A0001049C1F8260016480068C1F82A001B210B
:1028B0000C481830FDF70AFE12491348FFF70AF9D1
:1028C00000211148FFF720F9064818300E49583901
:1028D00048661B20C86501210B48FFF715F910BD9C
:1028E000B40D00200202002048040020440400200F
:1028F0002C1300209E010020A0010020B401002024
:10290000B8010020008000185860024010B5FFF7A1
:10291000BBFD03488089401C0149888110BD00002F
:102920003812002070B5F74D2D78072D7AD1F64D6D
:102930002D886DB9F54D2D8A002D09DDF44DD5F8A2
:102940009850F44E35600025F34E3570002418E0A1
:10295000EF4DD5F89850EF4E3668AD1B42F2107629
:10296000B5420DD90125EC4E3570E84D2D8A5A2D12
:1029700004DCE64D2D8A0DB1012402E0002400E0C4
:102980000024E64D2D886DB9E04D6D8A002D09DDDE
:10299000DF4DD5F89850E24E35600025E14E357098
:1029A000002118E0DA4DD5F89850DD4E3668AD1BA1
:1029B00042F21076B5420DD90025DA4E3570D34D6E
:1029C0006D8A642D04DCD14D6D8A0DB1022102E0C7
:1029D000002100E00021D44D2D886DB9CB4DAD8A8A
:1029E000002D09DDCA4DD5F89850D04E3560002530
:1029F000CF4E3570002219E0C54DD5F89850CB4E1A
:102A00003668AD1B42F21076B5420ED90125C84E8C
:102A10003570BE4DAD8A462D05DCBC4DAD8A15B175
:102A2000032203E06BE0002200E00022C14D2D886C
:102A30006DB9B64DED8A002D09DDB54DD5F898502C
:102A4000BD4E35600025BD4E3570002318E0B04DF9
:102A5000D5F89850B84E3668AD1B42F21076B542A4
:102A60000DD90125B54E3570A84DED8A462D04DCF3
:102A7000A64DED8A0DB1042302E0002300E00023FF
:102A8000AF4D2D886DB9A14D2D8B002D09DDA04DC9
:102A9000D5F89850AB4E35600025AB4E3570002010
:102AA00018E09B4DD5F89850A64E3668AD1B42F203
:102AB0001076B5420DD90125A34E3570934D2D8B5F
:102AC000462D04DC914D2D8B0DB1052002E0002038
:102AD00000E000208D4D2D8A8B4E35808B4D6D8A08
:102AE0008E4E3580894DAD8A8F4E3580874DED8A6B
:102AF000904E3580854D2D8B914E3580E9E0814D8E
:102B00002D786B2DFAD1804D2D886DB97F4D2D8894
:102B1000002D09DD7E4DD5F898507E4E356000259C
:102B20007D4E3570002418E0794DD5F89850794ED7
:102B30003668AD1B42F21076B5420DD90125764EAE
:102B40003570724D2D885A2D04DC704D2D880DB1D5
:102B5000012402E0002400E00024704D2D886DB9AE
:102B60006A4D6D88002D09DD694DD5F898506C4E81
:102B7000356000256B4E3570002118E0644DD5F8A6
:102B80009850674E3668AD1B42F21076B5420DD9AB
:102B90000125644E35705D4D6D88642D04DC5B4D00
:102BA0006D880DB1022102E0002100E000215E4DA0
:102BB0002D886DB9554DAD88002D09DD544DD5F8E2
:102BC00098505A4E35600025594E3570002218E055
:102BD0004F4DD5F89850554E3668AD1B42F21076E1
:102BE000B5420DD90125524E3570484DAD88462D60
:102BF00004DC464DAD880DB1052202E0002200E064
:102C000000224C4D2D886DB9404DED88002D09DD19
:102C10003F4DD5F89850484E35600025474E3570E9
:102C2000002318E03A4DD5F89850434E3668AD1B56
:102C300042F21076B5420DD90125404E3570334D24
:102C4000ED88462D04DC314DED880DB1042302E002
:102C5000002300E000233A4D2D886DB92B4D2D89BE
:102C6000002D09DD2A4DD5F89850364E35600025E7
:102C7000354E3570002018E0254DD5F89850314E6E
:102C80003668AD1B42F21076B5420DD901252E4EA5
:102C900035701E4D2D89462D04DC1C4D2D890DB13E
:102CA000052002E0002000E00020184D2D88164E7F
:102CB0003580164D6D88194E3580144DAD881A4EED
:102CC0003580124DED881B4E3580104D2D891C4EE0
:102CD000358042F21075654301EB4106C6EBC11623
:102CE00005EBC60502EBC20606EB021605EB8605F0
:102CF00003EB830605EB4605054400EE105AB8EEDB
:102D0000C00A70BDB0010020F0050020A30B002018
:102D100038120020F405002074050020F80500207A
:102D2000FC05002075050020000600200406002098
:102D300076050020080600200C06002077050020FC
:102D400010060020140600207805002010B500248D
:102D50004C480068401C4B4908604B484078E0B143
:102D6000084600689621B0FBF1F201FB120098B909
:102D70004FF400414548FFF782FA4FF48041434841
:102D8000FFF77DFA4FF400514048FFF778FA4FF40F
:102D900080513E48FFF771FA01243B488078E0B14A
:102DA00038480068C821B0FBF1F201FB120098B965
:102DB0004FF400413548FFF762FA4FF400513348B1
:102DC000FFF75DFA4FF480513048FFF758FA4FF49F
:102DD00080412E48FFF751FA01242B48C07810B9E2
:102DE00029480079E0B127480068FA21B0FBF1F2E8
:102DF00001FB120098B94FF400412448FFF73FFA55
:102E00004FF480412148FFF73AFA4FF480511F48B0
:102E1000FFF735FA4FF400511C48FFF72EFA012452
:102E20001948007870B1174800686421B0FBF1F2CE
:102E300001FB120020B94FF400611448FFF721FA9A
:102E4000012404E04FF400611048FFF718FAC4B9F8
:102E50004FF480410D48FFF712FA4FF400510B4830
:102E6000FFF70DFA4FF480510848FFF708FA4FF4C6
:102E700000610648FFF703FA4FF400410348FFF7EB
:102E8000FCF910BD180600201C05002000100240AF
:102E900010B5FFF75BFF0348808D401C0149888512
:102EA00010BD00003812002010B55948807A022861
:102EB00003D15748C07A022807D05548807A0128A4
:102EC0000FD15348C07A01280BD100205149087016
:102ED00001221146104600F0AFF8002001F08AF9F7
:102EE00094E04B48807A02280FD14948C07A0328E1
:102EF0000BD101204749087000220121104600F043
:102F00009BF8012001F076F980E04148807A0228A0
:102F10000FD13F48C07A01280BD102203D490870EB
:102F200000221146104600F087F8012001F062F9F6
:102F30006CE03748807A03280FD13548C07A0128E1
:102F40000BD103203349087000221146104600F0CF
:102F500073F8012001F04EF958E02D48807A0328DB
:102F600007D12B48C07A022803D1042029490870D0
:102F70004CE02748807A032807D12548C07A0228E8
:102F800003D105202349087040E02148807A0128B8
:102F900007D11F48C07A022803D106201D490870B6
:102FA00034E01B48807A012807D11948C07A0328E9
:102FB00003D107201749087028E01748007804213A
:102FC000B1EB101F0ED11548C08E58B90920114918
:102FD000087000221146104600F02EF8012001F082
:102FE00009F913E00C4800780521B1EB101F0DD151
:102FF0000A48C08E50B900200649087001221146C7
:10300000104600F019F8002001F0F4F810BD00009F
:10301000860C002022050020980B0020381200208A
:1030200010B5FFF741FF03480089401C01490881A2
:1030300010BD00003812002010B518B100230B4C51
:10304000E37002E00123094CE37019B10023074C3F
:10305000237202E00123054C23721AB10023034CB2
:10306000A37202E00123014CA37210BD2C130020B7
:1030700000204EE0B2EE040A00EB0011264A02EBFB
:10308000810181ED020A9FED250A00EB001102EBA0
:10309000810181ED0C0A9FED210A00EB001102EB8A
:1030A000810181ED0D0AB2EE040A00EB00111C4A09
:1030B00002EB810181ED020A9FED1A0A00EB00117B
:1030C000194A02EB810181ED020A9FED180A00EB1B
:1030D0000011134A02EB810181ED0C0A9FED130AE6
:1030E00000EB001102EB810181ED0D0A9FED0B0A4F
:1030F00000EB00110C4A02EB810181ED0C0A9FEDFF
:10310000070A00EB001102EB810181ED0D0A411C61
:10311000C8B20428AEDB7047800E00200000FA45DC
:10312000900F00200000C842A01000200000FA44C8
:1031300008B54FF4407000F0BDF825208DF8000070
:1031400000208DF801008DF8020001208DF80300A9
:10315000684600F073F826208DF8000000208DF8F6
:1031600001008DF8020001208DF80300684600F090
:1031700065F827208DF8000000208DF801008DF8FB
:10318000020001208DF80300684600F057F8342053
:103190008DF8000000208DF801008DF8020001205C
:1031A0008DF80300684600F049F847208DF80000CC
:1031B00000208DF801008DF8020001208DF8030039
:1031C000684600F03BF83A208DF8000000208DF8AA
:1031D00001008DF8020001208DF80300684600F020
:1031E0002DF814208DF8000001208DF8010000203A
:1031F0008DF8020001208DF80300684600F01EF8EB
:1032000040208DF8000001208DF8010000208DF88D
:10321000020001208DF80300684600F00FF8182026
:103220008DF8000000208DF801008DF802000120CB
:103230008DF80300684600F001F808BD70B5002164
:1032400000230F22C4781CB3174C246804F4E064F4
:10325000C4F5E064C4F30721C1F10404E3B20A41F8
:1032600044789C40E1B28478144021430C07210E3D
:103270000E4C05786155047804F01F050124AC401C
:1032800005786D11AD0005F1E025C5F8004109E0B4
:10329000047804F01F050124AC40054D0678761132
:1032A00045F8264070BD00000CED00E000E400E0B1
:1032B00080E100E002490143024A116070470000CA
:1032C0000000FA050CED00E0F0EE400AC8B10E492E
:1032D0000A780978491E0C4B19701AB10B4991ED07
:1032E000000A70470A4909680F22B1FBF2F302FB9A
:1032F0001311054A11700549C1ED000A91ED000A4C
:10330000EFE7B0EE600AECE7E5050020E8050020F5
:10331000240C0040CBE00024C4E004EBC40064496A
:1033200001EB8000007A00287DD16248006804EB40
:10333000C4015F4A02EB81010969401A04EBC40130
:1033400002EB810148615B48006804EBC40102EBB9
:103350008101086104EBC40102EB810148688047E8
:10336000012004EBC401524A02EB8101087251486A
:10337000006804EBC40102EB81010969401A04EB07
:10338000C40102EB8101886104EBC400114601EB2A
:103390008000C06904EBC40102EB810189698842A5
:1033A00006D904EBC400114601EB8000C06905E0BA
:1033B00004EBC4003E4901EB8000806904EBC401CA
:1033C0003B4A02EB8101C86104EBC400114601EBEA
:1033D0008000006A04EBC40102EB81018969884224
:1033E00006D204EBC400114601EB8000006A05E040
:1033F00004EBC4002E4901EB8000806904EBC4019A
:103400002B4A02EB8101086204EBC400114601EB78
:10341000800080692849096808442749086004EB4E
:10342000C400114600E012E001EB8000C0692349AE
:10343000096808442149086004EBC400114601EB07
:103440008000006A1E49096808441D49086000257B
:1034500022E01848006805EBC501154A02EB81011E
:103460000969401A05EBC50102EB8101C968884270
:1034700011D305EBC500114601EB8000007A02284C
:1034800009D0002005EBC50102EB81010872AC42B6
:1034900001D96C1E04E06D1C0A4800688542D8D32F
:1034A00000BF641C074800688442FFF436AF32E76F
:1034B0000C000020240C004000000020040000202C
:1034C000080000207401002029B1064A1268024356
:1034D000044B1A6004E0034A12688243014B1A60ED
:1034E000704700003038024029B1064A1268024392
:1034F000044B1A6004E0034A12688243014B1A60CD
:10350000704700004038024029B1064A1268024361
:10351000044B1A6004E0034A12688243014B1A60AC
:10352000704700002038024029B1064A1268024361
:10353000044B1A6004E0034A12688243014B1A608C
:10354000704700004438024029B1064A126802431D
:10355000044B1A6004E0034A12688243014B1A606C
:103560007047000024380240F0B5002100220024FA
:10357000022500260223324F3F6807F00C0121B1DB
:10358000042905D0082937D105E02E4F076036E021
:103590002D4F076033E02A4F3F1F3F68C7F3805627
:1035A000274F3F1F3F6807F03F036EB1264FB7FB21
:1035B000F3F7DFF88CC0ACF1040CDCF800C0CCF3FE
:1035C000881C07FB0CF40CE01E4FB7FBF3F7DFF889
:1035D00070C0ACF1040CDCF800C0CCF3881C07FB15
:1035E0000CF4174F3F1F3F68C7F301477F1C7D0056
:1035F000B4FBF5F7076002E0124F076000BF00BFA1
:103600000F4F3F6807F0F0010909104F7A5C076817
:10361000D74047600A4F3F6807F4E051890A0B4FD3
:103620007A5C4768D7408760054F3F6807F4604180
:10363000490B064F7A5C4768D740C760F0BD000071
:10364000083802400024F40000127A0085060020A9
:103650000178427841EA0221C1F30A011B4A118034
:103660004178C910827841EA4211C1F30A01174A30
:103670005180C1788911C27841EA8201027941EA18
:103680008221C1F30A01114A9180017949104279DE
:1036900041EAC211C1F30A010C4AD180017C427C8B
:1036A00041EA0221C1F30A01084A11814179091155
:1036B000890891724179C1F30111D1720449B1F8BD
:1036C0004C10491C024AA2F84C107047860C00208E
:1036D0003812002010B542480089A0F58060B0F58E
:1036E000967F0FDD3F48007918B14FF42F703E49A7
:1036F00008603E48D0F898003D49086001203D49E7
:10370000087010E036480089A0F5806010F5967FBB
:1037100009DA3448007930B14FF4FA703249086060
:103720000020354908703148D0F8980030490968C0
:10373000401AB0F57A7F17D92B480068B0F52F7F73
:1037400004D02E480068B0F52F7F0DD129480078AD
:1037500050B125480068B0F52F7F02D101202649DD
:1037600008700020234908702348007850B31E4891
:103770000068B0F52F7F31D11A48007910B318488E
:10378000C088A0F5806010F5967F04DA0021012042
:10379000FEF7E8FC22E012488088A0F58060B0F5D2
:1037A000967F04DD00210920FEF7DCFC16E00C48C2
:1037B000C088A0F58060B0F5967F04DD00210D2063
:1037C000FEF7D0FC0AE006488088A0F5806010F57E
:1037D000967F03DA00210F20FEF7C4FC10BD000025
:1037E000860C00202C1300204404002038120020F6
:1037F0001C060020200600205C040020400400205D
:1038000070B505460C46164640F20221681A8D42F4
:1038100079D013DCB5F5827F6AD008DC012D1CD08D
:10382000032D2AD0A5F2011000286DD149E0A5F2A0
:10383000051000286AD0FC28F7D176E0052870D062
:1038400006DC01286ED002286DD00428EDD10BE1F2
:10385000062869D0FF28E8D15EE1D7480088401CDF
:10386000D54908803246E11DD448FCF71DFDD348F8
:10387000B0F80100D24908809BE1CF488088401C05
:10388000CD4988803246E11DCE48FCF70DFDCE487B
:103890000078072808D1CB488089CC490880C948DE
:1038A000408BCB4908800BE0C74800786B2807D1D4
:1038B000C448808BC5490880C2484089C4490880F3
:1038C00077E1BD488089401CBB4988813246E11DB3
:1038D000C048FCF7E9FCBF480088C0F3802018B15D
:1038E0000120BD49087002E00020BB49087060E17A
:1038F000B148008A401CB04908823246E11DB748F1
:10390000FCF7D2FC55E16AE052E1FFE7AA48808A61
:10391000401CA94988823246E11DB148FCF7C4FC2D
:1039200047E1ACE08AE094E0E7E0A348008B401C6C
:10393000A14908833246E11DAA48FCF7B5FCA94815
:103940000078A1490870A7484088A7490880A54881
:10395000008BA6490880A3480089A5490880A14892
:10396000C089A44908809F48C088A34908809D4811
:103970008089A2490880A248007870B99A480088D6
:10398000A0490988884208DA9F48B0F898009F4902
:10399000088001209A49087012E09B48D0F89800EE
:1039A0009A490988401AB0F57A7F09D300209449D2
:1039B000087097480088974908800020944908803B
:1039C0009048008888490988401A91490988084424
:1039D0008F490880844800888A490880E9E0764851
:1039E000808B401C744988833246E11D8A48FCF76D
:1039F0005BFC8A4890ED000A894880ED000A864801
:103A0000406886490860874800888749088082485E
:103A10000089844908808048408900B28349088031
:103A20007D48808900B28249088001208149087060
:103A30007548D0F8980080490860BAE05E48008C6C
:103A4000401C5D4908843246E11D7C48FCF72CFC93
:103A5000AFE05948808C401C574988843246E11DAC
:103A60007748FCF721FCA4E05348008D401C5249E4
:103A700008853246E11D7348FCF716FC99E04E4874
:103A8000808D401C4C4988853246E11D6E48FCF70C
:103A90000BFC6D4840786D49087008460078012895
:103AA00013D16B480088401C6949088066488078BB
:103AB000684908706448D0F803006749086067489F
:103AC0000088401C6549088016E06048007802289C
:103AD00012D163480088401C614908805A488078A8
:103AE000604908705848D0F803005F4908605F4893
:103AF0000088401C5D4908805BE02F48008E401C18
:103B00002D4908863246E11D5948FCF7CDFB58483F
:103B10000088584908804CE02748808E401C264980
:103B200088865548D4F807100160B4F80B108180DE
:103B3000B21F04F10D015148FCF7B6FB4E48008856
:103B4000B0F5007F18D14C4880881F490978884219
:103B500012D1494841881C480078401E81420BD14F
:103B600046480078464908704448407845490870FE
:103B700042488078444908703F48008840F201215B
:103B8000884214D13C4880880F49097888420ED178
:103B9000394841880C480078801C814207D1374859
:103BA00000783A490870354840783949087000E093
:103BB00000BF00BF70BD0000F4120020980B002071
:103BC000BC010020A30B0020B0010020BE0100209A
:103BD000C0010020DB010020A2010020E301002041
:103BE000E5010020CE0B0020A6010020C40100202A
:103BF000C6010020C8010020CA010020CC0100201D
:103C0000D6010020D805002038120020D60500205B
:103C1000DA050020D4010020E90B0020A8010020D3
:103C200050050020AE010020AC0100209E010020C4
:103C3000A0010020D801002034050020F90B00204D
:103C4000E6010020E8010020E9010020CE0100206B
:103C500064050020B1010020B4010020D001002043
:103C600066050020B2010020B8010020D20100202A
:103C7000F0010020A4010020FA010020150C002012
:103C80005505002054050020D701002057050020CD
:103C9000560500202DE9F84F81460C4692464FF01C
:103CA000000B002500200090804676E0D9F808003F
:103CB00010F80860BBF1070F6BD2DFE80BF00411BE
:103CC0001E2534434D00A52E07D100254FF0010BD2
:103CD000A52229466D1C625401E04FF0000B59E00B
:103CE0002846691CCDB22654032D05D16078A178F1
:103CF00040EA01274FF0020B4CE02846691CCDB288
:103D000026544FF0030B45E02846691CCDB22654DB
:103D10002946204601F0CEFB10B14FF0040B01E024
:103D20004FF0000B36E02846691CCDB22654072D13
:103D300007D16079A17940EA01201A4908804FF043
:103D4000050B27E02846691CCDB22654F81DA84271
:103D500001D14FF0060B1DE02846691CCDB2265458
:103D600007F10900A84213D12946204601F082FB41
:103D700070B13A4621460B480088FFF741FD4FF0ED
:103D8000000B0948B0F85000401C0749A1F850004A
:103D900000E000BF00BF08F10108D04586DBBDE8A8
:103DA000F88F0000D20500203812002010B5FEF771
:103DB00045FD0348808B401C0149888310BD0000ED
:103DC0003812002010B52DED0A8B384800780228F3
:103DD00030D13749488802F053FD41EC1B0B344980
:103DE000088802F04DFD41EC1C0BB0EE4B1AF0EED2
:103DF0006B1AB0EE4C0AF0EE6C0A01F08DFDB0EEDD
:103E000040AAF0EE60AA9FED2B0B53EC102B51EC67
:103E10001A0B02F085FD41EC190B9FED280B53ECBA
:103E2000102B02F0D5FB41EC180B02F0EBFA254900
:103E3000086029E01D480078092825D1224800683B
:103E400003F064F841EC1B0BB0EE4B0AF0EE6B0A8A
:103E500001F0F6FBB0EE40AAF0EE60AA9FED150B64
:103E600053EC102B51EC1A0B02F05AFD41EC190BDC
:103E70009FED120B53EC102B02F0AAFB41EC180B38
:103E800002F0C0FA0F49086000200AE00D4991EDE8
:103E9000000A00EB00110D4A02EB810181ED000ADE
:103EA000401C0428F2D3BDEC0A8B10BD2205002073
:103EB000860C0020000000000080664000000060CA
:103EC000FB210940300400202C040020900F00202A
:103ED00010B50446002C51D0012C04D0022C31D056
:103EE000032C5AD147E0002011E09FED2E0A00EB91
:103EF00000112D4A02EB810181ED0D0A9FED290A87
:103F000000EB001102EB810181ED0C0A401C04283A
:103F1000EBD3002013E000F0010181F00101C1EBBF
:103F2000011101EB410100EE101AB8EEC00A00EBDE
:103F300000111E4A02EB810181ED000A401C042899
:103F4000E9D32BE0002011E09FED160A00EB0011F1
:103F5000154A02EB810181ED0D0A9FED120A00EB7B
:103F6000001102EB810181ED0C0A401C0428EBD307
:103F7000FFF728FF12E0FEF791F80FE0002009E0BC
:103F80009FED0B0A00EB0011074A02EB810181ED66
:103F90000C0A401C0428F3D300E000BF00BF00F06F
:103FA00009F810BD0000FA45A0100020900F002075
:103FB0000000000010B500241CE004EB04110F4ABF
:103FC00002EB8100FDF73CFB04EB04100B4901EB15
:103FD000800090ED0B0A04EB0410094901EB80000E
:103FE00080ED000A04EB0411054A02EB8100FDF7A5
:103FF00027FB641C042CE0D310BD0000900F0020B0
:10400000A01000200CB500200190009034480068FA
:1040100040F480303249086000BF3148006800F445
:10402000003000900198401C0190009818B9019848
:10403000B0F5A04FF1D12A48006800F4003010B16B
:104040000120009001E0002000900098012846D156
:1040500023484030006840F08050214940310860DA
:104060002048006840F440401E4908601C48083061
:1040700000681B49083108600846006840F40040A9
:1040800008600846006840F4A05008601648091F00
:104090000860081F006840F08070091F086000BFBA
:1040A0000F48006800F000700028F9D040F2057059
:1040B0000E4908600A480830006820F003000849EB
:1040C000083108600846006840F00200086000BF40
:1040D00003480830006800F00C000828F8D10CBD37
:1040E000003802400070004008544007003C024085
:1040F000B5EEC00AF1EE10FA01DD01207047B5EE11
:10410000C00AF1EE10FA02D24FF0FF30F6E70020BD
:10411000F4E7000010B52D48007820B94FF4FA708C
:104120002B49086014E029480078012807D0274867
:104130000078022803D025480078032802D1FFF731
:10414000C9FA05E021480078092801D1FCF7D0F927
:1041500020480078D8B19FED200A204880ED0C0A55
:104160001F48D0ED000A1F48B0F900001E49B1F900
:104170000010401A1D490968484300EE100AB8EEC5
:10418000400A30EE800A164880ED000A0EE09FEDEE
:10419000180A124880ED0C0A114890ED010A80EDD2
:1041A000000A0E4890ED010A80ED000A00F072F856
:1041B000002000F031F807480078064948700948A7
:1041C000B0F900000849088010BD00002205002059
:1041D000440400205C04002000401C46D804002059
:1041E00094040020480400204A0400203C040020DD
:1041F0000000000018B10121054A117106E00021FC
:10420000034A11714FF4FA71024A116070470000BD
:104210002C13002040040020A0BB1B49097869B181
:104220001949497851B9194991ED060A164981EDA4
:10423000010A91ED010A81ED020A0DE012490978A7
:1042400051B1114991ED020A81ED010A0F4991ED39
:10425000060A0D4981ED020A0B4991ED020AD1EDE2
:10426000010A30EE600ADFED0A0A80EE201AB6EE8F
:10427000000A31EE000ABDEEC00A81ED050A496967
:10428000014AD160704700005C040020E002002079
:104290000066E6461CB51848007838B116484078E4
:1042A00020B9164890ED010A80ED000A1348FDF789
:1042B0001BF9124890ED0B0A9FED111AC0EE010A8E
:1042C0009FED100A20EE800A0F4880ED000AFDF7EE
:1042D000B7F90020009001900B4890ED0B0ABDEE5D
:1042E000C00A10EE100A404202B2002340F2FF1151
:1042F0000648FDF732F81CBD5C0400209404002041
:10430000000000460000B443D804002000640040D0
:1043100010B5FFF7FFFE0348008A401C01490882E0
:1043200010BD00003812002070B52DED068B05463B
:104330009FED5C0AF0EE408A9FED5A0AB0EE408A8B
:10434000002D74D0012D02D0022D71D11EE000206D
:1043500009E09FED550A00EB0011544A02EB810180
:1043600081ED0C0A401C0428F3D300240BE004EB7D
:1043700004114E4A02EB8100F2EE040A9FED4C0A52
:10438000FDF768FD641C042CF1D385E049480078F2
:10439000022870D148480088A0F5806000EE100A1D
:1043A000B8EEC00AF0EE408A43484088A0F580602D
:1043B00000EE100AB8EEC00AB0EE408A28EEA80A55
:1043C00008EE080A10EE101A084602F09FFD41ECB4
:1043D0001A0BB0EE4A0AF0EE6A0A01F09FFBB0EE4B
:1043E000409AF0EE609A51EC190B02F00BF8334949
:1043F0000860084690ED000AB1EE400A2B4880EDB7
:10440000000A084690ED000A284880ED110A084687
:1044100090ED000A254880ED220A084690ED000A3A
:10442000B1EE400A214880ED330A002013E023E07A
:1044300031E000EB00111D4A02EB810191ED000A11
:10444000F2EE040A20EE200A00EB001102EB8101DB
:1044500081ED000A401C0428EBD3002009E09FED09
:10446000120A00EB0011114A02EB810181ED0C0AE6
:10447000401C0428F3D30FE0002009E09FED090A57
:1044800000EB0011094A02EB810181ED0C0A401C8E
:104490000428F3D300E000BF00BF00F011F8BDEC2A
:1044A000068B70BD000000000000FA45800E002061
:1044B0000080BB4522050020860C0020340400202B
:1044C00010B5002407E004EB0411044A02EB81005C
:1044D000FDF7B6F8641C042CF5D310BD800E002047
:1044E000A748D0F89800401CA549C1F89800084694
:1044F000D0F898004FF47A71B0FBF1F201FB120092
:1045000000287DD19E4880889D49C88000208880F1
:104510000846008948810020088108468089C881B2
:10452000002088810846008A4882002008820846C8
:10453000808AC882002088820846008B4883002039
:1045400008830846808BC883002088830846008C37
:104550004884002008840846808CC8840020888411
:104560000846008D4885002008850846808DC8854E
:10457000002088850846008E488600200886084668
:10458000808EC886002088860846008F48870020D5
:1045900008870846808FC887002088870846B0F8BB
:1045A0004000A1F842000020A1F840000846B0F801
:1045B0004400A1F846000020A1F844000846B0F8E5
:1045C0004800A1F84A000020A1F848000846B0F8C9
:1045D0004C00A1F84E000020A1F84C000846B0F8AD
:1045E0005000A1F852000020A1F850000846B0F891
:1045F0005400A1F856000020A1F85400084600E03D
:10460000BDE0B0F85800A1F85A000020A1F8580009
:104610000846B0F85C00A1F85E000020A1F85C003C
:104620000846B0F86000A1F862000020A1F8600020
:104630000846B0F86400A1F866000020A1F8640004
:104640000846B0F86800A1F86A000020A1F86800E8
:104650000846B0F89000A1F892000020A1F8900060
:104660000846B0F87000A1F872000020A1F87000B0
:104670000846B0F87400A1F876000020A1F8740094
:104680000846B0F87800A1F87A000020A1F8780078
:104690000846B0F87C00A1F87E000020A1F87C005C
:1046A0000846B0F88000A1F882000020A1F8800040
:1046B0000846B0F88400A1F886000020A1F8840024
:1046C0000846B0F88800A1F88A000020A1F8880008
:1046D0000846B0F88C00A1F88E000020A1F88C00EC
:1046E0000846B0F89400A1F896000020A1F89400C4
:1046F0002448008823494880002008800846808894
:10470000C8800020888008460089488100200881F0
:1047100008468089C881002088810846008A48822E
:10472000002008820846808AC882002088820846C5
:10473000008B4883002008830846808BC8830020B4
:1047400088830846008C4884002008840846808CB2
:10475000C884002088840846008D4885002008858C
:104760000846808DC885002088850846008E4886CA
:10477000002008860846808EC886002088867047FC
:1047800038120020F412002030B5164800684FF4AB
:104790007A72B0FBF2F1481EB0F1807F01D30120A4
:1047A0001BE0481E4FF0E022506150170F220028F6
:1047B00007DA13071D0E0C4B00F00F04241F1D55C4
:1047C00003E013071C0E094B1C5400BF00204FF0E0
:1047D000E022906107201061002008B100BFFEE7D1
:1047E00030BD0000BC05002018ED00E000E400E052
:1047F00010B51548006840F470001349086013486C
:10480000006840F001001149086000200F4908319C
:1048100008600E4800680E4908400C4908600D48C1
:10482000091D0860081F006820F48020091F086027
:10483000002006490C310860FFF7E4FB4FF00060F0
:1048400001498039086010BD88ED00E00038024061
:10485000FFFFF6FE1030002410B53D48FEF784FE41
:1048600000203C49A1F89C0000BF0DE03949B1F897
:104870009C1000EBC002384B03EB8202128B1144F8
:10488000344AA2F89C10401C344909688842EDD390
:104890003048B0F89E002F49B1F89C10884203DDE3
:1048A0002C48B0F89E0002E02A48B0F89C00294944
:1048B000A1F89E000846C08FB0F5FA7F03DA012008
:1048C0002749487002E00020254948702148B0F887
:1048D0004A00B0F5FA7F03DA01202149887002E02E
:1048E00000201F4988701B48408F0A2803DA0120E6
:1048F0001B49087002E00020194908701548B0F8FB
:10490000660040F2DC51884203DA01201449C87085
:1049100002E000201249C8700E48B0F86A0040F664
:10492000C411884203DA01200D49087102E0002019
:104930000B4908710B484088B0F5487F03DA012025
:104940000749487102E000200549487110BD000088
:104950007C140020381200200C000020740100207C
:104960001C050020D812002010B5FFF775FF034882
:104970008088401C0149888010BD0000381200204A
:10498000F0B50C46154600210022068C4FF6FE7746
:104990003E400684018B028C4FF60C7631407E1C23
:1049A00006EA03162E4331434FF6F576324044F0C3
:1049B0000106324301830284F0BDF0B50C46154672
:1049C000002100220026078C4FF6EF7C07EA0C0737
:1049D0000784018B028C4FF6FF7707EA041640F636
:1049E000FF4739404FF6FF7707EA033739434FF661
:1049F000FF7707EA052739434FF65F773A4046F0DD
:104A000010073A4301830284F0BDF0B50C46154609
:104A1000002100220026078C4FF6FF6C07EA0C07E6
:104A20000784818B028C4FF6FF7707EA04264FF646
:104A30000C7739404FF6FF7707EA03172F433943C6
:104A40004FF2FF573A4046F480773A43818302841D
:104A5000F0BDF0B50C461546002100220026078C5B
:104A60004EF6FF7C07EA0C070784818B028C4FF619
:104A7000FF7707EA043640F6FF4739404FF6FF77E5
:104A800007EA052739434FF6FF7707EA033739432B
:104A900045F6FF773A4046F480573A4381830284D3
:104AA000F0BD000010B52DED0C8B02216A4800F01E
:104AB00069F900281BD00221674800F051F96648C7
:104AC000008C00F0020098B9002064490860624937
:104AD00048626349086000215F4800F044F9022100
:104AE0005D4800F0A9F901215B4800F03CF9A2E023
:104AF0005948008C00F002000028F8D0564800F019
:104B00003EF9564908600846006801F0B9FE41ECDC
:104B10001D0B9FED540B53EC102B01F001FF41ECEA
:104B20001B0B4F49086801F0ABFE41EC1C0B53EC2A
:104B30001B2B01F099FC41EC1A0B9FED4C0B53EC35
:104B4000102B01F0EDFE41EC190B9FED4A0B53ECDD
:104B5000102B01F03DFD41EC180B01F053FC4749CF
:104B60000860084690ED000A454880ED000AB1EE65
:104B7000021ADFED440A90ED000AFCF796FF404868
:104B800080ED000A3D48006802F0C0F941EC180BC6
:104B90009FED3D0B53EC102B01F0C0FF05D23848C0
:104BA00090ED000A354880ED000A354890ED000A86
:104BB0003248D0ED000A30EE600A10EE101A0846B6
:104BC00002F0A4F941EC190BB0EE490AF0EE690AC3
:104BD00000F09AFFB0EE408AF0EE608A9FED2C0B59
:104BE00053EC102B51EC180B01F098FF05D2244820
:104BF00090ED000A214880ED000A204890ED000A5F
:104C00000A212548FDF7D4F81C4880ED000A90EDF4
:104C1000000ADFED220A20EE200A80ED000A0021C2
:104C20000D4800F0A0F800210B4800F005F9012123
:104C3000094800F098F80121074800F0A3F840B1B6
:104C40000121054800F08CF805480068401C044923
:104C50000860BDEC0C8B10BD0040014044050020F5
:104C60003C050020FCA9F1D24D62503FC3F5285C01
:104C70008FC2D53F00000000000000404805002022
:104C80007C01002000000000000000000000124035
:104C9000333333333333D33F9806002000007A4454
:104CA0000EB501210820FEF71FFC5320ADF80000CF
:104CB0004FF0FF3001900020ADF80200ADF8080081
:104CC0006946044800F0EEF80121024800F04BF874
:104CD0000EBD0000000C004030B589B005460C4602
:104CE00001210846FEF7F0FB01210804FEF71CFC39
:104CF0000420019002208DF808008DF809000020A2
:104D00008DF80A0002208DF80B0001A91248FDF76A
:104D100049FA032202211048FDF78CFA0020ADF871
:104D20002000ADF81A000795ADF8184006A90B4809
:104D300000F0B8F803A800F06DF803A9074800F0E8
:104D400032F801220321054800F06DF801210348E3
:104D500000F009F809B030BD0000024000400140F9
:104D6000CA430282704721B1028842F001020280E8
:104D700004E002884FF6FE731A4002807047014635
:104D8000486B704730B50246002000230024158A86
:104D900005EA0103958905EA010413B10CB101206C
:104DA00000E0002030BD70B505460C46208850B9A3
:104DB0002389A28861882846FFF7E2FDE18828461A
:104DC00000F043F825E0208804280AD12389A2882E
:104DD00061882846FFF7F1FDE188284600F03EF89B
:104DE00017E0208808280AD12389A28861882846EC
:104DF000FFF70BFEE188284600F03DF809E0238923
:104E0000A28861882846FFF724FEE188284600F042
:104E10003BF870BD0021018041800121818000218B
:104E2000C180018170471AB183890B43838102E0FD
:104E300083898B43838170470A460021018C4FF69A
:104E4000FD731940114301847047028B4FF6F373D1
:104E50001A400283028B0A4302837047028B4FF28F
:104E6000FF331A400283028B4FF6FF7303EA0123DC
:104E70001A4302837047828B4FF6F3731A40828382
:104E8000828B0A4382837047828B4FF2FF331A4032
:104E90008283828B4FF6FF7303EA01231A438283D6
:104EA0007047000000220288184B98420ED0184B21
:104EB00098420BD0B0F1804F08D0164B984205D0E5
:104EC000154B984202D0154B984204D14FF68F7380
:104ED0001A404B881A43124B984207D0114B984204
:104EE00004D04FF6FF431A400B891A4302804B68E7
:104EF000C3620B880385054B984202D0044B98424D
:104F000001D18B7A03860123838270470000014020
:104F1000000401400004004000080040000C004074
:104F2000001000400014004010B540F22441144825
:104F300000F08AF9012822D11148008810488088A1
:104F40001048FCF7A3FE104908600E48FCF79EFECF
:104F5000122808D10D48FEF77BFB0D48808E401CBF
:104F60000B4988860BE000210648FCF7CDFD122096
:104F70000449091D086001210248FCF7C5FD10BD68
:104F80000010014040640240780100209C0C002089
:104F90003812002010B540F22441174800F054F9AF
:104FA00040B340F22441144800F0B1F812480088A0
:104FB0001148001D0088114800F000FA04462246FE
:104FC0000F490E48FEF766FE0E48B0F8520060B971
:104FD00000210D48FCF798FD4FF4FA700A49091DAD
:104FE000086001210848FCF78FFD0648008F401C2F
:104FF0000449088710BD00000044004080010020E3
:105000009E0A0020381200208860024010B540F24D
:105010002441124800F018F901281DD10F480088DA
:105020000E48001D00880E48FCF730FE182807D1F6
:10503000FDF792FB0B48808F401C0A4988870BE0E4
:1050400000210748FCF760FD182005492839C8628F
:1050500001210348FCF758FD10BD00000048004046
:10506000286002403812002010B540F224411E484A
:1050700000F0EAF8012835D11B4800881A48001DC5
:1050800000881A48FCF702FE26281FD1184800782D
:10509000552813D11648407880B9164814498978A4
:1050A000017020221249091D401CFBF7FDF812482F
:1050B000B0F86000401C1049A1F860000E48B0F83C
:1050C0004800401C0C49A1F848000BE000210748AB
:1050D000FCF71AFD26200549091D08600121034837
:1050E000FCF712FD10BD00000014014028640240CE
:1050F000E60C0020840D00203812002001F400721C
:10510000B2F5007F00D100BFCA430280704710B5DE
:105110000022002340F66A14A14200D100BF0A1207
:1051200001249440A3B2DC43048010BD21B18289E4
:1051300042F40052828104E082894DF6FF731A40E6
:10514000828170471AB1838A0B43838202E0838A8B
:105150008B4383827047000010B504463248844276
:1051600008D101211020FEF7EFF900211020FEF7F1
:10517000EBF957E02D48844209D101214804FEF79C
:10518000C3F900214FF40030FEF7BEF94AE0284889
:10519000844209D101218804FEF7B6F900214FF4B9
:1051A0008020FEF7B1F93DE02248844209D1012177
:1051B000C804FEF7A9F900214FF40020FEF7A4F976
:1051C00030E01D48844209D101210805FEF79CF911
:1051D00000214FF48010FEF797F923E0174884422E
:1051E00008D101212020FEF7AFF900212020FEF791
:1051F000ABF917E01248844209D101218807FEF774
:1052000083F900214FF08040FEF77EF90AE00D4857
:10521000844207D101214005FEF776F9002160059F
:10522000FEF772F910BD000000100140004400407C
:1052300000480040004C0040005000400014014075
:1052400000780040007C004070B502460024002336
:105250000025002040F66A16B14200D100BFC1F31C
:10526000421501F01F03012606FA03F3012D02D1B6
:105270009689334006E0022D02D1168A334001E0C0
:10528000968A33400C12012606FA04F4168834403C
:1052900013B10CB1012000E0002070BDF0B5034651
:1052A000002400260025002040F66A17B94200D1EC
:1052B00000BF1846C1F3421401F01F06012707FA88
:1052C00006F5012C01D10C3004E0022C01D1103084
:1052D00000E014301AB107682F43076002E0076846
:1052E000AF430760F0BD00002DE9FF4705460E46BD
:1052F0000024A14600BFA046B08900B100BF2C8A9F
:1053000024F44054F08804432C82AC8941F20C60B0
:105310008443B08831890843718908430443AC81D0
:10532000AC8A24F44074B0890443AC826846FEF72A
:105330001BF92048854202D01F48854202D1DDF882
:105340000C9001E0DDF80890A88900F4004040B11D
:1053500009EBC90000EB091031684900B0FBF1F717
:1053600007E009EBC90000EB091031688900B0FBC8
:10537000F1F76420B7FBF0F004012009642101FB80
:105380001078A88900F4004040B1322000EBC8003A
:10539000B0FBF1F000F00700044308E0322000EB1E
:1053A00008106421B0FBF1F000F00F0004432C81E1
:1053B000BDE8FF87001001400014014010B504460D
:1053C0006068FCF763FC618A081AA082E08A218B7E
:1053D0000844E082E08A618A884206DBE08A618ACA
:1053E00090FBF1F201FB1200E082E08AA18A884280
:1053F00015DAA08AE18A401A2083208B218A88420C
:1054000035DC002007E0E28AE1681144095CA2680B
:105410001154411C88B2218B8142F4DC27E0A08A20
:10542000618A0844E18A401A2083208B218A8842BD
:105430001DDC002007E0E28AE1681144095CA268F3
:105440001154411C88B2218BA28A891A8142F2DC54
:10545000002009E0E168095C238BA2681A44A38A52
:10546000D21A1154411C88B2A18A8142F2DC208BED
:1054700010BD000070B505460C4600260DB1022C8B
:1054800001D8002070BDA11E094802882846FCF7FB
:1054900017FF0646F1B2A01E285C814206D1601EAD
:1054A000285CB0EB162F01D10120EBE70020E9E7E3
:1054B000D005002070B505460C4600260DB1022C23
:1054C00001D8002070BD611EFF222846FCF712FFA4
:1054D0000646601E285CB04201D10120F2E70020A0
:1054E000F0E7000010B5FCF701FC0348008C401CFD
:1054F0000149088410BD00003812002010B51E4874
:10550000D0F801001D4908601B48D0F8050048602C
:105510001948D0F8090088601748D0F80D00C86015
:105520001548D0F8110008611348D0F815004861FB
:105530001148D0F8190088610F48D0F81D00C861E3
:105540000F491048FCF7C6FA00210E48FCF7DCFAB8
:1055500000BF0C48FCF790FB0028FAD10748094926
:105560000C31086024200749A039C1F8A4000121AA
:105570000448FCF7C9FA10BD840D0020790500200D
:1055800000802020A060024010B5FFF7B7FF10BDDB
:1055900010B51848007801280DD1174890ED000A81
:1055A000164880ED060AFCF7F1F8144890ED000A61
:1055B000114880ED000A104890ED000A104880ED77
:1055C000000A104890ED000A0F4880ED010A0C48CF
:1055D000FCF736F80A4890ED0B0A0B4880ED000AFC
:1055E000FCF72EF8084890ED0B0AB1EE400A80ED6A
:1055F0000B0A10BD7406002010040020F4030020E4
:1056000050030020200400209403002003B40198DC
:105610004100009850EAC12018BF04204A0D18BF6D
:1056200040F0010040F2FF72B2EB515F08BF40F062
:105630000200012808BF052002B0704700000000EA
:1056400070B59B482DED020B2DED068B079D25F0C7
:105650000044A04218DC9748844202DC0AD1069834
:1056600040B19DED060BBDEC068B02B0BDE870406D
:1056700000F00DBB002DCCBF9FED8F0B9FED900B6D
:10568000BDEC068B02B070BD8F48A04215DD8F487F
:10569000A042D8BF4FF0FF3458DD9DED060B51EC12
:1056A000100BFFF7B3FF042808BF00F005FB9DEDCA
:1056B000060BBDEC068B02B070BD9DED060B51ECE8
:1056C000100B00F011FBCDE9060181489FED828BA4
:1056D000A0423CDD8248A0421FDD00249FED82AB4A
:1056E0009DED060B53EC1A2B51EC100B00F0BCFE99
:1056F0009DED060B41EC190B53EC1A2B51EC100BE2
:1057000001F00EF953EC182B01F016FB53EC192B9A
:1057100000F05EFFCDE9060149E09DED060B012496
:1057200053EC182B51EC100B00F09EFE9DED060B78
:1057300041EC190B53EC182B51EC100B01F0FCFA57
:1057400053EC192B00F044FFCDE906012FE0684827
:10575000A0421FDD02249FED689B9DED060B53ECDC
:10576000192B51EC100B01F0DBF853EC182B00F067
:105770007BFE9DED060B41EC180B53EC192B51EC05
:10578000100B01F0D9FA53EC182B00F021FFCDE9F2
:1057900006010CE09DED060B032453EC102B9FED4E
:1057A000580B51EC100B00F013FFCDE906019DEDF5
:1057B000060B53EC102B51EC100B01F0B1F841EC3F
:1057C000180B53EC182B01F0ABF841EC190B4E48B9
:1057D0000621B0EE490AF0EE690A784400F0DBF9E0
:1057E00053EC182B51EC100B01F09AF841EC180B0C
:1057F0004648B0EE490AF0EE690A0521784400F007
:10580000CAF953EC192B51EC100B01F089F841EC5B
:10581000100B51EC180B53EC102B002C0EDA00F08F
:1058200023FE9DED061B53EC112B01F079F89DED45
:10583000061B53EC112B01F0A7F935E000F014FE24
:105840009DED061B53EC112B01F06AF841EC100B97
:105850002F48784400EBC40090ED001B51EC100B76
:1058600053EC112B01F068FA9DED061B53EC112B44
:1058700001F062FA41EC100B2648784400EBC400BA
:1058800090ED001B51EC100B53EC112B01F07CF947
:1058900041EC100B002DA2BFBDEC068B02B070BD19
:1058A00051EC100B00F0A2FD41EC100B01E70000E1
:1058B000000010440000F07F182D4454FB21F93FF4
:1058C000182D4454FB21F9BF0000DC3F0000203EAE
:1058D0000000F33F00000000000000000000F03F67
:1058E0000000E63F00000000000000000000004053
:1058F0000080034000000000000000000000F83FAE
:10590000000000000000F0BF921B0000481B0000D8
:10591000D21A00008A1A000070B56B4E2DED040BF0
:105920002DED028B82B0DDF81CC0DDE905235C4261
:105930002CF000411C4341EAD474049D22F0004045
:10594000B44205D86C422C4340EAD474B4420BD91B
:105950009DED061B9DED040B02B0BDEC028B04B067
:10596000BDE8704000F09DB9ACF14054A4F17F64F3
:105970001C430BD0022404EAAC7444EAD2740543FD
:105980009FED538B9FED542B07D015E09DED040B3D
:1059900051EC100B00F0A0F942E0002C11BF012CDB
:1059A0009DED040B02B0BDEC028B04BF04B070BDD2
:1059B000022C38D0032C3BD00B439FED491B9FEDAD
:1059C0004A0B0AD0B14218D1B04209D121F080412E
:1059D00020F08040079105900FE0002A15DA10E0D2
:1059E000434B7B44002C08BF93ED000B0DD0012CE2
:1059F00010D0022C17D0032C1AD0B0421DD1002A8F
:105A000003DAB0EE410AF0EE610A02B0BDEC028B9F
:105A100004B070BD93ED000B51EC100B00F0E6FCF0
:105A200041EC100BF1E7B0EE480AF0EE680AECE743
:105A3000B0EE420AF0EE620AE7E7401A00153C2891
:105A4000C8BF8DED000B19DCBCF1000FBEBF10F11B
:105A50003C0F9FED290B8DED000B0FDB9DED060B31
:105A600053EC102B9DED040B51EC100B00F0B0FD2E
:105A700000F03AF900F030F9CDE90001002C08BF40
:105A80009DED000BC1D0012C10D0022C9FED1C0B02
:105A900053EC102B9DED000B51EC100B0DD001F0D1
:105AA0004BF953EC182B01F047F9B9E7019880F056
:105AB000004001909DED000BA7E701F03DF953EC8C
:105AC000182B01F061F8ABE70000F07F0000000048
:105AD000182D4454FB210940182D4454FB2109C0C2
