:020000040800F2
:1000000098190020690200087102000873020008B4
:10001000750200087702000879020008000000005D
:100020000000000000000000000000007B0200084B
:100030007D020008000000007F020008493E000821
:10004000830200088302000883020008830200087C
:10005000830200088302000883020008830200086C
:10006000830200088302000883020008830200085C
:10007000830200088302000883020008830200084C
:10008000830200088302000883020008830200083C
:10009000B5080008830200088302000883020008F4
:1000A000114400088302000883020008830200084C
:1000B000830200088302000883020008830200080C
:1000C00083020008830200088302000883020008FC
:1000D0008302000895480008014900087949000892
:1000E00083020008830200088302000883020008DC
:1000F00083020008830200088302000883020008CC
:1001000083020008830200088302000883020008BB
:1001100083020008830200088302000883020008AB
:10012000830200088302000883020008830200089B
:10013000830200088302000883020008830200088B
:10014000AD0C000883020008830200088302000847
:10015000830200088302000883020008D5490008D2
:10016000830200088302000883020008830200085B
:10017000830200088302000883020008830200084B
:10018000830200088302000800F002F800F05CF827
:100190000AA090E8000C82448344AAF10107DA45E2
:1001A00001D100F051F8AFF2090EBAE80F0013F0D8
:1001B000010F18BFFB1A43F001031847A4620000A7
:1001C000C46200000A444FF0000C10F8013B13F029
:1001D000070408BF10F8014B1D1108BF10F8015BA0
:1001E000641E05D010F8016B641E01F8016BF9D193
:1001F00013F0080F1EBF10F8014BAD1C0C1B09D1EA
:100200006D1E58BF01F801CBFAD505E014F8016B5B
:1002100001F8016B6D1EF9D59142D6D370470000ED
:100220000023002400250026103A28BF78C1FBD8FF
:10023000520728BF30C148BF0B6070471FB505F09B
:1002400046FF1FBD10B510BD00F0BCF81146FFF70A
:10025000F5FF04F0ABFE00F0DAF803B4FFF7F2FFAD
:1002600003BC00F0DDF8000009488047094800475A
:10027000FEE7FEE7FEE7FEE7FEE7FEE7FEE7FEE756
:10028000FEE7FEE704480549054A064B70470000B3
:10029000594100088901000898130020981900208E
:1002A0009815002098150020032A40F2308010F0A5
:1002B000030C00F0158011F8013BBCF1020F624401
:1002C00098BF11F801CB00F8013B38BF11F8013B92
:1002D000A2F1040298BF00F801CB38BF00F8013B3F
:1002E00011F0030300F03380083AC0F0088051F8A1
:1002F000043B083A51F804CBA0E80810F5E7121DBA
:100300005CBF51F8043B40F8043BAFF30080D207D8
:1003100024BF11F8013B11F801CB48BF11F8012BA4
:1003200024BF00F8013B00F801CB48BF00F8012BC7
:10033000704770477047704710B500F03BF8006891
:1003400010BD10B5044600F035F8046010BD10B5BE
:10035000203AC0F00B80B1E81850203AA0E81850BD
:10036000B1E81850A0E81850BFF4F5AF5FEA027C7E
:1003700024BFB1E81850A0E8185044BF18C918C0ED
:10038000BDE810405FEA827C24BF51F8043B40F88E
:10039000043B08BF7047D20728BF31F8023B48BF73
:1003A00011F8012B28BF20F8023B48BF00F8012BB1
:1003B0007047000000487047341300200048704721
:1003C000341300207546FFF7F9FFAE460500694675
:1003D000534620F00700854618B020B5FFF752FFBE
:1003E000BDE820404FF000064FF000074FF0000836
:1003F0004FF0000B21F00701AC46ACE8C009ACE8B7
:10040000C009ACE8C009ACE8C0098D46704710B51A
:100410000446AFF300802046BDE81040FFF71DBF43
:1004200001491820ABBEFEE7260002007047D0ED60
:10043000000AC0ED010A80ED000AD0ED010A70EE5D
:10044000600AC0ED020AD0ED050AF1EE600AF0EE96
:10045000001A80EEA11AD0ED020AB4EEE01AF1EE15
:1004600010FA08DDD0ED020A90ED051A70EE810A4F
:10047000C0ED020A14E090ED051AF0EE001AC1EE8C
:10048000210A90ED021AF4EEC10AF1EE10FA07D239
:10049000D0ED020A90ED051A70EEC10AC0ED020A15
:1004A000D0ED060A90ED021A70EE810AC0ED060A40
:1004B000704770B505460C4600260DB1022C00D8D9
:1004C00070BD611EFF22284601F0AEFD0646601E8B
:1004D0002E5400BFF4E710B504F098F8A72140F2BD
:1004E000E73004F0AFF800F01BF800F003FA03F077
:1004F000FFFD04F041FD04F061FD4FF4E13004F034
:10050000E1FD4FF4E12004F095FE4FF4E12004F00A
:100510003BFF01F007FC02F0C3FA02F021FB10BD23
:1005200000B589B00121022002F0D8FC0121480663
:1005300002F0E4FC4FF44070009002208DF80400BB
:100540008DF8050000208DF8060001208DF80700C9
:100550006946274801F0C8FC09220821244801F017
:100560000BFD09221146224801F006FD00208DF8FE
:100570001E0001208DF81F008DF8200000208DF84E
:1005800021008DF8220001208DF8230000208DF835
:100590001A008DF81B0008208DF81C0003208DF830
:1005A0001D00ADF8180006A9124800F010FD00204B
:1005B0008DF812008DF8130001208DF81400002032
:1005C000ADF80800ADF80A00ADF80C00ADF80E006B
:1005D000ADF8100001208DF8150002A800F0DAFB3C
:1005E00001220221034800F0E9FC09B000BD00002F
:1005F000000402400064004010B52DED068B9E48BB
:100600000068B0F5017F7CD007DCA0F20120E0B3E8
:10061000012877D0022876D1A4E0A0F20520002896
:1006200072D0A0F2FB100028F5D19348007B9249CC
:10063000C97A40EA012000EE100AB8EEC00ADFEDE8
:100640008F0A80EE201A8E4880ED001A8A48817B3E
:10065000407B41EA002000EE100AB8EEC00ADFED50
:10066000870A80EE201A864880ED011A8248017CB4
:10067000C07B41EA002000EE100AB8EEC00ADFEDB0
:100680007F0A80EE201A7E4800E012E080ED021A18
:100690007948817C407C41EA002000EE100AB8EEE7
:1006A000C00ADFED760A80EE201A754880ED031A45
:1006B000DEE071480B3001F082FC00EE100AB8EE6B
:1006C000C00AB0EE402A6F48FFF7B1FE6D4890EDCA
:1006D000060A10EE101A084605F088FC41EC1A0BC9
:1006E0009FED690B53EC102B04F0EEFF41EC190B5E
:1006F0009FED670B53EC102B05F08EF941EC180BB6
:1007000003E042E01BE0B2E082E004F0F7FE624961
:10071000486059480B3001F058FC092190FBF1F07A
:1007200000EE100AB8EEC00A5C4880ED010A5C4891
:10073000B0F87000401C5A49A1F8700098E04E488B
:100740000B3001F042FC00EE100AB8EEC00A55482A
:1007500080ED120A5248B0F88400401C5049A1F8BC
:10076000840085E044480B3001F02FFC00EE100AB5
:10077000B8EEC00A4B4880ED230A4948B0F888001B
:10078000401C4749A1F8880072E03B480B3001F05B
:1007900016FC00EE100AB8EEC00AB0EE402A394846
:1007A0005430FFF744FE374890ED1B0A10EE101A44
:1007B000084605F01BFC41EC1A0B9FED330B53EC84
:1007C000102B04F081FF41EC190B9FED310B53EC22
:1007D000102B05F021F941EC180B04F08FFE2E4987
:1007E000C1F8D00024480B3001F0EFFB092190FB49
:1007F000F1F000EE100AB8EEC00A284880ED340A85
:100800002748B0F87C00401C2549A1F87C002FE067
:1008100019480B3001F0D3FB00EE100AB8EEC00A05
:10082000B0EE402A2048FFF702FE1F4890ED060A6E
:10083000B1EE400A1D4880ED010A0F480B3001F06F
:10084000C4FB00EE100AB8EEC00A1748D0ED040A47
:1008500080EE201AB1EE410A154880ED010A1048D9
:10086000B0F89000401C0E49A1F8900000BF00BFF6
:1008700000BFBDEC068B10BD580600200000C8422A
:10088000B811002048110020000000000000C04006
:100890000000000000004440280F00203810002015
:1008A000D0110020180E0020140400203004002075
:1008B0007404002010B502210B4800F0EFFA88B153
:1008C0000221094800F012FA084A0021064800F007
:1008D00008FCFFF791FE0648B0F86400401C04498C
:1008E000A1F8640010BD000000640040580600201C
:1008F000D011002000B589B00121022002F0EEFAEB
:100900000121480602F0FAFA0121880602F0F6FAFF
:100910006020009002208DF804008DF80500002072
:100920008DF8060001208DF807006946274801F080
:10093000DBFA09220521254801F01EFB09220621C8
:10094000224801F019FB00208DF81E0001208DF8CF
:100950001F008DF8200000208DF821008DF8220066
:1009600001208DF8230000208DF81B0008208DF851
:100970001C0003208DF81D00ADF8180006A91448CE
:1009800000F025FB0E208DF8120000208DF81300DA
:1009900001208DF814000020ADF80800ADF80A0021
:1009A000ADF80C00ADF80E00ADF8100001208DF888
:1009B000150002A800F0EEF90E208DF812000122B9
:1009C0000221034800F0FAFA09B000BD0004024019
:1009D0000068004010B52DED068BA2480068A0F21B
:1009E000012005287DD2DFE800F08A9DDFFD0300AD
:1009F0009D48008A401C9C4908829C480078E8B3C6
:100A000098480B3001F0DBFA00EE100AB8EEC00A8D
:100A1000974880ED000A90ED000A80ED060AD0EDBF
:100A2000050AB0EE001A80EE810AD0ED060A9FEDAD
:100A3000911A70EEC10AB4EEE00AF1EE10FA08D293
:100A400090ED060AD0ED050A30EE600A80ED060A48
:100A50001DE0874890ED050AF1EE400AB0EE001A5D
:100A600080EE810AD0ED060A9FED821A70EEC10A6F
:100A7000B4EEE00AF1EE10FA09DD00E00BE090EDD3
:100A8000060AD0ED050A30EE200A80ED060A0020A5
:100A9000764908700CE073480B3001F090FA00EED4
:100AA000100AB8EEC00AB0EE402A7148FFF7BFFC4A
:100AB0006F4890ED060ADFED6F0A30EE600ADFED59
:100AC0006E0A20EE200ADFED6D0A80EE201A6C48D7
:100AD00080ED001A63480B3001F077FA00EE100A3F
:100AE00000E0BAE0B8EEC00A664880ED000A664849
:100AF000B0F89400401C6449A1F89400AEE0594855
:100B00000B3001F062FA00EE100AB8EEC00A5F483E
:100B100080ED010A5C48B0F88000401C5A49A1F8F9
:100B200080009BE04F480B3001F049FA00EE100ABC
:100B3000B8EEC00AB0EE402A5548FFF778FC54489A
:100B40001C3890ED0D0A10EE101A084605F04EFA0A
:100B500041EC1A0B9FED4F0B53EC102B04F0B4FD3E
:100B600041EC190B9FED4D0B53EC102B04F054FF8F
:100B700041EC180B04F0C2FC4A49886439480B3038
:100B800001F023FA092190FBF1F000EE100AB8EE13
:100B9000C00A454880ED120A3B48B0F87400401C7A
:100BA0003949A1F8740059E02E480B3001F007FADA
:100BB00000EE100AB8EEC00AB0EE402A34481C30ED
:100BC000FFF735FC32481C3890ED140A10EE101A6D
:100BD000084605F00BFA41EC1A0B9FED2E0B53EC77
:100BE000102B00E026E004F06FFD41EC190B9FEDA7
:100BF0002B0B53EC102B04F00FFF41EC180B04F0FF
:100C00007DFC2849C1F88C0016480B3001F0DDF955
:100C1000092190FBF1F000EE100AB8EEC00A22485C
:100C200080ED230A1848B0F87800401C1649A1F856
:100C3000780013E00B480B3001F0C7F900EE100A02
:100C4000B8EEC00A114880ED340A0F48B0F88C00A5
:100C5000401C0D49A1F88C0000E000BF00BFBDECB6
:100C6000068B10BD6C060020701200207C05002051
:100C7000700200200080AA440000B4430000004637
:100C8000C0030020C4030020D0110020180E002053
:100C900064110020000000000000C04000000000BF
:100CA00000004440280F00203810002010B5022119
:100CB0000B4800F0F3F888B10221094800F016F85B
:100CC000084A0021064800F00CFAFFF783FE0648A8
:100CD000B0F86800401C0449A1F8680010BD00008D
:100CE000006800406C060020D0110020B1F5007FA4
:100CF0003AD00FDC202928D006DC01291CD0042999
:100D00001DD0082940D11DE0402921D0B1F5807FB8
:100D10003AD126E0B1F5004F31D006DCB1F5806F55
:100D200025D0B1F5006F2FD124E0B1F5803F12D06E
:100D3000B1F5003F28D111E0154A826025E0082274
:100D4000C26022E01022C2601FE0082202611CE0A3
:100D50001022026119E00822426016E0102242606F
:100D600013E00422426010E0042242600DE00422FD
:100D700042600AE0002282610422426005E0002213
:100D800082610422426000E000BF00BF70470000A3
:100D90000101010010B50021837A012202FA03F15A
:100DA0003D4A126842F001023B4B1A603A4A1C323B
:100DB00012688A43384B1C331A60027BCAB9364A20
:100DC0000C3212688A43344B0C331A604288C38851
:100DD00042EA0343304A4032847A42F8343002888F
:100DE000838842EA03432C4A4032847A02EBC402ED
:100DF0005360027B012A19D1274A0C3212680A4338
:100E0000254B0C331A604288038842EA0343224A86
:100E10004032847A42F83430C288838842EA0343FD
:100E20001D4A4032847A02EBC4025360C27A3AB956
:100E3000194A121D12688A43174B1B1D1A6006E0DF
:100E4000154A121D12680A43134B1B1D1A600289B2
:100E500032B9114A143212688A430F4B14331A60A4
:100E60000289012A06D10C4A143212680A430A4B3D
:100E700014331A60427B012A06D1074A1C321268D9
:100E80000A43054B1C331A60034A126822F0010220
:100E9000014B1A6010BD00000066004070B50446AA
:100EA0000D46002660692840002871D0B5F5807F86
:100EB0005CD010DC082D35D006DC012D20D0022DB1
:100EC00024D0042D72D127E0102D31D0202D35D023
:100ED000402D6BD138E0B5F5004F60D009DCB5F599
:100EE000007F49D0B5F5806F4CD0B5F5006F5DD16E
:100EF0004FE0B5F5803F2DD0B5F5003F56D12FE03E
:100F0000A0682D4900F004FD064651E0E068032189
:100F100000F0FEFC06464BE0E068082100F0F8FC1B
:100F2000064645E0E068102100F0F2FC06463FE08E
:100F30002069032100F0ECFC064639E02069082115
:100F400000F0E6FC064633E02069102100F0E0FCEA
:100F500006462DE06068082100F0DAFC064627E02E
:100F60006068102100F0D4FC064621E0A069012150
:100F700000F0CEFC06461BE0A069022100F0C8FC90
:100F8000064615E0A069042100F0C2FC06460FE009
:100F90000FE0A069702100F0BBFC064608E0606825
:100FA000042100F0B5FC064602E0FFE7002600BF82
:100FB00000E00026304670BD010101001AB143690E
:100FC0000B43436102E043698B434361704730B593
:100FD000024600200023146824F002041460146800
:100FE00044F00104146000E05B1C546804F0010448
:100FF0001CB94FF6FF74A342F6D1546804F0010403
:101000000CB900206CE08C79012C04D1146844F0F8
:101010008004146003E0146824F080041460CC7928
:10102000012C04D1146844F04004146003E01468F7
:1010300024F0400414600C7A012C04D1146844F0AC
:101040002004146003E0146824F0200414604C7A37
:10105000012C04D1146844F01004146003E01468F7
:1010600024F0100414608C7A012C04D1146844F02C
:101070000804146003E0146824F008041460CC7AB7
:10108000012C04D1146844F00404146003E01468D3
:1010900024F0040414608C78A407CD7844EA056435
:1010A0000D7944EA05444D7944EA05540D886D1ED6
:1010B0002C43D461146824F001041460002300E080
:1010C0005B1C546804F001041CB14FF6FF74A3428A
:1010D000F6D1546804F001040CB1002000E00120B6
:1010E00030BD10B500F5D87303EB01131B6803F096
:1010F00004031372137A53B900F5D87303EB011389
:101100001B6840F2FF7404EA5353136009E000F5D2
:10111000D87303EB01131B686FF0604404EAD30338
:10112000536000F5D87303EB01131B6803F002034F
:10113000537200F5D87303EB01135B6803F00F03E0
:10114000937200F5D87303EB01135B681B0AD37429
:1011500000F5D87303EB01139B68D37200F5D873C5
:1011600003EB01139B681C0A147300F5D87303EB9F
:1011700001139B681C0C547300F5D87303EB011327
:101180009B681B0E937300F5D87303EB0113DB68A8
:10119000D37300F5D87303EB0113DB681C0A1474D6
:1011A00000F5D87303EB0113DB681C0C547400F5D5
:1011B000D87303EB0113DB681B0E937421B9C3686A
:1011C00043F02003C36003E0036943F0200303619D
:1011D00010BD2DE9F04385B081460E4614461D46EC
:1011E000DDE90C7800208DF80800009608208DF8C5
:1011F0000A0000208DF80900200A8DF80B00E1B2EA
:101200008DF80C10290A8DF80D10E9B28DF80E102A
:10121000390A8DF80F10F9B28DF810104FEA182125
:101220008DF8111008F0FF018DF81210694648463C
:1012300000F003F805B0BDE8F08310B502460020C9
:10124000936803F08063B3F1806F00D110E093687E
:1012500003F00063B3F1006F01D1012008E093684F
:1012600003F08053B3F1805F01D1022000E004203D
:10127000042874D002F5C07303EB00131B6803F05D
:10128000010402F5C07303EB00131C600B7A7BB9F9
:101290004B7A0C8843EA445302F5C07404EB001403
:1012A0002468234302F5C07404EB0014236010E0AB
:1012B0000B7A4C6843EAC4034C7A234302F5C074AA
:1012C00004EB00142468234302F5C07404EB0014FB
:1012D00023608B7A03F00F038B7202F5C07303EB6C
:1012E00000135B6823F00F0402F5C07303EB0013D7
:1012F0005C6002F5C07303EB00135B688C7A2343D8
:1013000002F5C07404EB001463608B7B1C064B7BFE
:1013100044EA03440B7B44EA0323CC7A234302F5DB
:10132000C07404EB0014A3608B7C1C064B7C44EA65
:1013300003440B7C44EA0323CC7B234302F5C074B3
:1013400004EB0014E36002F5C07303EB00131B68A9
:1013500043F0010402F5C07303EB00131C6010BDE1
:1013600010B52DED068B044694ED000AD4ED010A6C
:1013700030EE600A84ED080A94ED0A0AD4ED080AFA
:1013800030EE200A84ED0A0AD4ED0E1AB0EE611A8E
:10139000D4ED0E1AF1EE611AF0EE610AD4ED0A1ADC
:1013A000B0EE610A00F0BDFA84ED0A0A94ED030A7A
:1013B000D4ED0A0A20EE200A84ED060AD4ED021AC2
:1013C00094ED082A61EE821AB0EE610AD4ED0D1A8E
:1013D000B0EE611AD4ED0D1AF1EE611AF0EE610A69
:1013E00000F09FFA84ED050AD4ED081A94ED092A5D
:1013F00071EEC21A94ED042A61EE821AB0EE610A0F
:10140000D4ED0F1AB0EE611AD4ED0F1AF1EE611A95
:10141000F0EE610A00F085FA84ED070A94ED100AF7
:1014200010EE101A084604F0E1FD41EC180B94EDA3
:10143000080A10EE101A084604F0D8FD41EC1A0B09
:10144000B0EE4A0AF0EE6A0A03F04EFDB0EE409AA2
:10145000F0EE609A53EC182B51EC190B04F0A0FA43
:1014600003D29FED140A84ED0A0A94ED050AD4ED27
:10147000060A30EE200AD4ED070A30EE200A84ED89
:101480000B0A94ED080A84ED090AD4ED0C1AB0EEAB
:10149000611AD4ED0C1AF1EE611AF0EE610AD4ED86
:1014A0000B1AB0EE610A00F03CFA84ED0B0ABDECB9
:1014B000068B10BD0000000010B52DED068B044614
:1014C00094ED000AD4ED010A30EE600A84ED080ABA
:1014D00094ED100A10EE101A084604F087FD41EC56
:1014E000180B94ED080A10EE101A084604F07EFD61
:1014F00041EC1A0BB0EE4A0AF0EE6A0A03F0F4FC73
:10150000B0EE409AF0EE609A53EC182B51EC190BA8
:1015100004F046FA07D294ED0A0AD4ED080A30EE38
:10152000200A84ED0A0AD4ED0E1AB0EE611AD4ED49
:101530000E1AF1EE611AF0EE610AD4ED0A1AB0EE5D
:10154000610A00F0EEF984ED0A0A94ED030AD4ED85
:101550000A0A20EE200A84ED060AD4ED021A94ED60
:10156000082A61EE821AB0EE610AD4ED0D1AB0EECF
:10157000611AD4ED0D1AF1EE611AF0EE610A00F075
:10158000D0F984ED050AD4ED081A94ED092A71EE1C
:10159000C21A94ED042A61EE821AB0EE610AD4ED0B
:1015A0000F1AB0EE611AD4ED0F1AF1EE611AF0EED7
:1015B000610A00F0B6F984ED070A94ED050AD4ED4E
:1015C000060A30EE200AD4ED070A30EE200A84ED38
:1015D0000B0A94ED080A84ED090AD4ED0C1AB0EE5A
:1015E000611AD4ED0C1AF1EE611AF0EE610AD4ED35
:1015F0000B1AB0EE610A00F094F984ED0B0ABDEC11
:10160000068B10BD30B52DED108B83B004469FEDD9
:101610007B0AB0EE40FA94ED000AD4ED060A30EEF3
:10162000600A84ED020A94ED030AD4ED040A20EE68
:10163000200AB0EE408A94ED040A20EE080A10EE6B
:10164000105A94ED020AD4ED040A94ED011A00EE4A
:10165000810AF0EE408A18EE900A04F0C7FC41ECD3
:101660001E0BB0EE4E0AF0EE6E0A03F03DFCB0EE3B
:1016700040DAF0EE60DA94ED030AF2EE000A20EEB2
:10168000200A10EE101A084604F0B0FC53EC1D2B93
:10169000CDE900019DED000B51EC100B04F0BCF9FD
:1016A00041EC1B0B28EE080A10EE101A084604F055
:1016B0009DFC41EC1C0B53EC1B2B03F051FF41EC48
:1016C0001A0BB0EE4A0AF0EE6A0A03F017FCB0EE0D
:1016D000409AF0EE609A51EC190B03F00FFF029064
:1016E000284604F083FC41EC190B18EE900A04F034
:1016F0007DFC41EC1B0BB0EE4B0AF0EE6B0A03F0E5
:10170000F3FBB0EE40AAF0EE60AA53EC192B51ECBB
:101710001A0B04F07FFA18D2B0EE680A02F0AAF9A8
:1017200000EE100AF8EEC00A9DED020A30EE480AFB
:1017300060EE800AB0EE001A80EE810AD4ED010A54
:1017400030EE200AB0EE40FA09E0D4ED040A88EE4B
:10175000A00AD4ED010A30EE200AB0EE40FA18EEED
:10176000100A04F043FC41EC190B1FEE100A04F0C0
:101770003DFC41EC1B0BB0EE4B0AF0EE6B0A03F0A4
:10178000B3FBB0EE40AAF0EE60AA53EC192B51EC7B
:101790001A0B04F03FFA10D2B0EE4F0A02F06AF9C9
:1017A00000EE100AB8EEC00AD4ED030ABFEE001A2C
:1017B00060EE810A60EE20FA09E094ED030AFFEE84
:1017C000000A20EE200A20EE0F0AC0EE08FA94ED7F
:1017D000000AD4ED050A94ED011A00EE810A84EDA9
:1017E000000A94ED010AD4ED050A00EEAF0A84ED7B
:1017F000010A03B0BDEC108B30BD000000000000FA
:101800001CB53B480078052821D2DFE800F0030A28
:1018100011181F00002001F0DFFF002002F034FA51
:1018200016E0032001F0D8FF002002F02DFA0FE0AF
:10183000022001F0D1FF022002F026FA08E0012088
:1018400001F0CAFF012002F01FFA01E000E000BF32
:1018500000BF284890ED3E0ABDEEC00A10EE100A07
:1018600000B2254991ED2D0ABDEEC00A10EE101A06
:1018700009B2CDE90010204890ED1C0ABDEEC00A67
:1018800010EE100A03B21B4890ED0B0ABDEEC00A21
:1018900010EE100A02B24FF400711848FFF799FCDD
:1018A000154890ED3E0ABDEEC00A10EE100A00B2D7
:1018B000104991ED2D0ABDEEC00A10EE101A09B2C2
:1018C000CDE900100B4890ED1C0ABDEEC00A10EEE9
:1018D000100A03B2084890ED0B0ABDEEC00A10EEE4
:1018E000100A02B24FF400710548FFF772FC1CBDEC
:1018F000C004002038100020180E002000640040B2
:101900000068004010B5FFF77BFF02F015F810BD2E
:101910000246002002EA01030BB1012000E0002092
:101920007047F0EE401AF4EEE01AF1EE10FA02D22F
:10193000B0EE600A09E0F4EEC11AF1EE10FA02DD31
:10194000B0EE410A01E0B0EE610A70470246094B71
:101950009A4201D2084801E00648103801F00053CD
:101960001BB1064B0B40C36002E0044B0B4083608D
:101970007047000010640240006002407D0F7D0F40
:1019800021B1026842F00102026003E0026822F025
:101990000102026070470000016821F0010101604E
:1019A0000021016041608160C160016121214161CC
:1019B0004A49884204D13D21484A103A91608CE05E
:1019C00046491831884205D14FF47461434A103AB0
:1019D000916082E041493031884205D14FF4741161
:1019E0003E4A103A916078E03C494831884205D13E
:1019F0004FF07461394A103A91606EE037496031B6
:101A0000884204D13649354A103AD16065E03349FD
:101A10007831884204D13349304A103AD1605CE0D1
:101A20002E499031884204D12F492C4A103AD16076
:101A300053E02A49A831884205D14FF03D51274A49
:101A4000103AD16049E02949884204D13D21274A12
:101A5000083A116041E025491831884205D14FF418
:101A60007461224A083A116037E0204930318842D7
:101A700005D14FF474111D4A083A11602DE01B493D
:101A80004831884205D14FF07461184A083A116014
:101A900023E016496031884204D11149134A121FCC
:101AA00011601AE011497831884204D10D490F4A7A
:101AB000121F116011E00D499031884204D10A498A
:101AC0000A4A121F116008E00849A831884204D16F
:101AD0004FF03D51054A121F1160704710600240DF
:101AE0003D000020400F002000003D201064024017
:101AF000014600200A6802F001020AB1012000E05C
:101B0000002070470146486880B2704710B5002237
:101B10000268134B1A40CC680B6823434C6923437B
:101B20008C692343CC6923430C6A23434C6A2343C7
:101B30008C6A23434C6B23438C6B23431A43026010
:101B4000426922F00702D1E90B3423431A43426170
:101B50000B6943604B6883608B68C36010BD0000F5
:101B60003F801CF010B525480078072803D10920D4
:101B70002349887006E0214800786B2802D10A20AA
:101B80001F49887004201E49C8701E4890ED010A44
:101B90001D4880ED000A084680ED010A1B4890EDC3
:101BA000010A1B4880ED000A084680ED020A194828
:101BB00090ED000A184880ED000A084680ED030AFF
:101BC00000F09CFC154880ED000A0D4880ED040AE9
:101BD00013491448FFF7BAFE00211248FFF7D0FE60
:101BE000074810490C31086016200E49091D08608D
:101BF00001210C48FFF7C4FE10BD00006801002061
:101C0000E40100204C0D002044020020FC020020D2
:101C1000480200206C0100204C02002050020020ED
:101C200000802020A064024010B5194800780128E7
:101C30000ED1184890ED000A174880ED060AFFF70C
:101C4000E1FC154890ED000A144880ED000A05E01B
:101C5000104890ED000A114880ED000A104890ED00
:101C6000000A104880ED010A0C48FFF725FC0B48DC
:101C700090ED0B0A0B4880ED000AFFF71DFC0948A8
:101C800090ED0B0AB1EE400A80ED0B0A10BD00008A
:101C900010060020BC030020A0030020FC0200204E
:101CA000CC03002040030020F0EE400A1B4A1278CB
:101CB0008A4203DD0022194B1A7017E0174A127886
:101CC00000EB820292ED000A154A92ED001A31EE05
:101CD000400A82ED000A114A127800EB8202C2ED3E
:101CE000000A0E4A1278521C0C4B1A700B4A1278DA
:101CF000521E00EB820292ED000A094A92ED001A90
:101D000030EE010A82ED000A92ED001A00EE101A80
:101D1000F8EE401A81EE210A704700008405002089
:101D20008005002000200AE09FED060AC0EBC001FC
:101D3000054A02EB810181ED050A411CC8B2042865
:101D4000F2DB7047000000464811002090ED001AB9
:101D5000B4EEC01AF1EE10FA01D2002109E090EDC4
:101D6000001AB4EEC01AF1EE10FA01DD012100E014
:101D70000221C9B990ED001AB4EEC01AF1EE10FAC2
:101D800002DB80ED000A2AE090ED001A31EE201A05
:101D900080ED001A90ED001AB4EEC01AF1EE10FAC0
:101DA0001DDB80ED000A1AE0012918D190ED001A20
:101DB000B4EEC01AF1EE10FA02D880ED000A0EE07F
:101DC00090ED001A31EE601A80ED001A90ED001AC5
:101DD000B4EEC01AF1EE10FA01D880ED000A704797
:101DE00010B52DED048B002449E0C4EBC400264A55
:101DF00002EB800090ED000A244800EB8400D0ED57
:101E0000000A30EE600A10EE101A084604F0EEF8F0
:101E100041EC190BB0EE490AF0EE690A03F064F8E0
:101E2000B0EE408AF0EE608A9FED190B53EC102B58
:101E300051EC180B03F0B4FD09D89FED170A04EB21
:101E40000410164901EB800080ED0C0A15E09FEDAF
:101E5000140A04EB0410114901EB800080ED0C0A18
:101E600004EB04100F4901EB800090ED010A04EB34
:101E7000041001EB800080ED000A601CC4B2042C49
:101E8000B3DBBDEC048B10BD48110020CC05002055
:101E9000000000000000794000C05A4538100020C2
:101EA00000000000280F002010B5B1B94FF47A727D
:101EB00092FBF0F2094BD3F89830094C24681B1BB5
:101EC0009A420AD2074A1288521C12B2054B1A8053
:101ED000024AD2F89820024B1A6010BDD01100209F
:101EE000C4050020E4030020F0B50A4600210023C9
:101EF000002400BF3DE0012505FA01F3156805EA5D
:101F000003049C4234D105684F000326BE40B5430C
:101F1000056015794E00B5400668354305601579B2
:101F2000012D02D01579022D16D185684F000326A8
:101F3000BE40B543856055794E00B540866835434F
:101F40008560456801268E40B543456045689679B1
:101F50008E40B6B235434560C5684F000326BE408B
:101F6000B543C560D5794E00B540C6683543C560F8
:101F7000491C1029BFD3F0BDF0B5002300244D0744
:101F8000ED0E02FA05F3CE1000F1200555F82650AB
:101F90004E07F70E0F26BE40B543CF1000F12006C6
:101FA00046F82750CE1000F1200555F8265045EA96
:101FB0000304CE1000F1200545F82640F0BD01468F
:101FC0004A780B7842EA0320704710B501464FF675
:101FD000FF728B7803F080033BB113048C7843EAE3
:101FE0000423CC7843EA040003E0CB788C7843EAFE
:101FF000042010BD30B5034613B94FF6FF7030BD55
:1020000009E013F8014B82EA0400C0B2054D35F82F
:10201000100080EA2222081EA1F10101F1D1104630
:10202000EDE70000E461000830B5034605E013F871
:10203000010B80EA02040448025D081EA1F10101BF
:10204000F5D1104630BD0000E3600008104800786C
:1020500001280FD10E48D0F805000E4908600C4841
:10206000D0F8010000EE100AB1EE400A0A4880EDF7
:10207000000A0CE0094890ED010A064880ED000ACC
:10208000054890ED010AB1EE400A80ED000A704764
:102090001C0D0020BC0300204C0D0020FC02002081
:1020A0001CB52F48C08FB0F5617F35DB2C48C08F41
:1020B000B0F57A7F30DC2B48007858B99FED2A0ABA
:1020C0002A4880ED0C0A2A4890ED010A294880ED43
:1020D000000A31E02348007801280AD1F2EE040A10
:1020E0009FED250A21483030FFF730FE00F048F818
:1020F00022E01C480078022803D01A480078032800
:102100001AD1F2EE040A9FED1C0A18483030FFF78E
:102110001DFEFFF79BFF0FE01148C08FB0F5617FF8
:102120000ADA9FED110A114880ED0C0A104890ED73
:10213000010A104880ED000AFFF776FD00200090AC
:1021400001900A4890ED0B0ABDEEC00A10EE100A8D
:1021500002B2002340F2FF110848FFF73AF81CBD15
:10216000D0110020C0040020000000004003002027
:10217000FC020020BC03002000C0DA4600680040DA
:1021800010B52DED088B01206B4908706B48008855
:10219000A0F58060002804DD68480088A0F5806014
:1021A00003E066480088C0F58060142803DA4FF425
:1021B00080606249088061484088A0F580600028FE
:1021C00004DD5E484088A0F5806003E05B484088FD
:1021D000C0F58060142803DA4FF4806057494880C6
:1021E00056484088A0F58060E8B35548C07801287B
:1021F00041D151480078B8B150484088A0F580607E
:1022000000EE100AF8EEC00A9FED4E1A80EE810A29
:10221000B3EE091AC0EE010A4B4890ED000A30EE09
:10222000600A80ED000A16E044484088A0F580600E
:1022300000EE100AF8EEC00A9FED421A80EE810A05
:10224000F2EE080A80EE201A3F4890ED000A30EEC8
:10225000410A80ED000A3C48D0ED000AB0EE600A69
:10226000B3EE0E1A00E006E0FBEE0E0AFFF759FB94
:10227000354880ED000A31480088A0F5806088B3B9
:102280002F48C078012853D12B48007858B32B48E9
:102290000088A0F5806000EE100AB8EEC00ADFEDFD
:1022A000290A80EE201A11EE104A204603F09EFE05
:1022B00041EC1B0B9FED250B53EC102B03F0ACFBFB
:1022C00041EC190B2348006803F090FE41EC1A0B17
:1022D00053EC192B03F044F941EC180B03F00EF901
:1022E0001C49086024E015480088A0F5806000EED5
:1022F000100AB8EEC00ADFED130A80EE201A9FED37
:10230000160A21EE000ADFED150A60EE200A9FEDA5
:10231000141A80EE810A9FED131AC0EE010A0D48CF
:1023200090ED000AB7EE081A00EE810A80ED000A6F
:10233000BDEC088B10BD00001C0600201E0C002008
:10234000C4120020000025444C0D00209A99999950
:102350009999A93FBC03002000806D450000B4435B
:10236000000000460000AF4410B52C480078552806
:1023700052D12A48407800284ED11821274802F02F
:1023800045FDB8B3182225492548FDF78DFF24489F
:10239000D0F8020000EE100AB1EE400A214880EDAC
:1023A000000A90ED000A2048FEF741F81E4890ED23
:1023B000060A1E4880ED010A1948D0F80E001C4993
:1023C00048601748D0F812001A4908601448807D08
:1023D00019490870194890ED000ADFED190AB4EEAA
:1023E000E00AF1EE10FA06D20D48D0F806001549C1
:1023F00008600AE010E00A48D0F8060000EE100A73
:10240000B1EE400A0F4880ED000A0F48B0F85800BE
:10241000401C0D49A1F8580010BD0000460C0020DA
:10242000BA010020C803002084030020FC02002021
:102430004C0D0020D4030020EC040020D003002029
:102440000000B442CC030020D011002010B51E487B
:10245000D0ED000AB0EE600A002000F03FFCB1EEC3
:10246000400A10EE100A1949C1F822001848B0F9C4
:102470000010164801841748008801B21348C18330
:102480001548C17811488176134801790F48C17603
:102490001148C1790D4801770F211830FEF709F86E
:1024A0000E490F48FFF752FA00210D48FFF768FA6E
:1024B000064818300A49583948660F20C865012176
:1024C0000748FFF75DFA10BD4C0D0020BA0100204F
:1024D000E4030020E0030020C41200200080001864
:1024E0005860024010B5FFF7DBFD03488089401CAF
:1024F0000149888110BD0000D011002070B5F74D52
:102500002D78072D7AD1F64D2D886DB9F54D2D8A90
:10251000002D09DDF44DD5F89850F44E35600025B6
:10252000F34E3570002418E0EF4DD5F89850EF4E7B
:102530003668AD1B42F21076B5420DD90125EC4E3E
:102540003570E84D2D8A5A2D04DCE64D2D8A0DB1EB
:10255000012402E0002400E00024E64D2D886DB93E
:10256000E04D6D8A002D09DDDF4DD5F89850E24E23
:1025700035600025E14E3570002118E0DA4DD5F8C0
:102580009850DD4E3668AD1B42F21076B5420DD93B
:102590000025DA4E3570D34D6D8A642D04DCD14DA3
:1025A0006D8A0DB1022102E0002100E00021D44D2E
:1025B0002D886DB9CB4DAD8A002D09DDCA4DD5F8FA
:1025C0009850D04E35600025CF4E3570002219E06E
:1025D000C54DD5F89850CB4E3668AD1B42F21076FB
:1025E000B5420ED90125C84E3570BE4DAD8A462D77
:1025F00005DCBC4DAD8A15B1032203E06BE000227F
:1026000000E00022C14D2D886DB9B64DED8A002D38
:1026100009DDB54DD5F89850BD4E35600025BD4E4D
:102620003570002318E0B04DD5F89850B84E366894
:10263000AD1B42F21076B5420DD90125B54E35706D
:10264000A84DED8A462D04DCA64DED8A0DB104237C
:1026500002E0002300E00023AF4D2D886DB9A14DAD
:102660002D8B002D09DDA04DD5F89850AB4E35606F
:102670000025AB4E3570002018E09B4DD5F89850E2
:10268000A64E3668AD1B42F21076B5420DD9012533
:10269000A34E3570934D2D8B462D04DC914D2D8B23
:1026A0000DB1052002E0002000E000208D4D2D8AB4
:1026B0008B4E35808B4D6D8A8E4E3580894DAD8A1F
:1026C0008F4E3580874DED8A904E3580854D2D8B10
:1026D000914E3580E9E0814D2D786B2DFAD1804DFA
:1026E0002D886DB97F4D2D88002D09DD7E4DD5F8E3
:1026F00098507E4E356000257D4E3570002418E0E0
:10270000794DD5F89850794E3668AD1B42F2107667
:10271000B5420DD90125764E3570724D2D885A2D52
:1027200004DC704D2D880DB1012402E0002400E08E
:102730000024704D2D886DB96A4D6D88002D09DD1E
:10274000694DD5F898506C4E356000256B4E35704C
:10275000002118E0644DD5F89850674E3668AD1BDF
:1027600042F21076B5420DD90125644E35705D4DAB
:102770006D88642D04DC5B4D6D880DB1022102E093
:10278000002100E000215E4D2D886DB9554DAD88CA
:10279000002D09DD544DD5F898505A4E356000256E
:1027A000594E3570002218E04F4DD5F89850554ECF
:1027B0003668AD1B42F21076B5420DD90125524E56
:1027C0003570484DAD88462D04DC464DAD880DB1C1
:1027D000052202E0002200E000224C4D2D886DB958
:1027E000404DED88002D09DD3F4DD5F89850484EFD
:1027F00035600025474E3570002318E03A4DD5F876
:102800009850434E3668AD1B42F21076B5420DD952
:102810000125404E3570334DED88462D04DC314D99
:10282000ED880DB1042302E0002300E000233A4DBF
:102830002D886DB92B4D2D89002D09DD2A4DD5F838
:102840009850364E35600025354E3570002018E022
:10285000254DD5F89850314E3668AD1B42F21076B2
:10286000B5420DD901252E4E35701E4D2D89462DB0
:1028700004DC1C4D2D890DB1052002E0002000E094
:102880000020184D2D88164E3580164D6D88194E36
:102890003580144DAD881A4E3580124DED881B4E93
:1028A0003580104D2D891C4E358042F210756543E0
:1028B00001EB4106C6EBC11605EBC60502EBC206ED
:1028C00006EB021605EB860503EB830605EB4605D2
:1028D000054400EE105AB8EEC00A70BD6801002031
:1028E000900500203B0B0020D01100209405002013
:1028F00014050020980500209C05002015050020E7
:10290000A0050020A405002016050020A805002031
:10291000AC05002017050020B0050020B4050020FC
:102920001805002010B54848807A022803D146488F
:10293000C07A022807D04448807A01280FD1424843
:10294000C07A01280BD100204049087001221146AD
:10295000104600F089F8002001F0FCF872E03A48D7
:10296000807A02280FD13848C07A03280BD1012081
:102970003649087000220121104600F075F8012048
:1029800001F0E8F85EE03048807A02280FD12E4846
:10299000C07A01280BD102202C4908700022114670
:1029A000104600F061F8012001F0D4F84AE0264812
:1029B000807A03280FD12448C07A01280BD1032044
:1029C0002249087000221146104600F04DF80120FF
:1029D00001F0C0F836E01C48807A03280FD11A486D
:1029E000C07A03280BD10420184908700022114630
:1029F000104600F039F8012001F0ACF822E012484E
:102A0000807A032807D11048C07A022803D1052014
:102A10000E49087016E00C48807A012807D10A4850
:102A2000C07A022803D10620084908700AE0064847
:102A3000807A012806D10448C07A032802D10720F1
:102A40000249087010BD00001E0C0020C0040020C8
:102A500010B5FFF767FF03480089401C0149088152
:102A600010BD0000D011002010B518B100230B4C90
:102A7000E37002E00123094CE37019B10023074C15
:102A8000237202E00123054C23721AB10023034C88
:102A9000A37202E00123014CA37210BDC4120020F6
:102AA00000204EE0B2EE040A00EB0011264A02EBD1
:102AB000810181ED020A9FED250A00EB001102EB76
:102AC000810181ED0C0A9FED210A00EB001102EB60
:102AD000810181ED0D0AB2EE040A00EB00111C4ADF
:102AE00002EB810181ED020A9FED1A0A00EB001151
:102AF000194A02EB810181ED020A9FED180A00EBF1
:102B00000011134A02EB810181ED0C0A9FED130ABB
:102B100000EB001102EB810181ED0D0A9FED0B0A24
:102B200000EB00110C4A02EB810181ED0C0A9FEDD4
:102B3000070A00EB001102EB810181ED0D0A411C37
:102B4000C8B20428AEDB7047180E00200000FA451A
:102B5000280F00200000C842381000200000FA446E
:102B600008B54FF4407000F0AFF825208DF8000054
:102B700000208DF801008DF8020001208DF803007F
:102B8000684600F065F826208DF8000000208DF8DA
:102B900001008DF8020001208DF80300684600F066
:102BA00057F827208DF8000000208DF801008DF8DF
:102BB000020001208DF80300684600F049F8472024
:102BC0008DF8000000208DF801008DF80200012032
:102BD0008DF80300684600F03BF83A208DF80000BD
:102BE00000208DF801008DF8020001208DF803000F
:102BF000684600F02DF814208DF8000001208DF8B3
:102C0000010000208DF8020001208DF803006846C5
:102C100000F01EF840208DF8000001208DF8010022
:102C200000208DF8020001208DF80300684600F0B6
:102C30000FF818208DF8000000208DF801008DF8A5
:102C4000020001208DF80300684600F001F808BD7D
:102C500070B5002100230F22C4781CB3174C2468E0
:102C600004F4E064C4F5E064C4F30721C1F1040492
:102C7000E3B20A4144789C40E1B284781440214395
:102C80000C07210E0E4C05786155047804F01F05E1
:102C90000124AC4005786D11AD0005F1E025C5F8C3
:102CA000004109E0047804F01F050124AC40054D03
:102CB0000678761145F8264070BD00000CED00E066
:102CC00000E400E080E100E002490143024A1160B3
:102CD000704700000000FA050CED00E0F0EE400A3D
:102CE000C8B10E490A780978491E0C4B19701AB1FF
:102CF0000B4991ED000A70470A4909680F22B1FBA0
:102D0000F2F302FB1311054A11700549C1ED000AE7
:102D100091ED000AEFE7B0EE600AECE785050020D0
:102D200088050020240C0040CBE00024C4E004EB24
:102D3000C400644901EB8000007A00287DD162481C
:102D4000006804EBC4015F4A02EB81010969401A83
:102D500004EBC40102EB810148615B48006804EBAD
:102D6000C40102EB8101086104EBC40102EB8101A3
:102D700048688047012004EBC401524A02EB8101FC
:102D800008725148006804EBC40102EB8101096933
:102D9000401A04EBC40102EB8101886104EBC4001A
:102DA000114601EB8000C06904EBC40102EB810114
:102DB0008969884206D904EBC400114601EB800002
:102DC000C06905E004EBC4003E4901EB8000806966
:102DD00004EBC4013B4A02EB8101C86104EBC4006F
:102DE000114601EB8000006A04EBC40102EB810193
:102DF0008969884206D204EBC400114601EB8000C9
:102E0000006A05E004EBC4002E4901EB80008069F4
:102E100004EBC4012B4A02EB8101086204EBC400FD
:102E2000114601EB80008069284909680844274958
:102E3000086004EBC400114600E012E001EB8000E2
:102E4000C0692349096808442149086004EBC400AB
:102E5000114601EB8000006A1E49096808441D49BB
:102E60000860002522E01848006805EBC501154AF6
:102E700002EB81010969401A05EBC50102EB8101F2
:102E8000C968884211D305EBC500114601EB8000EB
:102E9000007A022809D0002005EBC50102EB810170
:102EA0000872AC4201D96C1E04E06D1C0A4800682F
:102EB0008542D8D300BF641C074800688442FFF4F1
:102EC00036AF32E70C000020240C00400000002048
:102ED00004000020080000202C01002029B1064A2F
:102EE00012680243044B1A6004E0034A12688243EA
:102EF000014B1A60704700003038024029B1064A81
:102F000012680243044B1A6004E0034A12688243C9
:102F1000014B1A60704700004038024029B1064A50
:102F200012680243044B1A6004E0034A12688243A9
:102F3000014B1A60704700002038024029B1064A50
:102F400012680243044B1A6004E0034A1268824389
:102F5000014B1A60704700004438024029B1064A0C
:102F600012680243044B1A6004E0034A1268824369
:102F7000014B1A607047000024380240F0B5002170
:102F800000220024022500260223324F3F6807F06A
:102F90000C0121B1042905D0082937D105E02E4FB5
:102FA000076036E02D4F076033E02A4F3F1F3F6830
:102FB000C7F38056274F3F1F3F6807F03F036EB1AE
:102FC000264FB7FBF3F7DFF88CC0ACF1040CDCF84C
:102FD00000C0CCF3881C07FB0CF40CE01E4FB7FBC1
:102FE000F3F7DFF870C0ACF1040CDCF800C0CCF3F0
:102FF000881C07FB0CF4174F3F1F3F68C7F30147BE
:103000007F1C7D00B4FBF5F7076002E0124F0760FC
:1030100000BF00BF0F4F3F6807F0F0010909104FD4
:103020007A5C0768D74047600A4F3F6807F4E05171
:10303000890A0B4F7A5C4768D7408760054F3F6825
:1030400007F46041490B064F7A5C4768D740C76078
:10305000F0BD0000083802400024F40000127A009D
:103060001D0600200178427841EA0221C1F30A01DD
:103070001B4A11804178C910827841EA4211C1F39C
:103080000A01174A5180C1788911C27841EA820148
:10309000027941EA8221C1F30A01114A9180017942
:1030A0004910427941EAC211C1F30A010C4AD180A8
:1030B000017C427C41EA0221C1F30A01084A1181E4
:1030C00041790911890891724179C1F30111D172D5
:1030D0000449B1F84C10491C024AA2F84C10704740
:1030E0001E0C0020D011002010B542480089A0F528
:1030F0008060B0F5967F0FDD3F48007918B14FF43E
:103100002F703E4908603E48D0F898003D4908605D
:1031100001203D49087010E036480089A0F5806024
:1031200010F5967F09DA3448007930B14FF4FA701F
:10313000324908600020354908703148D0F89800BD
:1031400030490968401AB0F57A7F17D92B480068D2
:10315000B0F52F7F04D02E480068B0F52F7F0DD139
:103160002948007850B125480068B0F52F7F02D17A
:103170000120264908700020234908702348007860
:1031800050B31E480068B0F52F7F31D11A4800793E
:1031900010B31848C088A0F5806010F5967F04DA57
:1031A00000210120FEF780FE22E012488088A0F571
:1031B0008060B0F5967F04DD00210920FEF774FEE3
:1031C00016E00C48C088A0F58060B0F5967F04DD5D
:1031D00000210D20FEF768FE0AE006488088A0F571
:1031E000806010F5967F03DA00210F20FEF75CFE69
:1031F00010BD00001E0C0020C4120020E0030020BF
:10320000D0110020B8050020BC050020F8030020E4
:10321000DC03002070B505460C46164640F202213C
:10322000681A8D4279D013DCB5F5827F6AD008DC4C
:10323000012D1CD0032D2AD0A5F2011000286DD13C
:1032400049E0A5F2051000286AD0FC28F7D176E005
:10325000052870D006DC01286ED002286DD0042825
:10326000EDD10BE1062869D0FF28E8D15EE1D7480F
:103270000088401CD54908803246E11DD448FDF73E
:1032800013F8D348B0F80100D24908809BE1CF4839
:103290008088401CCD4988803246E11DCE48FDF72C
:1032A00003F8CE480078072808D1CB488089CC495C
:1032B0000880C948408BCB4908800BE0C74800789C
:1032C0006B2807D1C448808BC5490880C248408913
:1032D000C449088077E1BD488089401CBB4988818A
:1032E0003246E11DC048FCF7DFFFBF480088C0F34D
:1032F000802018B10120BD49087002E00020BB49C0
:10330000087060E1B148008A401CB049088232462A
:10331000E11DB748FCF7C8FF55E16AE052E1FFE75D
:10332000AA48808A401CA94988823246E11DB148DA
:10333000FCF7BAFF47E1ACE08AE094E0E7E0A3489D
:10334000008B401CA14908833246E11DAA48FCF7C6
:10335000ABFFA9480078A1490870A7484088A74951
:103360000880A548008BA6490880A3480089A54984
:103370000880A148C089A44908809F48C088A34903
:1033800008809D488089A2490880A248007870B9C9
:103390009A480088A0490988884208DA9F48B0F80E
:1033A00098009F49088001209A49087012E09B48C4
:1033B000D0F898009A490988401AB0F57A7F09D365
:1033C0000020944908709748008897490880002099
:1033D000944908809048008888490988401A914992
:1033E000098808448F490880844800888A490880F1
:1033F000E9E07648808B401C744988833246E11DA1
:103400008A48FCF751FF8A4890ED000A894880ED10
:10341000000A8648406886490860874800888749CE
:10342000088082480089844908808048408900B229
:10343000834908807D48808900B282490880012044
:10344000814908707548D0F8980080490860BAE052
:103450005E48008C401C5D4908843246E11D7C4872
:10346000FCF722FFAFE05948808C401C5749888404
:103470003246E11D7748FCF717FFA4E05348008D62
:10348000401C524908853246E11D7348FCF70CFF89
:1034900099E04E48808D401C4C4988853246E11D9C
:1034A0006E48FCF701FF6D4840786D49087008468A
:1034B0000078012813D16B480088401C69490880B6
:1034C00066488078684908706448D0F80300674906
:1034D000086067480088401C6549088016E060481D
:1034E0000078022812D163480088401C6149088096
:1034F0005A488078604908705848D0F803005F49FE
:1035000008605F480088401C5D4908805BE02F48E8
:10351000008E401C2D4908863246E11D5948FCF7B3
:10352000C3FE58480088584908804CE02748808EE0
:10353000401C264988865548D4F807100160B4F825
:103540000B108180B21F04F10D015148FCF7ACFE55
:103550004E480088B0F5007F18D14C4880881F493C
:103560000978884212D1494841881C480078401E99
:1035700081420BD14648007846490870444840785B
:103580004549087042488078444908703F4800889F
:1035900040F20121884214D13C4880880F490978C3
:1035A00088420ED1394841880C480078801C8142FD
:1035B00007D1374800783A4908703548407839498A
:1035C000087000E000BF00BF70BD00008C1200203A
:1035D000300B0020740100203B0B0020680100200C
:1035E0007601002078010020930100205A0100207C
:1035F0009B0100209D010020660B00205E01002041
:103600007C0100207E01002080010020820100203A
:10361000840100208E01002078050020D0110020B8
:10362000760500207A0500208C010020810B002007
:1036300060010020F00400206601002064010020E9
:10364000560100205801002090010020D4040020E1
:10365000910B00209E010020A0010020A10100206C
:103660008601002004050020690100206C01002073
:1036700088010020060500206A010020700100205A
:103680008A010020A80100205C010020B201002076
:10369000AD0B0020F5040020F40400208F01002071
:1036A000F7040020F60400202DE9F84F81460C466F
:1036B00092464FF0000B002500200090804676E0F7
:1036C000D9F8080010F80860BBF1070F6BD2DFE8EB
:1036D0000BF004111E2534434D00A52E07D1002503
:1036E0004FF0010BA52229466D1C625401E04FF0FA
:1036F000000B59E02846691CCDB22654032D05D194
:103700006078A17840EA01274FF0020B4CE0284690
:10371000691CCDB226544FF0030B45E02846691CC6
:10372000CDB226542946204601F070FB10B14FF06F
:10373000040B01E04FF0000B36E02846691CCDB2C7
:103740002654072D07D16079A17940EA01201A4952
:1037500008804FF0050B27E02846691CCDB226549F
:10376000F81DA84201D14FF0060B1DE02846691C48
:10377000CDB2265407F10900A84213D129462046AC
:1037800001F024FB70B13A4621460B480088FFF750
:1037900041FD4FF0000B0948B0F85000401C0749AC
:1037A000A1F8500000E000BF00BF08F10108D045BB
:1037B00086DBBDE8F88F000072050020D0110020E4
:1037C00010B5FEF743FE0348808B401C01498883F7
:1037D00010BD0000D011002010B50446002C7BD095
:1037E000012C04D0022C41D0032C76D180E00020A3
:1037F00012E09FED4B0A00EB00114A4A02EB8101F7
:1038000081ED0D0A9FED460A00EB001102EB8101EC
:1038100081ED0C0A411CC8B20428EADB424800785A
:1038200018B3424890ED000ADFED410A30EE200A5D
:1038300080ED000A90ED110ADFED3D0A30EE600ADE
:1038400080ED110A90ED220ADFED390A30EE200AF0
:1038500080ED220A90ED330ADFED350A30EE600A82
:1038600080ED330A00203049087055E0002012E056
:103870009FED2B0A00EB00112A4A02EB810181ED3A
:103880000D0A9FED270A00EB001102EB810181ED8B
:103890000C0A411CC8B20428EADB2348007830BB7C
:1038A000224890ED000ADFED220A30EE600A80ED3A
:1038B000000A90ED110ADFED1E0A30EE200A80EDBD
:1038C000110A90ED220ADFED1A0A30EE600A80ED4F
:1038D000220A90ED330A01E00DE01CE0DFED140A4E
:1038E00030EE200A80ED330A01200F49087013E002
:1038F000FEF776FA10E000200AE09FED0E0A00EBDA
:103900000011084A02EB810181ED0C0A411CC8B28A
:103910000428F2DB00E000BF00BF00F00DF810BD8E
:103920000000FA4538100020C8050020280F0020AC
:10393000000034420000000010B500241DE004EB3C
:1039400004110F4A02EB8100FDF7B6FD04EB0410F1
:103950000B4901EB800090ED0B0A04EB04100949C0
:1039600001EB800080ED000A04EB0411054A02EB34
:103970008100FDF7A1FD601CC4B2042CDFDB10BD8B
:10398000280F0020381000200CB500200190009076
:103990003448006840F480303249086000BF314844
:1039A000006800F4003000900198401C01900098DD
:1039B00018B90198B0F5A04FF1D12A48006800F479
:1039C000003010B10120009001E00020009000982C
:1039D000012846D123484030006840F080502149FA
:1039E000403108602048006840F440401E490860AB
:1039F0001C48083000681B49083108600846006808
:103A000040F4004008600846006840F4A050086098
:103A10001648091F0860081F006840F08070091FE1
:103A2000086000BF0F48006800F000700028F9D05F
:103A300040F205700E4908600A480830006820F01E
:103A400003000849083108600846006840F0020099
:103A5000086000BF03480830006800F00C00082828
:103A6000F8D10CBD003802400070004008544007F7
:103A7000003C0240B5EEC00AF1EE10FA01DD012073
:103A80007047B5EEC00AF1EE10FA02D24FF0FF30E7
:103A9000F6E70020F4E7000010B52548007801287B
:103AA00007D023480078022803D021480078032853
:103AB00001D1FFF719FB1F480078D8B19FED1E0A0E
:103AC0001E4880ED0C0A1E48D0ED000A1D48B0F9D2
:103AD00000001D49B1F90010401A1C49096848430B
:103AE00000EE100AB8EE400A30EE800A144880ED6D
:103AF000000A0EE09FED160A104880ED0C0A1048EF
:103B000090ED010A80ED000A0C4890ED010A80ED6D
:103B1000000A00F06FF8002000F02EF80548007849
:103B2000044948700748B0F900000749088010BDF3
:103B3000C0040020F803002000401C46740400204C
:103B400030040020E4030020E6030020D803002016
:103B50000000000018B10121054A117106E00021A2
:103B6000034A11714FF4FA71024A11607047000064
:103B7000C4120020DC030020A0BB1B49097869B1F6
:103B80001949497851B9194991ED060A164981ED4B
:103B9000010A91ED010A81ED020A0DE0124909784E
:103BA00051B1114991ED020A81ED010A0F4991EDE0
:103BB000060A0D4981ED020A0B4991ED020AD1ED89
:103BC000010A30EE600ADFED0A0A80EE201AB6EE36
:103BD000000A31EE000ABDEEC00A81ED050A49690E
:103BE000014AD16070470000F80300208C020020D9
:103BF0000066E6461CB51848007838B1164840788B
:103C000020B9164890ED010A80ED000A1348FDF72F
:103C1000A7FB124890ED0B0A9FED111AC0EE010AA6
:103C20009FED100A20EE800A0F4880ED000AFDF794
:103C300043FC0020009001900B4890ED0B0ABDEE74
:103C4000C00A10EE100A404202B2002340F2FF11F7
:103C50000648FDF7BEFA1CBDF80300203004002022
:103C6000000000460000B4437404002000640040DB
:103C700010B5FFF711FF0348008A401C0149088274
:103C800010BD0000D011002070B50546002D7BD07E
:103C9000012D02D0022D78D120E000200AE09FED16
:103CA0005C0A00EB00115B4A02EB810181ED0C0A1A
:103CB000411CC8B20428F2DB00240CE004EB041120
:103CC000544A02EB8100F2EE040A9FED530AFEF71C
:103CD0003DF8601CC4B2042CF0DB95E000200AE043
:103CE0009FED4B0A00EB00114A4A02EB810181ED86
:103CF0000C0A411CC8B20428F2DB48484088C0F5D1
:103D0000806000EE100AB8EEC00A424880ED000A5A
:103D100042484088A0F5806000EE100AB8EEC00A64
:103D20003C4880ED110A3D484088A0F5806000EED7
:103D3000100AB8EEC00A374880ED220A374840889A
:103D4000C0F5806000EE100AB8EEC00A314880ED80
:103D5000330A32480088A0F58060002816D52D4827
:103D6000D0ED000A2D480088A0F5806000EE100A12
:103D7000B8EEC00A30EE800A264880ED000A90EDC9
:103D8000000A80ED330A16E02DE03CE0234800886D
:103D9000A0F5806000280EDD20480088A0F5806036
:103DA00000EE100AB8EEC00A1A4880ED110A90ED34
:103DB000110A80ED220A002012E000EB0011154AE2
:103DC00002EB810191ED000AF2EE040A20EE200AD6
:103DD00000EB001102EB810181ED000A411CC8B229
:103DE0000428EADB10E000200AE09FED0D0A00EB5A
:103DF0000011084A02EB810181ED0C0A411CC8B296
:103E00000428F2DB00E000BF00BF00F00BF870BD3B
:103E10000000FA45180E00200080BB451E0C002053
:103E20000000000010B5002408E004EB0411054A6E
:103E300002EB8100FDF740FB601CC4B2042CF4DBF4
:103E400010BD0000180E0020A748D0F89800401CB4
:103E5000A549C1F898000846D0F898004FF47A7147
:103E6000B0FBF1F201FB120000287DD19E48808852
:103E70009D49C8800020888008460089488100202C
:103E8000088108468089C881002088810846008A08
:103E90004882002008820846808AC88200208882E2
:103EA0000846008B4883002008830846808BC8831F
:103EB000002088830846008C488400200884084637
:103EC000808CC884002088840846008D48850020A6
:103ED00008850846808DC885002088850846008EA4
:103EE0004886002008860846808EC886002088867E
:103EF0000846008F4887002008870846808FC887BB
:103F0000002088870846B0F84000A1F84200002051
:103F1000A1F840000846B0F84400A1F8460000208F
:103F2000A1F844000846B0F84800A1F84A00002073
:103F3000A1F848000846B0F84C00A1F84E00002057
:103F4000A1F84C000846B0F85000A1F8520000203B
:103F5000A1F850000846B0F85400A1F8560000201F
:103F6000A1F85400084600E0BDE0B0F85800A1F800
:103F70005A000020A1F858000846B0F85C00A1F8EB
:103F80005E000020A1F85C000846B0F86000A1F8CF
:103F900062000020A1F860000846B0F86400A1F8B3
:103FA00066000020A1F864000846B0F86800A1F897
:103FB0006A000020A1F868000846B0F89000A1F857
:103FC00092000020A1F890000846B0F87000A1F817
:103FD00072000020A1F870000846B0F87400A1F843
:103FE00076000020A1F874000846B0F87800A1F827
:103FF0007A000020A1F878000846B0F87C00A1F80B
:104000007E000020A1F87C000846B0F88000A1F8EE
:1040100082000020A1F880000846B0F88400A1F8D2
:1040200086000020A1F884000846B0F88800A1F8B6
:104030008A000020A1F888000846B0F88C00A1F89A
:104040008E000020A1F88C000846B0F89400A1F87A
:1040500096000020A1F89400244800882349488055
:104060000020088008468088C88000208880084694
:10407000008948810020088108468089C881002085
:1040800088810846008A4882002008820846808A83
:10409000C882002088820846008B4883002008835D
:1040A0000846808BC883002088830846008C48849B
:1040B000002008840846808CC88400208884084634
:1040C000008D4885002008850846808DC885002021
:1040D00088850846008E4886002008860846808E1F
:1040E000C886002088867047D01100208C120020DE
:1040F00030B5164800684FF47A72B0FBF2F1481EF2
:10410000B0F1807F01D301201BE0481E4FF0E02278
:10411000506150170F22002807DA13071D0E0C4BB1
:1041200000F00F04241F1D5503E013071C0E094B5C
:104130001C5400BF00204FF0E02290610720106166
:10414000002008B100BFFEE730BD00005C05002084
:1041500018ED00E000E400E010B51548006840F4F8
:104160007000134908601348006840F001001149CD
:10417000086000200F49083108600E4800680E49A9
:1041800008400C4908600D48091D0860081F0068B8
:1041900020F48020091F0860002006490C310860C7
:1041A000FFF7F2FB4FF0006001498039086010BD55
:1041B00088ED00E000380240FFFFF6FE10300024DA
:1041C00010B53E48FEF7DAFE00203D49A1F89C00FC
:1041D00000BF0DE03A49B1F89C1000EBC002394B2A
:1041E00003EB8202128B1144354AA2F89C10401C4A
:1041F000354909688842EDD33148B0F89E0030490E
:10420000B1F89C10884203DD2D48B0F89E0002E012
:104210002B48B0F89C002A49A1F89E000846B0F847
:104220005600B0F5FA7F03DA01202849C87002E091
:1042300000202649C8702248B0F85A00B0F5FA7F2D
:1042400003DA01202149487002E000201F4948702C
:104250001B48B0F852000A2803DA01201B490870F5
:1042600002E00020194908701548B0F8660040F2D5
:10427000DC51884203DA01201449487102E0002031
:10428000124948710E48B0F86A0040F6C4118842DD
:1042900003DA01200D49887102E000200B49887182
:1042A0000B484088B0F5487F03DA01200749C87100
:1042B00002E000200549C87110BD00002413002051
:1042C000D01100200C0000202C010020B804002098
:1042D0007012002010B5FFF773FF03488088401C60
:1042E0000149888010BD0000D0110020F0B50C46B7
:1042F000154600210022068C4FF6FE773E400684CC
:10430000018B028C4FF60C7631407E1C06EA0316B8
:104310002E4331434FF6F576324044F001063243E6
:1043200001830284F0BDF0B50C4615460021002241
:104330000026078C4FF6EF7C07EA0C070784018BF9
:10434000028C4FF6FF7707EA041640F6FF47394024
:104350004FF6FF7707EA033739434FF6FF7707EA4F
:10436000052739434FF65F773A4046F010073A4346
:1043700001830284F0BDF0B50C46154600210022F1
:104380000026078C4FF6FF6C07EA0C070784818B29
:10439000028C4FF6FF7707EA04264FF60C77394078
:1043A0004FF6FF7707EA03172F4339434FF2FF57C2
:1043B0003A4046F480773A4381830284F0BDF0B5F9
:1043C0000C461546002100220026078C4EF6FF7C85
:1043D00007EA0C070784818B028C4FF6FF7707EA08
:1043E000043640F6FF4739404FF6FF7707EA0527C6
:1043F00039434FF6FF7707EA0337394345F6FF772E
:104400003A4046F480573A4381830284F0BD00006D
:1044100010B52DED0C8B02216A4800F069F90028D7
:104420001BD00221674800F051F96648008C00F06B
:10443000020098B9002064490860624948626349F3
:10444000086000215F4800F044F902215D4800F057
:10445000A9F901215B4800F03CF9A2E05948008C21
:1044600000F002000028F8D0564800F03EF9564906
:1044700008600846006801F07FFA41EC1D0B9FEDD3
:10448000540B53EC102B01F0C7FA41EC1B0B4F49B6
:10449000086801F071FA41EC1C0B53EC1B2B01F086
:1044A0005FF841EC1A0B9FED4C0B53EC102B01F015
:1044B000B3FA41EC190B9FED4A0B53EC102B01F0B2
:1044C00003F941EC180B01F019F847490860084658
:1044D00090ED000A454880ED000AB1EE021ADFEDCA
:1044E000440A90ED000AFDF71CFA404880ED000AEE
:1044F0003D48006801F07AFD41EC180B9FED3D0B43
:1045000053EC102B01F086FB05D2384890ED000AE1
:10451000354880ED000A354890ED000A3248D0ED6C
:10452000000A30EE600A10EE101A084601F05EFD37
:1045300041EC190BB0EE490AF0EE690A00F0D4FC28
:10454000B0EE408AF0EE608A9FED2C0B53EC102BFE
:1045500051EC180B01F05EFB05D2244890ED000AE7
:10456000214880ED000A204890ED000A0A212548E4
:10457000FDF79AFB1C4880ED000A90ED000ADFED84
:10458000220A20EE200A80ED000A00210D4800F0EA
:10459000A0F800210B4800F005F90121094800F0BE
:1045A00098F80121074800F0A3F840B1012105481F
:1045B00000F08CF805480068401C04490860BDEC18
:1045C0000C8B10BD00400140E4040020DC040020FE
:1045D000FCA9F1D24D62503FC3F5285C8FC2D53F94
:1045E0000000000000000040E8040020340100202A
:1045F000000000000000000000001240333333339D
:104600003333D33F3006002000007A440EB5012139
:104610000820FEF773FC5320ADF800004FF0FF3088
:1046200001900020ADF80200ADF80800694604488A
:1046300000F0EEF80121024800F04BF80EBD00003A
:10464000000C004030B589B005460C4601210846F3
:10465000FEF744FC01210804FEF770FC04200190E1
:1046600002208DF808008DF8090000208DF80A005E
:1046700002208DF80B0001A91248FDF735FC03223A
:1046800002211048FDF778FC0020ADF82000ADF8BD
:104690001A000795ADF8184006A90B4800F0B8F8C5
:1046A00003A800F06DF803A9074800F032F80122D2
:1046B0000321054800F06DF80121034800F009F8D6
:1046C00009B030BD0000024000400140CA430282F0
:1046D000704721B1028842F00102028004E00288A2
:1046E0004FF6FE731A40028070470146486B7047D0
:1046F00030B50246002000230024158A05EA010394
:10470000958905EA010413B10CB1012000E00020F5
:1047100030BD70B505460C46208850B92389A28863
:1047200061882846FFF7E2FDE188284600F043F85B
:1047300025E0208804280AD12389A2886188284698
:10474000FFF7F1FDE188284600F03EF817E02088E9
:1047500008280AD12389A28861882846FFF70BFE22
:10476000E188284600F03DF809E02389A2886188A5
:104770002846FFF724FEE188284600F03BF870BD8C
:10478000002101804180012181800021C1800181BF
:1047900070471AB183890B43838102E083898B437D
:1047A000838170470A460021018C4FF6FD73194042
:1047B000114301847047028B4FF6F3731A40028352
:1047C000028B0A4302837047028B4FF2FF331A4079
:1047D0000283028B4FF6FF7303EA01231A4302831D
:1047E0007047828B4FF6F3731A408283828B0A43A1
:1047F00082837047828B4FF2FF331A408283828B11
:104800004FF6FF7303EA01231A43828370470000C7
:1048100000220288184B98420ED0184B98420BD0B9
:10482000B0F1804F08D0164B984205D0154B9842F6
:1048300002D0154B984204D14FF68F731A404B8823
:104840001A43124B984207D0114B984204D04FF6AE
:10485000FF431A400B891A4302804B68C3620B88DE
:104860000385054B984202D0044B984201D18B7AC4
:104870000386012383827047000001400004014049
:104880000004004000080040000C00400010004000
:104890000014004010B540F22441144800F080F9A3
:1048A000012822D111480088104880881048FDF75F
:1048B00029F9104908600E48FDF724F9122808D19B
:1048C0000D48FEF7CFFB0D48808E401C0B498886B3
:1048D0000BE000210648FDF753F812200449091D9A
:1048E000086001210248FDF74BF810BD001001409F
:1048F0004064024030010020340C0020D011002020
:1049000010B540F22441174800F04AF940B340F294
:104910002441144800F0A8F8124800881148001DEE
:104920000088114800F0F6F9044622460F490E4867
:10493000FEF7BAFE0E48B0F8520060B900210D48EB
:10494000FDF71EF84FF4FA700A49091D08600121AD
:104950000848FDF715F80648008F401C04490887F1
:1049600010BD00000044004038010020360A00203D
:10497000D01100208860024010B540F22441124856
:1049800000F00EF901281DD10F4800880E48001DC7
:1049900000880E48FDF7B6F8182807D1FDF7E4FCAB
:1049A0000B48808F401C0A4988870BE0002107488C
:1049B000FCF7E6FF182005492839C86201210348A1
:1049C000FCF7DEFF10BD00000048004028600240F8
:1049D000D011002010B540F224411E4800F0E0F84C
:1049E000012835D11B4800881A48001D00881A4844
:1049F000FDF788F826281FD118480078552813D1CC
:104A00001648407880B916481449897801702022E8
:104A10001249091D401CFBF747FC1248B0F8600022
:104A2000401C1049A1F860000E48B0F84800401C36
:104A30000C49A1F848000BE000210748FCF7A0FF53
:104A400026200549091D086001210348FCF798FF4D
:104A500010BD000000140140286402407E0C0020BC
:104A60001C0D0020D011002010B50022002340F6BC
:104A70006A14A14200D100BF0A1201249440A3B2DB
:104A8000DC43048010BD21B1828942F4005282814E
:104A900004E082894DF6FF731A40828170471AB193
:104AA000838A0B43838202E0838A8B43838270472D
:104AB00010B504463248844208D101211020FEF787
:104AC0004DFA00211020FEF749FA57E02D488442A4
:104AD00009D101214804FEF721FA00214FF40030EA
:104AE000FEF71CFA4AE02848844209D101218804D3
:104AF000FEF714FA00214FF48020FEF70FFA3DE094
:104B00002248844209D10121C804FEF707FA002196
:104B10004FF40020FEF702FA30E01D48844209D12C
:104B200001210805FEF7FAF900214FF48010FEF785
:104B3000F5F923E01748844208D101212020FEF72F
:104B40000DFA00212020FEF709FA17E012488442EE
:104B500009D101218807FEF7E1F900214FF08040DB
:104B6000FEF7DCF90AE00D48844207D10121400537
:104B7000FEF7D4F900216005FEF7D0F910BD000062
:104B8000001001400044004000480040004C00403C
:104B9000005000400014014000780040007C0040BC
:104BA00070B50246002400230025002040F66A1656
:104BB000B14200D100BFC1F3421501F01F0301262D
:104BC00006FA03F3012D02D19689334006E0022D47
:104BD00002D1168A334001E0968A33400C12012636
:104BE00006FA04F41688344013B10CB1012000E039
:104BF000002070BDF0B503460024002600250020EB
:104C000040F66A17B94200D100BF1846C1F34214FA
:104C100001F01F06012707FA06F5012C01D10C301F
:104C200004E0022C01D1103000E014301AB1076802
:104C30002F43076002E00768AF430760F0BD000044
:104C40002DE9FF4705460E460024A14600BFA046B9
:104C5000B08900B100BF2C8A24F44054F08804438A
:104C60002C82AC8941F20C608443B08831890843BE
:104C7000718908430443AC81AC8A24F44074B08940
:104C80000443AC826846FEF779F92048854202D099
:104C90001F48854202D1DDF80C9001E0DDF8089054
:104CA000A88900F4004040B109EBC90000EB0910ED
:104CB00031684900B0FBF1F707E009EBC90000EBF0
:104CC000091031688900B0FBF1F76420B7FBF0F000
:104CD00004012009642101FB1078A88900F4004038
:104CE00040B1322000EBC800B0FBF1F000F007004B
:104CF000044308E0322000EB08106421B0FBF1F01F
:104D000000F00F0004432C81BDE8FF870010014034
:104D10000014014010B504466068FCF7F3FE618A98
:104D2000081AA082E08A218B0844E082E08A618A26
:104D3000884206DBE08A618A90FBF1F201FB1200F7
:104D4000E082E08AA18A884215DAA08AE18A401AC4
:104D50002083208B218A884235DC002007E0E28A0C
:104D6000E1681144095CA2681154411C88B2218B8E
:104D70008142F4DC27E0A08A618A0844E18A401A73
:104D80002083208B218A88421DDC002007E0E28AF4
:104D9000E1681144095CA2681154411C88B2218B5E
:104DA000A28A891A8142F2DC002009E0E168095CEC
:104DB000238BA2681A44A38AD21A1154411C88B2C8
:104DC000A18A8142F2DC208B10BD000070B505463F
:104DD0000C4600260DB1022C01D8002070BDA11E8A
:104DE000094802882846FDF705F90646F1B2A01EDB
:104DF000285C814206D1601E285CB0EB162F01D1E1
:104E00000120EBE70020E9E77005002070B50546BA
:104E10000C4600260DB1022C01D8002070BD611E89
:104E2000FF222846FDF700F90646601E285CB042C6
:104E300001D10120F2E70020F0E7000010B5FCF7F7
:104E400091FE0348008C401C0149088410BD0000FD
:104E5000D011002010B51E48D0F801001D4908608F
:104E60001B48D0F8050048601948D0F80900886050
:104E70001748D0F80D00C8601548D0F81100086137
:104E80001348D0F8150048611148D0F8190088611E
:104E90000F48D0F81D00C8610F491048FCF756FDB7
:104EA00000210E48FCF76CFD00BF0C48FCF720FE0B
:104EB0000028FAD1074809490C3108602420074925
:104EC000A039C1F8A40001210448FCF759FD10BD28
:104ED0001C0D00201905002000802020A060024049
:104EE00010B5FFF7B7FF10BD2DED020B019820F0B4
:104EF000004001909DED000B02B0704700B52DED14
:104F0000048BB0EE409AF0EE609A83B051EC190B2E
:104F100000F0B6FE41EC180B18EE100A18EE901ACD
:104F20008DED008B002818BF0120084320F00040C1
:104F3000C0F17F6000F1E040C00F14D019EE101AEC
:104F400019EE900A8DED009B002918BF012108433E
:104F500020F00040C0F17F6000F1E040C00F04BFCE
:104F60000120FBF7EEF9B0EE480A03B0F0EE680A54
:104F7000BDEC048B00BD00001CB501210846FDF707
:104F8000ADFF01208DF804008DF806000820009088
:104F900001208DF8070002208DF8050069460248BF
:104FA000FCF7A2FF1CBD00000000024010B5FBF79B
:104FB00092FAFDF7B9FE002010BD000000B595B0D3
:104FC00001210846FDF78AFF01211020FDF7B6FFF9
:104FD00001218805FDF782FF07220A213448FCF7EA
:104FE000CBFF4FF48060139002208DF85000032017
:104FF0008DF8510000208DF8520001208DF85300EB
:1050000013A92B48FCF770FF2A480F900020ADF839
:105010004000ADF84200ADF84400ADF8480004206F
:10502000ADF846000FA92448FFF70AFE2348FCF715
:10503000B3FC00BF2148FCF75BFD0028FAD14FF01C
:10504000006000901C48001D01901D480290122035
:1050500004900020039005904FF48060069000209B
:10506000079008904FF48070099040020A90002049
:105070000B9003200C9000200D900E9069460F4875
:10508000FCF744FD012240F224410B48FFF7B2FD3A
:10509000012240210848FFF702FD01210648FFF7E1
:1050A000F2FC01210548FCF76BFC15B000BD0000C7
:1050B00000000240A0860100001001404064024050
:1050C000340C002010B596B0044601215348FDF77A
:1050D00005FF01214804FDF711FF07220521504873
:1050E000FCF74AFF072206214D48FCF745FF6020E8
:1050F000149002208DF8540000208DF856000320F3
:105100008DF8550000208DF8570014A94448FCF78D
:10511000EBFE10940020ADF84400ADF84600ADF869
:1051200048000C20ADF84A000020ADF84C0010A952
:105130003C48FFF785FD3C48FCF72EFC4FF0006033
:1051400001903848001D02903848039000200490D8
:105150004FF4FA700590002006904FF4806007909D
:105160000020089009904FF480700A904FF440306E
:105170000B9000200C900D900E900F9001A92A48E2
:10518000FCF7C4FC28481830FCF706FC00BF264892
:105190001830FCF7ADFC0128F9D04FF00060019009
:1051A0002048001D029022480390402004902420B3
:1051B0000590002006904FF4806007900020089032
:1051C00009900A904FF440300B9000200C900D9005
:1051D0000E900F9001A914481830FCF797FC01219C
:1051E0001048FFF750FC012240F224410D48FFF720
:1051F00001FD012240210B48FFF751FC01228021D3
:105200000848FFF74CFC01210748FCF7B9FB0121D6
:1052100005481830FCF7B4FB16B010BD080020009C
:10522000000C024000440040886002404807002013
:105230001905002010B596B0044601210820FDF79D
:105240004DFE01218804FDF759FE01214805FDF7B7
:1052500045FE072208214748FCF78EFE0722092158
:105260004448FCF789FE4FF44070149002208DF8FA
:1052700054008DF8550000208DF8560001208DF85F
:10528000570014A93B48FCF72FFE10940020ADF8FE
:105290004400ADF84600ADF84800ADF84C000C20D5
:1052A000ADF84A0010A93448FFF7CAFC3348FCF7B0
:1052B00073FB00BF3148FCF71BFC0028FAD14FF00C
:1052C000006001902C48001D02902D48039018208A
:1052D00005900020049006904FF480600790002015
:1052E000089009904FF480700A9040020B900020C3
:1052F0000C9003200D9000200E900F9001A91F48E4
:10530000FCF704FC1D483030FCF746FB00BF1B488F
:105310003030FCF7EDFB0028F9D11A4803900F203C
:1053200005904020049000200A9001A913483030D5
:10533000FCF7ECFB01211048FFF7A5FB012240F22E
:1053400024410D48FFF756FC012240210A48FFF78F
:10535000A6FB012280210848FFF7A1FB0121074895
:10536000FCF70EFB012105483030FCF709FB16B0B5
:1053700010BD0000000C02400048004028600240C0
:10538000460C0020D201002010B596B00446012141
:105390000420FDF7A3FD01212020FDF7CFFD012111
:1053A0008805FDF79BFD082206215048FCF7E4FD27
:1053B000082207214D48FCF7DFFD01208DF856003B
:1053C0008DF8570002208DF85400C0201490022060
:1053D0008DF8550014A94548FCF786FD4448FFF7B1
:1053E00067FB10940020ADF84400ADF84600ADF81E
:1053F0004800ADF84C000C20ADF84A0010A93C481C
:10540000FFF71EFC3B48FCF7C7FA4FF02060019005
:105410003748001D02903848039000200490262051
:105420000590002006904FF48060079000200890BF
:1054300009904FF480700A904FF440300B90002098
:105440000C9003200D9000200E900F9001A9294888
:10545000FCF75CFB27487830FCF79EFA00BF254834
:105460007830FCF745FB0128F9D04FF0206001901F
:105470001F48001D0290002003904020049000204F
:10548000059006904FF480600790002008900990E6
:105490000A904FF440300B9000200C900D900E902D
:1054A0000F9001A913487830FCF730FB012240F23D
:1054B00024410F48FFF79EFB01210D48FFF7E3FA57
:1054C000012240210A48FFF7EAFA01228021084818
:1054D000FFF7E5FA01210748FCF752FA00210548D9
:1054E0007830FCF74DFA16B010BD000000080240FD
:1054F00000140140286402407E0C002021F000428C
:10550000A2F16052B2F5801F01F0004328BFD2F132
:105510007F6C0BD95FEA001C43EAC20242EB507079
:1055200018BF704728BF20F001007047B2F5801FF8
:10553000BCBF184670474FEA410C1CF5001F02D251
:10554000084600F0C9BD70B500F010FB00000089EE
:10555000FFF7F6BF4FF00040A0F580007047000055
:1055600010B591EA030F48BF83F0004300F15C845B
:10557000841A71EB030C05D2121943EB0C03001BC8
:1055800061EB0C01DFF824E14FEA1154A4EB135C4A
:105590001EEA430F18BF9EEA445F73D023EA0E034E
:1055A000DCF1200E21EA045143F4801332D322FAB5
:1055B0000CFE10EB0E0023FA0CFE41EB0E01CCF1B9
:1055C000200E03FA0EFE10EB0E0051F10001B1F5B2
:1055D000801FCCF1200E32D201EB045112FA0EF2F0
:1055E000BDE8104058BF7047401C38BF5FEA420218
:1055F00018BF7047002814BF20F0010041F10001DE
:105600004FEA410313F5001F38BF7047A1F1C041B5
:1056100000F0FABA012A43EB0302ACF1200CDCF1F2
:105620001F0E32BF4FF0000E23FA0CF310EB0300F5
:1056300041EB0451B4EB115FD0D0A1EB045101F563
:10564000801149085FEA300001EB04510ED350F19C
:10565000000038BF12FA0EFE08D1BDE81040C9E7BD
:10566000401C38BF5FEA4202CAD1C3E7BDE8104020
:105670004FEA410313F5001F38BF7047A1F1C04145
:1056800000F0C2BA9EEA445F08D011EA5E0FBDE89E
:10569000104004BF01F0004100207047BDE81040F9
:1056A00070B500F063FA00BF64FBBE3E0000E0FF8F
:1056B000491058BFC1F140415B1058BFC3F140438E
:1056C0008B42EFF3008070472DE9C04130B4DFF822
:1056D000A0C23CEA111418BF3CEA131400F0EC809D
:1056E00081EA03051CEA111444EAD57418BF1CEAC8
:1056F000131500F0C780A4EB05044FF0004545EA00
:10570000C12145EAC32341EA505143EA525304F10F
:105710007F74994204F500344FEAC0204FEAC22258
:1057200008BF904200F09C804FEA13650FF24016CC
:10573000765D4FEA134506FB05F7C7F1807706FB58
:1057400007F74FEAD737A7FB03687642C8F58038DA
:10575000A7FB06CE38BFA8F1010807FB08E64FF00B
:10576000000EA6FB028CE6FB03CEDCF1000CCEF1B2
:10577000004E38BFAEF1010EA6FB0C584FF00007EB
:105780004FF00005E6FB0E87A1FB08C6A0FB07CE85
:1057900016EB0E0645F10005E1FB076515F1E04E3D
:1057A0007EBFA4F580345FEA46066D4116F180079E
:1057B00045F100054FEA17274FEA066647EA0567F5
:1057C000A6F1DE46B6F1805F4FEA15251FD93846AF
:1057D00024F0010C05EBC471BCF1FE6F01EB0C1160
:1057E00002D8F0BCBDE8008124425CBF01F5801EF8
:1057F0009EEAC47F02D4F0BCBDE80081244238D4C4
:10580000F0BCA1F1C041BDE8004100F0FDB94FEA94
:10581000D22242EA43524FEAD323A7FB02864FEA41
:10582000D02040EA415007FB03661EEA0E0F4FEA04
:10583000D12105FB026658BFA6EB0056B6EB005619
:105840004FEA520E4EEAC37E18EB0E0E56EB530E85
:10585000BDD518EB02085E417F1C55F10005B6E787
:105860004FF480154FF000074FF000064FF000088E
:10587000ADE7F0BC4FF0000001F1C04101F0004184
:10588000BDE8008111EA0C1F0CEA131500D00CE0F2
:1058900013EA0C1F00F025804FF00000F0BC81EAF5
:1058A000030101F00041BDE80081F0BCBDE800410A
:1058B00081EA030100F0A8B9F0BCBDE8004170B571
:1058C00000F054F9097EFC3E00F007B881EA0301BC
:1058D0004FF0000001F00041704781EA030100F041
:1058E00093B9F0BCBDE800414FF00000214970477A
:1058F000FFFDFBF9F7F5F4F2F0EEEDEBE9E8E6E495
:10590000E3E1E0DEDDDBDAD8D7D5D4D3D1D0CFCD1B
:10591000CCCBCAC8C7C6C5C4C2C1C0BFBEBDBCBB54
:10592000BAB9B8B7B6B5B4B3B2B1B0AFAEADACAB4F
:10593000AAA9A8A8A7A6A5A4A3A3A2A1A09F9F9E29
:105940009D9C9C9B9A9999989797969595949393DB
:10595000929191908F8F8E8E8D8C8C8B8B8A898972
:1059600088888787868585848483838282818180F5
:105970000000FF070000F87FB0FA80F310FA03F18F
:105980000AD0C3F11D0303F580634FEA41504FEA8B
:10599000035202EBD12170474FF000007047000026
:1059A00051EA030C17D41CF5801F58BFBCF5801FAB
:1059B00000F10680994218BF704708BF90427047B7
:1059C00007D711F5801F58BF13F5801F19D49942CE
:1059D0007047894270471CF5801F08D5BCF5801FB1
:1059E000F7D58B4218BF704708BF824270474FF40B
:1059F000001C1CEB410F38BF1CEB430F01D28B4244
:105A0000704770B500F0B2F8922449004FF0005191
:105A10004FF08053FFF74CBEDFF848C170B51CEA69
:105A2000111E1EBF1CEA13159EEA0C0F95EA0C0FFF
:105A300000F06F8081EA030423EA4C134EEAD47E1F
:105A400021EA4C1141F4801143F48013AE44A1FBD0
:105A5000024CA0FB0365AEF17F7E361955EB0C05B9
:105A6000A1FB034C4CF10003A0FB021C16EB0C063F
:105A7000654153F10003094218BF46F0010613F4D3
:105A8000007F0BD14FEA03314FEA0530340341EA7E
:105A9000155140EA16506FF003020AE04FEAC321A5
:105AA0004FEAC520F40241EA555140EA56506FF0E2
:105AB000020202EB2E4201EB025585EACE710AD0BA
:105AC0005FEA440C18BF24F0004450F1000041F19B
:105AD000000120EAD47040F2FE7C624500D270BD25
