:020000040800F2
:10000000F00E002069020008710200087302000867
:10001000750200087702000879020008000000005D
:100020000000000000000000000000007B0200084B
:100030007D020008000000007F0200088102000825
:10004000830200088302000883020008830200087C
:10005000830200088302000883020008830200086C
:10006000830200088302000883020008830200085C
:10007000830200088302000883020008830200084C
:10008000830200088302000883020008830200083C
:10009000AD050008830200088302000883020008FF
:1000A000830200088302000883020008830200081C
:1000B000830200088302000883020008830200080C
:1000C00083020008830200088302000883020008FC
:1000D000830200088302000883020008112A000836
:1000E00083020008830200088302000883020008DC
:1000F00083020008830200088302000883020008CC
:1001000083020008830200088302000883020008BB
:1001100083020008830200088302000883020008AB
:10012000830200088302000883020008830200089B
:10013000830200088302000883020008830200088B
:1001400011080008830200088302000883020008E7
:100150008302000883020008830200086D2A000859
:10016000830200088302000883020008830200085B
:10017000830200088302000883020008830200084B
:10018000830200088302000800F002F800F05CF827
:100190000AA090E8000C82448344AAF10107DA45E2
:1001A00001D100F051F8AFF2090EBAE80F0013F0D8
:1001B000010F18BFFB1A43F001031847A43C0000CD
:1001C000C43C00000A444FF0000C10F8013B13F04F
:1001D000070408BF10F8014B1D1108BF10F8015BA0
:1001E000641E05D010F8016B641E01F8016BF9D193
:1001F00013F0080F1EBF10F8014BAD1C0C1B09D1EA
:100200006D1E58BF01F801CBFAD505E014F8016B5B
:1002100001F8016B6D1EF9D59142D6D370470000ED
:100220000023002400250026103A28BF78C1FBD8FF
:10023000520728BF30C148BF0B6070471FB503F09D
:1002400040FC1FBD10B510BD00F0BCF81146FFF713
:10025000F5FF02F0DFFD00F0DAF803B4FFF7F2FF7C
:1002600003BC00F0DDF8000009488047094800475A
:10027000FEE7FEE7FEE7FEE7FEE7FEE7FEE7FEE756
:10028000FEE7FEE704480549054A064B70470000B3
:10029000A927000889010008F0080020F00E0020BE
:1002A000F00A0020F00A0020032A40F2308010F00B
:1002B000030C00F0158011F8013BBCF1020F624401
:1002C00098BF11F801CB00F8013B38BF11F8013B92
:1002D000A2F1040298BF00F801CB38BF00F8013B3F
:1002E00011F0030300F03380083AC0F0088051F8A1
:1002F000043B083A51F804CBA0E80810F5E7121DBA
:100300005CBF51F8043B40F8043BAFF30080D207D8
:1003100024BF11F8013B11F801CB48BF11F8012BA4
:1003200024BF00F8013B00F801CB48BF00F8012BC7
:10033000704770477047704710B500F03BF8006891
:1003400010BD10B5044600F035F8046010BD10B5BE
:10035000203AC0F00B80B1E81850203AA0E81850BD
:10036000B1E81850A0E81850BFF4F5AF5FEA027C7E
:1003700024BFB1E81850A0E8185044BF18C918C0ED
:10038000BDE810405FEA827C24BF51F8043B40F88E
:10039000043B08BF7047D20728BF31F8023B48BF73
:1003A00011F8012B28BF20F8023B48BF00F8012BB1
:1003B00070470000004870479008002000487047D0
:1003C000900800207546FFF7F9FFAE460500694624
:1003D000534620F00700854618B020B5FFF752FFBE
:1003E000BDE820404FF000064FF000074FF0000836
:1003F0004FF0000B21F00701AC46ACE8C009ACE8B7
:10040000C009ACE8C009ACE8C0098D46704710B51A
:100410000446AFF300802046BDE81040FFF71DBF43
:1004200001491820ABBEFEE726000200704710B558
:1004300002684260016042688A1A826043695A42D7
:1004400002EBD2748368B3EB640F04DA4369826809
:100450001A4482600AE0426902EBD2748368B3EB0B
:10046000640F03DD43698268D21A8260D0ED060A08
:1004700090ED020AB8EEC00A30EE800A80ED060A5E
:1004800010BD70B505460C4600260DB1022C00D8F3
:1004900070BD611EFF22284601F0C6FA0646601EA6
:1004A0002E5400BFF4E710B502F048FA00F010F83F
:1004B00000F09CF802F0B6FC4FF4E12002F034FDAD
:1004C0004FF4E12002F0DCFD01F076FD10BD0000EC
:1004D00000B589B00121022001F010FF012148067A
:1004E00001F01CFF4FF44070009002208DF80400D2
:1004F0008DF8050000208DF8060001208DF807001A
:100500006946274801F002FA09220821244801F02F
:1005100045FA09221146224801F040FA00208DF8E0
:100520001E0001208DF81F008DF8200000208DF89E
:1005300021008DF8220001208DF8230000208DF885
:100540001A008DF81B0008208DF81C0003208DF880
:100550001D00ADF8180006A9124800F0EAFA0020C4
:100560008DF812008DF8130001208DF81400002082
:10057000ADF80800ADF80A00ADF80C00ADF80E00BB
:10058000ADF8100001208DF8150002A800F0B4F9B4
:1005900001220221034800F0C3FA09B000BD0000A7
:1005A00000040240006400407047000010B50221C2
:1005B0000B4800F025FA88B10221094800F048F9FB
:1005C000084A0021064800F03EFBFFF7EDFF064811
:1005D000B0F86400401C0449A1F8640010BD00009C
:1005E0000064004030030020A807002000B589B057
:1005F0000121022001F082FE0121480601F08EFE59
:100600000121880601F08AFE6020009002208DF80A
:1006100004008DF8050000208DF8060001208DF8FB
:1006200007006946274801F071F90922052125488C
:1006300001F0B4F909220621224801F0AFF90020A7
:100640008DF81E0001208DF81F008DF8200000207D
:100650008DF821008DF8220001208DF82300002064
:100660008DF81B0008208DF81C0003208DF81D005C
:10067000ADF8180006A9144800F05BFA0E208DF8BA
:10068000120000208DF8130001208DF814000020C6
:10069000ADF80800ADF80A00ADF80C00ADF80E009A
:1006A000ADF8100001208DF8150002A800F024F923
:1006B0000E208DF8120001220221034800F030FACA
:1006C00009B000BD000402400068004010B5474872
:1006D0000068A0F2052000287DD14548008A401C12
:1006E0004349088243480078F0B340480B3001F09A
:1006F00080F941490860084690ED000AB8EE400ACA
:1007000080ED060A486900EBD071491000EE101A1E
:10071000B8EEC00A3849D1ED060A9FED381A70EEDE
:10072000C10AB4EEE00AF1EE10FA0BD20846D0EDA1
:10073000060A90ED050AB8EEC00A30EEC00A80ED58
:10074000060A22E02C494969484200EBD071491061
:1007500000EE101AB8EEC00A2749D1ED060A9FED47
:10076000271A70EEC10A00E013E0B4EEE00AF1EEE1
:1007700010FA0ADD0846D0ED060A90ED050AB8EE3B
:10078000C00A30EE800A80ED060A00201949087080
:1007900008E016480B3001F02CF9044621461648B3
:1007A000FFF745FE144890ED060ADFED140A30EE1F
:1007B000600ADFED130A20EE200ADFED120A80EE58
:1007C000201A114880ED001A08480B3001F017F983
:1007D00000EE100A00E005E0B8EEC00A0B4880ED1C
:1007E000000A00E000BF00BF10BD0000440300206D
:1007F0001C08002001030020180200200080AA44E9
:100800000000B44300000046A8020020AC02002013
:1008100010B502210B4800F0F3F888B10221094815
:1008200000F016F8084A0021064800F00CFAFFF71D
:100830004DFF0648B0F86800401C0449A1F8680064
:1008400010BD00000068004044030020A8070020FD
:10085000B1F5007F3AD00FDC202928D006DC012931
:100860001CD004291DD0082940D11DE0402921D0E9
:10087000B1F5807F3AD126E0B1F5004F31D006DCEA
:10088000B1F5806F25D0B1F5006F2FD124E0B1F51F
:10089000803F12D0B1F5003F28D111E0154A8260A7
:1008A00025E00822C26022E01022C2601FE0082278
:1008B00002611CE01022026119E00822426016E089
:1008C0001022426013E00422426010E004224260E1
:1008D0000DE0042242600AE00022826104224260AC
:1008E00005E0002282610422426000E000BF00BFF8
:1008F000704700000101010010B50021837A012238
:1009000002FA03F13D4A126842F001023B4B1A60C1
:100910003A4A1C3212688A43384B1C331A60027BF5
:10092000CAB9364A0C3212688A43344B0C331A6007
:100930004288C38842EA0343304A4032847A42F80C
:1009400034300288838842EA03432C4A4032847A56
:1009500002EBC4025360027B012A19D1274A0C32F0
:1009600012680A43254B0C331A604288038842EA16
:100970000343224A4032847A42F83430C288838862
:1009800042EA03431D4A4032847A02EBC4025360B8
:10099000C27A3AB9194A121D12688A43174B1B1DB5
:1009A0001A6006E0154A121D12680A43134B1B1DFC
:1009B0001A60028932B9114A143212688A430F4B05
:1009C00014331A600289012A06D10C4A14321268C3
:1009D0000A430A4B14331A60427B012A06D1074AA4
:1009E0001C3212680A43054B1C331A60034A126812
:1009F00022F00102014B1A6010BD000000660040A9
:100A000070B504460D46002660692840002871D064
:100A1000B5F5807F5CD010DC082D35D006DC012DCB
:100A200020D0022D24D0042D72D127E0102D31D0FA
:100A3000202D35D0402D6BD138E0B5F5004F60D07A
:100A400009DCB5F5007F49D0B5F5806F4CD0B5F520
:100A5000006F5DD14FE0B5F5803F2DD0B5F5003F7B
:100A600056D12FE0A0682D4900F0D0FB064651E09A
:100A7000E068032100F0CAFB06464BE0E06808216D
:100A800000F0C4FB064645E0E068102100F0BEFB24
:100A900006463FE02069032100F0B8FB064639E036
:100AA0002069082100F0B2FB064633E020691021DE
:100AB00000F0ACFB06462DE06068082100F0A6FBC4
:100AC000064627E06068102100F0A0FB064621E002
:100AD000A069012100F09AFB06461BE0A0690221F3
:100AE00000F094FB064615E0A069042100F08EFB9F
:100AF00006460FE00FE0A069702100F087FB064674
:100B000008E06068042100F081FB064602E0FFE790
:100B1000002600BF00E00026304670BD0101010044
:100B20001AB143690B43436102E043698B4343615C
:100B3000704730B5024600200023146824F00204F8
:100B40001460146844F00104146000E05B1C5468F5
:100B500004F001041CB94FF6FF74A342F6D15468A7
:100B600004F001040CB900206CE08C79012C04D154
:100B7000146844F08004146003E0146824F08004D6
:100B80001460CC79012C04D1146844F04004146042
:100B900003E0146824F0400414600C7A012C04D1A2
:100BA000146844F02004146003E0146824F0200466
:100BB00014604C7A012C04D1146844F010041460C1
:100BC00003E0146824F0100414608C7A012C04D122
:100BD000146844F00804146003E0146824F0080466
:100BE0001460CC7A012C04D1146844F0040414601D
:100BF00003E0146824F0040414608C78A407CD7812
:100C000044EA05640D7944EA05444D7944EA055403
:100C10000D886D1E2C43D461146824F00104146007
:100C2000002300E05B1C546804F001041CB14FF683
:100C3000FF74A342F6D1546804F001040CB1002003
:100C400000E0012030BD10B500F5D87303EB0113AF
:100C50001B6803F004031372137A53B900F5D873B9
:100C600003EB01131B6840F2FF7404EA5353136053
:100C700009E000F5D87303EB01131B686FF06044C3
:100C800004EAD303536000F5D87303EB01131B6828
:100C900003F00203537200F5D87303EB01135B6892
:100CA00003F00F03937200F5D87303EB01135B6835
:100CB0001B0AD37400F5D87303EB01139B68D3723E
:100CC00000F5D87303EB01139B681C0A147300F53D
:100CD000D87303EB01139B681C0C547300F5D87395
:100CE00003EB01139B681B0E937300F5D87303EBA2
:100CF0000113DB68D37300F5D87303EB0113DB68D2
:100D00001C0A147400F5D87303EB0113DB681C0C88
:100D1000547400F5D87303EB0113DB681B0E937456
:100D200021B9C36843F02003C36003E0036943F0C3
:100D30002003036110BD2DE9F04385B081460E46C6
:100D400014461D46DDE90C7800208DF80800009659
:100D500008208DF80A0000208DF80900200A8DF87F
:100D60000B00E1B28DF80C10290A8DF80D10E9B2D4
:100D70008DF80E10390A8DF80F10F9B28DF8101099
:100D80004FEA18218DF8111008F0FF018DF81210AC
:100D90006946484600F003F805B0BDE8F08310B599
:100DA00002460020936803F08063B3F1806F00D1A6
:100DB00010E0936803F00063B3F1006F01D10120EC
:100DC00008E0936803F08053B3F1805F01D1022003
:100DD00000E00420042874D002F5C07303EB001374
:100DE0001B6803F0010402F5C07303EB00131C60E1
:100DF0000B7A7BB94B7A0C8843EA445302F5C074F2
:100E000004EB00142468234302F5C07404EB0014BF
:100E1000236010E00B7A4C6843EAC4034C7A234306
:100E200002F5C07404EB00142468234302F5C07477
:100E300004EB001423608B7A03F00F038B7202F52E
:100E4000C07303EB00135B6823F00F0402F5C0735B
:100E500003EB00135C6002F5C07303EB00135B68E7
:100E60008C7A234302F5C07404EB001463608B7B1F
:100E70001C064B7B44EA03440B7B44EA0323CC7AF5
:100E8000234302F5C07404EB0014A3608B7C1C06A2
:100E90004B7C44EA03440B7C44EA0323CC7B23438E
:100EA00002F5C07404EB0014E36002F5C07303EBB9
:100EB00000131B6843F0010402F5C07303EB001339
:100EC0001C6010BD10B52DED068B044694ED000A94
:100ED000D4ED010A30EE600A84ED080A94ED100AA0
:100EE00010EE101A084602F07BFD41EC180B94ED51
:100EF000080A10EE101A084602F072FD41EC1A0BB7
:100F0000B0EE4A0AF0EE6A0A01F03DFFB0EE409AF8
:100F1000F0EE609A53EC182B51EC190B02F03AFAF0
:100F200007D294ED0A0AD4ED080A30EE200A84EDC7
:100F30000A0AD4ED0E1AB0EE611AD4ED0E1AF1EED3
:100F4000611AF0EE610AD4ED0A1AB0EE610A00F0FF
:100F500066F984ED0A0A94ED030AD4ED0A0A20EE3C
:100F6000200A84ED060AD4ED021A94ED082A61EEF7
:100F7000821AB0EE610AD4ED0D1AB0EE611AD4ED0A
:100F80000D1AF1EE611AF0EE610A00F048F984EDF5
:100F9000050AD4ED081A94ED092A71EEC21A94EDEF
:100FA000042A61EE821AB0EE610AD4ED0F1AB0EE97
:100FB000611AD4ED0F1AF1EE611AF0EE610A00F039
:100FC0002EF984ED070A94ED050AD4ED060A30EEF9
:100FD000200AD4ED070A30EE200A84ED0B0A94EDC6
:100FE000080A84ED090AD4ED0C1AB0EE611AD4EDAA
:100FF0000C1AF1EE611AF0EE610AD4ED0B1AB0EEA4
:10100000610A00F00CF984ED0B0ABDEC068B10BDF3
:1010100030B52DED108B83B004469FED7B0AB0EE0A
:1010200040FA94ED000AD4ED060A30EE600A84ED31
:10103000020A94ED030AD4ED040A20EE200AB0EE71
:10104000408A94ED040A20EE080A10EE105A94ED3E
:10105000020AD4ED040A94ED011A00EE810AF0EEC2
:10106000408A18EE900A02F0BBFC41EC1E0BB0EE79
:101070004E0AF0EE6E0A01F086FEB0EE40DAF0EEB7
:1010800060DA94ED030AF2EE000A20EE200A10EE78
:10109000101A084602F0A4FC53EC1D2BCDE9000108
:1010A0009DED000B51EC100B02F0B0F941EC1B0B65
:1010B00028EE080A10EE101A084602F091FC41ECE6
:1010C0001C0B53EC1B2B02F0B1F841EC1A0BB0EEE9
:1010D0004A0AF0EE6A0A01F060FEB0EE409AF0EEC5
:1010E000609A51EC190B02F06FF80290284602F05A
:1010F00077FC41EC190B18EE900A02F071FC41EC00
:101100001B0BB0EE4B0AF0EE6B0A01F03CFEB0EEAA
:1011100040AAF0EE60AA53EC192B51EC1A0B02F026
:1011200073FA18D2B0EE680A01F0A0FA00EE100AC5
:10113000F8EEC00A9DED020A30EE480A60EE800A21
:10114000B0EE001A80EE810AD4ED010A30EE200ADA
:10115000B0EE40FA09E0D4ED040A88EEA00AD4ED1E
:10116000010A30EE200AB0EE40FA18EE100A02F042
:1011700037FC41EC190B1FEE100A02F031FC41EC78
:101180001B0BB0EE4B0AF0EE6B0A01F0FCFDB0EE6B
:1011900040AAF0EE60AA53EC192B51EC1A0B02F0A6
:1011A00033FA10D2B0EE4F0A01F060FA00EE100AE6
:1011B000B8EEC00AD4ED030ABFEE001A60EE810A51
:1011C00060EE20FA09E094ED030AFFEE000A20EE3B
:1011D000200A20EE0F0AC0EE08FA94ED000AD4EDC2
:1011E000050A94ED011A00EE810A84ED000A94EDDF
:1011F000010AD4ED050A00EEAF0A84ED010A03B03E
:10120000BDEC108B30BD0000000000000246002045
:1012100002EA01030BB1012000E000207047F0EE6C
:10122000401AF4EEE01AF1EE10FA02D2B0EE600AC3
:1012300009E0F4EEC11AF1EE10FA02DDB0EE410A57
:1012400001E0B0EE610A70470246094B9A4201D2B2
:10125000084801E00648103801F000531BB1064B66
:101260000B40C36002E0044B0B40836070470000FA
:1012700010640240006002407D0F7D0F21B10268C2
:1012800042F00102026003E0026822F00102026003
:1012900070470000016821F0010101600021016038
:1012A00041608160C1600161212141614A498842F8
:1012B00004D13D21484A103A91608CE046491831EA
:1012C000884205D14FF47461434A103A916082E03C
:1012D00041493031884205D14FF474113E4A103AE9
:1012E000916078E03C494831884205D14FF0746103
:1012F000394A103A91606EE037496031884204D132
:101300003649354A103AD16065E033497831884230
:1013100004D13349304A103AD1605CE02E49903113
:10132000884204D12F492C4A103AD16053E02A490F
:10133000A831884205D14FF03D51274A103AD1607B
:1013400049E02949884204D13D21274A083A1160E1
:1013500041E025491831884205D14FF47461224A91
:10136000083A116037E020493031884205D14FF406
:1013700074111D4A083A11602DE01B49483188421A
:1013800005D14FF07461184A083A116023E01649FC
:101390006031884204D11149134A121F11601AE0CA
:1013A00011497831884204D10D490F4A121F11604A
:1013B00011E00D499031884204D10A490A4A121FAE
:1013C000116008E00849A831884204D14FF03D512E
:1013D000054A121F11607047106002403D00002056
:1013E000400F002000003D20106402400146002014
:1013F0000A6802F001020AB1012000E000207047F3
:101400000146486880B2704710B500220268134B4D
:101410001A40CC680B6823434C6923438C692343EF
:10142000CC6923430C6A23434C6A23438C6A2343CD
:101430004C6B23438C6B23431A430260426922F0B6
:101440000702D1E90B3423431A4342610B6943601D
:101450004B6883608B68C36010BD00003F801CF048
:101460002DE9F0414FF000080025002601208A49AF
:10147000087000270AE189488068C45DB8F1060F4A
:1014800077D2DFE808F003080E1D2533552C01D173
:101490004FF00108F8E014B94FF0020800E03227DD
:1014A000F2E02CB1012C03D0022C01D0032C05D189
:1014B0007B4804700B264FF0030800E03227E3E07E
:1014C000B44203D14FF00408002500E03227DBE0EE
:1014D000B5EB860F04DA73484455681CC5B204E0C6
:1014E00014B94FF0050800E03227CDE0AA2C09D14D
:1014F000012005E0411E6B4A515C694A1154401CB1
:101500002D28F7D34FF000086548D0F801100846A1
:1015100001F026FC05280FD16148D0F805100846D7
:1015200001F01EFC052807D15D48D0F809100846D7
:1015300001F016FC052802D00020594908705848CF
:10154000D0F8010000EE100A5748D0ED010A30EE45
:10155000600AB5EEC00AF1EE10FA0BDD5048D0F883
:10156000010000EE100A5048D0ED010A30EE600A8A
:101570000CE088E04A48D0F8010000EE100A4A4822
:10158000D0ED010A30EE600AB1EE400ADFED470A05
:10159000B4EEE00AF1EE10FA04DD45480068404977
:1015A000C1F801003E48D0F8050000EE100A3E48A0
:1015B000D0ED010A30EE600AB5EEC00AF1EE10FA85
:1015C0000ADD3748D0F8050000EE100A3648D0EDA5
:1015D000010A30EE600A0BE03148D0F8050000EE59
:1015E000100A3148D0ED010A30EE600AB1EE400A2F
:1015F000DFED300AB4EEE00AF1EE10FA04DD2E4819
:1016000000682749C1F805002548D0F8010028499D
:1016100008602348D0F80500274908602048D0F822
:101620000900264908601E48D0F80D0024490860CA
:101630001B48D0F81100234908601948D0F815005C
:10164000214908601648D0F819002049086014485C
:10165000D0F81D001E4908601148D0F821001D492E
:1016600008600F48D0F825001B4908600C48D0F8E6
:1016700029001A4908601A48B0F86000401C18494F
:10168000A1F8600000E000BF00BF7F1C322FFFF414
:10169000F2AEBDE8F08100000D030020A0010020A3
:1016A0004E060020B4050020040700200000204260
:1016B000BC0100200000B442C0010020C401002091
:1016C000C8010020CC010020D0010020D40100205E
:1016D000D8010020DC010020E0010020E40100200E
:1016E000A807002010B544480078072803D1092036
:1016F0004249887006E0404800786B2802D10A20F1
:101700003E4988700B203D49C8703D4890ED010A64
:101710003C4880ED000A084680ED010A3A4890ED09
:10172000010A3A4880ED000A084680ED020AB7EE49
:10173000000A374880ED000A084680ED030AB7EE3C
:10174000000A344880ED000A084680ED040AB7EE2E
:10175000000A314880ED000A084680ED050AB7EE20
:10176000000A2E4880ED000A084680ED060A2C4843
:10177000007858B12B48007800EE100AB8EE400A05
:10178000294880ED000A084680ED070AB7EE000AF6
:10179000264880ED000A194880ED080AB7EE000AD5
:1017A000234880ED000A154880ED090AB7EE000ACB
:1017B000204880ED000A114880ED0A0AB7EE000AC1
:1017C0001D4880ED000A0D4880ED0B0A1B491C489E
:1017D000FFF73AFD00211A48FFF750FD0748184966
:1017E0000C31086032201649091D08600121144897
:1017F000FFF744FD10BD0000440100206C010020F3
:1018000004070020E80100207C060020EC010020F5
:10181000F0010020F4010020F8010020FC0100206C
:1018200031010020300100200002002004020020CD
:10183000080200200C02002010020020008020205E
:10184000A064024010B51B48007801280ED11A4848
:1018500090ED000A194880ED060AFFF7D9FB1748FA
:1018600090ED000A164880ED000A05E0124890ED60
:10187000000A134880ED000A124890ED000A104853
:1018800080ED010A104890ED000A104880ED010A31
:101890000B48FFF717FB0A4890ED0B0A0B4880ED49
:1018A000000AFFF70FFB094890ED0B0A80ED0B0AC9
:1018B00010BD00000E030020A40200208C070020B1
:1018C0007C060020B0020020B4020020C0060020E8
:1018D00010B5A1B94FF47A7292FBF0F2084BDB6EAF
:1018E000084C24681B1B9A4209D2074A1288521CD2
:1018F00012B2054B1A80024AD26E024B1A6010BD1A
:10190000A807002018030020C8020020F0B50A46EE
:1019100000210023002400BF3DE0012505FA01F36A
:10192000156805EA03049C4234D105684F0003267C
:10193000BE40B543056015794E00B5400668354395
:1019400005601579012D02D01579022D16D1856813
:101950004F000326BE40B543856055794E00B54023
:10196000866835438560456801268E40B5434560ED
:10197000456896798E40B6B235434560C5684F00DC
:101980000326BE40B543C560D5794E00B540C66854
:101990003543C560491C1029BFD3F0BDF0B5002305
:1019A00000244D07ED0E02FA05F3CE1000F12005DC
:1019B00055F826504E07F70E0F26BE40B543CF1000
:1019C00000F1200646F82750CE1000F1200555F80A
:1019D000265045EA0304CE1000F1200545F82640C4
:1019E000F0BD418370470183704742694A404261BC
:1019F000704701464A780B7842EA0320704710B5D9
:101A000001464FF6FF728B7803F080033BB113045D
:101A10008C7843EA0423CC7843EA040003E0CB78D3
:101A20008C7843EA042010BD30B5034605E013F876
:101A3000010B80EA02040448025D081EA1F10101C5
:101A4000F5D1104630BD0000D73A000810B501208E
:101A50006749087067480088A0F58060002804DDA9
:101A600064480088A0F5806003E062480088C0F503
:101A70008060142803DA4FF480605E4908805D4876
:101A80004088A0F58060002804DD5A484088A0F511
:101A9000806003E057484088C0F58060142803DA6E
:101AA0004FF480605349488052484088A0F58060D8
:101AB000D8B35148C078012841D14D480078B8B119
:101AC0004C484088A0F5806000EE100AF8EEC00A8D
:101AD0009FED4A1A80EE810A9FED491AC0EE010A75
:101AE000484890ED000A30EE600A80ED000A16E0EA
:101AF00040484088A0F5806000EE100AF8EEC00A69
:101B00009FED3E1A80EE810AB2EE081AC0EE010A7D
:101B10003C4890ED000A30EE600A80ED000A39483A
:101B2000D0ED000AB0EE600A00E008E09FED361A42
:101B3000DFED360AFFF773FB324880ED000A2D48CF
:101B40000088A0F5806058B32B48C07801284DD19B
:101B50002748007828B327480088A0F5806000EE69
:101B6000100AB8EEC00A9FED251AC0EE010A9FEDDB
:101B7000240A20EE800ADFED260A60EE200A9FED9F
:101B8000251A80EE810A9FED241AC0EE010A23482F
:101B900090ED000AB7EE081A00EE810A80ED000A07
:101BA00024E014480088A0F5806000EE100AB8EE2A
:101BB000C00ADFED120A80EE201A9FED190A21EE0D
:101BC000000ADFED130A60EE200A9FED121A80EE84
:101BD000810A9FED111AC0EE010A104890ED000A2B
:101BE000B7EE081A00EE810A80ED000A10BD000071
:101BF0000F0300204C050020700800200000254441
:101C00000000C8420407002000002042000000003D
:101C10000000B443000000460000AF44A4020020CE
:101C200000806D4510B52048007855283BD11E48EE
:101C30004078C0BB10211C4801F06BF898B310220B
:101C400019491A48FEF730FB1848D0F80200184925
:101C500008601648D0F80A00164908601348807BCF
:101C600015490870134890ED000ADFED140AB4EE30
:101C7000E00AF1EE10FA05D20C48D0F8060010493F
:101C8000086009E00948D0F8060000EE100AB1EE3D
:101C9000400A0B4880ED000A0A48B0F85800401C82
:101CA0000849A1F8580010BD620500207205002007
:101CB000B0020020B8020020140200200000B4424C
:101CC000B4020020A807002010B51B48D0ED000A80
:101CD000B0EE600A002000F011FA10EE100A174969
:101CE00088611748B0F900101448C182154800886F
:101CF00001B2124881821448C17810488174124898
:101D000001790E48C17411211030FEF7BAFB0F495A
:101D10000F48FFF799FA00210D48FFF7AFFA07487F
:101D200010300B49583948661120C8650121084810
:101D3000FFF7A4FA10BD000004070020930500205F
:101D4000C8020020C4020020700800200080001893
:101D50005860024010B5FFF779FE03488089401CA7
:101D60000149888110BD0000A807002010B500249B
:101D70004D480068401C4C4908604C48C07810B978
:101D80004A484078E0B1484800689621B0FBF1F23B
:101D900001FB120098B94FF400414548FFF723FEBC
:101DA0004FF480414248FFF71EFE4FF40051404877
:101DB000FFF719FE4FF480513D48FFF712FE012452
:101DC0003A48007910B939488078E0B1364800685F
:101DD000C821B0FBF1F201FB120098B94FF40041A9
:101DE0003348FFF700FE4FF400513148FFF7FBFD89
:101DF0004FF480512E48FFF7F6FD4FF480412C48F8
:101E0000FFF7EFFD01242948407910B92748807970
:101E1000E0B125480068FA21B0FBF1F201FB1200A5
:101E200098B94FF400412248FFF7DDFD4FF480419F
:101E30001F48FFF7D8FD4FF480511D48FFF7D3FD31
:101E40004FF400511A48FFF7CCFD012417480078E1
:101E500070B1154800686421B0FBF1F201FB12007B
:101E600020B94FF400611248FFF7BFFD012404E0E0
:101E70004FF400610E48FFF7B6FD9CB94FF4804166
:101E80000B48FFF7B0FD4FF400510948FFF7ABFDD9
:101E90004FF480510648FFF7A6FD4FF40041044877
:101EA000FFF79FFD10BD00001C030020F80200207A
:101EB0000010024010B5FFF759FF0348008E401C88
:101EC0000149088610BD0000A807002010B51C4875
:101ED000807A02280ED11A48C07A02280AD100203E
:101EE000184908700121084600F05AF8002000F057
:101EF000EFFB23E01248807A03280ED11048C07A05
:101F000002280AD101200F4908700121002000F0A9
:101F100047F8012000F0DCFB10E00948807A012836
:101F20000CD10748C07A022808D10649087001215F
:101F3000002000F035F8012000F0CAFB10BD0000C1
:101F40004C0500200003002010B5FFF7BFFF034839
:101F50000089401C0149088110BD0000A80700202D
:101F60001CB5FFF76FFC002000900190094890ED30
:101F70000B0ABDEEC00A10EE100A02B2002340F2B6
:101F8000FF110548FEF7D7FE0448008B401C0349AB
:101F900008831CBDC006002000680040A807002080
:101FA00018B10022034BDA7002E00122014BDA7013
:101FB000704700007008002008B54FF4A06000F0E2
:101FC00093F825208DF8000000208DF801008DF891
:101FD000020001208DF80300684600F049F8272030
:101FE0008DF8000000208DF801008DF8020001201E
:101FF0008DF80300684600F03BF847208DF800009C
:1020000000208DF801008DF8020001208DF80300FA
:10201000684600F02DF83A208DF8000000208DF879
:10202000010001208DF802008DF80300684600F0E1
:102030001FF814208DF8000001208DF80100022007
:102040008DF8020001208DF80300684600F010F8BA
:1020500040208DF8000001208DF8010002208DF84D
:10206000020001208DF80300684600F001F808BD69
:1020700070B5002100230F22C4781CB3174C2468CC
:1020800004F4E064C4F5E064C4F30721C1F104047E
:10209000E3B20A4144789C40E1B284781440214381
:1020A0000C07210E0E4C05786155047804F01F05CD
:1020B0000124AC4005786D11AD0005F1E025C5F8AF
:1020C000004109E0047804F01F050124AC40054DEF
:1020D0000678761145F8264070BD00000CED00E052
:1020E00000E400E080E100E002490143024A11609F
:1020F000704700000000FA050CED00E0F0EE400A29
:10210000C8B10E490A780978491E0C4B19701AB1EA
:102110000B4991ED000A70470A4909680F22B1FB8B
:10212000F2F302FB1311054A11700549C1ED000AD3
:1021300091ED000AEFE7B0EE600AECE7040300203F
:1021400008030020240C0040CBE00024C4E004EB92
:10215000C400644901EB8000007A00287DD1624808
:10216000006804EBC4015F4A02EB81010969401A6F
:1021700004EBC40102EB810148615B48006804EB99
:10218000C40102EB8101086104EBC40102EB81018F
:1021900048688047012004EBC401524A02EB8101E8
:1021A00008725148006804EBC40102EB810109691F
:1021B000401A04EBC40102EB8101886104EBC40006
:1021C000114601EB8000C06904EBC40102EB810100
:1021D0008969884206D904EBC400114601EB8000EE
:1021E000C06905E004EBC4003E4901EB8000806952
:1021F00004EBC4013B4A02EB8101C86104EBC4005B
:10220000114601EB8000006A04EBC40102EB81017E
:102210008969884206D204EBC400114601EB8000B4
:10222000006A05E004EBC4002E4901EB80008069E0
:1022300004EBC4012B4A02EB8101086204EBC400E9
:10224000114601EB80008069284909680844274944
:10225000086004EBC400114600E012E001EB8000CE
:10226000C0692349096808442149086004EBC40097
:10227000114601EB8000006A1E49096808441D49A7
:102280000860002522E01848006805EBC501154AE2
:1022900002EB81010969401A05EBC50102EB8101DE
:1022A000C968884211D305EBC500114601EB8000D7
:1022B000007A022809D0002005EBC50102EB81015C
:1022C0000872AC4201D96C1E04E06D1C0A4800681B
:1022D0008542D8D300BF641C074800688442FFF4DD
:1022E00036AF32E70C000020240C00400000002034
:1022F00004000020080000202C01002029B1064A1B
:1023000012680243044B1A6004E0034A12688243D5
:10231000014B1A60704700003038024029B1064A6C
:1023200012680243044B1A6004E0034A12688243B5
:10233000014B1A60704700004038024029B1064A3C
:1023400012680243044B1A6004E0034A1268824395
:10235000014B1A607047000044380240F0B500217C
:1023600000220024022500260223324F3F6807F096
:102370000C0121B1042905D0082937D105E02E4FE1
:10238000076036E02D4F076033E02A4F3F1F3F685C
:10239000C7F38056274F3F1F3F6807F03F036EB1DA
:1023A000264FB7FBF3F7DFF88CC0ACF1040CDCF878
:1023B00000C0CCF3881C07FB0CF40CE01E4FB7FBED
:1023C000F3F7DFF870C0ACF1040CDCF800C0CCF31C
:1023D000881C07FB0CF4174F3F1F3F68C7F30147EA
:1023E0007F1C7D00B4FBF5F7076002E0124F076029
:1023F00000BF00BF0F4F3F6807F0F0010909104F01
:102400007A5C0768D74047600A4F3F6807F4E0519D
:10241000890A0B4F7A5C4768D7408760054F3F6851
:1024200007F46041490B064F7A5C4768D740C760A4
:10243000F0BD0000083802400024F40000127A00C9
:102440002003002010B540480089A0F58060B0F559
:10245000967F0EDD3D48007918B14FF42F703C494E
:1024600008603C48C06E3C49086001203B49087048
:1024700010E035480089A0F5806010F5967F09DAF4
:102480003248007930B14FF4FA70314908600020C9
:10249000334908702F48C06E2F490968401A17D079
:1024A0002B480068B0F52F7F04D02E480068B0F5A7
:1024B0002F7F0DD12948007850B125480068B0F52C
:1024C0002F7F02D10120264908700020234908707F
:1024D0002348007850B31E480068B0F52F7F31D1F3
:1024E0001A48007910B31848C088A0F5806010F52C
:1024F000967F04DA00210120FFF7EAF922E0124872
:102500008088A0F58060B0F5967F04DD0021092069
:10251000FFF7DEF916E00C48C088A0F58060B0F542
:10252000967F04DD00210D20FFF7D2F90AE006486E
:102530008088A0F5806010F5967F03DA00211120D5
:10254000FFF7C6F910BD00004C0500207008002000
:10255000C4020020A807002010030020140300205C
:10256000DC020020C002002010B5FFF7ADFB0348DD
:10257000808B401C0149888310BD0000A807002003
:102580000CB50020019000903448006840F4803081
:102590003249086000BF3148006800F40030009004
:1025A0000198401C0190009818B90198B0F5A04F0F
:1025B000F1D12A48006800F4003010B101200090E9
:1025C00001E0002000900098012846D123484030C7
:1025D000006840F080502149403108602048006880
:1025E00040F440401E4908601C48083000681B4900
:1025F000083108600846006840F40040086008465A
:10260000006840F4A05008601648091F0860081FC1
:10261000006840F08070091F086000BF0F48006824
:1026200000F000700028F9D040F205700E490860F3
:102630000A480830006820F00300084908310860A3
:102640000846006840F00200086000BF03480830F8
:10265000006800F00C000828F8D10CBD00380240DA
:102660000070004008544007003C0240B5EEC00A2C
:10267000F1EE10FA01DD01207047B5EEC00AF1EE6F
:1026800010FA02D24FF0FF30F6E70020F4E7000026
:1026900010B50B480078012803D0094800780228BB
:1026A00001D1FFF7CFFE002000F032F80548007896
:1026B000044948700448B0F900000449088010BD7E
:1026C00000030020DC020020C8020020CA02002013
:1026D00018B10121094A11710EE00021074A117158
:1026E0004FF4FA71064A11600021064A1170012167
:1026F000054A1170054A11707047000070080020EB
:10270000C0020020DC020020D8020020D9020020F4
:10271000B8BB1C49097869B11A49497851B91A49B5
:1027200091ED060A174981ED010A91ED010A81ED4B
:10273000020A0DE01349097851B1124991ED020ADC
:1027400081ED010A104991ED060A0E4981ED020A58
:102750000C4991ED020AD1ED010A30EE600ADFED7D
:102760000B0A80EE201AB6EE000A31EE000ABDEE2A
:10277000C00A81ED050AC968024A52691144014A3A
:10278000D1607047DC020020340200200066E6467B
:1027900010B5FFF77DFF0348008A401C01490882FD
:1027A00010BD0000A807002010B51548006840F4CF
:1027B0007000134908601348006840F00100114997
:1027C000086000200F49083108600E4800680E4973
:1027D00008400C4908600D48091D0860081F006882
:1027E00020F48020091F0860002006490C31086091
:1027F000FFF7C6FE4FF0006001498039086010BD48
:1028000088ED00E000380240FFFFF6FE10300024A3
:1028100010B53E48FFF7A2FD00203D49A1F8700029
:1028200000BF0DE03A49B1F8701000EBC002394B1F
:1028300003EB8202128B1144354AA2F87010401C3F
:10284000354909688842EDD33148B0F87200304903
:10285000B1F87010884203DD2D48B0F8720002E034
:102860002B48B0F870002A49A1F872000846B0F869
:102870005600B0F5FA7F03DA01202849C87002E05B
:1028800000202649C8702248B0F85A00B0F5FA7FF7
:1028900003DA01202149487002E000201F494870F6
:1028A0001B48B0F852000A2803DA01201B490870BF
:1028B00002E00020194908701548B0F8660040F29F
:1028C000DC51884203DA01201449487102E00020FB
:1028D000124948710E48B0F86A0040F6C4118842A7
:1028E00003DA01200D49887102E000200B4988714C
:1028F0000B484088B0F5487F03DA01200749C871CA
:1029000002E000200549C87110BD000080080020C9
:10291000A80700200C0000202C010020F802002055
:102920001C08002010B5FFF773FF03488088401C87
:102930000149888010BD0000A80700200EB50121C4
:102940000820FFF7EBFC5320ADF800004FF0FF30FC
:1029500001900020ADF80200ADF808006946044877
:1029600000F014F80121024800F004F80EBD000048
:10297000000C004021B1028842F00102028004E014
:1029800002884FF6FE731A400280704700220288C8
:10299000184B98420ED0184B98420BD0B0F1804F94
:1029A00008D0164B984205D0154B984202D0154BD3
:1029B000984204D14FF68F731A404B881A43124B3A
:1029C000984207D0114B984204D04FF6FF431A406B
:1029D0000B891A4302804B68C3620B880385054B41
:1029E000984202D0044B984201D18B7A038601238E
:1029F0008382704700000140000401400004004051
:102A000000080040000C004000100040001400408E
:102A100010B540F22441124800F066F801281DD19B
:102A20000F4800880E48001D00880E48FEF7E8FC9D
:102A3000102807D1FFF7F6F80B48808F401C0A4991
:102A400088870BE000210748FEF718FC1020054995
:102A50002839C86201210348FEF710FC10BD0000B0
:102A60000048004028600240A807002010B540F24E
:102A700024410B4800F038F8012810D1084800889C
:102A80000748001D0088074800F0E8F8FEF7E8FC5A
:102A90000548B0F84800401C0349A1F8480010BDA3
:102AA00000140140A0010020A807002001F40072DA
:102AB000B2F5007F00D100BFCA430280704721B148
:102AC000828942F40052828104E082894DF6FF73CC
:102AD0001A40828170471AB1838A0B43838202E0D5
:102AE000838A8B438382704770B50246002400239B
:102AF0000025002040F66A16B14200D100BFC1F3A4
:102B0000421501F01F03012606FA03F3012D02D13D
:102B10009689334006E0022D02D1168A334001E047
:102B2000968A33400C12012606FA04F416883440C3
:102B300013B10CB1012000E0002070BDF0B50346D8
:102B4000002400260025002040F66A17B94200D173
:102B500000BF1846C1F3421401F01F06012707FA0F
:102B600006F5012C01D10C3004E0022C01D110300B
:102B700000E014301AB107682F43076002E00768CD
:102B8000AF430760F0BD00002DE9FF4705460E4644
:102B90000024A14600BFA046B08900B100BF2C8A26
:102BA00024F44054F08804432C82AC8941F20C6038
:102BB0008443B08831890843718908430443AC8158
:102BC000AC8A24F44074B0890443AC826846FFF7B1
:102BD000C5FB2048854202D01F48854202D1DDF85E
:102BE0000C9001E0DDF80890A88900F4004040B1A5
:102BF00009EBC90000EB091031684900B0FBF1F79F
:102C000007E009EBC90000EB091031688900B0FB4F
:102C1000F1F76420B7FBF0F004012009642101FB07
:102C20001078A88900F4004040B1322000EBC800C1
:102C3000B0FBF1F000F00700044308E0322000EBA5
:102C400008106421B0FBF1F000F00F0004432C8168
:102C5000BDE8FF87001001400014014010B5044694
:102C60006068FEF7CDFB618A081AA082E08A218B9A
:102C70000844E082E08A618A884206DBE08A618A51
:102C800090FBF1F201FB1200E082E08AA18A884207
:102C900015DAA08AE18A401A2083208B218A884293
:102CA00035DC002007E0E28AE1681144095CA26893
:102CB0001154411C88B2218B8142F4DC27E0A08AA8
:102CC000618A0844E18A401A2083208B218A884245
:102CD0001DDC002007E0E28AE1681144095CA2687B
:102CE0001154411C88B2218BA28A891A8142F2DCDC
:102CF000002009E0E168095C238BA2681A44A38ADA
:102D0000D21A1154411C88B2A18A8142F2DC208B74
:102D100010BD70B505460C4600260DB1022C01D839
:102D2000002070BD611EFF222846FEF77DFE06468C
:102D3000601E285CB04201D10120F2E70020F0E7DC
:102D400010B50548007830B1FEF7CCFC0348808C04
:102D5000401C0249888410BD14020020A8070020EE
:102D60004100080218BF04200A0E18BF40F00100FD
:102D70004FF07F4232EA010108BF40F00200012813
:102D800008BF052070472DED020B019820F0004090
:102D900001909DED000B02B0704700B52DED048B46
:102DA000B0EE409AF0EE609A83B051EC190B00F04F
:102DB00061FC41EC180B18EE100A18EE901A8DED1C
:102DC000008B002818BF0120084320F00040C0F10C
:102DD0007F6000F1E040C00F14D019EE101A19EE18
:102DE000900A8DED009B002918BF0121084320F0B7
:102DF0000040C0F17F6000F1E040C00F04BF01203F
:102E0000FDF79FFAB0EE480A03B0F0EE680ABDEC99
:102E1000048B00BD10B5FDF746FBFFF795F90020C8
:102E200010BD000000B595B001210846FFF766FA15
:102E300001211020FFF782FA01218805FFF75EFAD1
:102E400007220A213448FEF7A9FD4FF48060139051
:102E500002208DF8500003208DF8510000208DF8DD
:102E6000520001208DF8530013A92B48FEF74EFDA8
:102E700042F210700F900020ADF84000ADF8420013
:102E8000ADF84400ADF848000420ADF846000FA9A5
:102E90002248FFF779FE2248FEF7FCF900BF2048E0
:102EA000FEF7A4FA0028FAD14FF0006000901D4808
:102EB00001900020039005904FF480600690002060
:102EC000079008904FF48070099040020A9000200B
:102ED0000B9003200C9000200D900E906946104836
:102EE000FEF792FA40210D48FFF7E0FD012240F283
:102EF00024410A48FFF722FE012240210748FFF73C
:102F0000EAFD01210548FFF7DAFD01210448FEF73B
:102F1000B5F915B000BD00000000024000100140EE
:102F2000406402400444004010B596B004460121BC
:102F30000820FFF7E3F901218804FFF7EFF90121E9
:102F40004805FFF7DBF9072208214748FEF726FD71
:102F5000072209214448FEF721FD4FF440701490E8
:102F600002208DF854008DF8550000208DF8560091
:102F700001208DF8570014A93B48FEF7C7FC1094B8
:102F80000020ADF84400ADF84600ADF84800ADF8BB
:102F90004C000C20ADF84A0010A93448FFF7F4FDAE
:102FA0003348FEF777F900BF3148FEF71FFA0028D3
:102FB000FAD14FF0006001902E4802902E48039005
:102FC000102005900020049006904FF48060079038
:102FD0000020089009904FF480700A9040020B90F6
:102FE00000200C9003200D9000200E900F9001A95E
:102FF0001F48FEF709FA1E483030FEF74BF900BFB4
:103000001B483030FEF7F2F90028F9D11B48039035
:10301000112005904020049001A915483030FEF79A
:10302000F3F901211148FFF74AFD40210F48FFF74E
:103030003DFD012240F224410C48FFF77FFD0122B3
:1030400040210A48FFF747FD012280210748FFF78A
:1030500042FD01210648FEF711F9012104483030F4
:10306000FEF70CF916B010BD000C024000480040FD
:1030700028600240044400406205002093050020BF
:1030800010B596B0044601210420FFF737F901215D
:103090002020FFF753F901218805FFF72FF90822B7
:1030A00006214548FEF77AFC082207214248FEF730
:1030B00075FCC020149002208DF854008DF8550046
:1030C00000208DF8560001208DF8570014A93A48C9
:1030D000FEF71CFC10940020ADF84400ADF846004B
:1030E000ADF84800ADF84C000C20ADF84A0010A92E
:1030F0003248FFF749FD3248FEF7CCF800BF3048B0
:10310000FEF774F90028FAD14FF0006001902D48C5
:103110000290002003900590049006904FF4806088
:1031200007900020089009904FF480700A904002A8
:103130000B9000200C9003200D9000200E900F901B
:1031400001A91F48FEF760F91D487830FEF7A2F884
:1031500000BF1B487830FEF749F90028F9D10390E9
:1031600005904020049001A915487830FEF74CF9ED
:1031700001211248FFF7A3FC40211048FFF796FCFD
:10318000012240F224410D48FFF7D8FC01224021E2
:103190000A48FFF7A0FC012280210848FFF79BFCAA
:1031A00001210748FEF76AF8012105487830FEF74B
:1031B00065F816B010BD0000000802400014014080
:1031C000286402400444004021F00042A2F1605211
:1031D000B2F5801F01F0004328BFD2F17F6C0BD9FC
:1031E0005FEA001C43EAC20242EB507018BF70470E
:1031F00028BF20F001007047B2F5801FBCBF184601
:1032000070474FEA410C1CF5001F02D2084600F03F
:103210005DBC70B500F0A4F900000089FFF7F6BFAF
:103220004FF00040A0F580007047000010B591EA13
:10323000030F48BF83F0004300F1F082841A71EB62
:10324000030C05D2121943EB0C03001B61EB0C01BC
:10325000DFF824E14FEA1154A4EB135C1EEA430F9C
:1032600018BF9EEA445F73D023EA0E03DCF1200E00
:1032700021EA045143F4801332D322FA0CFE10EBFE
:103280000E0023FA0CFE41EB0E01CCF1200E03FAE6
:103290000EFE10EB0E0051F10001B1F5801FCCF1D4
:1032A000200E32D201EB045112FA0EF2BDE81040AA
:1032B00058BF7047401C38BF5FEA420218BF7047D2
:1032C000002814BF20F0010041F100014FEA410342
:1032D00013F5001F38BF7047A1F1C04100F08EB94F
:1032E000012A43EB0302ACF1200CDCF11F0E32BFCC
:1032F0004FF0000E23FA0CF310EB030041EB0451E6
:10330000B4EB115FD0D0A1EB045101F58011490855
:103310005FEA300001EB04510ED350F1000038BFDA
:1033200012FA0EFE08D1BDE81040C9E7401C38BFB4
:103330005FEA4202CAD1C3E7BDE810404FEA410349
:1033400013F5001F38BF7047A1F1C04100F056B916
:103350009EEA445F08D011EA5E0FBDE8104004BF4A
:1033600001F0004100207047BDE8104070B500F04A
:10337000F7F800BF64FBBE3E0000E0FF491058BFF5
:10338000C1F140415B1058BFC3F140438B42EFF3A2
:103390000080704751EA030C17D41CF5801F58BFFA
:1033A000BCF5801F00F10680994218BF704708BF26
:1033B0009042704707D711F5801F58BF13F5801F43
:1033C00019D499427047894270471CF5801F08D56F
:1033D000BCF5801FF7D58B4218BF704708BF8242EB
:1033E00070474FF4001C1CEB410F38BF1CEB430F20
:1033F00001D28B42704770B500F0B2F892244900B8
:103400004FF000514FF08053FFF7B8BFDFF848C1CD
:1034100070B51CEA111E1EBF1CEA13159EEA0C0FA4
:1034200095EA0C0F00F06F8081EA030423EA4C1345
:103430004EEAD47E21EA4C1141F4801143F480130A
:10344000AE44A1FB024CA0FB0365AEF17F7E3619B2
:1034500055EB0C05A1FB034C4CF10003A0FB021C37
:1034600016EB0C06654153F10003094218BF46F004
:10347000010613F4007F0BD14FEA03314FEA053008
:10348000340341EA155140EA16506FF003020AE096
:103490004FEAC3214FEAC520F40241EA555140EA00
:1034A00056506FF0020202EB2E4201EB025585EA04
:1034B000CE710AD05FEA440C18BF24F0004450F1EA
:1034C000000041F1000120EAD47040F2FE7C624528
:1034D00000D270BDA84214BF4FF080444FF040446A
:1034E000002E08BF0024BEF1806FA8BFA1F1C0412B
:1034F000BDE8704080F282804FF0000001F1C041D1
:1035000001F0004170479EEA0C0F0CEA131518BF3A
:1035100095EA0C0F06D04FF0000081EA030E0EF082
:10352000004170BD00F01CF88900013E00F007B8B2
:1035300000F009B84FEA430C5FEA5C5C08D081EA0E
:10354000030100F05BB84FEA410C5FEA5C5CF6D126
:103550004FF00000014970470000FF070000F87FAE
:103560000EF1020E2EF0030E5EF8046B364205D407
:10357000012A43EB030515F5001F12D8012841EB82
:10358000010C1CF5001F0CD80ED14FEAD17C15F5AB
:10359000001F0CEB4C0C0CF1020C08BF4CEBD37C65
:1035A00004E04FF0080C01E04FEAD37C0CEB4C0533
:1035B00026FA05F606F00706B6F1040C06D20EEB65
:1035C000860CBDE870404CF0010C6047DFE80CF061
:1035D000090B02024FF000414FF00000A1F500215D
:1035E00070BD19461046012851EB010418BFD4F5EF
:1035F000001484BF002001F0004170BD0808A0F550
:1036000000114FEA3101704753EA010C17D41CF541
:10361000801F58BFBCF5801F00F106808B4218BF89
:10362000704708BF8242704707D713F5801F58BF05
:1036300011F5801F19D48B4270479B4270471CF5CF
:10364000801F08D5BCF5801FF7D5994218BF704779
:1036500008BF904270474FF4001C1CEB430F38BF6B
:103660001CEB410F01D2994270470FB40CBC03BC54
:10367000FFF7C1BE2DE9F04101F5801CBCF5001F2C
:10368000C0F2A9804FEA115C21EA0C510CF1FD0C4B
:1036900041F480115FEA5C0C0CF5C07C01D3400062
:1036A000494130A4890241EA905187028E0E0A0CEA
:1036B000A45D04FB04F602FB06F6C6F14046A4FB3B
:1036C0000662F60D46EA422606FB06F4A4FB012339
:1036D0005242C3F1404338BF5B1EA6FB02420024A6
:1036E000E6FB0324D20B42EA4446A6FB0623A1FBD9
:1036F00002E2A3FB07E4E3FB61426442C2F1404EF5
:1037000038BFAEF1010EA6FB04234FF00002E6FB2A
:103710000E32A2FB03463400E2FB6264A1FB06E624
:10372000A4FB07E8E4FB61687642C8F1405838BF63
:10373000A8F10108A2FB06E4A3FB08E5E2FB68543C
:10374000A1FB05E6A7FB04E8E1FB648618F1200570
:1037500056F10006A809A8F11B08B10908F03F08B6
:10376000B8F10A0F40EA86601CD901EB0C51BDE8A4
:10377000F08100BFFCF5EEE8E2DDD8D3CFCBC7C3C4
:10378000C0BDB9B6B4B1AEACA9A7A5A3A19F9D9B7E
:103790009A9896959392908F8D8C8B898887868541
:1037A00084838281A0FB006800FB01F208EB4208E1
:1037B000B8EB872807D5341858EB0104D5D5401C41
:1037C00051F10001D1E7341A78EB0104CDD4401E49
:1037D00071F10001C9E75FEA4C0C5FEA9C5C0DD116
:1037E00005D34FF0000001F00041BDE8F081BDE8D5
:1037F000F04170B5FFF7B4FE6DDBFFBEBDE8F041F0
:103800004FF00000004970470000F87F10B591EAC2
:10381000030F48BF83F000433FF510AD841A71EBEE
:10382000030C07D212198CF0004C43EB0C03001B65
:1038300061EB0C01DFF8A4E14FEA1154A4EB135C37
:103840001EEA430F18BF9EEA445F00F0B08023EAEF
:103850006E03524221EA0451C3EB6E0338BF5B1E74
:10386000DCF1200E25D322FA0CFE10EB0E0043FAF9
:103870000CFE41EB0E01CCF1200E03FA0EFE10EB14
:103880000E0051F10001CCF1200E29D412FA0EF2F3
:1038900001EB0451BDE8104058BF7047401C1CBFED
:1038A000B2F1004F704700280CBF491C20F0010006
:1038B000704712EB020E43EB030218BF4FF0010EEC
:1038C0004EEA4202ACF1200CDCF11E0E54D943FA50
:1038D0000CFE10EB0E0051F1FF31CCF11E0ED5D5D0
:1038E0000EF1010E12FA0EFE404141EB010101EB17
:1038F000445C5FEA5C5C10D910EBDE7001EB0451B4
:1039000038BFBEF1004FBDE8104018BF7047002817
:103910000CBF491C20F00100704730D24FEAD42C74
:1039200011F5001124F400641BD0B1FA81F20B3AB6
:10393000A41AA41ED2F12003914030FA03F31943D4
:10394000904001EBCC71002C01EB0451BDE810401C
:10395000A8BF704701F1C0414FF0000001F00041E5
:103960007047B0FA80F310FA03F100D110BDE41AE9
:10397000173C4805C90AE4E701EB045110BD4910A2
:1039800001EB0451BDE810404FEA300002E04FF077
:10399000000170474A0008BF0042F8D0B2F5001F8E
:1039A00028BF704701F000414FF0000070479EEAC9
:1039B000445F07D011EA5E0FBDE8104004BF00214C
:1039C00000207047BDE8104070B5FFF7C9FD00BF8B
:1039D00040DFF63E83F00041104670470000E0FFF4
:1039E00043004FEAD30C4FEA3C0C43401FBF400753
:1039F0000CF1605113F0FE4F70471CF0006F03D1C3
:103A000000200CF0004170470CF0004343EA507076
:103A100010B540EACC0000F00EF800BF00000092A4
:103A20004FEA0001FFF7EABD4FF000414FF0000000
:103A3000A1F5002170470EF1020E2EF0030E5EF884
:103A4000044B244204D44FEA4102B2F17F4F11D813
:103A50004FEA4003B3F17F4F0CD80ED14FEAD07C30
:103A6000B2F17F4F0CEB4C0C0CF1020C08BF4CEB8D
:103A7000D17C04E04FF0080C01E04FEAD17C0CEB64
:103A80004C0324FA03F404F00704B4F1040C06D246
:103A90000EEB840CBDE810404CF0010C6047DFE8F1
:103AA0000CF0070802024FF00040A0F5800010BDA6
:103AB0000846420018BFD2F1807288BF00F0004073
:103AC00010BD4FF04070E1EE100A7047FF2141EA4F
:103AD000D050C0057047FF005EBCE2613FDD83C28D
:103AE0009C7E20A3FD1F419DC3217FFCA2401E5F41
:103AF00001E3BD3E6082DC237D9FC1421CFEA0E14C
:103B0000BF5D0380DE3C62BEE0025CDF81633D7C22
:103B100022C09E1D43A1FF4618FAA427799BC584A5
:103B2000DA3866E5BB5907DB856739BAE406581908
:103B300047A5FB7826C49A653BD987045AB8E6A7FF
:103B4000F91B45C6987A24F8A6441A99C7257B3AEA
:103B50006486D85B05E7B98CD2306EEDB3510F4E59
:103B600010F2AC2F7193CD114FADF3702ECC92D3D8
:103B70008D6F31B2EC0E50AFF1134DCE90722C6DB3
:103B800033D18F0C52B0EE326C8ED0530DEFB1F0BA
:103B9000AE4C1291CF2D73CA947628ABF517490815
:103BA00056B4EA6937D58B5709EBB536688AD49590
:103BB000CB2977F4AA4816E9B7550B88D6346A2B77
:103BC0007597C94A14F6A8742AC896154BA9F7B672
:103BD000E80A54D7896B35000000891112239B3203
:103BE0002446AD573665BF74488CC19D5AAFD3BECD
:103BF0006CCAE5DB7EE9F7F88110080193331A22DD
:103C0000A5562C47B7753E64C99C408DDBBF52AEAC
:103C1000EDDA64CBFFF976E802218B3010029913BC
:103C20002667AF763444BD554AADC3BC588ED19F8C
:103C30006EEBE7FA7CC8F5D983310A20911218039C
:103C4000A7772E66B5543C45CBBD42ACD99E508F6C
:103C5000EFFB66EAFDD874C904428D5316619F706C
:103C60002004A9153227BB364CCEC5DF5EEDD7FC4C
:103C70006888E1997AABF3BA85520C4397711E605C
:103C8000A1142805B3373A26CDDE44CFDFFD56EC2C
:103C9000E9986089FBBB72AA06638F7214409D513C
:103CA0002225AB343006B9174EEFC7FE5CCCD5DD0C
:103CB0006AA9E3B8788AF19B87730E6295501C411C
:103CC000A3352A24B1163807CFFF46EEDDDC54CDEC
:103CD000EBB962A8F99A708B088481951AA793B6FC
:103CE0002CC2A5D33EE1B7F04008C919522BDB3AEC
:103CF000644EED5F766DFF7C899400859BB712A6BC
:103D0000ADD224C3BFF136E0C1184809D33B5A2ACB
:103D1000E55E6C4FF77D7E6C0AA583B4188691979B
:103D20002EE3A7F23CC0B5D14229CB38500AD91BAB
:103D3000666FEF7E744CFD5D8BB502A4999610877B
:103D4000AFF326E2BDD034C1C3394A28D11A580B8B
:103D5000E77F6E6EF55C7C4D0CC685D71EE597F44B
:103D60002880A1913AA3B3B2444ACD5B5669DF786B
:103D7000600CE91D722FFB3E8DD604C79FF516E43B
:103D8000A9902081BBB332A2C55A4C4BD7795E684B
:103D9000E11C680DF33F7A2E0EE787F61CC495D51B
:103DA0002AA1A3B03882B193466BCF7A5448DD592B
:103DB000622DEB3C700EF91F8FF706E69DD414C5FB
:103DC000ABB122A0B9923083C77B4E6AD5585C490B
:103DD000E33D6A2CF11E780F53656E644461746193
:103DE0005461736B00000000566973696F6E446123
:103DF000746153656E645461736B00004D6F746F32
:103E0000724461746153656E645461736B000000A9
:103E10004C454453746174654368616E67655461D1
:103E2000736B00004D6F646543686F6F7365546119
:103E3000736B000047696D62616C5461736B0000C5
:103E400053797374656D4D6F6E69746F72546173DD
:103E50006B00000053686F6F745461736B00000057
:103E6000803E00080000002030030000C40100086C
:103E7000383F000830030020C00B0000200200087B
:103E8000C113403E140825293A080C0311420F1AA9
:103E9000FF011A24244B491F240312E80329241A82
:103EA00054240B1C91272413D83D0C1C086925248D
:103EB0001AFC240A1D616C1A346C0B1C551D241A43
:103EC000E8480B1C412D241A10480B1CB51E243940
:103ED0001D91835802021307121E1640014001640F
:103EE000B2641255022E0A32AA100A140140286444
:103EF00002401C061420E00513203202773C138098
:103F00003F0218200B1810421C0B1860411C091AA4
:103F1000540A199838A14BF40104717309098A01F4
:103F2000140910AEB22709192879232C02030404BE
:083F3000050006070809000066
:040000050800018965
:00000001FF
