:020000040800F2
:1000000058190020690200087102000873020008F4
:10001000750200087702000879020008000000005D
:100020000000000000000000000000007B0200084B
:100030007D020008000000007F0200088D3E0008DD
:10004000830200088302000883020008830200087C
:10005000830200088302000883020008830200086C
:10006000830200088302000883020008830200085C
:10007000830200088302000883020008830200084C
:10008000830200088302000883020008830200083C
:100090009507000883020008830200088302000815
:1000A0001544000883020008830200088302000848
:1000B000830200088302000883020008830200080C
:1000C00083020008830200088302000883020008FC
:1000D0008302000899480008054900087D49000886
:1000E00083020008830200088302000883020008DC
:1000F00083020008830200088302000883020008CC
:1001000083020008830200088302000883020008BB
:1001100083020008830200088302000883020008AB
:10012000830200088302000883020008830200089B
:10013000830200088302000883020008830200088B
:10014000A50C00088302000883020008830200084F
:10015000830200088302000883020008D9490008CE
:10016000830200088302000883020008830200085B
:10017000830200088302000883020008830200084B
:10018000830200088302000800F002F800F05CF827
:100190000AA090E8000C82448344AAF10107DA45E2
:1001A00001D100F051F8AFF2090EBAE80F0013F0D8
:1001B000010F18BFFB1A43F00103184798620000B3
:1001C000B86200000A444FF0000C10F8013B13F035
:1001D000070408BF10F8014B1D1108BF10F8015BA0
:1001E000641E05D010F8016B641E01F8016BF9D193
:1001F00013F0080F1EBF10F8014BAD1C0C1B09D1EA
:100200006D1E58BF01F801CBFAD505E014F8016B5B
:1002100001F8016B6D1EF9D59142D6D370470000ED
:100220000023002400250026103A28BF78C1FBD8FF
:10023000520728BF30C148BF0B6070471FB505F09B
:1002400040FF1FBD10B510BD00F0BCF81146FFF710
:10025000F5FF04F0A5FE00F0DAF803B4FFF7F2FFB3
:1002600003BC00F0DDF8000009488047094800475A
:10027000FEE7FEE7FEE7FEE7FEE7FEE7FEE7FEE756
:10028000FEE7FEE704480549054A064B70470000B3
:100290005D4100088901000858130020581900200A
:1002A0005815002058150020032A40F2308010F025
:1002B000030C00F0158011F8013BBCF1020F624401
:1002C00098BF11F801CB00F8013B38BF11F8013B92
:1002D000A2F1040298BF00F801CB38BF00F8013B3F
:1002E00011F0030300F03380083AC0F0088051F8A1
:1002F000043B083A51F804CBA0E80810F5E7121DBA
:100300005CBF51F8043B40F8043BAFF30080D207D8
:1003100024BF11F8013B11F801CB48BF11F8012BA4
:1003200024BF00F8013B00F801CB48BF00F8012BC7
:10033000704770477047704710B500F03BF8006891
:1003400010BD10B5044600F035F8046010BD10B5BE
:10035000203AC0F00B80B1E81850203AA0E81850BD
:10036000B1E81850A0E81850BFF4F5AF5FEA027C7E
:1003700024BFB1E81850A0E8185044BF18C918C0ED
:10038000BDE810405FEA827C24BF51F8043B40F88E
:10039000043B08BF7047D20728BF31F8023B48BF73
:1003A00011F8012B28BF20F8023B48BF00F8012BB1
:1003B0007047000000487047F41200200048704762
:1003C000F41200207546FFF7F9FFAE4605006946B6
:1003D000534620F00700854618B020B5FFF752FFBE
:1003E000BDE820404FF000064FF000074FF0000836
:1003F0004FF0000B21F00701AC46ACE8C009ACE8B7
:10040000C009ACE8C009ACE8C0098D46704710B51A
:100410000446AFF300802046BDE81040FFF71DBF43
:1004200001491820ABBEFEE7260002007047D0ED60
:10043000000AC0ED010A80ED000AD0ED010A70EE5D
:10044000600AC0ED020AD0ED050AF1EE600AF0EE96
:10045000001A80EEA11AD0ED020AB4EEE01AF1EE15
:1004600010FA08DDD0ED020A90ED051A70EE810A4F
:10047000C0ED020A14E090ED051AF0EE001AC1EE8C
:10048000210A90ED021AF4EEC10AF1EE10FA07D239
:10049000D0ED020A90ED051A70EEC10AC0ED020A15
:1004A000D0ED060A90ED021A70EE810AC0ED060A40
:1004B000704770B505460C4600260DB1022C00D8D9
:1004C00070BD611EFF22284601F086FD0646601EB3
:1004D0002E5400BFF4E710B504F09AF8A72140F2BB
:1004E000E73004F0B1F800F01BF800F073F903F006
:1004F00001FE04F03BFD04F05BFD4FF4E13004F03D
:10050000DBFD4FF4E12004F08FFE4FF4E12004F016
:1005100035FF01F0DFFB02F089FA02F0E7FA10BDC7
:1005200000B589B00121022002F09EFC012148069D
:1005300002F0AAFC4FF44070009002208DF80400F5
:100540008DF8050000208DF8060001208DF80700C9
:100550006946274801F0A0FC09220821244801F03F
:10056000E3FC09221146224801F0DEFC00208DF850
:100570001E0001208DF81F008DF8200000208DF84E
:1005800021008DF8220001208DF8230000208DF835
:100590001A008DF81B0008208DF81C0003208DF830
:1005A0001D00ADF8180006A9124800F00CFD00204F
:1005B0008DF812008DF8130001208DF81400002032
:1005C000ADF80800ADF80A00ADF80C00ADF80E006B
:1005D000ADF8100001208DF8150002A800F0D6FB40
:1005E00001220221034800F0E5FC09B000BD000033
:1005F000000402400064004000B55D480068B0F5AA
:10060000017F79D007DCA0F20120E8B3012858D09F
:1006100002286FD161E0B0F5027F79D0B0F5806F2C
:1006200068D15348007B5249C97A40EA012000EE64
:10063000100AB8EEC00ADFED4F0A80EE201A4E48CD
:1006400080ED001A4A48817B407B41EA002000EEA1
:10065000100AB8EEC00ADFED470A80EE201A4648BD
:1006600080ED011A4248017CC07B41EA002000EE87
:10067000100AB8EEC00ADFED3F0A80EE201A3E48AD
:1006800080ED021A3A4800E00FE0817C407C41EAAC
:10069000002000EE100AB8EEC00ADFED360A80EE48
:1006A000201A354880ED031A60E031480B3001F024
:1006B00064FC00EE100AB8EEC00A304880ED010A72
:1006C00054E02B480B3001F058FC00EE100AB8EE55
:1006D000C00A2A4880ED120A48E025480B3001F094
:1006E0004CFC00EE100AB8EEC00A244880ED230A44
:1006F0003CE001E039E00BE01D480B3001F03DFC2F
:1007000000EE100AB8EEC00A1C4880ED340A2DE055
:100710001B4801F02CFC00EE100AB8EEC00AB0EE47
:10072000402A1848FFF783FE164890ED060AB1EEFE
:10073000400A154880ED010A114801F01EFC00EE48
:10074000100AB8EEC00A0F48D0ED040A80EE201A55
:10075000B1EE410A0D4880ED010A0D48B0F86C0079
:10076000401C0B49A1F86C0000BF00BF00BF00BDDA
:10077000680600200000C8428C110020EC0D00200B
:100780008706002024040020400400208404002068
:10079000A411002010B502210B4800F07BFB88B1AA
:1007A0000221094800F09EFA084A0021064800F09C
:1007B00094FCFFF721FF0648B0F86400401C044990
:1007C000A1F8640010BD000000640040680600202D
:1007D000A411002000B589B00121022002F044FBE1
:1007E0000121480602F050FB0121880602F04CFB73
:1007F0006020009002208DF804008DF80500002094
:100800008DF8060001208DF807006946274801F0A1
:1008100043FB09220521254801F086FB0922062118
:10082000224801F081FB00208DF81E0001208DF888
:100830001F008DF8200000208DF821008DF8220087
:1008400001208DF8230000208DF81B0008208DF872
:100850001C0003208DF81D00ADF8180006A91448EF
:1008600000F0B1FB0E208DF8120000208DF813006F
:1008700001208DF814000020ADF80800ADF80A0042
:10088000ADF80C00ADF80E00ADF8100001208DF8A9
:10089000150002A800F07AFA0E208DF8120001224D
:1008A0000221034800F086FB09B000BD00040240AD
:1008B0000068004010B52DED068BE6480068A0F2F8
:1008C000012008287ED2DFE800F084C5FDFC047D0D
:1008D0007DFBE148008A401CDF490882DF48007840
:1008E000E8B3DC480B3001F042FB00EE100AB8EE32
:1008F000C00ADB4880ED000A90ED000A80ED060A90
:10090000D0ED050AB0EE001A80EE810AD0ED060A9D
:100910009FEDD41A70EEC10AB4EEE00AF1EE10FABF
:1009200008D290ED060AD0ED050A30EE600A80ED9F
:10093000060A1DE0CA4890ED050AF1EE400AB0EE45
:10094000001A80EE810AD0ED060A9FEDC61A70EEFD
:10095000C10AB4EEE00AF1EE10FA09DD00E00BE0A6
:1009600090ED060AD0ED050A30EE200A80ED060A69
:100970000020BA4908700CE0B6480B3001F0F7FAD5
:1009800000EE100AB8EEC00AB0EE402AB448FFF7F5
:100990004EFDB34890ED060ADFEDB20A30EE600A74
:1009A000DFEDB10A20EE200ADFEDB00A80EE201A5A
:1009B000AF4880ED001AA7480B3001F0DEFA00EED8
:1009C000100A00E041E1B8EEC00AAA4880ED000A32
:1009D0003CE1A0480B3001F0CAFA00EE100AB8EE74
:1009E000C00AB0EE402AA448FFF721FDA24890EDCE
:1009F000060A10EE101A084605F0F2FA41EC1A0B3E
:100A00009FED9E0B53EC102B04F058FE41EC190B9C
:100A10009FED9C0B53EC102B04F0F8FF41EC180BEE
:100A200004F066FD994948608A480B3001F0A5FA48
:100A3000092190FBF1F000EE100AB8EEC00A9448CC
:100A400080ED010A9348B0F87000401C9149A1F86C
:100A50007000FBE07F480B3001F089FA00EE100ACD
:100A6000B8EEC00AB0EE402A83481C30FFF7DFFC26
:100A7000814890ED0D0A10EE101A084605F0B0FA04
:100A800041EC1A0B9FED7D0B53EC102B04F016FE7E
:100A900041EC190B9FED7B0B53EC102B04F0B6FFD0
:100AA00041EC180B04F024FD7849886469480B3048
:100AB00001F063FA092190FBF1F000EE100A02E068
:100AC00094E050E00CE0B8EEC00A714880ED120AE4
:100AD0007048B0F87400401C6E49A1F87400B5E08D
:100AE0005C480B3001F043FA00EE100AB8EEC00A81
:100AF000B0EE402A60483830FFF799FC5E4890ED30
:100B0000140A10EE101A084605F06AFA41EC1A0BA6
:100B10009FED5A0B53EC102B04F0D0FD41EC190B58
:100B20009FED580B53EC102B04F070FF41EC180BA9
:100B300004F0DEFC5549C1F88C0046480B3001F04A
:100B40001CFA092190FBF1F000EE100AB8EEC00A81
:100B50004F4880ED230A4F48B0F87800401C4D49BB
:100B6000A1F8780072E03B480B3001F000FA00EE8B
:100B7000100AB8EEC00AB0EE402A3F485430FFF7E2
:100B800056FC3D4890ED1B0A10EE101A084605F081
:100B900027FA41EC1A0B9FED390B53EC102B04F0A4
:100BA0008DFD41EC190B9FED370B53EC102B04F02E
:100BB0002DFF41EC180B04F09BFC3449C1F8D00028
:100BC00024480B3001F0D9F9092190FBF1F000EE37
:100BD000100AB8EEC00A2E4880ED340A2D48B0F84D
:100BE0007C00401C2B49A1F87C002FE019480B30F9
:100BF00001F0BDF900EE100AB8EEC00AB0EE402ACE
:100C00002548FFF714FC244890ED060AB1EE400A8F
:100C1000224880ED010A0F480B3001F0AEF900EEDA
:100C2000100AB8EEC00A1C48D0ED040A80EE201A63
:100C3000B1EE410A1A4880ED010A1648B0F86C007E
:100C4000401C1449A1F86C0000E000BF00BFBDECDF
:100C5000068B10BD7C060020301200208C05002081
:100C6000800200200080AA440000B4430000004637
:100C7000D0030020D40300201C110020000000003D
:100C80000000C0400000000000004440FC0E0020B6
:100C90000C100020A4110020240400204004002097
:100CA0008404002010B502210B4800F0F3F888B14D
:100CB0000221094800F016F8084A0021064800F011
:100CC0000CFAFFF7F7FD0648B0F86800401C04492D
:100CD000A1F8680010BD0000006800407C060020FC
:100CE000A4110020B1F5007F3AD00FDC202928D0D4
:100CF00006DC01291CD004291DD0082940D11DE0A3
:100D0000402921D0B1F5807F3AD126E0B1F5004FDE
:100D100031D006DCB1F5806F25D0B1F5006F2FD151
:100D200024E0B1F5803F12D0B1F5003F28D111E0A9
:100D3000154A826025E00822C26022E01022C260CB
:100D40001FE0082202611CE01022026119E0082263
:100D5000426016E01022426013E00422426010E07C
:100D6000042242600DE0042242600AE00022826117
:100D70000422426005E0002282610422426000E019
:100D800000BF00BF704700000101010010B5002145
:100D9000837A012202FA03F13D4A126842F001020D
:100DA0003B4B1A603A4A1C3212688A43384B1C3358
:100DB0001A60027BCAB9364A0C3212688A43344B35
:100DC0000C331A604288C38842EA0343304A4032F7
:100DD000847A42F834300288838842EA03432C4AFA
:100DE0004032847A02EBC4025360027B012A19D19B
:100DF000274A0C3212680A43254B0C331A6042888A
:100E0000038842EA0343224A4032847A42F834306B
:100E1000C288838842EA03431D4A4032847A02EB47
:100E2000C4025360C27A3AB9194A121D12688A4341
:100E3000174B1B1D1A6006E0154A121D12680A4363
:100E4000134B1B1D1A60028932B9114A1432126801
:100E50008A430F4B14331A600289012A06D10C4AC7
:100E6000143212680A430A4B14331A60427B012A77
:100E700006D1074A1C3212680A43054B1C331A601C
:100E8000034A126822F00102014B1A6010BD0000F3
:100E90000066004070B504460D4600266069284093
:100EA000002871D0B5F5807F5CD010DC082D35D0DE
:100EB00006DC012D20D0022D24D0042D72D127E094
:100EC000102D31D0202D35D0402D6BD138E0B5F527
:100ED000004F60D009DCB5F5007F49D0B5F5806FD3
:100EE0004CD0B5F5006F5DD14FE0B5F5803F2DD00A
:100EF000B5F5003F56D12FE0A0682D4900F0AEFCBB
:100F0000064651E0E068032100F0A8FC06464BE0ED
:100F1000E068082100F0A2FC064645E0E0681021E8
:100F200000F09CFC06463FE02069032100F096FC9F
:100F3000064639E02069082100F090FC064633E0BF
:100F40002069102100F08AFC06462DE06068082127
:100F500000F084FC064627E06068102100F07EFC6B
:100F6000064621E0A069012100F078FC06461BE05E
:100F7000A069022100F072FC064615E0A069042178
:100F800000F06CFC06460FE00FE0A069702100F055
:100F900065FC064608E06068042100F05FFC064638
:100FA00002E0FFE7002600BF00E00026304670BDEB
:100FB000010101001AB143690B43436102E0436937
:100FC0008B434361704730B502460020002314680C
:100FD00024F002041460146844F00104146000E07A
:100FE0005B1C546804F001041CB94FF6FF74A34263
:100FF000F6D1546804F001040CB900206CE08C793F
:10100000012C04D1146844F08004146003E01468D7
:1010100024F080041460CC79012C04D1146844F0CD
:101020004004146003E0146824F0400414600C7A57
:10103000012C04D1146844F02004146003E0146807
:1010400024F0200414604C7A012C04D1146844F07C
:101050001004146003E0146824F0100414608C7A07
:10106000012C04D1146844F00804146003E01468EF
:1010700024F008041460CC7A012C04D1146844F0E4
:101080000404146003E0146824F0040414608C78F1
:10109000A407CD7844EA05640D7944EA05444D7906
:1010A00044EA05540D886D1E2C43D461146824F065
:1010B00001041460002300E05B1C546804F0010488
:1010C0001CB14FF6FF74A342F6D1546804F001043A
:1010D0000CB1002000E0012030BD10B500F5D87340
:1010E00003EB01131B6803F004031372137A53B963
:1010F00000F5D87303EB01131B6840F2FF7404EA98
:101100005353136009E000F5D87303EB01131B6818
:101110006FF0604404EAD303536000F5D87303EB27
:1011200001131B6803F00203537200F5D87303EB3D
:1011300001135B6803F00F03937200F5D87303EBA0
:1011400001135B681B0AD37400F5D87303EB01131A
:101150009B68D37200F5D87303EB01139B681C0ADC
:10116000147300F5D87303EB01139B681C0C5473C4
:1011700000F5D87303EB01139B681B0E937300F506
:10118000D87303EB0113DB68D37300F5D87303EB5B
:101190000113DB681C0A147400F5D87303EB011308
:1011A000DB681C0C547400F5D87303EB0113DB6887
:1011B0001B0E937421B9C36843F02003C36003E09E
:1011C000036943F02003036110BD2DE9F04385B0AE
:1011D00081460E4614461D46DDE90C7800208DF848
:1011E0000800009608208DF80A0000208DF80900FC
:1011F000200A8DF80B00E1B28DF80C10290A8DF849
:101200000D10E9B28DF80E10390A8DF80F10F9B2F1
:101210008DF810104FEA18218DF8111008F0FF0119
:101220008DF812106946484600F003F805B0BDE895
:10123000F08310B502460020936803F08063B3F199
:10124000806F00D110E0936803F00063B3F1006F8A
:1012500001D1012008E0936803F08053B3F1805F6F
:1012600001D1022000E00420042874D002F5C073EC
:1012700003EB00131B6803F0010402F5C07303EBDA
:1012800000131C600B7A7BB94B7A0C8843EA4453F9
:1012900002F5C07404EB00142468234302F5C07403
:1012A00004EB0014236010E00B7A4C6843EAC4039B
:1012B0004C7A234302F5C07404EB001424682343E2
:1012C00002F5C07404EB001423608B7A03F00F0363
:1012D0008B7202F5C07303EB00135B6823F00F04FD
:1012E00002F5C07303EB00135C6002F5C07303EBFF
:1012F00000135B688C7A234302F5C07404EB00147E
:1013000063608B7B1C064B7B44EA03440B7B44EA03
:101310000323CC7A234302F5C07404EB0014A360CA
:101320008B7C1C064B7C44EA03440B7C44EA03237D
:10133000CC7B234302F5C07404EB0014E36002F598
:10134000C07303EB00131B6843F0010402F5C07384
:1013500003EB00131C6010BD10B52DED068B044689
:1013600094ED000AD4ED010A30EE600A84ED080A1B
:1013700094ED0A0AD4ED080A30EE200A84ED0A0A38
:10138000D4ED0E1AB0EE611AD4ED0E1AF1EE611A18
:10139000F0EE610AD4ED0A1AB0EE610A00F067FAC5
:1013A00084ED0A0A94ED030AD4ED0A0A20EE200A1D
:1013B00084ED060AD4ED021A94ED082A61EE821A31
:1013C000B0EE610AD4ED0D1AB0EE611AD4ED0D1A2B
:1013D000F1EE611AF0EE610A00F049FA84ED050AB7
:1013E000D4ED081A94ED092A71EEC21A94ED042A7C
:1013F00061EE821AB0EE610AD4ED0F1AB0EE611AF6
:10140000D4ED0F1AF1EE611AF0EE610A00F02FFA36
:1014100084ED070A94ED100A10EE101A084604F045
:10142000DFFD41EC180B94ED080A10EE101A084687
:1014300004F0D6FD41EC1A0BB0EE4A0AF0EE6A0A4F
:1014400003F04CFDB0EE409AF0EE609A53EC182B8E
:1014500051EC190B04F09EFA03D29FED140A84EDAF
:101460000A0A94ED050AD4ED060A30EE200AD4EDFE
:10147000070A30EE200A84ED0B0A94ED080A84ED89
:10148000090AD4ED0C1AB0EE611AD4ED0C1AF1EE83
:10149000611AF0EE610AD4ED0B1AB0EE610A00F0A9
:1014A000E6F984ED0B0ABDEC068B10BD00000000D0
:1014B00010B52DED068B044694ED000AD4ED010A1B
:1014C00030EE600A84ED080A94ED100A10EE101A4E
:1014D000084604F085FD41EC180B94ED080A10EE67
:1014E000101A084604F07CFD41EC1A0BB0EE4A0AD3
:1014F000F0EE6A0A03F0F2FCB0EE409AF0EE609A69
:1015000053EC182B51EC190B04F044FA07D294ED6C
:101510000A0AD4ED080A30EE200A84ED0A0AD4ED56
:101520000E1AB0EE611AD4ED0E1AF1EE611AF0EE59
:10153000610AD4ED0A1AB0EE610A00F098F984ED60
:101540000A0A94ED030AD4ED0A0A20EE200A84ED7B
:10155000060AD4ED021A94ED082A61EE821AB0EE62
:10156000610AD4ED0D1AB0EE611AD4ED0D1AF1EE48
:10157000611AF0EE610A00F07AF984ED050AD4ED03
:10158000081A94ED092A71EEC21A94ED042A61EE4C
:10159000821AB0EE610AD4ED0F1AB0EE611AD4EDE2
:1015A0000F1AF1EE611AF0EE610A00F060F984EDB5
:1015B000070A94ED050AD4ED060A30EE200AD4EDB0
:1015C000070A30EE200A84ED0B0A94ED080A84ED38
:1015D000090AD4ED0C1AB0EE611AD4ED0C1AF1EE32
:1015E000611AF0EE610AD4ED0B1AB0EE610A00F058
:1015F0003EF984ED0B0ABDEC068B10BD30B52DED28
:10160000108B83B004469FED7B0AB0EE40FA94ED58
:10161000000AD4ED060A30EE600A84ED020A94ED69
:10162000030AD4ED040A20EE200AB0EE408A94EDBD
:10163000040A20EE080A10EE105A94ED020AD4EDC6
:10164000040A94ED011A00EE810AF0EE408A18EEC9
:10165000900A04F0C5FC41EC1E0BB0EE4E0AF0EE11
:101660006E0A03F03BFCB0EE40DAF0EE60DA94ED87
:10167000030AF2EE000A20EE200A10EE101A0846C5
:1016800004F0AEFC53EC1D2BCDE900019DED000BE9
:1016900051EC100B04F0BAF941EC1B0B28EE080AD0
:1016A00010EE101A084604F09BFC41EC1C0B53ECA6
:1016B0001B2B03F04FFF41EC1A0BB0EE4A0AF0EE81
:1016C0006A0A03F015FCB0EE409AF0EE609A51EC15
:1016D000190B03F00DFF0290284604F081FC41EC49
:1016E000190B18EE900A04F07BFC41EC1B0BB0EEDA
:1016F0004B0AF0EE6B0A03F0F1FBB0EE40AAF0EEFD
:1017000060AA53EC192B51EC1A0B04F07DFA18D295
:10171000B0EE680A02F09EF900EE100AF8EEC00A78
:101720009DED020A30EE480A60EE800AB0EE001A23
:1017300080EE810AD4ED010A30EE200AB0EE40FAC4
:1017400009E0D4ED040A88EEA00AD4ED010A30EED7
:10175000200AB0EE40FA18EE100A04F041FC41EC09
:10176000190B1FEE100A04F03BFC41EC1B0BB0EE12
:101770004B0AF0EE6B0A03F0B1FBB0EE40AAF0EEBC
:1017800060AA53EC192B51EC1A0B04F03DFA10D25D
:10179000B0EE4F0A02F05EF900EE100AB8EEC00A91
:1017A000D4ED030ABFEE001A60EE810A60EE20FA63
:1017B00009E094ED030AFFEE000A20EE200A20EE75
:1017C0000F0AC0EE08FA94ED000AD4ED050A94ED74
:1017D000011A00EE810A84ED000A94ED010AD4EDAD
:1017E000050A00EEAF0A84ED010A03B0BDEC108BD0
:1017F00030BD00000000000010B514480078052836
:1018000021D2DFE800F0030A11181F00002001F0C8
:10181000A9FF002002F032FA16E0032001F0A2FF37
:10182000002002F02BFA0FE0022001F09BFF0220C3
:1018300002F024FA08E0012001F094FF012002F0F8
:101840001DFA01E000E000BF00BF10BDD004002081
:1018500010B5FFF7D1FF02F035F810BD02460020A9
:1018600002EA01030BB1012000E000207047F0EE16
:10187000401AF4EEE01AF1EE10FA02D2B0EE600A6D
:1018800009E0F4EEC11AF1EE10FA02DDB0EE410A01
:1018900001E0B0EE610A70470246094B9A4201D25C
:1018A000084801E00648103801F000531BB1064B10
:1018B0000B40C36002E0044B0B40836070470000A4
:1018C00010640240006002407D0F7D0F21B102686C
:1018D00042F00102026003E0026822F001020260AD
:1018E00070470000016821F00101016000210160E2
:1018F00041608160C1600161212141614A498842A2
:1019000004D13D21484A103A91608CE04649183193
:10191000884205D14FF47461434A103A916082E0E5
:1019200041493031884205D14FF474113E4A103A92
:10193000916078E03C494831884205D14FF07461AC
:10194000394A103A91606EE037496031884204D1DB
:101950003649354A103AD16065E0334978318842DA
:1019600004D13349304A103AD1605CE02E499031BD
:10197000884204D12F492C4A103AD16053E02A49B9
:10198000A831884205D14FF03D51274A103AD16025
:1019900049E02949884204D13D21274A083A11608B
:1019A00041E025491831884205D14FF47461224A3B
:1019B000083A116037E020493031884205D14FF4B0
:1019C00074111D4A083A11602DE01B4948318842C4
:1019D00005D14FF07461184A083A116023E01649A6
:1019E0006031884204D11149134A121F11601AE074
:1019F00011497831884204D10D490F4A121F1160F4
:101A000011E00D499031884204D10A490A4A121F57
:101A1000116008E00849A831884204D14FF03D51D7
:101A2000054A121F11607047106002403D000020FF
:101A3000400F002000003D201064024001460020BD
:101A40000A6802F001020AB1012000E0002070479C
:101A50000146486880B2704710B500220268134BF7
:101A60001A40CC680B6823434C6923438C69234399
:101A7000CC6923430C6A23434C6A23438C6A234377
:101A80004C6B23438C6B23431A430260426922F060
:101A90000702D1E90B3423431A4342610B694360C7
:101AA0004B6883608B68C36010BD00003F801CF0F2
:101AB00010B538480078072803D1092036498870C6
:101AC00006E0344800786B2802D10A203249887039
:101AD00008203149C870314890ED010A304880ED46
:101AE000000A084680ED010A2E4890ED010A2E48B2
:101AF00080ED000A084680ED020A2C4890ED000AAD
:101B00002B4880ED000A084680ED030A00F0BCFC7B
:101B1000284880ED000A204880ED040AB7EE000A4C
:101B2000254880ED000A1C4880ED050AB7EE000A42
:101B3000224880ED000A184880ED060A2048007807
:101B400058B12048007800EE100AB8EE400A1E484E
:101B500080ED000A104880ED070AB7EE000A1B4826
:101B600080ED000A0C4880ED080A19491948FFF772
:101B700093FE00211748FFF7A9FE074815490C31CD
:101B8000086026201349091D086001211148FFF74C
:101B90009DFE10BD68010020E4010020200D002002
:101BA000540200200C030020580200206C01002089
:101BB0005C02002060020020640200206802002015
:101BC00055010020540100206C020020700200200A
:101BD00000802020A064024010B519480078012838
:101BE0000ED1184890ED000A174880ED060AFFF75D
:101BF00005FD154890ED000A144880ED000A05E047
:101C0000104890ED000A114880ED000A104890ED50
:101C1000000A104880ED010A0C48FFF749FC0B4808
:101C200090ED0B0A0B4880ED000AFFF741FC0948D4
:101C300090ED0B0AB1EE400A80ED0B0A10BD0000DA
:101C400020060020CC030020B00300200C0300205D
:101C5000DC03002050030020F0EE400A1B4A1278FB
:101C60008A4203DD0022194B1A7017E0174A1278D6
:101C700000EB820292ED000A154A92ED001A31EE55
:101C8000400A82ED000A114A127800EB8202C2ED8E
:101C9000000A0E4A1278521C0C4B1A700B4A12782A
:101CA000521E00EB820292ED000A094A92ED001AE0
:101CB00030EE010A82ED000A92ED001A00EE101AD1
:101CC000F8EE401A81EE210A7047000094050020CA
:101CD0009005002000200AE09FED060AC0EBC0013D
:101CE000054A02EB810181ED050A411CC8B20428B6
:101CF000F2DB7047000000461C11002090ED001A36
:101D0000B4EEC01AF1EE10FA01D2002109E090ED14
:101D1000001AB4EEC01AF1EE10FA01DD012100E064
:101D20000221C9B990ED001AB4EEC01AF1EE10FA12
:101D300002DB80ED000A2AE090ED001A31EE201A55
:101D400080ED001A90ED001AB4EEC01AF1EE10FA10
:101D50001DDB80ED000A1AE0012918D190ED001A70
:101D6000B4EEC01AF1EE10FA02D880ED000A0EE0CF
:101D700090ED001A31EE601A80ED001A90ED001A15
:101D8000B4EEC01AF1EE10FA01D880ED000A7047E7
:101D900010B52DED048B002449E0C4EBC400264AA5
:101DA00002EB800090ED000A244800EB8400D0EDA7
:101DB000000A30EE600A10EE101A084604F010F91E
:101DC00041EC190BB0EE490AF0EE690A03F086F80F
:101DD000B0EE408AF0EE608A9FED190B53EC102BA9
:101DE00051EC180B03F0D6FD09D89FED170A04EB50
:101DF0000410164901EB800080ED0C0A15E09FED00
:101E0000140A04EB0410114901EB800080ED0C0A68
:101E100004EB04100F4901EB800090ED010A04EB84
:101E2000041001EB800080ED000A601CC4B2042C99
:101E3000B3DBBDEC048B10BD1C110020DC050020C1
:101E4000000000000000794000C05A450C1000203E
:101E500000000000FC0E002010B5B1B94FF47A72FA
:101E600092FBF0F2094BD3F88430094C24681B1B19
:101E70009A420AD2074A1288521C12B2054B1A80A3
:101E8000024AD2F88420024B1A6010BDA41100202F
:101E9000D4050020F4030020F0B50A4600210023F9
:101EA000002400BF3DE0012505FA01F3156805EAAD
:101EB00003049C4234D105684F000326BE40B5435D
:101EC000056015794E00B540066835430560157903
:101ED000012D02D01579022D16D185684F000326F9
:101EE000BE40B543856055794E00B54086683543A0
:101EF0008560456801268E40B54345604568967902
:101F00008E40B6B235434560C5684F000326BE40DB
:101F1000B543C560D5794E00B540C6683543C56048
:101F2000491C1029BFD3F0BDF0B5002300244D0794
:101F3000ED0E02FA05F3CE1000F1200555F82650FB
:101F40004E07F70E0F26BE40B543CF1000F1200616
:101F500046F82750CE1000F1200555F8265045EAE6
:101F60000304CE1000F1200545F82640F0BD0146DF
:101F70004A780B7842EA0320704710B501464FF6C5
:101F8000FF728B7803F080033BB113048C7843EA33
:101F90000423CC7843EA040003E0CB788C7843EA4E
:101FA000042010BD30B5034613B94FF6FF7030BDA5
:101FB00009E013F8014B82EA0400C0B2054D35F880
:101FC000100080EA2222081EA1F10101F1D1104681
:101FD000EDE70000D861000830B5034605E013F8CE
:101FE000010B80EA02040448025D081EA1F1010110
:101FF000F5D1104630BD0000D760000810480078C9
:1020000001280FD10E48D0F805000E4908600C4891
:10201000D0F8010000EE100AB1EE400A0A4880ED47
:10202000000A0CE0094890ED010A064880ED000A1C
:10203000054890ED010AB1EE400A80ED000A7047B4
:10204000F00C0020CC030020200D00200C03002009
:102050001CB52648007858B99FED250A254880ED23
:102060000C0A254890ED010A244880ED000A20E082
:102070001E48007801280AD1F2EE040A9FED200ADA
:102080001C483030FFF73AFE00F040F811E01748E6
:102090000078022803D015480078032809D1F2EE11
:1020A000040A9FED170A13483030FFF727FEFFF7A9
:1020B000A5FFFFF791FD134890ED0B0ABDEEC00A96
:1020C00010EE100A404200B20021CDE9001009488C
:1020D00090ED0B0ABDEEC00A10EE100A02B20B46DC
:1020E00040F2FF110848FFF770F81CBDD004002033
:1020F00000000000500300200C030020CC0300204F
:1021000000C0DA46840400200068004010B52DEDC0
:10211000088B01206B4908706B480088A0F580602F
:10212000002804DD68480088A0F5806003E0664868
:102130000088C0F58060142803DA4FF4806062499B
:10214000088061484088A0F58060002804DD5E4872
:102150004088A0F5806003E05B484088C0F580605F
:10216000142803DA4FF48060574948805648408865
:10217000A0F58060E8B35548C078012841D15148A6
:102180000078B8B150484088A0F5806000EE100A91
:10219000F8EEC00A9FED4E1A80EE810AB3EE091ADE
:1021A000C0EE010A4B4890ED000A30EE600A80ED67
:1021B000000A16E044484088A0F5806000EE100A4E
:1021C000F8EEC00A9FED421A80EE810AF2EE080A8C
:1021D00080EE201A3F4890ED000A30EE410A80ED73
:1021E000000A3C48D0ED000AB0EE600AB3EE0E1AC9
:1021F00000E006E0FBEE0E0AFFF739FB354880ED04
:10220000000A31480088A0F5806088B32F48C07864
:10221000012853D12B48007858B32B480088A0F5EB
:10222000806000EE100AB8EEC00ADFED290A80EEE9
:10223000201A11EE104A204603F0D2FE41EC1B0B8F
:102240009FED250B53EC102B03F0E0FB41EC190B39
:102250002348006803F0C4FE41EC1A0B53EC192B21
:1022600003F078F941EC180B03F042F91C490860BF
:1022700024E015480088A0F5806000EE100AB8EE52
:10228000C00ADFED130A80EE201A9FED160A21EE38
:10229000000ADFED150A60EE200A9FED141A80EEA9
:1022A000810A9FED131AC0EE010A0D4890ED000A55
:1022B000B7EE081A00EE810A80ED000ABDEC088B2B
:1022C00010BD00002C0600202E0C002084120020DF
:1022D00000002544200D00209A9999999999A93FC9
:1022E000CC03002000806D450000B4430000004690
:1022F0000000AF4410B52C480078552852D12A4828
:10230000407800284ED11821274802F081FDB8B34B
:10231000182225492548FDF7C7FF2448D0F80200B8
:1023200000EE100AB1EE400A214880ED000A90ED5F
:10233000000A2048FEF77BF81E4890ED060A1E486A
:1023400080ED010A1948D0F80E001C494860174872
:10235000D0F812001A4908601448807D19490870A5
:10236000194890ED000ADFED190AB4EEE00AF1EE2B
:1023700010FA06D20D48D0F80600154908600AE0A8
:1023800010E00A48D0F8060000EE100AB1EE400A4C
:102390000F4880ED000A0F48B0F85800401C0D4966
:1023A000A1F8580010BD0000560C0020BA01002012
:1023B000D8030020940300200C030020200D0020EF
:1023C000E4030020FC040020E00300200000B442ED
:1023D000DC030020A411002010B51E48D0ED000A37
:1023E000B0EE600A002000F03FFCB1EE400A10EEB3
:1023F000100A1949C1F822001848B0F9001016480F
:1024000001841748008801B21348C1831548C17878
:1024100011488176134801790F48C1761148C17976
:102420000D4801770F211830FEF743F80E490F4889
:10243000FFF732FA00210D48FFF748FA0648183036
:102440000A49583948660F20C86501210748FFF737
:102450003DFA10BD200D0020BA010020F403002039
:10246000F003002084120020008000185860024011
:1024700010B5FFF7EDFD03488089401C01498881B4
:1024800010BD0000A411002070B5F74D2D78072D68
:102490007AD1F64D2D886DB9F54D2D8A002D09DDC7
:1024A000F44DD5F88450F44E35600025F34E357068
:1024B000002418E0EF4DD5F88450EF4E3668AD1B80
:1024C00042F21076B5420DD90125EC4E3570E84D3B
:1024D0002D8A5A2D04DCE64D2D8A0DB1012402E02F
:1024E000002400E00024E64D2D886DB9E04D6D8A92
:1024F000002D09DDDF4DD5F88450E24E3560002512
:10250000E14E3570002118E0DA4DD5F88450DD4EEB
:102510003668AD1B42F21076B5420DD90025DA4E71
:102520003570D34D6D8A642D04DCD14D6D8A0DB1AB
:10253000022102E0002100E00021D44D2D886DB978
:10254000CB4DAD8A002D09DDCA4DD5F88450D04E53
:1025500035600025CF4E3570002219E0C54DD5F805
:102560008450CB4E3668AD1B42F21076B5420ED980
:102570000125C84E3570BE4DAD8A462D05DCBC4DDB
:10258000AD8A15B1032203E06BE0002200E00022D7
:10259000C14D2D886DB9B64DED8A002D09DDB54DC3
:1025A000D5F88450BD4E35600025BD4E35700023F2
:1025B00018E0B04DD5F88450B84E3668AD1B42F2E5
:1025C0001076B5420DD90125B54E3570A84DED8A6E
:1025D000462D04DCA64DED8A0DB1042302E0002354
:1025E00000E00023AF4D2D886DB9A14D2D8B002D3E
:1025F00009DDA04DD5F88450AB4E35600025AB4EBB
:102600003570002018E09B4DD5F88450A64E3668F2
:10261000AD1B42F21076B5420DD90125A34E35709F
:10262000934D2D8B462D04DC914D2D8B0DB1052046
:1026300002E0002000E000208D4D2D8A8B4E358079
:102640008B4D6D8A8E4E3580894DAD8A8F4E35808B
:10265000874DED8A904E3580854D2D8B914E35807E
:10266000E9E0814D2D786B2DFAD1804D2D886DB923
:102670007F4D2D88002D09DD7E4DD5F884507E4E8E
:10268000356000257D4E3570002418E0794DD5F871
:102690008450794E3668AD1B42F21076B5420DD9A2
:1026A0000125764E3570724D2D885A2D04DC704D03
:1026B0002D880DB1012402E0002400E00024704DBB
:1026C0002D886DB96A4D6D88002D09DD694DD5F8ED
:1026D00084506C4E356000256B4E3570002118E03B
:1026E000644DD5F88450674E3668AD1B42F21076C3
:1026F000B5420DD90125644E35705D4D6D88642D50
:1027000004DC5B4D6D880DB1022102E0002100E088
:1027100000215E4D2D886DB9554DAD88002D09DD28
:10272000544DD5F884505A4E35600025594E3570B9
:10273000002218E04F4DD5F88450554E3668AD1B39
:1027400042F21076B5420DD90125524E3570484DF2
:10275000AD88462D04DC464DAD880DB1052202E062
:10276000002200E000224C4D2D886DB9404DED88CF
:10277000002D09DD3F4DD5F88450484E35600025C9
:10278000474E3570002318E03A4DD5F88450434E3B
:102790003668AD1B42F21076B5420DD90125404E88
:1027A0003570334DED88462D04DC314DED880DB18B
:1027B000042302E0002300E000233A4D2D886DB988
:1027C0002B4D2D89002D09DD2A4DD5F88450364E2C
:1027D00035600025354E3570002018E0254DD5F8C0
:1027E0008450314E3668AD1B42F21076B5420DD999
:1027F00001252E4E35701E4D2D89462D04DC1C4DB5
:102800002D890DB1052002E0002000E00020184DC8
:102810002D88164E3580164D6D88194E3580144D15
:10282000AD881A4E3580124DED881B4E3580104D07
:102830002D891C4E358042F21075654301EB41062F
:10284000C6EBC11605EBC60502EBC20606EB021687
:1028500005EB860503EB830605EB4605054400EE14
:10286000105AB8EEC00A70BD68010020A005002013
:102870004B0B0020A4110020A405002024050020FB
:10288000A8050020AC05002025050020B00500208B
:10289000B405002026050020B8050020BC05002056
:1028A00027050020C0050020C405002028050020C1
:1028B00010B54848807A022803D14648C07A0228D9
:1028C00007D04448807A01280FD14248C07A0128B5
:1028D0000BD100204049087001221146104600F03B
:1028E00089F8002001F026F972E03A48807A02283F
:1028F0000FD13848C07A03280BD10120364908701F
:1029000000220121104600F075F8012001F012F9B3
:102910005EE03048807A02280FD12E48C07A012824
:102920000BD102202C49087000221146104600F0FD
:1029300061F8012001F0FEF84AE02648807A032879
:102940000FD12448C07A01280BD1032022490870F6
:1029500000221146104600F04DF8012001F0EAF87F
:1029600036E01C48807A03280FD11A48C07A032821
:102970000BD104201849087000221146104600F0BF
:1029800039F8012001F0D6F822E01248807A0328B5
:1029900007D11048C07A022803D105200E490870DB
:1029A00016E00C48807A012807D10A48C07A02282C
:1029B00003D10620084908700AE00648807A0128F9
:1029C00006D10448C07A032802D1072002490870C2
:1029D00010BD00002E0C0020D004002010B5FFF721
:1029E00067FF03480089401C0149088110BD0000B1
:1029F000A411002010B518B100230B4CE37002E0C5
:102A00000123094CE37019B10023074C237202E043
:102A10000123054C23721AB10023034CA37202E078
:102A20000123014CA37210BD8412002000204EE04F
:102A3000B2EE040A00EB0011264A02EB810181ED9F
:102A4000020A9FED250A00EB001102EB810181EDE6
:102A50000C0A9FED210A00EB001102EB810181EDD0
:102A60000D0AB2EE040A00EB00111C4A02EB8101D0
:102A700081ED020A9FED1A0A00EB0011194A02EBE0
:102A8000810181ED020A9FED180A00EB0011134A43
:102A900002EB810181ED0C0A9FED130A00EB00119E
:102AA00002EB810181ED0D0A9FED0B0A00EB001195
:102AB0000C4A02EB810181ED0C0A9FED070A00EB45
:102AC000001102EB810181ED0D0A411CC8B20428FE
:102AD000AEDB7047EC0D00200000FA45FC0E002034
:102AE0000000C8420C1000200000FA4408B54FF462
:102AF000407000F0AFF825208DF8000000208DF820
:102B000001008DF8020001208DF80300684600F0F6
:102B100065F826208DF8000000208DF801008DF862
:102B2000020001208DF80300684600F057F82720C6
:102B30008DF8000000208DF801008DF802000120C2
:102B40008DF80300684600F049F847208DF8000032
:102B500000208DF801008DF8020001208DF803009F
:102B6000684600F03BF83A208DF8000000208DF810
:102B700001008DF8020001208DF80300684600F086
:102B80002DF814208DF8000001208DF801000020A0
:102B90008DF8020001208DF80300684600F01EF851
:102BA00040208DF8000001208DF8010000208DF8F4
:102BB000020001208DF80300684600F00FF818208D
:102BC0008DF8000000208DF801008DF80200012032
:102BD0008DF80300684600F001F808BD70B50021CB
:102BE00000230F22C4781CB3174C246804F4E0645B
:102BF000C4F5E064C4F30721C1F10404E3B20A415F
:102C000044789C40E1B28478144021430C07210EA3
:102C10000E4C05786155047804F01F050124AC4082
:102C200005786D11AD0005F1E025C5F8004109E01A
:102C3000047804F01F050124AC40054D0678761198
:102C400045F8264070BD00000CED00E000E400E017
:102C500080E100E002490143024A11607047000030
:102C60000000FA050CED00E0F0EE400AC8B10E4994
:102C70000A780978491E0C4B19701AB10B4991ED6D
:102C8000000A70470A4909680F22B1FBF2F302FB00
:102C90001311054A11700549C1ED000A91ED000AB2
:102CA000EFE7B0EE600AECE79505002098050020FC
:102CB000240C0040CBE00024C4E004EBC4006449D1
:102CC00001EB8000007A00287DD16248006804EBA7
:102CD000C4015F4A02EB81010969401A04EBC40197
:102CE00002EB810148615B48006804EBC40102EB20
:102CF0008101086104EBC40102EB8101486880474F
:102D0000012004EBC401524A02EB810108725148D0
:102D1000006804EBC40102EB81010969401A04EB6D
:102D2000C40102EB8101886104EBC400114601EB90
:102D30008000C06904EBC40102EB8101896988420B
:102D400006D904EBC400114601EB8000C06905E020
:102D500004EBC4003E4901EB8000806904EBC40130
:102D60003B4A02EB8101C86104EBC400114601EB50
:102D70008000006A04EBC40102EB8101896988428A
:102D800006D204EBC400114601EB8000006A05E0A6
:102D900004EBC4002E4901EB8000806904EBC40100
:102DA0002B4A02EB8101086204EBC400114601EBDF
:102DB000800080692849096808442749086004EBB5
:102DC000C400114600E012E001EB8000C069234915
:102DD000096808442149086004EBC400114601EB6E
:102DE0008000006A1E49096808441D4908600025E2
:102DF00022E01848006805EBC501154A02EB810185
:102E00000969401A05EBC50102EB8101C9688842D6
:102E100011D305EBC500114601EB8000007A0228B2
:102E200009D0002005EBC50102EB81010872AC421C
:102E300001D96C1E04E06D1C0A4800688542D8D395
:102E400000BF641C074800688442FFF436AF32E7D5
:102E50000C000020240C0040000000200400002092
:102E6000080000202C01002029B1064A1268024304
:102E7000044B1A6004E0034A12688243014B1A6053
:102E8000704700003038024029B1064A12680243F8
:102E9000044B1A6004E0034A12688243014B1A6033
:102EA000704700004038024029B1064A12680243C8
:102EB000044B1A6004E0034A12688243014B1A6013
:102EC000704700002038024029B1064A12680243C8
:102ED000044B1A6004E0034A12688243014B1A60F3
:102EE000704700004438024029B1064A1268024384
:102EF000044B1A6004E0034A12688243014B1A60D3
:102F00007047000024380240F0B500210022002460
:102F1000022500260223324F3F6807F00C0121B141
:102F2000042905D0082937D105E02E4F076036E087
:102F30002D4F076033E02A4F3F1F3F68C7F380568D
:102F4000274F3F1F3F6807F03F036EB1264FB7FB87
:102F5000F3F7DFF88CC0ACF1040CDCF800C0CCF364
:102F6000881C07FB0CF40CE01E4FB7FBF3F7DFF8EF
:102F700070C0ACF1040CDCF800C0CCF3881C07FB7B
:102F80000CF4174F3F1F3F68C7F301477F1C7D00BC
:102F9000B4FBF5F7076002E0124F076000BF00BF07
:102FA0000F4F3F6807F0F0010909104F7A5C07687E
:102FB000D74047600A4F3F6807F4E051890A0B4F3A
:102FC0007A5C4768D7408760054F3F6807F46041E7
:102FD000490B064F7A5C4768D740C760F0BD0000D8
:102FE000083802400024F40000127A002D06002068
:102FF0000178427841EA0221C1F30A011B4A11809B
:103000004178C910827841EA4211C1F30A01174A96
:103010005180C1788911C27841EA8201027941EA7E
:103020008221C1F30A01114A918001794910427944
:1030300041EAC211C1F30A010C4AD180017C427CF1
:1030400041EA0221C1F30A01084A118141790911BB
:10305000890891724179C1F30111D1720449B1F823
:103060004C10491C024AA2F84C1070472E0C00204C
:10307000A411002010B542480089A0F58060B0F589
:10308000967F0FDD3F48007918B14FF42F703E490D
:1030900008603E48D0F884003D49086001203D4961
:1030A000087010E036480089A0F5806010F5967F22
:1030B00009DA3448007930B14FF4FA7032490860C7
:1030C0000020354908703148D0F88400304909683B
:1030D000401AB0F57A7F17D92B480068B0F52F7FDA
:1030E00004D02E480068B0F52F7F0DD12948007814
:1030F00050B125480068B0F52F7F02D10120264944
:1031000008700020234908702348007850B31E48F7
:103110000068B0F52F7F31D11A48007910B31848F4
:10312000C088A0F5806010F5967F04DA00210120A8
:10313000FEF792FE22E012488088A0F58060B0F58C
:10314000967F04DD00210920FEF786FE16E00C487C
:10315000C088A0F58060B0F5967F04DD00210D20C9
:10316000FEF77AFE0AE006488088A0F5806010F538
:10317000967F03DA00210F20FEF76EFE10BD0000DF
:103180002E0C002084120020F0030020A411002047
:10319000C8050020CC05002008040020EC03002016
:1031A00070B505460C46164640F20221681A8D425B
:1031B00079D013DCB5F5827F6AD008DC012D1CD0F4
:1031C000032D2AD0A5F2011000286DD149E0A5F207
:1031D000051000286AD0FC28F7D176E0052870D0C9
:1031E00006DC01286ED002286DD00428EDD10BE159
:1031F000062869D0FF28E8D15EE1D7480088401C46
:10320000D54908803246E11DD448FDF74DF8D34832
:10321000B0F80100D24908809BE1CF488088401C6B
:10322000CD4988803246E11DCE48FDF73DF8CE48B5
:103230000078072808D1CB488089CC490880C94844
:10324000408BCB4908800BE0C74800786B2807D13A
:10325000C448808BC5490880C2484089C449088059
:1032600077E1BD488089401CBB4988813246E11D19
:10327000C048FDF719F8BF480088C0F3802018B196
:103280000120BD49087002E00020BB49087060E1E0
:10329000B148008A401CB04908823246E11DB74857
:1032A000FDF702F855E16AE052E1FFE7AA48808A9B
:1032B000401CA94988823246E11DB148FCF7F4FF61
:1032C00047E1ACE08AE094E0E7E0A348008B401CD3
:1032D000A14908833246E11DAA48FCF7E5FFA94849
:1032E0000078A1490870A7484088A7490880A548E8
:1032F000008BA6490880A3480089A5490880A148F9
:10330000C089A44908809F48C088A34908809D4877
:103310008089A2490880A248007870B99A4800883C
:10332000A0490988884208DA9F48B0F884009F497C
:10333000088001209A49087012E09B48D0F8840068
:103340009A490988401AB0F57A7F09D30020944938
:1033500008709748008897490880002094490880A1
:103360009048008888490988401A9149098808448A
:103370008F490880844800888A490880E9E07648B7
:10338000808B401C744988833246E11D8A48FCF7D3
:103390008BFF8A4890ED000A894880ED000A864834
:1033A00040688649086087480088874908808248C5
:1033B0000089844908808048408900B28349088098
:1033C0007D48808900B282490880012081490870C7
:1033D0007548D0F8840080490860BAE05E48008CE7
:1033E000401C5D4908843246E11D7C48FCF75CFFC7
:1033F000AFE05948808C401C574988843246E11D13
:103400007748FCF751FFA4E05348008D401C524917
:1034100008853246E11D7348FCF746FF99E04E48A7
:10342000808D401C4C4988853246E11D6E48FCF772
:103430003BFF6D4840786D490870084600780128C8
:1034400013D16B480088401C694908806648807821
:10345000684908706448D0F8030067490860674805
:103460000088401C6549088016E060480078022802
:1034700012D163480088401C614908805A4880780E
:10348000604908705848D0F803005F4908605F48F9
:103490000088401C5D4908805BE02F48008E401C7E
:1034A0002D4908863246E11D5948FCF7FDFE584873
:1034B0000088584908804CE02748808E401C2649E7
:1034C00088865548D4F807100160B4F80B10818045
:1034D000B21F04F10D015148FCF7E6FE4E4800888A
:1034E000B0F5007F18D14C4880881F490978884280
:1034F00012D1494841881C480078401E81420BD1B6
:103500004648007846490870444840784549087064
:1035100042488078444908703F48008840F20121C1
:10352000884214D13C4880880F49097888420ED1DE
:10353000394841880C480078801C814207D13748BF
:1035400000783A490870354840783949087000E0F9
:1035500000BF00BF70BD00004C120020400B0020D7
:10356000740100204B0B0020680100207601002030
:1035700078010020930100205A0100209B010020C7
:103580009D010020760B00205E0100207C010020C0
:103590007E010020800100208201002084010020A3
:1035A0008E01002088050020A4110020860500203F
:1035B0008A0500208C010020910B00206001002072
:1035C0000005002066010020640100205601002053
:1035D0005801002090010020E4040020A10B0020ED
:1035E0009E010020A0010020A101002086010020F2
:1035F00014050020690100206C01002088010020D2
:10360000160500206A010020700100208A010020B8
:10361000A80100205C010020B2010020BD0B0020A9
:1036200005050020040500208F010020070500206B
:10363000060500202DE9F84F81460C4692464FF0D2
:10364000000B002500200090804676E0D9F80800A5
:1036500010F80860BBF1070F6BD2DFE80BF0041124
:103660001E2534434D00A52E07D100254FF0010B38
:10367000A52229466D1C625401E04FF0000B59E071
:103680002846691CCDB22654032D05D16078A17857
:1036900040EA01274FF0020B4CE02846691CCDB2EE
:1036A00026544FF0030B45E02846691CCDB2265442
:1036B0002946204601F0ACFB10B14FF0040B01E0AD
:1036C0004FF0000B36E02846691CCDB22654072D7A
:1036D00007D16079A17940EA01201A4908804FF0AA
:1036E000050B27E02846691CCDB22654F81DA842D8
:1036F00001D14FF0060B1DE02846691CCDB22654BF
:1037000007F10900A84213D12946204601F060FBC9
:1037100070B13A4621460B480088FFF741FD4FF053
:10372000000B0948B0F85000401C0749A1F85000B0
:1037300000E000BF00BF08F10108D04586DBBDE80E
:10374000F88F000082050020A411002010B5FEF7BC
:1037500043FE0348808B401C0149888310BD000054
:10376000A411002010B50446002C7BD0012C04D0FD
:10377000022C41D0032C76D180E0002012E09FED96
:103780004B0A00EB00114A4A02EB810181ED0D0A60
:103790009FED460A00EB001102EB810181ED0C0A5E
:1037A000411CC8B20428EADB4248007818B34248FA
:1037B00090ED000ADFED410A30EE200A80ED000AAC
:1037C00090ED110ADFED3D0A30EE600A80ED110A3E
:1037D00090ED220ADFED390A30EE200A80ED220A50
:1037E00090ED330ADFED350A30EE600A80ED330AE2
:1037F00000203049087055E0002012E09FED2B0AB0
:1038000000EB00112A4A02EB810181ED0D0A9FEDC8
:10381000270A00EB001102EB810181ED0C0A411C2B
:10382000C8B20428EADB2348007830BB224890ED78
:10383000000ADFED220A30EE600A80ED000A90ED0A
:10384000110ADFED1E0A30EE200A80ED110A90ED1C
:10385000220ADFED1A0A30EE600A80ED220A90EDAE
:10386000330A01E00DE01CE0DFED140A30EE200A1F
:1038700080ED330A01200F49087013E0FEF788FA43
:1038800010E000200AE09FED0E0A00EB0011084A4C
:1038900002EB810181ED0C0A411CC8B20428F2DB65
:1038A00000E000BF00BF00F00DF810BD0000FA45B9
:1038B0000C100020D8050020FC0E0020000034422F
:1038C000000000001CB500241DE004EB0411234A95
:1038D00002EB8100FDF7ECFD04EB04101F4901EB46
:1038E000800090ED0B0A04EB04101D4901EB8000F1
:1038F00080ED000A04EB0411194A02EB8100FDF788
:10390000D7FD601CC4B2042CDFDB154890ED3E0AE5
:10391000BDEEC00A10EE100A00B2114991ED2D0A59
:10392000BDEEC00A10EE101A09B2CDE900100C4825
:1039300090ED1C0ABDEEC00A10EE100A03B2084852
:1039400090ED0B0ABDEEC00A10EE100A02B24FF461
:1039500000710448FDF739FC1CBD0000FC0E00207E
:103960000C100020006800400CB500200190009071
:103970003448006840F480303249086000BF314864
:10398000006800F4003000900198401C01900098FD
:1039900018B90198B0F5A04FF1D12A48006800F499
:1039A000003010B10120009001E00020009000984C
:1039B000012846D123484030006840F0805021491A
:1039C000403108602048006840F440401E490860CB
:1039D0001C48083000681B49083108600846006828
:1039E00040F4004008600846006840F4A0500860B9
:1039F0001648091F0860081F006840F08070091F02
:103A0000086000BF0F48006800F000700028F9D07F
:103A100040F205700E4908600A480830006820F03E
:103A200003000849083108600846006840F00200B9
:103A3000086000BF03480830006800F00C00082848
:103A4000F8D10CBD00380240007000400854400717
:103A5000003C0240B5EEC00AF1EE10FA01DD012093
:103A60007047B5EEC00AF1EE10FA02D24FF0FF3007
:103A7000F6E70020F4E7000010B52548007801289B
:103A800007D023480078022803D021480078032873
:103A900001D1FFF7EFFA1F480078D8B19FED1E0A59
:103AA0001E4880ED0C0A1E48D0ED000A1D48B0F9F2
:103AB00000001D49B1F90010401A1C49096848432B
:103AC00000EE100AB8EE400A30EE800A144880ED8D
:103AD000000A0EE09FED160A104880ED0C0A10480F
:103AE00090ED010A80ED000A0C4890ED010A80ED8E
:103AF000000A00F06FF8002000F02EF8054800786A
:103B0000044948700748B0F900000749088010BD13
:103B1000D00400200804002000401C46840400203B
:103B200040040020F4030020F6030020E8030020F6
:103B30000000000018B10121054A117106E00021C2
:103B4000034A11714FF4FA71024A11607047000084
:103B500084120020EC030020A0BB1B49097869B146
:103B60001949497851B9194991ED060A164981ED6B
:103B7000010A91ED010A81ED020A0DE0124909786E
:103B800051B1114991ED020A81ED010A0F4991ED00
:103B9000060A0D4981ED020A0B4991ED020AD1EDA9
:103BA000010A30EE600ADFED0A0A80EE201AB6EE56
:103BB000000A31EE000ABDEEC00A81ED050A49692E
:103BC000014AD16070470000080400209C020020D8
:103BD0000066E6461CB51C48007838B11A484078A3
:103BE00020B91A4890ED010A80ED000A1748FDF748
:103BF000B3FB1648D0ED0B0A9FED151A80EE810A33
:103C0000DFED140A20EE200A134880ED000AFDF7CC
:103C10004FFC114890ED0B0ABDEEC00A10EE100AE1
:103C2000404200B20021CDE900100C4890ED0B0A93
:103C3000BDEEC00A10EE100A02B20B4640F2FF11B0
:103C40000748FDF7C2FA1CBD08040020400400200C
:103C5000000000460000B44384040020500300200C
:103C60000068004010B5FFF707FF0348008A401CBA
:103C70000149088210BD0000A411002070B505465E
:103C8000002D7BD0012D02D0022D78D120E0002024
:103C90000AE09FED5C0A00EB00115B4A02EB810138
:103CA00081ED0C0A411CC8B20428F2DB00240CE0B0
:103CB00004EB0411544A02EB8100F2EE040A9FED7A
:103CC000530AFEF71BF8601CC4B2042CF0DB95E02D
:103CD00000200AE09FED4B0A00EB00114A4A02EB7C
:103CE000810181ED0C0A411CC8B20428F2DB48486E
:103CF0004088C0F5806000EE100AB8EEC00A424865
:103D000080ED000A42484088A0F5806000EE100A6D
:103D1000B8EEC00A3C4880ED110A3D484088A0F545
:103D2000806000EE100AB8EEC00A374880ED220A23
:103D300037484088C0F5806000EE100AB8EEC00A2F
:103D4000314880ED330A32480088A0F580600028B1
:103D500016D52D48D0ED000A2D480088A0F58060CA
:103D600000EE100AB8EEC00A30EE800A264880ED58
:103D7000000A90ED000A80ED330A16E02DE03CE0E9
:103D800023480088A0F5806000280EDD20480088C8
:103D9000A0F5806000EE100AB8EEC00A1A4880ED67
:103DA000110A90ED110A80ED220A002012E000EBCA
:103DB0000011154A02EB810191ED000AF2EE040AAE
:103DC00020EE200A00EB001102EB810181ED000AD8
:103DD000411CC8B20428EADB10E000200AE09FED95
:103DE0000D0A00EB0011084A02EB810181ED0C0A7B
:103DF000411CC8B20428F2DB00E000BF00BF00F0A5
:103E00000BF870BD0000FA45EC0D00200080BB45AA
:103E10002E0C0020000000001CB5002408E004EB7C
:103E20000411184A02EB8100FDF742FB601CC4B28A
:103E3000042CF4DB134890ED3E0ABDEEC00A10EEF0
:103E4000100A00B20F4991ED2D0ABDEEC00A10EE26
:103E5000101A09B2CDE900100A4890ED1C0ABDEE17
:103E6000C00A10EE100A03B2064890ED0B0ABDEE30
:103E7000C00A10EE100A02B24FF400710248FDF7BA
:103E8000A4F91CBDEC0D0020006400409748D0F858
:103E90008400401C9549C1F884000846D0F884008D
:103EA0004FF47A71B0FBF1F201FB120000287DD1D2
:103EB0008E4880888D49C880002088800846008907
:103EC00048810020088108468089C88100208881B7
:103ED0000846008A4882002008820846808AC882F4
:103EE000002088820846008B48830020088308460B
:103EF000808BC883002088830846008C488400207B
:103F000008840846808CC884002088840846008D78
:103F10004885002008850846808DC8850020888552
:103F20000846008E4886002008860846808EC8868F
:103F3000002088860846008F4887002008870846AA
:103F4000808FC887002088870846B0F84000A1F815
:103F500042000020A1F840000846B0F84400A1F853
:103F600046000020A1F844000846B0F84800A1F837
:103F70004A000020A1F848000846B0F84C00A1F81B
:103F80004E000020A1F84C000846B0F85000A1F8FF
:103F900052000020A1F850000846B0F85400A1F8E3
:103FA00056000020A1F85400084600E09DE0B0F85B
:103FB0005800A1F85A000020A1F858000846B0F8AF
:103FC0005C00A1F85E000020A1F85C000846B0F893
:103FD0006000A1F862000020A1F860000846B0F877
:103FE0006400A1F866000020A1F864000846B0F85B
:103FF0006800A1F86A000020A1F868000846B0F83F
:104000006C00A1F86E000020A1F86C000846B0F822
:104010007000A1F872000020A1F870000846B0F806
:104020007400A1F876000020A1F874000846B0F8EA
:104030007800A1F87A000020A1F878000846B0F8CE
:104040007C00A1F87E000020A1F87C000846B0F8B2
:104050008000A1F882000020A1F880002448008898
:10406000234948800020088008468088C8800020B6
:104070008880084600894881002008810846808998
:10408000C881002088810846008A48820020088272
:104090000846808AC882002088820846008B4883B0
:1040A000002008830846808BC88300208883084648
:1040B000008C4884002008840846808CC884002036
:1040C00088840846008D4885002008850846808D34
:1040D000C885002088850846008E4886002008860E
:1040E0000846808EC886002088867047A41100206C
:1040F0004C12002030B5164800684FF47A72B0FBBD
:10410000F2F1481EB0F1807F01D301201BE0481E70
:104110004FF0E022506150170F22002807DA1307F2
:104120001D0E0C4B00F00F04241F1D5503E0130758
:104130001C0E094B1C5400BF00204FF0E022906180
:1041400007201061002008B100BFFEE730BD00006D
:104150006C05002018ED00E000E400E010B5154803
:10416000006840F47000134908601348006840F08C
:1041700001001149086000200F49083108600E480D
:1041800000680E4908400C4908600D48091D086088
:10419000081F006820F48020091F086000200649DD
:1041A0000C310860FFF7E0FB4FF0006001498039F7
:1041B000086010BD88ED00E000380240FFFFF6FE09
:1041C0001030002410B53E48FEF79EFE00203D4909
:1041D000A1F8880000BF0DE03A49B1F8881000EB63
:1041E000C002394B03EB8202128B1144354AA2F80C
:1041F0008810401C354909688842EDD33148B0F831
:104200008A003049B1F88810884203DD2D48B0F8A3
:104210008A0002E02B48B0F888002A49A1F88A00F9
:104220000846B0F85600B0F5FA7F03DA01202849B5
:10423000C87002E000202649C8702248B0F85A0031
:10424000B0F5FA7F03DA01202149487002E000202E
:104250001F4948701B48B0F852000A2803DA0120B1
:104260001B49087002E00020194908701548B0F891
:10427000660040F2DC51884203DA0120144948719B
:1042800002E00020124948710E48B0F86A0040F67A
:10429000C411884203DA01200D49887102E0002030
:1042A0000B4988710B484088B0F5487F03DA01203C
:1042B0000749C87102E000200549C87110BD00001F
:1042C000E4120020A41100200C0000202C0100208A
:1042D000C80400203012002010B5FFF773FF034818
:1042E0008088401C0149888010BD0000A411002076
:1042F000F0B50C46154600210022068C4FF6FE77DD
:104300003E400684018B028C4FF60C7631407E1CB9
:1043100006EA03162E4331434FF6F576324044F059
:104320000106324301830284F0BDF0B50C46154608
:10433000002100220026078C4FF6EF7C07EA0C07CD
:104340000784018B028C4FF6FF7707EA041640F6CC
:10435000FF4739404FF6FF7707EA033739434FF6F7
:10436000FF7707EA052739434FF65F773A4046F073
:1043700010073A4301830284F0BDF0B50C461546A0
:10438000002100220026078C4FF6FF6C07EA0C077D
:104390000784818B028C4FF6FF7707EA04264FF6DD
:1043A0000C7739404FF6FF7707EA03172F4339435D
:1043B0004FF2FF573A4046F480773A4381830284B4
:1043C000F0BDF0B50C461546002100220026078CF2
:1043D0004EF6FF7C07EA0C070784818B028C4FF6B0
:1043E000FF7707EA043640F6FF4739404FF6FF777C
:1043F00007EA052739434FF6FF7707EA03373943C2
:1044000045F6FF773A4046F480573A438183028469
:10441000F0BD000010B52DED0C8B02216A4800F0B4
:1044200069F900281BD00221674800F051F966485D
:10443000008C00F0020098B90020644908606249CD
:1044400048626349086000215F4800F044F9022196
:104450005D4800F0A9F901215B4800F03CF9A2E0B9
:104460005948008C00F002000028F8D0564800F0AF
:104470003EF9564908600846006801F077FA41ECB9
:104480001D0B9FED540B53EC102B01F0BFFA41ECC8
:104490001B0B4F49086801F069FA41EC1C0B53EC07
:1044A0001B2B01F057F841EC1A0B9FED4C0B53EC12
:1044B000102B01F0ABFA41EC190B9FED4A0B53ECBA
:1044C000102B01F0FBF841EC180B01F011F84749F3
:1044D0000860084690ED000A454880ED000AB1EEFC
:1044E000021ADFED440A90ED000AFDF7C0F94048DA
:1044F00080ED000A3D48006801F072FD41EC180BA8
:104500009FED3D0B53EC102B01F07EFB05D238489C
:1045100090ED000A354880ED000A354890ED000A1C
:104520003248D0ED000A30EE600A10EE101A08464C
:1045300001F056FD41EC190BB0EE490AF0EE690AA4
:1045400000F0CCFCB0EE408AF0EE608A9FED2C0BC0
:1045500053EC102B51EC180B01F056FB05D22448FC
:1045600090ED000A214880ED000A204890ED000AF5
:104570000A212548FDF770FB1C4880ED000A90EDEC
:10458000000ADFED220A20EE200A80ED000A002159
:104590000D4800F0A0F800210B4800F005F90121BA
:1045A000094800F098F80121074800F0A3F840B14D
:1045B0000121054800F08CF805480068401C0449BA
:1045C0000860BDEC0C8B10BD00400140F4040020DD
:1045D000EC040020FCA9F1D24D62503FC3F5285CE9
:1045E0008FC2D53F0000000000000040F80400200A
:1045F0003401002000000000000000000000124014
:10460000333333333333D33F4006002000007A4442
:104610000EB501210820FEF737FC5320ADF800004D
:104620004FF0FF3001900020ADF80200ADF8080017
:104630006946044800F0EEF80121024800F04BF80A
:104640000EBD0000000C004030B589B005460C4698
:1046500001210846FEF708FC01210804FEF734FC9E
:104660000420019002208DF808008DF80900002038
:104670008DF80A0002208DF80B0001A91248FDF701
:104680000BFC032202211048FDF74EFC0020ADF880
:104690002000ADF81A000795ADF8184006A90B48A0
:1046A00000F0B8F803A800F06DF803A9074800F07F
:1046B00032F801220321054800F06DF8012103487A
:1046C00000F009F809B030BD000002400040014090
:1046D000CA430282704721B1028842F0010202807F
:1046E00004E002884FF6FE731A40028070470146CC
:1046F000486B704730B50246002000230024158A1D
:1047000005EA0103958905EA010413B10CB1012002
:1047100000E0002030BD70B505460C46208850B939
:104720002389A28861882846FFF7E2FDE1882846B0
:1047300000F043F825E0208804280AD12389A288C4
:1047400061882846FFF7F1FDE188284600F03EF831
:1047500017E0208808280AD12389A2886188284682
:10476000FFF70BFEE188284600F03DF809E02389B9
:10477000A28861882846FFF724FEE188284600F0D9
:104780003BF870BD00210180418001218180002122
:10479000C180018170471AB183890B43838102E094
:1047A00083898B43838170470A460021018C4FF631
:1047B000FD731940114301847047028B4FF6F37368
:1047C0001A400283028B0A4302837047028B4FF226
:1047D000FF331A400283028B4FF6FF7303EA012373
:1047E0001A4302837047828B4FF6F3731A40828319
:1047F000828B0A4382837047828B4FF2FF331A40C9
:104800008283828B4FF6FF7303EA01231A4382836C
:104810007047000000220288184B98420ED0184BB7
:1048200098420BD0B0F1804F08D0164B984205D07B
:10483000154B984202D0154B984204D14FF68F7316
:104840001A404B881A43124B984207D0114B98429A
:1048500004D04FF6FF431A400B891A4302804B687D
:10486000C3620B880385054B984202D0044B9842E3
:1048700001D18B7A038601238382704700000140B7
:10488000000401400004004000080040000C00400B
:10489000001000400014004010B540F224411448BC
:1048A00000F080F9012822D1114800881048808842
:1048B0001048FDF7CDF8104908600E48FDF7C8F81C
:1048C000122808D10D48FEF793FB0D48808E401C3E
:1048D0000B4988860BE000210648FCF7F7FF122001
:1048E0000449091D086001210248FCF7EFFF10BDD3
:1048F000001001404064024030010020440C0020C0
:10490000A411002010B540F22441174800F04AF9E4
:1049100040B340F22441144800F0A8F8124800883F
:104920001148001D0088114800F0F6F9044622469F
:104930000F490E48FEF77EFE0E48B0F8520060B9EF
:1049400000210D48FCF7C2FF4FF4FA700A49091D17
:10495000086001210848FCF7B9FF0648008F401C99
:104960000449088710BD00000044004038010020C1
:10497000460A0020A41100208860024010B540F2D1
:104980002441124800F00EF901281DD10F4800887B
:104990000E48001D00880E48FDF75AF8182807D168
:1049A000FDF7A8FC0B48808F401C0A4988870BE064
:1049B00000210748FCF78AFF182005492839C862FA
:1049C00001210348FCF782FF10BD000000480040B1
:1049D00028600240A411002010B540F224411E4876
:1049E00000F0E0F8012835D11B4800881A48001D66
:1049F00000881A48FDF72CF826281FD1184800789F
:104A0000552813D11648407880B91648144989783A
:104A1000017020221249091D401CFBF745FC124879
:104A2000B0F86000401C1049A1F860000E48B0F8D2
:104A30004800401C0C49A1F848000BE00021074841
:104A4000FCF744FF26200549091D086001210348A1
:104A5000FCF73CFF10BD0000001401402864024038
:104A60008E0C0020F00C0020A411002010B50022B4
:104A7000002340F66A14A14200D100BF0A120124AB
:104A80009440A3B2DC43048010BD21B1828942F47A
:104A90000052828104E082894DF6FF731A408281C0
:104AA00070471AB1838A0B43838202E0838A8B4367
:104AB0008382704710B504463248844208D10121F0
:104AC0001020FEF711FA00211020FEF70DFA57E032
:104AD0002D48844209D101214804FEF7E5F900215F
:104AE0004FF40030FEF7E0F94AE02848844209D14B
:104AF00001218804FEF7D8F900214FF48020FEF749
:104B0000D3F93DE02248844209D10121C804FEF7CF
:104B1000CBF900214FF40020FEF7C6F930E01D4824
:104B2000844209D101210805FEF7BEF900214FF4A6
:104B30008010FEF7B9F923E01748844208D101211B
:104B40002020FEF7D1F900212020FEF7CDF917E053
:104B50001248844209D101218807FEF7A5F90021F6
:104B60004FF08040FEF7A0F90AE00D48844207D1DB
:104B700001214005FEF798F900216005FEF794F940
:104B800010BD0000001001400044004000480040FB
:104B9000004C0040005000400014014000780040EC
:104BA000007C004070B50246002400230025002050
:104BB00040F66A16B14200D100BFC1F3421501F0C0
:104BC0001F03012606FA03F3012D02D19689334013
:104BD00006E0022D02D1168A334001E0968A334066
:104BE0000C12012606FA04F41688344013B10CB1F5
:104BF000012000E0002070BDF0B50346002400262F
:104C00000025002040F66A17B94200D100BF1846BF
:104C1000C1F3421401F01F06012707FA06F5012C23
:104C200001D10C3004E0022C01D1103000E014302E
:104C30001AB107682F43076002E00768AF430760B7
:104C4000F0BD00002DE9FF4705460E460024A146B1
:104C500000BFA046B08900B100BF2C8A24F44054A4
:104C6000F08804432C82AC8941F20C608443B08804
:104C700031890843718908430443AC81AC8A24F428
:104C80004074B0890443AC826846FEF73DF9204881
:104C9000854202D01F48854202D1DDF80C9001E028
:104CA000DDF80890A88900F4004040B109EBC90084
:104CB00000EB091031684900B0FBF1F707E009EBA0
:104CC000C90000EB091031688900B0FBF1F76420DE
:104CD000B7FBF0F004012009642101FB1078A889DA
:104CE00000F4004040B1322000EBC800B0FBF1F00E
:104CF00000F00700044308E0322000EB08106421B4
:104D0000B0FBF1F000F00F0004432C81BDE8FF87F9
:104D1000001001400014014010B504466068FCF723
:104D200097FE618A081AA082E08A218B0844E082FB
:104D3000E08A618A884206DBE08A618A90FBF1F2B0
:104D400001FB1200E082E08AA18A884215DAA08A7B
:104D5000E18A401A2083208B218A884235DC00209A
:104D600007E0E28AE1681144095CA2681154411C21
:104D700088B2218B8142F4DC27E0A08A618A084452
:104D8000E18A401A2083208B218A88421DDC002082
:104D900007E0E28AE1681144095CA2681154411CF1
:104DA00088B2218BA28A891A8142F2DC002009E0B4
:104DB000E168095C238BA2681A44A38AD21A1154B1
:104DC000411C88B2A18A8142F2DC208B10BD000018
:104DD00070B505460C4600260DB1022C01D8002006
:104DE00070BDA11E094802882846FDF7DBF806467B
:104DF000F1B2A01E285C814206D1601E285CB0EB97
:104E0000162F01D10120EBE70020E9E78005002003
:104E100070B505460C4600260DB1022C01D80020C5
:104E200070BD611EFF222846FDF7D6F80646601EBB
:104E3000285CB04201D10120F2E70020F0E7000039
:104E400010B5FCF735FE0348008C401C014908846E
:104E500010BD0000A411002010B5174800681749C4
:104E60000860154840684860154800688860154823
:104E70000068C8601348406808611348406848618A
:104E800012491348FCF708FD00211148FCF71EFDEC
:104E900000BF0F48FCF7D2FD0028FAD107480C49A3
:104EA0000C31086024200A49A039C1F8A40001216E
:104EB0000748FCF70BFD10BD200D00202905002040
:104EC000E40300200C030020500300200080202079
:104ED000A060024010B5FFF7BFFF10BD2DED020B23
:104EE000019820F0004001909DED000B02B070474A
:104EF00000B52DED048BB0EE409AF0EE609A83B0D1
:104F000051EC190B00F0B6FE41EC180B18EE100A2C
:104F100018EE901A8DED008B002818BF0120084371
:104F200020F00040C0F17F6000F1E040C00F14D0DD
:104F300019EE101A19EE900A8DED009B002918BF8A
:104F40000121084320F00040C0F17F6000F1E04003
:104F5000C00F04BF0120FBF7F4F9B0EE480A03B01C
:104F6000F0EE680ABDEC048B00BD00001CB5012109
:104F70000846FDF779FF01208DF804008DF8060042
:104F80000820009001208DF8070002208DF8050010
:104F900069460248FCF780FF1CBD0000000002408B
:104FA00010B5FBF798FAFDF785FE002010BD000054
:104FB00000B595B001210846FDF756FF01211020EC
:104FC000FDF782FF01218805FDF74EFF07220A2128
:104FD0003448FCF7A9FF4FF48060139002208DF84D
:104FE000500003208DF8510000208DF85200012060
:104FF0008DF8530013A92B48FCF74EFF2A480F9059
:105000000020ADF84000ADF84200ADF84400ADF826
:1050100048000420ADF846000FA92448FFF712FE0F
:105020002348FCF75FFC00BF2148FCF707FD002880
:10503000FAD14FF0006000901C48001D01901D48FF
:105040000290122004900020039005904FF480609D
:1050500006900020079008904FF48070099040025D
:105060000A9000200B9003200C9000200D900E90D1
:1050700069460F48FCF7F0FC012240F224410B483E
:10508000FFF7BAFD012240210848FFF70AFD012180
:105090000648FFF7FAFC01210548FCF717FC15B09C
:1050A00000BD000000000240A08601000010014089
:1050B00040640240440C002010B596B00446012123
:1050C0005348FDF7D1FE01214804FDF7DDFE07221C
:1050D00005215048FCF728FF072206214D48FCF720
:1050E00023FF6020149002208DF8540000208DF8DA
:1050F000560003208DF8550000208DF8570014A9A4
:105100004448FCF7C9FE10940020ADF84400ADF807
:105110004600ADF848000C20ADF84A000020ADF87C
:105120004C0010A93C48FFF78DFD3C48FCF7DAFB2A
:105130004FF0006001903848001D029038480390FD
:10514000002004904FF4FA700590002006904FF470
:10515000806007900020089009904FF480700A90BA
:105160004FF440300B9000200C900D900E900F905B
:1051700001A92A48FCF770FC28481830FCF7B2FB5C
:1051800000BF26481830FCF759FC0128F9D04FF031
:10519000006001902048001D0290224803904020AA
:1051A000049024200590002006904FF48060079022
:1051B0000020089009900A904FF440300B90002096
:1051C0000C900D900E900F9001A914481830FCF728
:1051D00043FC01211048FFF758FC012240F2244112
:1051E0000D48FFF709FD012240210B48FFF759FC4C
:1051F000012280210848FFF754FC01210748FCF7F1
:1052000065FB012105481830FCF760FB16B010BDA6
:1052100008002000000C024000440040886002406A
:10522000580700202905002010B596B0044601213A
:105230000820FDF719FE01218804FDF725FE012154
:105240004805FDF711FE072208214748FCF76CFED0
:10525000072209214448FCF767FE4FF44070149080
:1052600002208DF854008DF8550000208DF856006E
:1052700001208DF8570014A93B48FCF70DFE10944F
:105280000020ADF84400ADF84600ADF84800ADF898
:105290004C000C20ADF84A0010A93448FFF7D2FCAE
:1052A0003348FCF71FFB00BF3148FCF7C7FB002861
:1052B000FAD14FF0006001902C48001D02902D485B
:1052C0000390182005900020049006904FF4806011
:1052D00007900020089009904FF480700A904002D7
:1052E0000B9000200C9003200D9000200E900F904A
:1052F00001A91F48FCF7B0FB1D483030FCF7F2FA5B
:1053000000BF1B483030FCF799FB0028F9D11A4840
:1053100003900F2005904020049000200A9001A9DE
:1053200013483030FCF798FB01211048FFF7ADFB24
:10533000012240F224410D48FFF75EFC012240218A
:105340000A48FFF7AEFB012280210848FFF7A9FBBE
:1053500001210748FCF7BAFA012105483030FCF773
:10536000B5FA16B010BD0000000C02400048004025
:1053700028600240560C0020D201002010B596B0E3
:10538000044601210420FDF76FFD01212020FDF7D7
:105390009BFD01218805FDF767FD08220621504885
:1053A000FCF7C2FD082207214D48FCF7BDFD012096
:1053B0008DF856008DF8570002208DF85400C0205B
:1053C000149002208DF8550014A94548FCF764FD9F
:1053D0004448FFF76FFB10940020ADF84400ADF88F
:1053E0004600ADF84800ADF84C000C20ADF84A007E
:1053F00010A93C48FFF726FC3B48FCF773FA4FF036
:10540000206001903748001D02903848039000202A
:10541000049026200590002006904FF480600790AD
:105420000020089009904FF480700A904FF44030AB
:105430000B9000200C9003200D9000200E900F90F8
:1054400001A92948FCF708FB27487830FCF74AFAFD
:1054500000BF25487830FCF7F1FA0128F9D04FF069
:10546000206001901F48001D029000200390402002
:1054700004900020059006904FF480600790002073
:10548000089009900A904FF440300B9000200C9047
:105490000D900E900F9001A913487830FCF7DCFABC
:1054A000012240F224410F48FFF7A6FB01210D48DD
:1054B000FFF7EBFA012240210A48FFF7F2FA012236
:1054C00080210848FFF7EDFA01210748FCF7FEF9B3
:1054D000002105487830FCF7F9F916B010BD00003E
:1054E0000008024000140140286402408E0C002095
:1054F00021F00042A2F16052B2F5801F01F000439A
:1055000028BFD2F17F6C0BD95FEA001C43EAC202CC
:1055100042EB507018BF704728BF20F00100704761
:10552000B2F5801FBCBF184670474FEA410C1CF50E
:10553000001F02D2084600F0C9BD70B500F010FB94
:1055400000000089FFF7F6BF4FF00040A0F5800093
:105550007047000010B591EA030F48BF83F0004385
:1055600000F15C84841A71EB030C05D2121943EB31
:105570000C03001B61EB0C01DFF824E14FEA11542E
:10558000A4EB135C1EEA430F18BF9EEA445F73D07E
:1055900023EA0E03DCF1200E21EA045143F48013C8
:1055A00032D322FA0CFE10EB0E0023FA0CFE41EB74
:1055B0000E01CCF1200E03FA0EFE10EB0E0051F19D
:1055C0000001B1F5801FCCF1200E32D201EB045165
:1055D00012FA0EF2BDE8104058BF7047401C38BFA9
:1055E0005FEA420218BF7047002814BF20F0010094
:1055F00041F100014FEA410313F5001F38BF704726
:10560000A1F1C04100F0FABA012A43EB0302ACF168
:10561000200CDCF11F0E32BF4FF0000E23FA0CF30A
:1056200010EB030041EB0451B4EB115FD0D0A1EBC0
:10563000045101F5801149085FEA300001EB045183
:105640000ED350F1000038BF12FA0EFE08D1BDE8AB
:105650001040C9E7401C38BF5FEA4202CAD1C3E725
:10566000BDE810404FEA410313F5001F38BF7047F3
:10567000A1F1C04100F0C2BA9EEA445F08D011EA2D
:105680005E0FBDE8104004BF01F0004100207047EC
:10569000BDE8104070B500F063FA00BF64FBBE3E89
:1056A0000000E0FF491058BFC1F140415B1058BFF6
:1056B000C3F140438B42EFF3008070472DE9C041B6
:1056C00030B4DFF8A0C23CEA111418BF3CEA13144E
:1056D00000F0EC8081EA03051CEA111444EAD57459
:1056E00018BF1CEA131500F0C780A4EB05044FF0A7
:1056F000004545EAC12145EAC32341EA505143EA46
:10570000525304F17F74994204F500344FEAC020EB
:105710004FEAC22208BF904200F09C804FEA136516
:105720000FF24016765D4FEA134506FB05F7C7F109
:10573000807706FB07F74FEAD737A7FB0368764267
:10574000C8F58038A7FB06CE38BFA8F1010807FBD3
:1057500008E64FF0000EA6FB028CE6FB03CEDCF160
:10576000000CCEF1004E38BFAEF1010EA6FB0C5876
:105770004FF000074FF00005E6FB0E87A1FB08C6BF
:10578000A0FB07CE16EB0E0645F10005E1FB076511
:1057900015F1E04E7EBFA4F580345FEA46066D4108
:1057A00016F1800745F100054FEA17274FEA066614
:1057B00047EA0567A6F1DE46B6F1805F4FEA152598
:1057C0001FD9384624F0010C05EBC471BCF1FE6F03
:1057D00001EB0C1102D8F0BCBDE8008124425CBF93
:1057E00001F5801E9EEAC47F02D4F0BCBDE80081B2
:1057F000244238D4F0BCA1F1C041BDE8004100F022
:10580000FDB94FEAD22242EA43524FEAD323A7FB23
:1058100002864FEAD02040EA415007FB03661EEAA9
:105820000E0F4FEAD12105FB026658BFA6EB0056CA
:10583000B6EB00564FEA520E4EEAC37E18EB0E0E40
:1058400056EB530EBDD518EB02085E417F1C55F197
:105850000005B6E74FF480154FF000074FF0000643
:105860004FF00008ADE7F0BC4FF0000001F1C0417F
:1058700001F00041BDE8008111EA0C1F0CEA13158C
:1058800000D00CE013EA0C1F00F025804FF0000060
:10589000F0BC81EA030101F00041BDE80081F0BCE9
:1058A000BDE8004181EA030100F0A8B9F0BCBDE801
:1058B000004170B500F054F9097EFC3E00F007B8D5
:1058C00081EA03014FF0000001F00041704781EAD6
:1058D000030100F093B9F0BCBDE800414FF00000B7
:1058E00021497047FFFDFBF9F7F5F4F2F0EEEDEB1F
:1058F000E9E8E6E4E3E1E0DEDDDBDAD8D7D5D4D3CE
:10590000D1D0CFCDCCCBCAC8C7C6C5C4C2C1C0BF19
:10591000BEBDBCBBBAB9B8B7B6B5B4B3B2B1B0AF1F
:10592000AEADACABAAA9A8A8A7A6A5A4A3A3A2A103
:10593000A09F9F9E9D9C9C9B9A99999897979695BE
:1059400095949393929191908F8F8E8E8D8C8C8B5A
:105950008B8A8989888887878685858484838382E2
:10596000828181800000FF070000F87FB0FA80F399
:1059700010FA03F10AD0C3F11D0303F580634FEA67
:1059800041504FEA035202EBD12170474FF0000023
:105990007047000051EA030C17D41CF5801F58BF54
:1059A000BCF5801F00F10680994218BF704708BF00
:1059B0009042704707D711F5801F58BF13F5801F1D
:1059C00019D499427047894270471CF5801F08D549
:1059D000BCF5801FF7D58B4218BF704708BF8242C5
:1059E00070474FF4001C1CEB410F38BF1CEB430FFA
:1059F00001D28B42704770B500F0B2F89224490092
:105A00004FF000514FF08053FFF74CBEDFF848C114
:105A100070B51CEA111E1EBF1CEA13159EEA0C0F7E
:105A200095EA0C0F00F06F8081EA030423EA4C131F
:105A30004EEAD47E21EA4C1141F4801143F48013E4
:105A4000AE44A1FB024CA0FB0365AEF17F7E36198C
:105A500055EB0C05A1FB034C4CF10003A0FB021C11
:105A600016EB0C06654153F10003094218BF46F0DE
:105A7000010613F4007F0BD14FEA03314FEA0530E2
:105A8000340341EA155140EA16506FF003020AE070
:105A90004FEAC3214FEAC520F40241EA555140EADA
:105AA00056506FF0020202EB2E4201EB025585EADE
:105AB000CE710AD05FEA440C18BF24F0004450F1C4
:105AC000000041F1000120EAD47040F2FE7C624502
:105AD00000D270BDA84214BF4FF080444FF0404444
